{"contracts/mocks/BenchUsingTellor.sol":{"BenchUsingTellor":{"abi":[{"inputs":[{"internalType":"address payable","name":"_tellor","type":"address"}],"stateMutability":"nonpayable","type":"constructor"},{"inputs":[{"internalType":"bytes32","name":"_queryId","type":"bytes32"},{"internalType":"uint256","name":"_timestamp","type":"uint256"}],"name":"getDataAfter","outputs":[{"internalType":"bytes","name":"_value","type":"bytes"},{"internalType":"uint256","name":"_timestampRetrieved","type":"uint256"}],"stateMutability":"view","type":"function"},{"inputs":[{"internalType":"bytes32","name":"_queryId","type":"bytes32"},{"internalType":"uint256","name":"_timestamp","type":"uint256"}],"name":"getDataBefore","outputs":[{"internalType":"bytes","name":"_value","type":"bytes"},{"internalType":"uint256","name":"_timestampRetrieved","type":"uint256"}],"stateMutability":"view","type":"function"},{"inputs":[{"internalType":"bytes32","name":"_queryId","type":"bytes32"},{"internalType":"uint256","name":"_timestamp","type":"uint256"}],"name":"getIndexForDataAfter","outputs":[{"internalType":"bool","name":"_found","type":"bool"},{"internalType":"uint256","name":"_index","type":"uint256"}],"stateMutability":"view","type":"function"},{"inputs":[{"internalType":"bytes32","name":"_queryId","type":"bytes32"},{"internalType":"uint256","name":"_timestamp","type":"uint256"}],"name":"getIndexForDataBefore","outputs":[{"internalType":"bool","name":"_found","type":"bool"},{"internalType":"uint256","name":"_index","type":"uint256"}],"stateMutability":"view","type":"function"},{"inputs":[{"internalType":"bytes32","name":"_queryId","type":"bytes32"},{"internalType":"uint256","name":"_timestamp","type":"uint256"},{"internalType":"uint256","name":"_maxAge","type":"uint256"},{"internalType":"uint256","name":"_maxCount","type":"uint256"}],"name":"getMultipleValuesBefore","outputs":[{"internalType":"bytes[]","name":"_values","type":"bytes[]"},{"internalType":"uint256[]","name":"_timestamps","type":"uint256[]"}],"stateMutability":"view","type":"function"},{"inputs":[{"internalType":"bytes32","name":"_queryId","type":"bytes32"}],"name":"getNewValueCountbyQueryId","outputs":[{"internalType":"uint256","name":"","type":"uint256"}],"stateMutability":"view","type":"function"},{"inputs":[{"internalType":"bytes32","name":"_queryId","type":"bytes32"},{"internalType":"uint256","name":"_timestamp","type":"uint256"}],"name":"getReporterByTimestamp","outputs":[{"internalType":"address","name":"","type":"address"}],"stateMutability":"view","type":"function"},{"inputs":[{"internalType":"bytes32","name":"_queryId","type":"bytes32"},{"internalType":"uint256","name":"_index","type":"uint256"}],"name":"getTimestampbyQueryIdandIndex","outputs":[{"internalType":"uint256","name":"","type":"uint256"}],"stateMutability":"view","type":"function"},{"inputs":[{"internalType":"bytes32","name":"_queryId","type":"bytes32"},{"internalType":"uint256","name":"_timestamp","type":"uint256"}],"name":"isInDispute","outputs":[{"internalType":"bool","name":"","type":"bool"}],"stateMutability":"view","type":"function"},{"inputs":[{"internalType":"bytes32","name":"_queryId","type":"bytes32"},{"internalType":"uint256","name":"_timestamp","type":"uint256"}],"name":"retrieveData","outputs":[{"internalType":"bytes","name":"","type":"bytes"}],"stateMutability":"view","type":"function"},{"inputs":[],"name":"tellor","outputs":[{"internalType":"contract ITellor","name":"","type":"address"}],"stateMutability":"view","type":"function"}],"evm":{"bytecode":{"linkReferences":{},"object":"608060405234801561001057600080fd5b5060405161108b38038061108b83398101604081905261002f91610054565b600080546001600160a01b0319166001600160a01b0392909216919091179055610082565b600060208284031215610065578081fd5b81516001600160a01b038116811461007b578182fd5b9392505050565b610ffa806100916000396000f3fe608060405234801561001057600080fd5b50600436106100b95760003560e01c8063a792765f11610081578063e07c54861161005b578063e07c5486146101c3578063f66f49c3146101d6578063fcd4a546146101e9576100b9565b8063a792765f1461017d578063c5958af914610190578063ce5e11bf146101b0576100b9565b80631959ad5b146100be57806329449085146100ee57806344e87f911461011857806364ee3c6d1461013b57806377b03e0d1461015c575b600080fd5b6000546100d1906001600160a01b031681565b6040516001600160a01b0390911681526020015b60405180910390f35b6101016100fc366004610d48565b61020a565b6040805192151583526020830191909152016100e5565b61012b610126366004610d48565b610223565b60405190151581526020016100e5565b61014e610149366004610d48565b610236565b6040516100e5929190610ec5565b61016f61016a366004610d30565b610244565b6040519081526020016100e5565b61014e61018b366004610d48565b610257565b6101a361019e366004610d48565b610265565b6040516100e59190610eb2565b61016f6101be366004610d48565b610271565b6100d16101d1366004610d48565b61027d565b6101016101e4366004610d48565b610289565b6101fc6101f7366004610d69565b610296565b6040516100e5929190610e19565b60008061021784846102b3565b915091505b9250929050565b600061022f8383610336565b9392505050565b6060600061021784846103ba565b600061024f82610413565b90505b919050565b606060006102178484610490565b606061022f8383610526565b600061022f83836105ae565b600061022f8383610632565b60008061021784846106b6565b6060806102a586868686610877565b915091505b94509492505050565b60008054604051632944908560e01b8152600481018590526024810184905282916001600160a01b031690632944908590604401604080518083038186803b1580156102fe57600080fd5b505afa158015610312573d6000803e3d6000fd5b505050506040513d601f19601f820116820180604052508101906102179190610d05565b600080546040516344e87f9160e01b815260048101859052602481018490526001600160a01b03909116906344e87f919060440160206040518083038186803b15801561038257600080fd5b505afa158015610396573d6000803e3d6000fd5b505050506040513d601f19601f8201168201806040525081019061022f9190610c96565b606060008060006103cb86866106b6565b91509150816103f2576000604051806020016040528060008152509093509350505061021c565b6103fc86826105ae565b92506104088684610526565b935050509250929050565b600080546040516377b03e0d60e01b8152600481018490526001600160a01b03909116906377b03e0d9060240160206040518083038186803b15801561045857600080fd5b505afa15801561046c573d6000803e3d6000fd5b505050506040513d601f19601f8201168201806040525081019061024f9190610dd5565b6000805460405163a792765f60e01b81526004810185905260248101849052606092916001600160a01b03169063a792765f9060440160006040518083038186803b1580156104de57600080fd5b505afa1580156104f2573d6000803e3d6000fd5b505050506040513d6000823e601f3d908101601f1916820160405261051a9190810190610cb0565b90969095509350505050565b60005460405163c5958af960e01b815260048101849052602481018390526060916001600160a01b03169063c5958af99060440160006040518083038186803b15801561057257600080fd5b505afa158015610586573d6000803e3d6000fd5b505050506040513d6000823e601f3d908101601f1916820160405261022f9190810190610d9a565b6000805460405163ce5e11bf60e01b815260048101859052602481018490526001600160a01b039091169063ce5e11bf9060440160206040518083038186803b1580156105fa57600080fd5b505afa15801561060e573d6000803e3d6000fd5b505050506040513d601f19601f8201168201806040525081019061022f9190610dd5565b6000805460405163703e2a4360e11b815260048101859052602481018490526001600160a01b039091169063e07c54869060440160206040518083038186803b15801561067e57600080fd5b505afa158015610692573d6000803e3d6000fd5b505050506040513d601f19601f8201168201806040525081019061022f9190610c6f565b60008060006106c485610413565b9050806106d857600080925092505061021c565b806106e281610f66565b91506001905060008083816106f78a836105ae565b9050888111610712576000809750975050505050505061021c565b61071c8a846105ae565b90508881111561072b57600094505b84156107e257600261073d8484610ee7565b6107479190610eff565b93506107538a856105ae565b9050888111156107995760006107738b61076e600188610f1f565b6105ae565b90508981116107855760009550610793565b610790600186610f1f565b92505b506107dd565b60006107aa8b61076e876001610ee7565b9050898111156107cd5760009550846107c281610f7d565b9550508091506107db565b6107d8856001610ee7565b93505b505b61072b565b6107ec8a82610336565b610802576001849750975050505050505061021c565b61080c8a82610336565b801561081757508584105b1561083a578361082681610f7d565b9450506108338a856105ae565b9050610802565b858414801561084e575061084e8a82610336565b15610865576000809750975050505050505061021c565b6001849750975050505050505061021c565b6060806000806108908861088b888a610f1f565b6106b6565b91509150816108e15760408051600080825260208201909252906108c4565b60608152602001906001900390816108af5790505b5060408051600081526020810190915290945092506102aa915050565b60006108ed89896102b3565b909350905082610940576040805160008082526020820190925290610922565b606081526020019060019003908161090d5790505b5060408051600081526020810190915290955093506102aa92505050565b60008060008867ffffffffffffffff81111561096c57634e487b7160e01b600052604160045260246000fd5b604051908082528060200260200182016040528015610995578160200160208202803683370190505b5090505b88831080156109bc575084826109b0866001610ee7565b6109ba9190610f1f565b115b15610a2e5760006109d18d61076e8588610f1f565b90506109dd8d82610336565b610a1b5780828581518110610a0257634e487b7160e01b600052603260045260246000fd5b602090810291909101015283610a1781610f7d565b9450505b82610a2581610f7d565b93505050610999565b60008367ffffffffffffffff811115610a5757634e487b7160e01b600052604160045260246000fd5b604051908082528060200260200182016040528015610a8a57816020015b6060815260200190600190039081610a755790505b50905060008467ffffffffffffffff811115610ab657634e487b7160e01b600052604160045260246000fd5b604051908082528060200260200182016040528015610adf578160200160208202803683370190505b50905060005b85811015610bc5578381610afa600189610f1f565b610b049190610f1f565b81518110610b2257634e487b7160e01b600052603260045260246000fd5b6020026020010151828281518110610b4a57634e487b7160e01b600052603260045260246000fd5b602002602001018181525050610b878f838381518110610b7a57634e487b7160e01b600052603260045260246000fd5b6020026020010151610526565b838281518110610ba757634e487b7160e01b600052603260045260246000fd5b60200260200101819052508080610bbd90610f7d565b915050610ae5565b50909d909c509a5050505050505050505050565b8051801515811461025257600080fd5b600082601f830112610bf9578081fd5b815167ffffffffffffffff80821115610c1457610c14610fae565b604051601f8301601f19908116603f01168101908282118183101715610c3c57610c3c610fae565b81604052838152866020858801011115610c54578485fd5b610c65846020830160208901610f36565b9695505050505050565b600060208284031215610c80578081fd5b81516001600160a01b038116811461022f578182fd5b600060208284031215610ca7578081fd5b61022f82610bd9565b600080600060608486031215610cc4578182fd5b610ccd84610bd9565b9250602084015167ffffffffffffffff811115610ce8578283fd5b610cf486828701610be9565b925050604084015190509250925092565b60008060408385031215610d17578182fd5b610d2083610bd9565b9150602083015190509250929050565b600060208284031215610d41578081fd5b5035919050565b60008060408385031215610d5a578182fd5b50508035926020909101359150565b60008060008060808587031215610d7e578081fd5b5050823594602084013594506040840135936060013592509050565b600060208284031215610dab578081fd5b815167ffffffffffffffff811115610dc1578182fd5b610dcd84828501610be9565b949350505050565b600060208284031215610de6578081fd5b5051919050565b60008151808452610e05816020860160208601610f36565b601f01601f19169290920160200192915050565b6000604082016040835280855180835260608501915060608160051b86010192506020808801855b83811015610e6f57605f19888703018552610e5d868351610ded565b95509382019390820190600101610e41565b505085840381870152865180855287820194820193509150845b82811015610ea557845184529381019392810192600101610e89565b5091979650505050505050565b60006020825261022f6020830184610ded565b600060408252610ed86040830185610ded565b90508260208301529392505050565b60008219821115610efa57610efa610f98565b500190565b600082610f1a57634e487b7160e01b81526012600452602481fd5b500490565b600082821015610f3157610f31610f98565b500390565b60005b83811015610f51578181015183820152602001610f39565b83811115610f60576000848401525b50505050565b600081610f7557610f75610f98565b506000190190565b6000600019821415610f9157610f91610f98565b5060010190565b634e487b7160e01b600052601160045260246000fd5b634e487b7160e01b600052604160045260246000fdfea26469706673582212207cd75cd899c42b3a5f27be565d22eaea56f608e0dc5bae73913fcbe71e9f02a964736f6c63430008030033","opcodes":"PUSH1 0x80 PUSH1 0x40 MSTORE CALLVALUE DUP1 ISZERO PUSH2 0x10 JUMPI PUSH1 0x0 DUP1 REVERT JUMPDEST POP PUSH1 0x40 MLOAD PUSH2 0x108B CODESIZE SUB DUP1 PUSH2 0x108B DUP4 CODECOPY DUP2 ADD PUSH1 0x40 DUP2 SWAP1 MSTORE PUSH2 0x2F SWAP2 PUSH2 0x54 JUMP JUMPDEST PUSH1 0x0 DUP1 SLOAD PUSH1 0x1 PUSH1 0x1 PUSH1 0xA0 SHL SUB NOT AND PUSH1 0x1 PUSH1 0x1 PUSH1 0xA0 SHL SUB SWAP3 SWAP1 SWAP3 AND SWAP2 SWAP1 SWAP2 OR SWAP1 SSTORE PUSH2 0x82 JUMP JUMPDEST PUSH1 0x0 PUSH1 0x20 DUP3 DUP5 SUB SLT ISZERO PUSH2 0x65 JUMPI DUP1 DUP2 REVERT JUMPDEST DUP2 MLOAD PUSH1 0x1 PUSH1 0x1 PUSH1 0xA0 SHL SUB DUP2 AND DUP2 EQ PUSH2 0x7B JUMPI DUP2 DUP3 REVERT JUMPDEST SWAP4 SWAP3 POP POP POP JUMP JUMPDEST PUSH2 0xFFA DUP1 PUSH2 0x91 PUSH1 0x0 CODECOPY PUSH1 0x0 RETURN INVALID PUSH1 0x80 PUSH1 0x40 MSTORE CALLVALUE DUP1 ISZERO PUSH2 0x10 JUMPI PUSH1 0x0 DUP1 REVERT JUMPDEST POP PUSH1 0x4 CALLDATASIZE LT PUSH2 0xB9 JUMPI PUSH1 0x0 CALLDATALOAD PUSH1 0xE0 SHR DUP1 PUSH4 0xA792765F GT PUSH2 0x81 JUMPI DUP1 PUSH4 0xE07C5486 GT PUSH2 0x5B JUMPI DUP1 PUSH4 0xE07C5486 EQ PUSH2 0x1C3 JUMPI DUP1 PUSH4 0xF66F49C3 EQ PUSH2 0x1D6 JUMPI DUP1 PUSH4 0xFCD4A546 EQ PUSH2 0x1E9 JUMPI PUSH2 0xB9 JUMP JUMPDEST DUP1 PUSH4 0xA792765F EQ PUSH2 0x17D JUMPI DUP1 PUSH4 0xC5958AF9 EQ PUSH2 0x190 JUMPI DUP1 PUSH4 0xCE5E11BF EQ PUSH2 0x1B0 JUMPI PUSH2 0xB9 JUMP JUMPDEST DUP1 PUSH4 0x1959AD5B EQ PUSH2 0xBE JUMPI DUP1 PUSH4 0x29449085 EQ PUSH2 0xEE JUMPI DUP1 PUSH4 0x44E87F91 EQ PUSH2 0x118 JUMPI DUP1 PUSH4 0x64EE3C6D EQ PUSH2 0x13B JUMPI DUP1 PUSH4 0x77B03E0D EQ PUSH2 0x15C JUMPI JUMPDEST PUSH1 0x0 DUP1 REVERT JUMPDEST PUSH1 0x0 SLOAD PUSH2 0xD1 SWAP1 PUSH1 0x1 PUSH1 0x1 PUSH1 0xA0 SHL SUB AND DUP2 JUMP JUMPDEST PUSH1 0x40 MLOAD PUSH1 0x1 PUSH1 0x1 PUSH1 0xA0 SHL SUB SWAP1 SWAP2 AND DUP2 MSTORE PUSH1 0x20 ADD JUMPDEST PUSH1 0x40 MLOAD DUP1 SWAP2 SUB SWAP1 RETURN JUMPDEST PUSH2 0x101 PUSH2 0xFC CALLDATASIZE PUSH1 0x4 PUSH2 0xD48 JUMP JUMPDEST PUSH2 0x20A JUMP JUMPDEST PUSH1 0x40 DUP1 MLOAD SWAP3 ISZERO ISZERO DUP4 MSTORE PUSH1 0x20 DUP4 ADD SWAP2 SWAP1 SWAP2 MSTORE ADD PUSH2 0xE5 JUMP JUMPDEST PUSH2 0x12B PUSH2 0x126 CALLDATASIZE PUSH1 0x4 PUSH2 0xD48 JUMP JUMPDEST PUSH2 0x223 JUMP JUMPDEST PUSH1 0x40 MLOAD SWAP1 ISZERO ISZERO DUP2 MSTORE PUSH1 0x20 ADD PUSH2 0xE5 JUMP JUMPDEST PUSH2 0x14E PUSH2 0x149 CALLDATASIZE PUSH1 0x4 PUSH2 0xD48 JUMP JUMPDEST PUSH2 0x236 JUMP JUMPDEST PUSH1 0x40 MLOAD PUSH2 0xE5 SWAP3 SWAP2 SWAP1 PUSH2 0xEC5 JUMP JUMPDEST PUSH2 0x16F PUSH2 0x16A CALLDATASIZE PUSH1 0x4 PUSH2 0xD30 JUMP JUMPDEST PUSH2 0x244 JUMP JUMPDEST PUSH1 0x40 MLOAD SWAP1 DUP2 MSTORE PUSH1 0x20 ADD PUSH2 0xE5 JUMP JUMPDEST PUSH2 0x14E PUSH2 0x18B CALLDATASIZE PUSH1 0x4 PUSH2 0xD48 JUMP JUMPDEST PUSH2 0x257 JUMP JUMPDEST PUSH2 0x1A3 PUSH2 0x19E CALLDATASIZE PUSH1 0x4 PUSH2 0xD48 JUMP JUMPDEST PUSH2 0x265 JUMP JUMPDEST PUSH1 0x40 MLOAD PUSH2 0xE5 SWAP2 SWAP1 PUSH2 0xEB2 JUMP JUMPDEST PUSH2 0x16F PUSH2 0x1BE CALLDATASIZE PUSH1 0x4 PUSH2 0xD48 JUMP JUMPDEST PUSH2 0x271 JUMP JUMPDEST PUSH2 0xD1 PUSH2 0x1D1 CALLDATASIZE PUSH1 0x4 PUSH2 0xD48 JUMP JUMPDEST PUSH2 0x27D JUMP JUMPDEST PUSH2 0x101 PUSH2 0x1E4 CALLDATASIZE PUSH1 0x4 PUSH2 0xD48 JUMP JUMPDEST PUSH2 0x289 JUMP JUMPDEST PUSH2 0x1FC PUSH2 0x1F7 CALLDATASIZE PUSH1 0x4 PUSH2 0xD69 JUMP JUMPDEST PUSH2 0x296 JUMP JUMPDEST PUSH1 0x40 MLOAD PUSH2 0xE5 SWAP3 SWAP2 SWAP1 PUSH2 0xE19 JUMP JUMPDEST PUSH1 0x0 DUP1 PUSH2 0x217 DUP5 DUP5 PUSH2 0x2B3 JUMP JUMPDEST SWAP2 POP SWAP2 POP JUMPDEST SWAP3 POP SWAP3 SWAP1 POP JUMP JUMPDEST PUSH1 0x0 PUSH2 0x22F DUP4 DUP4 PUSH2 0x336 JUMP JUMPDEST SWAP4 SWAP3 POP POP POP JUMP JUMPDEST PUSH1 0x60 PUSH1 0x0 PUSH2 0x217 DUP5 DUP5 PUSH2 0x3BA JUMP JUMPDEST PUSH1 0x0 PUSH2 0x24F DUP3 PUSH2 0x413 JUMP JUMPDEST SWAP1 POP JUMPDEST SWAP2 SWAP1 POP JUMP JUMPDEST PUSH1 0x60 PUSH1 0x0 PUSH2 0x217 DUP5 DUP5 PUSH2 0x490 JUMP JUMPDEST PUSH1 0x60 PUSH2 0x22F DUP4 DUP4 PUSH2 0x526 JUMP JUMPDEST PUSH1 0x0 PUSH2 0x22F DUP4 DUP4 PUSH2 0x5AE JUMP JUMPDEST PUSH1 0x0 PUSH2 0x22F DUP4 DUP4 PUSH2 0x632 JUMP JUMPDEST PUSH1 0x0 DUP1 PUSH2 0x217 DUP5 DUP5 PUSH2 0x6B6 JUMP JUMPDEST PUSH1 0x60 DUP1 PUSH2 0x2A5 DUP7 DUP7 DUP7 DUP7 PUSH2 0x877 JUMP JUMPDEST SWAP2 POP SWAP2 POP JUMPDEST SWAP5 POP SWAP5 SWAP3 POP POP POP JUMP JUMPDEST PUSH1 0x0 DUP1 SLOAD PUSH1 0x40 MLOAD PUSH4 0x29449085 PUSH1 0xE0 SHL DUP2 MSTORE PUSH1 0x4 DUP2 ADD DUP6 SWAP1 MSTORE PUSH1 0x24 DUP2 ADD DUP5 SWAP1 MSTORE DUP3 SWAP2 PUSH1 0x1 PUSH1 0x1 PUSH1 0xA0 SHL SUB AND SWAP1 PUSH4 0x29449085 SWAP1 PUSH1 0x44 ADD PUSH1 0x40 DUP1 MLOAD DUP1 DUP4 SUB DUP2 DUP7 DUP1 EXTCODESIZE ISZERO DUP1 ISZERO PUSH2 0x2FE JUMPI PUSH1 0x0 DUP1 REVERT JUMPDEST POP GAS STATICCALL ISZERO DUP1 ISZERO PUSH2 0x312 JUMPI RETURNDATASIZE PUSH1 0x0 DUP1 RETURNDATACOPY RETURNDATASIZE PUSH1 0x0 REVERT JUMPDEST POP POP POP POP PUSH1 0x40 MLOAD RETURNDATASIZE PUSH1 0x1F NOT PUSH1 0x1F DUP3 ADD AND DUP3 ADD DUP1 PUSH1 0x40 MSTORE POP DUP2 ADD SWAP1 PUSH2 0x217 SWAP2 SWAP1 PUSH2 0xD05 JUMP JUMPDEST PUSH1 0x0 DUP1 SLOAD PUSH1 0x40 MLOAD PUSH4 0x44E87F91 PUSH1 0xE0 SHL DUP2 MSTORE PUSH1 0x4 DUP2 ADD DUP6 SWAP1 MSTORE PUSH1 0x24 DUP2 ADD DUP5 SWAP1 MSTORE PUSH1 0x1 PUSH1 0x1 PUSH1 0xA0 SHL SUB SWAP1 SWAP2 AND SWAP1 PUSH4 0x44E87F91 SWAP1 PUSH1 0x44 ADD PUSH1 0x20 PUSH1 0x40 MLOAD DUP1 DUP4 SUB DUP2 DUP7 DUP1 EXTCODESIZE ISZERO DUP1 ISZERO PUSH2 0x382 JUMPI PUSH1 0x0 DUP1 REVERT JUMPDEST POP GAS STATICCALL ISZERO DUP1 ISZERO PUSH2 0x396 JUMPI RETURNDATASIZE PUSH1 0x0 DUP1 RETURNDATACOPY RETURNDATASIZE PUSH1 0x0 REVERT JUMPDEST POP POP POP POP PUSH1 0x40 MLOAD RETURNDATASIZE PUSH1 0x1F NOT PUSH1 0x1F DUP3 ADD AND DUP3 ADD DUP1 PUSH1 0x40 MSTORE POP DUP2 ADD SWAP1 PUSH2 0x22F SWAP2 SWAP1 PUSH2 0xC96 JUMP JUMPDEST PUSH1 0x60 PUSH1 0x0 DUP1 PUSH1 0x0 PUSH2 0x3CB DUP7 DUP7 PUSH2 0x6B6 JUMP JUMPDEST SWAP2 POP SWAP2 POP DUP2 PUSH2 0x3F2 JUMPI PUSH1 0x0 PUSH1 0x40 MLOAD DUP1 PUSH1 0x20 ADD PUSH1 0x40 MSTORE DUP1 PUSH1 0x0 DUP2 MSTORE POP SWAP1 SWAP4 POP SWAP4 POP POP POP PUSH2 0x21C JUMP JUMPDEST PUSH2 0x3FC DUP7 DUP3 PUSH2 0x5AE JUMP JUMPDEST SWAP3 POP PUSH2 0x408 DUP7 DUP5 PUSH2 0x526 JUMP JUMPDEST SWAP4 POP POP POP SWAP3 POP SWAP3 SWAP1 POP JUMP JUMPDEST PUSH1 0x0 DUP1 SLOAD PUSH1 0x40 MLOAD PUSH4 0x77B03E0D PUSH1 0xE0 SHL DUP2 MSTORE PUSH1 0x4 DUP2 ADD DUP5 SWAP1 MSTORE PUSH1 0x1 PUSH1 0x1 PUSH1 0xA0 SHL SUB SWAP1 SWAP2 AND SWAP1 PUSH4 0x77B03E0D SWAP1 PUSH1 0x24 ADD PUSH1 0x20 PUSH1 0x40 MLOAD DUP1 DUP4 SUB DUP2 DUP7 DUP1 EXTCODESIZE ISZERO DUP1 ISZERO PUSH2 0x458 JUMPI PUSH1 0x0 DUP1 REVERT JUMPDEST POP GAS STATICCALL ISZERO DUP1 ISZERO PUSH2 0x46C JUMPI RETURNDATASIZE PUSH1 0x0 DUP1 RETURNDATACOPY RETURNDATASIZE PUSH1 0x0 REVERT JUMPDEST POP POP POP POP PUSH1 0x40 MLOAD RETURNDATASIZE PUSH1 0x1F NOT PUSH1 0x1F DUP3 ADD AND DUP3 ADD DUP1 PUSH1 0x40 MSTORE POP DUP2 ADD SWAP1 PUSH2 0x24F SWAP2 SWAP1 PUSH2 0xDD5 JUMP JUMPDEST PUSH1 0x0 DUP1 SLOAD PUSH1 0x40 MLOAD PUSH4 0xA792765F PUSH1 0xE0 SHL DUP2 MSTORE PUSH1 0x4 DUP2 ADD DUP6 SWAP1 MSTORE PUSH1 0x24 DUP2 ADD DUP5 SWAP1 MSTORE PUSH1 0x60 SWAP3 SWAP2 PUSH1 0x1 PUSH1 0x1 PUSH1 0xA0 SHL SUB AND SWAP1 PUSH4 0xA792765F SWAP1 PUSH1 0x44 ADD PUSH1 0x0 PUSH1 0x40 MLOAD DUP1 DUP4 SUB DUP2 DUP7 DUP1 EXTCODESIZE ISZERO DUP1 ISZERO PUSH2 0x4DE JUMPI PUSH1 0x0 DUP1 REVERT JUMPDEST POP GAS STATICCALL ISZERO DUP1 ISZERO PUSH2 0x4F2 JUMPI RETURNDATASIZE PUSH1 0x0 DUP1 RETURNDATACOPY RETURNDATASIZE PUSH1 0x0 REVERT JUMPDEST POP POP POP POP PUSH1 0x40 MLOAD RETURNDATASIZE PUSH1 0x0 DUP3 RETURNDATACOPY PUSH1 0x1F RETURNDATASIZE SWAP1 DUP2 ADD PUSH1 0x1F NOT AND DUP3 ADD PUSH1 0x40 MSTORE PUSH2 0x51A SWAP2 SWAP1 DUP2 ADD SWAP1 PUSH2 0xCB0 JUMP JUMPDEST SWAP1 SWAP7 SWAP1 SWAP6 POP SWAP4 POP POP POP POP JUMP JUMPDEST PUSH1 0x0 SLOAD PUSH1 0x40 MLOAD PUSH4 0xC5958AF9 PUSH1 0xE0 SHL DUP2 MSTORE PUSH1 0x4 DUP2 ADD DUP5 SWAP1 MSTORE PUSH1 0x24 DUP2 ADD DUP4 SWAP1 MSTORE PUSH1 0x60 SWAP2 PUSH1 0x1 PUSH1 0x1 PUSH1 0xA0 SHL SUB AND SWAP1 PUSH4 0xC5958AF9 SWAP1 PUSH1 0x44 ADD PUSH1 0x0 PUSH1 0x40 MLOAD DUP1 DUP4 SUB DUP2 DUP7 DUP1 EXTCODESIZE ISZERO DUP1 ISZERO PUSH2 0x572 JUMPI PUSH1 0x0 DUP1 REVERT JUMPDEST POP GAS STATICCALL ISZERO DUP1 ISZERO PUSH2 0x586 JUMPI RETURNDATASIZE PUSH1 0x0 DUP1 RETURNDATACOPY RETURNDATASIZE PUSH1 0x0 REVERT JUMPDEST POP POP POP POP PUSH1 0x40 MLOAD RETURNDATASIZE PUSH1 0x0 DUP3 RETURNDATACOPY PUSH1 0x1F RETURNDATASIZE SWAP1 DUP2 ADD PUSH1 0x1F NOT AND DUP3 ADD PUSH1 0x40 MSTORE PUSH2 0x22F SWAP2 SWAP1 DUP2 ADD SWAP1 PUSH2 0xD9A JUMP JUMPDEST PUSH1 0x0 DUP1 SLOAD PUSH1 0x40 MLOAD PUSH4 0xCE5E11BF PUSH1 0xE0 SHL DUP2 MSTORE PUSH1 0x4 DUP2 ADD DUP6 SWAP1 MSTORE PUSH1 0x24 DUP2 ADD DUP5 SWAP1 MSTORE PUSH1 0x1 PUSH1 0x1 PUSH1 0xA0 SHL SUB SWAP1 SWAP2 AND SWAP1 PUSH4 0xCE5E11BF SWAP1 PUSH1 0x44 ADD PUSH1 0x20 PUSH1 0x40 MLOAD DUP1 DUP4 SUB DUP2 DUP7 DUP1 EXTCODESIZE ISZERO DUP1 ISZERO PUSH2 0x5FA JUMPI PUSH1 0x0 DUP1 REVERT JUMPDEST POP GAS STATICCALL ISZERO DUP1 ISZERO PUSH2 0x60E JUMPI RETURNDATASIZE PUSH1 0x0 DUP1 RETURNDATACOPY RETURNDATASIZE PUSH1 0x0 REVERT JUMPDEST POP POP POP POP PUSH1 0x40 MLOAD RETURNDATASIZE PUSH1 0x1F NOT PUSH1 0x1F DUP3 ADD AND DUP3 ADD DUP1 PUSH1 0x40 MSTORE POP DUP2 ADD SWAP1 PUSH2 0x22F SWAP2 SWAP1 PUSH2 0xDD5 JUMP JUMPDEST PUSH1 0x0 DUP1 SLOAD PUSH1 0x40 MLOAD PUSH4 0x703E2A43 PUSH1 0xE1 SHL DUP2 MSTORE PUSH1 0x4 DUP2 ADD DUP6 SWAP1 MSTORE PUSH1 0x24 DUP2 ADD DUP5 SWAP1 MSTORE PUSH1 0x1 PUSH1 0x1 PUSH1 0xA0 SHL SUB SWAP1 SWAP2 AND SWAP1 PUSH4 0xE07C5486 SWAP1 PUSH1 0x44 ADD PUSH1 0x20 PUSH1 0x40 MLOAD DUP1 DUP4 SUB DUP2 DUP7 DUP1 EXTCODESIZE ISZERO DUP1 ISZERO PUSH2 0x67E JUMPI PUSH1 0x0 DUP1 REVERT JUMPDEST POP GAS STATICCALL ISZERO DUP1 ISZERO PUSH2 0x692 JUMPI RETURNDATASIZE PUSH1 0x0 DUP1 RETURNDATACOPY RETURNDATASIZE PUSH1 0x0 REVERT JUMPDEST POP POP POP POP PUSH1 0x40 MLOAD RETURNDATASIZE PUSH1 0x1F NOT PUSH1 0x1F DUP3 ADD AND DUP3 ADD DUP1 PUSH1 0x40 MSTORE POP DUP2 ADD SWAP1 PUSH2 0x22F SWAP2 SWAP1 PUSH2 0xC6F JUMP JUMPDEST PUSH1 0x0 DUP1 PUSH1 0x0 PUSH2 0x6C4 DUP6 PUSH2 0x413 JUMP JUMPDEST SWAP1 POP DUP1 PUSH2 0x6D8 JUMPI PUSH1 0x0 DUP1 SWAP3 POP SWAP3 POP POP PUSH2 0x21C JUMP JUMPDEST DUP1 PUSH2 0x6E2 DUP2 PUSH2 0xF66 JUMP JUMPDEST SWAP2 POP PUSH1 0x1 SWAP1 POP PUSH1 0x0 DUP1 DUP4 DUP2 PUSH2 0x6F7 DUP11 DUP4 PUSH2 0x5AE JUMP JUMPDEST SWAP1 POP DUP9 DUP2 GT PUSH2 0x712 JUMPI PUSH1 0x0 DUP1 SWAP8 POP SWAP8 POP POP POP POP POP POP POP PUSH2 0x21C JUMP JUMPDEST PUSH2 0x71C DUP11 DUP5 PUSH2 0x5AE JUMP JUMPDEST SWAP1 POP DUP9 DUP2 GT ISZERO PUSH2 0x72B JUMPI PUSH1 0x0 SWAP5 POP JUMPDEST DUP5 ISZERO PUSH2 0x7E2 JUMPI PUSH1 0x2 PUSH2 0x73D DUP5 DUP5 PUSH2 0xEE7 JUMP JUMPDEST PUSH2 0x747 SWAP2 SWAP1 PUSH2 0xEFF JUMP JUMPDEST SWAP4 POP PUSH2 0x753 DUP11 DUP6 PUSH2 0x5AE JUMP JUMPDEST SWAP1 POP DUP9 DUP2 GT ISZERO PUSH2 0x799 JUMPI PUSH1 0x0 PUSH2 0x773 DUP12 PUSH2 0x76E PUSH1 0x1 DUP9 PUSH2 0xF1F JUMP JUMPDEST PUSH2 0x5AE JUMP JUMPDEST SWAP1 POP DUP10 DUP2 GT PUSH2 0x785 JUMPI PUSH1 0x0 SWAP6 POP PUSH2 0x793 JUMP JUMPDEST PUSH2 0x790 PUSH1 0x1 DUP7 PUSH2 0xF1F JUMP JUMPDEST SWAP3 POP JUMPDEST POP PUSH2 0x7DD JUMP JUMPDEST PUSH1 0x0 PUSH2 0x7AA DUP12 PUSH2 0x76E DUP8 PUSH1 0x1 PUSH2 0xEE7 JUMP JUMPDEST SWAP1 POP DUP10 DUP2 GT ISZERO PUSH2 0x7CD JUMPI PUSH1 0x0 SWAP6 POP DUP5 PUSH2 0x7C2 DUP2 PUSH2 0xF7D JUMP JUMPDEST SWAP6 POP POP DUP1 SWAP2 POP PUSH2 0x7DB JUMP JUMPDEST PUSH2 0x7D8 DUP6 PUSH1 0x1 PUSH2 0xEE7 JUMP JUMPDEST SWAP4 POP JUMPDEST POP JUMPDEST PUSH2 0x72B JUMP JUMPDEST PUSH2 0x7EC DUP11 DUP3 PUSH2 0x336 JUMP JUMPDEST PUSH2 0x802 JUMPI PUSH1 0x1 DUP5 SWAP8 POP SWAP8 POP POP POP POP POP POP POP PUSH2 0x21C JUMP JUMPDEST PUSH2 0x80C DUP11 DUP3 PUSH2 0x336 JUMP JUMPDEST DUP1 ISZERO PUSH2 0x817 JUMPI POP DUP6 DUP5 LT JUMPDEST ISZERO PUSH2 0x83A JUMPI DUP4 PUSH2 0x826 DUP2 PUSH2 0xF7D JUMP JUMPDEST SWAP5 POP POP PUSH2 0x833 DUP11 DUP6 PUSH2 0x5AE JUMP JUMPDEST SWAP1 POP PUSH2 0x802 JUMP JUMPDEST DUP6 DUP5 EQ DUP1 ISZERO PUSH2 0x84E JUMPI POP PUSH2 0x84E DUP11 DUP3 PUSH2 0x336 JUMP JUMPDEST ISZERO PUSH2 0x865 JUMPI PUSH1 0x0 DUP1 SWAP8 POP SWAP8 POP POP POP POP POP POP POP PUSH2 0x21C JUMP JUMPDEST PUSH1 0x1 DUP5 SWAP8 POP SWAP8 POP POP POP POP POP POP POP PUSH2 0x21C JUMP JUMPDEST PUSH1 0x60 DUP1 PUSH1 0x0 DUP1 PUSH2 0x890 DUP9 PUSH2 0x88B DUP9 DUP11 PUSH2 0xF1F JUMP JUMPDEST PUSH2 0x6B6 JUMP JUMPDEST SWAP2 POP SWAP2 POP DUP2 PUSH2 0x8E1 JUMPI PUSH1 0x40 DUP1 MLOAD PUSH1 0x0 DUP1 DUP3 MSTORE PUSH1 0x20 DUP3 ADD SWAP1 SWAP3 MSTORE SWAP1 PUSH2 0x8C4 JUMP JUMPDEST PUSH1 0x60 DUP2 MSTORE PUSH1 0x20 ADD SWAP1 PUSH1 0x1 SWAP1 SUB SWAP1 DUP2 PUSH2 0x8AF JUMPI SWAP1 POP JUMPDEST POP PUSH1 0x40 DUP1 MLOAD PUSH1 0x0 DUP2 MSTORE PUSH1 0x20 DUP2 ADD SWAP1 SWAP2 MSTORE SWAP1 SWAP5 POP SWAP3 POP PUSH2 0x2AA SWAP2 POP POP JUMP JUMPDEST PUSH1 0x0 PUSH2 0x8ED DUP10 DUP10 PUSH2 0x2B3 JUMP JUMPDEST SWAP1 SWAP4 POP SWAP1 POP DUP3 PUSH2 0x940 JUMPI PUSH1 0x40 DUP1 MLOAD PUSH1 0x0 DUP1 DUP3 MSTORE PUSH1 0x20 DUP3 ADD SWAP1 SWAP3 MSTORE SWAP1 PUSH2 0x922 JUMP JUMPDEST PUSH1 0x60 DUP2 MSTORE PUSH1 0x20 ADD SWAP1 PUSH1 0x1 SWAP1 SUB SWAP1 DUP2 PUSH2 0x90D JUMPI SWAP1 POP JUMPDEST POP PUSH1 0x40 DUP1 MLOAD PUSH1 0x0 DUP2 MSTORE PUSH1 0x20 DUP2 ADD SWAP1 SWAP2 MSTORE SWAP1 SWAP6 POP SWAP4 POP PUSH2 0x2AA SWAP3 POP POP POP JUMP JUMPDEST PUSH1 0x0 DUP1 PUSH1 0x0 DUP9 PUSH8 0xFFFFFFFFFFFFFFFF DUP2 GT ISZERO PUSH2 0x96C JUMPI PUSH4 0x4E487B71 PUSH1 0xE0 SHL PUSH1 0x0 MSTORE PUSH1 0x41 PUSH1 0x4 MSTORE PUSH1 0x24 PUSH1 0x0 REVERT JUMPDEST PUSH1 0x40 MLOAD SWAP1 DUP1 DUP3 MSTORE DUP1 PUSH1 0x20 MUL PUSH1 0x20 ADD DUP3 ADD PUSH1 0x40 MSTORE DUP1 ISZERO PUSH2 0x995 JUMPI DUP2 PUSH1 0x20 ADD PUSH1 0x20 DUP3 MUL DUP1 CALLDATASIZE DUP4 CALLDATACOPY ADD SWAP1 POP JUMPDEST POP SWAP1 POP JUMPDEST DUP9 DUP4 LT DUP1 ISZERO PUSH2 0x9BC JUMPI POP DUP5 DUP3 PUSH2 0x9B0 DUP7 PUSH1 0x1 PUSH2 0xEE7 JUMP JUMPDEST PUSH2 0x9BA SWAP2 SWAP1 PUSH2 0xF1F JUMP JUMPDEST GT JUMPDEST ISZERO PUSH2 0xA2E JUMPI PUSH1 0x0 PUSH2 0x9D1 DUP14 PUSH2 0x76E DUP6 DUP9 PUSH2 0xF1F JUMP JUMPDEST SWAP1 POP PUSH2 0x9DD DUP14 DUP3 PUSH2 0x336 JUMP JUMPDEST PUSH2 0xA1B JUMPI DUP1 DUP3 DUP6 DUP2 MLOAD DUP2 LT PUSH2 0xA02 JUMPI PUSH4 0x4E487B71 PUSH1 0xE0 SHL PUSH1 0x0 MSTORE PUSH1 0x32 PUSH1 0x4 MSTORE PUSH1 0x24 PUSH1 0x0 REVERT JUMPDEST PUSH1 0x20 SWAP1 DUP2 MUL SWAP2 SWAP1 SWAP2 ADD ADD MSTORE DUP4 PUSH2 0xA17 DUP2 PUSH2 0xF7D JUMP JUMPDEST SWAP5 POP POP JUMPDEST DUP3 PUSH2 0xA25 DUP2 PUSH2 0xF7D JUMP JUMPDEST SWAP4 POP POP POP PUSH2 0x999 JUMP JUMPDEST PUSH1 0x0 DUP4 PUSH8 0xFFFFFFFFFFFFFFFF DUP2 GT ISZERO PUSH2 0xA57 JUMPI PUSH4 0x4E487B71 PUSH1 0xE0 SHL PUSH1 0x0 MSTORE PUSH1 0x41 PUSH1 0x4 MSTORE PUSH1 0x24 PUSH1 0x0 REVERT JUMPDEST PUSH1 0x40 MLOAD SWAP1 DUP1 DUP3 MSTORE DUP1 PUSH1 0x20 MUL PUSH1 0x20 ADD DUP3 ADD PUSH1 0x40 MSTORE DUP1 ISZERO PUSH2 0xA8A JUMPI DUP2 PUSH1 0x20 ADD JUMPDEST PUSH1 0x60 DUP2 MSTORE PUSH1 0x20 ADD SWAP1 PUSH1 0x1 SWAP1 SUB SWAP1 DUP2 PUSH2 0xA75 JUMPI SWAP1 POP JUMPDEST POP SWAP1 POP PUSH1 0x0 DUP5 PUSH8 0xFFFFFFFFFFFFFFFF DUP2 GT ISZERO PUSH2 0xAB6 JUMPI PUSH4 0x4E487B71 PUSH1 0xE0 SHL PUSH1 0x0 MSTORE PUSH1 0x41 PUSH1 0x4 MSTORE PUSH1 0x24 PUSH1 0x0 REVERT JUMPDEST PUSH1 0x40 MLOAD SWAP1 DUP1 DUP3 MSTORE DUP1 PUSH1 0x20 MUL PUSH1 0x20 ADD DUP3 ADD PUSH1 0x40 MSTORE DUP1 ISZERO PUSH2 0xADF JUMPI DUP2 PUSH1 0x20 ADD PUSH1 0x20 DUP3 MUL DUP1 CALLDATASIZE DUP4 CALLDATACOPY ADD SWAP1 POP JUMPDEST POP SWAP1 POP PUSH1 0x0 JUMPDEST DUP6 DUP2 LT ISZERO PUSH2 0xBC5 JUMPI DUP4 DUP2 PUSH2 0xAFA PUSH1 0x1 DUP10 PUSH2 0xF1F JUMP JUMPDEST PUSH2 0xB04 SWAP2 SWAP1 PUSH2 0xF1F JUMP JUMPDEST DUP2 MLOAD DUP2 LT PUSH2 0xB22 JUMPI PUSH4 0x4E487B71 PUSH1 0xE0 SHL PUSH1 0x0 MSTORE PUSH1 0x32 PUSH1 0x4 MSTORE PUSH1 0x24 PUSH1 0x0 REVERT JUMPDEST PUSH1 0x20 MUL PUSH1 0x20 ADD ADD MLOAD DUP3 DUP3 DUP2 MLOAD DUP2 LT PUSH2 0xB4A JUMPI PUSH4 0x4E487B71 PUSH1 0xE0 SHL PUSH1 0x0 MSTORE PUSH1 0x32 PUSH1 0x4 MSTORE PUSH1 0x24 PUSH1 0x0 REVERT JUMPDEST PUSH1 0x20 MUL PUSH1 0x20 ADD ADD DUP2 DUP2 MSTORE POP POP PUSH2 0xB87 DUP16 DUP4 DUP4 DUP2 MLOAD DUP2 LT PUSH2 0xB7A JUMPI PUSH4 0x4E487B71 PUSH1 0xE0 SHL PUSH1 0x0 MSTORE PUSH1 0x32 PUSH1 0x4 MSTORE PUSH1 0x24 PUSH1 0x0 REVERT JUMPDEST PUSH1 0x20 MUL PUSH1 0x20 ADD ADD MLOAD PUSH2 0x526 JUMP JUMPDEST DUP4 DUP3 DUP2 MLOAD DUP2 LT PUSH2 0xBA7 JUMPI PUSH4 0x4E487B71 PUSH1 0xE0 SHL PUSH1 0x0 MSTORE PUSH1 0x32 PUSH1 0x4 MSTORE PUSH1 0x24 PUSH1 0x0 REVERT JUMPDEST PUSH1 0x20 MUL PUSH1 0x20 ADD ADD DUP2 SWAP1 MSTORE POP DUP1 DUP1 PUSH2 0xBBD SWAP1 PUSH2 0xF7D JUMP JUMPDEST SWAP2 POP POP PUSH2 0xAE5 JUMP JUMPDEST POP SWAP1 SWAP14 SWAP1 SWAP13 POP SWAP11 POP POP POP POP POP POP POP POP POP POP POP JUMP JUMPDEST DUP1 MLOAD DUP1 ISZERO ISZERO DUP2 EQ PUSH2 0x252 JUMPI PUSH1 0x0 DUP1 REVERT JUMPDEST PUSH1 0x0 DUP3 PUSH1 0x1F DUP4 ADD SLT PUSH2 0xBF9 JUMPI DUP1 DUP2 REVERT JUMPDEST DUP2 MLOAD PUSH8 0xFFFFFFFFFFFFFFFF DUP1 DUP3 GT ISZERO PUSH2 0xC14 JUMPI PUSH2 0xC14 PUSH2 0xFAE JUMP JUMPDEST PUSH1 0x40 MLOAD PUSH1 0x1F DUP4 ADD PUSH1 0x1F NOT SWAP1 DUP2 AND PUSH1 0x3F ADD AND DUP2 ADD SWAP1 DUP3 DUP3 GT DUP2 DUP4 LT OR ISZERO PUSH2 0xC3C JUMPI PUSH2 0xC3C PUSH2 0xFAE JUMP JUMPDEST DUP2 PUSH1 0x40 MSTORE DUP4 DUP2 MSTORE DUP7 PUSH1 0x20 DUP6 DUP9 ADD ADD GT ISZERO PUSH2 0xC54 JUMPI DUP5 DUP6 REVERT JUMPDEST PUSH2 0xC65 DUP5 PUSH1 0x20 DUP4 ADD PUSH1 0x20 DUP10 ADD PUSH2 0xF36 JUMP JUMPDEST SWAP7 SWAP6 POP POP POP POP POP POP JUMP JUMPDEST PUSH1 0x0 PUSH1 0x20 DUP3 DUP5 SUB SLT ISZERO PUSH2 0xC80 JUMPI DUP1 DUP2 REVERT JUMPDEST DUP2 MLOAD PUSH1 0x1 PUSH1 0x1 PUSH1 0xA0 SHL SUB DUP2 AND DUP2 EQ PUSH2 0x22F JUMPI DUP2 DUP3 REVERT JUMPDEST PUSH1 0x0 PUSH1 0x20 DUP3 DUP5 SUB SLT ISZERO PUSH2 0xCA7 JUMPI DUP1 DUP2 REVERT JUMPDEST PUSH2 0x22F DUP3 PUSH2 0xBD9 JUMP JUMPDEST PUSH1 0x0 DUP1 PUSH1 0x0 PUSH1 0x60 DUP5 DUP7 SUB SLT ISZERO PUSH2 0xCC4 JUMPI DUP2 DUP3 REVERT JUMPDEST PUSH2 0xCCD DUP5 PUSH2 0xBD9 JUMP JUMPDEST SWAP3 POP PUSH1 0x20 DUP5 ADD MLOAD PUSH8 0xFFFFFFFFFFFFFFFF DUP2 GT ISZERO PUSH2 0xCE8 JUMPI DUP3 DUP4 REVERT JUMPDEST PUSH2 0xCF4 DUP7 DUP3 DUP8 ADD PUSH2 0xBE9 JUMP JUMPDEST SWAP3 POP POP PUSH1 0x40 DUP5 ADD MLOAD SWAP1 POP SWAP3 POP SWAP3 POP SWAP3 JUMP JUMPDEST PUSH1 0x0 DUP1 PUSH1 0x40 DUP4 DUP6 SUB SLT ISZERO PUSH2 0xD17 JUMPI DUP2 DUP3 REVERT JUMPDEST PUSH2 0xD20 DUP4 PUSH2 0xBD9 JUMP JUMPDEST SWAP2 POP PUSH1 0x20 DUP4 ADD MLOAD SWAP1 POP SWAP3 POP SWAP3 SWAP1 POP JUMP JUMPDEST PUSH1 0x0 PUSH1 0x20 DUP3 DUP5 SUB SLT ISZERO PUSH2 0xD41 JUMPI DUP1 DUP2 REVERT JUMPDEST POP CALLDATALOAD SWAP2 SWAP1 POP JUMP JUMPDEST PUSH1 0x0 DUP1 PUSH1 0x40 DUP4 DUP6 SUB SLT ISZERO PUSH2 0xD5A JUMPI DUP2 DUP3 REVERT JUMPDEST POP POP DUP1 CALLDATALOAD SWAP3 PUSH1 0x20 SWAP1 SWAP2 ADD CALLDATALOAD SWAP2 POP JUMP JUMPDEST PUSH1 0x0 DUP1 PUSH1 0x0 DUP1 PUSH1 0x80 DUP6 DUP8 SUB SLT ISZERO PUSH2 0xD7E JUMPI DUP1 DUP2 REVERT JUMPDEST POP POP DUP3 CALLDATALOAD SWAP5 PUSH1 0x20 DUP5 ADD CALLDATALOAD SWAP5 POP PUSH1 0x40 DUP5 ADD CALLDATALOAD SWAP4 PUSH1 0x60 ADD CALLDATALOAD SWAP3 POP SWAP1 POP JUMP JUMPDEST PUSH1 0x0 PUSH1 0x20 DUP3 DUP5 SUB SLT ISZERO PUSH2 0xDAB JUMPI DUP1 DUP2 REVERT JUMPDEST DUP2 MLOAD PUSH8 0xFFFFFFFFFFFFFFFF DUP2 GT ISZERO PUSH2 0xDC1 JUMPI DUP2 DUP3 REVERT JUMPDEST PUSH2 0xDCD DUP5 DUP3 DUP6 ADD PUSH2 0xBE9 JUMP JUMPDEST SWAP5 SWAP4 POP POP POP POP JUMP JUMPDEST PUSH1 0x0 PUSH1 0x20 DUP3 DUP5 SUB SLT ISZERO PUSH2 0xDE6 JUMPI DUP1 DUP2 REVERT JUMPDEST POP MLOAD SWAP2 SWAP1 POP JUMP JUMPDEST PUSH1 0x0 DUP2 MLOAD DUP1 DUP5 MSTORE PUSH2 0xE05 DUP2 PUSH1 0x20 DUP7 ADD PUSH1 0x20 DUP7 ADD PUSH2 0xF36 JUMP JUMPDEST PUSH1 0x1F ADD PUSH1 0x1F NOT AND SWAP3 SWAP1 SWAP3 ADD PUSH1 0x20 ADD SWAP3 SWAP2 POP POP JUMP JUMPDEST PUSH1 0x0 PUSH1 0x40 DUP3 ADD PUSH1 0x40 DUP4 MSTORE DUP1 DUP6 MLOAD DUP1 DUP4 MSTORE PUSH1 0x60 DUP6 ADD SWAP2 POP PUSH1 0x60 DUP2 PUSH1 0x5 SHL DUP7 ADD ADD SWAP3 POP PUSH1 0x20 DUP1 DUP9 ADD DUP6 JUMPDEST DUP4 DUP2 LT ISZERO PUSH2 0xE6F JUMPI PUSH1 0x5F NOT DUP9 DUP8 SUB ADD DUP6 MSTORE PUSH2 0xE5D DUP7 DUP4 MLOAD PUSH2 0xDED JUMP JUMPDEST SWAP6 POP SWAP4 DUP3 ADD SWAP4 SWAP1 DUP3 ADD SWAP1 PUSH1 0x1 ADD PUSH2 0xE41 JUMP JUMPDEST POP POP DUP6 DUP5 SUB DUP2 DUP8 ADD MSTORE DUP7 MLOAD DUP1 DUP6 MSTORE DUP8 DUP3 ADD SWAP5 DUP3 ADD SWAP4 POP SWAP2 POP DUP5 JUMPDEST DUP3 DUP2 LT ISZERO PUSH2 0xEA5 JUMPI DUP5 MLOAD DUP5 MSTORE SWAP4 DUP2 ADD SWAP4 SWAP3 DUP2 ADD SWAP3 PUSH1 0x1 ADD PUSH2 0xE89 JUMP JUMPDEST POP SWAP2 SWAP8 SWAP7 POP POP POP POP POP POP POP JUMP JUMPDEST PUSH1 0x0 PUSH1 0x20 DUP3 MSTORE PUSH2 0x22F PUSH1 0x20 DUP4 ADD DUP5 PUSH2 0xDED JUMP JUMPDEST PUSH1 0x0 PUSH1 0x40 DUP3 MSTORE PUSH2 0xED8 PUSH1 0x40 DUP4 ADD DUP6 PUSH2 0xDED JUMP JUMPDEST SWAP1 POP DUP3 PUSH1 0x20 DUP4 ADD MSTORE SWAP4 SWAP3 POP POP POP JUMP JUMPDEST PUSH1 0x0 DUP3 NOT DUP3 GT ISZERO PUSH2 0xEFA JUMPI PUSH2 0xEFA PUSH2 0xF98 JUMP JUMPDEST POP ADD SWAP1 JUMP JUMPDEST PUSH1 0x0 DUP3 PUSH2 0xF1A JUMPI PUSH4 0x4E487B71 PUSH1 0xE0 SHL DUP2 MSTORE PUSH1 0x12 PUSH1 0x4 MSTORE PUSH1 0x24 DUP2 REVERT JUMPDEST POP DIV SWAP1 JUMP JUMPDEST PUSH1 0x0 DUP3 DUP3 LT ISZERO PUSH2 0xF31 JUMPI PUSH2 0xF31 PUSH2 0xF98 JUMP JUMPDEST POP SUB SWAP1 JUMP JUMPDEST PUSH1 0x0 JUMPDEST DUP4 DUP2 LT ISZERO PUSH2 0xF51 JUMPI DUP2 DUP2 ADD MLOAD DUP4 DUP3 ADD MSTORE PUSH1 0x20 ADD PUSH2 0xF39 JUMP JUMPDEST DUP4 DUP2 GT ISZERO PUSH2 0xF60 JUMPI PUSH1 0x0 DUP5 DUP5 ADD MSTORE JUMPDEST POP POP POP POP JUMP JUMPDEST PUSH1 0x0 DUP2 PUSH2 0xF75 JUMPI PUSH2 0xF75 PUSH2 0xF98 JUMP JUMPDEST POP PUSH1 0x0 NOT ADD SWAP1 JUMP JUMPDEST PUSH1 0x0 PUSH1 0x0 NOT DUP3 EQ ISZERO PUSH2 0xF91 JUMPI PUSH2 0xF91 PUSH2 0xF98 JUMP JUMPDEST POP PUSH1 0x1 ADD SWAP1 JUMP JUMPDEST PUSH4 0x4E487B71 PUSH1 0xE0 SHL PUSH1 0x0 MSTORE PUSH1 0x11 PUSH1 0x4 MSTORE PUSH1 0x24 PUSH1 0x0 REVERT JUMPDEST PUSH4 0x4E487B71 PUSH1 0xE0 SHL PUSH1 0x0 MSTORE PUSH1 0x41 PUSH1 0x4 MSTORE PUSH1 0x24 PUSH1 0x0 REVERT INVALID LOG2 PUSH5 0x6970667358 0x22 SLT KECCAK256 PUSH29 0xD75CD899C42B3A5F27BE565D22EAEA56F608E0DC5BAE73913FCBE71E9F MUL 0xA9 PUSH5 0x736F6C6343 STOP ADDMOD SUB STOP CALLER "},"methodIdentifiers":{"getDataAfter(bytes32,uint256)":"64ee3c6d","getDataBefore(bytes32,uint256)":"a792765f","getIndexForDataAfter(bytes32,uint256)":"f66f49c3","getIndexForDataBefore(bytes32,uint256)":"29449085","getMultipleValuesBefore(bytes32,uint256,uint256,uint256)":"fcd4a546","getNewValueCountbyQueryId(bytes32)":"77b03e0d","getReporterByTimestamp(bytes32,uint256)":"e07c5486","getTimestampbyQueryIdandIndex(bytes32,uint256)":"ce5e11bf","isInDispute(bytes32,uint256)":"44e87f91","retrieveData(bytes32,uint256)":"c5958af9","tellor()":"1959ad5b"}}}}}