{"contracts/TellorPlayground.sol":{"TellorPlayground":{"abi":[{"inputs":[],"stateMutability":"nonpayable","type":"constructor"},{"anonymous":false,"inputs":[{"indexed":true,"internalType":"address","name":"owner","type":"address"},{"indexed":true,"internalType":"address","name":"spender","type":"address"},{"indexed":false,"internalType":"uint256","name":"value","type":"uint256"}],"name":"Approval","type":"event"},{"anonymous":false,"inputs":[{"indexed":false,"internalType":"bytes32","name":"_queryId","type":"bytes32"},{"indexed":false,"internalType":"uint256","name":"_time","type":"uint256"},{"indexed":false,"internalType":"bytes","name":"_value","type":"bytes"},{"indexed":false,"internalType":"uint256","name":"_nonce","type":"uint256"},{"indexed":false,"internalType":"bytes","name":"_queryData","type":"bytes"},{"indexed":false,"internalType":"address","name":"_reporter","type":"address"}],"name":"NewReport","type":"event"},{"anonymous":false,"inputs":[{"indexed":false,"internalType":"address","name":"_staker","type":"address"},{"indexed":false,"internalType":"uint256","name":"_amount","type":"uint256"}],"name":"NewStaker","type":"event"},{"anonymous":false,"inputs":[{"indexed":false,"internalType":"address","name":"_staker","type":"address"},{"indexed":false,"internalType":"uint256","name":"_amount","type":"uint256"}],"name":"StakeWithdrawRequested","type":"event"},{"anonymous":false,"inputs":[{"indexed":false,"internalType":"address","name":"_staker","type":"address"}],"name":"StakeWithdrawn","type":"event"},{"anonymous":false,"inputs":[{"indexed":true,"internalType":"address","name":"from","type":"address"},{"indexed":true,"internalType":"address","name":"to","type":"address"},{"indexed":false,"internalType":"uint256","name":"value","type":"uint256"}],"name":"Transfer","type":"event"},{"inputs":[{"internalType":"uint256","name":"_amount","type":"uint256"}],"name":"addStakingRewards","outputs":[],"stateMutability":"nonpayable","type":"function"},{"inputs":[{"internalType":"address","name":"_owner","type":"address"},{"internalType":"address","name":"_spender","type":"address"}],"name":"allowance","outputs":[{"internalType":"uint256","name":"","type":"uint256"}],"stateMutability":"view","type":"function"},{"inputs":[{"internalType":"address","name":"_spender","type":"address"},{"internalType":"uint256","name":"_amount","type":"uint256"}],"name":"approve","outputs":[{"internalType":"bool","name":"","type":"bool"}],"stateMutability":"nonpayable","type":"function"},{"inputs":[{"internalType":"address","name":"_account","type":"address"}],"name":"balanceOf","outputs":[{"internalType":"uint256","name":"","type":"uint256"}],"stateMutability":"view","type":"function"},{"inputs":[{"internalType":"bytes32","name":"_queryId","type":"bytes32"},{"internalType":"uint256","name":"_timestamp","type":"uint256"}],"name":"beginDispute","outputs":[],"stateMutability":"nonpayable","type":"function"},{"inputs":[],"name":"decimals","outputs":[{"internalType":"uint8","name":"","type":"uint8"}],"stateMutability":"view","type":"function"},{"inputs":[{"internalType":"uint256","name":"_amount","type":"uint256"}],"name":"depositStake","outputs":[],"stateMutability":"nonpayable","type":"function"},{"inputs":[{"internalType":"address","name":"_user","type":"address"}],"name":"faucet","outputs":[],"stateMutability":"nonpayable","type":"function"},{"inputs":[{"internalType":"bytes32","name":"_queryId","type":"bytes32"},{"internalType":"uint256","name":"_timestamp","type":"uint256"}],"name":"getDataBefore","outputs":[{"internalType":"bool","name":"_ifRetrieve","type":"bool"},{"internalType":"bytes","name":"_value","type":"bytes"},{"internalType":"uint256","name":"_timestampRetrieved","type":"uint256"}],"stateMutability":"view","type":"function"},{"inputs":[{"internalType":"bytes32","name":"_queryId","type":"bytes32"},{"internalType":"uint256","name":"_timestamp","type":"uint256"}],"name":"getIndexForDataBefore","outputs":[{"internalType":"bool","name":"_found","type":"bool"},{"internalType":"uint256","name":"_index","type":"uint256"}],"stateMutability":"view","type":"function"},{"inputs":[{"internalType":"bytes32","name":"_queryId","type":"bytes32"}],"name":"getNewValueCountbyQueryId","outputs":[{"internalType":"uint256","name":"","type":"uint256"}],"stateMutability":"view","type":"function"},{"inputs":[{"internalType":"bytes32","name":"_queryId","type":"bytes32"},{"internalType":"uint256","name":"_timestamp","type":"uint256"}],"name":"getReporterByTimestamp","outputs":[{"internalType":"address","name":"","type":"address"}],"stateMutability":"view","type":"function"},{"inputs":[],"name":"getStakeAmount","outputs":[{"internalType":"uint256","name":"","type":"uint256"}],"stateMutability":"view","type":"function"},{"inputs":[{"internalType":"address","name":"_stakerAddress","type":"address"}],"name":"getStakerInfo","outputs":[{"internalType":"uint256","name":"","type":"uint256"},{"internalType":"uint256","name":"","type":"uint256"},{"internalType":"uint256","name":"","type":"uint256"},{"internalType":"uint256","name":"","type":"uint256"},{"internalType":"uint256","name":"","type":"uint256"},{"internalType":"uint256","name":"","type":"uint256"},{"internalType":"uint256","name":"","type":"uint256"},{"internalType":"uint256","name":"","type":"uint256"},{"internalType":"bool","name":"","type":"bool"}],"stateMutability":"view","type":"function"},{"inputs":[{"internalType":"bytes32","name":"_queryId","type":"bytes32"},{"internalType":"uint256","name":"_index","type":"uint256"}],"name":"getTimestampbyQueryIdandIndex","outputs":[{"internalType":"uint256","name":"","type":"uint256"}],"stateMutability":"view","type":"function"},{"inputs":[{"internalType":"bytes32","name":"_hash","type":"bytes32"}],"name":"getVoteRounds","outputs":[{"internalType":"uint256[]","name":"","type":"uint256[]"}],"stateMutability":"view","type":"function"},{"inputs":[],"name":"governance","outputs":[{"internalType":"address","name":"","type":"address"}],"stateMutability":"view","type":"function"},{"inputs":[{"internalType":"bytes32","name":"","type":"bytes32"},{"internalType":"uint256","name":"","type":"uint256"}],"name":"isDisputed","outputs":[{"internalType":"bool","name":"","type":"bool"}],"stateMutability":"view","type":"function"},{"inputs":[{"internalType":"bytes32","name":"_queryId","type":"bytes32"},{"internalType":"uint256","name":"_timestamp","type":"uint256"}],"name":"isInDispute","outputs":[{"internalType":"bool","name":"","type":"bool"}],"stateMutability":"view","type":"function"},{"inputs":[],"name":"name","outputs":[{"internalType":"string","name":"","type":"string"}],"stateMutability":"view","type":"function"},{"inputs":[{"internalType":"bytes32","name":"","type":"bytes32"},{"internalType":"uint256","name":"","type":"uint256"}],"name":"reporterByTimestamp","outputs":[{"internalType":"address","name":"","type":"address"}],"stateMutability":"view","type":"function"},{"inputs":[{"internalType":"uint256","name":"_amount","type":"uint256"}],"name":"requestStakingWithdraw","outputs":[],"stateMutability":"nonpayable","type":"function"},{"inputs":[{"internalType":"bytes32","name":"_queryId","type":"bytes32"},{"internalType":"uint256","name":"_timestamp","type":"uint256"}],"name":"retrieveData","outputs":[{"internalType":"bytes","name":"","type":"bytes"}],"stateMutability":"view","type":"function"},{"inputs":[],"name":"stakeAmount","outputs":[{"internalType":"uint256","name":"","type":"uint256"}],"stateMutability":"view","type":"function"},{"inputs":[{"internalType":"bytes32","name":"_queryId","type":"bytes32"},{"internalType":"bytes","name":"_value","type":"bytes"},{"internalType":"uint256","name":"_nonce","type":"uint256"},{"internalType":"bytes","name":"_queryData","type":"bytes"}],"name":"submitValue","outputs":[],"stateMutability":"nonpayable","type":"function"},{"inputs":[],"name":"symbol","outputs":[{"internalType":"string","name":"","type":"string"}],"stateMutability":"view","type":"function"},{"inputs":[],"name":"timeBasedReward","outputs":[{"internalType":"uint256","name":"","type":"uint256"}],"stateMutability":"view","type":"function"},{"inputs":[{"internalType":"bytes32","name":"","type":"bytes32"},{"internalType":"uint256","name":"","type":"uint256"}],"name":"timestamps","outputs":[{"internalType":"uint256","name":"","type":"uint256"}],"stateMutability":"view","type":"function"},{"inputs":[{"internalType":"bytes32","name":"","type":"bytes32"}],"name":"tips","outputs":[{"internalType":"uint256","name":"","type":"uint256"}],"stateMutability":"view","type":"function"},{"inputs":[],"name":"tipsInContract","outputs":[{"internalType":"uint256","name":"","type":"uint256"}],"stateMutability":"view","type":"function"},{"inputs":[],"name":"token","outputs":[{"internalType":"address","name":"","type":"address"}],"stateMutability":"view","type":"function"},{"inputs":[],"name":"totalSupply","outputs":[{"internalType":"uint256","name":"","type":"uint256"}],"stateMutability":"view","type":"function"},{"inputs":[{"internalType":"address","name":"_recipient","type":"address"},{"internalType":"uint256","name":"_amount","type":"uint256"}],"name":"transfer","outputs":[{"internalType":"bool","name":"","type":"bool"}],"stateMutability":"nonpayable","type":"function"},{"inputs":[{"internalType":"address","name":"_sender","type":"address"},{"internalType":"address","name":"_recipient","type":"address"},{"internalType":"uint256","name":"_amount","type":"uint256"}],"name":"transferFrom","outputs":[{"internalType":"bool","name":"","type":"bool"}],"stateMutability":"nonpayable","type":"function"},{"inputs":[{"internalType":"bytes32","name":"","type":"bytes32"},{"internalType":"uint256","name":"","type":"uint256"}],"name":"values","outputs":[{"internalType":"bytes","name":"","type":"bytes"}],"stateMutability":"view","type":"function"},{"inputs":[],"name":"voteCount","outputs":[{"internalType":"uint256","name":"","type":"uint256"}],"stateMutability":"view","type":"function"},{"inputs":[{"internalType":"bytes32","name":"","type":"bytes32"},{"internalType":"uint256","name":"","type":"uint256"}],"name":"voteRounds","outputs":[{"internalType":"uint256","name":"","type":"uint256"}],"stateMutability":"view","type":"function"},{"inputs":[],"name":"withdrawStake","outputs":[],"stateMutability":"nonpayable","type":"function"}],"evm":{"bytecode":{"linkReferences":{},"object":"60806040523480156200001157600080fd5b506040805180820190915260108082526f15195b1b1bdc941b185e59dc9bdd5b9960821b60209092019182526200004b91600e916200009f565b50604080518082019091526004808252630545242560e41b60209092019182526200007991600f916200009f565b506010805460ff19166012179055600c80546001600160a01b0319163017905562000182565b828054620000ad9062000145565b90600052602060002090601f016020900481019282620000d157600085556200011c565b82601f10620000ec57805160ff19168380011785556200011c565b828001600101855582156200011c579182015b828111156200011c578251825591602001919060010190620000ff565b506200012a9291506200012e565b5090565b5b808211156200012a57600081556001016200012f565b600181811c908216806200015a57607f821691505b602082108114156200017c57634e487b7160e01b600052602260045260246000fd5b50919050565b611d6380620001926000396000f3fe608060405234801561001057600080fd5b50600436106102325760003560e01c8063733bdef011610130578063c5958af9116100b8578063d9c51cd41161007c578063d9c51cd4146105c7578063dd62ed3e146105da578063e07c548614610613578063f25133f314610647578063fc0c546a1461065a57610232565b8063c5958af914610572578063c638407114610585578063c979fe9f1461058e578063cb82cc8f146105a1578063ce5e11bf146105b457610232565b806396426d97116100ff57806396426d9714610513578063a792765f14610522578063a9059cbb14610544578063b86d1d6314610557578063bed9d8611461056a57610232565b8063733bdef01461044357806377b03e0d146104d85780638929f4c6146104f857806395d89b411461050b57610232565b8063313ce567116101be57806360c7dc471161018257806360c7dc47146103d557806364473df2146103de57806369d43bd31461040957806370a0823114610412578063722580b61461043b57610232565b8063313ce5671461035b57806344e87f91146103705780635aa6e6751461039c5780635eaa9ced146103a2578063602bf227146103b557610232565b80631f379acc116102055780631f379acc1461029d578063217053c0146102b257806323b872dd146102fe578063248638e514610311578063294490851461033157610232565b806306fdde0314610237578063091b50ff14610255578063095ea7b31461026857806318160ddd1461028b575b600080fd5b61023f61066d565b60405161024c9190611c32565b60405180910390f35b61023f610263366004611ada565b6106ff565b61027b6102763660046119f4565b6107a4565b604051901515815260200161024c565b600d545b60405190815260200161024c565b6102b06102ab366004611ada565b6107bb565b005b6102e66102c0366004611ada565b60016020908152600092835260408084209091529082529020546001600160a01b031681565b6040516001600160a01b03909116815260200161024c565b61027b61030c3660046119b9565b610881565b61032461031f366004611a1d565b6108d3565b60405161024c9190611b56565b61034461033f366004611ada565b610936565b60408051921515835260208301919091520161024c565b60105460405160ff909116815260200161024c565b61027b61037e366004611ada565b60009182526020828152604080842092845291905290205460ff1690565b306102e6565b6102b06103b0366004611a35565b610c60565b61028f6103c3366004611a1d565b60046020526000908152604090205481565b61028f60095481565b61027b6103ec366004611ada565b600060208181529281526040808220909352908152205460ff1681565b61028f600a5481565b61028f610420366004611966565b6001600160a01b031660009081526008602052604090205490565b60095461028f565b610492610451366004611966565b6001600160a01b0316600090815260026020819052604082208054600182015492820154600383015460049093015491959394909390929190839081908190565b60408051998a5260208a0198909852968801959095526060870193909352608086019190915260a085015260c084015260e083015215156101008201526101200161024c565b61028f6104e6366004611a1d565b60009081526003602052604090205490565b6102b0610506366004611a1d565b610e9a565b61023f610f75565b61028f6706f05b59d3b2000081565b610535610530366004611ada565b610f84565b60405161024c93929190611b9a565b61027b6105523660046119f4565b611081565b6102b0610565366004611966565b61108e565b6102b06110a4565b61023f610580366004611ada565b6111b2565b61028f600b5481565b61028f61059c366004611ada565b611260565b6102b06105af366004611a1d565b611291565b61028f6105c2366004611ada565b61136f565b6102b06105d5366004611a1d565b6113dc565b61028f6105e8366004611987565b6001600160a01b03918216600090815260076020908152604080832093909416825291909152205490565b6102e6610621366004611ada565b60009182526001602090815260408084209284529190529020546001600160a01b031690565b61028f610655366004611ada565b6113f0565b600c546102e6906001600160a01b031681565b6060600e805461067c90611cab565b80601f01602080910402602001604051908101604052809291908181526020018280546106a890611cab565b80156106f55780601f106106ca576101008083540402835291602001916106f5565b820191906000526020600020905b8154815290600101906020018083116106d857829003601f168201915b5050505050905090565b60056020908152600092835260408084209091529082529020805461072390611cab565b80601f016020809104026020016040519081016040528092919081815260200182805461074f90611cab565b801561079c5780601f106107715761010080835404028352916020019161079c565b820191906000526020600020905b81548152906001019060200180831161077f57829003601f168201915b505050505081565b60006107b133848461140c565b5060015b92915050565b60408051602080820180845260008084528681526005835284812086825290925292902090516107eb92906117bb565b506000828152602081815260408083208484529091528120805460ff19166001179055600b80549161081c83611ce6565b9190505550600660008383604051602001610841929190918252602082015260400190565b60408051601f19818403018152918152815160209283012083528282019390935291016000908120600b5481546001810183559183529290912001555050565b600061088e848484611531565b6001600160a01b0384166000908152600760209081526040808320338085529252909120546108c99186916108c4908690611c7d565b61140c565b5060019392505050565b60008181526006602090815260409182902080548351818402810184019094528084526060939283018282801561092957602002820191906000526020600020905b815481526020019060010190808311610915575b505050505090505b919050565b60008281526003602052604081205481908015610c50576000808061095c600185611c7d565b9050600061096a898461136f565b905087811061098457600080965096505050505050610c59565b61098e898361136f565b905087811015610a2e575b60008981526020818152604080832084845290915290205460ff1680156109c05750600082115b156109e357816109cf81611c94565b9250506109dc898361136f565b9050610999565b81158015610a08575060008981526020818152604080832084845290915290205460ff165b15610a1e57600080965096505050505050610c59565b50600195509350610c5992505050565b826002610a3b8285611c7d565b610a459190611c5d565b610a50906001611c45565b610a5a9190611c45565b9350610a66898561136f565b905087811015610b66576000610a818a6105c2876001611c45565b9050888110610b535760008a81526020818152604080832085845290915290205460ff16610abb5760018597509750505050505050610c59565b60008a81526020818152604080832085845290915290205460ff168015610ae25750600085115b15610b055784610af181611c94565b955050610afe8a8661136f565b9150610abb565b84158015610b2a575060008a81526020818152604080832085845290915290205460ff165b15610b415760008097509750505050505050610c59565b60018597509750505050505050610c59565b610b5e856001611c45565b935050610c4b565b6000610b778a6105c2600188611c7d565b905088811015610c3c5760008a81526020818152604080832084845290915290205460ff16610bbb576001610bac8187611c7d565b97509750505050505050610c59565b84610bc581611c94565b9550505b60008a81526020818152604080832084845290915290205460ff168015610bf05750600085115b15610c135784610bff81611c94565b955050610c0c8a8661136f565b9050610bc9565b84158015610b2a575060008a81526020818152604080832084845290915290205460ff16610b2a565b610c47600186611c7d565b9250505b610a2e565b60008092509250505b9250929050565b7fc5d2460186f7233c927e7db2dcc703c0e500b653ca82273b7bfad8045d85a4708484604051610c91929190611b46565b60405180910390201415610cec5760405162461bcd60e51b815260206004820152601760248201527f76616c7565206d757374206265207375626d697474656400000000000000000060448201526064015b60405180910390fd5b600085815260036020526040902054821480610d06575081155b610d525760405162461bcd60e51b815260206004820181905260248201527f6e6f6e6365206d757374206d617463682074696d657374616d7020696e6465786044820152606401610ce3565b80516020820120851480610d67575060648511155b610db35760405162461bcd60e51b815260206004820152601d60248201527f6964206d7573742062652068617368206f6620627974657320646174610000006044820152606401610ce3565b60008581526005602090815260408083204284529091529020610dd790858561183f565b5060008581526003602081815260408084208054600181810183559186528386204291018190558a86529083528185208186528352818520805473ffffffffffffffffffffffffffffffffffffffff19163390811790915585526002909252832091820155600401805491610e4b83611ce6565b91905055507f48e9e2c732ba278de6ac88a3a57a5c5ba13d3d8370e709b3b98333a57876ca9585428686868633604051610e8b9796959493929190611bc5565b60405180910390a15050505050565b3360009081526002602052604090206001810154821115610efd5760405162461bcd60e51b815260206004820152601b60248201527f696e73756666696369656e74207374616b65642062616c616e636500000000006044820152606401610ce3565b428155600281018054839190600090610f17908490611c45565b9250508190555081816001016000828254610f329190611c7d565b909155505060408051338152602081018490527f3d8d9df4bd0172df32e557fa48e96435cd7f2cac06aaffacfaee608e6f7898ef91015b60405180910390a15050565b6060600f805461067c90611cab565b600060606000806000610f978787610936565b9150915081610fc1576000604051806020016040528060008152506000945094509450505061107a565b610fcb878261136f565b60008881526005602090815260408083208484529091529020805491945090610ff390611cab565b80601f016020809104026020016040519081016040528092919081815260200182805461101f90611cab565b801561106c5780601f106110415761010080835404028352916020019161106c565b820191906000526020600020905b81548152906001019060200180831161104f57829003601f168201915b505050505093506001945050505b9250925092565b60006107b1338484611531565b6110a181683635c9adc5dea00000611698565b50565b336000908152600260205260409020805462093a80906110c49042611c7d565b10156111075760405162461bcd60e51b8152602060048201526012602482015271372064617973206469646e2774207061737360701b6044820152606401610ce3565b60008160020154116111665760405162461bcd60e51b815260206004820152602260248201527f7265706f72746572206e6f74206c6f636b656420666f72207769746864726177604482015261185b60f21b6064820152608401610ce3565b61117530338360020154611531565b600060028201556040513381527f4a7934670bd8304e7da22378be1368f7c4fef17c5aee81804beda8638fe428ec9060200160405180910390a150565b600082815260056020908152604080832084845290915290208054606091906111da90611cab565b80601f016020809104026020016040519081016040528092919081815260200182805461120690611cab565b80156112535780601f1061122857610100808354040283529160200191611253565b820191906000526020600020905b81548152906001019060200180831161123657829003601f168201915b5050505050905092915050565b6006602052816000526040600020818154811061127c57600080fd5b90600052602060002001600091509150505481565b336000908152600260208190526040909120908101541561130657818160020154106112d657818160020160008282546112cb9190611c7d565b909155506113019050565b6112f033308360020154856112eb9190611c7d565b611777565b6112f957600080fd5b600060028201555b61131a565b611311333084611777565b61131a57600080fd5b428155600181018054839190600090611334908490611c45565b909155505060408051338152602081018490527fa96c2cce65119a2170d1711a6e82f18f2006448828483ba7545e5954765436479101610f69565b60008281526003602052604081205480158061138b5750828111155b1561139a5760009150506107b5565b60008481526003602052604090208054849081106113c857634e487b7160e01b600052603260045260246000fd5b906000526020600020015491505092915050565b6113e7333083611777565b6110a157600080fd5b6003602052816000526040600020818154811061127c57600080fd5b6001600160a01b03831661146e5760405162461bcd60e51b8152602060048201526024808201527f45524332303a20617070726f76652066726f6d20746865207a65726f206164646044820152637265737360e01b6064820152608401610ce3565b6001600160a01b0382166114cf5760405162461bcd60e51b815260206004820152602260248201527f45524332303a20617070726f766520746f20746865207a65726f206164647265604482015261737360f01b6064820152608401610ce3565b6001600160a01b0383811660008181526007602090815260408083209487168084529482529182902085905590518481527f8c5be1e5ebec7d5bd14f71427d1e84f3dd0314c0f7b2291e5b200ac8c7c3b92591015b60405180910390a3505050565b6001600160a01b0383166115955760405162461bcd60e51b815260206004820152602560248201527f45524332303a207472616e736665722066726f6d20746865207a65726f206164604482015264647265737360d81b6064820152608401610ce3565b6001600160a01b0382166115f75760405162461bcd60e51b815260206004820152602360248201527f45524332303a207472616e7366657220746f20746865207a65726f206164647260448201526265737360e81b6064820152608401610ce3565b6001600160a01b0383166000908152600860205260408120805483929061161f908490611c7d565b90915550506001600160a01b0382166000908152600860205260408120805483929061164c908490611c45565b92505081905550816001600160a01b0316836001600160a01b03167fddf252ad1be2c89b69c2b068fc378daa952ba7f163c4a11628f55a4df523b3ef8360405161152491815260200190565b6001600160a01b0382166116ee5760405162461bcd60e51b815260206004820152601f60248201527f45524332303a206d696e7420746f20746865207a65726f2061646472657373006044820152606401610ce3565b80600d60008282546117009190611c45565b90915550506001600160a01b0382166000908152600860205260408120805483929061172d908490611c45565b90915550506040518181526001600160a01b038316906000907fddf252ad1be2c89b69c2b068fc378daa952ba7f163c4a11628f55a4df523b3ef9060200160405180910390a35050565b6000611784848484611531565b6001600160a01b03841660009081526007602090815260408083203084529091529020546108c990859033906108c4908690611c7d565b8280546117c790611cab565b90600052602060002090601f0160209004810192826117e9576000855561182f565b82601f1061180257805160ff191683800117855561182f565b8280016001018555821561182f579182015b8281111561182f578251825591602001919060010190611814565b5061183b9291506118b3565b5090565b82805461184b90611cab565b90600052602060002090601f01602090048101928261186d576000855561182f565b82601f106118865782800160ff1982351617855561182f565b8280016001018555821561182f579182015b8281111561182f578235825591602001919060010190611898565b5b8082111561183b57600081556001016118b4565b80356001600160a01b038116811461093157600080fd5b600082601f8301126118ef578081fd5b813567ffffffffffffffff8082111561190a5761190a611d17565b604051601f8301601f19908116603f0116810190828211818310171561193257611932611d17565b8160405283815286602085880101111561194a578485fd5b8360208701602083013792830160200193909352509392505050565b600060208284031215611977578081fd5b611980826118c8565b9392505050565b60008060408385031215611999578081fd5b6119a2836118c8565b91506119b0602084016118c8565b90509250929050565b6000806000606084860312156119cd578081fd5b6119d6846118c8565b92506119e4602085016118c8565b9150604084013590509250925092565b60008060408385031215611a06578182fd5b611a0f836118c8565b946020939093013593505050565b600060208284031215611a2e578081fd5b5035919050565b600080600080600060808688031215611a4c578081fd5b85359450602086013567ffffffffffffffff80821115611a6a578283fd5b818801915088601f830112611a7d578283fd5b813581811115611a8b578384fd5b896020828501011115611a9c578384fd5b60208301965080955050604088013593506060880135915080821115611ac0578283fd5b50611acd888289016118df565b9150509295509295909350565b60008060408385031215611aec578182fd5b50508035926020909101359150565b60008151808452815b81811015611b2057602081850181015186830182015201611b04565b81811115611b315782602083870101525b50601f01601f19169290920160200192915050565b6000828483379101908152919050565b6020808252825182820181905260009190848201906040850190845b81811015611b8e57835183529284019291840191600101611b72565b50909695505050505050565b6000841515825260606020830152611bb56060830185611afb565b9050826040830152949350505050565b600088825287602083015260c060408301528560c0830152858760e08401378060e08784010152601f19601f870116820185606084015260e0838203016080840152611c1460e0820186611afb565b9150506001600160a01b03831660a083015298975050505050505050565b6000602082526119806020830184611afb565b60008219821115611c5857611c58611d01565b500190565b600082611c7857634e487b7160e01b81526012600452602481fd5b500490565b600082821015611c8f57611c8f611d01565b500390565b600081611ca357611ca3611d01565b506000190190565b600181811c90821680611cbf57607f821691505b60208210811415611ce057634e487b7160e01b600052602260045260246000fd5b50919050565b6000600019821415611cfa57611cfa611d01565b5060010190565b634e487b7160e01b600052601160045260246000fd5b634e487b7160e01b600052604160045260246000fdfea26469706673582212206348335c96556275f76860e8526b4a325902eea4a29f06ea843f03ed8e78926964736f6c63430008030033","opcodes":"PUSH1 0x80 PUSH1 0x40 MSTORE CALLVALUE DUP1 ISZERO PUSH3 0x11 JUMPI PUSH1 0x0 DUP1 REVERT JUMPDEST POP PUSH1 0x40 DUP1 MLOAD DUP1 DUP3 ADD SWAP1 SWAP2 MSTORE PUSH1 0x10 DUP1 DUP3 MSTORE PUSH16 0x15195B1B1BDC941B185E59DC9BDD5B99 PUSH1 0x82 SHL PUSH1 0x20 SWAP1 SWAP3 ADD SWAP2 DUP3 MSTORE PUSH3 0x4B SWAP2 PUSH1 0xE SWAP2 PUSH3 0x9F JUMP JUMPDEST POP PUSH1 0x40 DUP1 MLOAD DUP1 DUP3 ADD SWAP1 SWAP2 MSTORE PUSH1 0x4 DUP1 DUP3 MSTORE PUSH4 0x5452425 PUSH1 0xE4 SHL PUSH1 0x20 SWAP1 SWAP3 ADD SWAP2 DUP3 MSTORE PUSH3 0x79 SWAP2 PUSH1 0xF SWAP2 PUSH3 0x9F JUMP JUMPDEST POP PUSH1 0x10 DUP1 SLOAD PUSH1 0xFF NOT AND PUSH1 0x12 OR SWAP1 SSTORE PUSH1 0xC DUP1 SLOAD PUSH1 0x1 PUSH1 0x1 PUSH1 0xA0 SHL SUB NOT AND ADDRESS OR SWAP1 SSTORE PUSH3 0x182 JUMP JUMPDEST DUP3 DUP1 SLOAD PUSH3 0xAD SWAP1 PUSH3 0x145 JUMP JUMPDEST SWAP1 PUSH1 0x0 MSTORE PUSH1 0x20 PUSH1 0x0 KECCAK256 SWAP1 PUSH1 0x1F ADD PUSH1 0x20 SWAP1 DIV DUP2 ADD SWAP3 DUP3 PUSH3 0xD1 JUMPI PUSH1 0x0 DUP6 SSTORE PUSH3 0x11C JUMP JUMPDEST DUP3 PUSH1 0x1F LT PUSH3 0xEC JUMPI DUP1 MLOAD PUSH1 0xFF NOT AND DUP4 DUP1 ADD OR DUP6 SSTORE PUSH3 0x11C JUMP JUMPDEST DUP3 DUP1 ADD PUSH1 0x1 ADD DUP6 SSTORE DUP3 ISZERO PUSH3 0x11C JUMPI SWAP2 DUP3 ADD JUMPDEST DUP3 DUP2 GT ISZERO PUSH3 0x11C JUMPI DUP3 MLOAD DUP3 SSTORE SWAP2 PUSH1 0x20 ADD SWAP2 SWAP1 PUSH1 0x1 ADD SWAP1 PUSH3 0xFF JUMP JUMPDEST POP PUSH3 0x12A SWAP3 SWAP2 POP PUSH3 0x12E JUMP JUMPDEST POP SWAP1 JUMP JUMPDEST JUMPDEST DUP1 DUP3 GT ISZERO PUSH3 0x12A JUMPI PUSH1 0x0 DUP2 SSTORE PUSH1 0x1 ADD PUSH3 0x12F JUMP JUMPDEST PUSH1 0x1 DUP2 DUP2 SHR SWAP1 DUP3 AND DUP1 PUSH3 0x15A JUMPI PUSH1 0x7F DUP3 AND SWAP2 POP JUMPDEST PUSH1 0x20 DUP3 LT DUP2 EQ ISZERO PUSH3 0x17C JUMPI PUSH4 0x4E487B71 PUSH1 0xE0 SHL PUSH1 0x0 MSTORE PUSH1 0x22 PUSH1 0x4 MSTORE PUSH1 0x24 PUSH1 0x0 REVERT JUMPDEST POP SWAP2 SWAP1 POP JUMP JUMPDEST PUSH2 0x1D63 DUP1 PUSH3 0x192 PUSH1 0x0 CODECOPY PUSH1 0x0 RETURN INVALID PUSH1 0x80 PUSH1 0x40 MSTORE CALLVALUE DUP1 ISZERO PUSH2 0x10 JUMPI PUSH1 0x0 DUP1 REVERT JUMPDEST POP PUSH1 0x4 CALLDATASIZE LT PUSH2 0x232 JUMPI PUSH1 0x0 CALLDATALOAD PUSH1 0xE0 SHR DUP1 PUSH4 0x733BDEF0 GT PUSH2 0x130 JUMPI DUP1 PUSH4 0xC5958AF9 GT PUSH2 0xB8 JUMPI DUP1 PUSH4 0xD9C51CD4 GT PUSH2 0x7C JUMPI DUP1 PUSH4 0xD9C51CD4 EQ PUSH2 0x5C7 JUMPI DUP1 PUSH4 0xDD62ED3E EQ PUSH2 0x5DA JUMPI DUP1 PUSH4 0xE07C5486 EQ PUSH2 0x613 JUMPI DUP1 PUSH4 0xF25133F3 EQ PUSH2 0x647 JUMPI DUP1 PUSH4 0xFC0C546A EQ PUSH2 0x65A JUMPI PUSH2 0x232 JUMP JUMPDEST DUP1 PUSH4 0xC5958AF9 EQ PUSH2 0x572 JUMPI DUP1 PUSH4 0xC6384071 EQ PUSH2 0x585 JUMPI DUP1 PUSH4 0xC979FE9F EQ PUSH2 0x58E JUMPI DUP1 PUSH4 0xCB82CC8F EQ PUSH2 0x5A1 JUMPI DUP1 PUSH4 0xCE5E11BF EQ PUSH2 0x5B4 JUMPI PUSH2 0x232 JUMP JUMPDEST DUP1 PUSH4 0x96426D97 GT PUSH2 0xFF JUMPI DUP1 PUSH4 0x96426D97 EQ PUSH2 0x513 JUMPI DUP1 PUSH4 0xA792765F EQ PUSH2 0x522 JUMPI DUP1 PUSH4 0xA9059CBB EQ PUSH2 0x544 JUMPI DUP1 PUSH4 0xB86D1D63 EQ PUSH2 0x557 JUMPI DUP1 PUSH4 0xBED9D861 EQ PUSH2 0x56A JUMPI PUSH2 0x232 JUMP JUMPDEST DUP1 PUSH4 0x733BDEF0 EQ PUSH2 0x443 JUMPI DUP1 PUSH4 0x77B03E0D EQ PUSH2 0x4D8 JUMPI DUP1 PUSH4 0x8929F4C6 EQ PUSH2 0x4F8 JUMPI DUP1 PUSH4 0x95D89B41 EQ PUSH2 0x50B JUMPI PUSH2 0x232 JUMP JUMPDEST DUP1 PUSH4 0x313CE567 GT PUSH2 0x1BE JUMPI DUP1 PUSH4 0x60C7DC47 GT PUSH2 0x182 JUMPI DUP1 PUSH4 0x60C7DC47 EQ PUSH2 0x3D5 JUMPI DUP1 PUSH4 0x64473DF2 EQ PUSH2 0x3DE JUMPI DUP1 PUSH4 0x69D43BD3 EQ PUSH2 0x409 JUMPI DUP1 PUSH4 0x70A08231 EQ PUSH2 0x412 JUMPI DUP1 PUSH4 0x722580B6 EQ PUSH2 0x43B JUMPI PUSH2 0x232 JUMP JUMPDEST DUP1 PUSH4 0x313CE567 EQ PUSH2 0x35B JUMPI DUP1 PUSH4 0x44E87F91 EQ PUSH2 0x370 JUMPI DUP1 PUSH4 0x5AA6E675 EQ PUSH2 0x39C JUMPI DUP1 PUSH4 0x5EAA9CED EQ PUSH2 0x3A2 JUMPI DUP1 PUSH4 0x602BF227 EQ PUSH2 0x3B5 JUMPI PUSH2 0x232 JUMP JUMPDEST DUP1 PUSH4 0x1F379ACC GT PUSH2 0x205 JUMPI DUP1 PUSH4 0x1F379ACC EQ PUSH2 0x29D JUMPI DUP1 PUSH4 0x217053C0 EQ PUSH2 0x2B2 JUMPI DUP1 PUSH4 0x23B872DD EQ PUSH2 0x2FE JUMPI DUP1 PUSH4 0x248638E5 EQ PUSH2 0x311 JUMPI DUP1 PUSH4 0x29449085 EQ PUSH2 0x331 JUMPI PUSH2 0x232 JUMP JUMPDEST DUP1 PUSH4 0x6FDDE03 EQ PUSH2 0x237 JUMPI DUP1 PUSH4 0x91B50FF EQ PUSH2 0x255 JUMPI DUP1 PUSH4 0x95EA7B3 EQ PUSH2 0x268 JUMPI DUP1 PUSH4 0x18160DDD EQ PUSH2 0x28B JUMPI JUMPDEST PUSH1 0x0 DUP1 REVERT JUMPDEST PUSH2 0x23F PUSH2 0x66D JUMP JUMPDEST PUSH1 0x40 MLOAD PUSH2 0x24C SWAP2 SWAP1 PUSH2 0x1C32 JUMP JUMPDEST PUSH1 0x40 MLOAD DUP1 SWAP2 SUB SWAP1 RETURN JUMPDEST PUSH2 0x23F PUSH2 0x263 CALLDATASIZE PUSH1 0x4 PUSH2 0x1ADA JUMP JUMPDEST PUSH2 0x6FF JUMP JUMPDEST PUSH2 0x27B PUSH2 0x276 CALLDATASIZE PUSH1 0x4 PUSH2 0x19F4 JUMP JUMPDEST PUSH2 0x7A4 JUMP JUMPDEST PUSH1 0x40 MLOAD SWAP1 ISZERO ISZERO DUP2 MSTORE PUSH1 0x20 ADD PUSH2 0x24C JUMP JUMPDEST PUSH1 0xD SLOAD JUMPDEST PUSH1 0x40 MLOAD SWAP1 DUP2 MSTORE PUSH1 0x20 ADD PUSH2 0x24C JUMP JUMPDEST PUSH2 0x2B0 PUSH2 0x2AB CALLDATASIZE PUSH1 0x4 PUSH2 0x1ADA JUMP JUMPDEST PUSH2 0x7BB JUMP JUMPDEST STOP JUMPDEST PUSH2 0x2E6 PUSH2 0x2C0 CALLDATASIZE PUSH1 0x4 PUSH2 0x1ADA JUMP JUMPDEST PUSH1 0x1 PUSH1 0x20 SWAP1 DUP2 MSTORE PUSH1 0x0 SWAP3 DUP4 MSTORE PUSH1 0x40 DUP1 DUP5 KECCAK256 SWAP1 SWAP2 MSTORE SWAP1 DUP3 MSTORE SWAP1 KECCAK256 SLOAD PUSH1 0x1 PUSH1 0x1 PUSH1 0xA0 SHL SUB AND DUP2 JUMP JUMPDEST PUSH1 0x40 MLOAD PUSH1 0x1 PUSH1 0x1 PUSH1 0xA0 SHL SUB SWAP1 SWAP2 AND DUP2 MSTORE PUSH1 0x20 ADD PUSH2 0x24C JUMP JUMPDEST PUSH2 0x27B PUSH2 0x30C CALLDATASIZE PUSH1 0x4 PUSH2 0x19B9 JUMP JUMPDEST PUSH2 0x881 JUMP JUMPDEST PUSH2 0x324 PUSH2 0x31F CALLDATASIZE PUSH1 0x4 PUSH2 0x1A1D JUMP JUMPDEST PUSH2 0x8D3 JUMP JUMPDEST PUSH1 0x40 MLOAD PUSH2 0x24C SWAP2 SWAP1 PUSH2 0x1B56 JUMP JUMPDEST PUSH2 0x344 PUSH2 0x33F CALLDATASIZE PUSH1 0x4 PUSH2 0x1ADA JUMP JUMPDEST PUSH2 0x936 JUMP JUMPDEST PUSH1 0x40 DUP1 MLOAD SWAP3 ISZERO ISZERO DUP4 MSTORE PUSH1 0x20 DUP4 ADD SWAP2 SWAP1 SWAP2 MSTORE ADD PUSH2 0x24C JUMP JUMPDEST PUSH1 0x10 SLOAD PUSH1 0x40 MLOAD PUSH1 0xFF SWAP1 SWAP2 AND DUP2 MSTORE PUSH1 0x20 ADD PUSH2 0x24C JUMP JUMPDEST PUSH2 0x27B PUSH2 0x37E CALLDATASIZE PUSH1 0x4 PUSH2 0x1ADA JUMP JUMPDEST PUSH1 0x0 SWAP2 DUP3 MSTORE PUSH1 0x20 DUP3 DUP2 MSTORE PUSH1 0x40 DUP1 DUP5 KECCAK256 SWAP3 DUP5 MSTORE SWAP2 SWAP1 MSTORE SWAP1 KECCAK256 SLOAD PUSH1 0xFF AND SWAP1 JUMP JUMPDEST ADDRESS PUSH2 0x2E6 JUMP JUMPDEST PUSH2 0x2B0 PUSH2 0x3B0 CALLDATASIZE PUSH1 0x4 PUSH2 0x1A35 JUMP JUMPDEST PUSH2 0xC60 JUMP JUMPDEST PUSH2 0x28F PUSH2 0x3C3 CALLDATASIZE PUSH1 0x4 PUSH2 0x1A1D JUMP JUMPDEST PUSH1 0x4 PUSH1 0x20 MSTORE PUSH1 0x0 SWAP1 DUP2 MSTORE PUSH1 0x40 SWAP1 KECCAK256 SLOAD DUP2 JUMP JUMPDEST PUSH2 0x28F PUSH1 0x9 SLOAD DUP2 JUMP JUMPDEST PUSH2 0x27B PUSH2 0x3EC CALLDATASIZE PUSH1 0x4 PUSH2 0x1ADA JUMP JUMPDEST PUSH1 0x0 PUSH1 0x20 DUP2 DUP2 MSTORE SWAP3 DUP2 MSTORE PUSH1 0x40 DUP1 DUP3 KECCAK256 SWAP1 SWAP4 MSTORE SWAP1 DUP2 MSTORE KECCAK256 SLOAD PUSH1 0xFF AND DUP2 JUMP JUMPDEST PUSH2 0x28F PUSH1 0xA SLOAD DUP2 JUMP JUMPDEST PUSH2 0x28F PUSH2 0x420 CALLDATASIZE PUSH1 0x4 PUSH2 0x1966 JUMP JUMPDEST PUSH1 0x1 PUSH1 0x1 PUSH1 0xA0 SHL SUB AND PUSH1 0x0 SWAP1 DUP2 MSTORE PUSH1 0x8 PUSH1 0x20 MSTORE PUSH1 0x40 SWAP1 KECCAK256 SLOAD SWAP1 JUMP JUMPDEST PUSH1 0x9 SLOAD PUSH2 0x28F JUMP JUMPDEST PUSH2 0x492 PUSH2 0x451 CALLDATASIZE PUSH1 0x4 PUSH2 0x1966 JUMP JUMPDEST PUSH1 0x1 PUSH1 0x1 PUSH1 0xA0 SHL SUB AND PUSH1 0x0 SWAP1 DUP2 MSTORE PUSH1 0x2 PUSH1 0x20 DUP2 SWAP1 MSTORE PUSH1 0x40 DUP3 KECCAK256 DUP1 SLOAD PUSH1 0x1 DUP3 ADD SLOAD SWAP3 DUP3 ADD SLOAD PUSH1 0x3 DUP4 ADD SLOAD PUSH1 0x4 SWAP1 SWAP4 ADD SLOAD SWAP2 SWAP6 SWAP4 SWAP5 SWAP1 SWAP4 SWAP1 SWAP3 SWAP2 SWAP1 DUP4 SWAP1 DUP2 SWAP1 DUP2 SWAP1 JUMP JUMPDEST PUSH1 0x40 DUP1 MLOAD SWAP10 DUP11 MSTORE PUSH1 0x20 DUP11 ADD SWAP9 SWAP1 SWAP9 MSTORE SWAP7 DUP9 ADD SWAP6 SWAP1 SWAP6 MSTORE PUSH1 0x60 DUP8 ADD SWAP4 SWAP1 SWAP4 MSTORE PUSH1 0x80 DUP7 ADD SWAP2 SWAP1 SWAP2 MSTORE PUSH1 0xA0 DUP6 ADD MSTORE PUSH1 0xC0 DUP5 ADD MSTORE PUSH1 0xE0 DUP4 ADD MSTORE ISZERO ISZERO PUSH2 0x100 DUP3 ADD MSTORE PUSH2 0x120 ADD PUSH2 0x24C JUMP JUMPDEST PUSH2 0x28F PUSH2 0x4E6 CALLDATASIZE PUSH1 0x4 PUSH2 0x1A1D JUMP JUMPDEST PUSH1 0x0 SWAP1 DUP2 MSTORE PUSH1 0x3 PUSH1 0x20 MSTORE PUSH1 0x40 SWAP1 KECCAK256 SLOAD SWAP1 JUMP JUMPDEST PUSH2 0x2B0 PUSH2 0x506 CALLDATASIZE PUSH1 0x4 PUSH2 0x1A1D JUMP JUMPDEST PUSH2 0xE9A JUMP JUMPDEST PUSH2 0x23F PUSH2 0xF75 JUMP JUMPDEST PUSH2 0x28F PUSH8 0x6F05B59D3B20000 DUP2 JUMP JUMPDEST PUSH2 0x535 PUSH2 0x530 CALLDATASIZE PUSH1 0x4 PUSH2 0x1ADA JUMP JUMPDEST PUSH2 0xF84 JUMP JUMPDEST PUSH1 0x40 MLOAD PUSH2 0x24C SWAP4 SWAP3 SWAP2 SWAP1 PUSH2 0x1B9A JUMP JUMPDEST PUSH2 0x27B PUSH2 0x552 CALLDATASIZE PUSH1 0x4 PUSH2 0x19F4 JUMP JUMPDEST PUSH2 0x1081 JUMP JUMPDEST PUSH2 0x2B0 PUSH2 0x565 CALLDATASIZE PUSH1 0x4 PUSH2 0x1966 JUMP JUMPDEST PUSH2 0x108E JUMP JUMPDEST PUSH2 0x2B0 PUSH2 0x10A4 JUMP JUMPDEST PUSH2 0x23F PUSH2 0x580 CALLDATASIZE PUSH1 0x4 PUSH2 0x1ADA JUMP JUMPDEST PUSH2 0x11B2 JUMP JUMPDEST PUSH2 0x28F PUSH1 0xB SLOAD DUP2 JUMP JUMPDEST PUSH2 0x28F PUSH2 0x59C CALLDATASIZE PUSH1 0x4 PUSH2 0x1ADA JUMP JUMPDEST PUSH2 0x1260 JUMP JUMPDEST PUSH2 0x2B0 PUSH2 0x5AF CALLDATASIZE PUSH1 0x4 PUSH2 0x1A1D JUMP JUMPDEST PUSH2 0x1291 JUMP JUMPDEST PUSH2 0x28F PUSH2 0x5C2 CALLDATASIZE PUSH1 0x4 PUSH2 0x1ADA JUMP JUMPDEST PUSH2 0x136F JUMP JUMPDEST PUSH2 0x2B0 PUSH2 0x5D5 CALLDATASIZE PUSH1 0x4 PUSH2 0x1A1D JUMP JUMPDEST PUSH2 0x13DC JUMP JUMPDEST PUSH2 0x28F PUSH2 0x5E8 CALLDATASIZE PUSH1 0x4 PUSH2 0x1987 JUMP JUMPDEST PUSH1 0x1 PUSH1 0x1 PUSH1 0xA0 SHL SUB SWAP2 DUP3 AND PUSH1 0x0 SWAP1 DUP2 MSTORE PUSH1 0x7 PUSH1 0x20 SWAP1 DUP2 MSTORE PUSH1 0x40 DUP1 DUP4 KECCAK256 SWAP4 SWAP1 SWAP5 AND DUP3 MSTORE SWAP2 SWAP1 SWAP2 MSTORE KECCAK256 SLOAD SWAP1 JUMP JUMPDEST PUSH2 0x2E6 PUSH2 0x621 CALLDATASIZE PUSH1 0x4 PUSH2 0x1ADA JUMP JUMPDEST PUSH1 0x0 SWAP2 DUP3 MSTORE PUSH1 0x1 PUSH1 0x20 SWAP1 DUP2 MSTORE PUSH1 0x40 DUP1 DUP5 KECCAK256 SWAP3 DUP5 MSTORE SWAP2 SWAP1 MSTORE SWAP1 KECCAK256 SLOAD PUSH1 0x1 PUSH1 0x1 PUSH1 0xA0 SHL SUB AND SWAP1 JUMP JUMPDEST PUSH2 0x28F PUSH2 0x655 CALLDATASIZE PUSH1 0x4 PUSH2 0x1ADA JUMP JUMPDEST PUSH2 0x13F0 JUMP JUMPDEST PUSH1 0xC SLOAD PUSH2 0x2E6 SWAP1 PUSH1 0x1 PUSH1 0x1 PUSH1 0xA0 SHL SUB AND DUP2 JUMP JUMPDEST PUSH1 0x60 PUSH1 0xE DUP1 SLOAD PUSH2 0x67C SWAP1 PUSH2 0x1CAB JUMP JUMPDEST DUP1 PUSH1 0x1F ADD PUSH1 0x20 DUP1 SWAP2 DIV MUL PUSH1 0x20 ADD PUSH1 0x40 MLOAD SWAP1 DUP2 ADD PUSH1 0x40 MSTORE DUP1 SWAP3 SWAP2 SWAP1 DUP2 DUP2 MSTORE PUSH1 0x20 ADD DUP3 DUP1 SLOAD PUSH2 0x6A8 SWAP1 PUSH2 0x1CAB JUMP JUMPDEST DUP1 ISZERO PUSH2 0x6F5 JUMPI DUP1 PUSH1 0x1F LT PUSH2 0x6CA JUMPI PUSH2 0x100 DUP1 DUP4 SLOAD DIV MUL DUP4 MSTORE SWAP2 PUSH1 0x20 ADD SWAP2 PUSH2 0x6F5 JUMP JUMPDEST DUP3 ADD SWAP2 SWAP1 PUSH1 0x0 MSTORE PUSH1 0x20 PUSH1 0x0 KECCAK256 SWAP1 JUMPDEST DUP2 SLOAD DUP2 MSTORE SWAP1 PUSH1 0x1 ADD SWAP1 PUSH1 0x20 ADD DUP1 DUP4 GT PUSH2 0x6D8 JUMPI DUP3 SWAP1 SUB PUSH1 0x1F AND DUP3 ADD SWAP2 JUMPDEST POP POP POP POP POP SWAP1 POP SWAP1 JUMP JUMPDEST PUSH1 0x5 PUSH1 0x20 SWAP1 DUP2 MSTORE PUSH1 0x0 SWAP3 DUP4 MSTORE PUSH1 0x40 DUP1 DUP5 KECCAK256 SWAP1 SWAP2 MSTORE SWAP1 DUP3 MSTORE SWAP1 KECCAK256 DUP1 SLOAD PUSH2 0x723 SWAP1 PUSH2 0x1CAB JUMP JUMPDEST DUP1 PUSH1 0x1F ADD PUSH1 0x20 DUP1 SWAP2 DIV MUL PUSH1 0x20 ADD PUSH1 0x40 MLOAD SWAP1 DUP2 ADD PUSH1 0x40 MSTORE DUP1 SWAP3 SWAP2 SWAP1 DUP2 DUP2 MSTORE PUSH1 0x20 ADD DUP3 DUP1 SLOAD PUSH2 0x74F SWAP1 PUSH2 0x1CAB JUMP JUMPDEST DUP1 ISZERO PUSH2 0x79C JUMPI DUP1 PUSH1 0x1F LT PUSH2 0x771 JUMPI PUSH2 0x100 DUP1 DUP4 SLOAD DIV MUL DUP4 MSTORE SWAP2 PUSH1 0x20 ADD SWAP2 PUSH2 0x79C JUMP JUMPDEST DUP3 ADD SWAP2 SWAP1 PUSH1 0x0 MSTORE PUSH1 0x20 PUSH1 0x0 KECCAK256 SWAP1 JUMPDEST DUP2 SLOAD DUP2 MSTORE SWAP1 PUSH1 0x1 ADD SWAP1 PUSH1 0x20 ADD DUP1 DUP4 GT PUSH2 0x77F JUMPI DUP3 SWAP1 SUB PUSH1 0x1F AND DUP3 ADD SWAP2 JUMPDEST POP POP POP POP POP DUP2 JUMP JUMPDEST PUSH1 0x0 PUSH2 0x7B1 CALLER DUP5 DUP5 PUSH2 0x140C JUMP JUMPDEST POP PUSH1 0x1 JUMPDEST SWAP3 SWAP2 POP POP JUMP JUMPDEST PUSH1 0x40 DUP1 MLOAD PUSH1 0x20 DUP1 DUP3 ADD DUP1 DUP5 MSTORE PUSH1 0x0 DUP1 DUP5 MSTORE DUP7 DUP2 MSTORE PUSH1 0x5 DUP4 MSTORE DUP5 DUP2 KECCAK256 DUP7 DUP3 MSTORE SWAP1 SWAP3 MSTORE SWAP3 SWAP1 KECCAK256 SWAP1 MLOAD PUSH2 0x7EB SWAP3 SWAP1 PUSH2 0x17BB JUMP JUMPDEST POP PUSH1 0x0 DUP3 DUP2 MSTORE PUSH1 0x20 DUP2 DUP2 MSTORE PUSH1 0x40 DUP1 DUP4 KECCAK256 DUP5 DUP5 MSTORE SWAP1 SWAP2 MSTORE DUP2 KECCAK256 DUP1 SLOAD PUSH1 0xFF NOT AND PUSH1 0x1 OR SWAP1 SSTORE PUSH1 0xB DUP1 SLOAD SWAP2 PUSH2 0x81C DUP4 PUSH2 0x1CE6 JUMP JUMPDEST SWAP2 SWAP1 POP SSTORE POP PUSH1 0x6 PUSH1 0x0 DUP4 DUP4 PUSH1 0x40 MLOAD PUSH1 0x20 ADD PUSH2 0x841 SWAP3 SWAP2 SWAP1 SWAP2 DUP3 MSTORE PUSH1 0x20 DUP3 ADD MSTORE PUSH1 0x40 ADD SWAP1 JUMP JUMPDEST PUSH1 0x40 DUP1 MLOAD PUSH1 0x1F NOT DUP2 DUP5 SUB ADD DUP2 MSTORE SWAP2 DUP2 MSTORE DUP2 MLOAD PUSH1 0x20 SWAP3 DUP4 ADD KECCAK256 DUP4 MSTORE DUP3 DUP3 ADD SWAP4 SWAP1 SWAP4 MSTORE SWAP2 ADD PUSH1 0x0 SWAP1 DUP2 KECCAK256 PUSH1 0xB SLOAD DUP2 SLOAD PUSH1 0x1 DUP2 ADD DUP4 SSTORE SWAP2 DUP4 MSTORE SWAP3 SWAP1 SWAP2 KECCAK256 ADD SSTORE POP POP JUMP JUMPDEST PUSH1 0x0 PUSH2 0x88E DUP5 DUP5 DUP5 PUSH2 0x1531 JUMP JUMPDEST PUSH1 0x1 PUSH1 0x1 PUSH1 0xA0 SHL SUB DUP5 AND PUSH1 0x0 SWAP1 DUP2 MSTORE PUSH1 0x7 PUSH1 0x20 SWAP1 DUP2 MSTORE PUSH1 0x40 DUP1 DUP4 KECCAK256 CALLER DUP1 DUP6 MSTORE SWAP3 MSTORE SWAP1 SWAP2 KECCAK256 SLOAD PUSH2 0x8C9 SWAP2 DUP7 SWAP2 PUSH2 0x8C4 SWAP1 DUP7 SWAP1 PUSH2 0x1C7D JUMP JUMPDEST PUSH2 0x140C JUMP JUMPDEST POP PUSH1 0x1 SWAP4 SWAP3 POP POP POP JUMP JUMPDEST PUSH1 0x0 DUP2 DUP2 MSTORE PUSH1 0x6 PUSH1 0x20 SWAP1 DUP2 MSTORE PUSH1 0x40 SWAP2 DUP3 SWAP1 KECCAK256 DUP1 SLOAD DUP4 MLOAD DUP2 DUP5 MUL DUP2 ADD DUP5 ADD SWAP1 SWAP5 MSTORE DUP1 DUP5 MSTORE PUSH1 0x60 SWAP4 SWAP3 DUP4 ADD DUP3 DUP3 DUP1 ISZERO PUSH2 0x929 JUMPI PUSH1 0x20 MUL DUP3 ADD SWAP2 SWAP1 PUSH1 0x0 MSTORE PUSH1 0x20 PUSH1 0x0 KECCAK256 SWAP1 JUMPDEST DUP2 SLOAD DUP2 MSTORE PUSH1 0x20 ADD SWAP1 PUSH1 0x1 ADD SWAP1 DUP1 DUP4 GT PUSH2 0x915 JUMPI JUMPDEST POP POP POP POP POP SWAP1 POP JUMPDEST SWAP2 SWAP1 POP JUMP JUMPDEST PUSH1 0x0 DUP3 DUP2 MSTORE PUSH1 0x3 PUSH1 0x20 MSTORE PUSH1 0x40 DUP2 KECCAK256 SLOAD DUP2 SWAP1 DUP1 ISZERO PUSH2 0xC50 JUMPI PUSH1 0x0 DUP1 DUP1 PUSH2 0x95C PUSH1 0x1 DUP6 PUSH2 0x1C7D JUMP JUMPDEST SWAP1 POP PUSH1 0x0 PUSH2 0x96A DUP10 DUP5 PUSH2 0x136F JUMP JUMPDEST SWAP1 POP DUP8 DUP2 LT PUSH2 0x984 JUMPI PUSH1 0x0 DUP1 SWAP7 POP SWAP7 POP POP POP POP POP POP PUSH2 0xC59 JUMP JUMPDEST PUSH2 0x98E DUP10 DUP4 PUSH2 0x136F JUMP JUMPDEST SWAP1 POP DUP8 DUP2 LT ISZERO PUSH2 0xA2E JUMPI JUMPDEST PUSH1 0x0 DUP10 DUP2 MSTORE PUSH1 0x20 DUP2 DUP2 MSTORE PUSH1 0x40 DUP1 DUP4 KECCAK256 DUP5 DUP5 MSTORE SWAP1 SWAP2 MSTORE SWAP1 KECCAK256 SLOAD PUSH1 0xFF AND DUP1 ISZERO PUSH2 0x9C0 JUMPI POP PUSH1 0x0 DUP3 GT JUMPDEST ISZERO PUSH2 0x9E3 JUMPI DUP2 PUSH2 0x9CF DUP2 PUSH2 0x1C94 JUMP JUMPDEST SWAP3 POP POP PUSH2 0x9DC DUP10 DUP4 PUSH2 0x136F JUMP JUMPDEST SWAP1 POP PUSH2 0x999 JUMP JUMPDEST DUP2 ISZERO DUP1 ISZERO PUSH2 0xA08 JUMPI POP PUSH1 0x0 DUP10 DUP2 MSTORE PUSH1 0x20 DUP2 DUP2 MSTORE PUSH1 0x40 DUP1 DUP4 KECCAK256 DUP5 DUP5 MSTORE SWAP1 SWAP2 MSTORE SWAP1 KECCAK256 SLOAD PUSH1 0xFF AND JUMPDEST ISZERO PUSH2 0xA1E JUMPI PUSH1 0x0 DUP1 SWAP7 POP SWAP7 POP POP POP POP POP POP PUSH2 0xC59 JUMP JUMPDEST POP PUSH1 0x1 SWAP6 POP SWAP4 POP PUSH2 0xC59 SWAP3 POP POP POP JUMP JUMPDEST DUP3 PUSH1 0x2 PUSH2 0xA3B DUP3 DUP6 PUSH2 0x1C7D JUMP JUMPDEST PUSH2 0xA45 SWAP2 SWAP1 PUSH2 0x1C5D JUMP JUMPDEST PUSH2 0xA50 SWAP1 PUSH1 0x1 PUSH2 0x1C45 JUMP JUMPDEST PUSH2 0xA5A SWAP2 SWAP1 PUSH2 0x1C45 JUMP JUMPDEST SWAP4 POP PUSH2 0xA66 DUP10 DUP6 PUSH2 0x136F JUMP JUMPDEST SWAP1 POP DUP8 DUP2 LT ISZERO PUSH2 0xB66 JUMPI PUSH1 0x0 PUSH2 0xA81 DUP11 PUSH2 0x5C2 DUP8 PUSH1 0x1 PUSH2 0x1C45 JUMP JUMPDEST SWAP1 POP DUP9 DUP2 LT PUSH2 0xB53 JUMPI PUSH1 0x0 DUP11 DUP2 MSTORE PUSH1 0x20 DUP2 DUP2 MSTORE PUSH1 0x40 DUP1 DUP4 KECCAK256 DUP6 DUP5 MSTORE SWAP1 SWAP2 MSTORE SWAP1 KECCAK256 SLOAD PUSH1 0xFF AND PUSH2 0xABB JUMPI PUSH1 0x1 DUP6 SWAP8 POP SWAP8 POP POP POP POP POP POP POP PUSH2 0xC59 JUMP JUMPDEST PUSH1 0x0 DUP11 DUP2 MSTORE PUSH1 0x20 DUP2 DUP2 MSTORE PUSH1 0x40 DUP1 DUP4 KECCAK256 DUP6 DUP5 MSTORE SWAP1 SWAP2 MSTORE SWAP1 KECCAK256 SLOAD PUSH1 0xFF AND DUP1 ISZERO PUSH2 0xAE2 JUMPI POP PUSH1 0x0 DUP6 GT JUMPDEST ISZERO PUSH2 0xB05 JUMPI DUP5 PUSH2 0xAF1 DUP2 PUSH2 0x1C94 JUMP JUMPDEST SWAP6 POP POP PUSH2 0xAFE DUP11 DUP7 PUSH2 0x136F JUMP JUMPDEST SWAP2 POP PUSH2 0xABB JUMP JUMPDEST DUP5 ISZERO DUP1 ISZERO PUSH2 0xB2A JUMPI POP PUSH1 0x0 DUP11 DUP2 MSTORE PUSH1 0x20 DUP2 DUP2 MSTORE PUSH1 0x40 DUP1 DUP4 KECCAK256 DUP6 DUP5 MSTORE SWAP1 SWAP2 MSTORE SWAP1 KECCAK256 SLOAD PUSH1 0xFF AND JUMPDEST ISZERO PUSH2 0xB41 JUMPI PUSH1 0x0 DUP1 SWAP8 POP SWAP8 POP POP POP POP POP POP POP PUSH2 0xC59 JUMP JUMPDEST PUSH1 0x1 DUP6 SWAP8 POP SWAP8 POP POP POP POP POP POP POP PUSH2 0xC59 JUMP JUMPDEST PUSH2 0xB5E DUP6 PUSH1 0x1 PUSH2 0x1C45 JUMP JUMPDEST SWAP4 POP POP PUSH2 0xC4B JUMP JUMPDEST PUSH1 0x0 PUSH2 0xB77 DUP11 PUSH2 0x5C2 PUSH1 0x1 DUP9 PUSH2 0x1C7D JUMP JUMPDEST SWAP1 POP DUP9 DUP2 LT ISZERO PUSH2 0xC3C JUMPI PUSH1 0x0 DUP11 DUP2 MSTORE PUSH1 0x20 DUP2 DUP2 MSTORE PUSH1 0x40 DUP1 DUP4 KECCAK256 DUP5 DUP5 MSTORE SWAP1 SWAP2 MSTORE SWAP1 KECCAK256 SLOAD PUSH1 0xFF AND PUSH2 0xBBB JUMPI PUSH1 0x1 PUSH2 0xBAC DUP2 DUP8 PUSH2 0x1C7D JUMP JUMPDEST SWAP8 POP SWAP8 POP POP POP POP POP POP POP PUSH2 0xC59 JUMP JUMPDEST DUP5 PUSH2 0xBC5 DUP2 PUSH2 0x1C94 JUMP JUMPDEST SWAP6 POP POP JUMPDEST PUSH1 0x0 DUP11 DUP2 MSTORE PUSH1 0x20 DUP2 DUP2 MSTORE PUSH1 0x40 DUP1 DUP4 KECCAK256 DUP5 DUP5 MSTORE SWAP1 SWAP2 MSTORE SWAP1 KECCAK256 SLOAD PUSH1 0xFF AND DUP1 ISZERO PUSH2 0xBF0 JUMPI POP PUSH1 0x0 DUP6 GT JUMPDEST ISZERO PUSH2 0xC13 JUMPI DUP5 PUSH2 0xBFF DUP2 PUSH2 0x1C94 JUMP JUMPDEST SWAP6 POP POP PUSH2 0xC0C DUP11 DUP7 PUSH2 0x136F JUMP JUMPDEST SWAP1 POP PUSH2 0xBC9 JUMP JUMPDEST DUP5 ISZERO DUP1 ISZERO PUSH2 0xB2A JUMPI POP PUSH1 0x0 DUP11 DUP2 MSTORE PUSH1 0x20 DUP2 DUP2 MSTORE PUSH1 0x40 DUP1 DUP4 KECCAK256 DUP5 DUP5 MSTORE SWAP1 SWAP2 MSTORE SWAP1 KECCAK256 SLOAD PUSH1 0xFF AND PUSH2 0xB2A JUMP JUMPDEST PUSH2 0xC47 PUSH1 0x1 DUP7 PUSH2 0x1C7D JUMP JUMPDEST SWAP3 POP POP JUMPDEST PUSH2 0xA2E JUMP JUMPDEST PUSH1 0x0 DUP1 SWAP3 POP SWAP3 POP POP JUMPDEST SWAP3 POP SWAP3 SWAP1 POP JUMP JUMPDEST PUSH32 0xC5D2460186F7233C927E7DB2DCC703C0E500B653CA82273B7BFAD8045D85A470 DUP5 DUP5 PUSH1 0x40 MLOAD PUSH2 0xC91 SWAP3 SWAP2 SWAP1 PUSH2 0x1B46 JUMP JUMPDEST PUSH1 0x40 MLOAD DUP1 SWAP2 SUB SWAP1 KECCAK256 EQ ISZERO PUSH2 0xCEC JUMPI PUSH1 0x40 MLOAD PUSH3 0x461BCD PUSH1 0xE5 SHL DUP2 MSTORE PUSH1 0x20 PUSH1 0x4 DUP3 ADD MSTORE PUSH1 0x17 PUSH1 0x24 DUP3 ADD MSTORE PUSH32 0x76616C7565206D757374206265207375626D6974746564000000000000000000 PUSH1 0x44 DUP3 ADD MSTORE PUSH1 0x64 ADD JUMPDEST PUSH1 0x40 MLOAD DUP1 SWAP2 SUB SWAP1 REVERT JUMPDEST PUSH1 0x0 DUP6 DUP2 MSTORE PUSH1 0x3 PUSH1 0x20 MSTORE PUSH1 0x40 SWAP1 KECCAK256 SLOAD DUP3 EQ DUP1 PUSH2 0xD06 JUMPI POP DUP2 ISZERO JUMPDEST PUSH2 0xD52 JUMPI PUSH1 0x40 MLOAD PUSH3 0x461BCD PUSH1 0xE5 SHL DUP2 MSTORE PUSH1 0x20 PUSH1 0x4 DUP3 ADD DUP2 SWAP1 MSTORE PUSH1 0x24 DUP3 ADD MSTORE PUSH32 0x6E6F6E6365206D757374206D617463682074696D657374616D7020696E646578 PUSH1 0x44 DUP3 ADD MSTORE PUSH1 0x64 ADD PUSH2 0xCE3 JUMP JUMPDEST DUP1 MLOAD PUSH1 0x20 DUP3 ADD KECCAK256 DUP6 EQ DUP1 PUSH2 0xD67 JUMPI POP PUSH1 0x64 DUP6 GT ISZERO JUMPDEST PUSH2 0xDB3 JUMPI PUSH1 0x40 MLOAD PUSH3 0x461BCD PUSH1 0xE5 SHL DUP2 MSTORE PUSH1 0x20 PUSH1 0x4 DUP3 ADD MSTORE PUSH1 0x1D PUSH1 0x24 DUP3 ADD MSTORE PUSH32 0x6964206D7573742062652068617368206F662062797465732064617461000000 PUSH1 0x44 DUP3 ADD MSTORE PUSH1 0x64 ADD PUSH2 0xCE3 JUMP JUMPDEST PUSH1 0x0 DUP6 DUP2 MSTORE PUSH1 0x5 PUSH1 0x20 SWAP1 DUP2 MSTORE PUSH1 0x40 DUP1 DUP4 KECCAK256 TIMESTAMP DUP5 MSTORE SWAP1 SWAP2 MSTORE SWAP1 KECCAK256 PUSH2 0xDD7 SWAP1 DUP6 DUP6 PUSH2 0x183F JUMP JUMPDEST POP PUSH1 0x0 DUP6 DUP2 MSTORE PUSH1 0x3 PUSH1 0x20 DUP2 DUP2 MSTORE PUSH1 0x40 DUP1 DUP5 KECCAK256 DUP1 SLOAD PUSH1 0x1 DUP2 DUP2 ADD DUP4 SSTORE SWAP2 DUP7 MSTORE DUP4 DUP7 KECCAK256 TIMESTAMP SWAP2 ADD DUP2 SWAP1 SSTORE DUP11 DUP7 MSTORE SWAP1 DUP4 MSTORE DUP2 DUP6 KECCAK256 DUP2 DUP7 MSTORE DUP4 MSTORE DUP2 DUP6 KECCAK256 DUP1 SLOAD PUSH20 0xFFFFFFFFFFFFFFFFFFFFFFFFFFFFFFFFFFFFFFFF NOT AND CALLER SWAP1 DUP2 OR SWAP1 SWAP2 SSTORE DUP6 MSTORE PUSH1 0x2 SWAP1 SWAP3 MSTORE DUP4 KECCAK256 SWAP2 DUP3 ADD SSTORE PUSH1 0x4 ADD DUP1 SLOAD SWAP2 PUSH2 0xE4B DUP4 PUSH2 0x1CE6 JUMP JUMPDEST SWAP2 SWAP1 POP SSTORE POP PUSH32 0x48E9E2C732BA278DE6AC88A3A57A5C5BA13D3D8370E709B3B98333A57876CA95 DUP6 TIMESTAMP DUP7 DUP7 DUP7 DUP7 CALLER PUSH1 0x40 MLOAD PUSH2 0xE8B SWAP8 SWAP7 SWAP6 SWAP5 SWAP4 SWAP3 SWAP2 SWAP1 PUSH2 0x1BC5 JUMP JUMPDEST PUSH1 0x40 MLOAD DUP1 SWAP2 SUB SWAP1 LOG1 POP POP POP POP POP JUMP JUMPDEST CALLER PUSH1 0x0 SWAP1 DUP2 MSTORE PUSH1 0x2 PUSH1 0x20 MSTORE PUSH1 0x40 SWAP1 KECCAK256 PUSH1 0x1 DUP2 ADD SLOAD DUP3 GT ISZERO PUSH2 0xEFD JUMPI PUSH1 0x40 MLOAD PUSH3 0x461BCD PUSH1 0xE5 SHL DUP2 MSTORE PUSH1 0x20 PUSH1 0x4 DUP3 ADD MSTORE PUSH1 0x1B PUSH1 0x24 DUP3 ADD MSTORE PUSH32 0x696E73756666696369656E74207374616B65642062616C616E63650000000000 PUSH1 0x44 DUP3 ADD MSTORE PUSH1 0x64 ADD PUSH2 0xCE3 JUMP JUMPDEST TIMESTAMP DUP2 SSTORE PUSH1 0x2 DUP2 ADD DUP1 SLOAD DUP4 SWAP2 SWAP1 PUSH1 0x0 SWAP1 PUSH2 0xF17 SWAP1 DUP5 SWAP1 PUSH2 0x1C45 JUMP JUMPDEST SWAP3 POP POP DUP2 SWAP1 SSTORE POP DUP2 DUP2 PUSH1 0x1 ADD PUSH1 0x0 DUP3 DUP3 SLOAD PUSH2 0xF32 SWAP2 SWAP1 PUSH2 0x1C7D JUMP JUMPDEST SWAP1 SWAP2 SSTORE POP POP PUSH1 0x40 DUP1 MLOAD CALLER DUP2 MSTORE PUSH1 0x20 DUP2 ADD DUP5 SWAP1 MSTORE PUSH32 0x3D8D9DF4BD0172DF32E557FA48E96435CD7F2CAC06AAFFACFAEE608E6F7898EF SWAP2 ADD JUMPDEST PUSH1 0x40 MLOAD DUP1 SWAP2 SUB SWAP1 LOG1 POP POP JUMP JUMPDEST PUSH1 0x60 PUSH1 0xF DUP1 SLOAD PUSH2 0x67C SWAP1 PUSH2 0x1CAB JUMP JUMPDEST PUSH1 0x0 PUSH1 0x60 PUSH1 0x0 DUP1 PUSH1 0x0 PUSH2 0xF97 DUP8 DUP8 PUSH2 0x936 JUMP JUMPDEST SWAP2 POP SWAP2 POP DUP2 PUSH2 0xFC1 JUMPI PUSH1 0x0 PUSH1 0x40 MLOAD DUP1 PUSH1 0x20 ADD PUSH1 0x40 MSTORE DUP1 PUSH1 0x0 DUP2 MSTORE POP PUSH1 0x0 SWAP5 POP SWAP5 POP SWAP5 POP POP POP PUSH2 0x107A JUMP JUMPDEST PUSH2 0xFCB DUP8 DUP3 PUSH2 0x136F JUMP JUMPDEST PUSH1 0x0 DUP9 DUP2 MSTORE PUSH1 0x5 PUSH1 0x20 SWAP1 DUP2 MSTORE PUSH1 0x40 DUP1 DUP4 KECCAK256 DUP5 DUP5 MSTORE SWAP1 SWAP2 MSTORE SWAP1 KECCAK256 DUP1 SLOAD SWAP2 SWAP5 POP SWAP1 PUSH2 0xFF3 SWAP1 PUSH2 0x1CAB JUMP JUMPDEST DUP1 PUSH1 0x1F ADD PUSH1 0x20 DUP1 SWAP2 DIV MUL PUSH1 0x20 ADD PUSH1 0x40 MLOAD SWAP1 DUP2 ADD PUSH1 0x40 MSTORE DUP1 SWAP3 SWAP2 SWAP1 DUP2 DUP2 MSTORE PUSH1 0x20 ADD DUP3 DUP1 SLOAD PUSH2 0x101F SWAP1 PUSH2 0x1CAB JUMP JUMPDEST DUP1 ISZERO PUSH2 0x106C JUMPI DUP1 PUSH1 0x1F LT PUSH2 0x1041 JUMPI PUSH2 0x100 DUP1 DUP4 SLOAD DIV MUL DUP4 MSTORE SWAP2 PUSH1 0x20 ADD SWAP2 PUSH2 0x106C JUMP JUMPDEST DUP3 ADD SWAP2 SWAP1 PUSH1 0x0 MSTORE PUSH1 0x20 PUSH1 0x0 KECCAK256 SWAP1 JUMPDEST DUP2 SLOAD DUP2 MSTORE SWAP1 PUSH1 0x1 ADD SWAP1 PUSH1 0x20 ADD DUP1 DUP4 GT PUSH2 0x104F JUMPI DUP3 SWAP1 SUB PUSH1 0x1F AND DUP3 ADD SWAP2 JUMPDEST POP POP POP POP POP SWAP4 POP PUSH1 0x1 SWAP5 POP POP POP JUMPDEST SWAP3 POP SWAP3 POP SWAP3 JUMP JUMPDEST PUSH1 0x0 PUSH2 0x7B1 CALLER DUP5 DUP5 PUSH2 0x1531 JUMP JUMPDEST PUSH2 0x10A1 DUP2 PUSH9 0x3635C9ADC5DEA00000 PUSH2 0x1698 JUMP JUMPDEST POP JUMP JUMPDEST CALLER PUSH1 0x0 SWAP1 DUP2 MSTORE PUSH1 0x2 PUSH1 0x20 MSTORE PUSH1 0x40 SWAP1 KECCAK256 DUP1 SLOAD PUSH3 0x93A80 SWAP1 PUSH2 0x10C4 SWAP1 TIMESTAMP PUSH2 0x1C7D JUMP JUMPDEST LT ISZERO PUSH2 0x1107 JUMPI PUSH1 0x40 MLOAD PUSH3 0x461BCD PUSH1 0xE5 SHL DUP2 MSTORE PUSH1 0x20 PUSH1 0x4 DUP3 ADD MSTORE PUSH1 0x12 PUSH1 0x24 DUP3 ADD MSTORE PUSH18 0x372064617973206469646E27742070617373 PUSH1 0x70 SHL PUSH1 0x44 DUP3 ADD MSTORE PUSH1 0x64 ADD PUSH2 0xCE3 JUMP JUMPDEST PUSH1 0x0 DUP2 PUSH1 0x2 ADD SLOAD GT PUSH2 0x1166 JUMPI PUSH1 0x40 MLOAD PUSH3 0x461BCD PUSH1 0xE5 SHL DUP2 MSTORE PUSH1 0x20 PUSH1 0x4 DUP3 ADD MSTORE PUSH1 0x22 PUSH1 0x24 DUP3 ADD MSTORE PUSH32 0x7265706F72746572206E6F74206C6F636B656420666F72207769746864726177 PUSH1 0x44 DUP3 ADD MSTORE PUSH2 0x185B PUSH1 0xF2 SHL PUSH1 0x64 DUP3 ADD MSTORE PUSH1 0x84 ADD PUSH2 0xCE3 JUMP JUMPDEST PUSH2 0x1175 ADDRESS CALLER DUP4 PUSH1 0x2 ADD SLOAD PUSH2 0x1531 JUMP JUMPDEST PUSH1 0x0 PUSH1 0x2 DUP3 ADD SSTORE PUSH1 0x40 MLOAD CALLER DUP2 MSTORE PUSH32 0x4A7934670BD8304E7DA22378BE1368F7C4FEF17C5AEE81804BEDA8638FE428EC SWAP1 PUSH1 0x20 ADD PUSH1 0x40 MLOAD DUP1 SWAP2 SUB SWAP1 LOG1 POP JUMP JUMPDEST PUSH1 0x0 DUP3 DUP2 MSTORE PUSH1 0x5 PUSH1 0x20 SWAP1 DUP2 MSTORE PUSH1 0x40 DUP1 DUP4 KECCAK256 DUP5 DUP5 MSTORE SWAP1 SWAP2 MSTORE SWAP1 KECCAK256 DUP1 SLOAD PUSH1 0x60 SWAP2 SWAP1 PUSH2 0x11DA SWAP1 PUSH2 0x1CAB JUMP JUMPDEST DUP1 PUSH1 0x1F ADD PUSH1 0x20 DUP1 SWAP2 DIV MUL PUSH1 0x20 ADD PUSH1 0x40 MLOAD SWAP1 DUP2 ADD PUSH1 0x40 MSTORE DUP1 SWAP3 SWAP2 SWAP1 DUP2 DUP2 MSTORE PUSH1 0x20 ADD DUP3 DUP1 SLOAD PUSH2 0x1206 SWAP1 PUSH2 0x1CAB JUMP JUMPDEST DUP1 ISZERO PUSH2 0x1253 JUMPI DUP1 PUSH1 0x1F LT PUSH2 0x1228 JUMPI PUSH2 0x100 DUP1 DUP4 SLOAD DIV MUL DUP4 MSTORE SWAP2 PUSH1 0x20 ADD SWAP2 PUSH2 0x1253 JUMP JUMPDEST DUP3 ADD SWAP2 SWAP1 PUSH1 0x0 MSTORE PUSH1 0x20 PUSH1 0x0 KECCAK256 SWAP1 JUMPDEST DUP2 SLOAD DUP2 MSTORE SWAP1 PUSH1 0x1 ADD SWAP1 PUSH1 0x20 ADD DUP1 DUP4 GT PUSH2 0x1236 JUMPI DUP3 SWAP1 SUB PUSH1 0x1F AND DUP3 ADD SWAP2 JUMPDEST POP POP POP POP POP SWAP1 POP SWAP3 SWAP2 POP POP JUMP JUMPDEST PUSH1 0x6 PUSH1 0x20 MSTORE DUP2 PUSH1 0x0 MSTORE PUSH1 0x40 PUSH1 0x0 KECCAK256 DUP2 DUP2 SLOAD DUP2 LT PUSH2 0x127C JUMPI PUSH1 0x0 DUP1 REVERT JUMPDEST SWAP1 PUSH1 0x0 MSTORE PUSH1 0x20 PUSH1 0x0 KECCAK256 ADD PUSH1 0x0 SWAP2 POP SWAP2 POP POP SLOAD DUP2 JUMP JUMPDEST CALLER PUSH1 0x0 SWAP1 DUP2 MSTORE PUSH1 0x2 PUSH1 0x20 DUP2 SWAP1 MSTORE PUSH1 0x40 SWAP1 SWAP2 KECCAK256 SWAP1 DUP2 ADD SLOAD ISZERO PUSH2 0x1306 JUMPI DUP2 DUP2 PUSH1 0x2 ADD SLOAD LT PUSH2 0x12D6 JUMPI DUP2 DUP2 PUSH1 0x2 ADD PUSH1 0x0 DUP3 DUP3 SLOAD PUSH2 0x12CB SWAP2 SWAP1 PUSH2 0x1C7D JUMP JUMPDEST SWAP1 SWAP2 SSTORE POP PUSH2 0x1301 SWAP1 POP JUMP JUMPDEST PUSH2 0x12F0 CALLER ADDRESS DUP4 PUSH1 0x2 ADD SLOAD DUP6 PUSH2 0x12EB SWAP2 SWAP1 PUSH2 0x1C7D JUMP JUMPDEST PUSH2 0x1777 JUMP JUMPDEST PUSH2 0x12F9 JUMPI PUSH1 0x0 DUP1 REVERT JUMPDEST PUSH1 0x0 PUSH1 0x2 DUP3 ADD SSTORE JUMPDEST PUSH2 0x131A JUMP JUMPDEST PUSH2 0x1311 CALLER ADDRESS DUP5 PUSH2 0x1777 JUMP JUMPDEST PUSH2 0x131A JUMPI PUSH1 0x0 DUP1 REVERT JUMPDEST TIMESTAMP DUP2 SSTORE PUSH1 0x1 DUP2 ADD DUP1 SLOAD DUP4 SWAP2 SWAP1 PUSH1 0x0 SWAP1 PUSH2 0x1334 SWAP1 DUP5 SWAP1 PUSH2 0x1C45 JUMP JUMPDEST SWAP1 SWAP2 SSTORE POP POP PUSH1 0x40 DUP1 MLOAD CALLER DUP2 MSTORE PUSH1 0x20 DUP2 ADD DUP5 SWAP1 MSTORE PUSH32 0xA96C2CCE65119A2170D1711A6E82F18F2006448828483BA7545E595476543647 SWAP2 ADD PUSH2 0xF69 JUMP JUMPDEST PUSH1 0x0 DUP3 DUP2 MSTORE PUSH1 0x3 PUSH1 0x20 MSTORE PUSH1 0x40 DUP2 KECCAK256 SLOAD DUP1 ISZERO DUP1 PUSH2 0x138B JUMPI POP DUP3 DUP2 GT ISZERO JUMPDEST ISZERO PUSH2 0x139A JUMPI PUSH1 0x0 SWAP2 POP POP PUSH2 0x7B5 JUMP JUMPDEST PUSH1 0x0 DUP5 DUP2 MSTORE PUSH1 0x3 PUSH1 0x20 MSTORE PUSH1 0x40 SWAP1 KECCAK256 DUP1 SLOAD DUP5 SWAP1 DUP2 LT PUSH2 0x13C8 JUMPI PUSH4 0x4E487B71 PUSH1 0xE0 SHL PUSH1 0x0 MSTORE PUSH1 0x32 PUSH1 0x4 MSTORE PUSH1 0x24 PUSH1 0x0 REVERT JUMPDEST SWAP1 PUSH1 0x0 MSTORE PUSH1 0x20 PUSH1 0x0 KECCAK256 ADD SLOAD SWAP2 POP POP SWAP3 SWAP2 POP POP JUMP JUMPDEST PUSH2 0x13E7 CALLER ADDRESS DUP4 PUSH2 0x1777 JUMP JUMPDEST PUSH2 0x10A1 JUMPI PUSH1 0x0 DUP1 REVERT JUMPDEST PUSH1 0x3 PUSH1 0x20 MSTORE DUP2 PUSH1 0x0 MSTORE PUSH1 0x40 PUSH1 0x0 KECCAK256 DUP2 DUP2 SLOAD DUP2 LT PUSH2 0x127C JUMPI PUSH1 0x0 DUP1 REVERT JUMPDEST PUSH1 0x1 PUSH1 0x1 PUSH1 0xA0 SHL SUB DUP4 AND PUSH2 0x146E JUMPI PUSH1 0x40 MLOAD PUSH3 0x461BCD PUSH1 0xE5 SHL DUP2 MSTORE PUSH1 0x20 PUSH1 0x4 DUP3 ADD MSTORE PUSH1 0x24 DUP1 DUP3 ADD MSTORE PUSH32 0x45524332303A20617070726F76652066726F6D20746865207A65726F20616464 PUSH1 0x44 DUP3 ADD MSTORE PUSH4 0x72657373 PUSH1 0xE0 SHL PUSH1 0x64 DUP3 ADD MSTORE PUSH1 0x84 ADD PUSH2 0xCE3 JUMP JUMPDEST PUSH1 0x1 PUSH1 0x1 PUSH1 0xA0 SHL SUB DUP3 AND PUSH2 0x14CF JUMPI PUSH1 0x40 MLOAD PUSH3 0x461BCD PUSH1 0xE5 SHL DUP2 MSTORE PUSH1 0x20 PUSH1 0x4 DUP3 ADD MSTORE PUSH1 0x22 PUSH1 0x24 DUP3 ADD MSTORE PUSH32 0x45524332303A20617070726F766520746F20746865207A65726F206164647265 PUSH1 0x44 DUP3 ADD MSTORE PUSH2 0x7373 PUSH1 0xF0 SHL PUSH1 0x64 DUP3 ADD MSTORE PUSH1 0x84 ADD PUSH2 0xCE3 JUMP JUMPDEST PUSH1 0x1 PUSH1 0x1 PUSH1 0xA0 SHL SUB DUP4 DUP2 AND PUSH1 0x0 DUP2 DUP2 MSTORE PUSH1 0x7 PUSH1 0x20 SWAP1 DUP2 MSTORE PUSH1 0x40 DUP1 DUP4 KECCAK256 SWAP5 DUP8 AND DUP1 DUP5 MSTORE SWAP5 DUP3 MSTORE SWAP2 DUP3 SWAP1 KECCAK256 DUP6 SWAP1 SSTORE SWAP1 MLOAD DUP5 DUP2 MSTORE PUSH32 0x8C5BE1E5EBEC7D5BD14F71427D1E84F3DD0314C0F7B2291E5B200AC8C7C3B925 SWAP2 ADD JUMPDEST PUSH1 0x40 MLOAD DUP1 SWAP2 SUB SWAP1 LOG3 POP POP POP JUMP JUMPDEST PUSH1 0x1 PUSH1 0x1 PUSH1 0xA0 SHL SUB DUP4 AND PUSH2 0x1595 JUMPI PUSH1 0x40 MLOAD PUSH3 0x461BCD PUSH1 0xE5 SHL DUP2 MSTORE PUSH1 0x20 PUSH1 0x4 DUP3 ADD MSTORE PUSH1 0x25 PUSH1 0x24 DUP3 ADD MSTORE PUSH32 0x45524332303A207472616E736665722066726F6D20746865207A65726F206164 PUSH1 0x44 DUP3 ADD MSTORE PUSH5 0x6472657373 PUSH1 0xD8 SHL PUSH1 0x64 DUP3 ADD MSTORE PUSH1 0x84 ADD PUSH2 0xCE3 JUMP JUMPDEST PUSH1 0x1 PUSH1 0x1 PUSH1 0xA0 SHL SUB DUP3 AND PUSH2 0x15F7 JUMPI PUSH1 0x40 MLOAD PUSH3 0x461BCD PUSH1 0xE5 SHL DUP2 MSTORE PUSH1 0x20 PUSH1 0x4 DUP3 ADD MSTORE PUSH1 0x23 PUSH1 0x24 DUP3 ADD MSTORE PUSH32 0x45524332303A207472616E7366657220746F20746865207A65726F2061646472 PUSH1 0x44 DUP3 ADD MSTORE PUSH3 0x657373 PUSH1 0xE8 SHL PUSH1 0x64 DUP3 ADD MSTORE PUSH1 0x84 ADD PUSH2 0xCE3 JUMP JUMPDEST PUSH1 0x1 PUSH1 0x1 PUSH1 0xA0 SHL SUB DUP4 AND PUSH1 0x0 SWAP1 DUP2 MSTORE PUSH1 0x8 PUSH1 0x20 MSTORE PUSH1 0x40 DUP2 KECCAK256 DUP1 SLOAD DUP4 SWAP3 SWAP1 PUSH2 0x161F SWAP1 DUP5 SWAP1 PUSH2 0x1C7D JUMP JUMPDEST SWAP1 SWAP2 SSTORE POP POP PUSH1 0x1 PUSH1 0x1 PUSH1 0xA0 SHL SUB DUP3 AND PUSH1 0x0 SWAP1 DUP2 MSTORE PUSH1 0x8 PUSH1 0x20 MSTORE PUSH1 0x40 DUP2 KECCAK256 DUP1 SLOAD DUP4 SWAP3 SWAP1 PUSH2 0x164C SWAP1 DUP5 SWAP1 PUSH2 0x1C45 JUMP JUMPDEST SWAP3 POP POP DUP2 SWAP1 SSTORE POP DUP2 PUSH1 0x1 PUSH1 0x1 PUSH1 0xA0 SHL SUB AND DUP4 PUSH1 0x1 PUSH1 0x1 PUSH1 0xA0 SHL SUB AND PUSH32 0xDDF252AD1BE2C89B69C2B068FC378DAA952BA7F163C4A11628F55A4DF523B3EF DUP4 PUSH1 0x40 MLOAD PUSH2 0x1524 SWAP2 DUP2 MSTORE PUSH1 0x20 ADD SWAP1 JUMP JUMPDEST PUSH1 0x1 PUSH1 0x1 PUSH1 0xA0 SHL SUB DUP3 AND PUSH2 0x16EE JUMPI PUSH1 0x40 MLOAD PUSH3 0x461BCD PUSH1 0xE5 SHL DUP2 MSTORE PUSH1 0x20 PUSH1 0x4 DUP3 ADD MSTORE PUSH1 0x1F PUSH1 0x24 DUP3 ADD MSTORE PUSH32 0x45524332303A206D696E7420746F20746865207A65726F206164647265737300 PUSH1 0x44 DUP3 ADD MSTORE PUSH1 0x64 ADD PUSH2 0xCE3 JUMP JUMPDEST DUP1 PUSH1 0xD PUSH1 0x0 DUP3 DUP3 SLOAD PUSH2 0x1700 SWAP2 SWAP1 PUSH2 0x1C45 JUMP JUMPDEST SWAP1 SWAP2 SSTORE POP POP PUSH1 0x1 PUSH1 0x1 PUSH1 0xA0 SHL SUB DUP3 AND PUSH1 0x0 SWAP1 DUP2 MSTORE PUSH1 0x8 PUSH1 0x20 MSTORE PUSH1 0x40 DUP2 KECCAK256 DUP1 SLOAD DUP4 SWAP3 SWAP1 PUSH2 0x172D SWAP1 DUP5 SWAP1 PUSH2 0x1C45 JUMP JUMPDEST SWAP1 SWAP2 SSTORE POP POP PUSH1 0x40 MLOAD DUP2 DUP2 MSTORE PUSH1 0x1 PUSH1 0x1 PUSH1 0xA0 SHL SUB DUP4 AND SWAP1 PUSH1 0x0 SWAP1 PUSH32 0xDDF252AD1BE2C89B69C2B068FC378DAA952BA7F163C4A11628F55A4DF523B3EF SWAP1 PUSH1 0x20 ADD PUSH1 0x40 MLOAD DUP1 SWAP2 SUB SWAP1 LOG3 POP POP JUMP JUMPDEST PUSH1 0x0 PUSH2 0x1784 DUP5 DUP5 DUP5 PUSH2 0x1531 JUMP JUMPDEST PUSH1 0x1 PUSH1 0x1 PUSH1 0xA0 SHL SUB DUP5 AND PUSH1 0x0 SWAP1 DUP2 MSTORE PUSH1 0x7 PUSH1 0x20 SWAP1 DUP2 MSTORE PUSH1 0x40 DUP1 DUP4 KECCAK256 ADDRESS DUP5 MSTORE SWAP1 SWAP2 MSTORE SWAP1 KECCAK256 SLOAD PUSH2 0x8C9 SWAP1 DUP6 SWAP1 CALLER SWAP1 PUSH2 0x8C4 SWAP1 DUP7 SWAP1 PUSH2 0x1C7D JUMP JUMPDEST DUP3 DUP1 SLOAD PUSH2 0x17C7 SWAP1 PUSH2 0x1CAB JUMP JUMPDEST SWAP1 PUSH1 0x0 MSTORE PUSH1 0x20 PUSH1 0x0 KECCAK256 SWAP1 PUSH1 0x1F ADD PUSH1 0x20 SWAP1 DIV DUP2 ADD SWAP3 DUP3 PUSH2 0x17E9 JUMPI PUSH1 0x0 DUP6 SSTORE PUSH2 0x182F JUMP JUMPDEST DUP3 PUSH1 0x1F LT PUSH2 0x1802 JUMPI DUP1 MLOAD PUSH1 0xFF NOT AND DUP4 DUP1 ADD OR DUP6 SSTORE PUSH2 0x182F JUMP JUMPDEST DUP3 DUP1 ADD PUSH1 0x1 ADD DUP6 SSTORE DUP3 ISZERO PUSH2 0x182F JUMPI SWAP2 DUP3 ADD JUMPDEST DUP3 DUP2 GT ISZERO PUSH2 0x182F JUMPI DUP3 MLOAD DUP3 SSTORE SWAP2 PUSH1 0x20 ADD SWAP2 SWAP1 PUSH1 0x1 ADD SWAP1 PUSH2 0x1814 JUMP JUMPDEST POP PUSH2 0x183B SWAP3 SWAP2 POP PUSH2 0x18B3 JUMP JUMPDEST POP SWAP1 JUMP JUMPDEST DUP3 DUP1 SLOAD PUSH2 0x184B SWAP1 PUSH2 0x1CAB JUMP JUMPDEST SWAP1 PUSH1 0x0 MSTORE PUSH1 0x20 PUSH1 0x0 KECCAK256 SWAP1 PUSH1 0x1F ADD PUSH1 0x20 SWAP1 DIV DUP2 ADD SWAP3 DUP3 PUSH2 0x186D JUMPI PUSH1 0x0 DUP6 SSTORE PUSH2 0x182F JUMP JUMPDEST DUP3 PUSH1 0x1F LT PUSH2 0x1886 JUMPI DUP3 DUP1 ADD PUSH1 0xFF NOT DUP3 CALLDATALOAD AND OR DUP6 SSTORE PUSH2 0x182F JUMP JUMPDEST DUP3 DUP1 ADD PUSH1 0x1 ADD DUP6 SSTORE DUP3 ISZERO PUSH2 0x182F JUMPI SWAP2 DUP3 ADD JUMPDEST DUP3 DUP2 GT ISZERO PUSH2 0x182F JUMPI DUP3 CALLDATALOAD DUP3 SSTORE SWAP2 PUSH1 0x20 ADD SWAP2 SWAP1 PUSH1 0x1 ADD SWAP1 PUSH2 0x1898 JUMP JUMPDEST JUMPDEST DUP1 DUP3 GT ISZERO PUSH2 0x183B JUMPI PUSH1 0x0 DUP2 SSTORE PUSH1 0x1 ADD PUSH2 0x18B4 JUMP JUMPDEST DUP1 CALLDATALOAD PUSH1 0x1 PUSH1 0x1 PUSH1 0xA0 SHL SUB DUP2 AND DUP2 EQ PUSH2 0x931 JUMPI PUSH1 0x0 DUP1 REVERT JUMPDEST PUSH1 0x0 DUP3 PUSH1 0x1F DUP4 ADD SLT PUSH2 0x18EF JUMPI DUP1 DUP2 REVERT JUMPDEST DUP2 CALLDATALOAD PUSH8 0xFFFFFFFFFFFFFFFF DUP1 DUP3 GT ISZERO PUSH2 0x190A JUMPI PUSH2 0x190A PUSH2 0x1D17 JUMP JUMPDEST PUSH1 0x40 MLOAD PUSH1 0x1F DUP4 ADD PUSH1 0x1F NOT SWAP1 DUP2 AND PUSH1 0x3F ADD AND DUP2 ADD SWAP1 DUP3 DUP3 GT DUP2 DUP4 LT OR ISZERO PUSH2 0x1932 JUMPI PUSH2 0x1932 PUSH2 0x1D17 JUMP JUMPDEST DUP2 PUSH1 0x40 MSTORE DUP4 DUP2 MSTORE DUP7 PUSH1 0x20 DUP6 DUP9 ADD ADD GT ISZERO PUSH2 0x194A JUMPI DUP5 DUP6 REVERT JUMPDEST DUP4 PUSH1 0x20 DUP8 ADD PUSH1 0x20 DUP4 ADD CALLDATACOPY SWAP3 DUP4 ADD PUSH1 0x20 ADD SWAP4 SWAP1 SWAP4 MSTORE POP SWAP4 SWAP3 POP POP POP JUMP JUMPDEST PUSH1 0x0 PUSH1 0x20 DUP3 DUP5 SUB SLT ISZERO PUSH2 0x1977 JUMPI DUP1 DUP2 REVERT JUMPDEST PUSH2 0x1980 DUP3 PUSH2 0x18C8 JUMP JUMPDEST SWAP4 SWAP3 POP POP POP JUMP JUMPDEST PUSH1 0x0 DUP1 PUSH1 0x40 DUP4 DUP6 SUB SLT ISZERO PUSH2 0x1999 JUMPI DUP1 DUP2 REVERT JUMPDEST PUSH2 0x19A2 DUP4 PUSH2 0x18C8 JUMP JUMPDEST SWAP2 POP PUSH2 0x19B0 PUSH1 0x20 DUP5 ADD PUSH2 0x18C8 JUMP JUMPDEST SWAP1 POP SWAP3 POP SWAP3 SWAP1 POP JUMP JUMPDEST PUSH1 0x0 DUP1 PUSH1 0x0 PUSH1 0x60 DUP5 DUP7 SUB SLT ISZERO PUSH2 0x19CD JUMPI DUP1 DUP2 REVERT JUMPDEST PUSH2 0x19D6 DUP5 PUSH2 0x18C8 JUMP JUMPDEST SWAP3 POP PUSH2 0x19E4 PUSH1 0x20 DUP6 ADD PUSH2 0x18C8 JUMP JUMPDEST SWAP2 POP PUSH1 0x40 DUP5 ADD CALLDATALOAD SWAP1 POP SWAP3 POP SWAP3 POP SWAP3 JUMP JUMPDEST PUSH1 0x0 DUP1 PUSH1 0x40 DUP4 DUP6 SUB SLT ISZERO PUSH2 0x1A06 JUMPI DUP2 DUP3 REVERT JUMPDEST PUSH2 0x1A0F DUP4 PUSH2 0x18C8 JUMP JUMPDEST SWAP5 PUSH1 0x20 SWAP4 SWAP1 SWAP4 ADD CALLDATALOAD SWAP4 POP POP POP JUMP JUMPDEST PUSH1 0x0 PUSH1 0x20 DUP3 DUP5 SUB SLT ISZERO PUSH2 0x1A2E JUMPI DUP1 DUP2 REVERT JUMPDEST POP CALLDATALOAD SWAP2 SWAP1 POP JUMP JUMPDEST PUSH1 0x0 DUP1 PUSH1 0x0 DUP1 PUSH1 0x0 PUSH1 0x80 DUP7 DUP9 SUB SLT ISZERO PUSH2 0x1A4C JUMPI DUP1 DUP2 REVERT JUMPDEST DUP6 CALLDATALOAD SWAP5 POP PUSH1 0x20 DUP7 ADD CALLDATALOAD PUSH8 0xFFFFFFFFFFFFFFFF DUP1 DUP3 GT ISZERO PUSH2 0x1A6A JUMPI DUP3 DUP4 REVERT JUMPDEST DUP2 DUP9 ADD SWAP2 POP DUP9 PUSH1 0x1F DUP4 ADD SLT PUSH2 0x1A7D JUMPI DUP3 DUP4 REVERT JUMPDEST DUP2 CALLDATALOAD DUP2 DUP2 GT ISZERO PUSH2 0x1A8B JUMPI DUP4 DUP5 REVERT JUMPDEST DUP10 PUSH1 0x20 DUP3 DUP6 ADD ADD GT ISZERO PUSH2 0x1A9C JUMPI DUP4 DUP5 REVERT JUMPDEST PUSH1 0x20 DUP4 ADD SWAP7 POP DUP1 SWAP6 POP POP PUSH1 0x40 DUP9 ADD CALLDATALOAD SWAP4 POP PUSH1 0x60 DUP9 ADD CALLDATALOAD SWAP2 POP DUP1 DUP3 GT ISZERO PUSH2 0x1AC0 JUMPI DUP3 DUP4 REVERT JUMPDEST POP PUSH2 0x1ACD DUP9 DUP3 DUP10 ADD PUSH2 0x18DF JUMP JUMPDEST SWAP2 POP POP SWAP3 SWAP6 POP SWAP3 SWAP6 SWAP1 SWAP4 POP JUMP JUMPDEST PUSH1 0x0 DUP1 PUSH1 0x40 DUP4 DUP6 SUB SLT ISZERO PUSH2 0x1AEC JUMPI DUP2 DUP3 REVERT JUMPDEST POP POP DUP1 CALLDATALOAD SWAP3 PUSH1 0x20 SWAP1 SWAP2 ADD CALLDATALOAD SWAP2 POP JUMP JUMPDEST PUSH1 0x0 DUP2 MLOAD DUP1 DUP5 MSTORE DUP2 JUMPDEST DUP2 DUP2 LT ISZERO PUSH2 0x1B20 JUMPI PUSH1 0x20 DUP2 DUP6 ADD DUP2 ADD MLOAD DUP7 DUP4 ADD DUP3 ADD MSTORE ADD PUSH2 0x1B04 JUMP JUMPDEST DUP2 DUP2 GT ISZERO PUSH2 0x1B31 JUMPI DUP3 PUSH1 0x20 DUP4 DUP8 ADD ADD MSTORE JUMPDEST POP PUSH1 0x1F ADD PUSH1 0x1F NOT AND SWAP3 SWAP1 SWAP3 ADD PUSH1 0x20 ADD SWAP3 SWAP2 POP POP JUMP JUMPDEST PUSH1 0x0 DUP3 DUP5 DUP4 CALLDATACOPY SWAP2 ADD SWAP1 DUP2 MSTORE SWAP2 SWAP1 POP JUMP JUMPDEST PUSH1 0x20 DUP1 DUP3 MSTORE DUP3 MLOAD DUP3 DUP3 ADD DUP2 SWAP1 MSTORE PUSH1 0x0 SWAP2 SWAP1 DUP5 DUP3 ADD SWAP1 PUSH1 0x40 DUP6 ADD SWAP1 DUP5 JUMPDEST DUP2 DUP2 LT ISZERO PUSH2 0x1B8E JUMPI DUP4 MLOAD DUP4 MSTORE SWAP3 DUP5 ADD SWAP3 SWAP2 DUP5 ADD SWAP2 PUSH1 0x1 ADD PUSH2 0x1B72 JUMP JUMPDEST POP SWAP1 SWAP7 SWAP6 POP POP POP POP POP POP JUMP JUMPDEST PUSH1 0x0 DUP5 ISZERO ISZERO DUP3 MSTORE PUSH1 0x60 PUSH1 0x20 DUP4 ADD MSTORE PUSH2 0x1BB5 PUSH1 0x60 DUP4 ADD DUP6 PUSH2 0x1AFB JUMP JUMPDEST SWAP1 POP DUP3 PUSH1 0x40 DUP4 ADD MSTORE SWAP5 SWAP4 POP POP POP POP JUMP JUMPDEST PUSH1 0x0 DUP9 DUP3 MSTORE DUP8 PUSH1 0x20 DUP4 ADD MSTORE PUSH1 0xC0 PUSH1 0x40 DUP4 ADD MSTORE DUP6 PUSH1 0xC0 DUP4 ADD MSTORE DUP6 DUP8 PUSH1 0xE0 DUP5 ADD CALLDATACOPY DUP1 PUSH1 0xE0 DUP8 DUP5 ADD ADD MSTORE PUSH1 0x1F NOT PUSH1 0x1F DUP8 ADD AND DUP3 ADD DUP6 PUSH1 0x60 DUP5 ADD MSTORE PUSH1 0xE0 DUP4 DUP3 SUB ADD PUSH1 0x80 DUP5 ADD MSTORE PUSH2 0x1C14 PUSH1 0xE0 DUP3 ADD DUP7 PUSH2 0x1AFB JUMP JUMPDEST SWAP2 POP POP PUSH1 0x1 PUSH1 0x1 PUSH1 0xA0 SHL SUB DUP4 AND PUSH1 0xA0 DUP4 ADD MSTORE SWAP9 SWAP8 POP POP POP POP POP POP POP POP JUMP JUMPDEST PUSH1 0x0 PUSH1 0x20 DUP3 MSTORE PUSH2 0x1980 PUSH1 0x20 DUP4 ADD DUP5 PUSH2 0x1AFB JUMP JUMPDEST PUSH1 0x0 DUP3 NOT DUP3 GT ISZERO PUSH2 0x1C58 JUMPI PUSH2 0x1C58 PUSH2 0x1D01 JUMP JUMPDEST POP ADD SWAP1 JUMP JUMPDEST PUSH1 0x0 DUP3 PUSH2 0x1C78 JUMPI PUSH4 0x4E487B71 PUSH1 0xE0 SHL DUP2 MSTORE PUSH1 0x12 PUSH1 0x4 MSTORE PUSH1 0x24 DUP2 REVERT JUMPDEST POP DIV SWAP1 JUMP JUMPDEST PUSH1 0x0 DUP3 DUP3 LT ISZERO PUSH2 0x1C8F JUMPI PUSH2 0x1C8F PUSH2 0x1D01 JUMP JUMPDEST POP SUB SWAP1 JUMP JUMPDEST PUSH1 0x0 DUP2 PUSH2 0x1CA3 JUMPI PUSH2 0x1CA3 PUSH2 0x1D01 JUMP JUMPDEST POP PUSH1 0x0 NOT ADD SWAP1 JUMP JUMPDEST PUSH1 0x1 DUP2 DUP2 SHR SWAP1 DUP3 AND DUP1 PUSH2 0x1CBF JUMPI PUSH1 0x7F DUP3 AND SWAP2 POP JUMPDEST PUSH1 0x20 DUP3 LT DUP2 EQ ISZERO PUSH2 0x1CE0 JUMPI PUSH4 0x4E487B71 PUSH1 0xE0 SHL PUSH1 0x0 MSTORE PUSH1 0x22 PUSH1 0x4 MSTORE PUSH1 0x24 PUSH1 0x0 REVERT JUMPDEST POP SWAP2 SWAP1 POP JUMP JUMPDEST PUSH1 0x0 PUSH1 0x0 NOT DUP3 EQ ISZERO PUSH2 0x1CFA JUMPI PUSH2 0x1CFA PUSH2 0x1D01 JUMP JUMPDEST POP PUSH1 0x1 ADD SWAP1 JUMP JUMPDEST PUSH4 0x4E487B71 PUSH1 0xE0 SHL PUSH1 0x0 MSTORE PUSH1 0x11 PUSH1 0x4 MSTORE PUSH1 0x24 PUSH1 0x0 REVERT JUMPDEST PUSH4 0x4E487B71 PUSH1 0xE0 SHL PUSH1 0x0 MSTORE PUSH1 0x41 PUSH1 0x4 MSTORE PUSH1 0x24 PUSH1 0x0 REVERT INVALID LOG2 PUSH5 0x6970667358 0x22 SLT KECCAK256 PUSH4 0x48335C96 SSTORE PUSH3 0x75F768 PUSH1 0xE8 MSTORE PUSH12 0x4A325902EEA4A29F06EA843F SUB 0xED DUP15 PUSH25 0x926964736F6C63430008030033000000000000000000000000 "},"methodIdentifiers":{"addStakingRewards(uint256)":"d9c51cd4","allowance(address,address)":"dd62ed3e","approve(address,uint256)":"095ea7b3","balanceOf(address)":"70a08231","beginDispute(bytes32,uint256)":"1f379acc","decimals()":"313ce567","depositStake(uint256)":"cb82cc8f","faucet(address)":"b86d1d63","getDataBefore(bytes32,uint256)":"a792765f","getIndexForDataBefore(bytes32,uint256)":"29449085","getNewValueCountbyQueryId(bytes32)":"77b03e0d","getReporterByTimestamp(bytes32,uint256)":"e07c5486","getStakeAmount()":"722580b6","getStakerInfo(address)":"733bdef0","getTimestampbyQueryIdandIndex(bytes32,uint256)":"ce5e11bf","getVoteRounds(bytes32)":"248638e5","governance()":"5aa6e675","isDisputed(bytes32,uint256)":"64473df2","isInDispute(bytes32,uint256)":"44e87f91","name()":"06fdde03","reporterByTimestamp(bytes32,uint256)":"217053c0","requestStakingWithdraw(uint256)":"8929f4c6","retrieveData(bytes32,uint256)":"c5958af9","stakeAmount()":"60c7dc47","submitValue(bytes32,bytes,uint256,bytes)":"5eaa9ced","symbol()":"95d89b41","timeBasedReward()":"96426d97","timestamps(bytes32,uint256)":"f25133f3","tips(bytes32)":"602bf227","tipsInContract()":"69d43bd3","token()":"fc0c546a","totalSupply()":"18160ddd","transfer(address,uint256)":"a9059cbb","transferFrom(address,address,uint256)":"23b872dd","values(bytes32,uint256)":"091b50ff","voteCount()":"c6384071","voteRounds(bytes32,uint256)":"c979fe9f","withdrawStake()":"bed9d861"}}}}}