{"polygongovernance/contracts/Governance.sol":{"Governance":{"abi":[{"inputs":[{"internalType":"address payable","name":"_tellor","type":"address"},{"internalType":"address","name":"_teamMultisig","type":"address"}],"stateMutability":"nonpayable","type":"constructor"},{"anonymous":false,"inputs":[{"indexed":false,"internalType":"uint256","name":"_disputeId","type":"uint256"},{"indexed":false,"internalType":"bytes32","name":"_queryId","type":"bytes32"},{"indexed":false,"internalType":"uint256","name":"_timestamp","type":"uint256"},{"indexed":false,"internalType":"address","name":"_reporter","type":"address"}],"name":"NewDispute","type":"event"},{"anonymous":false,"inputs":[{"indexed":false,"internalType":"uint256","name":"_disputeId","type":"uint256"},{"indexed":false,"internalType":"enum Governance.VoteResult","name":"_result","type":"uint8"}],"name":"VoteExecuted","type":"event"},{"anonymous":false,"inputs":[{"indexed":false,"internalType":"uint256","name":"_disputeId","type":"uint256"},{"indexed":false,"internalType":"enum Governance.VoteResult","name":"_result","type":"uint8"},{"indexed":false,"internalType":"address","name":"_initiator","type":"address"},{"indexed":false,"internalType":"address","name":"_reporter","type":"address"}],"name":"VoteTallied","type":"event"},{"anonymous":false,"inputs":[{"indexed":false,"internalType":"uint256","name":"_disputeId","type":"uint256"},{"indexed":false,"internalType":"bool","name":"_supports","type":"bool"},{"indexed":false,"internalType":"address","name":"_voter","type":"address"},{"indexed":false,"internalType":"bool","name":"_invalidQuery","type":"bool"}],"name":"Voted","type":"event"},{"inputs":[],"name":"autopayAddrsQueryId","outputs":[{"internalType":"bytes32","name":"","type":"bytes32"}],"stateMutability":"view","type":"function"},{"inputs":[{"internalType":"bytes32","name":"_queryId","type":"bytes32"},{"internalType":"uint256","name":"_timestamp","type":"uint256"}],"name":"beginDispute","outputs":[],"stateMutability":"nonpayable","type":"function"},{"inputs":[{"internalType":"uint256","name":"_disputeId","type":"uint256"},{"internalType":"address","name":"_voter","type":"address"}],"name":"didVote","outputs":[{"internalType":"bool","name":"","type":"bool"}],"stateMutability":"view","type":"function"},{"inputs":[{"internalType":"uint256","name":"_disputeId","type":"uint256"}],"name":"executeVote","outputs":[],"stateMutability":"nonpayable","type":"function"},{"inputs":[{"internalType":"bytes32","name":"_queryId","type":"bytes32"},{"internalType":"uint256","name":"_timestamp","type":"uint256"}],"name":"getDataAfter","outputs":[{"internalType":"bytes","name":"_value","type":"bytes"},{"internalType":"uint256","name":"_timestampRetrieved","type":"uint256"}],"stateMutability":"view","type":"function"},{"inputs":[{"internalType":"bytes32","name":"_queryId","type":"bytes32"},{"internalType":"uint256","name":"_timestamp","type":"uint256"}],"name":"getDataBefore","outputs":[{"internalType":"bytes","name":"_value","type":"bytes"},{"internalType":"uint256","name":"_timestampRetrieved","type":"uint256"}],"stateMutability":"view","type":"function"},{"inputs":[],"name":"getDisputeFee","outputs":[{"internalType":"uint256","name":"","type":"uint256"}],"stateMutability":"view","type":"function"},{"inputs":[{"internalType":"uint256","name":"_disputeId","type":"uint256"}],"name":"getDisputeInfo","outputs":[{"internalType":"bytes32","name":"","type":"bytes32"},{"internalType":"uint256","name":"","type":"uint256"},{"internalType":"bytes","name":"","type":"bytes"},{"internalType":"address","name":"","type":"address"}],"stateMutability":"view","type":"function"},{"inputs":[{"internalType":"address","name":"_reporter","type":"address"}],"name":"getDisputesByReporter","outputs":[{"internalType":"uint256[]","name":"","type":"uint256[]"}],"stateMutability":"view","type":"function"},{"inputs":[{"internalType":"bytes32","name":"_queryId","type":"bytes32"},{"internalType":"uint256","name":"_timestamp","type":"uint256"}],"name":"getIndexForDataAfter","outputs":[{"internalType":"bool","name":"_found","type":"bool"},{"internalType":"uint256","name":"_index","type":"uint256"}],"stateMutability":"view","type":"function"},{"inputs":[{"internalType":"bytes32","name":"_queryId","type":"bytes32"},{"internalType":"uint256","name":"_timestamp","type":"uint256"}],"name":"getIndexForDataBefore","outputs":[{"internalType":"bool","name":"_found","type":"bool"},{"internalType":"uint256","name":"_index","type":"uint256"}],"stateMutability":"view","type":"function"},{"inputs":[{"internalType":"bytes32","name":"_queryId","type":"bytes32"},{"internalType":"uint256","name":"_timestamp","type":"uint256"},{"internalType":"uint256","name":"_maxAge","type":"uint256"},{"internalType":"uint256","name":"_maxCount","type":"uint256"}],"name":"getMultipleValuesBefore","outputs":[{"internalType":"bytes[]","name":"_values","type":"bytes[]"},{"internalType":"uint256[]","name":"_timestamps","type":"uint256[]"}],"stateMutability":"view","type":"function"},{"inputs":[{"internalType":"bytes32","name":"_queryId","type":"bytes32"}],"name":"getNewValueCountbyQueryId","outputs":[{"internalType":"uint256","name":"","type":"uint256"}],"stateMutability":"view","type":"function"},{"inputs":[{"internalType":"bytes32","name":"_queryId","type":"bytes32"}],"name":"getOpenDisputesOnId","outputs":[{"internalType":"uint256","name":"","type":"uint256"}],"stateMutability":"view","type":"function"},{"inputs":[{"internalType":"bytes32","name":"_queryId","type":"bytes32"},{"internalType":"uint256","name":"_timestamp","type":"uint256"}],"name":"getReporterByTimestamp","outputs":[{"internalType":"address","name":"","type":"address"}],"stateMutability":"view","type":"function"},{"inputs":[{"internalType":"bytes32","name":"_queryId","type":"bytes32"},{"internalType":"uint256","name":"_index","type":"uint256"}],"name":"getTimestampbyQueryIdandIndex","outputs":[{"internalType":"uint256","name":"","type":"uint256"}],"stateMutability":"view","type":"function"},{"inputs":[],"name":"getVoteCount","outputs":[{"internalType":"uint256","name":"","type":"uint256"}],"stateMutability":"view","type":"function"},{"inputs":[{"internalType":"uint256","name":"_disputeId","type":"uint256"}],"name":"getVoteInfo","outputs":[{"internalType":"bytes32","name":"","type":"bytes32"},{"internalType":"uint256[17]","name":"","type":"uint256[17]"},{"internalType":"bool","name":"","type":"bool"},{"internalType":"enum Governance.VoteResult","name":"","type":"uint8"},{"internalType":"address","name":"","type":"address"}],"stateMutability":"view","type":"function"},{"inputs":[{"internalType":"bytes32","name":"_hash","type":"bytes32"}],"name":"getVoteRounds","outputs":[{"internalType":"uint256[]","name":"","type":"uint256[]"}],"stateMutability":"view","type":"function"},{"inputs":[{"internalType":"address","name":"_voter","type":"address"}],"name":"getVoteTallyByAddress","outputs":[{"internalType":"uint256","name":"","type":"uint256"}],"stateMutability":"view","type":"function"},{"inputs":[],"name":"idMappingContract","outputs":[{"internalType":"contract IMappingContract","name":"","type":"address"}],"stateMutability":"view","type":"function"},{"inputs":[{"internalType":"bytes32","name":"_queryId","type":"bytes32"},{"internalType":"uint256","name":"_timestamp","type":"uint256"}],"name":"isInDispute","outputs":[{"internalType":"bool","name":"","type":"bool"}],"stateMutability":"view","type":"function"},{"inputs":[],"name":"oracle","outputs":[{"internalType":"contract IOracle","name":"","type":"address"}],"stateMutability":"view","type":"function"},{"inputs":[],"name":"oracleAddress","outputs":[{"internalType":"address","name":"","type":"address"}],"stateMutability":"view","type":"function"},{"inputs":[{"internalType":"bytes32","name":"_queryId","type":"bytes32"},{"internalType":"uint256","name":"_timestamp","type":"uint256"}],"name":"retrieveData","outputs":[{"internalType":"bytes","name":"","type":"bytes"}],"stateMutability":"view","type":"function"},{"inputs":[{"internalType":"address","name":"_addy","type":"address"}],"name":"setIdMappingContract","outputs":[],"stateMutability":"nonpayable","type":"function"},{"inputs":[{"internalType":"uint256","name":"_disputeId","type":"uint256"}],"name":"tallyVotes","outputs":[],"stateMutability":"nonpayable","type":"function"},{"inputs":[],"name":"teamMultisig","outputs":[{"internalType":"address","name":"","type":"address"}],"stateMutability":"view","type":"function"},{"inputs":[],"name":"tellor","outputs":[{"internalType":"contract ITellor","name":"","type":"address"}],"stateMutability":"view","type":"function"},{"inputs":[],"name":"token","outputs":[{"internalType":"contract IERC20","name":"","type":"address"}],"stateMutability":"view","type":"function"},{"inputs":[{"internalType":"bytes32","name":"_id","type":"bytes32"}],"name":"valueFor","outputs":[{"internalType":"int256","name":"_value","type":"int256"},{"internalType":"uint256","name":"_timestamp","type":"uint256"},{"internalType":"uint256","name":"_statusCode","type":"uint256"}],"stateMutability":"view","type":"function"},{"inputs":[{"internalType":"uint256","name":"_disputeId","type":"uint256"},{"internalType":"bool","name":"_supports","type":"bool"},{"internalType":"bool","name":"_invalidQuery","type":"bool"}],"name":"vote","outputs":[],"stateMutability":"nonpayable","type":"function"},{"inputs":[],"name":"voteCount","outputs":[{"internalType":"uint256","name":"","type":"uint256"}],"stateMutability":"view","type":"function"},{"inputs":[{"internalType":"uint256[]","name":"_disputeIds","type":"uint256[]"},{"internalType":"bool[]","name":"_supports","type":"bool[]"},{"internalType":"bool[]","name":"_invalidQuery","type":"bool[]"}],"name":"voteOnMultipleDisputes","outputs":[],"stateMutability":"nonpayable","type":"function"}],"evm":{"bytecode":{"linkReferences":{},"object":"60a060405260006080908152620000189060c06200020f565b60408051601f1981840301815290829052620000379160200162000224565b604051602081830303815290604052805190602001206007553480156200005d57600080fd5b5060405162003e3438038062003e34833981016040819052620000809162000183565b600080546001600160a01b0384166001600160a01b0319918216811790925560028054909116821790556040805163021fd35d60e31b815290516310fe9ae891600480820192602092909190829003018186803b158015620000e157600080fd5b505afa158015620000f6573d6000803e3d6000fd5b505050506040513d601f19601f820116820180604052508101906200011c91906200015d565b600380546001600160a01b03199081166001600160a01b03938416179091556004805482169483169490941790935560058054909316911617905562000279565b6000602082840312156200016f578081fd5b81516200017c8162000260565b9392505050565b6000806040838503121562000196578081fd5b8251620001a38162000260565b6020840151909250620001b68162000260565b809150509250929050565b60008151808452815b81811015620001e857602081850181015186830182015201620001ca565b81811115620001fa5782602083870101525b50601f01601f19169290920160200192915050565b6000602082526200017c6020830184620001c1565b600060408252601060408301526f4175746f70617941646472657373657360801b6060830152608060208301526200017c6080830184620001c1565b6001600160a01b03811681146200027657600080fd5b50565b613bab80620002896000396000f3fe608060405234801561001057600080fd5b50600436106102055760003560e01c8063a7c438bc1161011a578063dbc0c085116100ad578063f66f49c31161007c578063f66f49c3146104f1578063f78eea8314610504578063f98a4eca14610532578063fc0c546a14610545578063fcd4a5461461055857610205565b8063dbc0c085146104b0578063df133bca146104c3578063e07c5486146104d6578063e7b3387c146104e957610205565b8063c5958af9116100e9578063c5958af91461046b578063c63840711461048b578063ce5e11bf14610494578063d8add0f6146104a757610205565b8063a7c438bc146103ea578063a89ae4ba14610427578063bbf3e10b1461043a578063bdc7d9d81461044257610205565b806344e87f911161019d57806364ee3c6d1161016c57806364ee3c6d1461036c57806377b03e0d1461038d5780637dc0d1d0146103a05780638d824273146103b3578063a792765f146103d757610205565b806344e87f91146103005780634d318b0e146103235780634e9fe708146103365780636169c3081461034957610205565b80631f379acc116101d95780631f379acc14610290578063248638e5146102a357806329449085146102c35780632af8aae0146102ed57610205565b8062b121901461020a5780630e1596ef1461021f578063193b505b146102525780631959ad5b14610265575b600080fd5b61021d61021836600461337c565b610579565b005b61023f61022d3660046134fa565b60009081526009602052604090205490565b6040519081526020015b60405180910390f35b61021d6102603660046132a8565b61061d565b600054610278906001600160a01b031681565b6040516001600160a01b039091168152602001610249565b61021d61029e36600461352a565b610655565b6102b66102b13660046134fa565b610eba565b6040516102499190613794565b6102d66102d136600461352a565b610f1c565b604080519215158352602083019190915201610249565b600154610278906001600160a01b031681565b61031361030e36600461352a565b610fab565b6040519015158152602001610249565b61021d6103313660046134fa565b611036565b6102b66103443660046132a8565b61154b565b61035c6103573660046134fa565b6115b5565b604051610249949392919061380a565b61037f61037a36600461352a565b611689565b604051610249929190613856565b61023f61039b3660046134fa565b6116e2565b600254610278906001600160a01b031681565b6103c66103c13660046134fa565b611765565b6040516102499594939291906137a7565b61037f6103e536600461352a565b61186a565b6103136103f83660046135af565b6000828152600a602090815260408083206001600160a01b038516845260130190915290205460ff1692915050565b600454610278906001600160a01b031681565b61023f611900565b61023f6104503660046132a8565b6001600160a01b03166000908152600c602052604090205490565b61047e61047936600461352a565b611999565b6040516102499190613843565b61023f60065481565b61023f6104a236600461352a565b611a21565b61023f60075481565b600554610278906001600160a01b031681565b61021d6104d13660046135de565b611aa5565b6102786104e436600461352a565b612082565b60065461023f565b6102d66104ff36600461352a565b612106565b6105176105123660046134fa565b6122c2565b60408051938452602084019290925290820152606001610249565b61021d6105403660046134fa565b612392565b600354610278906001600160a01b031681565b61056b61056636600461354b565b612b71565b60405161024992919061371f565b60005b8351811015610617576106058482815181106105a857634e487b7160e01b600052603260045260246000fd5b60200260200101518483815181106105d057634e487b7160e01b600052603260045260246000fd5b60200260200101518484815181106105f857634e487b7160e01b600052603260045260246000fd5b6020026020010151611aa5565b8061060f81613b08565b91505061057c565b50505050565b6001546001600160a01b03161561063357600080fd5b600180546001600160a01b0319166001600160a01b0392909216919091179055565b60025460405163703e2a4360e11b815260048101849052602481018390526000916001600160a01b03169063e07c54869060440160206040518083038186803b1580156106a157600080fd5b505afa1580156106b5573d6000803e3d6000fd5b505050506040513d601f19601f820116820180604052508101906106d991906132c4565b90506001600160a01b0381166107415760405162461bcd60e51b815260206004820152602260248201527f6e6f2076616c75652065786973747320617420676976656e2074696d6573746160448201526106d760f41b60648201526084015b60405180910390fd5b6040805160208082018690528183018590528251808303840181526060909201909252805191012060065460009061077a906001613917565b6000838152600b60209081526040808320805460018082018355828652848620909101869055858552600a8452828520600885528386208c81558083018c9055600380820180546001600160a01b0319166001600160a01b038e169081179091558b845560128401805475ffffffffffffffffffffffffffffffffffffffff0000191633620100000217905543918401919091554260028401558454838501558752600d8652938620805492830181558652938520018590559394509091610840611900565b845490915060011415610b4b5761a8c061085a8942613a79565b106108c25760405162461bcd60e51b815260206004820152603260248201527f44697370757465206d75737420626520737461727465642077697468696e207260448201527165706f7274696e67206c6f636b2074696d6560701b6064820152608401610738565b60008981526009602052604081208054916108dc83613b08565b90915550506000898152600960205260409020546004101561098557600260009054906101000a90046001600160a01b03166001600160a01b031663722580b66040518163ffffffff1660e01b815260040160206040518083038186803b15801561094657600080fd5b505afa15801561095a573d6000803e3d6000fd5b505050506040513d601f19601f8201168201806040525081019061097e9190613512565b90506109b8565b6000898152600960205260409020546109a090600190613a79565b6109ab90600261398c565b6109b59082613a5a565b90505b60025460405163137f0a8d60e21b81526001600160a01b03898116600483015230602483015290911690634dfc2a3490604401602060405180830381600087803b158015610a0557600080fd5b505af1158015610a19573d6000803e3d6000fd5b505050506040513d601f19601f82011682018060405250810190610a3d9190613512565b60048381019190915560025460405163c5958af960e01b81529182018b9052602482018a90526001600160a01b03169063c5958af99060440160006040518083038186803b158015610a8e57600080fd5b505afa158015610aa2573d6000803e3d6000fd5b505050506040513d6000823e601f3d908101601f19168201604052610aca919081019061357c565b8051610ae0916002850191602090910190613093565b506002546040516316d7b73f60e21b8152600481018b9052602481018a90526001600160a01b0390911690635b5edcfc90604401600060405180830381600087803b158015610b2e57600080fd5b505af1158015610b42573d6000803e3d6000fd5b50505050610d79565b83546000908590610b5e90600290613a79565b81548110610b7c57634e487b7160e01b600052603260045260246000fd5b9060005260206000200154905062015180600a60008381526020019081526020016000206005015442610baf9190613a79565b10610c135760405162461bcd60e51b815260206004820152602e60248201527f4e6577206469737075746520726f756e64206d7573742062652073746172746560448201526d642077697468696e20612064617960901b6064820152608401610738565b845460041015610caa57600260009054906101000a90046001600160a01b03166001600160a01b031663722580b66040518163ffffffff1660e01b815260040160206040518083038186803b158015610c6b57600080fd5b505afa158015610c7f573d6000803e3d6000fd5b505050506040513d601f19601f82011682018060405250810190610ca39190613512565b9150610cd0565b8454610cb890600190613a79565b610cc390600261398c565b610ccd9083613a5a565b91505b6008600086600081548110610cf557634e487b7160e01b600052603260045260246000fd5b906000526020600020015481526020019081526020016000206004015483600401819055506008600086600081548110610d3f57634e487b7160e01b600052603260045260246000fd5b9060005260206000200154815260200190815260200160002060020183600201908054610d6b90613ad3565b610d76929190613117565b50505b6004830181905560068054906000610d9083613b08565b90915550506003546040516323b872dd60e01b8152336004820152306024820152604481018390526001600160a01b03909116906323b872dd90606401602060405180830381600087803b158015610de757600080fd5b505af1158015610dfb573d6000803e3d6000fd5b505050506040513d601f19601f82011682018060405250810190610e1f9190613459565b610e5e5760405162461bcd60e51b815260206004820152601060248201526f119959481b5d5cdd081899481c185a5960821b6044820152606401610738565b60408051868152602081018b90529081018990526001600160a01b03881660608201527f12b7317353cd7caa8eae8057464e3de356c1429d814fb3421797eccb19043044906080015b60405180910390a1505050505050505050565b6000818152600b6020908152604091829020805483518184028101840190945280845260609392830182828015610f1057602002820191906000526020600020905b815481526020019060010190808311610efc575b50505050509050919050565b60008054604051632944908560e01b8152600481018590526024810184905282916001600160a01b031690632944908590604401604080518083038186803b158015610f6757600080fd5b505afa158015610f7b573d6000803e3d6000fd5b505050506040513d601f19601f82011682018060405250810190610f9f91906134cd565b915091505b9250929050565b600080546040516344e87f9160e01b815260048101859052602481018490526001600160a01b03909116906344e87f919060440160206040518083038186803b158015610ff757600080fd5b505afa15801561100b573d6000803e3d6000fd5b505050506040513d601f19601f8201168201806040525081019061102f9190613459565b9392505050565b6000818152600a602052604090206005810154156110965760405162461bcd60e51b815260206004820152601d60248201527f566f74652068617320616c7265616479206265656e2074616c6c6965640000006044820152606401610738565b60065482111580156110a85750600082115b6110ea5760405162461bcd60e51b8152602060048201526013602482015272159bdd1948191bd95cc81b9bdd08195e1a5cdd606a1b6044820152606401610738565b60018101546110fc9062015180613a5a565b600282015461110b9042613a79565b10158061112a57506207e9008160020154426111279190613a79565b10155b6111765760405162461bcd60e51b815260206004820152601f60248201527f54696d6520666f7220766f74696e6720686173206e6f7420656c6170736564006044820152606401610738565b6008810154600782015460068301546000929161119291613917565b61119c9190613917565b600e830154600d840154600c8501549293506000926111bb9190613917565b6111c59190613917565b60118401546010850154600f8601549293506000926111e49190613917565b6111ee9190613917565b600b850154600a860154600987015492935060009261120d9190613917565b6112179190613917565b90508361122c578361122881613b08565b9450505b8261123f578261123b81613b08565b9350505b81611252578161124e81613b08565b9250505b80611265578061126181613b08565b9150505b6009850154600090829061128190670de0b6b3a7640000613a5a565b61128b919061392f565b600f87015484906112a490670de0b6b3a7640000613a5a565b6112ae919061392f565b600c88015486906112c790670de0b6b3a7640000613a5a565b6112d1919061392f565b600689015488906112ea90670de0b6b3a7640000613a5a565b6112f4919061392f565b6112fe9190613917565b6113089190613917565b6113129190613917565b90506000828760090160010154670de0b6b3a76400006113329190613a5a565b61133c919061392f565b6010880154859061135590670de0b6b3a7640000613a5a565b61135f919061392f565b600d890154879061137890670de0b6b3a7640000613a5a565b611382919061392f565b60078a0154899061139b90670de0b6b3a7640000613a5a565b6113a5919061392f565b6113af9190613917565b6113b99190613917565b6113c39190613917565b90506000838860090160020154670de0b6b3a76400006113e39190613a5a565b6113ed919061392f565b6011890154869061140690670de0b6b3a7640000613a5a565b611410919061392f565b600e8a0154889061142990670de0b6b3a7640000613a5a565b611433919061392f565b60088b01548a9061144c90670de0b6b3a7640000613a5a565b611456919061392f565b6114609190613917565b61146a9190613917565b6114749190613917565b90506114808183613917565b8311156114a5576012880180546001919061ff001916610100835b02179055506114e0565b6114af8184613917565b8211156114ce576012880180546000919061ff0019166101008361149b565b60128801805461ff0019166102001790555b426005890155601288015460008a815260086020526040908190206003015490517fa2d4e500801849d40ad00f0f12ba92a5263f83ec68946e647be95cfbe581c7b692610ea7928d9260ff610100840416926001600160a01b0362010000909104811692169061388c565b6001600160a01b0381166000908152600d6020908152604091829020805483518184028101840190945280845260609392830182828015610f105760200282019190600052602060002090815481526020019060010190808311610efc5750505050509050919050565b6000818152600860205260408120805460018201546003830154600284018054869560609587959194909391926001600160a01b039091169082906115f990613ad3565b80601f016020809104026020016040519081016040528092919081815260200182805461162590613ad3565b80156116725780601f1061164757610100808354040283529160200191611672565b820191906000526020600020905b81548152906001019060200180831161165557829003601f168201915b505050505091509450945094509450509193509193565b6060600080600061169a8686612106565b91509150816116c15760006040518060200160405280600081525090935093505050610fa4565b6116cb8682611a21565b92506116d78684611999565b935050509250929050565b600080546040516377b03e0d60e01b8152600481018490526001600160a01b03909116906377b03e0d9060240160206040518083038186803b15801561172757600080fd5b505afa15801561173b573d6000803e3d6000fd5b505050506040513d601f19601f8201168201806040525081019061175f9190613512565b92915050565b600061176f613192565b50506000908152600a60208181526040928390208054845161022081018652600183015481526002830154938101939093526003820154948301949094526004810154606083015260058101546080830152600681015460a0830152600781015460c0830152600881015460e083015260098101546101008084019190915292810154610120830152600b810154610140830152600c810154610160830152600d810154610180830152600e8101546101a0830152600f8101546101c083015260108101546101e08301526011810154610200830152601201549293909260ff8082169382041691620100009091046001600160a01b031690565b6000805460405163a792765f60e01b81526004810185905260248101849052606092916001600160a01b03169063a792765f9060440160006040518083038186803b1580156118b857600080fd5b505afa1580156118cc573d6000803e3d6000fd5b505050506040513d6000823e601f3d908101601f191682016040526118f49190810190613475565b90969095509350505050565b6000600a600260009054906101000a90046001600160a01b03166001600160a01b031663722580b66040518163ffffffff1660e01b815260040160206040518083038186803b15801561195257600080fd5b505afa158015611966573d6000803e3d6000fd5b505050506040513d601f19601f8201168201806040525081019061198a9190613512565b611994919061392f565b905090565b60005460405163c5958af960e01b815260048101849052602481018390526060916001600160a01b03169063c5958af99060440160006040518083038186803b1580156119e557600080fd5b505afa1580156119f9573d6000803e3d6000fd5b505050506040513d6000823e601f3d908101601f1916820160405261102f919081019061357c565b6000805460405163ce5e11bf60e01b815260048101859052602481018490526001600160a01b039091169063ce5e11bf9060440160206040518083038186803b158015611a6d57600080fd5b505afa158015611a81573d6000803e3d6000fd5b505050506040513d601f19601f8201168201806040525081019061102f9190613512565b6006548311158015611ab75750600083115b611af95760405162461bcd60e51b8152602060048201526013602482015272159bdd1948191bd95cc81b9bdd08195e1a5cdd606a1b6044820152606401610738565b6000838152600a60205260409020600581015415611b595760405162461bcd60e51b815260206004820152601d60248201527f566f74652068617320616c7265616479206265656e2074616c6c6965640000006044820152606401610738565b33600090815260138201602052604090205460ff1615611bbb5760405162461bcd60e51b815260206004820152601860248201527f53656e6465722068617320616c726561647920766f74656400000000000000006044820152606401610738565b336000818152601383016020526040808220805460ff1916600117905560035490516370a0823160e01b8152600481019390935290916001600160a01b03909116906370a082319060240160206040518083038186803b158015611c1e57600080fd5b505afa158015611c32573d6000803e3d6000fd5b505050506040513d601f19601f82011682018060405250810190611c569190613512565b600254604051630733bdef60e41b815233600482015291925060009182916001600160a01b03169063733bdef0906024016101006040518083038186803b158015611ca057600080fd5b505afa158015611cb4573d6000803e3d6000fd5b505050506040513d601f19601f82011682018060405250810190611cd8919061361f565b505050505092509250508082611cee9190613917565b611cf89084613917565b92508415611e095782846006016002016000828254611d179190613917565b9091555050600254604051631c3c149f60e11b81523360048201526001600160a01b0390911690633878293e9060240160206040518083038186803b158015611d5f57600080fd5b505afa158015611d73573d6000803e3d6000fd5b505050506040513d601f19601f82011682018060405250810190611d979190613512565b600e85018054600090611dab908490613917565b90915550611dba905033612ed0565b600b85018054600090611dce908490613917565b90915550506005546001600160a01b0316331415611e0457600184600f016002016000828254611dfe9190613917565b90915550505b612011565b8515611f0d5782846006016000016000828254611e269190613917565b9091555050600254604051631c3c149f60e11b81523360048201526001600160a01b0390911690633878293e9060240160206040518083038186803b158015611e6e57600080fd5b505afa158015611e82573d6000803e3d6000fd5b505050506040513d601f19601f82011682018060405250810190611ea69190613512565b600c85018054600090611eba908490613917565b90915550611ec9905033612ed0565b600985018054600090611edd908490613917565b90915550506005546001600160a01b0316331415611e0457600184600f016000016000828254611dfe9190613917565b82846006016001016000828254611f249190613917565b9091555050600254604051631c3c149f60e11b81523360048201526001600160a01b0390911690633878293e9060240160206040518083038186803b158015611f6c57600080fd5b505afa158015611f80573d6000803e3d6000fd5b505050506040513d601f19601f82011682018060405250810190611fa49190613512565b600d85018054600090611fb8908490613917565b90915550611fc7905033612ed0565b600a85018054600090611fdb908490613917565b90915550506005546001600160a01b031633141561201157600184600f01600101600082825461200b9190613917565b90915550505b336000908152600c6020526040812080549161202c83613b08565b90915550506040805188815287151560208201523381830152861515606082015290517fbe6f1c58cc15c8e86d6f0ef23c5a30eb33319af3b57f6b7d9b56ccfa87696b849181900360800190a150505050505050565b6000805460405163703e2a4360e11b815260048101859052602481018490526001600160a01b039091169063e07c54869060440160206040518083038186803b1580156120ce57600080fd5b505afa1580156120e2573d6000803e3d6000fd5b505050506040513d601f19601f8201168201806040525081019061102f91906132c4565b6000806000612114856116e2565b905080612128576000809250925050610fa4565b8061213281613abc565b91506001905060008083816121478a83611a21565b90508881116121625760008097509750505050505050610fa4565b61216c8a84611a21565b90508881111561217b57600094505b841561222d57600261218d8484613917565b612197919061392f565b93506121a38a85611a21565b9050888111156121e45760006121be8b6104a2600188613a79565b90508981116121d057600095506121de565b6121db600186613a79565b92505b50612228565b60006121f58b6104a2876001613917565b90508981111561221857600095508461220d81613b08565b955050809150612226565b612223856001613917565b93505b505b61217b565b6122378a82610fab565b61224d5760018497509750505050505050610fa4565b6122578a82610fab565b801561226257508584105b15612285578361227181613b08565b94505061227e8a85611a21565b905061224d565b858414801561229957506122998a82610fab565b156122b05760008097509750505050505050610fa4565b60018497509750505050505050610fa4565b6001546040516387a475fd60e01b8152600481018390526000918291829182916001600160a01b03909116906387a475fd9060240160206040518083038186803b15801561230f57600080fd5b505afa158015612323573d6000803e3d6000fd5b505050506040513d601f19601f820116820180604052508101906123479190613512565b9050606061235a826103e5426001613917565b945090508361237657600080610194945094509450505061238b565b60006123818261302e565b955060c893505050505b9193909250565b6000818152600a6020526040902060065482118015906123b25750600082115b6123fe5760405162461bcd60e51b815260206004820152601860248201527f44697370757465204944206d7573742062652076616c696400000000000000006044820152606401610738565b601281015460ff16156124535760405162461bcd60e51b815260206004820152601e60248201527f566f74652068617320616c7265616479206265656e20657865637574656400006044820152606401610738565b60008160050154116124a75760405162461bcd60e51b815260206004820152601460248201527f566f7465206d7573742062652074616c6c6965640000000000000000000000006044820152606401610738565b600181015481546000908152600b60205260409020541461250a5760405162461bcd60e51b815260206004820152601660248201527f4d757374206265207468652066696e616c20766f7465000000000000000000006044820152606401610738565b6201518081600501544261251e9190613a79565b10156125885760405162461bcd60e51b815260206004820152603360248201527f31206461792068617320746f20706173732061667465722074616c6c7920746f60448201527220616c6c6f7720666f7220646973707574657360681b6064820152608401610738565b60128101805460ff1916600117905560008281526008602090815260408083208054845260099092528220805491926125c083613abc565b90915550600090508060016012850154610100900460ff1660028111156125f757634e487b7160e01b600052602160045260246000fd5b14156127c15783546000908152600b602052604090205491505b81156127bc5783546000908152600b60205260409020612632600184613a79565b8154811061265057634e487b7160e01b600052603260045260246000fd5b90600052602060002001549050600a60008281526020019081526020016000209350816001141561271357600354601285015460048581015460405163a9059cbb60e01b81526001600160a01b0362010000909404841692810192909252602482015291169063a9059cbb90604401602060405180830381600087803b1580156126d957600080fd5b505af11580156126ed573d6000803e3d6000fd5b505050506040513d601f19601f820116820180604052508101906127119190613459565b505b600354601285015460048087015460405163a9059cbb60e01b81526001600160a01b0362010000909404841692810192909252602482015291169063a9059cbb90604401602060405180830381600087803b15801561277157600080fd5b505af1158015612785573d6000803e3d6000fd5b505050506040513d601f19601f820116820180604052508101906127a99190613459565b50816127b481613abc565b925050612611565b612b16565b60026012850154610100900460ff1660028111156127ef57634e487b7160e01b600052602160045260246000fd5b14156129ab5783546000908152600b602052604090205491505b81156129155783546000908152600b6020526040902061282a600184613a79565b8154811061284857634e487b7160e01b600052603260045260246000fd5b600091825260208083209190910154808352600a9091526040918290206003546012820154600480840154955163a9059cbb60e01b81526001600160a01b03620100009093048316918101919091526024810195909552919750919350169063a9059cbb90604401602060405180830381600087803b1580156128ca57600080fd5b505af11580156128de573d6000803e3d6000fd5b505050506040513d601f19601f820116820180604052508101906129029190613459565b508161290d81613abc565b925050612809565b600380549084015460048086015460405163a9059cbb60e01b81526001600160a01b0393841692810192909252602482015291169063a9059cbb90604401602060405180830381600087803b15801561296d57600080fd5b505af1158015612981573d6000803e3d6000fd5b505050506040513d601f19601f820116820180604052508101906129a59190613459565b50612b16565b60006012850154610100900460ff1660028111156129d957634e487b7160e01b600052602160045260246000fd5b1415612b165783546000908152600b602052604081205492505b8215612a785784546000908152600b60205260409020612a14600185613a79565b81548110612a3257634e487b7160e01b600052603260045260246000fd5b90600052602060002001549150600a60008381526020019081526020016000209450846004015481612a649190613917565b905082612a7081613abc565b9350506129f3565b6004840154612a879082613917565b600380549086015460405163a9059cbb60e01b81526001600160a01b03918216600482015260248101849052929350169063a9059cbb90604401602060405180830381600087803b158015612adb57600080fd5b505af1158015612aef573d6000803e3d6000fd5b505050506040513d601f19601f82011682018060405250810190612b139190613459565b50505b6000858152600a6020526040908190206012015490517f40d231bf91823121de9e1c012d95f835ea5684dc1d93360d9510a30543345da491612b62918891610100900460ff1690613878565b60405180910390a15050505050565b606080600080612b85886104ff888a613a79565b9150915081612bd6576040805160008082526020820190925290612bb9565b6060815260200190600190039081612ba45790505b506040805160008152602081019091529094509250612ec7915050565b6000612be28989610f1c565b909350905082612c35576040805160008082526020820190925290612c17565b6060815260200190600190039081612c025790505b506040805160008152602081019091529095509350612ec792505050565b60008060008867ffffffffffffffff811115612c6157634e487b7160e01b600052604160045260246000fd5b604051908082528060200260200182016040528015612c8a578160200160208202803683370190505b5090505b8883108015612cb157508482612ca5866001613917565b612caf9190613a79565b115b15612d23576000612cc68d6104a28588613a79565b9050612cd28d82610fab565b612d105780828581518110612cf757634e487b7160e01b600052603260045260246000fd5b602090810291909101015283612d0c81613b08565b9450505b82612d1a81613b08565b93505050612c8e565b60008367ffffffffffffffff811115612d4c57634e487b7160e01b600052604160045260246000fd5b604051908082528060200260200182016040528015612d7f57816020015b6060815260200190600190039081612d6a5790505b50905060008467ffffffffffffffff811115612dab57634e487b7160e01b600052604160045260246000fd5b604051908082528060200260200182016040528015612dd4578160200160208202803683370190505b50905060005b85811015612eba578381612def600189613a79565b612df99190613a79565b81518110612e1757634e487b7160e01b600052603260045260246000fd5b6020026020010151828281518110612e3f57634e487b7160e01b600052603260045260246000fd5b602002602001018181525050612e7c8f838381518110612e6f57634e487b7160e01b600052603260045260246000fd5b6020026020010151611999565b838281518110612e9c57634e487b7160e01b600052603260045260246000fd5b60200260200101819052508080612eb290613b08565b915050612dda565b5090985096505050505050505b94509492505050565b6000806000612ee960075461a8c0426103e59190613a79565b9092509050801561302757600082806020019051810190612f0a91906132e0565b905060005b815181101561302457600080838381518110612f3b57634e487b7160e01b600052603260045260246000fd5b60200260200101516001600160a01b031688604051602401612f6c91906001600160a01b0391909116815260200190565b60408051601f198184030181529181526020820180516001600160e01b03166345d6082360e01b17905251612fa19190613703565b6000604051808303816000865af19150503d8060008114612fde576040519150601f19603f3d011682016040523d82523d6000602084013e612fe3565b606091505b5091509150811561300f57808060200190518101906130029190613512565b61300c9088613917565b96505b5050808061301c90613b08565b915050612f0f565b50505b5050919050565b6000805b825181101561308d5782818151811061305b57634e487b7160e01b600052603260045260246000fd5b016020015160f81c61306f83610100613a5a565b6130799190613917565b91508061308581613b08565b915050613032565b50919050565b82805461309f90613ad3565b90600052602060002090601f0160209004810192826130c15760008555613107565b82601f106130da57805160ff1916838001178555613107565b82800160010185558215613107579182015b828111156131075782518255916020019190600101906130ec565b506131139291506131b1565b5090565b82805461312390613ad3565b90600052602060002090601f0160209004810192826131455760008555613107565b82601f106131565780548555613107565b8280016001018555821561310757600052602060002091601f016020900482015b82811115613107578254825591600101919060010190613177565b6040518061022001604052806011906020820280368337509192915050565b5b8082111561311357600081556001016131b2565b600082601f8301126131d6578081fd5b813560206131eb6131e6836138f3565b6138c2565b80838252828201915082860187848660051b890101111561320a578586fd5b855b8581101561323157813561321f81613b67565b8452928401929084019060010161320c565b5090979650505050505050565b600082601f83011261324e578081fd5b815167ffffffffffffffff81111561326857613268613b39565b61327b601f8201601f19166020016138c2565b81815284602083860101111561328f578283fd5b6132a0826020830160208701613a90565b949350505050565b6000602082840312156132b9578081fd5b813561102f81613b4f565b6000602082840312156132d5578081fd5b815161102f81613b4f565b600060208083850312156132f2578182fd5b825167ffffffffffffffff811115613308578283fd5b8301601f81018513613318578283fd5b80516133266131e6826138f3565b80828252848201915084840188868560051b8701011115613345578687fd5b8694505b8385101561337057805161335c81613b4f565b835260019490940193918501918501613349565b50979650505050505050565b600080600060608486031215613390578182fd5b833567ffffffffffffffff808211156133a7578384fd5b818601915086601f8301126133ba578384fd5b813560206133ca6131e6836138f3565b8083825282820191508286018b848660051b89010111156133e9578889fd5b8896505b8487101561340b5780358352600196909601959183019183016133ed565b5097505087013592505080821115613421578384fd5b61342d878388016131c6565b93506040860135915080821115613442578283fd5b5061344f868287016131c6565b9150509250925092565b60006020828403121561346a578081fd5b815161102f81613b67565b600080600060608486031215613489578283fd5b835161349481613b67565b602085015190935067ffffffffffffffff8111156134b0578283fd5b6134bc8682870161323e565b925050604084015190509250925092565b600080604083850312156134df578182fd5b82516134ea81613b67565b6020939093015192949293505050565b60006020828403121561350b578081fd5b5035919050565b600060208284031215613523578081fd5b5051919050565b6000806040838503121561353c578182fd5b50508035926020909101359150565b60008060008060808587031215613560578182fd5b5050823594602084013594506040840135936060013592509050565b60006020828403121561358d578081fd5b815167ffffffffffffffff8111156135a3578182fd5b6132a08482850161323e565b600080604083850312156135c1578182fd5b8235915060208301356135d381613b4f565b809150509250929050565b6000806000606084860312156135f2578081fd5b83359250602084013561360481613b67565b9150604084013561361481613b67565b809150509250925092565b600080600080600080600080610100898b03121561363b578586fd5b505086516020880151604089015160608a015160808b015160a08c015160c08d015160e0909d0151959e949d50929b919a50985090965094509092509050565b6000815180845260208085019450808401835b838110156136aa5781518752958201959082019060010161368e565b509495945050505050565b600081518084526136cd816020860160208601613a90565b601f01601f19169290920160200192915050565b600381106136ff57634e487b7160e01b600052602160045260246000fd5b9052565b60008251613715818460208701613a90565b9190910192915050565b6000604082016040835280855180835260608501915060608160051b86010192506020808801855b8381101561377557605f198887030185526137638683516136b5565b95509382019390820190600101613747565b50508584038187015250505061378b818561367b565b95945050505050565b60006020825261102f602083018461367b565b8581526102a0810160208083018760005b60118110156137d5578151835291830191908301906001016137b8565b505050508415156102408301526137f06102608301856136e1565b6001600160a01b0383166102808301529695505050505050565b60008582528460208301526080604083015261382960808301856136b5565b90506001600160a01b038316606083015295945050505050565b60006020825261102f60208301846136b5565b60006040825261386960408301856136b5565b90508260208301529392505050565b8281526040810161102f60208301846136e1565b848152608081016138a060208301866136e1565b6001600160a01b03808516604084015280841660608401525095945050505050565b604051601f8201601f1916810167ffffffffffffffff811182821017156138eb576138eb613b39565b604052919050565b600067ffffffffffffffff82111561390d5761390d613b39565b5060051b60200190565b6000821982111561392a5761392a613b23565b500190565b60008261394a57634e487b7160e01b81526012600452602481fd5b500490565b80825b60018086116139615750612ec7565b81870482111561397357613973613b23565b8086161561398057918102915b9490941c938002613952565b600061102f60001984846000826139a55750600161102f565b816139b25750600061102f565b81600181146139c857600281146139d2576139ff565b600191505061102f565b60ff8411156139e3576139e3613b23565b6001841b9150848211156139f9576139f9613b23565b5061102f565b5060208310610133831016604e8410600b8410161715613a32575081810a83811115613a2d57613a2d613b23565b61102f565b613a3f848484600161394f565b808604821115613a5157613a51613b23565b02949350505050565b6000816000190483118215151615613a7457613a74613b23565b500290565b600082821015613a8b57613a8b613b23565b500390565b60005b83811015613aab578181015183820152602001613a93565b838111156106175750506000910152565b600081613acb57613acb613b23565b506000190190565b600181811c90821680613ae757607f821691505b6020821081141561308d57634e487b7160e01b600052602260045260246000fd5b6000600019821415613b1c57613b1c613b23565b5060010190565b634e487b7160e01b600052601160045260246000fd5b634e487b7160e01b600052604160045260246000fd5b6001600160a01b0381168114613b6457600080fd5b50565b8015158114613b6457600080fdfea2646970667358221220d430664f5f63987d8c7e884d4eda4cc1876f1977aa1fea560434b0fb9ca3dfe564736f6c63430008030033","opcodes":"PUSH1 0xA0 PUSH1 0x40 MSTORE PUSH1 0x0 PUSH1 0x80 SWAP1 DUP2 MSTORE PUSH3 0x18 SWAP1 PUSH1 0xC0 PUSH3 0x20F JUMP JUMPDEST PUSH1 0x40 DUP1 MLOAD PUSH1 0x1F NOT DUP2 DUP5 SUB ADD DUP2 MSTORE SWAP1 DUP3 SWAP1 MSTORE PUSH3 0x37 SWAP2 PUSH1 0x20 ADD PUSH3 0x224 JUMP JUMPDEST PUSH1 0x40 MLOAD PUSH1 0x20 DUP2 DUP4 SUB SUB DUP2 MSTORE SWAP1 PUSH1 0x40 MSTORE DUP1 MLOAD SWAP1 PUSH1 0x20 ADD KECCAK256 PUSH1 0x7 SSTORE CALLVALUE DUP1 ISZERO PUSH3 0x5D JUMPI PUSH1 0x0 DUP1 REVERT JUMPDEST POP PUSH1 0x40 MLOAD PUSH3 0x3E34 CODESIZE SUB DUP1 PUSH3 0x3E34 DUP4 CODECOPY DUP2 ADD PUSH1 0x40 DUP2 SWAP1 MSTORE PUSH3 0x80 SWAP2 PUSH3 0x183 JUMP JUMPDEST PUSH1 0x0 DUP1 SLOAD PUSH1 0x1 PUSH1 0x1 PUSH1 0xA0 SHL SUB DUP5 AND PUSH1 0x1 PUSH1 0x1 PUSH1 0xA0 SHL SUB NOT SWAP2 DUP3 AND DUP2 OR SWAP1 SWAP3 SSTORE PUSH1 0x2 DUP1 SLOAD SWAP1 SWAP2 AND DUP3 OR SWAP1 SSTORE PUSH1 0x40 DUP1 MLOAD PUSH4 0x21FD35D PUSH1 0xE3 SHL DUP2 MSTORE SWAP1 MLOAD PUSH4 0x10FE9AE8 SWAP2 PUSH1 0x4 DUP1 DUP3 ADD SWAP3 PUSH1 0x20 SWAP3 SWAP1 SWAP2 SWAP1 DUP3 SWAP1 SUB ADD DUP2 DUP7 DUP1 EXTCODESIZE ISZERO DUP1 ISZERO PUSH3 0xE1 JUMPI PUSH1 0x0 DUP1 REVERT JUMPDEST POP GAS STATICCALL ISZERO DUP1 ISZERO PUSH3 0xF6 JUMPI RETURNDATASIZE PUSH1 0x0 DUP1 RETURNDATACOPY RETURNDATASIZE PUSH1 0x0 REVERT JUMPDEST POP POP POP POP PUSH1 0x40 MLOAD RETURNDATASIZE PUSH1 0x1F NOT PUSH1 0x1F DUP3 ADD AND DUP3 ADD DUP1 PUSH1 0x40 MSTORE POP DUP2 ADD SWAP1 PUSH3 0x11C SWAP2 SWAP1 PUSH3 0x15D JUMP JUMPDEST PUSH1 0x3 DUP1 SLOAD PUSH1 0x1 PUSH1 0x1 PUSH1 0xA0 SHL SUB NOT SWAP1 DUP2 AND PUSH1 0x1 PUSH1 0x1 PUSH1 0xA0 SHL SUB SWAP4 DUP5 AND OR SWAP1 SWAP2 SSTORE PUSH1 0x4 DUP1 SLOAD DUP3 AND SWAP5 DUP4 AND SWAP5 SWAP1 SWAP5 OR SWAP1 SWAP4 SSTORE PUSH1 0x5 DUP1 SLOAD SWAP1 SWAP4 AND SWAP2 AND OR SWAP1 SSTORE PUSH3 0x279 JUMP JUMPDEST PUSH1 0x0 PUSH1 0x20 DUP3 DUP5 SUB SLT ISZERO PUSH3 0x16F JUMPI DUP1 DUP2 REVERT JUMPDEST DUP2 MLOAD PUSH3 0x17C DUP2 PUSH3 0x260 JUMP JUMPDEST SWAP4 SWAP3 POP POP POP JUMP JUMPDEST PUSH1 0x0 DUP1 PUSH1 0x40 DUP4 DUP6 SUB SLT ISZERO PUSH3 0x196 JUMPI DUP1 DUP2 REVERT JUMPDEST DUP3 MLOAD PUSH3 0x1A3 DUP2 PUSH3 0x260 JUMP JUMPDEST PUSH1 0x20 DUP5 ADD MLOAD SWAP1 SWAP3 POP PUSH3 0x1B6 DUP2 PUSH3 0x260 JUMP JUMPDEST DUP1 SWAP2 POP POP SWAP3 POP SWAP3 SWAP1 POP JUMP JUMPDEST PUSH1 0x0 DUP2 MLOAD DUP1 DUP5 MSTORE DUP2 JUMPDEST DUP2 DUP2 LT ISZERO PUSH3 0x1E8 JUMPI PUSH1 0x20 DUP2 DUP6 ADD DUP2 ADD MLOAD DUP7 DUP4 ADD DUP3 ADD MSTORE ADD PUSH3 0x1CA JUMP JUMPDEST DUP2 DUP2 GT ISZERO PUSH3 0x1FA JUMPI DUP3 PUSH1 0x20 DUP4 DUP8 ADD ADD MSTORE JUMPDEST POP PUSH1 0x1F ADD PUSH1 0x1F NOT AND SWAP3 SWAP1 SWAP3 ADD PUSH1 0x20 ADD SWAP3 SWAP2 POP POP JUMP JUMPDEST PUSH1 0x0 PUSH1 0x20 DUP3 MSTORE PUSH3 0x17C PUSH1 0x20 DUP4 ADD DUP5 PUSH3 0x1C1 JUMP JUMPDEST PUSH1 0x0 PUSH1 0x40 DUP3 MSTORE PUSH1 0x10 PUSH1 0x40 DUP4 ADD MSTORE PUSH16 0x4175746F706179416464726573736573 PUSH1 0x80 SHL PUSH1 0x60 DUP4 ADD MSTORE PUSH1 0x80 PUSH1 0x20 DUP4 ADD MSTORE PUSH3 0x17C PUSH1 0x80 DUP4 ADD DUP5 PUSH3 0x1C1 JUMP JUMPDEST PUSH1 0x1 PUSH1 0x1 PUSH1 0xA0 SHL SUB DUP2 AND DUP2 EQ PUSH3 0x276 JUMPI PUSH1 0x0 DUP1 REVERT JUMPDEST POP JUMP JUMPDEST PUSH2 0x3BAB DUP1 PUSH3 0x289 PUSH1 0x0 CODECOPY PUSH1 0x0 RETURN INVALID PUSH1 0x80 PUSH1 0x40 MSTORE CALLVALUE DUP1 ISZERO PUSH2 0x10 JUMPI PUSH1 0x0 DUP1 REVERT JUMPDEST POP PUSH1 0x4 CALLDATASIZE LT PUSH2 0x205 JUMPI PUSH1 0x0 CALLDATALOAD PUSH1 0xE0 SHR DUP1 PUSH4 0xA7C438BC GT PUSH2 0x11A JUMPI DUP1 PUSH4 0xDBC0C085 GT PUSH2 0xAD JUMPI DUP1 PUSH4 0xF66F49C3 GT PUSH2 0x7C JUMPI DUP1 PUSH4 0xF66F49C3 EQ PUSH2 0x4F1 JUMPI DUP1 PUSH4 0xF78EEA83 EQ PUSH2 0x504 JUMPI DUP1 PUSH4 0xF98A4ECA EQ PUSH2 0x532 JUMPI DUP1 PUSH4 0xFC0C546A EQ PUSH2 0x545 JUMPI DUP1 PUSH4 0xFCD4A546 EQ PUSH2 0x558 JUMPI PUSH2 0x205 JUMP JUMPDEST DUP1 PUSH4 0xDBC0C085 EQ PUSH2 0x4B0 JUMPI DUP1 PUSH4 0xDF133BCA EQ PUSH2 0x4C3 JUMPI DUP1 PUSH4 0xE07C5486 EQ PUSH2 0x4D6 JUMPI DUP1 PUSH4 0xE7B3387C EQ PUSH2 0x4E9 JUMPI PUSH2 0x205 JUMP JUMPDEST DUP1 PUSH4 0xC5958AF9 GT PUSH2 0xE9 JUMPI DUP1 PUSH4 0xC5958AF9 EQ PUSH2 0x46B JUMPI DUP1 PUSH4 0xC6384071 EQ PUSH2 0x48B JUMPI DUP1 PUSH4 0xCE5E11BF EQ PUSH2 0x494 JUMPI DUP1 PUSH4 0xD8ADD0F6 EQ PUSH2 0x4A7 JUMPI PUSH2 0x205 JUMP JUMPDEST DUP1 PUSH4 0xA7C438BC EQ PUSH2 0x3EA JUMPI DUP1 PUSH4 0xA89AE4BA EQ PUSH2 0x427 JUMPI DUP1 PUSH4 0xBBF3E10B EQ PUSH2 0x43A JUMPI DUP1 PUSH4 0xBDC7D9D8 EQ PUSH2 0x442 JUMPI PUSH2 0x205 JUMP JUMPDEST DUP1 PUSH4 0x44E87F91 GT PUSH2 0x19D JUMPI DUP1 PUSH4 0x64EE3C6D GT PUSH2 0x16C JUMPI DUP1 PUSH4 0x64EE3C6D EQ PUSH2 0x36C JUMPI DUP1 PUSH4 0x77B03E0D EQ PUSH2 0x38D JUMPI DUP1 PUSH4 0x7DC0D1D0 EQ PUSH2 0x3A0 JUMPI DUP1 PUSH4 0x8D824273 EQ PUSH2 0x3B3 JUMPI DUP1 PUSH4 0xA792765F EQ PUSH2 0x3D7 JUMPI PUSH2 0x205 JUMP JUMPDEST DUP1 PUSH4 0x44E87F91 EQ PUSH2 0x300 JUMPI DUP1 PUSH4 0x4D318B0E EQ PUSH2 0x323 JUMPI DUP1 PUSH4 0x4E9FE708 EQ PUSH2 0x336 JUMPI DUP1 PUSH4 0x6169C308 EQ PUSH2 0x349 JUMPI PUSH2 0x205 JUMP JUMPDEST DUP1 PUSH4 0x1F379ACC GT PUSH2 0x1D9 JUMPI DUP1 PUSH4 0x1F379ACC EQ PUSH2 0x290 JUMPI DUP1 PUSH4 0x248638E5 EQ PUSH2 0x2A3 JUMPI DUP1 PUSH4 0x29449085 EQ PUSH2 0x2C3 JUMPI DUP1 PUSH4 0x2AF8AAE0 EQ PUSH2 0x2ED JUMPI PUSH2 0x205 JUMP JUMPDEST DUP1 PUSH3 0xB12190 EQ PUSH2 0x20A JUMPI DUP1 PUSH4 0xE1596EF EQ PUSH2 0x21F JUMPI DUP1 PUSH4 0x193B505B EQ PUSH2 0x252 JUMPI DUP1 PUSH4 0x1959AD5B EQ PUSH2 0x265 JUMPI JUMPDEST PUSH1 0x0 DUP1 REVERT JUMPDEST PUSH2 0x21D PUSH2 0x218 CALLDATASIZE PUSH1 0x4 PUSH2 0x337C JUMP JUMPDEST PUSH2 0x579 JUMP JUMPDEST STOP JUMPDEST PUSH2 0x23F PUSH2 0x22D CALLDATASIZE PUSH1 0x4 PUSH2 0x34FA JUMP JUMPDEST PUSH1 0x0 SWAP1 DUP2 MSTORE PUSH1 0x9 PUSH1 0x20 MSTORE PUSH1 0x40 SWAP1 KECCAK256 SLOAD SWAP1 JUMP JUMPDEST PUSH1 0x40 MLOAD SWAP1 DUP2 MSTORE PUSH1 0x20 ADD JUMPDEST PUSH1 0x40 MLOAD DUP1 SWAP2 SUB SWAP1 RETURN JUMPDEST PUSH2 0x21D PUSH2 0x260 CALLDATASIZE PUSH1 0x4 PUSH2 0x32A8 JUMP JUMPDEST PUSH2 0x61D JUMP JUMPDEST PUSH1 0x0 SLOAD PUSH2 0x278 SWAP1 PUSH1 0x1 PUSH1 0x1 PUSH1 0xA0 SHL SUB AND DUP2 JUMP JUMPDEST PUSH1 0x40 MLOAD PUSH1 0x1 PUSH1 0x1 PUSH1 0xA0 SHL SUB SWAP1 SWAP2 AND DUP2 MSTORE PUSH1 0x20 ADD PUSH2 0x249 JUMP JUMPDEST PUSH2 0x21D PUSH2 0x29E CALLDATASIZE PUSH1 0x4 PUSH2 0x352A JUMP JUMPDEST PUSH2 0x655 JUMP JUMPDEST PUSH2 0x2B6 PUSH2 0x2B1 CALLDATASIZE PUSH1 0x4 PUSH2 0x34FA JUMP JUMPDEST PUSH2 0xEBA JUMP JUMPDEST PUSH1 0x40 MLOAD PUSH2 0x249 SWAP2 SWAP1 PUSH2 0x3794 JUMP JUMPDEST PUSH2 0x2D6 PUSH2 0x2D1 CALLDATASIZE PUSH1 0x4 PUSH2 0x352A JUMP JUMPDEST PUSH2 0xF1C JUMP JUMPDEST PUSH1 0x40 DUP1 MLOAD SWAP3 ISZERO ISZERO DUP4 MSTORE PUSH1 0x20 DUP4 ADD SWAP2 SWAP1 SWAP2 MSTORE ADD PUSH2 0x249 JUMP JUMPDEST PUSH1 0x1 SLOAD PUSH2 0x278 SWAP1 PUSH1 0x1 PUSH1 0x1 PUSH1 0xA0 SHL SUB AND DUP2 JUMP JUMPDEST PUSH2 0x313 PUSH2 0x30E CALLDATASIZE PUSH1 0x4 PUSH2 0x352A JUMP JUMPDEST PUSH2 0xFAB JUMP JUMPDEST PUSH1 0x40 MLOAD SWAP1 ISZERO ISZERO DUP2 MSTORE PUSH1 0x20 ADD PUSH2 0x249 JUMP JUMPDEST PUSH2 0x21D PUSH2 0x331 CALLDATASIZE PUSH1 0x4 PUSH2 0x34FA JUMP JUMPDEST PUSH2 0x1036 JUMP JUMPDEST PUSH2 0x2B6 PUSH2 0x344 CALLDATASIZE PUSH1 0x4 PUSH2 0x32A8 JUMP JUMPDEST PUSH2 0x154B JUMP JUMPDEST PUSH2 0x35C PUSH2 0x357 CALLDATASIZE PUSH1 0x4 PUSH2 0x34FA JUMP JUMPDEST PUSH2 0x15B5 JUMP JUMPDEST PUSH1 0x40 MLOAD PUSH2 0x249 SWAP5 SWAP4 SWAP3 SWAP2 SWAP1 PUSH2 0x380A JUMP JUMPDEST PUSH2 0x37F PUSH2 0x37A CALLDATASIZE PUSH1 0x4 PUSH2 0x352A JUMP JUMPDEST PUSH2 0x1689 JUMP JUMPDEST PUSH1 0x40 MLOAD PUSH2 0x249 SWAP3 SWAP2 SWAP1 PUSH2 0x3856 JUMP JUMPDEST PUSH2 0x23F PUSH2 0x39B CALLDATASIZE PUSH1 0x4 PUSH2 0x34FA JUMP JUMPDEST PUSH2 0x16E2 JUMP JUMPDEST PUSH1 0x2 SLOAD PUSH2 0x278 SWAP1 PUSH1 0x1 PUSH1 0x1 PUSH1 0xA0 SHL SUB AND DUP2 JUMP JUMPDEST PUSH2 0x3C6 PUSH2 0x3C1 CALLDATASIZE PUSH1 0x4 PUSH2 0x34FA JUMP JUMPDEST PUSH2 0x1765 JUMP JUMPDEST PUSH1 0x40 MLOAD PUSH2 0x249 SWAP6 SWAP5 SWAP4 SWAP3 SWAP2 SWAP1 PUSH2 0x37A7 JUMP JUMPDEST PUSH2 0x37F PUSH2 0x3E5 CALLDATASIZE PUSH1 0x4 PUSH2 0x352A JUMP JUMPDEST PUSH2 0x186A JUMP JUMPDEST PUSH2 0x313 PUSH2 0x3F8 CALLDATASIZE PUSH1 0x4 PUSH2 0x35AF JUMP JUMPDEST PUSH1 0x0 DUP3 DUP2 MSTORE PUSH1 0xA PUSH1 0x20 SWAP1 DUP2 MSTORE PUSH1 0x40 DUP1 DUP4 KECCAK256 PUSH1 0x1 PUSH1 0x1 PUSH1 0xA0 SHL SUB DUP6 AND DUP5 MSTORE PUSH1 0x13 ADD SWAP1 SWAP2 MSTORE SWAP1 KECCAK256 SLOAD PUSH1 0xFF AND SWAP3 SWAP2 POP POP JUMP JUMPDEST PUSH1 0x4 SLOAD PUSH2 0x278 SWAP1 PUSH1 0x1 PUSH1 0x1 PUSH1 0xA0 SHL SUB AND DUP2 JUMP JUMPDEST PUSH2 0x23F PUSH2 0x1900 JUMP JUMPDEST PUSH2 0x23F PUSH2 0x450 CALLDATASIZE PUSH1 0x4 PUSH2 0x32A8 JUMP JUMPDEST PUSH1 0x1 PUSH1 0x1 PUSH1 0xA0 SHL SUB AND PUSH1 0x0 SWAP1 DUP2 MSTORE PUSH1 0xC PUSH1 0x20 MSTORE PUSH1 0x40 SWAP1 KECCAK256 SLOAD SWAP1 JUMP JUMPDEST PUSH2 0x47E PUSH2 0x479 CALLDATASIZE PUSH1 0x4 PUSH2 0x352A JUMP JUMPDEST PUSH2 0x1999 JUMP JUMPDEST PUSH1 0x40 MLOAD PUSH2 0x249 SWAP2 SWAP1 PUSH2 0x3843 JUMP JUMPDEST PUSH2 0x23F PUSH1 0x6 SLOAD DUP2 JUMP JUMPDEST PUSH2 0x23F PUSH2 0x4A2 CALLDATASIZE PUSH1 0x4 PUSH2 0x352A JUMP JUMPDEST PUSH2 0x1A21 JUMP JUMPDEST PUSH2 0x23F PUSH1 0x7 SLOAD DUP2 JUMP JUMPDEST PUSH1 0x5 SLOAD PUSH2 0x278 SWAP1 PUSH1 0x1 PUSH1 0x1 PUSH1 0xA0 SHL SUB AND DUP2 JUMP JUMPDEST PUSH2 0x21D PUSH2 0x4D1 CALLDATASIZE PUSH1 0x4 PUSH2 0x35DE JUMP JUMPDEST PUSH2 0x1AA5 JUMP JUMPDEST PUSH2 0x278 PUSH2 0x4E4 CALLDATASIZE PUSH1 0x4 PUSH2 0x352A JUMP JUMPDEST PUSH2 0x2082 JUMP JUMPDEST PUSH1 0x6 SLOAD PUSH2 0x23F JUMP JUMPDEST PUSH2 0x2D6 PUSH2 0x4FF CALLDATASIZE PUSH1 0x4 PUSH2 0x352A JUMP JUMPDEST PUSH2 0x2106 JUMP JUMPDEST PUSH2 0x517 PUSH2 0x512 CALLDATASIZE PUSH1 0x4 PUSH2 0x34FA JUMP JUMPDEST PUSH2 0x22C2 JUMP JUMPDEST PUSH1 0x40 DUP1 MLOAD SWAP4 DUP5 MSTORE PUSH1 0x20 DUP5 ADD SWAP3 SWAP1 SWAP3 MSTORE SWAP1 DUP3 ADD MSTORE PUSH1 0x60 ADD PUSH2 0x249 JUMP JUMPDEST PUSH2 0x21D PUSH2 0x540 CALLDATASIZE PUSH1 0x4 PUSH2 0x34FA JUMP JUMPDEST PUSH2 0x2392 JUMP JUMPDEST PUSH1 0x3 SLOAD PUSH2 0x278 SWAP1 PUSH1 0x1 PUSH1 0x1 PUSH1 0xA0 SHL SUB AND DUP2 JUMP JUMPDEST PUSH2 0x56B PUSH2 0x566 CALLDATASIZE PUSH1 0x4 PUSH2 0x354B JUMP JUMPDEST PUSH2 0x2B71 JUMP JUMPDEST PUSH1 0x40 MLOAD PUSH2 0x249 SWAP3 SWAP2 SWAP1 PUSH2 0x371F JUMP JUMPDEST PUSH1 0x0 JUMPDEST DUP4 MLOAD DUP2 LT ISZERO PUSH2 0x617 JUMPI PUSH2 0x605 DUP5 DUP3 DUP2 MLOAD DUP2 LT PUSH2 0x5A8 JUMPI PUSH4 0x4E487B71 PUSH1 0xE0 SHL PUSH1 0x0 MSTORE PUSH1 0x32 PUSH1 0x4 MSTORE PUSH1 0x24 PUSH1 0x0 REVERT JUMPDEST PUSH1 0x20 MUL PUSH1 0x20 ADD ADD MLOAD DUP5 DUP4 DUP2 MLOAD DUP2 LT PUSH2 0x5D0 JUMPI PUSH4 0x4E487B71 PUSH1 0xE0 SHL PUSH1 0x0 MSTORE PUSH1 0x32 PUSH1 0x4 MSTORE PUSH1 0x24 PUSH1 0x0 REVERT JUMPDEST PUSH1 0x20 MUL PUSH1 0x20 ADD ADD MLOAD DUP5 DUP5 DUP2 MLOAD DUP2 LT PUSH2 0x5F8 JUMPI PUSH4 0x4E487B71 PUSH1 0xE0 SHL PUSH1 0x0 MSTORE PUSH1 0x32 PUSH1 0x4 MSTORE PUSH1 0x24 PUSH1 0x0 REVERT JUMPDEST PUSH1 0x20 MUL PUSH1 0x20 ADD ADD MLOAD PUSH2 0x1AA5 JUMP JUMPDEST DUP1 PUSH2 0x60F DUP2 PUSH2 0x3B08 JUMP JUMPDEST SWAP2 POP POP PUSH2 0x57C JUMP JUMPDEST POP POP POP POP JUMP JUMPDEST PUSH1 0x1 SLOAD PUSH1 0x1 PUSH1 0x1 PUSH1 0xA0 SHL SUB AND ISZERO PUSH2 0x633 JUMPI PUSH1 0x0 DUP1 REVERT JUMPDEST PUSH1 0x1 DUP1 SLOAD PUSH1 0x1 PUSH1 0x1 PUSH1 0xA0 SHL SUB NOT AND PUSH1 0x1 PUSH1 0x1 PUSH1 0xA0 SHL SUB SWAP3 SWAP1 SWAP3 AND SWAP2 SWAP1 SWAP2 OR SWAP1 SSTORE JUMP JUMPDEST PUSH1 0x2 SLOAD PUSH1 0x40 MLOAD PUSH4 0x703E2A43 PUSH1 0xE1 SHL DUP2 MSTORE PUSH1 0x4 DUP2 ADD DUP5 SWAP1 MSTORE PUSH1 0x24 DUP2 ADD DUP4 SWAP1 MSTORE PUSH1 0x0 SWAP2 PUSH1 0x1 PUSH1 0x1 PUSH1 0xA0 SHL SUB AND SWAP1 PUSH4 0xE07C5486 SWAP1 PUSH1 0x44 ADD PUSH1 0x20 PUSH1 0x40 MLOAD DUP1 DUP4 SUB DUP2 DUP7 DUP1 EXTCODESIZE ISZERO DUP1 ISZERO PUSH2 0x6A1 JUMPI PUSH1 0x0 DUP1 REVERT JUMPDEST POP GAS STATICCALL ISZERO DUP1 ISZERO PUSH2 0x6B5 JUMPI RETURNDATASIZE PUSH1 0x0 DUP1 RETURNDATACOPY RETURNDATASIZE PUSH1 0x0 REVERT JUMPDEST POP POP POP POP PUSH1 0x40 MLOAD RETURNDATASIZE PUSH1 0x1F NOT PUSH1 0x1F DUP3 ADD AND DUP3 ADD DUP1 PUSH1 0x40 MSTORE POP DUP2 ADD SWAP1 PUSH2 0x6D9 SWAP2 SWAP1 PUSH2 0x32C4 JUMP JUMPDEST SWAP1 POP PUSH1 0x1 PUSH1 0x1 PUSH1 0xA0 SHL SUB DUP2 AND PUSH2 0x741 JUMPI PUSH1 0x40 MLOAD PUSH3 0x461BCD PUSH1 0xE5 SHL DUP2 MSTORE PUSH1 0x20 PUSH1 0x4 DUP3 ADD MSTORE PUSH1 0x22 PUSH1 0x24 DUP3 ADD MSTORE PUSH32 0x6E6F2076616C75652065786973747320617420676976656E2074696D65737461 PUSH1 0x44 DUP3 ADD MSTORE PUSH2 0x6D7 PUSH1 0xF4 SHL PUSH1 0x64 DUP3 ADD MSTORE PUSH1 0x84 ADD JUMPDEST PUSH1 0x40 MLOAD DUP1 SWAP2 SUB SWAP1 REVERT JUMPDEST PUSH1 0x40 DUP1 MLOAD PUSH1 0x20 DUP1 DUP3 ADD DUP7 SWAP1 MSTORE DUP2 DUP4 ADD DUP6 SWAP1 MSTORE DUP3 MLOAD DUP1 DUP4 SUB DUP5 ADD DUP2 MSTORE PUSH1 0x60 SWAP1 SWAP3 ADD SWAP1 SWAP3 MSTORE DUP1 MLOAD SWAP2 ADD KECCAK256 PUSH1 0x6 SLOAD PUSH1 0x0 SWAP1 PUSH2 0x77A SWAP1 PUSH1 0x1 PUSH2 0x3917 JUMP JUMPDEST PUSH1 0x0 DUP4 DUP2 MSTORE PUSH1 0xB PUSH1 0x20 SWAP1 DUP2 MSTORE PUSH1 0x40 DUP1 DUP4 KECCAK256 DUP1 SLOAD PUSH1 0x1 DUP1 DUP3 ADD DUP4 SSTORE DUP3 DUP7 MSTORE DUP5 DUP7 KECCAK256 SWAP1 SWAP2 ADD DUP7 SWAP1 SSTORE DUP6 DUP6 MSTORE PUSH1 0xA DUP5 MSTORE DUP3 DUP6 KECCAK256 PUSH1 0x8 DUP6 MSTORE DUP4 DUP7 KECCAK256 DUP13 DUP2 SSTORE DUP1 DUP4 ADD DUP13 SWAP1 SSTORE PUSH1 0x3 DUP1 DUP3 ADD DUP1 SLOAD PUSH1 0x1 PUSH1 0x1 PUSH1 0xA0 SHL SUB NOT AND PUSH1 0x1 PUSH1 0x1 PUSH1 0xA0 SHL SUB DUP15 AND SWAP1 DUP2 OR SWAP1 SWAP2 SSTORE DUP12 DUP5 SSTORE PUSH1 0x12 DUP5 ADD DUP1 SLOAD PUSH22 0xFFFFFFFFFFFFFFFFFFFFFFFFFFFFFFFFFFFFFFFF0000 NOT AND CALLER PUSH3 0x10000 MUL OR SWAP1 SSTORE NUMBER SWAP2 DUP5 ADD SWAP2 SWAP1 SWAP2 SSTORE TIMESTAMP PUSH1 0x2 DUP5 ADD SSTORE DUP5 SLOAD DUP4 DUP6 ADD SSTORE DUP8 MSTORE PUSH1 0xD DUP7 MSTORE SWAP4 DUP7 KECCAK256 DUP1 SLOAD SWAP3 DUP4 ADD DUP2 SSTORE DUP7 MSTORE SWAP4 DUP6 KECCAK256 ADD DUP6 SWAP1 SSTORE SWAP4 SWAP5 POP SWAP1 SWAP2 PUSH2 0x840 PUSH2 0x1900 JUMP JUMPDEST DUP5 SLOAD SWAP1 SWAP2 POP PUSH1 0x1 EQ ISZERO PUSH2 0xB4B JUMPI PUSH2 0xA8C0 PUSH2 0x85A DUP10 TIMESTAMP PUSH2 0x3A79 JUMP JUMPDEST LT PUSH2 0x8C2 JUMPI PUSH1 0x40 MLOAD PUSH3 0x461BCD PUSH1 0xE5 SHL DUP2 MSTORE PUSH1 0x20 PUSH1 0x4 DUP3 ADD MSTORE PUSH1 0x32 PUSH1 0x24 DUP3 ADD MSTORE PUSH32 0x44697370757465206D75737420626520737461727465642077697468696E2072 PUSH1 0x44 DUP3 ADD MSTORE PUSH18 0x65706F7274696E67206C6F636B2074696D65 PUSH1 0x70 SHL PUSH1 0x64 DUP3 ADD MSTORE PUSH1 0x84 ADD PUSH2 0x738 JUMP JUMPDEST PUSH1 0x0 DUP10 DUP2 MSTORE PUSH1 0x9 PUSH1 0x20 MSTORE PUSH1 0x40 DUP2 KECCAK256 DUP1 SLOAD SWAP2 PUSH2 0x8DC DUP4 PUSH2 0x3B08 JUMP JUMPDEST SWAP1 SWAP2 SSTORE POP POP PUSH1 0x0 DUP10 DUP2 MSTORE PUSH1 0x9 PUSH1 0x20 MSTORE PUSH1 0x40 SWAP1 KECCAK256 SLOAD PUSH1 0x4 LT ISZERO PUSH2 0x985 JUMPI PUSH1 0x2 PUSH1 0x0 SWAP1 SLOAD SWAP1 PUSH2 0x100 EXP SWAP1 DIV PUSH1 0x1 PUSH1 0x1 PUSH1 0xA0 SHL SUB AND PUSH1 0x1 PUSH1 0x1 PUSH1 0xA0 SHL SUB AND PUSH4 0x722580B6 PUSH1 0x40 MLOAD DUP2 PUSH4 0xFFFFFFFF AND PUSH1 0xE0 SHL DUP2 MSTORE PUSH1 0x4 ADD PUSH1 0x20 PUSH1 0x40 MLOAD DUP1 DUP4 SUB DUP2 DUP7 DUP1 EXTCODESIZE ISZERO DUP1 ISZERO PUSH2 0x946 JUMPI PUSH1 0x0 DUP1 REVERT JUMPDEST POP GAS STATICCALL ISZERO DUP1 ISZERO PUSH2 0x95A JUMPI RETURNDATASIZE PUSH1 0x0 DUP1 RETURNDATACOPY RETURNDATASIZE PUSH1 0x0 REVERT JUMPDEST POP POP POP POP PUSH1 0x40 MLOAD RETURNDATASIZE PUSH1 0x1F NOT PUSH1 0x1F DUP3 ADD AND DUP3 ADD DUP1 PUSH1 0x40 MSTORE POP DUP2 ADD SWAP1 PUSH2 0x97E SWAP2 SWAP1 PUSH2 0x3512 JUMP JUMPDEST SWAP1 POP PUSH2 0x9B8 JUMP JUMPDEST PUSH1 0x0 DUP10 DUP2 MSTORE PUSH1 0x9 PUSH1 0x20 MSTORE PUSH1 0x40 SWAP1 KECCAK256 SLOAD PUSH2 0x9A0 SWAP1 PUSH1 0x1 SWAP1 PUSH2 0x3A79 JUMP JUMPDEST PUSH2 0x9AB SWAP1 PUSH1 0x2 PUSH2 0x398C JUMP JUMPDEST PUSH2 0x9B5 SWAP1 DUP3 PUSH2 0x3A5A JUMP JUMPDEST SWAP1 POP JUMPDEST PUSH1 0x2 SLOAD PUSH1 0x40 MLOAD PUSH4 0x137F0A8D PUSH1 0xE2 SHL DUP2 MSTORE PUSH1 0x1 PUSH1 0x1 PUSH1 0xA0 SHL SUB DUP10 DUP2 AND PUSH1 0x4 DUP4 ADD MSTORE ADDRESS PUSH1 0x24 DUP4 ADD MSTORE SWAP1 SWAP2 AND SWAP1 PUSH4 0x4DFC2A34 SWAP1 PUSH1 0x44 ADD PUSH1 0x20 PUSH1 0x40 MLOAD DUP1 DUP4 SUB DUP2 PUSH1 0x0 DUP8 DUP1 EXTCODESIZE ISZERO DUP1 ISZERO PUSH2 0xA05 JUMPI PUSH1 0x0 DUP1 REVERT JUMPDEST POP GAS CALL ISZERO DUP1 ISZERO PUSH2 0xA19 JUMPI RETURNDATASIZE PUSH1 0x0 DUP1 RETURNDATACOPY RETURNDATASIZE PUSH1 0x0 REVERT JUMPDEST POP POP POP POP PUSH1 0x40 MLOAD RETURNDATASIZE PUSH1 0x1F NOT PUSH1 0x1F DUP3 ADD AND DUP3 ADD DUP1 PUSH1 0x40 MSTORE POP DUP2 ADD SWAP1 PUSH2 0xA3D SWAP2 SWAP1 PUSH2 0x3512 JUMP JUMPDEST PUSH1 0x4 DUP4 DUP2 ADD SWAP2 SWAP1 SWAP2 SSTORE PUSH1 0x2 SLOAD PUSH1 0x40 MLOAD PUSH4 0xC5958AF9 PUSH1 0xE0 SHL DUP2 MSTORE SWAP2 DUP3 ADD DUP12 SWAP1 MSTORE PUSH1 0x24 DUP3 ADD DUP11 SWAP1 MSTORE PUSH1 0x1 PUSH1 0x1 PUSH1 0xA0 SHL SUB AND SWAP1 PUSH4 0xC5958AF9 SWAP1 PUSH1 0x44 ADD PUSH1 0x0 PUSH1 0x40 MLOAD DUP1 DUP4 SUB DUP2 DUP7 DUP1 EXTCODESIZE ISZERO DUP1 ISZERO PUSH2 0xA8E JUMPI PUSH1 0x0 DUP1 REVERT JUMPDEST POP GAS STATICCALL ISZERO DUP1 ISZERO PUSH2 0xAA2 JUMPI RETURNDATASIZE PUSH1 0x0 DUP1 RETURNDATACOPY RETURNDATASIZE PUSH1 0x0 REVERT JUMPDEST POP POP POP POP PUSH1 0x40 MLOAD RETURNDATASIZE PUSH1 0x0 DUP3 RETURNDATACOPY PUSH1 0x1F RETURNDATASIZE SWAP1 DUP2 ADD PUSH1 0x1F NOT AND DUP3 ADD PUSH1 0x40 MSTORE PUSH2 0xACA SWAP2 SWAP1 DUP2 ADD SWAP1 PUSH2 0x357C JUMP JUMPDEST DUP1 MLOAD PUSH2 0xAE0 SWAP2 PUSH1 0x2 DUP6 ADD SWAP2 PUSH1 0x20 SWAP1 SWAP2 ADD SWAP1 PUSH2 0x3093 JUMP JUMPDEST POP PUSH1 0x2 SLOAD PUSH1 0x40 MLOAD PUSH4 0x16D7B73F PUSH1 0xE2 SHL DUP2 MSTORE PUSH1 0x4 DUP2 ADD DUP12 SWAP1 MSTORE PUSH1 0x24 DUP2 ADD DUP11 SWAP1 MSTORE PUSH1 0x1 PUSH1 0x1 PUSH1 0xA0 SHL SUB SWAP1 SWAP2 AND SWAP1 PUSH4 0x5B5EDCFC SWAP1 PUSH1 0x44 ADD PUSH1 0x0 PUSH1 0x40 MLOAD DUP1 DUP4 SUB DUP2 PUSH1 0x0 DUP8 DUP1 EXTCODESIZE ISZERO DUP1 ISZERO PUSH2 0xB2E JUMPI PUSH1 0x0 DUP1 REVERT JUMPDEST POP GAS CALL ISZERO DUP1 ISZERO PUSH2 0xB42 JUMPI RETURNDATASIZE PUSH1 0x0 DUP1 RETURNDATACOPY RETURNDATASIZE PUSH1 0x0 REVERT JUMPDEST POP POP POP POP PUSH2 0xD79 JUMP JUMPDEST DUP4 SLOAD PUSH1 0x0 SWAP1 DUP6 SWAP1 PUSH2 0xB5E SWAP1 PUSH1 0x2 SWAP1 PUSH2 0x3A79 JUMP JUMPDEST DUP2 SLOAD DUP2 LT PUSH2 0xB7C JUMPI PUSH4 0x4E487B71 PUSH1 0xE0 SHL PUSH1 0x0 MSTORE PUSH1 0x32 PUSH1 0x4 MSTORE PUSH1 0x24 PUSH1 0x0 REVERT JUMPDEST SWAP1 PUSH1 0x0 MSTORE PUSH1 0x20 PUSH1 0x0 KECCAK256 ADD SLOAD SWAP1 POP PUSH3 0x15180 PUSH1 0xA PUSH1 0x0 DUP4 DUP2 MSTORE PUSH1 0x20 ADD SWAP1 DUP2 MSTORE PUSH1 0x20 ADD PUSH1 0x0 KECCAK256 PUSH1 0x5 ADD SLOAD TIMESTAMP PUSH2 0xBAF SWAP2 SWAP1 PUSH2 0x3A79 JUMP JUMPDEST LT PUSH2 0xC13 JUMPI PUSH1 0x40 MLOAD PUSH3 0x461BCD PUSH1 0xE5 SHL DUP2 MSTORE PUSH1 0x20 PUSH1 0x4 DUP3 ADD MSTORE PUSH1 0x2E PUSH1 0x24 DUP3 ADD MSTORE PUSH32 0x4E6577206469737075746520726F756E64206D75737420626520737461727465 PUSH1 0x44 DUP3 ADD MSTORE PUSH14 0x642077697468696E206120646179 PUSH1 0x90 SHL PUSH1 0x64 DUP3 ADD MSTORE PUSH1 0x84 ADD PUSH2 0x738 JUMP JUMPDEST DUP5 SLOAD PUSH1 0x4 LT ISZERO PUSH2 0xCAA JUMPI PUSH1 0x2 PUSH1 0x0 SWAP1 SLOAD SWAP1 PUSH2 0x100 EXP SWAP1 DIV PUSH1 0x1 PUSH1 0x1 PUSH1 0xA0 SHL SUB AND PUSH1 0x1 PUSH1 0x1 PUSH1 0xA0 SHL SUB AND PUSH4 0x722580B6 PUSH1 0x40 MLOAD DUP2 PUSH4 0xFFFFFFFF AND PUSH1 0xE0 SHL DUP2 MSTORE PUSH1 0x4 ADD PUSH1 0x20 PUSH1 0x40 MLOAD DUP1 DUP4 SUB DUP2 DUP7 DUP1 EXTCODESIZE ISZERO DUP1 ISZERO PUSH2 0xC6B JUMPI PUSH1 0x0 DUP1 REVERT JUMPDEST POP GAS STATICCALL ISZERO DUP1 ISZERO PUSH2 0xC7F JUMPI RETURNDATASIZE PUSH1 0x0 DUP1 RETURNDATACOPY RETURNDATASIZE PUSH1 0x0 REVERT JUMPDEST POP POP POP POP PUSH1 0x40 MLOAD RETURNDATASIZE PUSH1 0x1F NOT PUSH1 0x1F DUP3 ADD AND DUP3 ADD DUP1 PUSH1 0x40 MSTORE POP DUP2 ADD SWAP1 PUSH2 0xCA3 SWAP2 SWAP1 PUSH2 0x3512 JUMP JUMPDEST SWAP2 POP PUSH2 0xCD0 JUMP JUMPDEST DUP5 SLOAD PUSH2 0xCB8 SWAP1 PUSH1 0x1 SWAP1 PUSH2 0x3A79 JUMP JUMPDEST PUSH2 0xCC3 SWAP1 PUSH1 0x2 PUSH2 0x398C JUMP JUMPDEST PUSH2 0xCCD SWAP1 DUP4 PUSH2 0x3A5A JUMP JUMPDEST SWAP2 POP JUMPDEST PUSH1 0x8 PUSH1 0x0 DUP7 PUSH1 0x0 DUP2 SLOAD DUP2 LT PUSH2 0xCF5 JUMPI PUSH4 0x4E487B71 PUSH1 0xE0 SHL PUSH1 0x0 MSTORE PUSH1 0x32 PUSH1 0x4 MSTORE PUSH1 0x24 PUSH1 0x0 REVERT JUMPDEST SWAP1 PUSH1 0x0 MSTORE PUSH1 0x20 PUSH1 0x0 KECCAK256 ADD SLOAD DUP2 MSTORE PUSH1 0x20 ADD SWAP1 DUP2 MSTORE PUSH1 0x20 ADD PUSH1 0x0 KECCAK256 PUSH1 0x4 ADD SLOAD DUP4 PUSH1 0x4 ADD DUP2 SWAP1 SSTORE POP PUSH1 0x8 PUSH1 0x0 DUP7 PUSH1 0x0 DUP2 SLOAD DUP2 LT PUSH2 0xD3F JUMPI PUSH4 0x4E487B71 PUSH1 0xE0 SHL PUSH1 0x0 MSTORE PUSH1 0x32 PUSH1 0x4 MSTORE PUSH1 0x24 PUSH1 0x0 REVERT JUMPDEST SWAP1 PUSH1 0x0 MSTORE PUSH1 0x20 PUSH1 0x0 KECCAK256 ADD SLOAD DUP2 MSTORE PUSH1 0x20 ADD SWAP1 DUP2 MSTORE PUSH1 0x20 ADD PUSH1 0x0 KECCAK256 PUSH1 0x2 ADD DUP4 PUSH1 0x2 ADD SWAP1 DUP1 SLOAD PUSH2 0xD6B SWAP1 PUSH2 0x3AD3 JUMP JUMPDEST PUSH2 0xD76 SWAP3 SWAP2 SWAP1 PUSH2 0x3117 JUMP JUMPDEST POP POP JUMPDEST PUSH1 0x4 DUP4 ADD DUP2 SWAP1 SSTORE PUSH1 0x6 DUP1 SLOAD SWAP1 PUSH1 0x0 PUSH2 0xD90 DUP4 PUSH2 0x3B08 JUMP JUMPDEST SWAP1 SWAP2 SSTORE POP POP PUSH1 0x3 SLOAD PUSH1 0x40 MLOAD PUSH4 0x23B872DD PUSH1 0xE0 SHL DUP2 MSTORE CALLER PUSH1 0x4 DUP3 ADD MSTORE ADDRESS PUSH1 0x24 DUP3 ADD MSTORE PUSH1 0x44 DUP2 ADD DUP4 SWAP1 MSTORE PUSH1 0x1 PUSH1 0x1 PUSH1 0xA0 SHL SUB SWAP1 SWAP2 AND SWAP1 PUSH4 0x23B872DD SWAP1 PUSH1 0x64 ADD PUSH1 0x20 PUSH1 0x40 MLOAD DUP1 DUP4 SUB DUP2 PUSH1 0x0 DUP8 DUP1 EXTCODESIZE ISZERO DUP1 ISZERO PUSH2 0xDE7 JUMPI PUSH1 0x0 DUP1 REVERT JUMPDEST POP GAS CALL ISZERO DUP1 ISZERO PUSH2 0xDFB JUMPI RETURNDATASIZE PUSH1 0x0 DUP1 RETURNDATACOPY RETURNDATASIZE PUSH1 0x0 REVERT JUMPDEST POP POP POP POP PUSH1 0x40 MLOAD RETURNDATASIZE PUSH1 0x1F NOT PUSH1 0x1F DUP3 ADD AND DUP3 ADD DUP1 PUSH1 0x40 MSTORE POP DUP2 ADD SWAP1 PUSH2 0xE1F SWAP2 SWAP1 PUSH2 0x3459 JUMP JUMPDEST PUSH2 0xE5E JUMPI PUSH1 0x40 MLOAD PUSH3 0x461BCD PUSH1 0xE5 SHL DUP2 MSTORE PUSH1 0x20 PUSH1 0x4 DUP3 ADD MSTORE PUSH1 0x10 PUSH1 0x24 DUP3 ADD MSTORE PUSH16 0x119959481B5D5CDD081899481C185A59 PUSH1 0x82 SHL PUSH1 0x44 DUP3 ADD MSTORE PUSH1 0x64 ADD PUSH2 0x738 JUMP JUMPDEST PUSH1 0x40 DUP1 MLOAD DUP7 DUP2 MSTORE PUSH1 0x20 DUP2 ADD DUP12 SWAP1 MSTORE SWAP1 DUP2 ADD DUP10 SWAP1 MSTORE PUSH1 0x1 PUSH1 0x1 PUSH1 0xA0 SHL SUB DUP9 AND PUSH1 0x60 DUP3 ADD MSTORE PUSH32 0x12B7317353CD7CAA8EAE8057464E3DE356C1429D814FB3421797ECCB19043044 SWAP1 PUSH1 0x80 ADD JUMPDEST PUSH1 0x40 MLOAD DUP1 SWAP2 SUB SWAP1 LOG1 POP POP POP POP POP POP POP POP POP JUMP JUMPDEST PUSH1 0x0 DUP2 DUP2 MSTORE PUSH1 0xB PUSH1 0x20 SWAP1 DUP2 MSTORE PUSH1 0x40 SWAP2 DUP3 SWAP1 KECCAK256 DUP1 SLOAD DUP4 MLOAD DUP2 DUP5 MUL DUP2 ADD DUP5 ADD SWAP1 SWAP5 MSTORE DUP1 DUP5 MSTORE PUSH1 0x60 SWAP4 SWAP3 DUP4 ADD DUP3 DUP3 DUP1 ISZERO PUSH2 0xF10 JUMPI PUSH1 0x20 MUL DUP3 ADD SWAP2 SWAP1 PUSH1 0x0 MSTORE PUSH1 0x20 PUSH1 0x0 KECCAK256 SWAP1 JUMPDEST DUP2 SLOAD DUP2 MSTORE PUSH1 0x20 ADD SWAP1 PUSH1 0x1 ADD SWAP1 DUP1 DUP4 GT PUSH2 0xEFC JUMPI JUMPDEST POP POP POP POP POP SWAP1 POP SWAP2 SWAP1 POP JUMP JUMPDEST PUSH1 0x0 DUP1 SLOAD PUSH1 0x40 MLOAD PUSH4 0x29449085 PUSH1 0xE0 SHL DUP2 MSTORE PUSH1 0x4 DUP2 ADD DUP6 SWAP1 MSTORE PUSH1 0x24 DUP2 ADD DUP5 SWAP1 MSTORE DUP3 SWAP2 PUSH1 0x1 PUSH1 0x1 PUSH1 0xA0 SHL SUB AND SWAP1 PUSH4 0x29449085 SWAP1 PUSH1 0x44 ADD PUSH1 0x40 DUP1 MLOAD DUP1 DUP4 SUB DUP2 DUP7 DUP1 EXTCODESIZE ISZERO DUP1 ISZERO PUSH2 0xF67 JUMPI PUSH1 0x0 DUP1 REVERT JUMPDEST POP GAS STATICCALL ISZERO DUP1 ISZERO PUSH2 0xF7B JUMPI RETURNDATASIZE PUSH1 0x0 DUP1 RETURNDATACOPY RETURNDATASIZE PUSH1 0x0 REVERT JUMPDEST POP POP POP POP PUSH1 0x40 MLOAD RETURNDATASIZE PUSH1 0x1F NOT PUSH1 0x1F DUP3 ADD AND DUP3 ADD DUP1 PUSH1 0x40 MSTORE POP DUP2 ADD SWAP1 PUSH2 0xF9F SWAP2 SWAP1 PUSH2 0x34CD JUMP JUMPDEST SWAP2 POP SWAP2 POP JUMPDEST SWAP3 POP SWAP3 SWAP1 POP JUMP JUMPDEST PUSH1 0x0 DUP1 SLOAD PUSH1 0x40 MLOAD PUSH4 0x44E87F91 PUSH1 0xE0 SHL DUP2 MSTORE PUSH1 0x4 DUP2 ADD DUP6 SWAP1 MSTORE PUSH1 0x24 DUP2 ADD DUP5 SWAP1 MSTORE PUSH1 0x1 PUSH1 0x1 PUSH1 0xA0 SHL SUB SWAP1 SWAP2 AND SWAP1 PUSH4 0x44E87F91 SWAP1 PUSH1 0x44 ADD PUSH1 0x20 PUSH1 0x40 MLOAD DUP1 DUP4 SUB DUP2 DUP7 DUP1 EXTCODESIZE ISZERO DUP1 ISZERO PUSH2 0xFF7 JUMPI PUSH1 0x0 DUP1 REVERT JUMPDEST POP GAS STATICCALL ISZERO DUP1 ISZERO PUSH2 0x100B JUMPI RETURNDATASIZE PUSH1 0x0 DUP1 RETURNDATACOPY RETURNDATASIZE PUSH1 0x0 REVERT JUMPDEST POP POP POP POP PUSH1 0x40 MLOAD RETURNDATASIZE PUSH1 0x1F NOT PUSH1 0x1F DUP3 ADD AND DUP3 ADD DUP1 PUSH1 0x40 MSTORE POP DUP2 ADD SWAP1 PUSH2 0x102F SWAP2 SWAP1 PUSH2 0x3459 JUMP JUMPDEST SWAP4 SWAP3 POP POP POP JUMP JUMPDEST PUSH1 0x0 DUP2 DUP2 MSTORE PUSH1 0xA PUSH1 0x20 MSTORE PUSH1 0x40 SWAP1 KECCAK256 PUSH1 0x5 DUP2 ADD SLOAD ISZERO PUSH2 0x1096 JUMPI PUSH1 0x40 MLOAD PUSH3 0x461BCD PUSH1 0xE5 SHL DUP2 MSTORE PUSH1 0x20 PUSH1 0x4 DUP3 ADD MSTORE PUSH1 0x1D PUSH1 0x24 DUP3 ADD MSTORE PUSH32 0x566F74652068617320616C7265616479206265656E2074616C6C696564000000 PUSH1 0x44 DUP3 ADD MSTORE PUSH1 0x64 ADD PUSH2 0x738 JUMP JUMPDEST PUSH1 0x6 SLOAD DUP3 GT ISZERO DUP1 ISZERO PUSH2 0x10A8 JUMPI POP PUSH1 0x0 DUP3 GT JUMPDEST PUSH2 0x10EA JUMPI PUSH1 0x40 MLOAD PUSH3 0x461BCD PUSH1 0xE5 SHL DUP2 MSTORE PUSH1 0x20 PUSH1 0x4 DUP3 ADD MSTORE PUSH1 0x13 PUSH1 0x24 DUP3 ADD MSTORE PUSH19 0x159BDD1948191BD95CC81B9BDD08195E1A5CDD PUSH1 0x6A SHL PUSH1 0x44 DUP3 ADD MSTORE PUSH1 0x64 ADD PUSH2 0x738 JUMP JUMPDEST PUSH1 0x1 DUP2 ADD SLOAD PUSH2 0x10FC SWAP1 PUSH3 0x15180 PUSH2 0x3A5A JUMP JUMPDEST PUSH1 0x2 DUP3 ADD SLOAD PUSH2 0x110B SWAP1 TIMESTAMP PUSH2 0x3A79 JUMP JUMPDEST LT ISZERO DUP1 PUSH2 0x112A JUMPI POP PUSH3 0x7E900 DUP2 PUSH1 0x2 ADD SLOAD TIMESTAMP PUSH2 0x1127 SWAP2 SWAP1 PUSH2 0x3A79 JUMP JUMPDEST LT ISZERO JUMPDEST PUSH2 0x1176 JUMPI PUSH1 0x40 MLOAD PUSH3 0x461BCD PUSH1 0xE5 SHL DUP2 MSTORE PUSH1 0x20 PUSH1 0x4 DUP3 ADD MSTORE PUSH1 0x1F PUSH1 0x24 DUP3 ADD MSTORE PUSH32 0x54696D6520666F7220766F74696E6720686173206E6F7420656C617073656400 PUSH1 0x44 DUP3 ADD MSTORE PUSH1 0x64 ADD PUSH2 0x738 JUMP JUMPDEST PUSH1 0x8 DUP2 ADD SLOAD PUSH1 0x7 DUP3 ADD SLOAD PUSH1 0x6 DUP4 ADD SLOAD PUSH1 0x0 SWAP3 SWAP2 PUSH2 0x1192 SWAP2 PUSH2 0x3917 JUMP JUMPDEST PUSH2 0x119C SWAP2 SWAP1 PUSH2 0x3917 JUMP JUMPDEST PUSH1 0xE DUP4 ADD SLOAD PUSH1 0xD DUP5 ADD SLOAD PUSH1 0xC DUP6 ADD SLOAD SWAP3 SWAP4 POP PUSH1 0x0 SWAP3 PUSH2 0x11BB SWAP2 SWAP1 PUSH2 0x3917 JUMP JUMPDEST PUSH2 0x11C5 SWAP2 SWAP1 PUSH2 0x3917 JUMP JUMPDEST PUSH1 0x11 DUP5 ADD SLOAD PUSH1 0x10 DUP6 ADD SLOAD PUSH1 0xF DUP7 ADD SLOAD SWAP3 SWAP4 POP PUSH1 0x0 SWAP3 PUSH2 0x11E4 SWAP2 SWAP1 PUSH2 0x3917 JUMP JUMPDEST PUSH2 0x11EE SWAP2 SWAP1 PUSH2 0x3917 JUMP JUMPDEST PUSH1 0xB DUP6 ADD SLOAD PUSH1 0xA DUP7 ADD SLOAD PUSH1 0x9 DUP8 ADD SLOAD SWAP3 SWAP4 POP PUSH1 0x0 SWAP3 PUSH2 0x120D SWAP2 SWAP1 PUSH2 0x3917 JUMP JUMPDEST PUSH2 0x1217 SWAP2 SWAP1 PUSH2 0x3917 JUMP JUMPDEST SWAP1 POP DUP4 PUSH2 0x122C JUMPI DUP4 PUSH2 0x1228 DUP2 PUSH2 0x3B08 JUMP JUMPDEST SWAP5 POP POP JUMPDEST DUP3 PUSH2 0x123F JUMPI DUP3 PUSH2 0x123B DUP2 PUSH2 0x3B08 JUMP JUMPDEST SWAP4 POP POP JUMPDEST DUP2 PUSH2 0x1252 JUMPI DUP2 PUSH2 0x124E DUP2 PUSH2 0x3B08 JUMP JUMPDEST SWAP3 POP POP JUMPDEST DUP1 PUSH2 0x1265 JUMPI DUP1 PUSH2 0x1261 DUP2 PUSH2 0x3B08 JUMP JUMPDEST SWAP2 POP POP JUMPDEST PUSH1 0x9 DUP6 ADD SLOAD PUSH1 0x0 SWAP1 DUP3 SWAP1 PUSH2 0x1281 SWAP1 PUSH8 0xDE0B6B3A7640000 PUSH2 0x3A5A JUMP JUMPDEST PUSH2 0x128B SWAP2 SWAP1 PUSH2 0x392F JUMP JUMPDEST PUSH1 0xF DUP8 ADD SLOAD DUP5 SWAP1 PUSH2 0x12A4 SWAP1 PUSH8 0xDE0B6B3A7640000 PUSH2 0x3A5A JUMP JUMPDEST PUSH2 0x12AE SWAP2 SWAP1 PUSH2 0x392F JUMP JUMPDEST PUSH1 0xC DUP9 ADD SLOAD DUP7 SWAP1 PUSH2 0x12C7 SWAP1 PUSH8 0xDE0B6B3A7640000 PUSH2 0x3A5A JUMP JUMPDEST PUSH2 0x12D1 SWAP2 SWAP1 PUSH2 0x392F JUMP JUMPDEST PUSH1 0x6 DUP10 ADD SLOAD DUP9 SWAP1 PUSH2 0x12EA SWAP1 PUSH8 0xDE0B6B3A7640000 PUSH2 0x3A5A JUMP JUMPDEST PUSH2 0x12F4 SWAP2 SWAP1 PUSH2 0x392F JUMP JUMPDEST PUSH2 0x12FE SWAP2 SWAP1 PUSH2 0x3917 JUMP JUMPDEST PUSH2 0x1308 SWAP2 SWAP1 PUSH2 0x3917 JUMP JUMPDEST PUSH2 0x1312 SWAP2 SWAP1 PUSH2 0x3917 JUMP JUMPDEST SWAP1 POP PUSH1 0x0 DUP3 DUP8 PUSH1 0x9 ADD PUSH1 0x1 ADD SLOAD PUSH8 0xDE0B6B3A7640000 PUSH2 0x1332 SWAP2 SWAP1 PUSH2 0x3A5A JUMP JUMPDEST PUSH2 0x133C SWAP2 SWAP1 PUSH2 0x392F JUMP JUMPDEST PUSH1 0x10 DUP9 ADD SLOAD DUP6 SWAP1 PUSH2 0x1355 SWAP1 PUSH8 0xDE0B6B3A7640000 PUSH2 0x3A5A JUMP JUMPDEST PUSH2 0x135F SWAP2 SWAP1 PUSH2 0x392F JUMP JUMPDEST PUSH1 0xD DUP10 ADD SLOAD DUP8 SWAP1 PUSH2 0x1378 SWAP1 PUSH8 0xDE0B6B3A7640000 PUSH2 0x3A5A JUMP JUMPDEST PUSH2 0x1382 SWAP2 SWAP1 PUSH2 0x392F JUMP JUMPDEST PUSH1 0x7 DUP11 ADD SLOAD DUP10 SWAP1 PUSH2 0x139B SWAP1 PUSH8 0xDE0B6B3A7640000 PUSH2 0x3A5A JUMP JUMPDEST PUSH2 0x13A5 SWAP2 SWAP1 PUSH2 0x392F JUMP JUMPDEST PUSH2 0x13AF SWAP2 SWAP1 PUSH2 0x3917 JUMP JUMPDEST PUSH2 0x13B9 SWAP2 SWAP1 PUSH2 0x3917 JUMP JUMPDEST PUSH2 0x13C3 SWAP2 SWAP1 PUSH2 0x3917 JUMP JUMPDEST SWAP1 POP PUSH1 0x0 DUP4 DUP9 PUSH1 0x9 ADD PUSH1 0x2 ADD SLOAD PUSH8 0xDE0B6B3A7640000 PUSH2 0x13E3 SWAP2 SWAP1 PUSH2 0x3A5A JUMP JUMPDEST PUSH2 0x13ED SWAP2 SWAP1 PUSH2 0x392F JUMP JUMPDEST PUSH1 0x11 DUP10 ADD SLOAD DUP7 SWAP1 PUSH2 0x1406 SWAP1 PUSH8 0xDE0B6B3A7640000 PUSH2 0x3A5A JUMP JUMPDEST PUSH2 0x1410 SWAP2 SWAP1 PUSH2 0x392F JUMP JUMPDEST PUSH1 0xE DUP11 ADD SLOAD DUP9 SWAP1 PUSH2 0x1429 SWAP1 PUSH8 0xDE0B6B3A7640000 PUSH2 0x3A5A JUMP JUMPDEST PUSH2 0x1433 SWAP2 SWAP1 PUSH2 0x392F JUMP JUMPDEST PUSH1 0x8 DUP12 ADD SLOAD DUP11 SWAP1 PUSH2 0x144C SWAP1 PUSH8 0xDE0B6B3A7640000 PUSH2 0x3A5A JUMP JUMPDEST PUSH2 0x1456 SWAP2 SWAP1 PUSH2 0x392F JUMP JUMPDEST PUSH2 0x1460 SWAP2 SWAP1 PUSH2 0x3917 JUMP JUMPDEST PUSH2 0x146A SWAP2 SWAP1 PUSH2 0x3917 JUMP JUMPDEST PUSH2 0x1474 SWAP2 SWAP1 PUSH2 0x3917 JUMP JUMPDEST SWAP1 POP PUSH2 0x1480 DUP2 DUP4 PUSH2 0x3917 JUMP JUMPDEST DUP4 GT ISZERO PUSH2 0x14A5 JUMPI PUSH1 0x12 DUP9 ADD DUP1 SLOAD PUSH1 0x1 SWAP2 SWAP1 PUSH2 0xFF00 NOT AND PUSH2 0x100 DUP4 JUMPDEST MUL OR SWAP1 SSTORE POP PUSH2 0x14E0 JUMP JUMPDEST PUSH2 0x14AF DUP2 DUP5 PUSH2 0x3917 JUMP JUMPDEST DUP3 GT ISZERO PUSH2 0x14CE JUMPI PUSH1 0x12 DUP9 ADD DUP1 SLOAD PUSH1 0x0 SWAP2 SWAP1 PUSH2 0xFF00 NOT AND PUSH2 0x100 DUP4 PUSH2 0x149B JUMP JUMPDEST PUSH1 0x12 DUP9 ADD DUP1 SLOAD PUSH2 0xFF00 NOT AND PUSH2 0x200 OR SWAP1 SSTORE JUMPDEST TIMESTAMP PUSH1 0x5 DUP10 ADD SSTORE PUSH1 0x12 DUP9 ADD SLOAD PUSH1 0x0 DUP11 DUP2 MSTORE PUSH1 0x8 PUSH1 0x20 MSTORE PUSH1 0x40 SWAP1 DUP2 SWAP1 KECCAK256 PUSH1 0x3 ADD SLOAD SWAP1 MLOAD PUSH32 0xA2D4E500801849D40AD00F0F12BA92A5263F83EC68946E647BE95CFBE581C7B6 SWAP3 PUSH2 0xEA7 SWAP3 DUP14 SWAP3 PUSH1 0xFF PUSH2 0x100 DUP5 DIV AND SWAP3 PUSH1 0x1 PUSH1 0x1 PUSH1 0xA0 SHL SUB PUSH3 0x10000 SWAP1 SWAP2 DIV DUP2 AND SWAP3 AND SWAP1 PUSH2 0x388C JUMP JUMPDEST PUSH1 0x1 PUSH1 0x1 PUSH1 0xA0 SHL SUB DUP2 AND PUSH1 0x0 SWAP1 DUP2 MSTORE PUSH1 0xD PUSH1 0x20 SWAP1 DUP2 MSTORE PUSH1 0x40 SWAP2 DUP3 SWAP1 KECCAK256 DUP1 SLOAD DUP4 MLOAD DUP2 DUP5 MUL DUP2 ADD DUP5 ADD SWAP1 SWAP5 MSTORE DUP1 DUP5 MSTORE PUSH1 0x60 SWAP4 SWAP3 DUP4 ADD DUP3 DUP3 DUP1 ISZERO PUSH2 0xF10 JUMPI PUSH1 0x20 MUL DUP3 ADD SWAP2 SWAP1 PUSH1 0x0 MSTORE PUSH1 0x20 PUSH1 0x0 KECCAK256 SWAP1 DUP2 SLOAD DUP2 MSTORE PUSH1 0x20 ADD SWAP1 PUSH1 0x1 ADD SWAP1 DUP1 DUP4 GT PUSH2 0xEFC JUMPI POP POP POP POP POP SWAP1 POP SWAP2 SWAP1 POP JUMP JUMPDEST PUSH1 0x0 DUP2 DUP2 MSTORE PUSH1 0x8 PUSH1 0x20 MSTORE PUSH1 0x40 DUP2 KECCAK256 DUP1 SLOAD PUSH1 0x1 DUP3 ADD SLOAD PUSH1 0x3 DUP4 ADD SLOAD PUSH1 0x2 DUP5 ADD DUP1 SLOAD DUP7 SWAP6 PUSH1 0x60 SWAP6 DUP8 SWAP6 SWAP2 SWAP5 SWAP1 SWAP4 SWAP2 SWAP3 PUSH1 0x1 PUSH1 0x1 PUSH1 0xA0 SHL SUB SWAP1 SWAP2 AND SWAP1 DUP3 SWAP1 PUSH2 0x15F9 SWAP1 PUSH2 0x3AD3 JUMP JUMPDEST DUP1 PUSH1 0x1F ADD PUSH1 0x20 DUP1 SWAP2 DIV MUL PUSH1 0x20 ADD PUSH1 0x40 MLOAD SWAP1 DUP2 ADD PUSH1 0x40 MSTORE DUP1 SWAP3 SWAP2 SWAP1 DUP2 DUP2 MSTORE PUSH1 0x20 ADD DUP3 DUP1 SLOAD PUSH2 0x1625 SWAP1 PUSH2 0x3AD3 JUMP JUMPDEST DUP1 ISZERO PUSH2 0x1672 JUMPI DUP1 PUSH1 0x1F LT PUSH2 0x1647 JUMPI PUSH2 0x100 DUP1 DUP4 SLOAD DIV MUL DUP4 MSTORE SWAP2 PUSH1 0x20 ADD SWAP2 PUSH2 0x1672 JUMP JUMPDEST DUP3 ADD SWAP2 SWAP1 PUSH1 0x0 MSTORE PUSH1 0x20 PUSH1 0x0 KECCAK256 SWAP1 JUMPDEST DUP2 SLOAD DUP2 MSTORE SWAP1 PUSH1 0x1 ADD SWAP1 PUSH1 0x20 ADD DUP1 DUP4 GT PUSH2 0x1655 JUMPI DUP3 SWAP1 SUB PUSH1 0x1F AND DUP3 ADD SWAP2 JUMPDEST POP POP POP POP POP SWAP2 POP SWAP5 POP SWAP5 POP SWAP5 POP SWAP5 POP POP SWAP2 SWAP4 POP SWAP2 SWAP4 JUMP JUMPDEST PUSH1 0x60 PUSH1 0x0 DUP1 PUSH1 0x0 PUSH2 0x169A DUP7 DUP7 PUSH2 0x2106 JUMP JUMPDEST SWAP2 POP SWAP2 POP DUP2 PUSH2 0x16C1 JUMPI PUSH1 0x0 PUSH1 0x40 MLOAD DUP1 PUSH1 0x20 ADD PUSH1 0x40 MSTORE DUP1 PUSH1 0x0 DUP2 MSTORE POP SWAP1 SWAP4 POP SWAP4 POP POP POP PUSH2 0xFA4 JUMP JUMPDEST PUSH2 0x16CB DUP7 DUP3 PUSH2 0x1A21 JUMP JUMPDEST SWAP3 POP PUSH2 0x16D7 DUP7 DUP5 PUSH2 0x1999 JUMP JUMPDEST SWAP4 POP POP POP SWAP3 POP SWAP3 SWAP1 POP JUMP JUMPDEST PUSH1 0x0 DUP1 SLOAD PUSH1 0x40 MLOAD PUSH4 0x77B03E0D PUSH1 0xE0 SHL DUP2 MSTORE PUSH1 0x4 DUP2 ADD DUP5 SWAP1 MSTORE PUSH1 0x1 PUSH1 0x1 PUSH1 0xA0 SHL SUB SWAP1 SWAP2 AND SWAP1 PUSH4 0x77B03E0D SWAP1 PUSH1 0x24 ADD PUSH1 0x20 PUSH1 0x40 MLOAD DUP1 DUP4 SUB DUP2 DUP7 DUP1 EXTCODESIZE ISZERO DUP1 ISZERO PUSH2 0x1727 JUMPI PUSH1 0x0 DUP1 REVERT JUMPDEST POP GAS STATICCALL ISZERO DUP1 ISZERO PUSH2 0x173B JUMPI RETURNDATASIZE PUSH1 0x0 DUP1 RETURNDATACOPY RETURNDATASIZE PUSH1 0x0 REVERT JUMPDEST POP POP POP POP PUSH1 0x40 MLOAD RETURNDATASIZE PUSH1 0x1F NOT PUSH1 0x1F DUP3 ADD AND DUP3 ADD DUP1 PUSH1 0x40 MSTORE POP DUP2 ADD SWAP1 PUSH2 0x175F SWAP2 SWAP1 PUSH2 0x3512 JUMP JUMPDEST SWAP3 SWAP2 POP POP JUMP JUMPDEST PUSH1 0x0 PUSH2 0x176F PUSH2 0x3192 JUMP JUMPDEST POP POP PUSH1 0x0 SWAP1 DUP2 MSTORE PUSH1 0xA PUSH1 0x20 DUP2 DUP2 MSTORE PUSH1 0x40 SWAP3 DUP4 SWAP1 KECCAK256 DUP1 SLOAD DUP5 MLOAD PUSH2 0x220 DUP2 ADD DUP7 MSTORE PUSH1 0x1 DUP4 ADD SLOAD DUP2 MSTORE PUSH1 0x2 DUP4 ADD SLOAD SWAP4 DUP2 ADD SWAP4 SWAP1 SWAP4 MSTORE PUSH1 0x3 DUP3 ADD SLOAD SWAP5 DUP4 ADD SWAP5 SWAP1 SWAP5 MSTORE PUSH1 0x4 DUP2 ADD SLOAD PUSH1 0x60 DUP4 ADD MSTORE PUSH1 0x5 DUP2 ADD SLOAD PUSH1 0x80 DUP4 ADD MSTORE PUSH1 0x6 DUP2 ADD SLOAD PUSH1 0xA0 DUP4 ADD MSTORE PUSH1 0x7 DUP2 ADD SLOAD PUSH1 0xC0 DUP4 ADD MSTORE PUSH1 0x8 DUP2 ADD SLOAD PUSH1 0xE0 DUP4 ADD MSTORE PUSH1 0x9 DUP2 ADD SLOAD PUSH2 0x100 DUP1 DUP5 ADD SWAP2 SWAP1 SWAP2 MSTORE SWAP3 DUP2 ADD SLOAD PUSH2 0x120 DUP4 ADD MSTORE PUSH1 0xB DUP2 ADD SLOAD PUSH2 0x140 DUP4 ADD MSTORE PUSH1 0xC DUP2 ADD SLOAD PUSH2 0x160 DUP4 ADD MSTORE PUSH1 0xD DUP2 ADD SLOAD PUSH2 0x180 DUP4 ADD MSTORE PUSH1 0xE DUP2 ADD SLOAD PUSH2 0x1A0 DUP4 ADD MSTORE PUSH1 0xF DUP2 ADD SLOAD PUSH2 0x1C0 DUP4 ADD MSTORE PUSH1 0x10 DUP2 ADD SLOAD PUSH2 0x1E0 DUP4 ADD MSTORE PUSH1 0x11 DUP2 ADD SLOAD PUSH2 0x200 DUP4 ADD MSTORE PUSH1 0x12 ADD SLOAD SWAP3 SWAP4 SWAP1 SWAP3 PUSH1 0xFF DUP1 DUP3 AND SWAP4 DUP3 DIV AND SWAP2 PUSH3 0x10000 SWAP1 SWAP2 DIV PUSH1 0x1 PUSH1 0x1 PUSH1 0xA0 SHL SUB AND SWAP1 JUMP JUMPDEST PUSH1 0x0 DUP1 SLOAD PUSH1 0x40 MLOAD PUSH4 0xA792765F PUSH1 0xE0 SHL DUP2 MSTORE PUSH1 0x4 DUP2 ADD DUP6 SWAP1 MSTORE PUSH1 0x24 DUP2 ADD DUP5 SWAP1 MSTORE PUSH1 0x60 SWAP3 SWAP2 PUSH1 0x1 PUSH1 0x1 PUSH1 0xA0 SHL SUB AND SWAP1 PUSH4 0xA792765F SWAP1 PUSH1 0x44 ADD PUSH1 0x0 PUSH1 0x40 MLOAD DUP1 DUP4 SUB DUP2 DUP7 DUP1 EXTCODESIZE ISZERO DUP1 ISZERO PUSH2 0x18B8 JUMPI PUSH1 0x0 DUP1 REVERT JUMPDEST POP GAS STATICCALL ISZERO DUP1 ISZERO PUSH2 0x18CC JUMPI RETURNDATASIZE PUSH1 0x0 DUP1 RETURNDATACOPY RETURNDATASIZE PUSH1 0x0 REVERT JUMPDEST POP POP POP POP PUSH1 0x40 MLOAD RETURNDATASIZE PUSH1 0x0 DUP3 RETURNDATACOPY PUSH1 0x1F RETURNDATASIZE SWAP1 DUP2 ADD PUSH1 0x1F NOT AND DUP3 ADD PUSH1 0x40 MSTORE PUSH2 0x18F4 SWAP2 SWAP1 DUP2 ADD SWAP1 PUSH2 0x3475 JUMP JUMPDEST SWAP1 SWAP7 SWAP1 SWAP6 POP SWAP4 POP POP POP POP JUMP JUMPDEST PUSH1 0x0 PUSH1 0xA PUSH1 0x2 PUSH1 0x0 SWAP1 SLOAD SWAP1 PUSH2 0x100 EXP SWAP1 DIV PUSH1 0x1 PUSH1 0x1 PUSH1 0xA0 SHL SUB AND PUSH1 0x1 PUSH1 0x1 PUSH1 0xA0 SHL SUB AND PUSH4 0x722580B6 PUSH1 0x40 MLOAD DUP2 PUSH4 0xFFFFFFFF AND PUSH1 0xE0 SHL DUP2 MSTORE PUSH1 0x4 ADD PUSH1 0x20 PUSH1 0x40 MLOAD DUP1 DUP4 SUB DUP2 DUP7 DUP1 EXTCODESIZE ISZERO DUP1 ISZERO PUSH2 0x1952 JUMPI PUSH1 0x0 DUP1 REVERT JUMPDEST POP GAS STATICCALL ISZERO DUP1 ISZERO PUSH2 0x1966 JUMPI RETURNDATASIZE PUSH1 0x0 DUP1 RETURNDATACOPY RETURNDATASIZE PUSH1 0x0 REVERT JUMPDEST POP POP POP POP PUSH1 0x40 MLOAD RETURNDATASIZE PUSH1 0x1F NOT PUSH1 0x1F DUP3 ADD AND DUP3 ADD DUP1 PUSH1 0x40 MSTORE POP DUP2 ADD SWAP1 PUSH2 0x198A SWAP2 SWAP1 PUSH2 0x3512 JUMP JUMPDEST PUSH2 0x1994 SWAP2 SWAP1 PUSH2 0x392F JUMP JUMPDEST SWAP1 POP SWAP1 JUMP JUMPDEST PUSH1 0x0 SLOAD PUSH1 0x40 MLOAD PUSH4 0xC5958AF9 PUSH1 0xE0 SHL DUP2 MSTORE PUSH1 0x4 DUP2 ADD DUP5 SWAP1 MSTORE PUSH1 0x24 DUP2 ADD DUP4 SWAP1 MSTORE PUSH1 0x60 SWAP2 PUSH1 0x1 PUSH1 0x1 PUSH1 0xA0 SHL SUB AND SWAP1 PUSH4 0xC5958AF9 SWAP1 PUSH1 0x44 ADD PUSH1 0x0 PUSH1 0x40 MLOAD DUP1 DUP4 SUB DUP2 DUP7 DUP1 EXTCODESIZE ISZERO DUP1 ISZERO PUSH2 0x19E5 JUMPI PUSH1 0x0 DUP1 REVERT JUMPDEST POP GAS STATICCALL ISZERO DUP1 ISZERO PUSH2 0x19F9 JUMPI RETURNDATASIZE PUSH1 0x0 DUP1 RETURNDATACOPY RETURNDATASIZE PUSH1 0x0 REVERT JUMPDEST POP POP POP POP PUSH1 0x40 MLOAD RETURNDATASIZE PUSH1 0x0 DUP3 RETURNDATACOPY PUSH1 0x1F RETURNDATASIZE SWAP1 DUP2 ADD PUSH1 0x1F NOT AND DUP3 ADD PUSH1 0x40 MSTORE PUSH2 0x102F SWAP2 SWAP1 DUP2 ADD SWAP1 PUSH2 0x357C JUMP JUMPDEST PUSH1 0x0 DUP1 SLOAD PUSH1 0x40 MLOAD PUSH4 0xCE5E11BF PUSH1 0xE0 SHL DUP2 MSTORE PUSH1 0x4 DUP2 ADD DUP6 SWAP1 MSTORE PUSH1 0x24 DUP2 ADD DUP5 SWAP1 MSTORE PUSH1 0x1 PUSH1 0x1 PUSH1 0xA0 SHL SUB SWAP1 SWAP2 AND SWAP1 PUSH4 0xCE5E11BF SWAP1 PUSH1 0x44 ADD PUSH1 0x20 PUSH1 0x40 MLOAD DUP1 DUP4 SUB DUP2 DUP7 DUP1 EXTCODESIZE ISZERO DUP1 ISZERO PUSH2 0x1A6D JUMPI PUSH1 0x0 DUP1 REVERT JUMPDEST POP GAS STATICCALL ISZERO DUP1 ISZERO PUSH2 0x1A81 JUMPI RETURNDATASIZE PUSH1 0x0 DUP1 RETURNDATACOPY RETURNDATASIZE PUSH1 0x0 REVERT JUMPDEST POP POP POP POP PUSH1 0x40 MLOAD RETURNDATASIZE PUSH1 0x1F NOT PUSH1 0x1F DUP3 ADD AND DUP3 ADD DUP1 PUSH1 0x40 MSTORE POP DUP2 ADD SWAP1 PUSH2 0x102F SWAP2 SWAP1 PUSH2 0x3512 JUMP JUMPDEST PUSH1 0x6 SLOAD DUP4 GT ISZERO DUP1 ISZERO PUSH2 0x1AB7 JUMPI POP PUSH1 0x0 DUP4 GT JUMPDEST PUSH2 0x1AF9 JUMPI PUSH1 0x40 MLOAD PUSH3 0x461BCD PUSH1 0xE5 SHL DUP2 MSTORE PUSH1 0x20 PUSH1 0x4 DUP3 ADD MSTORE PUSH1 0x13 PUSH1 0x24 DUP3 ADD MSTORE PUSH19 0x159BDD1948191BD95CC81B9BDD08195E1A5CDD PUSH1 0x6A SHL PUSH1 0x44 DUP3 ADD MSTORE PUSH1 0x64 ADD PUSH2 0x738 JUMP JUMPDEST PUSH1 0x0 DUP4 DUP2 MSTORE PUSH1 0xA PUSH1 0x20 MSTORE PUSH1 0x40 SWAP1 KECCAK256 PUSH1 0x5 DUP2 ADD SLOAD ISZERO PUSH2 0x1B59 JUMPI PUSH1 0x40 MLOAD PUSH3 0x461BCD PUSH1 0xE5 SHL DUP2 MSTORE PUSH1 0x20 PUSH1 0x4 DUP3 ADD MSTORE PUSH1 0x1D PUSH1 0x24 DUP3 ADD MSTORE PUSH32 0x566F74652068617320616C7265616479206265656E2074616C6C696564000000 PUSH1 0x44 DUP3 ADD MSTORE PUSH1 0x64 ADD PUSH2 0x738 JUMP JUMPDEST CALLER PUSH1 0x0 SWAP1 DUP2 MSTORE PUSH1 0x13 DUP3 ADD PUSH1 0x20 MSTORE PUSH1 0x40 SWAP1 KECCAK256 SLOAD PUSH1 0xFF AND ISZERO PUSH2 0x1BBB JUMPI PUSH1 0x40 MLOAD PUSH3 0x461BCD PUSH1 0xE5 SHL DUP2 MSTORE PUSH1 0x20 PUSH1 0x4 DUP3 ADD MSTORE PUSH1 0x18 PUSH1 0x24 DUP3 ADD MSTORE PUSH32 0x53656E6465722068617320616C726561647920766F7465640000000000000000 PUSH1 0x44 DUP3 ADD MSTORE PUSH1 0x64 ADD PUSH2 0x738 JUMP JUMPDEST CALLER PUSH1 0x0 DUP2 DUP2 MSTORE PUSH1 0x13 DUP4 ADD PUSH1 0x20 MSTORE PUSH1 0x40 DUP1 DUP3 KECCAK256 DUP1 SLOAD PUSH1 0xFF NOT AND PUSH1 0x1 OR SWAP1 SSTORE PUSH1 0x3 SLOAD SWAP1 MLOAD PUSH4 0x70A08231 PUSH1 0xE0 SHL DUP2 MSTORE PUSH1 0x4 DUP2 ADD SWAP4 SWAP1 SWAP4 MSTORE SWAP1 SWAP2 PUSH1 0x1 PUSH1 0x1 PUSH1 0xA0 SHL SUB SWAP1 SWAP2 AND SWAP1 PUSH4 0x70A08231 SWAP1 PUSH1 0x24 ADD PUSH1 0x20 PUSH1 0x40 MLOAD DUP1 DUP4 SUB DUP2 DUP7 DUP1 EXTCODESIZE ISZERO DUP1 ISZERO PUSH2 0x1C1E JUMPI PUSH1 0x0 DUP1 REVERT JUMPDEST POP GAS STATICCALL ISZERO DUP1 ISZERO PUSH2 0x1C32 JUMPI RETURNDATASIZE PUSH1 0x0 DUP1 RETURNDATACOPY RETURNDATASIZE PUSH1 0x0 REVERT JUMPDEST POP POP POP POP PUSH1 0x40 MLOAD RETURNDATASIZE PUSH1 0x1F NOT PUSH1 0x1F DUP3 ADD AND DUP3 ADD DUP1 PUSH1 0x40 MSTORE POP DUP2 ADD SWAP1 PUSH2 0x1C56 SWAP2 SWAP1 PUSH2 0x3512 JUMP JUMPDEST PUSH1 0x2 SLOAD PUSH1 0x40 MLOAD PUSH4 0x733BDEF PUSH1 0xE4 SHL DUP2 MSTORE CALLER PUSH1 0x4 DUP3 ADD MSTORE SWAP2 SWAP3 POP PUSH1 0x0 SWAP2 DUP3 SWAP2 PUSH1 0x1 PUSH1 0x1 PUSH1 0xA0 SHL SUB AND SWAP1 PUSH4 0x733BDEF0 SWAP1 PUSH1 0x24 ADD PUSH2 0x100 PUSH1 0x40 MLOAD DUP1 DUP4 SUB DUP2 DUP7 DUP1 EXTCODESIZE ISZERO DUP1 ISZERO PUSH2 0x1CA0 JUMPI PUSH1 0x0 DUP1 REVERT JUMPDEST POP GAS STATICCALL ISZERO DUP1 ISZERO PUSH2 0x1CB4 JUMPI RETURNDATASIZE PUSH1 0x0 DUP1 RETURNDATACOPY RETURNDATASIZE PUSH1 0x0 REVERT JUMPDEST POP POP POP POP PUSH1 0x40 MLOAD RETURNDATASIZE PUSH1 0x1F NOT PUSH1 0x1F DUP3 ADD AND DUP3 ADD DUP1 PUSH1 0x40 MSTORE POP DUP2 ADD SWAP1 PUSH2 0x1CD8 SWAP2 SWAP1 PUSH2 0x361F JUMP JUMPDEST POP POP POP POP POP SWAP3 POP SWAP3 POP POP DUP1 DUP3 PUSH2 0x1CEE SWAP2 SWAP1 PUSH2 0x3917 JUMP JUMPDEST PUSH2 0x1CF8 SWAP1 DUP5 PUSH2 0x3917 JUMP JUMPDEST SWAP3 POP DUP5 ISZERO PUSH2 0x1E09 JUMPI DUP3 DUP5 PUSH1 0x6 ADD PUSH1 0x2 ADD PUSH1 0x0 DUP3 DUP3 SLOAD PUSH2 0x1D17 SWAP2 SWAP1 PUSH2 0x3917 JUMP JUMPDEST SWAP1 SWAP2 SSTORE POP POP PUSH1 0x2 SLOAD PUSH1 0x40 MLOAD PUSH4 0x1C3C149F PUSH1 0xE1 SHL DUP2 MSTORE CALLER PUSH1 0x4 DUP3 ADD MSTORE PUSH1 0x1 PUSH1 0x1 PUSH1 0xA0 SHL SUB SWAP1 SWAP2 AND SWAP1 PUSH4 0x3878293E SWAP1 PUSH1 0x24 ADD PUSH1 0x20 PUSH1 0x40 MLOAD DUP1 DUP4 SUB DUP2 DUP7 DUP1 EXTCODESIZE ISZERO DUP1 ISZERO PUSH2 0x1D5F JUMPI PUSH1 0x0 DUP1 REVERT JUMPDEST POP GAS STATICCALL ISZERO DUP1 ISZERO PUSH2 0x1D73 JUMPI RETURNDATASIZE PUSH1 0x0 DUP1 RETURNDATACOPY RETURNDATASIZE PUSH1 0x0 REVERT JUMPDEST POP POP POP POP PUSH1 0x40 MLOAD RETURNDATASIZE PUSH1 0x1F NOT PUSH1 0x1F DUP3 ADD AND DUP3 ADD DUP1 PUSH1 0x40 MSTORE POP DUP2 ADD SWAP1 PUSH2 0x1D97 SWAP2 SWAP1 PUSH2 0x3512 JUMP JUMPDEST PUSH1 0xE DUP6 ADD DUP1 SLOAD PUSH1 0x0 SWAP1 PUSH2 0x1DAB SWAP1 DUP5 SWAP1 PUSH2 0x3917 JUMP JUMPDEST SWAP1 SWAP2 SSTORE POP PUSH2 0x1DBA SWAP1 POP CALLER PUSH2 0x2ED0 JUMP JUMPDEST PUSH1 0xB DUP6 ADD DUP1 SLOAD PUSH1 0x0 SWAP1 PUSH2 0x1DCE SWAP1 DUP5 SWAP1 PUSH2 0x3917 JUMP JUMPDEST SWAP1 SWAP2 SSTORE POP POP PUSH1 0x5 SLOAD PUSH1 0x1 PUSH1 0x1 PUSH1 0xA0 SHL SUB AND CALLER EQ ISZERO PUSH2 0x1E04 JUMPI PUSH1 0x1 DUP5 PUSH1 0xF ADD PUSH1 0x2 ADD PUSH1 0x0 DUP3 DUP3 SLOAD PUSH2 0x1DFE SWAP2 SWAP1 PUSH2 0x3917 JUMP JUMPDEST SWAP1 SWAP2 SSTORE POP POP JUMPDEST PUSH2 0x2011 JUMP JUMPDEST DUP6 ISZERO PUSH2 0x1F0D JUMPI DUP3 DUP5 PUSH1 0x6 ADD PUSH1 0x0 ADD PUSH1 0x0 DUP3 DUP3 SLOAD PUSH2 0x1E26 SWAP2 SWAP1 PUSH2 0x3917 JUMP JUMPDEST SWAP1 SWAP2 SSTORE POP POP PUSH1 0x2 SLOAD PUSH1 0x40 MLOAD PUSH4 0x1C3C149F PUSH1 0xE1 SHL DUP2 MSTORE CALLER PUSH1 0x4 DUP3 ADD MSTORE PUSH1 0x1 PUSH1 0x1 PUSH1 0xA0 SHL SUB SWAP1 SWAP2 AND SWAP1 PUSH4 0x3878293E SWAP1 PUSH1 0x24 ADD PUSH1 0x20 PUSH1 0x40 MLOAD DUP1 DUP4 SUB DUP2 DUP7 DUP1 EXTCODESIZE ISZERO DUP1 ISZERO PUSH2 0x1E6E JUMPI PUSH1 0x0 DUP1 REVERT JUMPDEST POP GAS STATICCALL ISZERO DUP1 ISZERO PUSH2 0x1E82 JUMPI RETURNDATASIZE PUSH1 0x0 DUP1 RETURNDATACOPY RETURNDATASIZE PUSH1 0x0 REVERT JUMPDEST POP POP POP POP PUSH1 0x40 MLOAD RETURNDATASIZE PUSH1 0x1F NOT PUSH1 0x1F DUP3 ADD AND DUP3 ADD DUP1 PUSH1 0x40 MSTORE POP DUP2 ADD SWAP1 PUSH2 0x1EA6 SWAP2 SWAP1 PUSH2 0x3512 JUMP JUMPDEST PUSH1 0xC DUP6 ADD DUP1 SLOAD PUSH1 0x0 SWAP1 PUSH2 0x1EBA SWAP1 DUP5 SWAP1 PUSH2 0x3917 JUMP JUMPDEST SWAP1 SWAP2 SSTORE POP PUSH2 0x1EC9 SWAP1 POP CALLER PUSH2 0x2ED0 JUMP JUMPDEST PUSH1 0x9 DUP6 ADD DUP1 SLOAD PUSH1 0x0 SWAP1 PUSH2 0x1EDD SWAP1 DUP5 SWAP1 PUSH2 0x3917 JUMP JUMPDEST SWAP1 SWAP2 SSTORE POP POP PUSH1 0x5 SLOAD PUSH1 0x1 PUSH1 0x1 PUSH1 0xA0 SHL SUB AND CALLER EQ ISZERO PUSH2 0x1E04 JUMPI PUSH1 0x1 DUP5 PUSH1 0xF ADD PUSH1 0x0 ADD PUSH1 0x0 DUP3 DUP3 SLOAD PUSH2 0x1DFE SWAP2 SWAP1 PUSH2 0x3917 JUMP JUMPDEST DUP3 DUP5 PUSH1 0x6 ADD PUSH1 0x1 ADD PUSH1 0x0 DUP3 DUP3 SLOAD PUSH2 0x1F24 SWAP2 SWAP1 PUSH2 0x3917 JUMP JUMPDEST SWAP1 SWAP2 SSTORE POP POP PUSH1 0x2 SLOAD PUSH1 0x40 MLOAD PUSH4 0x1C3C149F PUSH1 0xE1 SHL DUP2 MSTORE CALLER PUSH1 0x4 DUP3 ADD MSTORE PUSH1 0x1 PUSH1 0x1 PUSH1 0xA0 SHL SUB SWAP1 SWAP2 AND SWAP1 PUSH4 0x3878293E SWAP1 PUSH1 0x24 ADD PUSH1 0x20 PUSH1 0x40 MLOAD DUP1 DUP4 SUB DUP2 DUP7 DUP1 EXTCODESIZE ISZERO DUP1 ISZERO PUSH2 0x1F6C JUMPI PUSH1 0x0 DUP1 REVERT JUMPDEST POP GAS STATICCALL ISZERO DUP1 ISZERO PUSH2 0x1F80 JUMPI RETURNDATASIZE PUSH1 0x0 DUP1 RETURNDATACOPY RETURNDATASIZE PUSH1 0x0 REVERT JUMPDEST POP POP POP POP PUSH1 0x40 MLOAD RETURNDATASIZE PUSH1 0x1F NOT PUSH1 0x1F DUP3 ADD AND DUP3 ADD DUP1 PUSH1 0x40 MSTORE POP DUP2 ADD SWAP1 PUSH2 0x1FA4 SWAP2 SWAP1 PUSH2 0x3512 JUMP JUMPDEST PUSH1 0xD DUP6 ADD DUP1 SLOAD PUSH1 0x0 SWAP1 PUSH2 0x1FB8 SWAP1 DUP5 SWAP1 PUSH2 0x3917 JUMP JUMPDEST SWAP1 SWAP2 SSTORE POP PUSH2 0x1FC7 SWAP1 POP CALLER PUSH2 0x2ED0 JUMP JUMPDEST PUSH1 0xA DUP6 ADD DUP1 SLOAD PUSH1 0x0 SWAP1 PUSH2 0x1FDB SWAP1 DUP5 SWAP1 PUSH2 0x3917 JUMP JUMPDEST SWAP1 SWAP2 SSTORE POP POP PUSH1 0x5 SLOAD PUSH1 0x1 PUSH1 0x1 PUSH1 0xA0 SHL SUB AND CALLER EQ ISZERO PUSH2 0x2011 JUMPI PUSH1 0x1 DUP5 PUSH1 0xF ADD PUSH1 0x1 ADD PUSH1 0x0 DUP3 DUP3 SLOAD PUSH2 0x200B SWAP2 SWAP1 PUSH2 0x3917 JUMP JUMPDEST SWAP1 SWAP2 SSTORE POP POP JUMPDEST CALLER PUSH1 0x0 SWAP1 DUP2 MSTORE PUSH1 0xC PUSH1 0x20 MSTORE PUSH1 0x40 DUP2 KECCAK256 DUP1 SLOAD SWAP2 PUSH2 0x202C DUP4 PUSH2 0x3B08 JUMP JUMPDEST SWAP1 SWAP2 SSTORE POP POP PUSH1 0x40 DUP1 MLOAD DUP9 DUP2 MSTORE DUP8 ISZERO ISZERO PUSH1 0x20 DUP3 ADD MSTORE CALLER DUP2 DUP4 ADD MSTORE DUP7 ISZERO ISZERO PUSH1 0x60 DUP3 ADD MSTORE SWAP1 MLOAD PUSH32 0xBE6F1C58CC15C8E86D6F0EF23C5A30EB33319AF3B57F6B7D9B56CCFA87696B84 SWAP2 DUP2 SWAP1 SUB PUSH1 0x80 ADD SWAP1 LOG1 POP POP POP POP POP POP POP JUMP JUMPDEST PUSH1 0x0 DUP1 SLOAD PUSH1 0x40 MLOAD PUSH4 0x703E2A43 PUSH1 0xE1 SHL DUP2 MSTORE PUSH1 0x4 DUP2 ADD DUP6 SWAP1 MSTORE PUSH1 0x24 DUP2 ADD DUP5 SWAP1 MSTORE PUSH1 0x1 PUSH1 0x1 PUSH1 0xA0 SHL SUB SWAP1 SWAP2 AND SWAP1 PUSH4 0xE07C5486 SWAP1 PUSH1 0x44 ADD PUSH1 0x20 PUSH1 0x40 MLOAD DUP1 DUP4 SUB DUP2 DUP7 DUP1 EXTCODESIZE ISZERO DUP1 ISZERO PUSH2 0x20CE JUMPI PUSH1 0x0 DUP1 REVERT JUMPDEST POP GAS STATICCALL ISZERO DUP1 ISZERO PUSH2 0x20E2 JUMPI RETURNDATASIZE PUSH1 0x0 DUP1 RETURNDATACOPY RETURNDATASIZE PUSH1 0x0 REVERT JUMPDEST POP POP POP POP PUSH1 0x40 MLOAD RETURNDATASIZE PUSH1 0x1F NOT PUSH1 0x1F DUP3 ADD AND DUP3 ADD DUP1 PUSH1 0x40 MSTORE POP DUP2 ADD SWAP1 PUSH2 0x102F SWAP2 SWAP1 PUSH2 0x32C4 JUMP JUMPDEST PUSH1 0x0 DUP1 PUSH1 0x0 PUSH2 0x2114 DUP6 PUSH2 0x16E2 JUMP JUMPDEST SWAP1 POP DUP1 PUSH2 0x2128 JUMPI PUSH1 0x0 DUP1 SWAP3 POP SWAP3 POP POP PUSH2 0xFA4 JUMP JUMPDEST DUP1 PUSH2 0x2132 DUP2 PUSH2 0x3ABC JUMP JUMPDEST SWAP2 POP PUSH1 0x1 SWAP1 POP PUSH1 0x0 DUP1 DUP4 DUP2 PUSH2 0x2147 DUP11 DUP4 PUSH2 0x1A21 JUMP JUMPDEST SWAP1 POP DUP9 DUP2 GT PUSH2 0x2162 JUMPI PUSH1 0x0 DUP1 SWAP8 POP SWAP8 POP POP POP POP POP POP POP PUSH2 0xFA4 JUMP JUMPDEST PUSH2 0x216C DUP11 DUP5 PUSH2 0x1A21 JUMP JUMPDEST SWAP1 POP DUP9 DUP2 GT ISZERO PUSH2 0x217B JUMPI PUSH1 0x0 SWAP5 POP JUMPDEST DUP5 ISZERO PUSH2 0x222D JUMPI PUSH1 0x2 PUSH2 0x218D DUP5 DUP5 PUSH2 0x3917 JUMP JUMPDEST PUSH2 0x2197 SWAP2 SWAP1 PUSH2 0x392F JUMP JUMPDEST SWAP4 POP PUSH2 0x21A3 DUP11 DUP6 PUSH2 0x1A21 JUMP JUMPDEST SWAP1 POP DUP9 DUP2 GT ISZERO PUSH2 0x21E4 JUMPI PUSH1 0x0 PUSH2 0x21BE DUP12 PUSH2 0x4A2 PUSH1 0x1 DUP9 PUSH2 0x3A79 JUMP JUMPDEST SWAP1 POP DUP10 DUP2 GT PUSH2 0x21D0 JUMPI PUSH1 0x0 SWAP6 POP PUSH2 0x21DE JUMP JUMPDEST PUSH2 0x21DB PUSH1 0x1 DUP7 PUSH2 0x3A79 JUMP JUMPDEST SWAP3 POP JUMPDEST POP PUSH2 0x2228 JUMP JUMPDEST PUSH1 0x0 PUSH2 0x21F5 DUP12 PUSH2 0x4A2 DUP8 PUSH1 0x1 PUSH2 0x3917 JUMP JUMPDEST SWAP1 POP DUP10 DUP2 GT ISZERO PUSH2 0x2218 JUMPI PUSH1 0x0 SWAP6 POP DUP5 PUSH2 0x220D DUP2 PUSH2 0x3B08 JUMP JUMPDEST SWAP6 POP POP DUP1 SWAP2 POP PUSH2 0x2226 JUMP JUMPDEST PUSH2 0x2223 DUP6 PUSH1 0x1 PUSH2 0x3917 JUMP JUMPDEST SWAP4 POP JUMPDEST POP JUMPDEST PUSH2 0x217B JUMP JUMPDEST PUSH2 0x2237 DUP11 DUP3 PUSH2 0xFAB JUMP JUMPDEST PUSH2 0x224D JUMPI PUSH1 0x1 DUP5 SWAP8 POP SWAP8 POP POP POP POP POP POP POP PUSH2 0xFA4 JUMP JUMPDEST PUSH2 0x2257 DUP11 DUP3 PUSH2 0xFAB JUMP JUMPDEST DUP1 ISZERO PUSH2 0x2262 JUMPI POP DUP6 DUP5 LT JUMPDEST ISZERO PUSH2 0x2285 JUMPI DUP4 PUSH2 0x2271 DUP2 PUSH2 0x3B08 JUMP JUMPDEST SWAP5 POP POP PUSH2 0x227E DUP11 DUP6 PUSH2 0x1A21 JUMP JUMPDEST SWAP1 POP PUSH2 0x224D JUMP JUMPDEST DUP6 DUP5 EQ DUP1 ISZERO PUSH2 0x2299 JUMPI POP PUSH2 0x2299 DUP11 DUP3 PUSH2 0xFAB JUMP JUMPDEST ISZERO PUSH2 0x22B0 JUMPI PUSH1 0x0 DUP1 SWAP8 POP SWAP8 POP POP POP POP POP POP POP PUSH2 0xFA4 JUMP JUMPDEST PUSH1 0x1 DUP5 SWAP8 POP SWAP8 POP POP POP POP POP POP POP PUSH2 0xFA4 JUMP JUMPDEST PUSH1 0x1 SLOAD PUSH1 0x40 MLOAD PUSH4 0x87A475FD PUSH1 0xE0 SHL DUP2 MSTORE PUSH1 0x4 DUP2 ADD DUP4 SWAP1 MSTORE PUSH1 0x0 SWAP2 DUP3 SWAP2 DUP3 SWAP2 DUP3 SWAP2 PUSH1 0x1 PUSH1 0x1 PUSH1 0xA0 SHL SUB SWAP1 SWAP2 AND SWAP1 PUSH4 0x87A475FD SWAP1 PUSH1 0x24 ADD PUSH1 0x20 PUSH1 0x40 MLOAD DUP1 DUP4 SUB DUP2 DUP7 DUP1 EXTCODESIZE ISZERO DUP1 ISZERO PUSH2 0x230F JUMPI PUSH1 0x0 DUP1 REVERT JUMPDEST POP GAS STATICCALL ISZERO DUP1 ISZERO PUSH2 0x2323 JUMPI RETURNDATASIZE PUSH1 0x0 DUP1 RETURNDATACOPY RETURNDATASIZE PUSH1 0x0 REVERT JUMPDEST POP POP POP POP PUSH1 0x40 MLOAD RETURNDATASIZE PUSH1 0x1F NOT PUSH1 0x1F DUP3 ADD AND DUP3 ADD DUP1 PUSH1 0x40 MSTORE POP DUP2 ADD SWAP1 PUSH2 0x2347 SWAP2 SWAP1 PUSH2 0x3512 JUMP JUMPDEST SWAP1 POP PUSH1 0x60 PUSH2 0x235A DUP3 PUSH2 0x3E5 TIMESTAMP PUSH1 0x1 PUSH2 0x3917 JUMP JUMPDEST SWAP5 POP SWAP1 POP DUP4 PUSH2 0x2376 JUMPI PUSH1 0x0 DUP1 PUSH2 0x194 SWAP5 POP SWAP5 POP SWAP5 POP POP POP PUSH2 0x238B JUMP JUMPDEST PUSH1 0x0 PUSH2 0x2381 DUP3 PUSH2 0x302E JUMP JUMPDEST SWAP6 POP PUSH1 0xC8 SWAP4 POP POP POP POP JUMPDEST SWAP2 SWAP4 SWAP1 SWAP3 POP JUMP JUMPDEST PUSH1 0x0 DUP2 DUP2 MSTORE PUSH1 0xA PUSH1 0x20 MSTORE PUSH1 0x40 SWAP1 KECCAK256 PUSH1 0x6 SLOAD DUP3 GT DUP1 ISZERO SWAP1 PUSH2 0x23B2 JUMPI POP PUSH1 0x0 DUP3 GT JUMPDEST PUSH2 0x23FE JUMPI PUSH1 0x40 MLOAD PUSH3 0x461BCD PUSH1 0xE5 SHL DUP2 MSTORE PUSH1 0x20 PUSH1 0x4 DUP3 ADD MSTORE PUSH1 0x18 PUSH1 0x24 DUP3 ADD MSTORE PUSH32 0x44697370757465204944206D7573742062652076616C69640000000000000000 PUSH1 0x44 DUP3 ADD MSTORE PUSH1 0x64 ADD PUSH2 0x738 JUMP JUMPDEST PUSH1 0x12 DUP2 ADD SLOAD PUSH1 0xFF AND ISZERO PUSH2 0x2453 JUMPI PUSH1 0x40 MLOAD PUSH3 0x461BCD PUSH1 0xE5 SHL DUP2 MSTORE PUSH1 0x20 PUSH1 0x4 DUP3 ADD MSTORE PUSH1 0x1E PUSH1 0x24 DUP3 ADD MSTORE PUSH32 0x566F74652068617320616C7265616479206265656E2065786563757465640000 PUSH1 0x44 DUP3 ADD MSTORE PUSH1 0x64 ADD PUSH2 0x738 JUMP JUMPDEST PUSH1 0x0 DUP2 PUSH1 0x5 ADD SLOAD GT PUSH2 0x24A7 JUMPI PUSH1 0x40 MLOAD PUSH3 0x461BCD PUSH1 0xE5 SHL DUP2 MSTORE PUSH1 0x20 PUSH1 0x4 DUP3 ADD MSTORE PUSH1 0x14 PUSH1 0x24 DUP3 ADD MSTORE PUSH32 0x566F7465206D7573742062652074616C6C696564000000000000000000000000 PUSH1 0x44 DUP3 ADD MSTORE PUSH1 0x64 ADD PUSH2 0x738 JUMP JUMPDEST PUSH1 0x1 DUP2 ADD SLOAD DUP2 SLOAD PUSH1 0x0 SWAP1 DUP2 MSTORE PUSH1 0xB PUSH1 0x20 MSTORE PUSH1 0x40 SWAP1 KECCAK256 SLOAD EQ PUSH2 0x250A JUMPI PUSH1 0x40 MLOAD PUSH3 0x461BCD PUSH1 0xE5 SHL DUP2 MSTORE PUSH1 0x20 PUSH1 0x4 DUP3 ADD MSTORE PUSH1 0x16 PUSH1 0x24 DUP3 ADD MSTORE PUSH32 0x4D757374206265207468652066696E616C20766F746500000000000000000000 PUSH1 0x44 DUP3 ADD MSTORE PUSH1 0x64 ADD PUSH2 0x738 JUMP JUMPDEST PUSH3 0x15180 DUP2 PUSH1 0x5 ADD SLOAD TIMESTAMP PUSH2 0x251E SWAP2 SWAP1 PUSH2 0x3A79 JUMP JUMPDEST LT ISZERO PUSH2 0x2588 JUMPI PUSH1 0x40 MLOAD PUSH3 0x461BCD PUSH1 0xE5 SHL DUP2 MSTORE PUSH1 0x20 PUSH1 0x4 DUP3 ADD MSTORE PUSH1 0x33 PUSH1 0x24 DUP3 ADD MSTORE PUSH32 0x31206461792068617320746F20706173732061667465722074616C6C7920746F PUSH1 0x44 DUP3 ADD MSTORE PUSH19 0x20616C6C6F7720666F72206469737075746573 PUSH1 0x68 SHL PUSH1 0x64 DUP3 ADD MSTORE PUSH1 0x84 ADD PUSH2 0x738 JUMP JUMPDEST PUSH1 0x12 DUP2 ADD DUP1 SLOAD PUSH1 0xFF NOT AND PUSH1 0x1 OR SWAP1 SSTORE PUSH1 0x0 DUP3 DUP2 MSTORE PUSH1 0x8 PUSH1 0x20 SWAP1 DUP2 MSTORE PUSH1 0x40 DUP1 DUP4 KECCAK256 DUP1 SLOAD DUP5 MSTORE PUSH1 0x9 SWAP1 SWAP3 MSTORE DUP3 KECCAK256 DUP1 SLOAD SWAP2 SWAP3 PUSH2 0x25C0 DUP4 PUSH2 0x3ABC JUMP JUMPDEST SWAP1 SWAP2 SSTORE POP PUSH1 0x0 SWAP1 POP DUP1 PUSH1 0x1 PUSH1 0x12 DUP6 ADD SLOAD PUSH2 0x100 SWAP1 DIV PUSH1 0xFF AND PUSH1 0x2 DUP2 GT ISZERO PUSH2 0x25F7 JUMPI PUSH4 0x4E487B71 PUSH1 0xE0 SHL PUSH1 0x0 MSTORE PUSH1 0x21 PUSH1 0x4 MSTORE PUSH1 0x24 PUSH1 0x0 REVERT JUMPDEST EQ ISZERO PUSH2 0x27C1 JUMPI DUP4 SLOAD PUSH1 0x0 SWAP1 DUP2 MSTORE PUSH1 0xB PUSH1 0x20 MSTORE PUSH1 0x40 SWAP1 KECCAK256 SLOAD SWAP2 POP JUMPDEST DUP2 ISZERO PUSH2 0x27BC JUMPI DUP4 SLOAD PUSH1 0x0 SWAP1 DUP2 MSTORE PUSH1 0xB PUSH1 0x20 MSTORE PUSH1 0x40 SWAP1 KECCAK256 PUSH2 0x2632 PUSH1 0x1 DUP5 PUSH2 0x3A79 JUMP JUMPDEST DUP2 SLOAD DUP2 LT PUSH2 0x2650 JUMPI PUSH4 0x4E487B71 PUSH1 0xE0 SHL PUSH1 0x0 MSTORE PUSH1 0x32 PUSH1 0x4 MSTORE PUSH1 0x24 PUSH1 0x0 REVERT JUMPDEST SWAP1 PUSH1 0x0 MSTORE PUSH1 0x20 PUSH1 0x0 KECCAK256 ADD SLOAD SWAP1 POP PUSH1 0xA PUSH1 0x0 DUP3 DUP2 MSTORE PUSH1 0x20 ADD SWAP1 DUP2 MSTORE PUSH1 0x20 ADD PUSH1 0x0 KECCAK256 SWAP4 POP DUP2 PUSH1 0x1 EQ ISZERO PUSH2 0x2713 JUMPI PUSH1 0x3 SLOAD PUSH1 0x12 DUP6 ADD SLOAD PUSH1 0x4 DUP6 DUP2 ADD SLOAD PUSH1 0x40 MLOAD PUSH4 0xA9059CBB PUSH1 0xE0 SHL DUP2 MSTORE PUSH1 0x1 PUSH1 0x1 PUSH1 0xA0 SHL SUB PUSH3 0x10000 SWAP1 SWAP5 DIV DUP5 AND SWAP3 DUP2 ADD SWAP3 SWAP1 SWAP3 MSTORE PUSH1 0x24 DUP3 ADD MSTORE SWAP2 AND SWAP1 PUSH4 0xA9059CBB SWAP1 PUSH1 0x44 ADD PUSH1 0x20 PUSH1 0x40 MLOAD DUP1 DUP4 SUB DUP2 PUSH1 0x0 DUP8 DUP1 EXTCODESIZE ISZERO DUP1 ISZERO PUSH2 0x26D9 JUMPI PUSH1 0x0 DUP1 REVERT JUMPDEST POP GAS CALL ISZERO DUP1 ISZERO PUSH2 0x26ED JUMPI RETURNDATASIZE PUSH1 0x0 DUP1 RETURNDATACOPY RETURNDATASIZE PUSH1 0x0 REVERT JUMPDEST POP POP POP POP PUSH1 0x40 MLOAD RETURNDATASIZE PUSH1 0x1F NOT PUSH1 0x1F DUP3 ADD AND DUP3 ADD DUP1 PUSH1 0x40 MSTORE POP DUP2 ADD SWAP1 PUSH2 0x2711 SWAP2 SWAP1 PUSH2 0x3459 JUMP JUMPDEST POP JUMPDEST PUSH1 0x3 SLOAD PUSH1 0x12 DUP6 ADD SLOAD PUSH1 0x4 DUP1 DUP8 ADD SLOAD PUSH1 0x40 MLOAD PUSH4 0xA9059CBB PUSH1 0xE0 SHL DUP2 MSTORE PUSH1 0x1 PUSH1 0x1 PUSH1 0xA0 SHL SUB PUSH3 0x10000 SWAP1 SWAP5 DIV DUP5 AND SWAP3 DUP2 ADD SWAP3 SWAP1 SWAP3 MSTORE PUSH1 0x24 DUP3 ADD MSTORE SWAP2 AND SWAP1 PUSH4 0xA9059CBB SWAP1 PUSH1 0x44 ADD PUSH1 0x20 PUSH1 0x40 MLOAD DUP1 DUP4 SUB DUP2 PUSH1 0x0 DUP8 DUP1 EXTCODESIZE ISZERO DUP1 ISZERO PUSH2 0x2771 JUMPI PUSH1 0x0 DUP1 REVERT JUMPDEST POP GAS CALL ISZERO DUP1 ISZERO PUSH2 0x2785 JUMPI RETURNDATASIZE PUSH1 0x0 DUP1 RETURNDATACOPY RETURNDATASIZE PUSH1 0x0 REVERT JUMPDEST POP POP POP POP PUSH1 0x40 MLOAD RETURNDATASIZE PUSH1 0x1F NOT PUSH1 0x1F DUP3 ADD AND DUP3 ADD DUP1 PUSH1 0x40 MSTORE POP DUP2 ADD SWAP1 PUSH2 0x27A9 SWAP2 SWAP1 PUSH2 0x3459 JUMP JUMPDEST POP DUP2 PUSH2 0x27B4 DUP2 PUSH2 0x3ABC JUMP JUMPDEST SWAP3 POP POP PUSH2 0x2611 JUMP JUMPDEST PUSH2 0x2B16 JUMP JUMPDEST PUSH1 0x2 PUSH1 0x12 DUP6 ADD SLOAD PUSH2 0x100 SWAP1 DIV PUSH1 0xFF AND PUSH1 0x2 DUP2 GT ISZERO PUSH2 0x27EF JUMPI PUSH4 0x4E487B71 PUSH1 0xE0 SHL PUSH1 0x0 MSTORE PUSH1 0x21 PUSH1 0x4 MSTORE PUSH1 0x24 PUSH1 0x0 REVERT JUMPDEST EQ ISZERO PUSH2 0x29AB JUMPI DUP4 SLOAD PUSH1 0x0 SWAP1 DUP2 MSTORE PUSH1 0xB PUSH1 0x20 MSTORE PUSH1 0x40 SWAP1 KECCAK256 SLOAD SWAP2 POP JUMPDEST DUP2 ISZERO PUSH2 0x2915 JUMPI DUP4 SLOAD PUSH1 0x0 SWAP1 DUP2 MSTORE PUSH1 0xB PUSH1 0x20 MSTORE PUSH1 0x40 SWAP1 KECCAK256 PUSH2 0x282A PUSH1 0x1 DUP5 PUSH2 0x3A79 JUMP JUMPDEST DUP2 SLOAD DUP2 LT PUSH2 0x2848 JUMPI PUSH4 0x4E487B71 PUSH1 0xE0 SHL PUSH1 0x0 MSTORE PUSH1 0x32 PUSH1 0x4 MSTORE PUSH1 0x24 PUSH1 0x0 REVERT JUMPDEST PUSH1 0x0 SWAP2 DUP3 MSTORE PUSH1 0x20 DUP1 DUP4 KECCAK256 SWAP2 SWAP1 SWAP2 ADD SLOAD DUP1 DUP4 MSTORE PUSH1 0xA SWAP1 SWAP2 MSTORE PUSH1 0x40 SWAP2 DUP3 SWAP1 KECCAK256 PUSH1 0x3 SLOAD PUSH1 0x12 DUP3 ADD SLOAD PUSH1 0x4 DUP1 DUP5 ADD SLOAD SWAP6 MLOAD PUSH4 0xA9059CBB PUSH1 0xE0 SHL DUP2 MSTORE PUSH1 0x1 PUSH1 0x1 PUSH1 0xA0 SHL SUB PUSH3 0x10000 SWAP1 SWAP4 DIV DUP4 AND SWAP2 DUP2 ADD SWAP2 SWAP1 SWAP2 MSTORE PUSH1 0x24 DUP2 ADD SWAP6 SWAP1 SWAP6 MSTORE SWAP2 SWAP8 POP SWAP2 SWAP4 POP AND SWAP1 PUSH4 0xA9059CBB SWAP1 PUSH1 0x44 ADD PUSH1 0x20 PUSH1 0x40 MLOAD DUP1 DUP4 SUB DUP2 PUSH1 0x0 DUP8 DUP1 EXTCODESIZE ISZERO DUP1 ISZERO PUSH2 0x28CA JUMPI PUSH1 0x0 DUP1 REVERT JUMPDEST POP GAS CALL ISZERO DUP1 ISZERO PUSH2 0x28DE JUMPI RETURNDATASIZE PUSH1 0x0 DUP1 RETURNDATACOPY RETURNDATASIZE PUSH1 0x0 REVERT JUMPDEST POP POP POP POP PUSH1 0x40 MLOAD RETURNDATASIZE PUSH1 0x1F NOT PUSH1 0x1F DUP3 ADD AND DUP3 ADD DUP1 PUSH1 0x40 MSTORE POP DUP2 ADD SWAP1 PUSH2 0x2902 SWAP2 SWAP1 PUSH2 0x3459 JUMP JUMPDEST POP DUP2 PUSH2 0x290D DUP2 PUSH2 0x3ABC JUMP JUMPDEST SWAP3 POP POP PUSH2 0x2809 JUMP JUMPDEST PUSH1 0x3 DUP1 SLOAD SWAP1 DUP5 ADD SLOAD PUSH1 0x4 DUP1 DUP7 ADD SLOAD PUSH1 0x40 MLOAD PUSH4 0xA9059CBB PUSH1 0xE0 SHL DUP2 MSTORE PUSH1 0x1 PUSH1 0x1 PUSH1 0xA0 SHL SUB SWAP4 DUP5 AND SWAP3 DUP2 ADD SWAP3 SWAP1 SWAP3 MSTORE PUSH1 0x24 DUP3 ADD MSTORE SWAP2 AND SWAP1 PUSH4 0xA9059CBB SWAP1 PUSH1 0x44 ADD PUSH1 0x20 PUSH1 0x40 MLOAD DUP1 DUP4 SUB DUP2 PUSH1 0x0 DUP8 DUP1 EXTCODESIZE ISZERO DUP1 ISZERO PUSH2 0x296D JUMPI PUSH1 0x0 DUP1 REVERT JUMPDEST POP GAS CALL ISZERO DUP1 ISZERO PUSH2 0x2981 JUMPI RETURNDATASIZE PUSH1 0x0 DUP1 RETURNDATACOPY RETURNDATASIZE PUSH1 0x0 REVERT JUMPDEST POP POP POP POP PUSH1 0x40 MLOAD RETURNDATASIZE PUSH1 0x1F NOT PUSH1 0x1F DUP3 ADD AND DUP3 ADD DUP1 PUSH1 0x40 MSTORE POP DUP2 ADD SWAP1 PUSH2 0x29A5 SWAP2 SWAP1 PUSH2 0x3459 JUMP JUMPDEST POP PUSH2 0x2B16 JUMP JUMPDEST PUSH1 0x0 PUSH1 0x12 DUP6 ADD SLOAD PUSH2 0x100 SWAP1 DIV PUSH1 0xFF AND PUSH1 0x2 DUP2 GT ISZERO PUSH2 0x29D9 JUMPI PUSH4 0x4E487B71 PUSH1 0xE0 SHL PUSH1 0x0 MSTORE PUSH1 0x21 PUSH1 0x4 MSTORE PUSH1 0x24 PUSH1 0x0 REVERT JUMPDEST EQ ISZERO PUSH2 0x2B16 JUMPI DUP4 SLOAD PUSH1 0x0 SWAP1 DUP2 MSTORE PUSH1 0xB PUSH1 0x20 MSTORE PUSH1 0x40 DUP2 KECCAK256 SLOAD SWAP3 POP JUMPDEST DUP3 ISZERO PUSH2 0x2A78 JUMPI DUP5 SLOAD PUSH1 0x0 SWAP1 DUP2 MSTORE PUSH1 0xB PUSH1 0x20 MSTORE PUSH1 0x40 SWAP1 KECCAK256 PUSH2 0x2A14 PUSH1 0x1 DUP6 PUSH2 0x3A79 JUMP JUMPDEST DUP2 SLOAD DUP2 LT PUSH2 0x2A32 JUMPI PUSH4 0x4E487B71 PUSH1 0xE0 SHL PUSH1 0x0 MSTORE PUSH1 0x32 PUSH1 0x4 MSTORE PUSH1 0x24 PUSH1 0x0 REVERT JUMPDEST SWAP1 PUSH1 0x0 MSTORE PUSH1 0x20 PUSH1 0x0 KECCAK256 ADD SLOAD SWAP2 POP PUSH1 0xA PUSH1 0x0 DUP4 DUP2 MSTORE PUSH1 0x20 ADD SWAP1 DUP2 MSTORE PUSH1 0x20 ADD PUSH1 0x0 KECCAK256 SWAP5 POP DUP5 PUSH1 0x4 ADD SLOAD DUP2 PUSH2 0x2A64 SWAP2 SWAP1 PUSH2 0x3917 JUMP JUMPDEST SWAP1 POP DUP3 PUSH2 0x2A70 DUP2 PUSH2 0x3ABC JUMP JUMPDEST SWAP4 POP POP PUSH2 0x29F3 JUMP JUMPDEST PUSH1 0x4 DUP5 ADD SLOAD PUSH2 0x2A87 SWAP1 DUP3 PUSH2 0x3917 JUMP JUMPDEST PUSH1 0x3 DUP1 SLOAD SWAP1 DUP7 ADD SLOAD PUSH1 0x40 MLOAD PUSH4 0xA9059CBB PUSH1 0xE0 SHL DUP2 MSTORE PUSH1 0x1 PUSH1 0x1 PUSH1 0xA0 SHL SUB SWAP2 DUP3 AND PUSH1 0x4 DUP3 ADD MSTORE PUSH1 0x24 DUP2 ADD DUP5 SWAP1 MSTORE SWAP3 SWAP4 POP AND SWAP1 PUSH4 0xA9059CBB SWAP1 PUSH1 0x44 ADD PUSH1 0x20 PUSH1 0x40 MLOAD DUP1 DUP4 SUB DUP2 PUSH1 0x0 DUP8 DUP1 EXTCODESIZE ISZERO DUP1 ISZERO PUSH2 0x2ADB JUMPI PUSH1 0x0 DUP1 REVERT JUMPDEST POP GAS CALL ISZERO DUP1 ISZERO PUSH2 0x2AEF JUMPI RETURNDATASIZE PUSH1 0x0 DUP1 RETURNDATACOPY RETURNDATASIZE PUSH1 0x0 REVERT JUMPDEST POP POP POP POP PUSH1 0x40 MLOAD RETURNDATASIZE PUSH1 0x1F NOT PUSH1 0x1F DUP3 ADD AND DUP3 ADD DUP1 PUSH1 0x40 MSTORE POP DUP2 ADD SWAP1 PUSH2 0x2B13 SWAP2 SWAP1 PUSH2 0x3459 JUMP JUMPDEST POP POP JUMPDEST PUSH1 0x0 DUP6 DUP2 MSTORE PUSH1 0xA PUSH1 0x20 MSTORE PUSH1 0x40 SWAP1 DUP2 SWAP1 KECCAK256 PUSH1 0x12 ADD SLOAD SWAP1 MLOAD PUSH32 0x40D231BF91823121DE9E1C012D95F835EA5684DC1D93360D9510A30543345DA4 SWAP2 PUSH2 0x2B62 SWAP2 DUP9 SWAP2 PUSH2 0x100 SWAP1 DIV PUSH1 0xFF AND SWAP1 PUSH2 0x3878 JUMP JUMPDEST PUSH1 0x40 MLOAD DUP1 SWAP2 SUB SWAP1 LOG1 POP POP POP POP POP JUMP JUMPDEST PUSH1 0x60 DUP1 PUSH1 0x0 DUP1 PUSH2 0x2B85 DUP9 PUSH2 0x4FF DUP9 DUP11 PUSH2 0x3A79 JUMP JUMPDEST SWAP2 POP SWAP2 POP DUP2 PUSH2 0x2BD6 JUMPI PUSH1 0x40 DUP1 MLOAD PUSH1 0x0 DUP1 DUP3 MSTORE PUSH1 0x20 DUP3 ADD SWAP1 SWAP3 MSTORE SWAP1 PUSH2 0x2BB9 JUMP JUMPDEST PUSH1 0x60 DUP2 MSTORE PUSH1 0x20 ADD SWAP1 PUSH1 0x1 SWAP1 SUB SWAP1 DUP2 PUSH2 0x2BA4 JUMPI SWAP1 POP JUMPDEST POP PUSH1 0x40 DUP1 MLOAD PUSH1 0x0 DUP2 MSTORE PUSH1 0x20 DUP2 ADD SWAP1 SWAP2 MSTORE SWAP1 SWAP5 POP SWAP3 POP PUSH2 0x2EC7 SWAP2 POP POP JUMP JUMPDEST PUSH1 0x0 PUSH2 0x2BE2 DUP10 DUP10 PUSH2 0xF1C JUMP JUMPDEST SWAP1 SWAP4 POP SWAP1 POP DUP3 PUSH2 0x2C35 JUMPI PUSH1 0x40 DUP1 MLOAD PUSH1 0x0 DUP1 DUP3 MSTORE PUSH1 0x20 DUP3 ADD SWAP1 SWAP3 MSTORE SWAP1 PUSH2 0x2C17 JUMP JUMPDEST PUSH1 0x60 DUP2 MSTORE PUSH1 0x20 ADD SWAP1 PUSH1 0x1 SWAP1 SUB SWAP1 DUP2 PUSH2 0x2C02 JUMPI SWAP1 POP JUMPDEST POP PUSH1 0x40 DUP1 MLOAD PUSH1 0x0 DUP2 MSTORE PUSH1 0x20 DUP2 ADD SWAP1 SWAP2 MSTORE SWAP1 SWAP6 POP SWAP4 POP PUSH2 0x2EC7 SWAP3 POP POP POP JUMP JUMPDEST PUSH1 0x0 DUP1 PUSH1 0x0 DUP9 PUSH8 0xFFFFFFFFFFFFFFFF DUP2 GT ISZERO PUSH2 0x2C61 JUMPI PUSH4 0x4E487B71 PUSH1 0xE0 SHL PUSH1 0x0 MSTORE PUSH1 0x41 PUSH1 0x4 MSTORE PUSH1 0x24 PUSH1 0x0 REVERT JUMPDEST PUSH1 0x40 MLOAD SWAP1 DUP1 DUP3 MSTORE DUP1 PUSH1 0x20 MUL PUSH1 0x20 ADD DUP3 ADD PUSH1 0x40 MSTORE DUP1 ISZERO PUSH2 0x2C8A JUMPI DUP2 PUSH1 0x20 ADD PUSH1 0x20 DUP3 MUL DUP1 CALLDATASIZE DUP4 CALLDATACOPY ADD SWAP1 POP JUMPDEST POP SWAP1 POP JUMPDEST DUP9 DUP4 LT DUP1 ISZERO PUSH2 0x2CB1 JUMPI POP DUP5 DUP3 PUSH2 0x2CA5 DUP7 PUSH1 0x1 PUSH2 0x3917 JUMP JUMPDEST PUSH2 0x2CAF SWAP2 SWAP1 PUSH2 0x3A79 JUMP JUMPDEST GT JUMPDEST ISZERO PUSH2 0x2D23 JUMPI PUSH1 0x0 PUSH2 0x2CC6 DUP14 PUSH2 0x4A2 DUP6 DUP9 PUSH2 0x3A79 JUMP JUMPDEST SWAP1 POP PUSH2 0x2CD2 DUP14 DUP3 PUSH2 0xFAB JUMP JUMPDEST PUSH2 0x2D10 JUMPI DUP1 DUP3 DUP6 DUP2 MLOAD DUP2 LT PUSH2 0x2CF7 JUMPI PUSH4 0x4E487B71 PUSH1 0xE0 SHL PUSH1 0x0 MSTORE PUSH1 0x32 PUSH1 0x4 MSTORE PUSH1 0x24 PUSH1 0x0 REVERT JUMPDEST PUSH1 0x20 SWAP1 DUP2 MUL SWAP2 SWAP1 SWAP2 ADD ADD MSTORE DUP4 PUSH2 0x2D0C DUP2 PUSH2 0x3B08 JUMP JUMPDEST SWAP5 POP POP JUMPDEST DUP3 PUSH2 0x2D1A DUP2 PUSH2 0x3B08 JUMP JUMPDEST SWAP4 POP POP POP PUSH2 0x2C8E JUMP JUMPDEST PUSH1 0x0 DUP4 PUSH8 0xFFFFFFFFFFFFFFFF DUP2 GT ISZERO PUSH2 0x2D4C JUMPI PUSH4 0x4E487B71 PUSH1 0xE0 SHL PUSH1 0x0 MSTORE PUSH1 0x41 PUSH1 0x4 MSTORE PUSH1 0x24 PUSH1 0x0 REVERT JUMPDEST PUSH1 0x40 MLOAD SWAP1 DUP1 DUP3 MSTORE DUP1 PUSH1 0x20 MUL PUSH1 0x20 ADD DUP3 ADD PUSH1 0x40 MSTORE DUP1 ISZERO PUSH2 0x2D7F JUMPI DUP2 PUSH1 0x20 ADD JUMPDEST PUSH1 0x60 DUP2 MSTORE PUSH1 0x20 ADD SWAP1 PUSH1 0x1 SWAP1 SUB SWAP1 DUP2 PUSH2 0x2D6A JUMPI SWAP1 POP JUMPDEST POP SWAP1 POP PUSH1 0x0 DUP5 PUSH8 0xFFFFFFFFFFFFFFFF DUP2 GT ISZERO PUSH2 0x2DAB JUMPI PUSH4 0x4E487B71 PUSH1 0xE0 SHL PUSH1 0x0 MSTORE PUSH1 0x41 PUSH1 0x4 MSTORE PUSH1 0x24 PUSH1 0x0 REVERT JUMPDEST PUSH1 0x40 MLOAD SWAP1 DUP1 DUP3 MSTORE DUP1 PUSH1 0x20 MUL PUSH1 0x20 ADD DUP3 ADD PUSH1 0x40 MSTORE DUP1 ISZERO PUSH2 0x2DD4 JUMPI DUP2 PUSH1 0x20 ADD PUSH1 0x20 DUP3 MUL DUP1 CALLDATASIZE DUP4 CALLDATACOPY ADD SWAP1 POP JUMPDEST POP SWAP1 POP PUSH1 0x0 JUMPDEST DUP6 DUP2 LT ISZERO PUSH2 0x2EBA JUMPI DUP4 DUP2 PUSH2 0x2DEF PUSH1 0x1 DUP10 PUSH2 0x3A79 JUMP JUMPDEST PUSH2 0x2DF9 SWAP2 SWAP1 PUSH2 0x3A79 JUMP JUMPDEST DUP2 MLOAD DUP2 LT PUSH2 0x2E17 JUMPI PUSH4 0x4E487B71 PUSH1 0xE0 SHL PUSH1 0x0 MSTORE PUSH1 0x32 PUSH1 0x4 MSTORE PUSH1 0x24 PUSH1 0x0 REVERT JUMPDEST PUSH1 0x20 MUL PUSH1 0x20 ADD ADD MLOAD DUP3 DUP3 DUP2 MLOAD DUP2 LT PUSH2 0x2E3F JUMPI PUSH4 0x4E487B71 PUSH1 0xE0 SHL PUSH1 0x0 MSTORE PUSH1 0x32 PUSH1 0x4 MSTORE PUSH1 0x24 PUSH1 0x0 REVERT JUMPDEST PUSH1 0x20 MUL PUSH1 0x20 ADD ADD DUP2 DUP2 MSTORE POP POP PUSH2 0x2E7C DUP16 DUP4 DUP4 DUP2 MLOAD DUP2 LT PUSH2 0x2E6F JUMPI PUSH4 0x4E487B71 PUSH1 0xE0 SHL PUSH1 0x0 MSTORE PUSH1 0x32 PUSH1 0x4 MSTORE PUSH1 0x24 PUSH1 0x0 REVERT JUMPDEST PUSH1 0x20 MUL PUSH1 0x20 ADD ADD MLOAD PUSH2 0x1999 JUMP JUMPDEST DUP4 DUP3 DUP2 MLOAD DUP2 LT PUSH2 0x2E9C JUMPI PUSH4 0x4E487B71 PUSH1 0xE0 SHL PUSH1 0x0 MSTORE PUSH1 0x32 PUSH1 0x4 MSTORE PUSH1 0x24 PUSH1 0x0 REVERT JUMPDEST PUSH1 0x20 MUL PUSH1 0x20 ADD ADD DUP2 SWAP1 MSTORE POP DUP1 DUP1 PUSH2 0x2EB2 SWAP1 PUSH2 0x3B08 JUMP JUMPDEST SWAP2 POP POP PUSH2 0x2DDA JUMP JUMPDEST POP SWAP1 SWAP9 POP SWAP7 POP POP POP POP POP POP POP JUMPDEST SWAP5 POP SWAP5 SWAP3 POP POP POP JUMP JUMPDEST PUSH1 0x0 DUP1 PUSH1 0x0 PUSH2 0x2EE9 PUSH1 0x7 SLOAD PUSH2 0xA8C0 TIMESTAMP PUSH2 0x3E5 SWAP2 SWAP1 PUSH2 0x3A79 JUMP JUMPDEST SWAP1 SWAP3 POP SWAP1 POP DUP1 ISZERO PUSH2 0x3027 JUMPI PUSH1 0x0 DUP3 DUP1 PUSH1 0x20 ADD SWAP1 MLOAD DUP2 ADD SWAP1 PUSH2 0x2F0A SWAP2 SWAP1 PUSH2 0x32E0 JUMP JUMPDEST SWAP1 POP PUSH1 0x0 JUMPDEST DUP2 MLOAD DUP2 LT ISZERO PUSH2 0x3024 JUMPI PUSH1 0x0 DUP1 DUP4 DUP4 DUP2 MLOAD DUP2 LT PUSH2 0x2F3B JUMPI PUSH4 0x4E487B71 PUSH1 0xE0 SHL PUSH1 0x0 MSTORE PUSH1 0x32 PUSH1 0x4 MSTORE PUSH1 0x24 PUSH1 0x0 REVERT JUMPDEST PUSH1 0x20 MUL PUSH1 0x20 ADD ADD MLOAD PUSH1 0x1 PUSH1 0x1 PUSH1 0xA0 SHL SUB AND DUP9 PUSH1 0x40 MLOAD PUSH1 0x24 ADD PUSH2 0x2F6C SWAP2 SWAP1 PUSH1 0x1 PUSH1 0x1 PUSH1 0xA0 SHL SUB SWAP2 SWAP1 SWAP2 AND DUP2 MSTORE PUSH1 0x20 ADD SWAP1 JUMP JUMPDEST PUSH1 0x40 DUP1 MLOAD PUSH1 0x1F NOT DUP2 DUP5 SUB ADD DUP2 MSTORE SWAP2 DUP2 MSTORE PUSH1 0x20 DUP3 ADD DUP1 MLOAD PUSH1 0x1 PUSH1 0x1 PUSH1 0xE0 SHL SUB AND PUSH4 0x45D60823 PUSH1 0xE0 SHL OR SWAP1 MSTORE MLOAD PUSH2 0x2FA1 SWAP2 SWAP1 PUSH2 0x3703 JUMP JUMPDEST PUSH1 0x0 PUSH1 0x40 MLOAD DUP1 DUP4 SUB DUP2 PUSH1 0x0 DUP7 GAS CALL SWAP2 POP POP RETURNDATASIZE DUP1 PUSH1 0x0 DUP2 EQ PUSH2 0x2FDE JUMPI PUSH1 0x40 MLOAD SWAP2 POP PUSH1 0x1F NOT PUSH1 0x3F RETURNDATASIZE ADD AND DUP3 ADD PUSH1 0x40 MSTORE RETURNDATASIZE DUP3 MSTORE RETURNDATASIZE PUSH1 0x0 PUSH1 0x20 DUP5 ADD RETURNDATACOPY PUSH2 0x2FE3 JUMP JUMPDEST PUSH1 0x60 SWAP2 POP JUMPDEST POP SWAP2 POP SWAP2 POP DUP2 ISZERO PUSH2 0x300F JUMPI DUP1 DUP1 PUSH1 0x20 ADD SWAP1 MLOAD DUP2 ADD SWAP1 PUSH2 0x3002 SWAP2 SWAP1 PUSH2 0x3512 JUMP JUMPDEST PUSH2 0x300C SWAP1 DUP9 PUSH2 0x3917 JUMP JUMPDEST SWAP7 POP JUMPDEST POP POP DUP1 DUP1 PUSH2 0x301C SWAP1 PUSH2 0x3B08 JUMP JUMPDEST SWAP2 POP POP PUSH2 0x2F0F JUMP JUMPDEST POP POP JUMPDEST POP POP SWAP2 SWAP1 POP JUMP JUMPDEST PUSH1 0x0 DUP1 JUMPDEST DUP3 MLOAD DUP2 LT ISZERO PUSH2 0x308D JUMPI DUP3 DUP2 DUP2 MLOAD DUP2 LT PUSH2 0x305B JUMPI PUSH4 0x4E487B71 PUSH1 0xE0 SHL PUSH1 0x0 MSTORE PUSH1 0x32 PUSH1 0x4 MSTORE PUSH1 0x24 PUSH1 0x0 REVERT JUMPDEST ADD PUSH1 0x20 ADD MLOAD PUSH1 0xF8 SHR PUSH2 0x306F DUP4 PUSH2 0x100 PUSH2 0x3A5A JUMP JUMPDEST PUSH2 0x3079 SWAP2 SWAP1 PUSH2 0x3917 JUMP JUMPDEST SWAP2 POP DUP1 PUSH2 0x3085 DUP2 PUSH2 0x3B08 JUMP JUMPDEST SWAP2 POP POP PUSH2 0x3032 JUMP JUMPDEST POP SWAP2 SWAP1 POP JUMP JUMPDEST DUP3 DUP1 SLOAD PUSH2 0x309F SWAP1 PUSH2 0x3AD3 JUMP JUMPDEST SWAP1 PUSH1 0x0 MSTORE PUSH1 0x20 PUSH1 0x0 KECCAK256 SWAP1 PUSH1 0x1F ADD PUSH1 0x20 SWAP1 DIV DUP2 ADD SWAP3 DUP3 PUSH2 0x30C1 JUMPI PUSH1 0x0 DUP6 SSTORE PUSH2 0x3107 JUMP JUMPDEST DUP3 PUSH1 0x1F LT PUSH2 0x30DA JUMPI DUP1 MLOAD PUSH1 0xFF NOT AND DUP4 DUP1 ADD OR DUP6 SSTORE PUSH2 0x3107 JUMP JUMPDEST DUP3 DUP1 ADD PUSH1 0x1 ADD DUP6 SSTORE DUP3 ISZERO PUSH2 0x3107 JUMPI SWAP2 DUP3 ADD JUMPDEST DUP3 DUP2 GT ISZERO PUSH2 0x3107 JUMPI DUP3 MLOAD DUP3 SSTORE SWAP2 PUSH1 0x20 ADD SWAP2 SWAP1 PUSH1 0x1 ADD SWAP1 PUSH2 0x30EC JUMP JUMPDEST POP PUSH2 0x3113 SWAP3 SWAP2 POP PUSH2 0x31B1 JUMP JUMPDEST POP SWAP1 JUMP JUMPDEST DUP3 DUP1 SLOAD PUSH2 0x3123 SWAP1 PUSH2 0x3AD3 JUMP JUMPDEST SWAP1 PUSH1 0x0 MSTORE PUSH1 0x20 PUSH1 0x0 KECCAK256 SWAP1 PUSH1 0x1F ADD PUSH1 0x20 SWAP1 DIV DUP2 ADD SWAP3 DUP3 PUSH2 0x3145 JUMPI PUSH1 0x0 DUP6 SSTORE PUSH2 0x3107 JUMP JUMPDEST DUP3 PUSH1 0x1F LT PUSH2 0x3156 JUMPI DUP1 SLOAD DUP6 SSTORE PUSH2 0x3107 JUMP JUMPDEST DUP3 DUP1 ADD PUSH1 0x1 ADD DUP6 SSTORE DUP3 ISZERO PUSH2 0x3107 JUMPI PUSH1 0x0 MSTORE PUSH1 0x20 PUSH1 0x0 KECCAK256 SWAP2 PUSH1 0x1F ADD PUSH1 0x20 SWAP1 DIV DUP3 ADD JUMPDEST DUP3 DUP2 GT ISZERO PUSH2 0x3107 JUMPI DUP3 SLOAD DUP3 SSTORE SWAP2 PUSH1 0x1 ADD SWAP2 SWAP1 PUSH1 0x1 ADD SWAP1 PUSH2 0x3177 JUMP JUMPDEST PUSH1 0x40 MLOAD DUP1 PUSH2 0x220 ADD PUSH1 0x40 MSTORE DUP1 PUSH1 0x11 SWAP1 PUSH1 0x20 DUP3 MUL DUP1 CALLDATASIZE DUP4 CALLDATACOPY POP SWAP2 SWAP3 SWAP2 POP POP JUMP JUMPDEST JUMPDEST DUP1 DUP3 GT ISZERO PUSH2 0x3113 JUMPI PUSH1 0x0 DUP2 SSTORE PUSH1 0x1 ADD PUSH2 0x31B2 JUMP JUMPDEST PUSH1 0x0 DUP3 PUSH1 0x1F DUP4 ADD SLT PUSH2 0x31D6 JUMPI DUP1 DUP2 REVERT JUMPDEST DUP2 CALLDATALOAD PUSH1 0x20 PUSH2 0x31EB PUSH2 0x31E6 DUP4 PUSH2 0x38F3 JUMP JUMPDEST PUSH2 0x38C2 JUMP JUMPDEST DUP1 DUP4 DUP3 MSTORE DUP3 DUP3 ADD SWAP2 POP DUP3 DUP7 ADD DUP8 DUP5 DUP7 PUSH1 0x5 SHL DUP10 ADD ADD GT ISZERO PUSH2 0x320A JUMPI DUP6 DUP7 REVERT JUMPDEST DUP6 JUMPDEST DUP6 DUP2 LT ISZERO PUSH2 0x3231 JUMPI DUP2 CALLDATALOAD PUSH2 0x321F DUP2 PUSH2 0x3B67 JUMP JUMPDEST DUP5 MSTORE SWAP3 DUP5 ADD SWAP3 SWAP1 DUP5 ADD SWAP1 PUSH1 0x1 ADD PUSH2 0x320C JUMP JUMPDEST POP SWAP1 SWAP8 SWAP7 POP POP POP POP POP POP POP JUMP JUMPDEST PUSH1 0x0 DUP3 PUSH1 0x1F DUP4 ADD SLT PUSH2 0x324E JUMPI DUP1 DUP2 REVERT JUMPDEST DUP2 MLOAD PUSH8 0xFFFFFFFFFFFFFFFF DUP2 GT ISZERO PUSH2 0x3268 JUMPI PUSH2 0x3268 PUSH2 0x3B39 JUMP JUMPDEST PUSH2 0x327B PUSH1 0x1F DUP3 ADD PUSH1 0x1F NOT AND PUSH1 0x20 ADD PUSH2 0x38C2 JUMP JUMPDEST DUP2 DUP2 MSTORE DUP5 PUSH1 0x20 DUP4 DUP7 ADD ADD GT ISZERO PUSH2 0x328F JUMPI DUP3 DUP4 REVERT JUMPDEST PUSH2 0x32A0 DUP3 PUSH1 0x20 DUP4 ADD PUSH1 0x20 DUP8 ADD PUSH2 0x3A90 JUMP JUMPDEST SWAP5 SWAP4 POP POP POP POP JUMP JUMPDEST PUSH1 0x0 PUSH1 0x20 DUP3 DUP5 SUB SLT ISZERO PUSH2 0x32B9 JUMPI DUP1 DUP2 REVERT JUMPDEST DUP2 CALLDATALOAD PUSH2 0x102F DUP2 PUSH2 0x3B4F JUMP JUMPDEST PUSH1 0x0 PUSH1 0x20 DUP3 DUP5 SUB SLT ISZERO PUSH2 0x32D5 JUMPI DUP1 DUP2 REVERT JUMPDEST DUP2 MLOAD PUSH2 0x102F DUP2 PUSH2 0x3B4F JUMP JUMPDEST PUSH1 0x0 PUSH1 0x20 DUP1 DUP4 DUP6 SUB SLT ISZERO PUSH2 0x32F2 JUMPI DUP2 DUP3 REVERT JUMPDEST DUP3 MLOAD PUSH8 0xFFFFFFFFFFFFFFFF DUP2 GT ISZERO PUSH2 0x3308 JUMPI DUP3 DUP4 REVERT JUMPDEST DUP4 ADD PUSH1 0x1F DUP2 ADD DUP6 SGT PUSH2 0x3318 JUMPI DUP3 DUP4 REVERT JUMPDEST DUP1 MLOAD PUSH2 0x3326 PUSH2 0x31E6 DUP3 PUSH2 0x38F3 JUMP JUMPDEST DUP1 DUP3 DUP3 MSTORE DUP5 DUP3 ADD SWAP2 POP DUP5 DUP5 ADD DUP9 DUP7 DUP6 PUSH1 0x5 SHL DUP8 ADD ADD GT ISZERO PUSH2 0x3345 JUMPI DUP7 DUP8 REVERT JUMPDEST DUP7 SWAP5 POP JUMPDEST DUP4 DUP6 LT ISZERO PUSH2 0x3370 JUMPI DUP1 MLOAD PUSH2 0x335C DUP2 PUSH2 0x3B4F JUMP JUMPDEST DUP4 MSTORE PUSH1 0x1 SWAP5 SWAP1 SWAP5 ADD SWAP4 SWAP2 DUP6 ADD SWAP2 DUP6 ADD PUSH2 0x3349 JUMP JUMPDEST POP SWAP8 SWAP7 POP POP POP POP POP POP POP JUMP JUMPDEST PUSH1 0x0 DUP1 PUSH1 0x0 PUSH1 0x60 DUP5 DUP7 SUB SLT ISZERO PUSH2 0x3390 JUMPI DUP2 DUP3 REVERT JUMPDEST DUP4 CALLDATALOAD PUSH8 0xFFFFFFFFFFFFFFFF DUP1 DUP3 GT ISZERO PUSH2 0x33A7 JUMPI DUP4 DUP5 REVERT JUMPDEST DUP2 DUP7 ADD SWAP2 POP DUP7 PUSH1 0x1F DUP4 ADD SLT PUSH2 0x33BA JUMPI DUP4 DUP5 REVERT JUMPDEST DUP2 CALLDATALOAD PUSH1 0x20 PUSH2 0x33CA PUSH2 0x31E6 DUP4 PUSH2 0x38F3 JUMP JUMPDEST DUP1 DUP4 DUP3 MSTORE DUP3 DUP3 ADD SWAP2 POP DUP3 DUP7 ADD DUP12 DUP5 DUP7 PUSH1 0x5 SHL DUP10 ADD ADD GT ISZERO PUSH2 0x33E9 JUMPI DUP9 DUP10 REVERT JUMPDEST DUP9 SWAP7 POP JUMPDEST DUP5 DUP8 LT ISZERO PUSH2 0x340B JUMPI DUP1 CALLDATALOAD DUP4 MSTORE PUSH1 0x1 SWAP7 SWAP1 SWAP7 ADD SWAP6 SWAP2 DUP4 ADD SWAP2 DUP4 ADD PUSH2 0x33ED JUMP JUMPDEST POP SWAP8 POP POP DUP8 ADD CALLDATALOAD SWAP3 POP POP DUP1 DUP3 GT ISZERO PUSH2 0x3421 JUMPI DUP4 DUP5 REVERT JUMPDEST PUSH2 0x342D DUP8 DUP4 DUP9 ADD PUSH2 0x31C6 JUMP JUMPDEST SWAP4 POP PUSH1 0x40 DUP7 ADD CALLDATALOAD SWAP2 POP DUP1 DUP3 GT ISZERO PUSH2 0x3442 JUMPI DUP3 DUP4 REVERT JUMPDEST POP PUSH2 0x344F DUP7 DUP3 DUP8 ADD PUSH2 0x31C6 JUMP JUMPDEST SWAP2 POP POP SWAP3 POP SWAP3 POP SWAP3 JUMP JUMPDEST PUSH1 0x0 PUSH1 0x20 DUP3 DUP5 SUB SLT ISZERO PUSH2 0x346A JUMPI DUP1 DUP2 REVERT JUMPDEST DUP2 MLOAD PUSH2 0x102F DUP2 PUSH2 0x3B67 JUMP JUMPDEST PUSH1 0x0 DUP1 PUSH1 0x0 PUSH1 0x60 DUP5 DUP7 SUB SLT ISZERO PUSH2 0x3489 JUMPI DUP3 DUP4 REVERT JUMPDEST DUP4 MLOAD PUSH2 0x3494 DUP2 PUSH2 0x3B67 JUMP JUMPDEST PUSH1 0x20 DUP6 ADD MLOAD SWAP1 SWAP4 POP PUSH8 0xFFFFFFFFFFFFFFFF DUP2 GT ISZERO PUSH2 0x34B0 JUMPI DUP3 DUP4 REVERT JUMPDEST PUSH2 0x34BC DUP7 DUP3 DUP8 ADD PUSH2 0x323E JUMP JUMPDEST SWAP3 POP POP PUSH1 0x40 DUP5 ADD MLOAD SWAP1 POP SWAP3 POP SWAP3 POP SWAP3 JUMP JUMPDEST PUSH1 0x0 DUP1 PUSH1 0x40 DUP4 DUP6 SUB SLT ISZERO PUSH2 0x34DF JUMPI DUP2 DUP3 REVERT JUMPDEST DUP3 MLOAD PUSH2 0x34EA DUP2 PUSH2 0x3B67 JUMP JUMPDEST PUSH1 0x20 SWAP4 SWAP1 SWAP4 ADD MLOAD SWAP3 SWAP5 SWAP3 SWAP4 POP POP POP JUMP JUMPDEST PUSH1 0x0 PUSH1 0x20 DUP3 DUP5 SUB SLT ISZERO PUSH2 0x350B JUMPI DUP1 DUP2 REVERT JUMPDEST POP CALLDATALOAD SWAP2 SWAP1 POP JUMP JUMPDEST PUSH1 0x0 PUSH1 0x20 DUP3 DUP5 SUB SLT ISZERO PUSH2 0x3523 JUMPI DUP1 DUP2 REVERT JUMPDEST POP MLOAD SWAP2 SWAP1 POP JUMP JUMPDEST PUSH1 0x0 DUP1 PUSH1 0x40 DUP4 DUP6 SUB SLT ISZERO PUSH2 0x353C JUMPI DUP2 DUP3 REVERT JUMPDEST POP POP DUP1 CALLDATALOAD SWAP3 PUSH1 0x20 SWAP1 SWAP2 ADD CALLDATALOAD SWAP2 POP JUMP JUMPDEST PUSH1 0x0 DUP1 PUSH1 0x0 DUP1 PUSH1 0x80 DUP6 DUP8 SUB SLT ISZERO PUSH2 0x3560 JUMPI DUP2 DUP3 REVERT JUMPDEST POP POP DUP3 CALLDATALOAD SWAP5 PUSH1 0x20 DUP5 ADD CALLDATALOAD SWAP5 POP PUSH1 0x40 DUP5 ADD CALLDATALOAD SWAP4 PUSH1 0x60 ADD CALLDATALOAD SWAP3 POP SWAP1 POP JUMP JUMPDEST PUSH1 0x0 PUSH1 0x20 DUP3 DUP5 SUB SLT ISZERO PUSH2 0x358D JUMPI DUP1 DUP2 REVERT JUMPDEST DUP2 MLOAD PUSH8 0xFFFFFFFFFFFFFFFF DUP2 GT ISZERO PUSH2 0x35A3 JUMPI DUP2 DUP3 REVERT JUMPDEST PUSH2 0x32A0 DUP5 DUP3 DUP6 ADD PUSH2 0x323E JUMP JUMPDEST PUSH1 0x0 DUP1 PUSH1 0x40 DUP4 DUP6 SUB SLT ISZERO PUSH2 0x35C1 JUMPI DUP2 DUP3 REVERT JUMPDEST DUP3 CALLDATALOAD SWAP2 POP PUSH1 0x20 DUP4 ADD CALLDATALOAD PUSH2 0x35D3 DUP2 PUSH2 0x3B4F JUMP JUMPDEST DUP1 SWAP2 POP POP SWAP3 POP SWAP3 SWAP1 POP JUMP JUMPDEST PUSH1 0x0 DUP1 PUSH1 0x0 PUSH1 0x60 DUP5 DUP7 SUB SLT ISZERO PUSH2 0x35F2 JUMPI DUP1 DUP2 REVERT JUMPDEST DUP4 CALLDATALOAD SWAP3 POP PUSH1 0x20 DUP5 ADD CALLDATALOAD PUSH2 0x3604 DUP2 PUSH2 0x3B67 JUMP JUMPDEST SWAP2 POP PUSH1 0x40 DUP5 ADD CALLDATALOAD PUSH2 0x3614 DUP2 PUSH2 0x3B67 JUMP JUMPDEST DUP1 SWAP2 POP POP SWAP3 POP SWAP3 POP SWAP3 JUMP JUMPDEST PUSH1 0x0 DUP1 PUSH1 0x0 DUP1 PUSH1 0x0 DUP1 PUSH1 0x0 DUP1 PUSH2 0x100 DUP10 DUP12 SUB SLT ISZERO PUSH2 0x363B JUMPI DUP6 DUP7 REVERT JUMPDEST POP POP DUP7 MLOAD PUSH1 0x20 DUP9 ADD MLOAD PUSH1 0x40 DUP10 ADD MLOAD PUSH1 0x60 DUP11 ADD MLOAD PUSH1 0x80 DUP12 ADD MLOAD PUSH1 0xA0 DUP13 ADD MLOAD PUSH1 0xC0 DUP14 ADD MLOAD PUSH1 0xE0 SWAP1 SWAP14 ADD MLOAD SWAP6 SWAP15 SWAP5 SWAP14 POP SWAP3 SWAP12 SWAP2 SWAP11 POP SWAP9 POP SWAP1 SWAP7 POP SWAP5 POP SWAP1 SWAP3 POP SWAP1 POP JUMP JUMPDEST PUSH1 0x0 DUP2 MLOAD DUP1 DUP5 MSTORE PUSH1 0x20 DUP1 DUP6 ADD SWAP5 POP DUP1 DUP5 ADD DUP4 JUMPDEST DUP4 DUP2 LT ISZERO PUSH2 0x36AA JUMPI DUP2 MLOAD DUP8 MSTORE SWAP6 DUP3 ADD SWAP6 SWAP1 DUP3 ADD SWAP1 PUSH1 0x1 ADD PUSH2 0x368E JUMP JUMPDEST POP SWAP5 SWAP6 SWAP5 POP POP POP POP POP JUMP JUMPDEST PUSH1 0x0 DUP2 MLOAD DUP1 DUP5 MSTORE PUSH2 0x36CD DUP2 PUSH1 0x20 DUP7 ADD PUSH1 0x20 DUP7 ADD PUSH2 0x3A90 JUMP JUMPDEST PUSH1 0x1F ADD PUSH1 0x1F NOT AND SWAP3 SWAP1 SWAP3 ADD PUSH1 0x20 ADD SWAP3 SWAP2 POP POP JUMP JUMPDEST PUSH1 0x3 DUP2 LT PUSH2 0x36FF JUMPI PUSH4 0x4E487B71 PUSH1 0xE0 SHL PUSH1 0x0 MSTORE PUSH1 0x21 PUSH1 0x4 MSTORE PUSH1 0x24 PUSH1 0x0 REVERT JUMPDEST SWAP1 MSTORE JUMP JUMPDEST PUSH1 0x0 DUP3 MLOAD PUSH2 0x3715 DUP2 DUP5 PUSH1 0x20 DUP8 ADD PUSH2 0x3A90 JUMP JUMPDEST SWAP2 SWAP1 SWAP2 ADD SWAP3 SWAP2 POP POP JUMP JUMPDEST PUSH1 0x0 PUSH1 0x40 DUP3 ADD PUSH1 0x40 DUP4 MSTORE DUP1 DUP6 MLOAD DUP1 DUP4 MSTORE PUSH1 0x60 DUP6 ADD SWAP2 POP PUSH1 0x60 DUP2 PUSH1 0x5 SHL DUP7 ADD ADD SWAP3 POP PUSH1 0x20 DUP1 DUP9 ADD DUP6 JUMPDEST DUP4 DUP2 LT ISZERO PUSH2 0x3775 JUMPI PUSH1 0x5F NOT DUP9 DUP8 SUB ADD DUP6 MSTORE PUSH2 0x3763 DUP7 DUP4 MLOAD PUSH2 0x36B5 JUMP JUMPDEST SWAP6 POP SWAP4 DUP3 ADD SWAP4 SWAP1 DUP3 ADD SWAP1 PUSH1 0x1 ADD PUSH2 0x3747 JUMP JUMPDEST POP POP DUP6 DUP5 SUB DUP2 DUP8 ADD MSTORE POP POP POP PUSH2 0x378B DUP2 DUP6 PUSH2 0x367B JUMP JUMPDEST SWAP6 SWAP5 POP POP POP POP POP JUMP JUMPDEST PUSH1 0x0 PUSH1 0x20 DUP3 MSTORE PUSH2 0x102F PUSH1 0x20 DUP4 ADD DUP5 PUSH2 0x367B JUMP JUMPDEST DUP6 DUP2 MSTORE PUSH2 0x2A0 DUP2 ADD PUSH1 0x20 DUP1 DUP4 ADD DUP8 PUSH1 0x0 JUMPDEST PUSH1 0x11 DUP2 LT ISZERO PUSH2 0x37D5 JUMPI DUP2 MLOAD DUP4 MSTORE SWAP2 DUP4 ADD SWAP2 SWAP1 DUP4 ADD SWAP1 PUSH1 0x1 ADD PUSH2 0x37B8 JUMP JUMPDEST POP POP POP POP DUP5 ISZERO ISZERO PUSH2 0x240 DUP4 ADD MSTORE PUSH2 0x37F0 PUSH2 0x260 DUP4 ADD DUP6 PUSH2 0x36E1 JUMP JUMPDEST PUSH1 0x1 PUSH1 0x1 PUSH1 0xA0 SHL SUB DUP4 AND PUSH2 0x280 DUP4 ADD MSTORE SWAP7 SWAP6 POP POP POP POP POP POP JUMP JUMPDEST PUSH1 0x0 DUP6 DUP3 MSTORE DUP5 PUSH1 0x20 DUP4 ADD MSTORE PUSH1 0x80 PUSH1 0x40 DUP4 ADD MSTORE PUSH2 0x3829 PUSH1 0x80 DUP4 ADD DUP6 PUSH2 0x36B5 JUMP JUMPDEST SWAP1 POP PUSH1 0x1 PUSH1 0x1 PUSH1 0xA0 SHL SUB DUP4 AND PUSH1 0x60 DUP4 ADD MSTORE SWAP6 SWAP5 POP POP POP POP POP JUMP JUMPDEST PUSH1 0x0 PUSH1 0x20 DUP3 MSTORE PUSH2 0x102F PUSH1 0x20 DUP4 ADD DUP5 PUSH2 0x36B5 JUMP JUMPDEST PUSH1 0x0 PUSH1 0x40 DUP3 MSTORE PUSH2 0x3869 PUSH1 0x40 DUP4 ADD DUP6 PUSH2 0x36B5 JUMP JUMPDEST SWAP1 POP DUP3 PUSH1 0x20 DUP4 ADD MSTORE SWAP4 SWAP3 POP POP POP JUMP JUMPDEST DUP3 DUP2 MSTORE PUSH1 0x40 DUP2 ADD PUSH2 0x102F PUSH1 0x20 DUP4 ADD DUP5 PUSH2 0x36E1 JUMP JUMPDEST DUP5 DUP2 MSTORE PUSH1 0x80 DUP2 ADD PUSH2 0x38A0 PUSH1 0x20 DUP4 ADD DUP7 PUSH2 0x36E1 JUMP JUMPDEST PUSH1 0x1 PUSH1 0x1 PUSH1 0xA0 SHL SUB DUP1 DUP6 AND PUSH1 0x40 DUP5 ADD MSTORE DUP1 DUP5 AND PUSH1 0x60 DUP5 ADD MSTORE POP SWAP6 SWAP5 POP POP POP POP POP JUMP JUMPDEST PUSH1 0x40 MLOAD PUSH1 0x1F DUP3 ADD PUSH1 0x1F NOT AND DUP2 ADD PUSH8 0xFFFFFFFFFFFFFFFF DUP2 GT DUP3 DUP3 LT OR ISZERO PUSH2 0x38EB JUMPI PUSH2 0x38EB PUSH2 0x3B39 JUMP JUMPDEST PUSH1 0x40 MSTORE SWAP2 SWAP1 POP JUMP JUMPDEST PUSH1 0x0 PUSH8 0xFFFFFFFFFFFFFFFF DUP3 GT ISZERO PUSH2 0x390D JUMPI PUSH2 0x390D PUSH2 0x3B39 JUMP JUMPDEST POP PUSH1 0x5 SHL PUSH1 0x20 ADD SWAP1 JUMP JUMPDEST PUSH1 0x0 DUP3 NOT DUP3 GT ISZERO PUSH2 0x392A JUMPI PUSH2 0x392A PUSH2 0x3B23 JUMP JUMPDEST POP ADD SWAP1 JUMP JUMPDEST PUSH1 0x0 DUP3 PUSH2 0x394A JUMPI PUSH4 0x4E487B71 PUSH1 0xE0 SHL DUP2 MSTORE PUSH1 0x12 PUSH1 0x4 MSTORE PUSH1 0x24 DUP2 REVERT JUMPDEST POP DIV SWAP1 JUMP JUMPDEST DUP1 DUP3 JUMPDEST PUSH1 0x1 DUP1 DUP7 GT PUSH2 0x3961 JUMPI POP PUSH2 0x2EC7 JUMP JUMPDEST DUP2 DUP8 DIV DUP3 GT ISZERO PUSH2 0x3973 JUMPI PUSH2 0x3973 PUSH2 0x3B23 JUMP JUMPDEST DUP1 DUP7 AND ISZERO PUSH2 0x3980 JUMPI SWAP2 DUP2 MUL SWAP2 JUMPDEST SWAP5 SWAP1 SWAP5 SHR SWAP4 DUP1 MUL PUSH2 0x3952 JUMP JUMPDEST PUSH1 0x0 PUSH2 0x102F PUSH1 0x0 NOT DUP5 DUP5 PUSH1 0x0 DUP3 PUSH2 0x39A5 JUMPI POP PUSH1 0x1 PUSH2 0x102F JUMP JUMPDEST DUP2 PUSH2 0x39B2 JUMPI POP PUSH1 0x0 PUSH2 0x102F JUMP JUMPDEST DUP2 PUSH1 0x1 DUP2 EQ PUSH2 0x39C8 JUMPI PUSH1 0x2 DUP2 EQ PUSH2 0x39D2 JUMPI PUSH2 0x39FF JUMP JUMPDEST PUSH1 0x1 SWAP2 POP POP PUSH2 0x102F JUMP JUMPDEST PUSH1 0xFF DUP5 GT ISZERO PUSH2 0x39E3 JUMPI PUSH2 0x39E3 PUSH2 0x3B23 JUMP JUMPDEST PUSH1 0x1 DUP5 SHL SWAP2 POP DUP5 DUP3 GT ISZERO PUSH2 0x39F9 JUMPI PUSH2 0x39F9 PUSH2 0x3B23 JUMP JUMPDEST POP PUSH2 0x102F JUMP JUMPDEST POP PUSH1 0x20 DUP4 LT PUSH2 0x133 DUP4 LT AND PUSH1 0x4E DUP5 LT PUSH1 0xB DUP5 LT AND OR ISZERO PUSH2 0x3A32 JUMPI POP DUP2 DUP2 EXP DUP4 DUP2 GT ISZERO PUSH2 0x3A2D JUMPI PUSH2 0x3A2D PUSH2 0x3B23 JUMP JUMPDEST PUSH2 0x102F JUMP JUMPDEST PUSH2 0x3A3F DUP5 DUP5 DUP5 PUSH1 0x1 PUSH2 0x394F JUMP JUMPDEST DUP1 DUP7 DIV DUP3 GT ISZERO PUSH2 0x3A51 JUMPI PUSH2 0x3A51 PUSH2 0x3B23 JUMP JUMPDEST MUL SWAP5 SWAP4 POP POP POP POP JUMP JUMPDEST PUSH1 0x0 DUP2 PUSH1 0x0 NOT DIV DUP4 GT DUP3 ISZERO ISZERO AND ISZERO PUSH2 0x3A74 JUMPI PUSH2 0x3A74 PUSH2 0x3B23 JUMP JUMPDEST POP MUL SWAP1 JUMP JUMPDEST PUSH1 0x0 DUP3 DUP3 LT ISZERO PUSH2 0x3A8B JUMPI PUSH2 0x3A8B PUSH2 0x3B23 JUMP JUMPDEST POP SUB SWAP1 JUMP JUMPDEST PUSH1 0x0 JUMPDEST DUP4 DUP2 LT ISZERO PUSH2 0x3AAB JUMPI DUP2 DUP2 ADD MLOAD DUP4 DUP3 ADD MSTORE PUSH1 0x20 ADD PUSH2 0x3A93 JUMP JUMPDEST DUP4 DUP2 GT ISZERO PUSH2 0x617 JUMPI POP POP PUSH1 0x0 SWAP2 ADD MSTORE JUMP JUMPDEST PUSH1 0x0 DUP2 PUSH2 0x3ACB JUMPI PUSH2 0x3ACB PUSH2 0x3B23 JUMP JUMPDEST POP PUSH1 0x0 NOT ADD SWAP1 JUMP JUMPDEST PUSH1 0x1 DUP2 DUP2 SHR SWAP1 DUP3 AND DUP1 PUSH2 0x3AE7 JUMPI PUSH1 0x7F DUP3 AND SWAP2 POP JUMPDEST PUSH1 0x20 DUP3 LT DUP2 EQ ISZERO PUSH2 0x308D JUMPI PUSH4 0x4E487B71 PUSH1 0xE0 SHL PUSH1 0x0 MSTORE PUSH1 0x22 PUSH1 0x4 MSTORE PUSH1 0x24 PUSH1 0x0 REVERT JUMPDEST PUSH1 0x0 PUSH1 0x0 NOT DUP3 EQ ISZERO PUSH2 0x3B1C JUMPI PUSH2 0x3B1C PUSH2 0x3B23 JUMP JUMPDEST POP PUSH1 0x1 ADD SWAP1 JUMP JUMPDEST PUSH4 0x4E487B71 PUSH1 0xE0 SHL PUSH1 0x0 MSTORE PUSH1 0x11 PUSH1 0x4 MSTORE PUSH1 0x24 PUSH1 0x0 REVERT JUMPDEST PUSH4 0x4E487B71 PUSH1 0xE0 SHL PUSH1 0x0 MSTORE PUSH1 0x41 PUSH1 0x4 MSTORE PUSH1 0x24 PUSH1 0x0 REVERT JUMPDEST PUSH1 0x1 PUSH1 0x1 PUSH1 0xA0 SHL SUB DUP2 AND DUP2 EQ PUSH2 0x3B64 JUMPI PUSH1 0x0 DUP1 REVERT JUMPDEST POP JUMP JUMPDEST DUP1 ISZERO ISZERO DUP2 EQ PUSH2 0x3B64 JUMPI PUSH1 0x0 DUP1 REVERT INVALID LOG2 PUSH5 0x6970667358 0x22 SLT KECCAK256 0xD4 ADDRESS PUSH7 0x4F5F63987D8C7E DUP9 0x4D 0x4E 0xDA 0x4C 0xC1 DUP8 PUSH16 0x1977AA1FEA560434B0FB9CA3DFE56473 PUSH16 0x6C634300080300330000000000000000 "},"methodIdentifiers":{"autopayAddrsQueryId()":"d8add0f6","beginDispute(bytes32,uint256)":"1f379acc","didVote(uint256,address)":"a7c438bc","executeVote(uint256)":"f98a4eca","getDataAfter(bytes32,uint256)":"64ee3c6d","getDataBefore(bytes32,uint256)":"a792765f","getDisputeFee()":"bbf3e10b","getDisputeInfo(uint256)":"6169c308","getDisputesByReporter(address)":"4e9fe708","getIndexForDataAfter(bytes32,uint256)":"f66f49c3","getIndexForDataBefore(bytes32,uint256)":"29449085","getMultipleValuesBefore(bytes32,uint256,uint256,uint256)":"fcd4a546","getNewValueCountbyQueryId(bytes32)":"77b03e0d","getOpenDisputesOnId(bytes32)":"0e1596ef","getReporterByTimestamp(bytes32,uint256)":"e07c5486","getTimestampbyQueryIdandIndex(bytes32,uint256)":"ce5e11bf","getVoteCount()":"e7b3387c","getVoteInfo(uint256)":"8d824273","getVoteRounds(bytes32)":"248638e5","getVoteTallyByAddress(address)":"bdc7d9d8","idMappingContract()":"2af8aae0","isInDispute(bytes32,uint256)":"44e87f91","oracle()":"7dc0d1d0","oracleAddress()":"a89ae4ba","retrieveData(bytes32,uint256)":"c5958af9","setIdMappingContract(address)":"193b505b","tallyVotes(uint256)":"4d318b0e","teamMultisig()":"dbc0c085","tellor()":"1959ad5b","token()":"fc0c546a","valueFor(bytes32)":"f78eea83","vote(uint256,bool,bool)":"df133bca","voteCount()":"c6384071","voteOnMultipleDisputes(uint256[],bool[],bool[])":"00b12190"}}}}}