{
  "contracts/TellorPlayground.sol": {
    "TellorPlayground": {
      "abi": [
        {
          "inputs": [],
          "stateMutability": "nonpayable",
          "type": "constructor"
        },
        {
          "anonymous": false,
          "inputs": [
            {
              "indexed": true,
              "internalType": "address",
              "name": "owner",
              "type": "address"
            },
            {
              "indexed": true,
              "internalType": "address",
              "name": "spender",
              "type": "address"
            },
            {
              "indexed": false,
              "internalType": "uint256",
              "name": "value",
              "type": "uint256"
            }
          ],
          "name": "Approval",
          "type": "event"
        },
        {
          "anonymous": false,
          "inputs": [
            {
              "indexed": false,
              "internalType": "bytes32",
              "name": "_queryId",
              "type": "bytes32"
            },
            {
              "indexed": false,
              "internalType": "uint256",
              "name": "_time",
              "type": "uint256"
            },
            {
              "indexed": false,
              "internalType": "bytes",
              "name": "_value",
              "type": "bytes"
            },
            {
              "indexed": false,
              "internalType": "uint256",
              "name": "_nonce",
              "type": "uint256"
            },
            {
              "indexed": false,
              "internalType": "bytes",
              "name": "_queryData",
              "type": "bytes"
            },
            {
              "indexed": false,
              "internalType": "address",
              "name": "_reporter",
              "type": "address"
            }
          ],
          "name": "NewReport",
          "type": "event"
        },
        {
          "anonymous": false,
          "inputs": [
            {
              "indexed": false,
              "internalType": "address",
              "name": "_staker",
              "type": "address"
            },
            {
              "indexed": false,
              "internalType": "uint256",
              "name": "_amount",
              "type": "uint256"
            }
          ],
          "name": "NewStaker",
          "type": "event"
        },
        {
          "anonymous": false,
          "inputs": [
            {
              "indexed": false,
              "internalType": "address",
              "name": "_staker",
              "type": "address"
            },
            {
              "indexed": false,
              "internalType": "uint256",
              "name": "_amount",
              "type": "uint256"
            }
          ],
          "name": "StakeWithdrawRequested",
          "type": "event"
        },
        {
          "anonymous": false,
          "inputs": [
            {
              "indexed": false,
              "internalType": "address",
              "name": "_staker",
              "type": "address"
            }
          ],
          "name": "StakeWithdrawn",
          "type": "event"
        },
        {
          "anonymous": false,
          "inputs": [
            {
              "indexed": true,
              "internalType": "address",
              "name": "from",
              "type": "address"
            },
            {
              "indexed": true,
              "internalType": "address",
              "name": "to",
              "type": "address"
            },
            {
              "indexed": false,
              "internalType": "uint256",
              "name": "value",
              "type": "uint256"
            }
          ],
          "name": "Transfer",
          "type": "event"
        },
        {
          "inputs": [
            {
              "internalType": "uint256",
              "name": "_amount",
              "type": "uint256"
            }
          ],
          "name": "addStakingRewards",
          "outputs": [],
          "stateMutability": "nonpayable",
          "type": "function"
        },
        {
          "inputs": [
            {
              "internalType": "address",
              "name": "_owner",
              "type": "address"
            },
            {
              "internalType": "address",
              "name": "_spender",
              "type": "address"
            }
          ],
          "name": "allowance",
          "outputs": [
            {
              "internalType": "uint256",
              "name": "",
              "type": "uint256"
            }
          ],
          "stateMutability": "view",
          "type": "function"
        },
        {
          "inputs": [
            {
              "internalType": "address",
              "name": "_spender",
              "type": "address"
            },
            {
              "internalType": "uint256",
              "name": "_amount",
              "type": "uint256"
            }
          ],
          "name": "approve",
          "outputs": [
            {
              "internalType": "bool",
              "name": "",
              "type": "bool"
            }
          ],
          "stateMutability": "nonpayable",
          "type": "function"
        },
        {
          "inputs": [
            {
              "internalType": "address",
              "name": "_account",
              "type": "address"
            }
          ],
          "name": "balanceOf",
          "outputs": [
            {
              "internalType": "uint256",
              "name": "",
              "type": "uint256"
            }
          ],
          "stateMutability": "view",
          "type": "function"
        },
        {
          "inputs": [
            {
              "internalType": "bytes32",
              "name": "_queryId",
              "type": "bytes32"
            },
            {
              "internalType": "uint256",
              "name": "_timestamp",
              "type": "uint256"
            }
          ],
          "name": "beginDispute",
          "outputs": [],
          "stateMutability": "nonpayable",
          "type": "function"
        },
        {
          "inputs": [],
          "name": "decimals",
          "outputs": [
            {
              "internalType": "uint8",
              "name": "",
              "type": "uint8"
            }
          ],
          "stateMutability": "view",
          "type": "function"
        },
        {
          "inputs": [
            {
              "internalType": "uint256",
              "name": "_amount",
              "type": "uint256"
            }
          ],
          "name": "depositStake",
          "outputs": [],
          "stateMutability": "nonpayable",
          "type": "function"
        },
        {
          "inputs": [
            {
              "internalType": "address",
              "name": "_user",
              "type": "address"
            }
          ],
          "name": "faucet",
          "outputs": [],
          "stateMutability": "nonpayable",
          "type": "function"
        },
        {
          "inputs": [
            {
              "internalType": "bytes32",
              "name": "_queryId",
              "type": "bytes32"
            },
            {
              "internalType": "uint256",
              "name": "_timestamp",
              "type": "uint256"
            }
          ],
          "name": "getDataBefore",
          "outputs": [
            {
              "internalType": "bool",
              "name": "_ifRetrieve",
              "type": "bool"
            },
            {
              "internalType": "bytes",
              "name": "_value",
              "type": "bytes"
            },
            {
              "internalType": "uint256",
              "name": "_timestampRetrieved",
              "type": "uint256"
            }
          ],
          "stateMutability": "view",
          "type": "function"
        },
        {
          "inputs": [
            {
              "internalType": "bytes32",
              "name": "_queryId",
              "type": "bytes32"
            },
            {
              "internalType": "uint256",
              "name": "_timestamp",
              "type": "uint256"
            }
          ],
          "name": "getIndexForDataBefore",
          "outputs": [
            {
              "internalType": "bool",
              "name": "_found",
              "type": "bool"
            },
            {
              "internalType": "uint256",
              "name": "_index",
              "type": "uint256"
            }
          ],
          "stateMutability": "view",
          "type": "function"
        },
        {
          "inputs": [
            {
              "internalType": "bytes32",
              "name": "_queryId",
              "type": "bytes32"
            }
          ],
          "name": "getNewValueCountbyQueryId",
          "outputs": [
            {
              "internalType": "uint256",
              "name": "",
              "type": "uint256"
            }
          ],
          "stateMutability": "view",
          "type": "function"
        },
        {
          "inputs": [
            {
              "internalType": "bytes32",
              "name": "_queryId",
              "type": "bytes32"
            },
            {
              "internalType": "uint256",
              "name": "_timestamp",
              "type": "uint256"
            }
          ],
          "name": "getReporterByTimestamp",
          "outputs": [
            {
              "internalType": "address",
              "name": "",
              "type": "address"
            }
          ],
          "stateMutability": "view",
          "type": "function"
        },
        {
          "inputs": [],
          "name": "getStakeAmount",
          "outputs": [
            {
              "internalType": "uint256",
              "name": "",
              "type": "uint256"
            }
          ],
          "stateMutability": "view",
          "type": "function"
        },
        {
          "inputs": [
            {
              "internalType": "address",
              "name": "_stakerAddress",
              "type": "address"
            }
          ],
          "name": "getStakerInfo",
          "outputs": [
            {
              "internalType": "uint256",
              "name": "",
              "type": "uint256"
            },
            {
              "internalType": "uint256",
              "name": "",
              "type": "uint256"
            },
            {
              "internalType": "uint256",
              "name": "",
              "type": "uint256"
            },
            {
              "internalType": "uint256",
              "name": "",
              "type": "uint256"
            },
            {
              "internalType": "uint256",
              "name": "",
              "type": "uint256"
            },
            {
              "internalType": "uint256",
              "name": "",
              "type": "uint256"
            },
            {
              "internalType": "uint256",
              "name": "",
              "type": "uint256"
            },
            {
              "internalType": "uint256",
              "name": "",
              "type": "uint256"
            },
            {
              "internalType": "bool",
              "name": "",
              "type": "bool"
            }
          ],
          "stateMutability": "view",
          "type": "function"
        },
        {
          "inputs": [
            {
              "internalType": "bytes32",
              "name": "_queryId",
              "type": "bytes32"
            },
            {
              "internalType": "uint256",
              "name": "_index",
              "type": "uint256"
            }
          ],
          "name": "getTimestampbyQueryIdandIndex",
          "outputs": [
            {
              "internalType": "uint256",
              "name": "",
              "type": "uint256"
            }
          ],
          "stateMutability": "view",
          "type": "function"
        },
        {
          "inputs": [
            {
              "internalType": "bytes32",
              "name": "_hash",
              "type": "bytes32"
            }
          ],
          "name": "getVoteRounds",
          "outputs": [
            {
              "internalType": "uint256[]",
              "name": "",
              "type": "uint256[]"
            }
          ],
          "stateMutability": "view",
          "type": "function"
        },
        {
          "inputs": [],
          "name": "governance",
          "outputs": [
            {
              "internalType": "address",
              "name": "",
              "type": "address"
            }
          ],
          "stateMutability": "view",
          "type": "function"
        },
        {
          "inputs": [
            {
              "internalType": "bytes32",
              "name": "",
              "type": "bytes32"
            },
            {
              "internalType": "uint256",
              "name": "",
              "type": "uint256"
            }
          ],
          "name": "isDisputed",
          "outputs": [
            {
              "internalType": "bool",
              "name": "",
              "type": "bool"
            }
          ],
          "stateMutability": "view",
          "type": "function"
        },
        {
          "inputs": [
            {
              "internalType": "bytes32",
              "name": "_queryId",
              "type": "bytes32"
            },
            {
              "internalType": "uint256",
              "name": "_timestamp",
              "type": "uint256"
            }
          ],
          "name": "isInDispute",
          "outputs": [
            {
              "internalType": "bool",
              "name": "",
              "type": "bool"
            }
          ],
          "stateMutability": "view",
          "type": "function"
        },
        {
          "inputs": [],
          "name": "name",
          "outputs": [
            {
              "internalType": "string",
              "name": "",
              "type": "string"
            }
          ],
          "stateMutability": "view",
          "type": "function"
        },
        {
          "inputs": [
            {
              "internalType": "bytes32",
              "name": "",
              "type": "bytes32"
            },
            {
              "internalType": "uint256",
              "name": "",
              "type": "uint256"
            }
          ],
          "name": "reporterByTimestamp",
          "outputs": [
            {
              "internalType": "address",
              "name": "",
              "type": "address"
            }
          ],
          "stateMutability": "view",
          "type": "function"
        },
        {
          "inputs": [
            {
              "internalType": "uint256",
              "name": "_amount",
              "type": "uint256"
            }
          ],
          "name": "requestStakingWithdraw",
          "outputs": [],
          "stateMutability": "nonpayable",
          "type": "function"
        },
        {
          "inputs": [
            {
              "internalType": "bytes32",
              "name": "_queryId",
              "type": "bytes32"
            },
            {
              "internalType": "uint256",
              "name": "_timestamp",
              "type": "uint256"
            }
          ],
          "name": "retrieveData",
          "outputs": [
            {
              "internalType": "bytes",
              "name": "",
              "type": "bytes"
            }
          ],
          "stateMutability": "view",
          "type": "function"
        },
        {
          "inputs": [],
          "name": "stakeAmount",
          "outputs": [
            {
              "internalType": "uint256",
              "name": "",
              "type": "uint256"
            }
          ],
          "stateMutability": "view",
          "type": "function"
        },
        {
          "inputs": [
            {
              "internalType": "bytes32",
              "name": "_queryId",
              "type": "bytes32"
            },
            {
              "internalType": "bytes",
              "name": "_value",
              "type": "bytes"
            },
            {
              "internalType": "uint256",
              "name": "_nonce",
              "type": "uint256"
            },
            {
              "internalType": "bytes",
              "name": "_queryData",
              "type": "bytes"
            }
          ],
          "name": "submitValue",
          "outputs": [],
          "stateMutability": "nonpayable",
          "type": "function"
        },
        {
          "inputs": [],
          "name": "symbol",
          "outputs": [
            {
              "internalType": "string",
              "name": "",
              "type": "string"
            }
          ],
          "stateMutability": "view",
          "type": "function"
        },
        {
          "inputs": [],
          "name": "timeBasedReward",
          "outputs": [
            {
              "internalType": "uint256",
              "name": "",
              "type": "uint256"
            }
          ],
          "stateMutability": "view",
          "type": "function"
        },
        {
          "inputs": [
            {
              "internalType": "bytes32",
              "name": "",
              "type": "bytes32"
            },
            {
              "internalType": "uint256",
              "name": "",
              "type": "uint256"
            }
          ],
          "name": "timestamps",
          "outputs": [
            {
              "internalType": "uint256",
              "name": "",
              "type": "uint256"
            }
          ],
          "stateMutability": "view",
          "type": "function"
        },
        {
          "inputs": [
            {
              "internalType": "bytes32",
              "name": "",
              "type": "bytes32"
            }
          ],
          "name": "tips",
          "outputs": [
            {
              "internalType": "uint256",
              "name": "",
              "type": "uint256"
            }
          ],
          "stateMutability": "view",
          "type": "function"
        },
        {
          "inputs": [],
          "name": "tipsInContract",
          "outputs": [
            {
              "internalType": "uint256",
              "name": "",
              "type": "uint256"
            }
          ],
          "stateMutability": "view",
          "type": "function"
        },
        {
          "inputs": [],
          "name": "totalSupply",
          "outputs": [
            {
              "internalType": "uint256",
              "name": "",
              "type": "uint256"
            }
          ],
          "stateMutability": "view",
          "type": "function"
        },
        {
          "inputs": [
            {
              "internalType": "address",
              "name": "_recipient",
              "type": "address"
            },
            {
              "internalType": "uint256",
              "name": "_amount",
              "type": "uint256"
            }
          ],
          "name": "transfer",
          "outputs": [
            {
              "internalType": "bool",
              "name": "",
              "type": "bool"
            }
          ],
          "stateMutability": "nonpayable",
          "type": "function"
        },
        {
          "inputs": [
            {
              "internalType": "address",
              "name": "_sender",
              "type": "address"
            },
            {
              "internalType": "address",
              "name": "_recipient",
              "type": "address"
            },
            {
              "internalType": "uint256",
              "name": "_amount",
              "type": "uint256"
            }
          ],
          "name": "transferFrom",
          "outputs": [
            {
              "internalType": "bool",
              "name": "",
              "type": "bool"
            }
          ],
          "stateMutability": "nonpayable",
          "type": "function"
        },
        {
          "inputs": [
            {
              "internalType": "bytes32",
              "name": "",
              "type": "bytes32"
            },
            {
              "internalType": "uint256",
              "name": "",
              "type": "uint256"
            }
          ],
          "name": "values",
          "outputs": [
            {
              "internalType": "bytes",
              "name": "",
              "type": "bytes"
            }
          ],
          "stateMutability": "view",
          "type": "function"
        },
        {
          "inputs": [],
          "name": "voteCount",
          "outputs": [
            {
              "internalType": "uint256",
              "name": "",
              "type": "uint256"
            }
          ],
          "stateMutability": "view",
          "type": "function"
        },
        {
          "inputs": [
            {
              "internalType": "bytes32",
              "name": "",
              "type": "bytes32"
            },
            {
              "internalType": "uint256",
              "name": "",
              "type": "uint256"
            }
          ],
          "name": "voteRounds",
          "outputs": [
            {
              "internalType": "uint256",
              "name": "",
              "type": "uint256"
            }
          ],
          "stateMutability": "view",
          "type": "function"
        },
        {
          "inputs": [],
          "name": "withdrawStake",
          "outputs": [],
          "stateMutability": "nonpayable",
          "type": "function"
        }
      ],
      "evm": {
        "bytecode": {
          "linkReferences": {},
          "object": "60806040523480156200001157600080fd5b506040518060400160405280601081526020017f54656c6c6f72506c617967726f756e6400000000000000000000000000000000815250600d90805190602001906200005f929190620000d0565b506040518060400160405280600481526020017f5452425000000000000000000000000000000000000000000000000000000000815250600e9080519060200190620000ad929190620000d0565b506012600f60006101000a81548160ff021916908360ff160217905550620001e5565b828054620000de9062000180565b90600052602060002090601f0160209004810192826200010257600085556200014e565b82601f106200011d57805160ff19168380011785556200014e565b828001600101855582156200014e579182015b828111156200014d57825182559160200191906001019062000130565b5b5090506200015d919062000161565b5090565b5b808211156200017c57600081600090555060010162000162565b5090565b600060028204905060018216806200019957607f821691505b60208210811415620001b057620001af620001b6565b5b50919050565b7f4e487b7100000000000000000000000000000000000000000000000000000000600052602260045260246000fd5b61326c80620001f56000396000f3fe608060405234801561001057600080fd5b50600436106102275760003560e01c8063722580b611610130578063bed9d861116100b8578063ce5e11bf1161007c578063ce5e11bf146106f9578063d9c51cd414610729578063dd62ed3e14610745578063e07c548614610775578063f25133f3146107a557610227565b8063bed9d86114610655578063c5958af91461065f578063c63840711461068f578063c979fe9f146106ad578063cb82cc8f146106dd57610227565b806395d89b41116100ff57806395d89b411461059b57806396426d97146105b9578063a792765f146105d7578063a9059cbb14610609578063b86d1d631461063957610227565b8063722580b6146104f9578063733bdef01461051757806377b03e0d1461054f5780638929f4c61461057f57610227565b8063313ce567116101b3578063602bf22711610182578063602bf2271461042d57806360c7dc471461045d57806364473df21461047b57806369d43bd3146104ab57806370a08231146104c957610227565b8063313ce567146103a557806344e87f91146103c35780635aa6e675146103f35780635eaa9ced1461041157610227565b80631f379acc116101fa5780631f379acc146102c8578063217053c0146102e457806323b872dd14610314578063248638e514610344578063294490851461037457610227565b806306fdde031461022c578063091b50ff1461024a578063095ea7b31461027a57806318160ddd146102aa575b600080fd5b6102346107d5565b6040516102419190612946565b60405180910390f35b610264600480360381019061025f91906123de565b610867565b6040516102719190612924565b60405180910390f35b610294600480360381019061028f91906122e1565b610914565b6040516102a19190612831565b60405180910390f35b6102b261092b565b6040516102bf9190612ac8565b60405180910390f35b6102e260048036038101906102dd91906123de565b610935565b005b6102fe60048036038101906102f991906123de565b610a39565b60405161030b91906127cb565b60405180910390f35b61032e60048036038101906103299190612292565b610a7b565b60405161033b9190612831565b60405180910390f35b61035e6004803603810190610359919061231d565b610b25565b60405161036b919061280f565b60405180910390f35b61038e600480360381019061038991906123de565b610b90565b60405161039c92919061288a565b60405180910390f35b6103ad610e90565b6040516103ba9190612b70565b60405180910390f35b6103dd60048036038101906103d891906123de565b610ea7565b6040516103ea9190612831565b60405180910390f35b6103fb610ee2565b60405161040891906127cb565b60405180910390f35b61042b60048036038101906104269190612346565b610eea565b005b6104476004803603810190610442919061231d565b6111d9565b6040516104549190612ac8565b60405180910390f35b6104656111f1565b6040516104729190612ac8565b60405180910390f35b610495600480360381019061049091906123de565b6111f7565b6040516104a29190612831565b60405180910390f35b6104b3611226565b6040516104c09190612ac8565b60405180910390f35b6104e360048036038101906104de919061222d565b61122c565b6040516104f09190612ac8565b60405180910390f35b610501611275565b60405161050e9190612ac8565b60405180910390f35b610531600480360381019061052c919061222d565b61127f565b60405161054699989796959493929190612ae3565b60405180910390f35b6105696004803603810190610564919061231d565b61130f565b6040516105769190612ac8565b60405180910390f35b6105996004803603810190610594919061241a565b61132f565b005b6105a3611435565b6040516105b09190612946565b60405180910390f35b6105c16114c7565b6040516105ce9190612ac8565b60405180910390f35b6105f160048036038101906105ec91906123de565b6114d3565b6040516106009392919061284c565b60405180910390f35b610623600480360381019061061e91906122e1565b611536565b6040516106309190612831565b60405180910390f35b610653600480360381019061064e919061222d565b61154d565b005b61065d611563565b005b610679600480360381019061067491906123de565b611695565b6040516106869190612924565b60405180910390f35b61069761174c565b6040516106a49190612ac8565b60405180910390f35b6106c760048036038101906106c291906123de565b611752565b6040516106d49190612ac8565b60405180910390f35b6106f760048036038101906106f2919061241a565b611783565b005b610713600480360381019061070e91906123de565b6118a7565b6040516107209190612ac8565b60405180910390f35b610743600480360381019061073e919061241a565b611941565b005b61075f600480360381019061075a9190612256565b611958565b60405161076c9190612ac8565b60405180910390f35b61078f600480360381019061078a91906123de565b6119df565b60405161079c91906127cb565b60405180910390f35b6107bf60048036038101906107ba91906123de565b611a2e565b6040516107cc9190612ac8565b60405180910390f35b6060600d80546107e490612de3565b80601f016020809104026020016040519081016040528092919081815260200182805461081090612de3565b801561085d5780601f106108325761010080835404028352916020019161085d565b820191906000526020600020905b81548152906001019060200180831161084057829003601f168201915b5050505050905090565b600560205281600052604060002060205280600052604060002060009150915050805461089390612de3565b80601f01602080910402602001604051908101604052809291908181526020018280546108bf90612de3565b801561090c5780601f106108e15761010080835404028352916020019161090c565b820191906000526020600020905b8154815290600101906020018083116108ef57829003601f168201915b505050505081565b6000610921338484611a5f565b6001905092915050565b6000600c54905090565b60405180602001604052806000815250600560008481526020019081526020016000206000838152602001908152602001600020908051906020019061097c929190612013565b506001600080848152602001908152602001600020600083815260200190815260200160002060006101000a81548160ff021916908315150217905550600b60008154809291906109cc90612e46565b91905055506006600083836040516020016109e8929190612786565b604051602081830303815290604052805190602001208152602001908152602001600020600b5490806001815401808255809150506001900390600052602060002001600090919091909150555050565b60016020528160005260406000206020528060005260406000206000915091509054906101000a900473ffffffffffffffffffffffffffffffffffffffff1681565b6000610a88848484611c2a565b610b1a843384600760008973ffffffffffffffffffffffffffffffffffffffff1673ffffffffffffffffffffffffffffffffffffffff16815260200190815260200160002060003373ffffffffffffffffffffffffffffffffffffffff1673ffffffffffffffffffffffffffffffffffffffff16815260200190815260200160002054610b159190612ce4565b611a5f565b600190509392505050565b606060066000838152602001908152602001600020805480602002602001604051908101604052809291908181526020018280548015610b8457602002820191906000526020600020905b815481526020019060010190808311610b70575b50505050509050919050565b6000806000610b9e8561130f565b90506000811115610e8057600080600090506000600184610bbf9190612ce4565b90506000610bcd89846118a7565b9050878110610be757600080965096505050505050610e89565b610bf189836118a7565b905087811015610c73575b610c068982610ea7565b8015610c125750600082115b15610c36578180610c2290612db9565b925050610c2f89836118a7565b9050610bfc565b600082148015610c4c5750610c4b8982610ea7565b5b15610c6257600080965096505050505050610e89565b600182965096505050505050610e89565b5b600115610e7b5782600160028585610c8c9190612ce4565b610c969190612cb3565b610ca09190612c5d565b610caa9190612c5d565b9350610cb689856118a7565b905087811015610d90576000610cd88a600187610cd39190612c5d565b6118a7565b9050888110610d7b57610ceb8a83610ea7565b610d015760018597509750505050505050610e89565b5b610d0c8a83610ea7565b8015610d185750600085115b15610d3c578480610d2890612db9565b955050610d358a866118a7565b9150610d02565b600085148015610d525750610d518a83610ea7565b5b15610d695760008097509750505050505050610e89565b60018597509750505050505050610e89565b600185610d889190612c5d565b935050610e76565b6000610da88a600187610da39190612ce4565b6118a7565b905088811015610e6557610dbc8a82610ea7565b610ddd5760018086610dce9190612ce4565b97509750505050505050610e89565b8480610de890612db9565b9550505b610df68a82610ea7565b8015610e025750600085115b15610e26578480610e1290612db9565b955050610e1f8a866118a7565b9050610dec565b600085148015610e3c5750610e3b8a82610ea7565b5b15610e535760008097509750505050505050610e89565b60018597509750505050505050610e89565b600185610e729190612ce4565b9250505b610c74565b505050505b60008092509250505b9250929050565b6000600f60009054906101000a900460ff16905090565b6000806000848152602001908152602001600020600083815260200190815260200160002060009054906101000a900460ff16905092915050565b600030905090565b7fc5d2460186f7233c927e7db2dcc703c0e500b653ca82273b7bfad8045d85a4708484604051610f1b9291906127b2565b60405180910390201415610f64576040517f08c379a0000000000000000000000000000000000000000000000000000000008152600401610f5b906129e8565b60405180910390fd5b6003600086815260200190815260200160002080549050821480610f885750600082145b610fc7576040517f08c379a0000000000000000000000000000000000000000000000000000000008152600401610fbe90612a08565b60405180910390fd5b8080519060200120851480610fe0575060648560001c11155b61101f576040517f08c379a0000000000000000000000000000000000000000000000000000000008152600401611016906129a8565b60405180910390fd5b83836005600088815260200190815260200160002060004281526020019081526020016000209190611052929190612099565b50600360008681526020019081526020016000204290806001815401808255809150506001900390600052602060002001600090919091909150553360016000878152602001908152602001600020600042815260200190815260200160002060006101000a81548173ffffffffffffffffffffffffffffffffffffffff021916908373ffffffffffffffffffffffffffffffffffffffff16021790555042600260003373ffffffffffffffffffffffffffffffffffffffff1673ffffffffffffffffffffffffffffffffffffffff16815260200190815260200160002060030181905550600260003373ffffffffffffffffffffffffffffffffffffffff1673ffffffffffffffffffffffffffffffffffffffff168152602001908152602001600020600401600081548092919061118a90612e46565b91905055507f48e9e2c732ba278de6ac88a3a57a5c5ba13d3d8370e709b3b98333a57876ca95854286868686336040516111ca97969594939291906128b3565b60405180910390a15050505050565b60046020528060005260406000206000915090505481565b60095481565b60006020528160005260406000206020528060005260406000206000915091509054906101000a900460ff1681565b600a5481565b6000600860008373ffffffffffffffffffffffffffffffffffffffff1673ffffffffffffffffffffffffffffffffffffffff168152602001908152602001600020549050919050565b6000600954905090565b600080600080600080600080600080600260008c73ffffffffffffffffffffffffffffffffffffffff1673ffffffffffffffffffffffffffffffffffffffff16815260200190815260200160002090508060000154816001015482600201546000846003015485600401546000806000995099509950995099509950995099509950509193959799909294969850565b600060036000838152602001908152602001600020805490509050919050565b6000600260003373ffffffffffffffffffffffffffffffffffffffff1673ffffffffffffffffffffffffffffffffffffffff168152602001908152602001600020905081816001015410156113b9576040517f08c379a00000000000000000000000000000000000000000000000000000000081526004016113b090612a88565b60405180910390fd5b428160000181905550818160020160008282546113d69190612c5d565b92505081905550818160010160008282546113f19190612ce4565b925050819055507f3d8d9df4bd0172df32e557fa48e96435cd7f2cac06aaffacfaee608e6f7898ef33836040516114299291906127e6565b60405180910390a15050565b6060600e805461144490612de3565b80601f016020809104026020016040519081016040528092919081815260200182805461147090612de3565b80156114bd5780601f10611492576101008083540402835291602001916114bd565b820191906000526020600020905b8154815290600101906020018083116114a057829003601f168201915b5050505050905090565b6706f05b59d3b2000081565b6000606060008060006114e68787610b90565b9150915081611510576000604051806020016040528060008152506000945094509450505061152f565b61151a87826118a7565b92506115268784611695565b93506001945050505b9250925092565b6000611543338484611c2a565b6001905092915050565b61156081683635c9adc5dea00000611e20565b50565b6000600260003373ffffffffffffffffffffffffffffffffffffffff1673ffffffffffffffffffffffffffffffffffffffff168152602001908152602001600020905062093a808160000154426115ba9190612ce4565b10156115fb576040517f08c379a00000000000000000000000000000000000000000000000000000000081526004016115f2906129c8565b60405180910390fd5b6000816002015411611642576040517f08c379a000000000000000000000000000000000000000000000000000000000815260040161163990612a48565b60405180910390fd5b61165130338360020154611c2a565b600081600201819055507f4a7934670bd8304e7da22378be1368f7c4fef17c5aee81804beda8638fe428ec3360405161168a91906127cb565b60405180910390a150565b606060056000848152602001908152602001600020600083815260200190815260200160002080546116c690612de3565b80601f01602080910402602001604051908101604052809291908181526020018280546116f290612de3565b801561173f5780601f106117145761010080835404028352916020019161173f565b820191906000526020600020905b81548152906001019060200180831161172257829003601f168201915b5050505050905092915050565b600b5481565b6006602052816000526040600020818154811061176e57600080fd5b90600052602060002001600091509150505481565b6000600260003373ffffffffffffffffffffffffffffffffffffffff1673ffffffffffffffffffffffffffffffffffffffff168152602001908152602001600020905060008160020154111561183157818160020154106117fe57818160020160008282546117f29190612ce4565b9250508190555061182c565b61181833308360020154856118139190612ce4565b611f69565b61182157600080fd5b600081600201819055505b611846565b61183c333084611f69565b61184557600080fd5b5b428160000181905550818160010160008282546118639190612c5d565b925050819055507fa96c2cce65119a2170d1711a6e82f18f2006448828483ba7545e595476543647338360405161189b9291906127e6565b60405180910390a15050565b6000806003600085815260200190815260200160002080549050905060008114806118d25750828111155b156118e157600091505061193b565b60036000858152602001908152602001600020838154811061192c577f4e487b7100000000000000000000000000000000000000000000000000000000600052603260045260246000fd5b90600052602060002001549150505b92915050565b61194c333083611f69565b61195557600080fd5b50565b6000600760008473ffffffffffffffffffffffffffffffffffffffff1673ffffffffffffffffffffffffffffffffffffffff16815260200190815260200160002060008373ffffffffffffffffffffffffffffffffffffffff1673ffffffffffffffffffffffffffffffffffffffff16815260200190815260200160002054905092915050565b600060016000848152602001908152602001600020600083815260200190815260200160002060009054906101000a900473ffffffffffffffffffffffffffffffffffffffff16905092915050565b60036020528160005260406000208181548110611a4a57600080fd5b90600052602060002001600091509150505481565b600073ffffffffffffffffffffffffffffffffffffffff168373ffffffffffffffffffffffffffffffffffffffff161415611acf576040517f08c379a0000000000000000000000000000000000000000000000000000000008152600401611ac690612a68565b60405180910390fd5b600073ffffffffffffffffffffffffffffffffffffffff168273ffffffffffffffffffffffffffffffffffffffff161415611b3f576040517f08c379a0000000000000000000000000000000000000000000000000000000008152600401611b3690612988565b60405180910390fd5b80600760008573ffffffffffffffffffffffffffffffffffffffff1673ffffffffffffffffffffffffffffffffffffffff16815260200190815260200160002060008473ffffffffffffffffffffffffffffffffffffffff1673ffffffffffffffffffffffffffffffffffffffff168152602001908152602001600020819055508173ffffffffffffffffffffffffffffffffffffffff168373ffffffffffffffffffffffffffffffffffffffff167f8c5be1e5ebec7d5bd14f71427d1e84f3dd0314c0f7b2291e5b200ac8c7c3b92583604051611c1d9190612ac8565b60405180910390a3505050565b600073ffffffffffffffffffffffffffffffffffffffff168373ffffffffffffffffffffffffffffffffffffffff161415611c9a576040517f08c379a0000000000000000000000000000000000000000000000000000000008152600401611c9190612a28565b60405180910390fd5b600073ffffffffffffffffffffffffffffffffffffffff168273ffffffffffffffffffffffffffffffffffffffff161415611d0a576040517f08c379a0000000000000000000000000000000000000000000000000000000008152600401611d0190612968565b60405180910390fd5b80600860008573ffffffffffffffffffffffffffffffffffffffff1673ffffffffffffffffffffffffffffffffffffffff1681526020019081526020016000206000828254611d599190612ce4565b9250508190555080600860008473ffffffffffffffffffffffffffffffffffffffff1673ffffffffffffffffffffffffffffffffffffffff1681526020019081526020016000206000828254611daf9190612c5d565b925050819055508173ffffffffffffffffffffffffffffffffffffffff168373ffffffffffffffffffffffffffffffffffffffff167fddf252ad1be2c89b69c2b068fc378daa952ba7f163c4a11628f55a4df523b3ef83604051611e139190612ac8565b60405180910390a3505050565b600073ffffffffffffffffffffffffffffffffffffffff168273ffffffffffffffffffffffffffffffffffffffff161415611e90576040517f08c379a0000000000000000000000000000000000000000000000000000000008152600401611e8790612aa8565b60405180910390fd5b80600c6000828254611ea29190612c5d565b9250508190555080600860008473ffffffffffffffffffffffffffffffffffffffff1673ffffffffffffffffffffffffffffffffffffffff1681526020019081526020016000206000828254611ef89190612c5d565b925050819055508173ffffffffffffffffffffffffffffffffffffffff16600073ffffffffffffffffffffffffffffffffffffffff167fddf252ad1be2c89b69c2b068fc378daa952ba7f163c4a11628f55a4df523b3ef83604051611f5d9190612ac8565b60405180910390a35050565b6000611f76848484611c2a565b612008843384600760008973ffffffffffffffffffffffffffffffffffffffff1673ffffffffffffffffffffffffffffffffffffffff16815260200190815260200160002060003073ffffffffffffffffffffffffffffffffffffffff1673ffffffffffffffffffffffffffffffffffffffff168152602001908152602001600020546120039190612ce4565b611a5f565b600190509392505050565b82805461201f90612de3565b90600052602060002090601f0160209004810192826120415760008555612088565b82601f1061205a57805160ff1916838001178555612088565b82800160010185558215612088579182015b8281111561208757825182559160200191906001019061206c565b5b509050612095919061211f565b5090565b8280546120a590612de3565b90600052602060002090601f0160209004810192826120c7576000855561210e565b82601f106120e057803560ff191683800117855561210e565b8280016001018555821561210e579182015b8281111561210d5782358255916020019190600101906120f2565b5b50905061211b919061211f565b5090565b5b80821115612138576000816000905550600101612120565b5090565b600061214f61214a84612bb0565b612b8b565b90508281526020810184848401111561216757600080fd5b612172848285612d77565b509392505050565b600081359050612189816131f1565b92915050565b60008135905061219e81613208565b92915050565b60008083601f8401126121b657600080fd5b8235905067ffffffffffffffff8111156121cf57600080fd5b6020830191508360018202830111156121e757600080fd5b9250929050565b600082601f8301126121ff57600080fd5b813561220f84826020860161213c565b91505092915050565b6000813590506122278161321f565b92915050565b60006020828403121561223f57600080fd5b600061224d8482850161217a565b91505092915050565b6000806040838503121561226957600080fd5b60006122778582860161217a565b92505060206122888582860161217a565b9150509250929050565b6000806000606084860312156122a757600080fd5b60006122b58682870161217a565b93505060206122c68682870161217a565b92505060406122d786828701612218565b9150509250925092565b600080604083850312156122f457600080fd5b60006123028582860161217a565b925050602061231385828601612218565b9150509250929050565b60006020828403121561232f57600080fd5b600061233d8482850161218f565b91505092915050565b60008060008060006080868803121561235e57600080fd5b600061236c8882890161218f565b955050602086013567ffffffffffffffff81111561238957600080fd5b612395888289016121a4565b945094505060406123a888828901612218565b925050606086013567ffffffffffffffff8111156123c557600080fd5b6123d1888289016121ee565b9150509295509295909350565b600080604083850312156123f157600080fd5b60006123ff8582860161218f565b925050602061241085828601612218565b9150509250929050565b60006020828403121561242c57600080fd5b600061243a84828501612218565b91505092915050565b600061244f8383612742565b60208301905092915050565b61246481612d18565b82525050565b600061247582612bf1565b61247f8185612c1f565b935061248a83612be1565b8060005b838110156124bb5781516124a28882612443565b97506124ad83612c12565b92505060018101905061248e565b5085935050505092915050565b6124d181612d2a565b82525050565b6124e081612d36565b82525050565b6124f76124f282612d36565b612e8f565b82525050565b60006125098385612c30565b9350612516838584612d77565b61251f83612f5f565b840190509392505050565b60006125368385612c41565b9350612543838584612d77565b82840190509392505050565b600061255a82612bfc565b6125648185612c30565b9350612574818560208601612d86565b61257d81612f5f565b840191505092915050565b600061259382612c07565b61259d8185612c4c565b93506125ad818560208601612d86565b6125b681612f5f565b840191505092915050565b60006125ce602383612c4c565b91506125d982612f70565b604082019050919050565b60006125f1602283612c4c565b91506125fc82612fbf565b604082019050919050565b6000612614601d83612c4c565b915061261f8261300e565b602082019050919050565b6000612637601283612c4c565b915061264282613037565b602082019050919050565b600061265a601783612c4c565b915061266582613060565b602082019050919050565b600061267d602083612c4c565b915061268882613089565b602082019050919050565b60006126a0602583612c4c565b91506126ab826130b2565b604082019050919050565b60006126c3602283612c4c565b91506126ce82613101565b604082019050919050565b60006126e6602483612c4c565b91506126f182613150565b604082019050919050565b6000612709601b83612c4c565b91506127148261319f565b602082019050919050565b600061272c601f83612c4c565b9150612737826131c8565b602082019050919050565b61274b81612d60565b82525050565b61275a81612d60565b82525050565b61277161276c82612d60565b612e99565b82525050565b61278081612d6a565b82525050565b600061279282856124e6565b6020820191506127a28284612760565b6020820191508190509392505050565b60006127bf82848661252a565b91508190509392505050565b60006020820190506127e0600083018461245b565b92915050565b60006040820190506127fb600083018561245b565b6128086020830184612751565b9392505050565b60006020820190508181036000830152612829818461246a565b905092915050565b600060208201905061284660008301846124c8565b92915050565b600060608201905061286160008301866124c8565b8181036020830152612873818561254f565b90506128826040830184612751565b949350505050565b600060408201905061289f60008301856124c8565b6128ac6020830184612751565b9392505050565b600060c0820190506128c8600083018a6124d7565b6128d56020830189612751565b81810360408301526128e88187896124fd565b90506128f76060830186612751565b8181036080830152612909818561254f565b905061291860a083018461245b565b98975050505050505050565b6000602082019050818103600083015261293e818461254f565b905092915050565b600060208201905081810360008301526129608184612588565b905092915050565b60006020820190508181036000830152612981816125c1565b9050919050565b600060208201905081810360008301526129a1816125e4565b9050919050565b600060208201905081810360008301526129c181612607565b9050919050565b600060208201905081810360008301526129e18161262a565b9050919050565b60006020820190508181036000830152612a018161264d565b9050919050565b60006020820190508181036000830152612a2181612670565b9050919050565b60006020820190508181036000830152612a4181612693565b9050919050565b60006020820190508181036000830152612a61816126b6565b9050919050565b60006020820190508181036000830152612a81816126d9565b9050919050565b60006020820190508181036000830152612aa1816126fc565b9050919050565b60006020820190508181036000830152612ac18161271f565b9050919050565b6000602082019050612add6000830184612751565b92915050565b600061012082019050612af9600083018c612751565b612b06602083018b612751565b612b13604083018a612751565b612b206060830189612751565b612b2d6080830188612751565b612b3a60a0830187612751565b612b4760c0830186612751565b612b5460e0830185612751565b612b626101008301846124c8565b9a9950505050505050505050565b6000602082019050612b856000830184612777565b92915050565b6000612b95612ba6565b9050612ba18282612e15565b919050565b6000604051905090565b600067ffffffffffffffff821115612bcb57612bca612f30565b5b612bd482612f5f565b9050602081019050919050565b6000819050602082019050919050565b600081519050919050565b600081519050919050565b600081519050919050565b6000602082019050919050565b600082825260208201905092915050565b600082825260208201905092915050565b600081905092915050565b600082825260208201905092915050565b6000612c6882612d60565b9150612c7383612d60565b9250827fffffffffffffffffffffffffffffffffffffffffffffffffffffffffffffffff03821115612ca857612ca7612ea3565b5b828201905092915050565b6000612cbe82612d60565b9150612cc983612d60565b925082612cd957612cd8612ed2565b5b828204905092915050565b6000612cef82612d60565b9150612cfa83612d60565b925082821015612d0d57612d0c612ea3565b5b828203905092915050565b6000612d2382612d40565b9050919050565b60008115159050919050565b6000819050919050565b600073ffffffffffffffffffffffffffffffffffffffff82169050919050565b6000819050919050565b600060ff82169050919050565b82818337600083830152505050565b60005b83811015612da4578082015181840152602081019050612d89565b83811115612db3576000848401525b50505050565b6000612dc482612d60565b91506000821415612dd857612dd7612ea3565b5b600182039050919050565b60006002820490506001821680612dfb57607f821691505b60208210811415612e0f57612e0e612f01565b5b50919050565b612e1e82612f5f565b810181811067ffffffffffffffff82111715612e3d57612e3c612f30565b5b80604052505050565b6000612e5182612d60565b91507fffffffffffffffffffffffffffffffffffffffffffffffffffffffffffffffff821415612e8457612e83612ea3565b5b600182019050919050565b6000819050919050565b6000819050919050565b7f4e487b7100000000000000000000000000000000000000000000000000000000600052601160045260246000fd5b7f4e487b7100000000000000000000000000000000000000000000000000000000600052601260045260246000fd5b7f4e487b7100000000000000000000000000000000000000000000000000000000600052602260045260246000fd5b7f4e487b7100000000000000000000000000000000000000000000000000000000600052604160045260246000fd5b6000601f19601f8301169050919050565b7f45524332303a207472616e7366657220746f20746865207a65726f206164647260008201527f6573730000000000000000000000000000000000000000000000000000000000602082015250565b7f45524332303a20617070726f766520746f20746865207a65726f20616464726560008201527f7373000000000000000000000000000000000000000000000000000000000000602082015250565b7f6964206d7573742062652068617368206f662062797465732064617461000000600082015250565b7f372064617973206469646e277420706173730000000000000000000000000000600082015250565b7f76616c7565206d757374206265207375626d6974746564000000000000000000600082015250565b7f6e6f6e6365206d757374206d617463682074696d657374616d7020696e646578600082015250565b7f45524332303a207472616e736665722066726f6d20746865207a65726f20616460008201527f6472657373000000000000000000000000000000000000000000000000000000602082015250565b7f7265706f72746572206e6f74206c6f636b656420666f7220776974686472617760008201527f616c000000000000000000000000000000000000000000000000000000000000602082015250565b7f45524332303a20617070726f76652066726f6d20746865207a65726f2061646460008201527f7265737300000000000000000000000000000000000000000000000000000000602082015250565b7f696e73756666696369656e74207374616b65642062616c616e63650000000000600082015250565b7f45524332303a206d696e7420746f20746865207a65726f206164647265737300600082015250565b6131fa81612d18565b811461320557600080fd5b50565b61321181612d36565b811461321c57600080fd5b50565b61322881612d60565b811461323357600080fd5b5056fea2646970667358221220648b92f58a2a4e27a2eda487b3e9453ae93b52da440b16f125cf1354e75561de64736f6c63430008030033",
          "opcodes": "PUSH1 0x80 PUSH1 0x40 MSTORE CALLVALUE DUP1 ISZERO PUSH3 0x11 JUMPI PUSH1 0x0 DUP1 REVERT JUMPDEST POP PUSH1 0x40 MLOAD DUP1 PUSH1 0x40 ADD PUSH1 0x40 MSTORE DUP1 PUSH1 0x10 DUP2 MSTORE PUSH1 0x20 ADD PUSH32 0x54656C6C6F72506C617967726F756E6400000000000000000000000000000000 DUP2 MSTORE POP PUSH1 0xD SWAP1 DUP1 MLOAD SWAP1 PUSH1 0x20 ADD SWAP1 PUSH3 0x5F SWAP3 SWAP2 SWAP1 PUSH3 0xD0 JUMP JUMPDEST POP PUSH1 0x40 MLOAD DUP1 PUSH1 0x40 ADD PUSH1 0x40 MSTORE DUP1 PUSH1 0x4 DUP2 MSTORE PUSH1 0x20 ADD PUSH32 0x5452425000000000000000000000000000000000000000000000000000000000 DUP2 MSTORE POP PUSH1 0xE SWAP1 DUP1 MLOAD SWAP1 PUSH1 0x20 ADD SWAP1 PUSH3 0xAD SWAP3 SWAP2 SWAP1 PUSH3 0xD0 JUMP JUMPDEST POP PUSH1 0x12 PUSH1 0xF PUSH1 0x0 PUSH2 0x100 EXP DUP2 SLOAD DUP2 PUSH1 0xFF MUL NOT AND SWAP1 DUP4 PUSH1 0xFF AND MUL OR SWAP1 SSTORE POP PUSH3 0x1E5 JUMP JUMPDEST DUP3 DUP1 SLOAD PUSH3 0xDE SWAP1 PUSH3 0x180 JUMP JUMPDEST SWAP1 PUSH1 0x0 MSTORE PUSH1 0x20 PUSH1 0x0 KECCAK256 SWAP1 PUSH1 0x1F ADD PUSH1 0x20 SWAP1 DIV DUP2 ADD SWAP3 DUP3 PUSH3 0x102 JUMPI PUSH1 0x0 DUP6 SSTORE PUSH3 0x14E JUMP JUMPDEST DUP3 PUSH1 0x1F LT PUSH3 0x11D JUMPI DUP1 MLOAD PUSH1 0xFF NOT AND DUP4 DUP1 ADD OR DUP6 SSTORE PUSH3 0x14E JUMP JUMPDEST DUP3 DUP1 ADD PUSH1 0x1 ADD DUP6 SSTORE DUP3 ISZERO PUSH3 0x14E JUMPI SWAP2 DUP3 ADD JUMPDEST DUP3 DUP2 GT ISZERO PUSH3 0x14D JUMPI DUP3 MLOAD DUP3 SSTORE SWAP2 PUSH1 0x20 ADD SWAP2 SWAP1 PUSH1 0x1 ADD SWAP1 PUSH3 0x130 JUMP JUMPDEST JUMPDEST POP SWAP1 POP PUSH3 0x15D SWAP2 SWAP1 PUSH3 0x161 JUMP JUMPDEST POP SWAP1 JUMP JUMPDEST JUMPDEST DUP1 DUP3 GT ISZERO PUSH3 0x17C JUMPI PUSH1 0x0 DUP2 PUSH1 0x0 SWAP1 SSTORE POP PUSH1 0x1 ADD PUSH3 0x162 JUMP JUMPDEST POP SWAP1 JUMP JUMPDEST PUSH1 0x0 PUSH1 0x2 DUP3 DIV SWAP1 POP PUSH1 0x1 DUP3 AND DUP1 PUSH3 0x199 JUMPI PUSH1 0x7F DUP3 AND SWAP2 POP JUMPDEST PUSH1 0x20 DUP3 LT DUP2 EQ ISZERO PUSH3 0x1B0 JUMPI PUSH3 0x1AF PUSH3 0x1B6 JUMP JUMPDEST JUMPDEST POP SWAP2 SWAP1 POP JUMP JUMPDEST PUSH32 0x4E487B7100000000000000000000000000000000000000000000000000000000 PUSH1 0x0 MSTORE PUSH1 0x22 PUSH1 0x4 MSTORE PUSH1 0x24 PUSH1 0x0 REVERT JUMPDEST PUSH2 0x326C DUP1 PUSH3 0x1F5 PUSH1 0x0 CODECOPY PUSH1 0x0 RETURN INVALID PUSH1 0x80 PUSH1 0x40 MSTORE CALLVALUE DUP1 ISZERO PUSH2 0x10 JUMPI PUSH1 0x0 DUP1 REVERT JUMPDEST POP PUSH1 0x4 CALLDATASIZE LT PUSH2 0x227 JUMPI PUSH1 0x0 CALLDATALOAD PUSH1 0xE0 SHR DUP1 PUSH4 0x722580B6 GT PUSH2 0x130 JUMPI DUP1 PUSH4 0xBED9D861 GT PUSH2 0xB8 JUMPI DUP1 PUSH4 0xCE5E11BF GT PUSH2 0x7C JUMPI DUP1 PUSH4 0xCE5E11BF EQ PUSH2 0x6F9 JUMPI DUP1 PUSH4 0xD9C51CD4 EQ PUSH2 0x729 JUMPI DUP1 PUSH4 0xDD62ED3E EQ PUSH2 0x745 JUMPI DUP1 PUSH4 0xE07C5486 EQ PUSH2 0x775 JUMPI DUP1 PUSH4 0xF25133F3 EQ PUSH2 0x7A5 JUMPI PUSH2 0x227 JUMP JUMPDEST DUP1 PUSH4 0xBED9D861 EQ PUSH2 0x655 JUMPI DUP1 PUSH4 0xC5958AF9 EQ PUSH2 0x65F JUMPI DUP1 PUSH4 0xC6384071 EQ PUSH2 0x68F JUMPI DUP1 PUSH4 0xC979FE9F EQ PUSH2 0x6AD JUMPI DUP1 PUSH4 0xCB82CC8F EQ PUSH2 0x6DD JUMPI PUSH2 0x227 JUMP JUMPDEST DUP1 PUSH4 0x95D89B41 GT PUSH2 0xFF JUMPI DUP1 PUSH4 0x95D89B41 EQ PUSH2 0x59B JUMPI DUP1 PUSH4 0x96426D97 EQ PUSH2 0x5B9 JUMPI DUP1 PUSH4 0xA792765F EQ PUSH2 0x5D7 JUMPI DUP1 PUSH4 0xA9059CBB EQ PUSH2 0x609 JUMPI DUP1 PUSH4 0xB86D1D63 EQ PUSH2 0x639 JUMPI PUSH2 0x227 JUMP JUMPDEST DUP1 PUSH4 0x722580B6 EQ PUSH2 0x4F9 JUMPI DUP1 PUSH4 0x733BDEF0 EQ PUSH2 0x517 JUMPI DUP1 PUSH4 0x77B03E0D EQ PUSH2 0x54F JUMPI DUP1 PUSH4 0x8929F4C6 EQ PUSH2 0x57F JUMPI PUSH2 0x227 JUMP JUMPDEST DUP1 PUSH4 0x313CE567 GT PUSH2 0x1B3 JUMPI DUP1 PUSH4 0x602BF227 GT PUSH2 0x182 JUMPI DUP1 PUSH4 0x602BF227 EQ PUSH2 0x42D JUMPI DUP1 PUSH4 0x60C7DC47 EQ PUSH2 0x45D JUMPI DUP1 PUSH4 0x64473DF2 EQ PUSH2 0x47B JUMPI DUP1 PUSH4 0x69D43BD3 EQ PUSH2 0x4AB JUMPI DUP1 PUSH4 0x70A08231 EQ PUSH2 0x4C9 JUMPI PUSH2 0x227 JUMP JUMPDEST DUP1 PUSH4 0x313CE567 EQ PUSH2 0x3A5 JUMPI DUP1 PUSH4 0x44E87F91 EQ PUSH2 0x3C3 JUMPI DUP1 PUSH4 0x5AA6E675 EQ PUSH2 0x3F3 JUMPI DUP1 PUSH4 0x5EAA9CED EQ PUSH2 0x411 JUMPI PUSH2 0x227 JUMP JUMPDEST DUP1 PUSH4 0x1F379ACC GT PUSH2 0x1FA JUMPI DUP1 PUSH4 0x1F379ACC EQ PUSH2 0x2C8 JUMPI DUP1 PUSH4 0x217053C0 EQ PUSH2 0x2E4 JUMPI DUP1 PUSH4 0x23B872DD EQ PUSH2 0x314 JUMPI DUP1 PUSH4 0x248638E5 EQ PUSH2 0x344 JUMPI DUP1 PUSH4 0x29449085 EQ PUSH2 0x374 JUMPI PUSH2 0x227 JUMP JUMPDEST DUP1 PUSH4 0x6FDDE03 EQ PUSH2 0x22C JUMPI DUP1 PUSH4 0x91B50FF EQ PUSH2 0x24A JUMPI DUP1 PUSH4 0x95EA7B3 EQ PUSH2 0x27A JUMPI DUP1 PUSH4 0x18160DDD EQ PUSH2 0x2AA JUMPI JUMPDEST PUSH1 0x0 DUP1 REVERT JUMPDEST PUSH2 0x234 PUSH2 0x7D5 JUMP JUMPDEST PUSH1 0x40 MLOAD PUSH2 0x241 SWAP2 SWAP1 PUSH2 0x2946 JUMP JUMPDEST PUSH1 0x40 MLOAD DUP1 SWAP2 SUB SWAP1 RETURN JUMPDEST PUSH2 0x264 PUSH1 0x4 DUP1 CALLDATASIZE SUB DUP2 ADD SWAP1 PUSH2 0x25F SWAP2 SWAP1 PUSH2 0x23DE JUMP JUMPDEST PUSH2 0x867 JUMP JUMPDEST PUSH1 0x40 MLOAD PUSH2 0x271 SWAP2 SWAP1 PUSH2 0x2924 JUMP JUMPDEST PUSH1 0x40 MLOAD DUP1 SWAP2 SUB SWAP1 RETURN JUMPDEST PUSH2 0x294 PUSH1 0x4 DUP1 CALLDATASIZE SUB DUP2 ADD SWAP1 PUSH2 0x28F SWAP2 SWAP1 PUSH2 0x22E1 JUMP JUMPDEST PUSH2 0x914 JUMP JUMPDEST PUSH1 0x40 MLOAD PUSH2 0x2A1 SWAP2 SWAP1 PUSH2 0x2831 JUMP JUMPDEST PUSH1 0x40 MLOAD DUP1 SWAP2 SUB SWAP1 RETURN JUMPDEST PUSH2 0x2B2 PUSH2 0x92B JUMP JUMPDEST PUSH1 0x40 MLOAD PUSH2 0x2BF SWAP2 SWAP1 PUSH2 0x2AC8 JUMP JUMPDEST PUSH1 0x40 MLOAD DUP1 SWAP2 SUB SWAP1 RETURN JUMPDEST PUSH2 0x2E2 PUSH1 0x4 DUP1 CALLDATASIZE SUB DUP2 ADD SWAP1 PUSH2 0x2DD SWAP2 SWAP1 PUSH2 0x23DE JUMP JUMPDEST PUSH2 0x935 JUMP JUMPDEST STOP JUMPDEST PUSH2 0x2FE PUSH1 0x4 DUP1 CALLDATASIZE SUB DUP2 ADD SWAP1 PUSH2 0x2F9 SWAP2 SWAP1 PUSH2 0x23DE JUMP JUMPDEST PUSH2 0xA39 JUMP JUMPDEST PUSH1 0x40 MLOAD PUSH2 0x30B SWAP2 SWAP1 PUSH2 0x27CB JUMP JUMPDEST PUSH1 0x40 MLOAD DUP1 SWAP2 SUB SWAP1 RETURN JUMPDEST PUSH2 0x32E PUSH1 0x4 DUP1 CALLDATASIZE SUB DUP2 ADD SWAP1 PUSH2 0x329 SWAP2 SWAP1 PUSH2 0x2292 JUMP JUMPDEST PUSH2 0xA7B JUMP JUMPDEST PUSH1 0x40 MLOAD PUSH2 0x33B SWAP2 SWAP1 PUSH2 0x2831 JUMP JUMPDEST PUSH1 0x40 MLOAD DUP1 SWAP2 SUB SWAP1 RETURN JUMPDEST PUSH2 0x35E PUSH1 0x4 DUP1 CALLDATASIZE SUB DUP2 ADD SWAP1 PUSH2 0x359 SWAP2 SWAP1 PUSH2 0x231D JUMP JUMPDEST PUSH2 0xB25 JUMP JUMPDEST PUSH1 0x40 MLOAD PUSH2 0x36B SWAP2 SWAP1 PUSH2 0x280F JUMP JUMPDEST PUSH1 0x40 MLOAD DUP1 SWAP2 SUB SWAP1 RETURN JUMPDEST PUSH2 0x38E PUSH1 0x4 DUP1 CALLDATASIZE SUB DUP2 ADD SWAP1 PUSH2 0x389 SWAP2 SWAP1 PUSH2 0x23DE JUMP JUMPDEST PUSH2 0xB90 JUMP JUMPDEST PUSH1 0x40 MLOAD PUSH2 0x39C SWAP3 SWAP2 SWAP1 PUSH2 0x288A JUMP JUMPDEST PUSH1 0x40 MLOAD DUP1 SWAP2 SUB SWAP1 RETURN JUMPDEST PUSH2 0x3AD PUSH2 0xE90 JUMP JUMPDEST PUSH1 0x40 MLOAD PUSH2 0x3BA SWAP2 SWAP1 PUSH2 0x2B70 JUMP JUMPDEST PUSH1 0x40 MLOAD DUP1 SWAP2 SUB SWAP1 RETURN JUMPDEST PUSH2 0x3DD PUSH1 0x4 DUP1 CALLDATASIZE SUB DUP2 ADD SWAP1 PUSH2 0x3D8 SWAP2 SWAP1 PUSH2 0x23DE JUMP JUMPDEST PUSH2 0xEA7 JUMP JUMPDEST PUSH1 0x40 MLOAD PUSH2 0x3EA SWAP2 SWAP1 PUSH2 0x2831 JUMP JUMPDEST PUSH1 0x40 MLOAD DUP1 SWAP2 SUB SWAP1 RETURN JUMPDEST PUSH2 0x3FB PUSH2 0xEE2 JUMP JUMPDEST PUSH1 0x40 MLOAD PUSH2 0x408 SWAP2 SWAP1 PUSH2 0x27CB JUMP JUMPDEST PUSH1 0x40 MLOAD DUP1 SWAP2 SUB SWAP1 RETURN JUMPDEST PUSH2 0x42B PUSH1 0x4 DUP1 CALLDATASIZE SUB DUP2 ADD SWAP1 PUSH2 0x426 SWAP2 SWAP1 PUSH2 0x2346 JUMP JUMPDEST PUSH2 0xEEA JUMP JUMPDEST STOP JUMPDEST PUSH2 0x447 PUSH1 0x4 DUP1 CALLDATASIZE SUB DUP2 ADD SWAP1 PUSH2 0x442 SWAP2 SWAP1 PUSH2 0x231D JUMP JUMPDEST PUSH2 0x11D9 JUMP JUMPDEST PUSH1 0x40 MLOAD PUSH2 0x454 SWAP2 SWAP1 PUSH2 0x2AC8 JUMP JUMPDEST PUSH1 0x40 MLOAD DUP1 SWAP2 SUB SWAP1 RETURN JUMPDEST PUSH2 0x465 PUSH2 0x11F1 JUMP JUMPDEST PUSH1 0x40 MLOAD PUSH2 0x472 SWAP2 SWAP1 PUSH2 0x2AC8 JUMP JUMPDEST PUSH1 0x40 MLOAD DUP1 SWAP2 SUB SWAP1 RETURN JUMPDEST PUSH2 0x495 PUSH1 0x4 DUP1 CALLDATASIZE SUB DUP2 ADD SWAP1 PUSH2 0x490 SWAP2 SWAP1 PUSH2 0x23DE JUMP JUMPDEST PUSH2 0x11F7 JUMP JUMPDEST PUSH1 0x40 MLOAD PUSH2 0x4A2 SWAP2 SWAP1 PUSH2 0x2831 JUMP JUMPDEST PUSH1 0x40 MLOAD DUP1 SWAP2 SUB SWAP1 RETURN JUMPDEST PUSH2 0x4B3 PUSH2 0x1226 JUMP JUMPDEST PUSH1 0x40 MLOAD PUSH2 0x4C0 SWAP2 SWAP1 PUSH2 0x2AC8 JUMP JUMPDEST PUSH1 0x40 MLOAD DUP1 SWAP2 SUB SWAP1 RETURN JUMPDEST PUSH2 0x4E3 PUSH1 0x4 DUP1 CALLDATASIZE SUB DUP2 ADD SWAP1 PUSH2 0x4DE SWAP2 SWAP1 PUSH2 0x222D JUMP JUMPDEST PUSH2 0x122C JUMP JUMPDEST PUSH1 0x40 MLOAD PUSH2 0x4F0 SWAP2 SWAP1 PUSH2 0x2AC8 JUMP JUMPDEST PUSH1 0x40 MLOAD DUP1 SWAP2 SUB SWAP1 RETURN JUMPDEST PUSH2 0x501 PUSH2 0x1275 JUMP JUMPDEST PUSH1 0x40 MLOAD PUSH2 0x50E SWAP2 SWAP1 PUSH2 0x2AC8 JUMP JUMPDEST PUSH1 0x40 MLOAD DUP1 SWAP2 SUB SWAP1 RETURN JUMPDEST PUSH2 0x531 PUSH1 0x4 DUP1 CALLDATASIZE SUB DUP2 ADD SWAP1 PUSH2 0x52C SWAP2 SWAP1 PUSH2 0x222D JUMP JUMPDEST PUSH2 0x127F JUMP JUMPDEST PUSH1 0x40 MLOAD PUSH2 0x546 SWAP10 SWAP9 SWAP8 SWAP7 SWAP6 SWAP5 SWAP4 SWAP3 SWAP2 SWAP1 PUSH2 0x2AE3 JUMP JUMPDEST PUSH1 0x40 MLOAD DUP1 SWAP2 SUB SWAP1 RETURN JUMPDEST PUSH2 0x569 PUSH1 0x4 DUP1 CALLDATASIZE SUB DUP2 ADD SWAP1 PUSH2 0x564 SWAP2 SWAP1 PUSH2 0x231D JUMP JUMPDEST PUSH2 0x130F JUMP JUMPDEST PUSH1 0x40 MLOAD PUSH2 0x576 SWAP2 SWAP1 PUSH2 0x2AC8 JUMP JUMPDEST PUSH1 0x40 MLOAD DUP1 SWAP2 SUB SWAP1 RETURN JUMPDEST PUSH2 0x599 PUSH1 0x4 DUP1 CALLDATASIZE SUB DUP2 ADD SWAP1 PUSH2 0x594 SWAP2 SWAP1 PUSH2 0x241A JUMP JUMPDEST PUSH2 0x132F JUMP JUMPDEST STOP JUMPDEST PUSH2 0x5A3 PUSH2 0x1435 JUMP JUMPDEST PUSH1 0x40 MLOAD PUSH2 0x5B0 SWAP2 SWAP1 PUSH2 0x2946 JUMP JUMPDEST PUSH1 0x40 MLOAD DUP1 SWAP2 SUB SWAP1 RETURN JUMPDEST PUSH2 0x5C1 PUSH2 0x14C7 JUMP JUMPDEST PUSH1 0x40 MLOAD PUSH2 0x5CE SWAP2 SWAP1 PUSH2 0x2AC8 JUMP JUMPDEST PUSH1 0x40 MLOAD DUP1 SWAP2 SUB SWAP1 RETURN JUMPDEST PUSH2 0x5F1 PUSH1 0x4 DUP1 CALLDATASIZE SUB DUP2 ADD SWAP1 PUSH2 0x5EC SWAP2 SWAP1 PUSH2 0x23DE JUMP JUMPDEST PUSH2 0x14D3 JUMP JUMPDEST PUSH1 0x40 MLOAD PUSH2 0x600 SWAP4 SWAP3 SWAP2 SWAP1 PUSH2 0x284C JUMP JUMPDEST PUSH1 0x40 MLOAD DUP1 SWAP2 SUB SWAP1 RETURN JUMPDEST PUSH2 0x623 PUSH1 0x4 DUP1 CALLDATASIZE SUB DUP2 ADD SWAP1 PUSH2 0x61E SWAP2 SWAP1 PUSH2 0x22E1 JUMP JUMPDEST PUSH2 0x1536 JUMP JUMPDEST PUSH1 0x40 MLOAD PUSH2 0x630 SWAP2 SWAP1 PUSH2 0x2831 JUMP JUMPDEST PUSH1 0x40 MLOAD DUP1 SWAP2 SUB SWAP1 RETURN JUMPDEST PUSH2 0x653 PUSH1 0x4 DUP1 CALLDATASIZE SUB DUP2 ADD SWAP1 PUSH2 0x64E SWAP2 SWAP1 PUSH2 0x222D JUMP JUMPDEST PUSH2 0x154D JUMP JUMPDEST STOP JUMPDEST PUSH2 0x65D PUSH2 0x1563 JUMP JUMPDEST STOP JUMPDEST PUSH2 0x679 PUSH1 0x4 DUP1 CALLDATASIZE SUB DUP2 ADD SWAP1 PUSH2 0x674 SWAP2 SWAP1 PUSH2 0x23DE JUMP JUMPDEST PUSH2 0x1695 JUMP JUMPDEST PUSH1 0x40 MLOAD PUSH2 0x686 SWAP2 SWAP1 PUSH2 0x2924 JUMP JUMPDEST PUSH1 0x40 MLOAD DUP1 SWAP2 SUB SWAP1 RETURN JUMPDEST PUSH2 0x697 PUSH2 0x174C JUMP JUMPDEST PUSH1 0x40 MLOAD PUSH2 0x6A4 SWAP2 SWAP1 PUSH2 0x2AC8 JUMP JUMPDEST PUSH1 0x40 MLOAD DUP1 SWAP2 SUB SWAP1 RETURN JUMPDEST PUSH2 0x6C7 PUSH1 0x4 DUP1 CALLDATASIZE SUB DUP2 ADD SWAP1 PUSH2 0x6C2 SWAP2 SWAP1 PUSH2 0x23DE JUMP JUMPDEST PUSH2 0x1752 JUMP JUMPDEST PUSH1 0x40 MLOAD PUSH2 0x6D4 SWAP2 SWAP1 PUSH2 0x2AC8 JUMP JUMPDEST PUSH1 0x40 MLOAD DUP1 SWAP2 SUB SWAP1 RETURN JUMPDEST PUSH2 0x6F7 PUSH1 0x4 DUP1 CALLDATASIZE SUB DUP2 ADD SWAP1 PUSH2 0x6F2 SWAP2 SWAP1 PUSH2 0x241A JUMP JUMPDEST PUSH2 0x1783 JUMP JUMPDEST STOP JUMPDEST PUSH2 0x713 PUSH1 0x4 DUP1 CALLDATASIZE SUB DUP2 ADD SWAP1 PUSH2 0x70E SWAP2 SWAP1 PUSH2 0x23DE JUMP JUMPDEST PUSH2 0x18A7 JUMP JUMPDEST PUSH1 0x40 MLOAD PUSH2 0x720 SWAP2 SWAP1 PUSH2 0x2AC8 JUMP JUMPDEST PUSH1 0x40 MLOAD DUP1 SWAP2 SUB SWAP1 RETURN JUMPDEST PUSH2 0x743 PUSH1 0x4 DUP1 CALLDATASIZE SUB DUP2 ADD SWAP1 PUSH2 0x73E SWAP2 SWAP1 PUSH2 0x241A JUMP JUMPDEST PUSH2 0x1941 JUMP JUMPDEST STOP JUMPDEST PUSH2 0x75F PUSH1 0x4 DUP1 CALLDATASIZE SUB DUP2 ADD SWAP1 PUSH2 0x75A SWAP2 SWAP1 PUSH2 0x2256 JUMP JUMPDEST PUSH2 0x1958 JUMP JUMPDEST PUSH1 0x40 MLOAD PUSH2 0x76C SWAP2 SWAP1 PUSH2 0x2AC8 JUMP JUMPDEST PUSH1 0x40 MLOAD DUP1 SWAP2 SUB SWAP1 RETURN JUMPDEST PUSH2 0x78F PUSH1 0x4 DUP1 CALLDATASIZE SUB DUP2 ADD SWAP1 PUSH2 0x78A SWAP2 SWAP1 PUSH2 0x23DE JUMP JUMPDEST PUSH2 0x19DF JUMP JUMPDEST PUSH1 0x40 MLOAD PUSH2 0x79C SWAP2 SWAP1 PUSH2 0x27CB JUMP JUMPDEST PUSH1 0x40 MLOAD DUP1 SWAP2 SUB SWAP1 RETURN JUMPDEST PUSH2 0x7BF PUSH1 0x4 DUP1 CALLDATASIZE SUB DUP2 ADD SWAP1 PUSH2 0x7BA SWAP2 SWAP1 PUSH2 0x23DE JUMP JUMPDEST PUSH2 0x1A2E JUMP JUMPDEST PUSH1 0x40 MLOAD PUSH2 0x7CC SWAP2 SWAP1 PUSH2 0x2AC8 JUMP JUMPDEST PUSH1 0x40 MLOAD DUP1 SWAP2 SUB SWAP1 RETURN JUMPDEST PUSH1 0x60 PUSH1 0xD DUP1 SLOAD PUSH2 0x7E4 SWAP1 PUSH2 0x2DE3 JUMP JUMPDEST DUP1 PUSH1 0x1F ADD PUSH1 0x20 DUP1 SWAP2 DIV MUL PUSH1 0x20 ADD PUSH1 0x40 MLOAD SWAP1 DUP2 ADD PUSH1 0x40 MSTORE DUP1 SWAP3 SWAP2 SWAP1 DUP2 DUP2 MSTORE PUSH1 0x20 ADD DUP3 DUP1 SLOAD PUSH2 0x810 SWAP1 PUSH2 0x2DE3 JUMP JUMPDEST DUP1 ISZERO PUSH2 0x85D JUMPI DUP1 PUSH1 0x1F LT PUSH2 0x832 JUMPI PUSH2 0x100 DUP1 DUP4 SLOAD DIV MUL DUP4 MSTORE SWAP2 PUSH1 0x20 ADD SWAP2 PUSH2 0x85D JUMP JUMPDEST DUP3 ADD SWAP2 SWAP1 PUSH1 0x0 MSTORE PUSH1 0x20 PUSH1 0x0 KECCAK256 SWAP1 JUMPDEST DUP2 SLOAD DUP2 MSTORE SWAP1 PUSH1 0x1 ADD SWAP1 PUSH1 0x20 ADD DUP1 DUP4 GT PUSH2 0x840 JUMPI DUP3 SWAP1 SUB PUSH1 0x1F AND DUP3 ADD SWAP2 JUMPDEST POP POP POP POP POP SWAP1 POP SWAP1 JUMP JUMPDEST PUSH1 0x5 PUSH1 0x20 MSTORE DUP2 PUSH1 0x0 MSTORE PUSH1 0x40 PUSH1 0x0 KECCAK256 PUSH1 0x20 MSTORE DUP1 PUSH1 0x0 MSTORE PUSH1 0x40 PUSH1 0x0 KECCAK256 PUSH1 0x0 SWAP2 POP SWAP2 POP POP DUP1 SLOAD PUSH2 0x893 SWAP1 PUSH2 0x2DE3 JUMP JUMPDEST DUP1 PUSH1 0x1F ADD PUSH1 0x20 DUP1 SWAP2 DIV MUL PUSH1 0x20 ADD PUSH1 0x40 MLOAD SWAP1 DUP2 ADD PUSH1 0x40 MSTORE DUP1 SWAP3 SWAP2 SWAP1 DUP2 DUP2 MSTORE PUSH1 0x20 ADD DUP3 DUP1 SLOAD PUSH2 0x8BF SWAP1 PUSH2 0x2DE3 JUMP JUMPDEST DUP1 ISZERO PUSH2 0x90C JUMPI DUP1 PUSH1 0x1F LT PUSH2 0x8E1 JUMPI PUSH2 0x100 DUP1 DUP4 SLOAD DIV MUL DUP4 MSTORE SWAP2 PUSH1 0x20 ADD SWAP2 PUSH2 0x90C JUMP JUMPDEST DUP3 ADD SWAP2 SWAP1 PUSH1 0x0 MSTORE PUSH1 0x20 PUSH1 0x0 KECCAK256 SWAP1 JUMPDEST DUP2 SLOAD DUP2 MSTORE SWAP1 PUSH1 0x1 ADD SWAP1 PUSH1 0x20 ADD DUP1 DUP4 GT PUSH2 0x8EF JUMPI DUP3 SWAP1 SUB PUSH1 0x1F AND DUP3 ADD SWAP2 JUMPDEST POP POP POP POP POP DUP2 JUMP JUMPDEST PUSH1 0x0 PUSH2 0x921 CALLER DUP5 DUP5 PUSH2 0x1A5F JUMP JUMPDEST PUSH1 0x1 SWAP1 POP SWAP3 SWAP2 POP POP JUMP JUMPDEST PUSH1 0x0 PUSH1 0xC SLOAD SWAP1 POP SWAP1 JUMP JUMPDEST PUSH1 0x40 MLOAD DUP1 PUSH1 0x20 ADD PUSH1 0x40 MSTORE DUP1 PUSH1 0x0 DUP2 MSTORE POP PUSH1 0x5 PUSH1 0x0 DUP5 DUP2 MSTORE PUSH1 0x20 ADD SWAP1 DUP2 MSTORE PUSH1 0x20 ADD PUSH1 0x0 KECCAK256 PUSH1 0x0 DUP4 DUP2 MSTORE PUSH1 0x20 ADD SWAP1 DUP2 MSTORE PUSH1 0x20 ADD PUSH1 0x0 KECCAK256 SWAP1 DUP1 MLOAD SWAP1 PUSH1 0x20 ADD SWAP1 PUSH2 0x97C SWAP3 SWAP2 SWAP1 PUSH2 0x2013 JUMP JUMPDEST POP PUSH1 0x1 PUSH1 0x0 DUP1 DUP5 DUP2 MSTORE PUSH1 0x20 ADD SWAP1 DUP2 MSTORE PUSH1 0x20 ADD PUSH1 0x0 KECCAK256 PUSH1 0x0 DUP4 DUP2 MSTORE PUSH1 0x20 ADD SWAP1 DUP2 MSTORE PUSH1 0x20 ADD PUSH1 0x0 KECCAK256 PUSH1 0x0 PUSH2 0x100 EXP DUP2 SLOAD DUP2 PUSH1 0xFF MUL NOT AND SWAP1 DUP4 ISZERO ISZERO MUL OR SWAP1 SSTORE POP PUSH1 0xB PUSH1 0x0 DUP2 SLOAD DUP1 SWAP3 SWAP2 SWAP1 PUSH2 0x9CC SWAP1 PUSH2 0x2E46 JUMP JUMPDEST SWAP2 SWAP1 POP SSTORE POP PUSH1 0x6 PUSH1 0x0 DUP4 DUP4 PUSH1 0x40 MLOAD PUSH1 0x20 ADD PUSH2 0x9E8 SWAP3 SWAP2 SWAP1 PUSH2 0x2786 JUMP JUMPDEST PUSH1 0x40 MLOAD PUSH1 0x20 DUP2 DUP4 SUB SUB DUP2 MSTORE SWAP1 PUSH1 0x40 MSTORE DUP1 MLOAD SWAP1 PUSH1 0x20 ADD KECCAK256 DUP2 MSTORE PUSH1 0x20 ADD SWAP1 DUP2 MSTORE PUSH1 0x20 ADD PUSH1 0x0 KECCAK256 PUSH1 0xB SLOAD SWAP1 DUP1 PUSH1 0x1 DUP2 SLOAD ADD DUP1 DUP3 SSTORE DUP1 SWAP2 POP POP PUSH1 0x1 SWAP1 SUB SWAP1 PUSH1 0x0 MSTORE PUSH1 0x20 PUSH1 0x0 KECCAK256 ADD PUSH1 0x0 SWAP1 SWAP2 SWAP1 SWAP2 SWAP1 SWAP2 POP SSTORE POP POP JUMP JUMPDEST PUSH1 0x1 PUSH1 0x20 MSTORE DUP2 PUSH1 0x0 MSTORE PUSH1 0x40 PUSH1 0x0 KECCAK256 PUSH1 0x20 MSTORE DUP1 PUSH1 0x0 MSTORE PUSH1 0x40 PUSH1 0x0 KECCAK256 PUSH1 0x0 SWAP2 POP SWAP2 POP SWAP1 SLOAD SWAP1 PUSH2 0x100 EXP SWAP1 DIV PUSH20 0xFFFFFFFFFFFFFFFFFFFFFFFFFFFFFFFFFFFFFFFF AND DUP2 JUMP JUMPDEST PUSH1 0x0 PUSH2 0xA88 DUP5 DUP5 DUP5 PUSH2 0x1C2A JUMP JUMPDEST PUSH2 0xB1A DUP5 CALLER DUP5 PUSH1 0x7 PUSH1 0x0 DUP10 PUSH20 0xFFFFFFFFFFFFFFFFFFFFFFFFFFFFFFFFFFFFFFFF AND PUSH20 0xFFFFFFFFFFFFFFFFFFFFFFFFFFFFFFFFFFFFFFFF AND DUP2 MSTORE PUSH1 0x20 ADD SWAP1 DUP2 MSTORE PUSH1 0x20 ADD PUSH1 0x0 KECCAK256 PUSH1 0x0 CALLER PUSH20 0xFFFFFFFFFFFFFFFFFFFFFFFFFFFFFFFFFFFFFFFF AND PUSH20 0xFFFFFFFFFFFFFFFFFFFFFFFFFFFFFFFFFFFFFFFF AND DUP2 MSTORE PUSH1 0x20 ADD SWAP1 DUP2 MSTORE PUSH1 0x20 ADD PUSH1 0x0 KECCAK256 SLOAD PUSH2 0xB15 SWAP2 SWAP1 PUSH2 0x2CE4 JUMP JUMPDEST PUSH2 0x1A5F JUMP JUMPDEST PUSH1 0x1 SWAP1 POP SWAP4 SWAP3 POP POP POP JUMP JUMPDEST PUSH1 0x60 PUSH1 0x6 PUSH1 0x0 DUP4 DUP2 MSTORE PUSH1 0x20 ADD SWAP1 DUP2 MSTORE PUSH1 0x20 ADD PUSH1 0x0 KECCAK256 DUP1 SLOAD DUP1 PUSH1 0x20 MUL PUSH1 0x20 ADD PUSH1 0x40 MLOAD SWAP1 DUP2 ADD PUSH1 0x40 MSTORE DUP1 SWAP3 SWAP2 SWAP1 DUP2 DUP2 MSTORE PUSH1 0x20 ADD DUP3 DUP1 SLOAD DUP1 ISZERO PUSH2 0xB84 JUMPI PUSH1 0x20 MUL DUP3 ADD SWAP2 SWAP1 PUSH1 0x0 MSTORE PUSH1 0x20 PUSH1 0x0 KECCAK256 SWAP1 JUMPDEST DUP2 SLOAD DUP2 MSTORE PUSH1 0x20 ADD SWAP1 PUSH1 0x1 ADD SWAP1 DUP1 DUP4 GT PUSH2 0xB70 JUMPI JUMPDEST POP POP POP POP POP SWAP1 POP SWAP2 SWAP1 POP JUMP JUMPDEST PUSH1 0x0 DUP1 PUSH1 0x0 PUSH2 0xB9E DUP6 PUSH2 0x130F JUMP JUMPDEST SWAP1 POP PUSH1 0x0 DUP2 GT ISZERO PUSH2 0xE80 JUMPI PUSH1 0x0 DUP1 PUSH1 0x0 SWAP1 POP PUSH1 0x0 PUSH1 0x1 DUP5 PUSH2 0xBBF SWAP2 SWAP1 PUSH2 0x2CE4 JUMP JUMPDEST SWAP1 POP PUSH1 0x0 PUSH2 0xBCD DUP10 DUP5 PUSH2 0x18A7 JUMP JUMPDEST SWAP1 POP DUP8 DUP2 LT PUSH2 0xBE7 JUMPI PUSH1 0x0 DUP1 SWAP7 POP SWAP7 POP POP POP POP POP POP PUSH2 0xE89 JUMP JUMPDEST PUSH2 0xBF1 DUP10 DUP4 PUSH2 0x18A7 JUMP JUMPDEST SWAP1 POP DUP8 DUP2 LT ISZERO PUSH2 0xC73 JUMPI JUMPDEST PUSH2 0xC06 DUP10 DUP3 PUSH2 0xEA7 JUMP JUMPDEST DUP1 ISZERO PUSH2 0xC12 JUMPI POP PUSH1 0x0 DUP3 GT JUMPDEST ISZERO PUSH2 0xC36 JUMPI DUP2 DUP1 PUSH2 0xC22 SWAP1 PUSH2 0x2DB9 JUMP JUMPDEST SWAP3 POP POP PUSH2 0xC2F DUP10 DUP4 PUSH2 0x18A7 JUMP JUMPDEST SWAP1 POP PUSH2 0xBFC JUMP JUMPDEST PUSH1 0x0 DUP3 EQ DUP1 ISZERO PUSH2 0xC4C JUMPI POP PUSH2 0xC4B DUP10 DUP3 PUSH2 0xEA7 JUMP JUMPDEST JUMPDEST ISZERO PUSH2 0xC62 JUMPI PUSH1 0x0 DUP1 SWAP7 POP SWAP7 POP POP POP POP POP POP PUSH2 0xE89 JUMP JUMPDEST PUSH1 0x1 DUP3 SWAP7 POP SWAP7 POP POP POP POP POP POP PUSH2 0xE89 JUMP JUMPDEST JUMPDEST PUSH1 0x1 ISZERO PUSH2 0xE7B JUMPI DUP3 PUSH1 0x1 PUSH1 0x2 DUP6 DUP6 PUSH2 0xC8C SWAP2 SWAP1 PUSH2 0x2CE4 JUMP JUMPDEST PUSH2 0xC96 SWAP2 SWAP1 PUSH2 0x2CB3 JUMP JUMPDEST PUSH2 0xCA0 SWAP2 SWAP1 PUSH2 0x2C5D JUMP JUMPDEST PUSH2 0xCAA SWAP2 SWAP1 PUSH2 0x2C5D JUMP JUMPDEST SWAP4 POP PUSH2 0xCB6 DUP10 DUP6 PUSH2 0x18A7 JUMP JUMPDEST SWAP1 POP DUP8 DUP2 LT ISZERO PUSH2 0xD90 JUMPI PUSH1 0x0 PUSH2 0xCD8 DUP11 PUSH1 0x1 DUP8 PUSH2 0xCD3 SWAP2 SWAP1 PUSH2 0x2C5D JUMP JUMPDEST PUSH2 0x18A7 JUMP JUMPDEST SWAP1 POP DUP9 DUP2 LT PUSH2 0xD7B JUMPI PUSH2 0xCEB DUP11 DUP4 PUSH2 0xEA7 JUMP JUMPDEST PUSH2 0xD01 JUMPI PUSH1 0x1 DUP6 SWAP8 POP SWAP8 POP POP POP POP POP POP POP PUSH2 0xE89 JUMP JUMPDEST JUMPDEST PUSH2 0xD0C DUP11 DUP4 PUSH2 0xEA7 JUMP JUMPDEST DUP1 ISZERO PUSH2 0xD18 JUMPI POP PUSH1 0x0 DUP6 GT JUMPDEST ISZERO PUSH2 0xD3C JUMPI DUP5 DUP1 PUSH2 0xD28 SWAP1 PUSH2 0x2DB9 JUMP JUMPDEST SWAP6 POP POP PUSH2 0xD35 DUP11 DUP7 PUSH2 0x18A7 JUMP JUMPDEST SWAP2 POP PUSH2 0xD02 JUMP JUMPDEST PUSH1 0x0 DUP6 EQ DUP1 ISZERO PUSH2 0xD52 JUMPI POP PUSH2 0xD51 DUP11 DUP4 PUSH2 0xEA7 JUMP JUMPDEST JUMPDEST ISZERO PUSH2 0xD69 JUMPI PUSH1 0x0 DUP1 SWAP8 POP SWAP8 POP POP POP POP POP POP POP PUSH2 0xE89 JUMP JUMPDEST PUSH1 0x1 DUP6 SWAP8 POP SWAP8 POP POP POP POP POP POP POP PUSH2 0xE89 JUMP JUMPDEST PUSH1 0x1 DUP6 PUSH2 0xD88 SWAP2 SWAP1 PUSH2 0x2C5D JUMP JUMPDEST SWAP4 POP POP PUSH2 0xE76 JUMP JUMPDEST PUSH1 0x0 PUSH2 0xDA8 DUP11 PUSH1 0x1 DUP8 PUSH2 0xDA3 SWAP2 SWAP1 PUSH2 0x2CE4 JUMP JUMPDEST PUSH2 0x18A7 JUMP JUMPDEST SWAP1 POP DUP9 DUP2 LT ISZERO PUSH2 0xE65 JUMPI PUSH2 0xDBC DUP11 DUP3 PUSH2 0xEA7 JUMP JUMPDEST PUSH2 0xDDD JUMPI PUSH1 0x1 DUP1 DUP7 PUSH2 0xDCE SWAP2 SWAP1 PUSH2 0x2CE4 JUMP JUMPDEST SWAP8 POP SWAP8 POP POP POP POP POP POP POP PUSH2 0xE89 JUMP JUMPDEST DUP5 DUP1 PUSH2 0xDE8 SWAP1 PUSH2 0x2DB9 JUMP JUMPDEST SWAP6 POP POP JUMPDEST PUSH2 0xDF6 DUP11 DUP3 PUSH2 0xEA7 JUMP JUMPDEST DUP1 ISZERO PUSH2 0xE02 JUMPI POP PUSH1 0x0 DUP6 GT JUMPDEST ISZERO PUSH2 0xE26 JUMPI DUP5 DUP1 PUSH2 0xE12 SWAP1 PUSH2 0x2DB9 JUMP JUMPDEST SWAP6 POP POP PUSH2 0xE1F DUP11 DUP7 PUSH2 0x18A7 JUMP JUMPDEST SWAP1 POP PUSH2 0xDEC JUMP JUMPDEST PUSH1 0x0 DUP6 EQ DUP1 ISZERO PUSH2 0xE3C JUMPI POP PUSH2 0xE3B DUP11 DUP3 PUSH2 0xEA7 JUMP JUMPDEST JUMPDEST ISZERO PUSH2 0xE53 JUMPI PUSH1 0x0 DUP1 SWAP8 POP SWAP8 POP POP POP POP POP POP POP PUSH2 0xE89 JUMP JUMPDEST PUSH1 0x1 DUP6 SWAP8 POP SWAP8 POP POP POP POP POP POP POP PUSH2 0xE89 JUMP JUMPDEST PUSH1 0x1 DUP6 PUSH2 0xE72 SWAP2 SWAP1 PUSH2 0x2CE4 JUMP JUMPDEST SWAP3 POP POP JUMPDEST PUSH2 0xC74 JUMP JUMPDEST POP POP POP POP JUMPDEST PUSH1 0x0 DUP1 SWAP3 POP SWAP3 POP POP JUMPDEST SWAP3 POP SWAP3 SWAP1 POP JUMP JUMPDEST PUSH1 0x0 PUSH1 0xF PUSH1 0x0 SWAP1 SLOAD SWAP1 PUSH2 0x100 EXP SWAP1 DIV PUSH1 0xFF AND SWAP1 POP SWAP1 JUMP JUMPDEST PUSH1 0x0 DUP1 PUSH1 0x0 DUP5 DUP2 MSTORE PUSH1 0x20 ADD SWAP1 DUP2 MSTORE PUSH1 0x20 ADD PUSH1 0x0 KECCAK256 PUSH1 0x0 DUP4 DUP2 MSTORE PUSH1 0x20 ADD SWAP1 DUP2 MSTORE PUSH1 0x20 ADD PUSH1 0x0 KECCAK256 PUSH1 0x0 SWAP1 SLOAD SWAP1 PUSH2 0x100 EXP SWAP1 DIV PUSH1 0xFF AND SWAP1 POP SWAP3 SWAP2 POP POP JUMP JUMPDEST PUSH1 0x0 ADDRESS SWAP1 POP SWAP1 JUMP JUMPDEST PUSH32 0xC5D2460186F7233C927E7DB2DCC703C0E500B653CA82273B7BFAD8045D85A470 DUP5 DUP5 PUSH1 0x40 MLOAD PUSH2 0xF1B SWAP3 SWAP2 SWAP1 PUSH2 0x27B2 JUMP JUMPDEST PUSH1 0x40 MLOAD DUP1 SWAP2 SUB SWAP1 KECCAK256 EQ ISZERO PUSH2 0xF64 JUMPI PUSH1 0x40 MLOAD PUSH32 0x8C379A000000000000000000000000000000000000000000000000000000000 DUP2 MSTORE PUSH1 0x4 ADD PUSH2 0xF5B SWAP1 PUSH2 0x29E8 JUMP JUMPDEST PUSH1 0x40 MLOAD DUP1 SWAP2 SUB SWAP1 REVERT JUMPDEST PUSH1 0x3 PUSH1 0x0 DUP7 DUP2 MSTORE PUSH1 0x20 ADD SWAP1 DUP2 MSTORE PUSH1 0x20 ADD PUSH1 0x0 KECCAK256 DUP1 SLOAD SWAP1 POP DUP3 EQ DUP1 PUSH2 0xF88 JUMPI POP PUSH1 0x0 DUP3 EQ JUMPDEST PUSH2 0xFC7 JUMPI PUSH1 0x40 MLOAD PUSH32 0x8C379A000000000000000000000000000000000000000000000000000000000 DUP2 MSTORE PUSH1 0x4 ADD PUSH2 0xFBE SWAP1 PUSH2 0x2A08 JUMP JUMPDEST PUSH1 0x40 MLOAD DUP1 SWAP2 SUB SWAP1 REVERT JUMPDEST DUP1 DUP1 MLOAD SWAP1 PUSH1 0x20 ADD KECCAK256 DUP6 EQ DUP1 PUSH2 0xFE0 JUMPI POP PUSH1 0x64 DUP6 PUSH1 0x0 SHR GT ISZERO JUMPDEST PUSH2 0x101F JUMPI PUSH1 0x40 MLOAD PUSH32 0x8C379A000000000000000000000000000000000000000000000000000000000 DUP2 MSTORE PUSH1 0x4 ADD PUSH2 0x1016 SWAP1 PUSH2 0x29A8 JUMP JUMPDEST PUSH1 0x40 MLOAD DUP1 SWAP2 SUB SWAP1 REVERT JUMPDEST DUP4 DUP4 PUSH1 0x5 PUSH1 0x0 DUP9 DUP2 MSTORE PUSH1 0x20 ADD SWAP1 DUP2 MSTORE PUSH1 0x20 ADD PUSH1 0x0 KECCAK256 PUSH1 0x0 TIMESTAMP DUP2 MSTORE PUSH1 0x20 ADD SWAP1 DUP2 MSTORE PUSH1 0x20 ADD PUSH1 0x0 KECCAK256 SWAP2 SWAP1 PUSH2 0x1052 SWAP3 SWAP2 SWAP1 PUSH2 0x2099 JUMP JUMPDEST POP PUSH1 0x3 PUSH1 0x0 DUP7 DUP2 MSTORE PUSH1 0x20 ADD SWAP1 DUP2 MSTORE PUSH1 0x20 ADD PUSH1 0x0 KECCAK256 TIMESTAMP SWAP1 DUP1 PUSH1 0x1 DUP2 SLOAD ADD DUP1 DUP3 SSTORE DUP1 SWAP2 POP POP PUSH1 0x1 SWAP1 SUB SWAP1 PUSH1 0x0 MSTORE PUSH1 0x20 PUSH1 0x0 KECCAK256 ADD PUSH1 0x0 SWAP1 SWAP2 SWAP1 SWAP2 SWAP1 SWAP2 POP SSTORE CALLER PUSH1 0x1 PUSH1 0x0 DUP8 DUP2 MSTORE PUSH1 0x20 ADD SWAP1 DUP2 MSTORE PUSH1 0x20 ADD PUSH1 0x0 KECCAK256 PUSH1 0x0 TIMESTAMP DUP2 MSTORE PUSH1 0x20 ADD SWAP1 DUP2 MSTORE PUSH1 0x20 ADD PUSH1 0x0 KECCAK256 PUSH1 0x0 PUSH2 0x100 EXP DUP2 SLOAD DUP2 PUSH20 0xFFFFFFFFFFFFFFFFFFFFFFFFFFFFFFFFFFFFFFFF MUL NOT AND SWAP1 DUP4 PUSH20 0xFFFFFFFFFFFFFFFFFFFFFFFFFFFFFFFFFFFFFFFF AND MUL OR SWAP1 SSTORE POP TIMESTAMP PUSH1 0x2 PUSH1 0x0 CALLER PUSH20 0xFFFFFFFFFFFFFFFFFFFFFFFFFFFFFFFFFFFFFFFF AND PUSH20 0xFFFFFFFFFFFFFFFFFFFFFFFFFFFFFFFFFFFFFFFF AND DUP2 MSTORE PUSH1 0x20 ADD SWAP1 DUP2 MSTORE PUSH1 0x20 ADD PUSH1 0x0 KECCAK256 PUSH1 0x3 ADD DUP2 SWAP1 SSTORE POP PUSH1 0x2 PUSH1 0x0 CALLER PUSH20 0xFFFFFFFFFFFFFFFFFFFFFFFFFFFFFFFFFFFFFFFF AND PUSH20 0xFFFFFFFFFFFFFFFFFFFFFFFFFFFFFFFFFFFFFFFF AND DUP2 MSTORE PUSH1 0x20 ADD SWAP1 DUP2 MSTORE PUSH1 0x20 ADD PUSH1 0x0 KECCAK256 PUSH1 0x4 ADD PUSH1 0x0 DUP2 SLOAD DUP1 SWAP3 SWAP2 SWAP1 PUSH2 0x118A SWAP1 PUSH2 0x2E46 JUMP JUMPDEST SWAP2 SWAP1 POP SSTORE POP PUSH32 0x48E9E2C732BA278DE6AC88A3A57A5C5BA13D3D8370E709B3B98333A57876CA95 DUP6 TIMESTAMP DUP7 DUP7 DUP7 DUP7 CALLER PUSH1 0x40 MLOAD PUSH2 0x11CA SWAP8 SWAP7 SWAP6 SWAP5 SWAP4 SWAP3 SWAP2 SWAP1 PUSH2 0x28B3 JUMP JUMPDEST PUSH1 0x40 MLOAD DUP1 SWAP2 SUB SWAP1 LOG1 POP POP POP POP POP JUMP JUMPDEST PUSH1 0x4 PUSH1 0x20 MSTORE DUP1 PUSH1 0x0 MSTORE PUSH1 0x40 PUSH1 0x0 KECCAK256 PUSH1 0x0 SWAP2 POP SWAP1 POP SLOAD DUP2 JUMP JUMPDEST PUSH1 0x9 SLOAD DUP2 JUMP JUMPDEST PUSH1 0x0 PUSH1 0x20 MSTORE DUP2 PUSH1 0x0 MSTORE PUSH1 0x40 PUSH1 0x0 KECCAK256 PUSH1 0x20 MSTORE DUP1 PUSH1 0x0 MSTORE PUSH1 0x40 PUSH1 0x0 KECCAK256 PUSH1 0x0 SWAP2 POP SWAP2 POP SWAP1 SLOAD SWAP1 PUSH2 0x100 EXP SWAP1 DIV PUSH1 0xFF AND DUP2 JUMP JUMPDEST PUSH1 0xA SLOAD DUP2 JUMP JUMPDEST PUSH1 0x0 PUSH1 0x8 PUSH1 0x0 DUP4 PUSH20 0xFFFFFFFFFFFFFFFFFFFFFFFFFFFFFFFFFFFFFFFF AND PUSH20 0xFFFFFFFFFFFFFFFFFFFFFFFFFFFFFFFFFFFFFFFF AND DUP2 MSTORE PUSH1 0x20 ADD SWAP1 DUP2 MSTORE PUSH1 0x20 ADD PUSH1 0x0 KECCAK256 SLOAD SWAP1 POP SWAP2 SWAP1 POP JUMP JUMPDEST PUSH1 0x0 PUSH1 0x9 SLOAD SWAP1 POP SWAP1 JUMP JUMPDEST PUSH1 0x0 DUP1 PUSH1 0x0 DUP1 PUSH1 0x0 DUP1 PUSH1 0x0 DUP1 PUSH1 0x0 DUP1 PUSH1 0x2 PUSH1 0x0 DUP13 PUSH20 0xFFFFFFFFFFFFFFFFFFFFFFFFFFFFFFFFFFFFFFFF AND PUSH20 0xFFFFFFFFFFFFFFFFFFFFFFFFFFFFFFFFFFFFFFFF AND DUP2 MSTORE PUSH1 0x20 ADD SWAP1 DUP2 MSTORE PUSH1 0x20 ADD PUSH1 0x0 KECCAK256 SWAP1 POP DUP1 PUSH1 0x0 ADD SLOAD DUP2 PUSH1 0x1 ADD SLOAD DUP3 PUSH1 0x2 ADD SLOAD PUSH1 0x0 DUP5 PUSH1 0x3 ADD SLOAD DUP6 PUSH1 0x4 ADD SLOAD PUSH1 0x0 DUP1 PUSH1 0x0 SWAP10 POP SWAP10 POP SWAP10 POP SWAP10 POP SWAP10 POP SWAP10 POP SWAP10 POP SWAP10 POP SWAP10 POP POP SWAP2 SWAP4 SWAP6 SWAP8 SWAP10 SWAP1 SWAP3 SWAP5 SWAP7 SWAP9 POP JUMP JUMPDEST PUSH1 0x0 PUSH1 0x3 PUSH1 0x0 DUP4 DUP2 MSTORE PUSH1 0x20 ADD SWAP1 DUP2 MSTORE PUSH1 0x20 ADD PUSH1 0x0 KECCAK256 DUP1 SLOAD SWAP1 POP SWAP1 POP SWAP2 SWAP1 POP JUMP JUMPDEST PUSH1 0x0 PUSH1 0x2 PUSH1 0x0 CALLER PUSH20 0xFFFFFFFFFFFFFFFFFFFFFFFFFFFFFFFFFFFFFFFF AND PUSH20 0xFFFFFFFFFFFFFFFFFFFFFFFFFFFFFFFFFFFFFFFF AND DUP2 MSTORE PUSH1 0x20 ADD SWAP1 DUP2 MSTORE PUSH1 0x20 ADD PUSH1 0x0 KECCAK256 SWAP1 POP DUP2 DUP2 PUSH1 0x1 ADD SLOAD LT ISZERO PUSH2 0x13B9 JUMPI PUSH1 0x40 MLOAD PUSH32 0x8C379A000000000000000000000000000000000000000000000000000000000 DUP2 MSTORE PUSH1 0x4 ADD PUSH2 0x13B0 SWAP1 PUSH2 0x2A88 JUMP JUMPDEST PUSH1 0x40 MLOAD DUP1 SWAP2 SUB SWAP1 REVERT JUMPDEST TIMESTAMP DUP2 PUSH1 0x0 ADD DUP2 SWAP1 SSTORE POP DUP2 DUP2 PUSH1 0x2 ADD PUSH1 0x0 DUP3 DUP3 SLOAD PUSH2 0x13D6 SWAP2 SWAP1 PUSH2 0x2C5D JUMP JUMPDEST SWAP3 POP POP DUP2 SWAP1 SSTORE POP DUP2 DUP2 PUSH1 0x1 ADD PUSH1 0x0 DUP3 DUP3 SLOAD PUSH2 0x13F1 SWAP2 SWAP1 PUSH2 0x2CE4 JUMP JUMPDEST SWAP3 POP POP DUP2 SWAP1 SSTORE POP PUSH32 0x3D8D9DF4BD0172DF32E557FA48E96435CD7F2CAC06AAFFACFAEE608E6F7898EF CALLER DUP4 PUSH1 0x40 MLOAD PUSH2 0x1429 SWAP3 SWAP2 SWAP1 PUSH2 0x27E6 JUMP JUMPDEST PUSH1 0x40 MLOAD DUP1 SWAP2 SUB SWAP1 LOG1 POP POP JUMP JUMPDEST PUSH1 0x60 PUSH1 0xE DUP1 SLOAD PUSH2 0x1444 SWAP1 PUSH2 0x2DE3 JUMP JUMPDEST DUP1 PUSH1 0x1F ADD PUSH1 0x20 DUP1 SWAP2 DIV MUL PUSH1 0x20 ADD PUSH1 0x40 MLOAD SWAP1 DUP2 ADD PUSH1 0x40 MSTORE DUP1 SWAP3 SWAP2 SWAP1 DUP2 DUP2 MSTORE PUSH1 0x20 ADD DUP3 DUP1 SLOAD PUSH2 0x1470 SWAP1 PUSH2 0x2DE3 JUMP JUMPDEST DUP1 ISZERO PUSH2 0x14BD JUMPI DUP1 PUSH1 0x1F LT PUSH2 0x1492 JUMPI PUSH2 0x100 DUP1 DUP4 SLOAD DIV MUL DUP4 MSTORE SWAP2 PUSH1 0x20 ADD SWAP2 PUSH2 0x14BD JUMP JUMPDEST DUP3 ADD SWAP2 SWAP1 PUSH1 0x0 MSTORE PUSH1 0x20 PUSH1 0x0 KECCAK256 SWAP1 JUMPDEST DUP2 SLOAD DUP2 MSTORE SWAP1 PUSH1 0x1 ADD SWAP1 PUSH1 0x20 ADD DUP1 DUP4 GT PUSH2 0x14A0 JUMPI DUP3 SWAP1 SUB PUSH1 0x1F AND DUP3 ADD SWAP2 JUMPDEST POP POP POP POP POP SWAP1 POP SWAP1 JUMP JUMPDEST PUSH8 0x6F05B59D3B20000 DUP2 JUMP JUMPDEST PUSH1 0x0 PUSH1 0x60 PUSH1 0x0 DUP1 PUSH1 0x0 PUSH2 0x14E6 DUP8 DUP8 PUSH2 0xB90 JUMP JUMPDEST SWAP2 POP SWAP2 POP DUP2 PUSH2 0x1510 JUMPI PUSH1 0x0 PUSH1 0x40 MLOAD DUP1 PUSH1 0x20 ADD PUSH1 0x40 MSTORE DUP1 PUSH1 0x0 DUP2 MSTORE POP PUSH1 0x0 SWAP5 POP SWAP5 POP SWAP5 POP POP POP PUSH2 0x152F JUMP JUMPDEST PUSH2 0x151A DUP8 DUP3 PUSH2 0x18A7 JUMP JUMPDEST SWAP3 POP PUSH2 0x1526 DUP8 DUP5 PUSH2 0x1695 JUMP JUMPDEST SWAP4 POP PUSH1 0x1 SWAP5 POP POP POP JUMPDEST SWAP3 POP SWAP3 POP SWAP3 JUMP JUMPDEST PUSH1 0x0 PUSH2 0x1543 CALLER DUP5 DUP5 PUSH2 0x1C2A JUMP JUMPDEST PUSH1 0x1 SWAP1 POP SWAP3 SWAP2 POP POP JUMP JUMPDEST PUSH2 0x1560 DUP2 PUSH9 0x3635C9ADC5DEA00000 PUSH2 0x1E20 JUMP JUMPDEST POP JUMP JUMPDEST PUSH1 0x0 PUSH1 0x2 PUSH1 0x0 CALLER PUSH20 0xFFFFFFFFFFFFFFFFFFFFFFFFFFFFFFFFFFFFFFFF AND PUSH20 0xFFFFFFFFFFFFFFFFFFFFFFFFFFFFFFFFFFFFFFFF AND DUP2 MSTORE PUSH1 0x20 ADD SWAP1 DUP2 MSTORE PUSH1 0x20 ADD PUSH1 0x0 KECCAK256 SWAP1 POP PUSH3 0x93A80 DUP2 PUSH1 0x0 ADD SLOAD TIMESTAMP PUSH2 0x15BA SWAP2 SWAP1 PUSH2 0x2CE4 JUMP JUMPDEST LT ISZERO PUSH2 0x15FB JUMPI PUSH1 0x40 MLOAD PUSH32 0x8C379A000000000000000000000000000000000000000000000000000000000 DUP2 MSTORE PUSH1 0x4 ADD PUSH2 0x15F2 SWAP1 PUSH2 0x29C8 JUMP JUMPDEST PUSH1 0x40 MLOAD DUP1 SWAP2 SUB SWAP1 REVERT JUMPDEST PUSH1 0x0 DUP2 PUSH1 0x2 ADD SLOAD GT PUSH2 0x1642 JUMPI PUSH1 0x40 MLOAD PUSH32 0x8C379A000000000000000000000000000000000000000000000000000000000 DUP2 MSTORE PUSH1 0x4 ADD PUSH2 0x1639 SWAP1 PUSH2 0x2A48 JUMP JUMPDEST PUSH1 0x40 MLOAD DUP1 SWAP2 SUB SWAP1 REVERT JUMPDEST PUSH2 0x1651 ADDRESS CALLER DUP4 PUSH1 0x2 ADD SLOAD PUSH2 0x1C2A JUMP JUMPDEST PUSH1 0x0 DUP2 PUSH1 0x2 ADD DUP2 SWAP1 SSTORE POP PUSH32 0x4A7934670BD8304E7DA22378BE1368F7C4FEF17C5AEE81804BEDA8638FE428EC CALLER PUSH1 0x40 MLOAD PUSH2 0x168A SWAP2 SWAP1 PUSH2 0x27CB JUMP JUMPDEST PUSH1 0x40 MLOAD DUP1 SWAP2 SUB SWAP1 LOG1 POP JUMP JUMPDEST PUSH1 0x60 PUSH1 0x5 PUSH1 0x0 DUP5 DUP2 MSTORE PUSH1 0x20 ADD SWAP1 DUP2 MSTORE PUSH1 0x20 ADD PUSH1 0x0 KECCAK256 PUSH1 0x0 DUP4 DUP2 MSTORE PUSH1 0x20 ADD SWAP1 DUP2 MSTORE PUSH1 0x20 ADD PUSH1 0x0 KECCAK256 DUP1 SLOAD PUSH2 0x16C6 SWAP1 PUSH2 0x2DE3 JUMP JUMPDEST DUP1 PUSH1 0x1F ADD PUSH1 0x20 DUP1 SWAP2 DIV MUL PUSH1 0x20 ADD PUSH1 0x40 MLOAD SWAP1 DUP2 ADD PUSH1 0x40 MSTORE DUP1 SWAP3 SWAP2 SWAP1 DUP2 DUP2 MSTORE PUSH1 0x20 ADD DUP3 DUP1 SLOAD PUSH2 0x16F2 SWAP1 PUSH2 0x2DE3 JUMP JUMPDEST DUP1 ISZERO PUSH2 0x173F JUMPI DUP1 PUSH1 0x1F LT PUSH2 0x1714 JUMPI PUSH2 0x100 DUP1 DUP4 SLOAD DIV MUL DUP4 MSTORE SWAP2 PUSH1 0x20 ADD SWAP2 PUSH2 0x173F JUMP JUMPDEST DUP3 ADD SWAP2 SWAP1 PUSH1 0x0 MSTORE PUSH1 0x20 PUSH1 0x0 KECCAK256 SWAP1 JUMPDEST DUP2 SLOAD DUP2 MSTORE SWAP1 PUSH1 0x1 ADD SWAP1 PUSH1 0x20 ADD DUP1 DUP4 GT PUSH2 0x1722 JUMPI DUP3 SWAP1 SUB PUSH1 0x1F AND DUP3 ADD SWAP2 JUMPDEST POP POP POP POP POP SWAP1 POP SWAP3 SWAP2 POP POP JUMP JUMPDEST PUSH1 0xB SLOAD DUP2 JUMP JUMPDEST PUSH1 0x6 PUSH1 0x20 MSTORE DUP2 PUSH1 0x0 MSTORE PUSH1 0x40 PUSH1 0x0 KECCAK256 DUP2 DUP2 SLOAD DUP2 LT PUSH2 0x176E JUMPI PUSH1 0x0 DUP1 REVERT JUMPDEST SWAP1 PUSH1 0x0 MSTORE PUSH1 0x20 PUSH1 0x0 KECCAK256 ADD PUSH1 0x0 SWAP2 POP SWAP2 POP POP SLOAD DUP2 JUMP JUMPDEST PUSH1 0x0 PUSH1 0x2 PUSH1 0x0 CALLER PUSH20 0xFFFFFFFFFFFFFFFFFFFFFFFFFFFFFFFFFFFFFFFF AND PUSH20 0xFFFFFFFFFFFFFFFFFFFFFFFFFFFFFFFFFFFFFFFF AND DUP2 MSTORE PUSH1 0x20 ADD SWAP1 DUP2 MSTORE PUSH1 0x20 ADD PUSH1 0x0 KECCAK256 SWAP1 POP PUSH1 0x0 DUP2 PUSH1 0x2 ADD SLOAD GT ISZERO PUSH2 0x1831 JUMPI DUP2 DUP2 PUSH1 0x2 ADD SLOAD LT PUSH2 0x17FE JUMPI DUP2 DUP2 PUSH1 0x2 ADD PUSH1 0x0 DUP3 DUP3 SLOAD PUSH2 0x17F2 SWAP2 SWAP1 PUSH2 0x2CE4 JUMP JUMPDEST SWAP3 POP POP DUP2 SWAP1 SSTORE POP PUSH2 0x182C JUMP JUMPDEST PUSH2 0x1818 CALLER ADDRESS DUP4 PUSH1 0x2 ADD SLOAD DUP6 PUSH2 0x1813 SWAP2 SWAP1 PUSH2 0x2CE4 JUMP JUMPDEST PUSH2 0x1F69 JUMP JUMPDEST PUSH2 0x1821 JUMPI PUSH1 0x0 DUP1 REVERT JUMPDEST PUSH1 0x0 DUP2 PUSH1 0x2 ADD DUP2 SWAP1 SSTORE POP JUMPDEST PUSH2 0x1846 JUMP JUMPDEST PUSH2 0x183C CALLER ADDRESS DUP5 PUSH2 0x1F69 JUMP JUMPDEST PUSH2 0x1845 JUMPI PUSH1 0x0 DUP1 REVERT JUMPDEST JUMPDEST TIMESTAMP DUP2 PUSH1 0x0 ADD DUP2 SWAP1 SSTORE POP DUP2 DUP2 PUSH1 0x1 ADD PUSH1 0x0 DUP3 DUP3 SLOAD PUSH2 0x1863 SWAP2 SWAP1 PUSH2 0x2C5D JUMP JUMPDEST SWAP3 POP POP DUP2 SWAP1 SSTORE POP PUSH32 0xA96C2CCE65119A2170D1711A6E82F18F2006448828483BA7545E595476543647 CALLER DUP4 PUSH1 0x40 MLOAD PUSH2 0x189B SWAP3 SWAP2 SWAP1 PUSH2 0x27E6 JUMP JUMPDEST PUSH1 0x40 MLOAD DUP1 SWAP2 SUB SWAP1 LOG1 POP POP JUMP JUMPDEST PUSH1 0x0 DUP1 PUSH1 0x3 PUSH1 0x0 DUP6 DUP2 MSTORE PUSH1 0x20 ADD SWAP1 DUP2 MSTORE PUSH1 0x20 ADD PUSH1 0x0 KECCAK256 DUP1 SLOAD SWAP1 POP SWAP1 POP PUSH1 0x0 DUP2 EQ DUP1 PUSH2 0x18D2 JUMPI POP DUP3 DUP2 GT ISZERO JUMPDEST ISZERO PUSH2 0x18E1 JUMPI PUSH1 0x0 SWAP2 POP POP PUSH2 0x193B JUMP JUMPDEST PUSH1 0x3 PUSH1 0x0 DUP6 DUP2 MSTORE PUSH1 0x20 ADD SWAP1 DUP2 MSTORE PUSH1 0x20 ADD PUSH1 0x0 KECCAK256 DUP4 DUP2 SLOAD DUP2 LT PUSH2 0x192C JUMPI PUSH32 0x4E487B7100000000000000000000000000000000000000000000000000000000 PUSH1 0x0 MSTORE PUSH1 0x32 PUSH1 0x4 MSTORE PUSH1 0x24 PUSH1 0x0 REVERT JUMPDEST SWAP1 PUSH1 0x0 MSTORE PUSH1 0x20 PUSH1 0x0 KECCAK256 ADD SLOAD SWAP2 POP POP JUMPDEST SWAP3 SWAP2 POP POP JUMP JUMPDEST PUSH2 0x194C CALLER ADDRESS DUP4 PUSH2 0x1F69 JUMP JUMPDEST PUSH2 0x1955 JUMPI PUSH1 0x0 DUP1 REVERT JUMPDEST POP JUMP JUMPDEST PUSH1 0x0 PUSH1 0x7 PUSH1 0x0 DUP5 PUSH20 0xFFFFFFFFFFFFFFFFFFFFFFFFFFFFFFFFFFFFFFFF AND PUSH20 0xFFFFFFFFFFFFFFFFFFFFFFFFFFFFFFFFFFFFFFFF AND DUP2 MSTORE PUSH1 0x20 ADD SWAP1 DUP2 MSTORE PUSH1 0x20 ADD PUSH1 0x0 KECCAK256 PUSH1 0x0 DUP4 PUSH20 0xFFFFFFFFFFFFFFFFFFFFFFFFFFFFFFFFFFFFFFFF AND PUSH20 0xFFFFFFFFFFFFFFFFFFFFFFFFFFFFFFFFFFFFFFFF AND DUP2 MSTORE PUSH1 0x20 ADD SWAP1 DUP2 MSTORE PUSH1 0x20 ADD PUSH1 0x0 KECCAK256 SLOAD SWAP1 POP SWAP3 SWAP2 POP POP JUMP JUMPDEST PUSH1 0x0 PUSH1 0x1 PUSH1 0x0 DUP5 DUP2 MSTORE PUSH1 0x20 ADD SWAP1 DUP2 MSTORE PUSH1 0x20 ADD PUSH1 0x0 KECCAK256 PUSH1 0x0 DUP4 DUP2 MSTORE PUSH1 0x20 ADD SWAP1 DUP2 MSTORE PUSH1 0x20 ADD PUSH1 0x0 KECCAK256 PUSH1 0x0 SWAP1 SLOAD SWAP1 PUSH2 0x100 EXP SWAP1 DIV PUSH20 0xFFFFFFFFFFFFFFFFFFFFFFFFFFFFFFFFFFFFFFFF AND SWAP1 POP SWAP3 SWAP2 POP POP JUMP JUMPDEST PUSH1 0x3 PUSH1 0x20 MSTORE DUP2 PUSH1 0x0 MSTORE PUSH1 0x40 PUSH1 0x0 KECCAK256 DUP2 DUP2 SLOAD DUP2 LT PUSH2 0x1A4A JUMPI PUSH1 0x0 DUP1 REVERT JUMPDEST SWAP1 PUSH1 0x0 MSTORE PUSH1 0x20 PUSH1 0x0 KECCAK256 ADD PUSH1 0x0 SWAP2 POP SWAP2 POP POP SLOAD DUP2 JUMP JUMPDEST PUSH1 0x0 PUSH20 0xFFFFFFFFFFFFFFFFFFFFFFFFFFFFFFFFFFFFFFFF AND DUP4 PUSH20 0xFFFFFFFFFFFFFFFFFFFFFFFFFFFFFFFFFFFFFFFF AND EQ ISZERO PUSH2 0x1ACF JUMPI PUSH1 0x40 MLOAD PUSH32 0x8C379A000000000000000000000000000000000000000000000000000000000 DUP2 MSTORE PUSH1 0x4 ADD PUSH2 0x1AC6 SWAP1 PUSH2 0x2A68 JUMP JUMPDEST PUSH1 0x40 MLOAD DUP1 SWAP2 SUB SWAP1 REVERT JUMPDEST PUSH1 0x0 PUSH20 0xFFFFFFFFFFFFFFFFFFFFFFFFFFFFFFFFFFFFFFFF AND DUP3 PUSH20 0xFFFFFFFFFFFFFFFFFFFFFFFFFFFFFFFFFFFFFFFF AND EQ ISZERO PUSH2 0x1B3F JUMPI PUSH1 0x40 MLOAD PUSH32 0x8C379A000000000000000000000000000000000000000000000000000000000 DUP2 MSTORE PUSH1 0x4 ADD PUSH2 0x1B36 SWAP1 PUSH2 0x2988 JUMP JUMPDEST PUSH1 0x40 MLOAD DUP1 SWAP2 SUB SWAP1 REVERT JUMPDEST DUP1 PUSH1 0x7 PUSH1 0x0 DUP6 PUSH20 0xFFFFFFFFFFFFFFFFFFFFFFFFFFFFFFFFFFFFFFFF AND PUSH20 0xFFFFFFFFFFFFFFFFFFFFFFFFFFFFFFFFFFFFFFFF AND DUP2 MSTORE PUSH1 0x20 ADD SWAP1 DUP2 MSTORE PUSH1 0x20 ADD PUSH1 0x0 KECCAK256 PUSH1 0x0 DUP5 PUSH20 0xFFFFFFFFFFFFFFFFFFFFFFFFFFFFFFFFFFFFFFFF AND PUSH20 0xFFFFFFFFFFFFFFFFFFFFFFFFFFFFFFFFFFFFFFFF AND DUP2 MSTORE PUSH1 0x20 ADD SWAP1 DUP2 MSTORE PUSH1 0x20 ADD PUSH1 0x0 KECCAK256 DUP2 SWAP1 SSTORE POP DUP2 PUSH20 0xFFFFFFFFFFFFFFFFFFFFFFFFFFFFFFFFFFFFFFFF AND DUP4 PUSH20 0xFFFFFFFFFFFFFFFFFFFFFFFFFFFFFFFFFFFFFFFF AND PUSH32 0x8C5BE1E5EBEC7D5BD14F71427D1E84F3DD0314C0F7B2291E5B200AC8C7C3B925 DUP4 PUSH1 0x40 MLOAD PUSH2 0x1C1D SWAP2 SWAP1 PUSH2 0x2AC8 JUMP JUMPDEST PUSH1 0x40 MLOAD DUP1 SWAP2 SUB SWAP1 LOG3 POP POP POP JUMP JUMPDEST PUSH1 0x0 PUSH20 0xFFFFFFFFFFFFFFFFFFFFFFFFFFFFFFFFFFFFFFFF AND DUP4 PUSH20 0xFFFFFFFFFFFFFFFFFFFFFFFFFFFFFFFFFFFFFFFF AND EQ ISZERO PUSH2 0x1C9A JUMPI PUSH1 0x40 MLOAD PUSH32 0x8C379A000000000000000000000000000000000000000000000000000000000 DUP2 MSTORE PUSH1 0x4 ADD PUSH2 0x1C91 SWAP1 PUSH2 0x2A28 JUMP JUMPDEST PUSH1 0x40 MLOAD DUP1 SWAP2 SUB SWAP1 REVERT JUMPDEST PUSH1 0x0 PUSH20 0xFFFFFFFFFFFFFFFFFFFFFFFFFFFFFFFFFFFFFFFF AND DUP3 PUSH20 0xFFFFFFFFFFFFFFFFFFFFFFFFFFFFFFFFFFFFFFFF AND EQ ISZERO PUSH2 0x1D0A JUMPI PUSH1 0x40 MLOAD PUSH32 0x8C379A000000000000000000000000000000000000000000000000000000000 DUP2 MSTORE PUSH1 0x4 ADD PUSH2 0x1D01 SWAP1 PUSH2 0x2968 JUMP JUMPDEST PUSH1 0x40 MLOAD DUP1 SWAP2 SUB SWAP1 REVERT JUMPDEST DUP1 PUSH1 0x8 PUSH1 0x0 DUP6 PUSH20 0xFFFFFFFFFFFFFFFFFFFFFFFFFFFFFFFFFFFFFFFF AND PUSH20 0xFFFFFFFFFFFFFFFFFFFFFFFFFFFFFFFFFFFFFFFF AND DUP2 MSTORE PUSH1 0x20 ADD SWAP1 DUP2 MSTORE PUSH1 0x20 ADD PUSH1 0x0 KECCAK256 PUSH1 0x0 DUP3 DUP3 SLOAD PUSH2 0x1D59 SWAP2 SWAP1 PUSH2 0x2CE4 JUMP JUMPDEST SWAP3 POP POP DUP2 SWAP1 SSTORE POP DUP1 PUSH1 0x8 PUSH1 0x0 DUP5 PUSH20 0xFFFFFFFFFFFFFFFFFFFFFFFFFFFFFFFFFFFFFFFF AND PUSH20 0xFFFFFFFFFFFFFFFFFFFFFFFFFFFFFFFFFFFFFFFF AND DUP2 MSTORE PUSH1 0x20 ADD SWAP1 DUP2 MSTORE PUSH1 0x20 ADD PUSH1 0x0 KECCAK256 PUSH1 0x0 DUP3 DUP3 SLOAD PUSH2 0x1DAF SWAP2 SWAP1 PUSH2 0x2C5D JUMP JUMPDEST SWAP3 POP POP DUP2 SWAP1 SSTORE POP DUP2 PUSH20 0xFFFFFFFFFFFFFFFFFFFFFFFFFFFFFFFFFFFFFFFF AND DUP4 PUSH20 0xFFFFFFFFFFFFFFFFFFFFFFFFFFFFFFFFFFFFFFFF AND PUSH32 0xDDF252AD1BE2C89B69C2B068FC378DAA952BA7F163C4A11628F55A4DF523B3EF DUP4 PUSH1 0x40 MLOAD PUSH2 0x1E13 SWAP2 SWAP1 PUSH2 0x2AC8 JUMP JUMPDEST PUSH1 0x40 MLOAD DUP1 SWAP2 SUB SWAP1 LOG3 POP POP POP JUMP JUMPDEST PUSH1 0x0 PUSH20 0xFFFFFFFFFFFFFFFFFFFFFFFFFFFFFFFFFFFFFFFF AND DUP3 PUSH20 0xFFFFFFFFFFFFFFFFFFFFFFFFFFFFFFFFFFFFFFFF AND EQ ISZERO PUSH2 0x1E90 JUMPI PUSH1 0x40 MLOAD PUSH32 0x8C379A000000000000000000000000000000000000000000000000000000000 DUP2 MSTORE PUSH1 0x4 ADD PUSH2 0x1E87 SWAP1 PUSH2 0x2AA8 JUMP JUMPDEST PUSH1 0x40 MLOAD DUP1 SWAP2 SUB SWAP1 REVERT JUMPDEST DUP1 PUSH1 0xC PUSH1 0x0 DUP3 DUP3 SLOAD PUSH2 0x1EA2 SWAP2 SWAP1 PUSH2 0x2C5D JUMP JUMPDEST SWAP3 POP POP DUP2 SWAP1 SSTORE POP DUP1 PUSH1 0x8 PUSH1 0x0 DUP5 PUSH20 0xFFFFFFFFFFFFFFFFFFFFFFFFFFFFFFFFFFFFFFFF AND PUSH20 0xFFFFFFFFFFFFFFFFFFFFFFFFFFFFFFFFFFFFFFFF AND DUP2 MSTORE PUSH1 0x20 ADD SWAP1 DUP2 MSTORE PUSH1 0x20 ADD PUSH1 0x0 KECCAK256 PUSH1 0x0 DUP3 DUP3 SLOAD PUSH2 0x1EF8 SWAP2 SWAP1 PUSH2 0x2C5D JUMP JUMPDEST SWAP3 POP POP DUP2 SWAP1 SSTORE POP DUP2 PUSH20 0xFFFFFFFFFFFFFFFFFFFFFFFFFFFFFFFFFFFFFFFF AND PUSH1 0x0 PUSH20 0xFFFFFFFFFFFFFFFFFFFFFFFFFFFFFFFFFFFFFFFF AND PUSH32 0xDDF252AD1BE2C89B69C2B068FC378DAA952BA7F163C4A11628F55A4DF523B3EF DUP4 PUSH1 0x40 MLOAD PUSH2 0x1F5D SWAP2 SWAP1 PUSH2 0x2AC8 JUMP JUMPDEST PUSH1 0x40 MLOAD DUP1 SWAP2 SUB SWAP1 LOG3 POP POP JUMP JUMPDEST PUSH1 0x0 PUSH2 0x1F76 DUP5 DUP5 DUP5 PUSH2 0x1C2A JUMP JUMPDEST PUSH2 0x2008 DUP5 CALLER DUP5 PUSH1 0x7 PUSH1 0x0 DUP10 PUSH20 0xFFFFFFFFFFFFFFFFFFFFFFFFFFFFFFFFFFFFFFFF AND PUSH20 0xFFFFFFFFFFFFFFFFFFFFFFFFFFFFFFFFFFFFFFFF AND DUP2 MSTORE PUSH1 0x20 ADD SWAP1 DUP2 MSTORE PUSH1 0x20 ADD PUSH1 0x0 KECCAK256 PUSH1 0x0 ADDRESS PUSH20 0xFFFFFFFFFFFFFFFFFFFFFFFFFFFFFFFFFFFFFFFF AND PUSH20 0xFFFFFFFFFFFFFFFFFFFFFFFFFFFFFFFFFFFFFFFF AND DUP2 MSTORE PUSH1 0x20 ADD SWAP1 DUP2 MSTORE PUSH1 0x20 ADD PUSH1 0x0 KECCAK256 SLOAD PUSH2 0x2003 SWAP2 SWAP1 PUSH2 0x2CE4 JUMP JUMPDEST PUSH2 0x1A5F JUMP JUMPDEST PUSH1 0x1 SWAP1 POP SWAP4 SWAP3 POP POP POP JUMP JUMPDEST DUP3 DUP1 SLOAD PUSH2 0x201F SWAP1 PUSH2 0x2DE3 JUMP JUMPDEST SWAP1 PUSH1 0x0 MSTORE PUSH1 0x20 PUSH1 0x0 KECCAK256 SWAP1 PUSH1 0x1F ADD PUSH1 0x20 SWAP1 DIV DUP2 ADD SWAP3 DUP3 PUSH2 0x2041 JUMPI PUSH1 0x0 DUP6 SSTORE PUSH2 0x2088 JUMP JUMPDEST DUP3 PUSH1 0x1F LT PUSH2 0x205A JUMPI DUP1 MLOAD PUSH1 0xFF NOT AND DUP4 DUP1 ADD OR DUP6 SSTORE PUSH2 0x2088 JUMP JUMPDEST DUP3 DUP1 ADD PUSH1 0x1 ADD DUP6 SSTORE DUP3 ISZERO PUSH2 0x2088 JUMPI SWAP2 DUP3 ADD JUMPDEST DUP3 DUP2 GT ISZERO PUSH2 0x2087 JUMPI DUP3 MLOAD DUP3 SSTORE SWAP2 PUSH1 0x20 ADD SWAP2 SWAP1 PUSH1 0x1 ADD SWAP1 PUSH2 0x206C JUMP JUMPDEST JUMPDEST POP SWAP1 POP PUSH2 0x2095 SWAP2 SWAP1 PUSH2 0x211F JUMP JUMPDEST POP SWAP1 JUMP JUMPDEST DUP3 DUP1 SLOAD PUSH2 0x20A5 SWAP1 PUSH2 0x2DE3 JUMP JUMPDEST SWAP1 PUSH1 0x0 MSTORE PUSH1 0x20 PUSH1 0x0 KECCAK256 SWAP1 PUSH1 0x1F ADD PUSH1 0x20 SWAP1 DIV DUP2 ADD SWAP3 DUP3 PUSH2 0x20C7 JUMPI PUSH1 0x0 DUP6 SSTORE PUSH2 0x210E JUMP JUMPDEST DUP3 PUSH1 0x1F LT PUSH2 0x20E0 JUMPI DUP1 CALLDATALOAD PUSH1 0xFF NOT AND DUP4 DUP1 ADD OR DUP6 SSTORE PUSH2 0x210E JUMP JUMPDEST DUP3 DUP1 ADD PUSH1 0x1 ADD DUP6 SSTORE DUP3 ISZERO PUSH2 0x210E JUMPI SWAP2 DUP3 ADD JUMPDEST DUP3 DUP2 GT ISZERO PUSH2 0x210D JUMPI DUP3 CALLDATALOAD DUP3 SSTORE SWAP2 PUSH1 0x20 ADD SWAP2 SWAP1 PUSH1 0x1 ADD SWAP1 PUSH2 0x20F2 JUMP JUMPDEST JUMPDEST POP SWAP1 POP PUSH2 0x211B SWAP2 SWAP1 PUSH2 0x211F JUMP JUMPDEST POP SWAP1 JUMP JUMPDEST JUMPDEST DUP1 DUP3 GT ISZERO PUSH2 0x2138 JUMPI PUSH1 0x0 DUP2 PUSH1 0x0 SWAP1 SSTORE POP PUSH1 0x1 ADD PUSH2 0x2120 JUMP JUMPDEST POP SWAP1 JUMP JUMPDEST PUSH1 0x0 PUSH2 0x214F PUSH2 0x214A DUP5 PUSH2 0x2BB0 JUMP JUMPDEST PUSH2 0x2B8B JUMP JUMPDEST SWAP1 POP DUP3 DUP2 MSTORE PUSH1 0x20 DUP2 ADD DUP5 DUP5 DUP5 ADD GT ISZERO PUSH2 0x2167 JUMPI PUSH1 0x0 DUP1 REVERT JUMPDEST PUSH2 0x2172 DUP5 DUP3 DUP6 PUSH2 0x2D77 JUMP JUMPDEST POP SWAP4 SWAP3 POP POP POP JUMP JUMPDEST PUSH1 0x0 DUP2 CALLDATALOAD SWAP1 POP PUSH2 0x2189 DUP2 PUSH2 0x31F1 JUMP JUMPDEST SWAP3 SWAP2 POP POP JUMP JUMPDEST PUSH1 0x0 DUP2 CALLDATALOAD SWAP1 POP PUSH2 0x219E DUP2 PUSH2 0x3208 JUMP JUMPDEST SWAP3 SWAP2 POP POP JUMP JUMPDEST PUSH1 0x0 DUP1 DUP4 PUSH1 0x1F DUP5 ADD SLT PUSH2 0x21B6 JUMPI PUSH1 0x0 DUP1 REVERT JUMPDEST DUP3 CALLDATALOAD SWAP1 POP PUSH8 0xFFFFFFFFFFFFFFFF DUP2 GT ISZERO PUSH2 0x21CF JUMPI PUSH1 0x0 DUP1 REVERT JUMPDEST PUSH1 0x20 DUP4 ADD SWAP2 POP DUP4 PUSH1 0x1 DUP3 MUL DUP4 ADD GT ISZERO PUSH2 0x21E7 JUMPI PUSH1 0x0 DUP1 REVERT JUMPDEST SWAP3 POP SWAP3 SWAP1 POP JUMP JUMPDEST PUSH1 0x0 DUP3 PUSH1 0x1F DUP4 ADD SLT PUSH2 0x21FF JUMPI PUSH1 0x0 DUP1 REVERT JUMPDEST DUP2 CALLDATALOAD PUSH2 0x220F DUP5 DUP3 PUSH1 0x20 DUP7 ADD PUSH2 0x213C JUMP JUMPDEST SWAP2 POP POP SWAP3 SWAP2 POP POP JUMP JUMPDEST PUSH1 0x0 DUP2 CALLDATALOAD SWAP1 POP PUSH2 0x2227 DUP2 PUSH2 0x321F JUMP JUMPDEST SWAP3 SWAP2 POP POP JUMP JUMPDEST PUSH1 0x0 PUSH1 0x20 DUP3 DUP5 SUB SLT ISZERO PUSH2 0x223F JUMPI PUSH1 0x0 DUP1 REVERT JUMPDEST PUSH1 0x0 PUSH2 0x224D DUP5 DUP3 DUP6 ADD PUSH2 0x217A JUMP JUMPDEST SWAP2 POP POP SWAP3 SWAP2 POP POP JUMP JUMPDEST PUSH1 0x0 DUP1 PUSH1 0x40 DUP4 DUP6 SUB SLT ISZERO PUSH2 0x2269 JUMPI PUSH1 0x0 DUP1 REVERT JUMPDEST PUSH1 0x0 PUSH2 0x2277 DUP6 DUP3 DUP7 ADD PUSH2 0x217A JUMP JUMPDEST SWAP3 POP POP PUSH1 0x20 PUSH2 0x2288 DUP6 DUP3 DUP7 ADD PUSH2 0x217A JUMP JUMPDEST SWAP2 POP POP SWAP3 POP SWAP3 SWAP1 POP JUMP JUMPDEST PUSH1 0x0 DUP1 PUSH1 0x0 PUSH1 0x60 DUP5 DUP7 SUB SLT ISZERO PUSH2 0x22A7 JUMPI PUSH1 0x0 DUP1 REVERT JUMPDEST PUSH1 0x0 PUSH2 0x22B5 DUP7 DUP3 DUP8 ADD PUSH2 0x217A JUMP JUMPDEST SWAP4 POP POP PUSH1 0x20 PUSH2 0x22C6 DUP7 DUP3 DUP8 ADD PUSH2 0x217A JUMP JUMPDEST SWAP3 POP POP PUSH1 0x40 PUSH2 0x22D7 DUP7 DUP3 DUP8 ADD PUSH2 0x2218 JUMP JUMPDEST SWAP2 POP POP SWAP3 POP SWAP3 POP SWAP3 JUMP JUMPDEST PUSH1 0x0 DUP1 PUSH1 0x40 DUP4 DUP6 SUB SLT ISZERO PUSH2 0x22F4 JUMPI PUSH1 0x0 DUP1 REVERT JUMPDEST PUSH1 0x0 PUSH2 0x2302 DUP6 DUP3 DUP7 ADD PUSH2 0x217A JUMP JUMPDEST SWAP3 POP POP PUSH1 0x20 PUSH2 0x2313 DUP6 DUP3 DUP7 ADD PUSH2 0x2218 JUMP JUMPDEST SWAP2 POP POP SWAP3 POP SWAP3 SWAP1 POP JUMP JUMPDEST PUSH1 0x0 PUSH1 0x20 DUP3 DUP5 SUB SLT ISZERO PUSH2 0x232F JUMPI PUSH1 0x0 DUP1 REVERT JUMPDEST PUSH1 0x0 PUSH2 0x233D DUP5 DUP3 DUP6 ADD PUSH2 0x218F JUMP JUMPDEST SWAP2 POP POP SWAP3 SWAP2 POP POP JUMP JUMPDEST PUSH1 0x0 DUP1 PUSH1 0x0 DUP1 PUSH1 0x0 PUSH1 0x80 DUP7 DUP9 SUB SLT ISZERO PUSH2 0x235E JUMPI PUSH1 0x0 DUP1 REVERT JUMPDEST PUSH1 0x0 PUSH2 0x236C DUP9 DUP3 DUP10 ADD PUSH2 0x218F JUMP JUMPDEST SWAP6 POP POP PUSH1 0x20 DUP7 ADD CALLDATALOAD PUSH8 0xFFFFFFFFFFFFFFFF DUP2 GT ISZERO PUSH2 0x2389 JUMPI PUSH1 0x0 DUP1 REVERT JUMPDEST PUSH2 0x2395 DUP9 DUP3 DUP10 ADD PUSH2 0x21A4 JUMP JUMPDEST SWAP5 POP SWAP5 POP POP PUSH1 0x40 PUSH2 0x23A8 DUP9 DUP3 DUP10 ADD PUSH2 0x2218 JUMP JUMPDEST SWAP3 POP POP PUSH1 0x60 DUP7 ADD CALLDATALOAD PUSH8 0xFFFFFFFFFFFFFFFF DUP2 GT ISZERO PUSH2 0x23C5 JUMPI PUSH1 0x0 DUP1 REVERT JUMPDEST PUSH2 0x23D1 DUP9 DUP3 DUP10 ADD PUSH2 0x21EE JUMP JUMPDEST SWAP2 POP POP SWAP3 SWAP6 POP SWAP3 SWAP6 SWAP1 SWAP4 POP JUMP JUMPDEST PUSH1 0x0 DUP1 PUSH1 0x40 DUP4 DUP6 SUB SLT ISZERO PUSH2 0x23F1 JUMPI PUSH1 0x0 DUP1 REVERT JUMPDEST PUSH1 0x0 PUSH2 0x23FF DUP6 DUP3 DUP7 ADD PUSH2 0x218F JUMP JUMPDEST SWAP3 POP POP PUSH1 0x20 PUSH2 0x2410 DUP6 DUP3 DUP7 ADD PUSH2 0x2218 JUMP JUMPDEST SWAP2 POP POP SWAP3 POP SWAP3 SWAP1 POP JUMP JUMPDEST PUSH1 0x0 PUSH1 0x20 DUP3 DUP5 SUB SLT ISZERO PUSH2 0x242C JUMPI PUSH1 0x0 DUP1 REVERT JUMPDEST PUSH1 0x0 PUSH2 0x243A DUP5 DUP3 DUP6 ADD PUSH2 0x2218 JUMP JUMPDEST SWAP2 POP POP SWAP3 SWAP2 POP POP JUMP JUMPDEST PUSH1 0x0 PUSH2 0x244F DUP4 DUP4 PUSH2 0x2742 JUMP JUMPDEST PUSH1 0x20 DUP4 ADD SWAP1 POP SWAP3 SWAP2 POP POP JUMP JUMPDEST PUSH2 0x2464 DUP2 PUSH2 0x2D18 JUMP JUMPDEST DUP3 MSTORE POP POP JUMP JUMPDEST PUSH1 0x0 PUSH2 0x2475 DUP3 PUSH2 0x2BF1 JUMP JUMPDEST PUSH2 0x247F DUP2 DUP6 PUSH2 0x2C1F JUMP JUMPDEST SWAP4 POP PUSH2 0x248A DUP4 PUSH2 0x2BE1 JUMP JUMPDEST DUP1 PUSH1 0x0 JUMPDEST DUP4 DUP2 LT ISZERO PUSH2 0x24BB JUMPI DUP2 MLOAD PUSH2 0x24A2 DUP9 DUP3 PUSH2 0x2443 JUMP JUMPDEST SWAP8 POP PUSH2 0x24AD DUP4 PUSH2 0x2C12 JUMP JUMPDEST SWAP3 POP POP PUSH1 0x1 DUP2 ADD SWAP1 POP PUSH2 0x248E JUMP JUMPDEST POP DUP6 SWAP4 POP POP POP POP SWAP3 SWAP2 POP POP JUMP JUMPDEST PUSH2 0x24D1 DUP2 PUSH2 0x2D2A JUMP JUMPDEST DUP3 MSTORE POP POP JUMP JUMPDEST PUSH2 0x24E0 DUP2 PUSH2 0x2D36 JUMP JUMPDEST DUP3 MSTORE POP POP JUMP JUMPDEST PUSH2 0x24F7 PUSH2 0x24F2 DUP3 PUSH2 0x2D36 JUMP JUMPDEST PUSH2 0x2E8F JUMP JUMPDEST DUP3 MSTORE POP POP JUMP JUMPDEST PUSH1 0x0 PUSH2 0x2509 DUP4 DUP6 PUSH2 0x2C30 JUMP JUMPDEST SWAP4 POP PUSH2 0x2516 DUP4 DUP6 DUP5 PUSH2 0x2D77 JUMP JUMPDEST PUSH2 0x251F DUP4 PUSH2 0x2F5F JUMP JUMPDEST DUP5 ADD SWAP1 POP SWAP4 SWAP3 POP POP POP JUMP JUMPDEST PUSH1 0x0 PUSH2 0x2536 DUP4 DUP6 PUSH2 0x2C41 JUMP JUMPDEST SWAP4 POP PUSH2 0x2543 DUP4 DUP6 DUP5 PUSH2 0x2D77 JUMP JUMPDEST DUP3 DUP5 ADD SWAP1 POP SWAP4 SWAP3 POP POP POP JUMP JUMPDEST PUSH1 0x0 PUSH2 0x255A DUP3 PUSH2 0x2BFC JUMP JUMPDEST PUSH2 0x2564 DUP2 DUP6 PUSH2 0x2C30 JUMP JUMPDEST SWAP4 POP PUSH2 0x2574 DUP2 DUP6 PUSH1 0x20 DUP7 ADD PUSH2 0x2D86 JUMP JUMPDEST PUSH2 0x257D DUP2 PUSH2 0x2F5F JUMP JUMPDEST DUP5 ADD SWAP2 POP POP SWAP3 SWAP2 POP POP JUMP JUMPDEST PUSH1 0x0 PUSH2 0x2593 DUP3 PUSH2 0x2C07 JUMP JUMPDEST PUSH2 0x259D DUP2 DUP6 PUSH2 0x2C4C JUMP JUMPDEST SWAP4 POP PUSH2 0x25AD DUP2 DUP6 PUSH1 0x20 DUP7 ADD PUSH2 0x2D86 JUMP JUMPDEST PUSH2 0x25B6 DUP2 PUSH2 0x2F5F JUMP JUMPDEST DUP5 ADD SWAP2 POP POP SWAP3 SWAP2 POP POP JUMP JUMPDEST PUSH1 0x0 PUSH2 0x25CE PUSH1 0x23 DUP4 PUSH2 0x2C4C JUMP JUMPDEST SWAP2 POP PUSH2 0x25D9 DUP3 PUSH2 0x2F70 JUMP JUMPDEST PUSH1 0x40 DUP3 ADD SWAP1 POP SWAP2 SWAP1 POP JUMP JUMPDEST PUSH1 0x0 PUSH2 0x25F1 PUSH1 0x22 DUP4 PUSH2 0x2C4C JUMP JUMPDEST SWAP2 POP PUSH2 0x25FC DUP3 PUSH2 0x2FBF JUMP JUMPDEST PUSH1 0x40 DUP3 ADD SWAP1 POP SWAP2 SWAP1 POP JUMP JUMPDEST PUSH1 0x0 PUSH2 0x2614 PUSH1 0x1D DUP4 PUSH2 0x2C4C JUMP JUMPDEST SWAP2 POP PUSH2 0x261F DUP3 PUSH2 0x300E JUMP JUMPDEST PUSH1 0x20 DUP3 ADD SWAP1 POP SWAP2 SWAP1 POP JUMP JUMPDEST PUSH1 0x0 PUSH2 0x2637 PUSH1 0x12 DUP4 PUSH2 0x2C4C JUMP JUMPDEST SWAP2 POP PUSH2 0x2642 DUP3 PUSH2 0x3037 JUMP JUMPDEST PUSH1 0x20 DUP3 ADD SWAP1 POP SWAP2 SWAP1 POP JUMP JUMPDEST PUSH1 0x0 PUSH2 0x265A PUSH1 0x17 DUP4 PUSH2 0x2C4C JUMP JUMPDEST SWAP2 POP PUSH2 0x2665 DUP3 PUSH2 0x3060 JUMP JUMPDEST PUSH1 0x20 DUP3 ADD SWAP1 POP SWAP2 SWAP1 POP JUMP JUMPDEST PUSH1 0x0 PUSH2 0x267D PUSH1 0x20 DUP4 PUSH2 0x2C4C JUMP JUMPDEST SWAP2 POP PUSH2 0x2688 DUP3 PUSH2 0x3089 JUMP JUMPDEST PUSH1 0x20 DUP3 ADD SWAP1 POP SWAP2 SWAP1 POP JUMP JUMPDEST PUSH1 0x0 PUSH2 0x26A0 PUSH1 0x25 DUP4 PUSH2 0x2C4C JUMP JUMPDEST SWAP2 POP PUSH2 0x26AB DUP3 PUSH2 0x30B2 JUMP JUMPDEST PUSH1 0x40 DUP3 ADD SWAP1 POP SWAP2 SWAP1 POP JUMP JUMPDEST PUSH1 0x0 PUSH2 0x26C3 PUSH1 0x22 DUP4 PUSH2 0x2C4C JUMP JUMPDEST SWAP2 POP PUSH2 0x26CE DUP3 PUSH2 0x3101 JUMP JUMPDEST PUSH1 0x40 DUP3 ADD SWAP1 POP SWAP2 SWAP1 POP JUMP JUMPDEST PUSH1 0x0 PUSH2 0x26E6 PUSH1 0x24 DUP4 PUSH2 0x2C4C JUMP JUMPDEST SWAP2 POP PUSH2 0x26F1 DUP3 PUSH2 0x3150 JUMP JUMPDEST PUSH1 0x40 DUP3 ADD SWAP1 POP SWAP2 SWAP1 POP JUMP JUMPDEST PUSH1 0x0 PUSH2 0x2709 PUSH1 0x1B DUP4 PUSH2 0x2C4C JUMP JUMPDEST SWAP2 POP PUSH2 0x2714 DUP3 PUSH2 0x319F JUMP JUMPDEST PUSH1 0x20 DUP3 ADD SWAP1 POP SWAP2 SWAP1 POP JUMP JUMPDEST PUSH1 0x0 PUSH2 0x272C PUSH1 0x1F DUP4 PUSH2 0x2C4C JUMP JUMPDEST SWAP2 POP PUSH2 0x2737 DUP3 PUSH2 0x31C8 JUMP JUMPDEST PUSH1 0x20 DUP3 ADD SWAP1 POP SWAP2 SWAP1 POP JUMP JUMPDEST PUSH2 0x274B DUP2 PUSH2 0x2D60 JUMP JUMPDEST DUP3 MSTORE POP POP JUMP JUMPDEST PUSH2 0x275A DUP2 PUSH2 0x2D60 JUMP JUMPDEST DUP3 MSTORE POP POP JUMP JUMPDEST PUSH2 0x2771 PUSH2 0x276C DUP3 PUSH2 0x2D60 JUMP JUMPDEST PUSH2 0x2E99 JUMP JUMPDEST DUP3 MSTORE POP POP JUMP JUMPDEST PUSH2 0x2780 DUP2 PUSH2 0x2D6A JUMP JUMPDEST DUP3 MSTORE POP POP JUMP JUMPDEST PUSH1 0x0 PUSH2 0x2792 DUP3 DUP6 PUSH2 0x24E6 JUMP JUMPDEST PUSH1 0x20 DUP3 ADD SWAP2 POP PUSH2 0x27A2 DUP3 DUP5 PUSH2 0x2760 JUMP JUMPDEST PUSH1 0x20 DUP3 ADD SWAP2 POP DUP2 SWAP1 POP SWAP4 SWAP3 POP POP POP JUMP JUMPDEST PUSH1 0x0 PUSH2 0x27BF DUP3 DUP5 DUP7 PUSH2 0x252A JUMP JUMPDEST SWAP2 POP DUP2 SWAP1 POP SWAP4 SWAP3 POP POP POP JUMP JUMPDEST PUSH1 0x0 PUSH1 0x20 DUP3 ADD SWAP1 POP PUSH2 0x27E0 PUSH1 0x0 DUP4 ADD DUP5 PUSH2 0x245B JUMP JUMPDEST SWAP3 SWAP2 POP POP JUMP JUMPDEST PUSH1 0x0 PUSH1 0x40 DUP3 ADD SWAP1 POP PUSH2 0x27FB PUSH1 0x0 DUP4 ADD DUP6 PUSH2 0x245B JUMP JUMPDEST PUSH2 0x2808 PUSH1 0x20 DUP4 ADD DUP5 PUSH2 0x2751 JUMP JUMPDEST SWAP4 SWAP3 POP POP POP JUMP JUMPDEST PUSH1 0x0 PUSH1 0x20 DUP3 ADD SWAP1 POP DUP2 DUP2 SUB PUSH1 0x0 DUP4 ADD MSTORE PUSH2 0x2829 DUP2 DUP5 PUSH2 0x246A JUMP JUMPDEST SWAP1 POP SWAP3 SWAP2 POP POP JUMP JUMPDEST PUSH1 0x0 PUSH1 0x20 DUP3 ADD SWAP1 POP PUSH2 0x2846 PUSH1 0x0 DUP4 ADD DUP5 PUSH2 0x24C8 JUMP JUMPDEST SWAP3 SWAP2 POP POP JUMP JUMPDEST PUSH1 0x0 PUSH1 0x60 DUP3 ADD SWAP1 POP PUSH2 0x2861 PUSH1 0x0 DUP4 ADD DUP7 PUSH2 0x24C8 JUMP JUMPDEST DUP2 DUP2 SUB PUSH1 0x20 DUP4 ADD MSTORE PUSH2 0x2873 DUP2 DUP6 PUSH2 0x254F JUMP JUMPDEST SWAP1 POP PUSH2 0x2882 PUSH1 0x40 DUP4 ADD DUP5 PUSH2 0x2751 JUMP JUMPDEST SWAP5 SWAP4 POP POP POP POP JUMP JUMPDEST PUSH1 0x0 PUSH1 0x40 DUP3 ADD SWAP1 POP PUSH2 0x289F PUSH1 0x0 DUP4 ADD DUP6 PUSH2 0x24C8 JUMP JUMPDEST PUSH2 0x28AC PUSH1 0x20 DUP4 ADD DUP5 PUSH2 0x2751 JUMP JUMPDEST SWAP4 SWAP3 POP POP POP JUMP JUMPDEST PUSH1 0x0 PUSH1 0xC0 DUP3 ADD SWAP1 POP PUSH2 0x28C8 PUSH1 0x0 DUP4 ADD DUP11 PUSH2 0x24D7 JUMP JUMPDEST PUSH2 0x28D5 PUSH1 0x20 DUP4 ADD DUP10 PUSH2 0x2751 JUMP JUMPDEST DUP2 DUP2 SUB PUSH1 0x40 DUP4 ADD MSTORE PUSH2 0x28E8 DUP2 DUP8 DUP10 PUSH2 0x24FD JUMP JUMPDEST SWAP1 POP PUSH2 0x28F7 PUSH1 0x60 DUP4 ADD DUP7 PUSH2 0x2751 JUMP JUMPDEST DUP2 DUP2 SUB PUSH1 0x80 DUP4 ADD MSTORE PUSH2 0x2909 DUP2 DUP6 PUSH2 0x254F JUMP JUMPDEST SWAP1 POP PUSH2 0x2918 PUSH1 0xA0 DUP4 ADD DUP5 PUSH2 0x245B JUMP JUMPDEST SWAP9 SWAP8 POP POP POP POP POP POP POP POP JUMP JUMPDEST PUSH1 0x0 PUSH1 0x20 DUP3 ADD SWAP1 POP DUP2 DUP2 SUB PUSH1 0x0 DUP4 ADD MSTORE PUSH2 0x293E DUP2 DUP5 PUSH2 0x254F JUMP JUMPDEST SWAP1 POP SWAP3 SWAP2 POP POP JUMP JUMPDEST PUSH1 0x0 PUSH1 0x20 DUP3 ADD SWAP1 POP DUP2 DUP2 SUB PUSH1 0x0 DUP4 ADD MSTORE PUSH2 0x2960 DUP2 DUP5 PUSH2 0x2588 JUMP JUMPDEST SWAP1 POP SWAP3 SWAP2 POP POP JUMP JUMPDEST PUSH1 0x0 PUSH1 0x20 DUP3 ADD SWAP1 POP DUP2 DUP2 SUB PUSH1 0x0 DUP4 ADD MSTORE PUSH2 0x2981 DUP2 PUSH2 0x25C1 JUMP JUMPDEST SWAP1 POP SWAP2 SWAP1 POP JUMP JUMPDEST PUSH1 0x0 PUSH1 0x20 DUP3 ADD SWAP1 POP DUP2 DUP2 SUB PUSH1 0x0 DUP4 ADD MSTORE PUSH2 0x29A1 DUP2 PUSH2 0x25E4 JUMP JUMPDEST SWAP1 POP SWAP2 SWAP1 POP JUMP JUMPDEST PUSH1 0x0 PUSH1 0x20 DUP3 ADD SWAP1 POP DUP2 DUP2 SUB PUSH1 0x0 DUP4 ADD MSTORE PUSH2 0x29C1 DUP2 PUSH2 0x2607 JUMP JUMPDEST SWAP1 POP SWAP2 SWAP1 POP JUMP JUMPDEST PUSH1 0x0 PUSH1 0x20 DUP3 ADD SWAP1 POP DUP2 DUP2 SUB PUSH1 0x0 DUP4 ADD MSTORE PUSH2 0x29E1 DUP2 PUSH2 0x262A JUMP JUMPDEST SWAP1 POP SWAP2 SWAP1 POP JUMP JUMPDEST PUSH1 0x0 PUSH1 0x20 DUP3 ADD SWAP1 POP DUP2 DUP2 SUB PUSH1 0x0 DUP4 ADD MSTORE PUSH2 0x2A01 DUP2 PUSH2 0x264D JUMP JUMPDEST SWAP1 POP SWAP2 SWAP1 POP JUMP JUMPDEST PUSH1 0x0 PUSH1 0x20 DUP3 ADD SWAP1 POP DUP2 DUP2 SUB PUSH1 0x0 DUP4 ADD MSTORE PUSH2 0x2A21 DUP2 PUSH2 0x2670 JUMP JUMPDEST SWAP1 POP SWAP2 SWAP1 POP JUMP JUMPDEST PUSH1 0x0 PUSH1 0x20 DUP3 ADD SWAP1 POP DUP2 DUP2 SUB PUSH1 0x0 DUP4 ADD MSTORE PUSH2 0x2A41 DUP2 PUSH2 0x2693 JUMP JUMPDEST SWAP1 POP SWAP2 SWAP1 POP JUMP JUMPDEST PUSH1 0x0 PUSH1 0x20 DUP3 ADD SWAP1 POP DUP2 DUP2 SUB PUSH1 0x0 DUP4 ADD MSTORE PUSH2 0x2A61 DUP2 PUSH2 0x26B6 JUMP JUMPDEST SWAP1 POP SWAP2 SWAP1 POP JUMP JUMPDEST PUSH1 0x0 PUSH1 0x20 DUP3 ADD SWAP1 POP DUP2 DUP2 SUB PUSH1 0x0 DUP4 ADD MSTORE PUSH2 0x2A81 DUP2 PUSH2 0x26D9 JUMP JUMPDEST SWAP1 POP SWAP2 SWAP1 POP JUMP JUMPDEST PUSH1 0x0 PUSH1 0x20 DUP3 ADD SWAP1 POP DUP2 DUP2 SUB PUSH1 0x0 DUP4 ADD MSTORE PUSH2 0x2AA1 DUP2 PUSH2 0x26FC JUMP JUMPDEST SWAP1 POP SWAP2 SWAP1 POP JUMP JUMPDEST PUSH1 0x0 PUSH1 0x20 DUP3 ADD SWAP1 POP DUP2 DUP2 SUB PUSH1 0x0 DUP4 ADD MSTORE PUSH2 0x2AC1 DUP2 PUSH2 0x271F JUMP JUMPDEST SWAP1 POP SWAP2 SWAP1 POP JUMP JUMPDEST PUSH1 0x0 PUSH1 0x20 DUP3 ADD SWAP1 POP PUSH2 0x2ADD PUSH1 0x0 DUP4 ADD DUP5 PUSH2 0x2751 JUMP JUMPDEST SWAP3 SWAP2 POP POP JUMP JUMPDEST PUSH1 0x0 PUSH2 0x120 DUP3 ADD SWAP1 POP PUSH2 0x2AF9 PUSH1 0x0 DUP4 ADD DUP13 PUSH2 0x2751 JUMP JUMPDEST PUSH2 0x2B06 PUSH1 0x20 DUP4 ADD DUP12 PUSH2 0x2751 JUMP JUMPDEST PUSH2 0x2B13 PUSH1 0x40 DUP4 ADD DUP11 PUSH2 0x2751 JUMP JUMPDEST PUSH2 0x2B20 PUSH1 0x60 DUP4 ADD DUP10 PUSH2 0x2751 JUMP JUMPDEST PUSH2 0x2B2D PUSH1 0x80 DUP4 ADD DUP9 PUSH2 0x2751 JUMP JUMPDEST PUSH2 0x2B3A PUSH1 0xA0 DUP4 ADD DUP8 PUSH2 0x2751 JUMP JUMPDEST PUSH2 0x2B47 PUSH1 0xC0 DUP4 ADD DUP7 PUSH2 0x2751 JUMP JUMPDEST PUSH2 0x2B54 PUSH1 0xE0 DUP4 ADD DUP6 PUSH2 0x2751 JUMP JUMPDEST PUSH2 0x2B62 PUSH2 0x100 DUP4 ADD DUP5 PUSH2 0x24C8 JUMP JUMPDEST SWAP11 SWAP10 POP POP POP POP POP POP POP POP POP POP JUMP JUMPDEST PUSH1 0x0 PUSH1 0x20 DUP3 ADD SWAP1 POP PUSH2 0x2B85 PUSH1 0x0 DUP4 ADD DUP5 PUSH2 0x2777 JUMP JUMPDEST SWAP3 SWAP2 POP POP JUMP JUMPDEST PUSH1 0x0 PUSH2 0x2B95 PUSH2 0x2BA6 JUMP JUMPDEST SWAP1 POP PUSH2 0x2BA1 DUP3 DUP3 PUSH2 0x2E15 JUMP JUMPDEST SWAP2 SWAP1 POP JUMP JUMPDEST PUSH1 0x0 PUSH1 0x40 MLOAD SWAP1 POP SWAP1 JUMP JUMPDEST PUSH1 0x0 PUSH8 0xFFFFFFFFFFFFFFFF DUP3 GT ISZERO PUSH2 0x2BCB JUMPI PUSH2 0x2BCA PUSH2 0x2F30 JUMP JUMPDEST JUMPDEST PUSH2 0x2BD4 DUP3 PUSH2 0x2F5F JUMP JUMPDEST SWAP1 POP PUSH1 0x20 DUP2 ADD SWAP1 POP SWAP2 SWAP1 POP JUMP JUMPDEST PUSH1 0x0 DUP2 SWAP1 POP PUSH1 0x20 DUP3 ADD SWAP1 POP SWAP2 SWAP1 POP JUMP JUMPDEST PUSH1 0x0 DUP2 MLOAD SWAP1 POP SWAP2 SWAP1 POP JUMP JUMPDEST PUSH1 0x0 DUP2 MLOAD SWAP1 POP SWAP2 SWAP1 POP JUMP JUMPDEST PUSH1 0x0 DUP2 MLOAD SWAP1 POP SWAP2 SWAP1 POP JUMP JUMPDEST PUSH1 0x0 PUSH1 0x20 DUP3 ADD SWAP1 POP SWAP2 SWAP1 POP JUMP JUMPDEST PUSH1 0x0 DUP3 DUP3 MSTORE PUSH1 0x20 DUP3 ADD SWAP1 POP SWAP3 SWAP2 POP POP JUMP JUMPDEST PUSH1 0x0 DUP3 DUP3 MSTORE PUSH1 0x20 DUP3 ADD SWAP1 POP SWAP3 SWAP2 POP POP JUMP JUMPDEST PUSH1 0x0 DUP2 SWAP1 POP SWAP3 SWAP2 POP POP JUMP JUMPDEST PUSH1 0x0 DUP3 DUP3 MSTORE PUSH1 0x20 DUP3 ADD SWAP1 POP SWAP3 SWAP2 POP POP JUMP JUMPDEST PUSH1 0x0 PUSH2 0x2C68 DUP3 PUSH2 0x2D60 JUMP JUMPDEST SWAP2 POP PUSH2 0x2C73 DUP4 PUSH2 0x2D60 JUMP JUMPDEST SWAP3 POP DUP3 PUSH32 0xFFFFFFFFFFFFFFFFFFFFFFFFFFFFFFFFFFFFFFFFFFFFFFFFFFFFFFFFFFFFFFFF SUB DUP3 GT ISZERO PUSH2 0x2CA8 JUMPI PUSH2 0x2CA7 PUSH2 0x2EA3 JUMP JUMPDEST JUMPDEST DUP3 DUP3 ADD SWAP1 POP SWAP3 SWAP2 POP POP JUMP JUMPDEST PUSH1 0x0 PUSH2 0x2CBE DUP3 PUSH2 0x2D60 JUMP JUMPDEST SWAP2 POP PUSH2 0x2CC9 DUP4 PUSH2 0x2D60 JUMP JUMPDEST SWAP3 POP DUP3 PUSH2 0x2CD9 JUMPI PUSH2 0x2CD8 PUSH2 0x2ED2 JUMP JUMPDEST JUMPDEST DUP3 DUP3 DIV SWAP1 POP SWAP3 SWAP2 POP POP JUMP JUMPDEST PUSH1 0x0 PUSH2 0x2CEF DUP3 PUSH2 0x2D60 JUMP JUMPDEST SWAP2 POP PUSH2 0x2CFA DUP4 PUSH2 0x2D60 JUMP JUMPDEST SWAP3 POP DUP3 DUP3 LT ISZERO PUSH2 0x2D0D JUMPI PUSH2 0x2D0C PUSH2 0x2EA3 JUMP JUMPDEST JUMPDEST DUP3 DUP3 SUB SWAP1 POP SWAP3 SWAP2 POP POP JUMP JUMPDEST PUSH1 0x0 PUSH2 0x2D23 DUP3 PUSH2 0x2D40 JUMP JUMPDEST SWAP1 POP SWAP2 SWAP1 POP JUMP JUMPDEST PUSH1 0x0 DUP2 ISZERO ISZERO SWAP1 POP SWAP2 SWAP1 POP JUMP JUMPDEST PUSH1 0x0 DUP2 SWAP1 POP SWAP2 SWAP1 POP JUMP JUMPDEST PUSH1 0x0 PUSH20 0xFFFFFFFFFFFFFFFFFFFFFFFFFFFFFFFFFFFFFFFF DUP3 AND SWAP1 POP SWAP2 SWAP1 POP JUMP JUMPDEST PUSH1 0x0 DUP2 SWAP1 POP SWAP2 SWAP1 POP JUMP JUMPDEST PUSH1 0x0 PUSH1 0xFF DUP3 AND SWAP1 POP SWAP2 SWAP1 POP JUMP JUMPDEST DUP3 DUP2 DUP4 CALLDATACOPY PUSH1 0x0 DUP4 DUP4 ADD MSTORE POP POP POP JUMP JUMPDEST PUSH1 0x0 JUMPDEST DUP4 DUP2 LT ISZERO PUSH2 0x2DA4 JUMPI DUP1 DUP3 ADD MLOAD DUP2 DUP5 ADD MSTORE PUSH1 0x20 DUP2 ADD SWAP1 POP PUSH2 0x2D89 JUMP JUMPDEST DUP4 DUP2 GT ISZERO PUSH2 0x2DB3 JUMPI PUSH1 0x0 DUP5 DUP5 ADD MSTORE JUMPDEST POP POP POP POP JUMP JUMPDEST PUSH1 0x0 PUSH2 0x2DC4 DUP3 PUSH2 0x2D60 JUMP JUMPDEST SWAP2 POP PUSH1 0x0 DUP3 EQ ISZERO PUSH2 0x2DD8 JUMPI PUSH2 0x2DD7 PUSH2 0x2EA3 JUMP JUMPDEST JUMPDEST PUSH1 0x1 DUP3 SUB SWAP1 POP SWAP2 SWAP1 POP JUMP JUMPDEST PUSH1 0x0 PUSH1 0x2 DUP3 DIV SWAP1 POP PUSH1 0x1 DUP3 AND DUP1 PUSH2 0x2DFB JUMPI PUSH1 0x7F DUP3 AND SWAP2 POP JUMPDEST PUSH1 0x20 DUP3 LT DUP2 EQ ISZERO PUSH2 0x2E0F JUMPI PUSH2 0x2E0E PUSH2 0x2F01 JUMP JUMPDEST JUMPDEST POP SWAP2 SWAP1 POP JUMP JUMPDEST PUSH2 0x2E1E DUP3 PUSH2 0x2F5F JUMP JUMPDEST DUP2 ADD DUP2 DUP2 LT PUSH8 0xFFFFFFFFFFFFFFFF DUP3 GT OR ISZERO PUSH2 0x2E3D JUMPI PUSH2 0x2E3C PUSH2 0x2F30 JUMP JUMPDEST JUMPDEST DUP1 PUSH1 0x40 MSTORE POP POP POP JUMP JUMPDEST PUSH1 0x0 PUSH2 0x2E51 DUP3 PUSH2 0x2D60 JUMP JUMPDEST SWAP2 POP PUSH32 0xFFFFFFFFFFFFFFFFFFFFFFFFFFFFFFFFFFFFFFFFFFFFFFFFFFFFFFFFFFFFFFFF DUP3 EQ ISZERO PUSH2 0x2E84 JUMPI PUSH2 0x2E83 PUSH2 0x2EA3 JUMP JUMPDEST JUMPDEST PUSH1 0x1 DUP3 ADD SWAP1 POP SWAP2 SWAP1 POP JUMP JUMPDEST PUSH1 0x0 DUP2 SWAP1 POP SWAP2 SWAP1 POP JUMP JUMPDEST PUSH1 0x0 DUP2 SWAP1 POP SWAP2 SWAP1 POP JUMP JUMPDEST PUSH32 0x4E487B7100000000000000000000000000000000000000000000000000000000 PUSH1 0x0 MSTORE PUSH1 0x11 PUSH1 0x4 MSTORE PUSH1 0x24 PUSH1 0x0 REVERT JUMPDEST PUSH32 0x4E487B7100000000000000000000000000000000000000000000000000000000 PUSH1 0x0 MSTORE PUSH1 0x12 PUSH1 0x4 MSTORE PUSH1 0x24 PUSH1 0x0 REVERT JUMPDEST PUSH32 0x4E487B7100000000000000000000000000000000000000000000000000000000 PUSH1 0x0 MSTORE PUSH1 0x22 PUSH1 0x4 MSTORE PUSH1 0x24 PUSH1 0x0 REVERT JUMPDEST PUSH32 0x4E487B7100000000000000000000000000000000000000000000000000000000 PUSH1 0x0 MSTORE PUSH1 0x41 PUSH1 0x4 MSTORE PUSH1 0x24 PUSH1 0x0 REVERT JUMPDEST PUSH1 0x0 PUSH1 0x1F NOT PUSH1 0x1F DUP4 ADD AND SWAP1 POP SWAP2 SWAP1 POP JUMP JUMPDEST PUSH32 0x45524332303A207472616E7366657220746F20746865207A65726F2061646472 PUSH1 0x0 DUP3 ADD MSTORE PUSH32 0x6573730000000000000000000000000000000000000000000000000000000000 PUSH1 0x20 DUP3 ADD MSTORE POP JUMP JUMPDEST PUSH32 0x45524332303A20617070726F766520746F20746865207A65726F206164647265 PUSH1 0x0 DUP3 ADD MSTORE PUSH32 0x7373000000000000000000000000000000000000000000000000000000000000 PUSH1 0x20 DUP3 ADD MSTORE POP JUMP JUMPDEST PUSH32 0x6964206D7573742062652068617368206F662062797465732064617461000000 PUSH1 0x0 DUP3 ADD MSTORE POP JUMP JUMPDEST PUSH32 0x372064617973206469646E277420706173730000000000000000000000000000 PUSH1 0x0 DUP3 ADD MSTORE POP JUMP JUMPDEST PUSH32 0x76616C7565206D757374206265207375626D6974746564000000000000000000 PUSH1 0x0 DUP3 ADD MSTORE POP JUMP JUMPDEST PUSH32 0x6E6F6E6365206D757374206D617463682074696D657374616D7020696E646578 PUSH1 0x0 DUP3 ADD MSTORE POP JUMP JUMPDEST PUSH32 0x45524332303A207472616E736665722066726F6D20746865207A65726F206164 PUSH1 0x0 DUP3 ADD MSTORE PUSH32 0x6472657373000000000000000000000000000000000000000000000000000000 PUSH1 0x20 DUP3 ADD MSTORE POP JUMP JUMPDEST PUSH32 0x7265706F72746572206E6F74206C6F636B656420666F72207769746864726177 PUSH1 0x0 DUP3 ADD MSTORE PUSH32 0x616C000000000000000000000000000000000000000000000000000000000000 PUSH1 0x20 DUP3 ADD MSTORE POP JUMP JUMPDEST PUSH32 0x45524332303A20617070726F76652066726F6D20746865207A65726F20616464 PUSH1 0x0 DUP3 ADD MSTORE PUSH32 0x7265737300000000000000000000000000000000000000000000000000000000 PUSH1 0x20 DUP3 ADD MSTORE POP JUMP JUMPDEST PUSH32 0x696E73756666696369656E74207374616B65642062616C616E63650000000000 PUSH1 0x0 DUP3 ADD MSTORE POP JUMP JUMPDEST PUSH32 0x45524332303A206D696E7420746F20746865207A65726F206164647265737300 PUSH1 0x0 DUP3 ADD MSTORE POP JUMP JUMPDEST PUSH2 0x31FA DUP2 PUSH2 0x2D18 JUMP JUMPDEST DUP2 EQ PUSH2 0x3205 JUMPI PUSH1 0x0 DUP1 REVERT JUMPDEST POP JUMP JUMPDEST PUSH2 0x3211 DUP2 PUSH2 0x2D36 JUMP JUMPDEST DUP2 EQ PUSH2 0x321C JUMPI PUSH1 0x0 DUP1 REVERT JUMPDEST POP JUMP JUMPDEST PUSH2 0x3228 DUP2 PUSH2 0x2D60 JUMP JUMPDEST DUP2 EQ PUSH2 0x3233 JUMPI PUSH1 0x0 DUP1 REVERT JUMPDEST POP JUMP INVALID LOG2 PUSH5 0x6970667358 0x22 SLT KECCAK256 PUSH5 0x8B92F58A2A 0x4E 0x27 LOG2 0xED LOG4 DUP8 0xB3 0xE9 GASLIMIT GASPRICE 0xE9 EXTCODESIZE MSTORE 0xDA DIFFICULTY SIGNEXTEND AND CALL 0x25 0xCF SGT SLOAD 0xE7 SSTORE PUSH2 0xDE64 PUSH20 0x6F6C634300080300330000000000000000000000 "
        },
        "methodIdentifiers": {
          "addStakingRewards(uint256)": "d9c51cd4",
          "allowance(address,address)": "dd62ed3e",
          "approve(address,uint256)": "095ea7b3",
          "balanceOf(address)": "70a08231",
          "beginDispute(bytes32,uint256)": "1f379acc",
          "decimals()": "313ce567",
          "depositStake(uint256)": "cb82cc8f",
          "faucet(address)": "b86d1d63",
          "getDataBefore(bytes32,uint256)": "a792765f",
          "getIndexForDataBefore(bytes32,uint256)": "29449085",
          "getNewValueCountbyQueryId(bytes32)": "77b03e0d",
          "getReporterByTimestamp(bytes32,uint256)": "e07c5486",
          "getStakeAmount()": "722580b6",
          "getStakerInfo(address)": "733bdef0",
          "getTimestampbyQueryIdandIndex(bytes32,uint256)": "ce5e11bf",
          "getVoteRounds(bytes32)": "248638e5",
          "governance()": "5aa6e675",
          "isDisputed(bytes32,uint256)": "64473df2",
          "isInDispute(bytes32,uint256)": "44e87f91",
          "name()": "06fdde03",
          "reporterByTimestamp(bytes32,uint256)": "217053c0",
          "requestStakingWithdraw(uint256)": "8929f4c6",
          "retrieveData(bytes32,uint256)": "c5958af9",
          "stakeAmount()": "60c7dc47",
          "submitValue(bytes32,bytes,uint256,bytes)": "5eaa9ced",
          "symbol()": "95d89b41",
          "timeBasedReward()": "96426d97",
          "timestamps(bytes32,uint256)": "f25133f3",
          "tips(bytes32)": "602bf227",
          "tipsInContract()": "69d43bd3",
          "totalSupply()": "18160ddd",
          "transfer(address,uint256)": "a9059cbb",
          "transferFrom(address,address,uint256)": "23b872dd",
          "values(bytes32,uint256)": "091b50ff",
          "voteCount()": "c6384071",
          "voteRounds(bytes32,uint256)": "c979fe9f",
          "withdrawStake()": "bed9d861"
        }
      }
    }
  }
}