{
  "contracts/mocks/BenchUsingTellor.sol": {
    "BenchUsingTellor": {
      "abi": [
        {
          "inputs": [
            {
              "internalType": "address payable",
              "name": "_tellor",
              "type": "address"
            }
          ],
          "stateMutability": "nonpayable",
          "type": "constructor"
        },
        {
          "inputs": [
            {
              "internalType": "bytes32",
              "name": "_queryId",
              "type": "bytes32"
            }
          ],
          "name": "getCurrentValue",
          "outputs": [
            {
              "internalType": "bool",
              "name": "_ifRetrieve",
              "type": "bool"
            },
            {
              "internalType": "bytes",
              "name": "_value",
              "type": "bytes"
            },
            {
              "internalType": "uint256",
              "name": "_timestampRetrieved",
              "type": "uint256"
            }
          ],
          "stateMutability": "view",
          "type": "function"
        },
        {
          "inputs": [
            {
              "internalType": "bytes32",
              "name": "_queryId",
              "type": "bytes32"
            },
            {
              "internalType": "uint256",
              "name": "_timestamp",
              "type": "uint256"
            }
          ],
          "name": "getDataBefore",
          "outputs": [
            {
              "internalType": "bool",
              "name": "_ifRetrieve",
              "type": "bool"
            },
            {
              "internalType": "bytes",
              "name": "_value",
              "type": "bytes"
            },
            {
              "internalType": "uint256",
              "name": "_timestampRetrieved",
              "type": "uint256"
            }
          ],
          "stateMutability": "view",
          "type": "function"
        },
        {
          "inputs": [
            {
              "internalType": "bytes32",
              "name": "_queryId",
              "type": "bytes32"
            },
            {
              "internalType": "uint256",
              "name": "_timestamp",
              "type": "uint256"
            }
          ],
          "name": "getIndexForDataBefore",
          "outputs": [
            {
              "internalType": "bool",
              "name": "_found",
              "type": "bool"
            },
            {
              "internalType": "uint256",
              "name": "_index",
              "type": "uint256"
            }
          ],
          "stateMutability": "view",
          "type": "function"
        },
        {
          "inputs": [
            {
              "internalType": "bytes32",
              "name": "_queryId",
              "type": "bytes32"
            }
          ],
          "name": "getNewValueCountbyQueryId",
          "outputs": [
            {
              "internalType": "uint256",
              "name": "",
              "type": "uint256"
            }
          ],
          "stateMutability": "view",
          "type": "function"
        },
        {
          "inputs": [
            {
              "internalType": "bytes32",
              "name": "_queryId",
              "type": "bytes32"
            },
            {
              "internalType": "uint256",
              "name": "_timestamp",
              "type": "uint256"
            }
          ],
          "name": "getReporterByTimestamp",
          "outputs": [
            {
              "internalType": "address",
              "name": "",
              "type": "address"
            }
          ],
          "stateMutability": "view",
          "type": "function"
        },
        {
          "inputs": [
            {
              "internalType": "bytes32",
              "name": "_queryId",
              "type": "bytes32"
            },
            {
              "internalType": "uint256",
              "name": "_index",
              "type": "uint256"
            }
          ],
          "name": "getTimestampbyQueryIdandIndex",
          "outputs": [
            {
              "internalType": "uint256",
              "name": "",
              "type": "uint256"
            }
          ],
          "stateMutability": "view",
          "type": "function"
        },
        {
          "inputs": [
            {
              "internalType": "bytes32",
              "name": "_queryId",
              "type": "bytes32"
            },
            {
              "internalType": "uint256",
              "name": "_timestamp",
              "type": "uint256"
            }
          ],
          "name": "isInDispute",
          "outputs": [
            {
              "internalType": "bool",
              "name": "",
              "type": "bool"
            }
          ],
          "stateMutability": "view",
          "type": "function"
        },
        {
          "inputs": [
            {
              "internalType": "bytes32",
              "name": "_queryId",
              "type": "bytes32"
            },
            {
              "internalType": "uint256",
              "name": "_timestamp",
              "type": "uint256"
            }
          ],
          "name": "retrieveData",
          "outputs": [
            {
              "internalType": "bytes",
              "name": "",
              "type": "bytes"
            }
          ],
          "stateMutability": "view",
          "type": "function"
        },
        {
          "inputs": [],
          "name": "tellor",
          "outputs": [
            {
              "internalType": "contract ITellor",
              "name": "",
              "type": "address"
            }
          ],
          "stateMutability": "view",
          "type": "function"
        }
      ],
      "evm": {
        "bytecode": {
          "linkReferences": {},
          "object": "608060405234801561001057600080fd5b506040516110ca3803806110ca8339818101604052810190610032919061008f565b80806000806101000a81548173ffffffffffffffffffffffffffffffffffffffff021916908373ffffffffffffffffffffffffffffffffffffffff1602179055505050610101565b600081519050610089816100ea565b92915050565b6000602082840312156100a157600080fd5b60006100af8482850161007a565b91505092915050565b60006100c3826100ca565b9050919050565b600073ffffffffffffffffffffffffffffffffffffffff82169050919050565b6100f3816100b8565b81146100fe57600080fd5b50565b610fba806101106000396000f3fe608060405234801561001057600080fd5b50600436106100935760003560e01c8063a792765f11610066578063a792765f14610147578063adf1639d14610179578063c5958af9146101ab578063ce5e11bf146101db578063e07c54861461020b57610093565b80631959ad5b1461009857806329449085146100b657806344e87f91146100e757806377b03e0d14610117575b600080fd5b6100a061023b565b6040516100ad9190610c4d565b60405180910390f35b6100d060048036038101906100cb9190610a20565b61025f565b6040516100de929190610bbe565b60405180910390f35b61010160048036038101906100fc9190610a20565b6103da565b60405161010e9190610b65565b60405180910390f35b610131600480360381019061012c91906109f7565b610490565b60405161013e9190610c68565b60405180910390f35b610161600480360381019061015c9190610a20565b610543565b60405161017093929190610b80565b60405180910390f35b610193600480360381019061018e91906109f7565b6105f5565b6040516101a293929190610b80565b60405180910390f35b6101c560048036038101906101c09190610a20565b6106ae565b6040516101d29190610c2b565b60405180910390f35b6101f560048036038101906101f09190610a20565b610768565b6040516102029190610c68565b60405180910390f35b61022560048036038101906102209190610a20565b61081e565b6040516102329190610b4a565b60405180910390f35b60008054906101000a900473ffffffffffffffffffffffffffffffffffffffff1681565b600080600061026d85610490565b905060008111156103ca5760008060009050600060018461028e9190610d7c565b9050600061029c8984610768565b90508781106102b6576000809650965050505050506103d3565b6102c08983610768565b9050878110156102db576001829650965050505050506103d3565b5b6001156103c557826001600285856102f49190610d7c565b6102fe9190610d4b565b6103089190610cf5565b6103129190610cf5565b935061031e8985610768565b9050878110156103705760006103408a60018761033b9190610cf5565b610768565b905088811061035b57600185975097505050505050506103d3565b6001856103689190610cf5565b9350506103c0565b60006103888a6001876103839190610d7c565b610768565b9050888110156103af57600180866103a09190610d7c565b975097505050505050506103d3565b6001856103bc9190610d7c565b9250505b6102dc565b505050505b60008092509250505b9250929050565b60008060009054906101000a900473ffffffffffffffffffffffffffffffffffffffff1673ffffffffffffffffffffffffffffffffffffffff166344e87f9184846040518363ffffffff1660e01b8152600401610438929190610c02565b60206040518083038186803b15801561045057600080fd5b505afa158015610464573d6000803e3d6000fd5b505050506040513d601f19601f8201168201806040525081019061048891906109ce565b905092915050565b60008060009054906101000a900473ffffffffffffffffffffffffffffffffffffffff1673ffffffffffffffffffffffffffffffffffffffff166377b03e0d836040518263ffffffff1660e01b81526004016104ec9190610be7565b60206040518083038186803b15801561050457600080fd5b505afa158015610518573d6000803e3d6000fd5b505050506040513d601f19601f8201168201806040525081019061053c9190610a9d565b9050919050565b600060606000806000610556878761025f565b915091508161058057600060405180602001604052806000815250600094509450945050506105ee565b600061058c8883610768565b905061059888826106ae565b945060405180602001604052806000815250805190602001208580519060200120146105d057600185829550955095505050506105ee565b60006040518060200160405280600081525060009550955095505050505b9250925092565b6000606060008061060585610490565b90506000811415610630576000604051806020016040528060008152506000935093509350506106a7565b6000610648866001846106439190610d7c565b610768565b905061065486826106ae565b9350604051806020016040528060008152508051906020012084805190602001201461068b576001848294509450945050506106a7565b6000604051806020016040528060008152508294509450945050505b9193909250565b606060008054906101000a900473ffffffffffffffffffffffffffffffffffffffff1673ffffffffffffffffffffffffffffffffffffffff1663c5958af984846040518363ffffffff1660e01b815260040161070b929190610c02565b60006040518083038186803b15801561072357600080fd5b505afa158015610737573d6000803e3d6000fd5b505050506040513d6000823e3d601f19601f820116820180604052508101906107609190610a5c565b905092915050565b60008060009054906101000a900473ffffffffffffffffffffffffffffffffffffffff1673ffffffffffffffffffffffffffffffffffffffff1663ce5e11bf84846040518363ffffffff1660e01b81526004016107c6929190610c02565b60206040518083038186803b1580156107de57600080fd5b505afa1580156107f2573d6000803e3d6000fd5b505050506040513d601f19601f820116820180604052508101906108169190610a9d565b905092915050565b60008060009054906101000a900473ffffffffffffffffffffffffffffffffffffffff1673ffffffffffffffffffffffffffffffffffffffff1663e07c548684846040518363ffffffff1660e01b815260040161087c929190610c02565b60206040518083038186803b15801561089457600080fd5b505afa1580156108a8573d6000803e3d6000fd5b505050506040513d601f19601f820116820180604052508101906108cc91906109a5565b905092915050565b60006108e76108e284610ca8565b610c83565b9050828152602081018484840111156108ff57600080fd5b61090a848285610e26565b509392505050565b60008151905061092181610f28565b92915050565b60008151905061093681610f3f565b92915050565b60008135905061094b81610f56565b92915050565b600082601f83011261096257600080fd5b81516109728482602086016108d4565b91505092915050565b60008135905061098a81610f6d565b92915050565b60008151905061099f81610f6d565b92915050565b6000602082840312156109b757600080fd5b60006109c584828501610912565b91505092915050565b6000602082840312156109e057600080fd5b60006109ee84828501610927565b91505092915050565b600060208284031215610a0957600080fd5b6000610a178482850161093c565b91505092915050565b60008060408385031215610a3357600080fd5b6000610a418582860161093c565b9250506020610a528582860161097b565b9150509250929050565b600060208284031215610a6e57600080fd5b600082015167ffffffffffffffff811115610a8857600080fd5b610a9484828501610951565b91505092915050565b600060208284031215610aaf57600080fd5b6000610abd84828501610990565b91505092915050565b610acf81610db0565b82525050565b610ade81610dc2565b82525050565b610aed81610dce565b82525050565b6000610afe82610cd9565b610b088185610ce4565b9350610b18818560208601610e26565b610b2181610f17565b840191505092915050565b610b3581610e02565b82525050565b610b4481610df8565b82525050565b6000602082019050610b5f6000830184610ac6565b92915050565b6000602082019050610b7a6000830184610ad5565b92915050565b6000606082019050610b956000830186610ad5565b8181036020830152610ba78185610af3565b9050610bb66040830184610b3b565b949350505050565b6000604082019050610bd36000830185610ad5565b610be06020830184610b3b565b9392505050565b6000602082019050610bfc6000830184610ae4565b92915050565b6000604082019050610c176000830185610ae4565b610c246020830184610b3b565b9392505050565b60006020820190508181036000830152610c458184610af3565b905092915050565b6000602082019050610c626000830184610b2c565b92915050565b6000602082019050610c7d6000830184610b3b565b92915050565b6000610c8d610c9e565b9050610c998282610e59565b919050565b6000604051905090565b600067ffffffffffffffff821115610cc357610cc2610ee8565b5b610ccc82610f17565b9050602081019050919050565b600081519050919050565b600082825260208201905092915050565b6000610d0082610df8565b9150610d0b83610df8565b9250827fffffffffffffffffffffffffffffffffffffffffffffffffffffffffffffffff03821115610d4057610d3f610e8a565b5b828201905092915050565b6000610d5682610df8565b9150610d6183610df8565b925082610d7157610d70610eb9565b5b828204905092915050565b6000610d8782610df8565b9150610d9283610df8565b925082821015610da557610da4610e8a565b5b828203905092915050565b6000610dbb82610dd8565b9050919050565b60008115159050919050565b6000819050919050565b600073ffffffffffffffffffffffffffffffffffffffff82169050919050565b6000819050919050565b6000610e0d82610e14565b9050919050565b6000610e1f82610dd8565b9050919050565b60005b83811015610e44578082015181840152602081019050610e29565b83811115610e53576000848401525b50505050565b610e6282610f17565b810181811067ffffffffffffffff82111715610e8157610e80610ee8565b5b80604052505050565b7f4e487b7100000000000000000000000000000000000000000000000000000000600052601160045260246000fd5b7f4e487b7100000000000000000000000000000000000000000000000000000000600052601260045260246000fd5b7f4e487b7100000000000000000000000000000000000000000000000000000000600052604160045260246000fd5b6000601f19601f8301169050919050565b610f3181610db0565b8114610f3c57600080fd5b50565b610f4881610dc2565b8114610f5357600080fd5b50565b610f5f81610dce565b8114610f6a57600080fd5b50565b610f7681610df8565b8114610f8157600080fd5b5056fea26469706673582212206c6289b4cb51d576c8f685a33716baa44d0fbf82055921b08408bace57c6faa464736f6c63430008030033",
          "opcodes": "PUSH1 0x80 PUSH1 0x40 MSTORE CALLVALUE DUP1 ISZERO PUSH2 0x10 JUMPI PUSH1 0x0 DUP1 REVERT JUMPDEST POP PUSH1 0x40 MLOAD PUSH2 0x10CA CODESIZE SUB DUP1 PUSH2 0x10CA DUP4 CODECOPY DUP2 DUP2 ADD PUSH1 0x40 MSTORE DUP2 ADD SWAP1 PUSH2 0x32 SWAP2 SWAP1 PUSH2 0x8F JUMP JUMPDEST DUP1 DUP1 PUSH1 0x0 DUP1 PUSH2 0x100 EXP DUP2 SLOAD DUP2 PUSH20 0xFFFFFFFFFFFFFFFFFFFFFFFFFFFFFFFFFFFFFFFF MUL NOT AND SWAP1 DUP4 PUSH20 0xFFFFFFFFFFFFFFFFFFFFFFFFFFFFFFFFFFFFFFFF AND MUL OR SWAP1 SSTORE POP POP POP PUSH2 0x101 JUMP JUMPDEST PUSH1 0x0 DUP2 MLOAD SWAP1 POP PUSH2 0x89 DUP2 PUSH2 0xEA JUMP JUMPDEST SWAP3 SWAP2 POP POP JUMP JUMPDEST PUSH1 0x0 PUSH1 0x20 DUP3 DUP5 SUB SLT ISZERO PUSH2 0xA1 JUMPI PUSH1 0x0 DUP1 REVERT JUMPDEST PUSH1 0x0 PUSH2 0xAF DUP5 DUP3 DUP6 ADD PUSH2 0x7A JUMP JUMPDEST SWAP2 POP POP SWAP3 SWAP2 POP POP JUMP JUMPDEST PUSH1 0x0 PUSH2 0xC3 DUP3 PUSH2 0xCA JUMP JUMPDEST SWAP1 POP SWAP2 SWAP1 POP JUMP JUMPDEST PUSH1 0x0 PUSH20 0xFFFFFFFFFFFFFFFFFFFFFFFFFFFFFFFFFFFFFFFF DUP3 AND SWAP1 POP SWAP2 SWAP1 POP JUMP JUMPDEST PUSH2 0xF3 DUP2 PUSH2 0xB8 JUMP JUMPDEST DUP2 EQ PUSH2 0xFE JUMPI PUSH1 0x0 DUP1 REVERT JUMPDEST POP JUMP JUMPDEST PUSH2 0xFBA DUP1 PUSH2 0x110 PUSH1 0x0 CODECOPY PUSH1 0x0 RETURN INVALID PUSH1 0x80 PUSH1 0x40 MSTORE CALLVALUE DUP1 ISZERO PUSH2 0x10 JUMPI PUSH1 0x0 DUP1 REVERT JUMPDEST POP PUSH1 0x4 CALLDATASIZE LT PUSH2 0x93 JUMPI PUSH1 0x0 CALLDATALOAD PUSH1 0xE0 SHR DUP1 PUSH4 0xA792765F GT PUSH2 0x66 JUMPI DUP1 PUSH4 0xA792765F EQ PUSH2 0x147 JUMPI DUP1 PUSH4 0xADF1639D EQ PUSH2 0x179 JUMPI DUP1 PUSH4 0xC5958AF9 EQ PUSH2 0x1AB JUMPI DUP1 PUSH4 0xCE5E11BF EQ PUSH2 0x1DB JUMPI DUP1 PUSH4 0xE07C5486 EQ PUSH2 0x20B JUMPI PUSH2 0x93 JUMP JUMPDEST DUP1 PUSH4 0x1959AD5B EQ PUSH2 0x98 JUMPI DUP1 PUSH4 0x29449085 EQ PUSH2 0xB6 JUMPI DUP1 PUSH4 0x44E87F91 EQ PUSH2 0xE7 JUMPI DUP1 PUSH4 0x77B03E0D EQ PUSH2 0x117 JUMPI JUMPDEST PUSH1 0x0 DUP1 REVERT JUMPDEST PUSH2 0xA0 PUSH2 0x23B JUMP JUMPDEST PUSH1 0x40 MLOAD PUSH2 0xAD SWAP2 SWAP1 PUSH2 0xC4D JUMP JUMPDEST PUSH1 0x40 MLOAD DUP1 SWAP2 SUB SWAP1 RETURN JUMPDEST PUSH2 0xD0 PUSH1 0x4 DUP1 CALLDATASIZE SUB DUP2 ADD SWAP1 PUSH2 0xCB SWAP2 SWAP1 PUSH2 0xA20 JUMP JUMPDEST PUSH2 0x25F JUMP JUMPDEST PUSH1 0x40 MLOAD PUSH2 0xDE SWAP3 SWAP2 SWAP1 PUSH2 0xBBE JUMP JUMPDEST PUSH1 0x40 MLOAD DUP1 SWAP2 SUB SWAP1 RETURN JUMPDEST PUSH2 0x101 PUSH1 0x4 DUP1 CALLDATASIZE SUB DUP2 ADD SWAP1 PUSH2 0xFC SWAP2 SWAP1 PUSH2 0xA20 JUMP JUMPDEST PUSH2 0x3DA JUMP JUMPDEST PUSH1 0x40 MLOAD PUSH2 0x10E SWAP2 SWAP1 PUSH2 0xB65 JUMP JUMPDEST PUSH1 0x40 MLOAD DUP1 SWAP2 SUB SWAP1 RETURN JUMPDEST PUSH2 0x131 PUSH1 0x4 DUP1 CALLDATASIZE SUB DUP2 ADD SWAP1 PUSH2 0x12C SWAP2 SWAP1 PUSH2 0x9F7 JUMP JUMPDEST PUSH2 0x490 JUMP JUMPDEST PUSH1 0x40 MLOAD PUSH2 0x13E SWAP2 SWAP1 PUSH2 0xC68 JUMP JUMPDEST PUSH1 0x40 MLOAD DUP1 SWAP2 SUB SWAP1 RETURN JUMPDEST PUSH2 0x161 PUSH1 0x4 DUP1 CALLDATASIZE SUB DUP2 ADD SWAP1 PUSH2 0x15C SWAP2 SWAP1 PUSH2 0xA20 JUMP JUMPDEST PUSH2 0x543 JUMP JUMPDEST PUSH1 0x40 MLOAD PUSH2 0x170 SWAP4 SWAP3 SWAP2 SWAP1 PUSH2 0xB80 JUMP JUMPDEST PUSH1 0x40 MLOAD DUP1 SWAP2 SUB SWAP1 RETURN JUMPDEST PUSH2 0x193 PUSH1 0x4 DUP1 CALLDATASIZE SUB DUP2 ADD SWAP1 PUSH2 0x18E SWAP2 SWAP1 PUSH2 0x9F7 JUMP JUMPDEST PUSH2 0x5F5 JUMP JUMPDEST PUSH1 0x40 MLOAD PUSH2 0x1A2 SWAP4 SWAP3 SWAP2 SWAP1 PUSH2 0xB80 JUMP JUMPDEST PUSH1 0x40 MLOAD DUP1 SWAP2 SUB SWAP1 RETURN JUMPDEST PUSH2 0x1C5 PUSH1 0x4 DUP1 CALLDATASIZE SUB DUP2 ADD SWAP1 PUSH2 0x1C0 SWAP2 SWAP1 PUSH2 0xA20 JUMP JUMPDEST PUSH2 0x6AE JUMP JUMPDEST PUSH1 0x40 MLOAD PUSH2 0x1D2 SWAP2 SWAP1 PUSH2 0xC2B JUMP JUMPDEST PUSH1 0x40 MLOAD DUP1 SWAP2 SUB SWAP1 RETURN JUMPDEST PUSH2 0x1F5 PUSH1 0x4 DUP1 CALLDATASIZE SUB DUP2 ADD SWAP1 PUSH2 0x1F0 SWAP2 SWAP1 PUSH2 0xA20 JUMP JUMPDEST PUSH2 0x768 JUMP JUMPDEST PUSH1 0x40 MLOAD PUSH2 0x202 SWAP2 SWAP1 PUSH2 0xC68 JUMP JUMPDEST PUSH1 0x40 MLOAD DUP1 SWAP2 SUB SWAP1 RETURN JUMPDEST PUSH2 0x225 PUSH1 0x4 DUP1 CALLDATASIZE SUB DUP2 ADD SWAP1 PUSH2 0x220 SWAP2 SWAP1 PUSH2 0xA20 JUMP JUMPDEST PUSH2 0x81E JUMP JUMPDEST PUSH1 0x40 MLOAD PUSH2 0x232 SWAP2 SWAP1 PUSH2 0xB4A JUMP JUMPDEST PUSH1 0x40 MLOAD DUP1 SWAP2 SUB SWAP1 RETURN JUMPDEST PUSH1 0x0 DUP1 SLOAD SWAP1 PUSH2 0x100 EXP SWAP1 DIV PUSH20 0xFFFFFFFFFFFFFFFFFFFFFFFFFFFFFFFFFFFFFFFF AND DUP2 JUMP JUMPDEST PUSH1 0x0 DUP1 PUSH1 0x0 PUSH2 0x26D DUP6 PUSH2 0x490 JUMP JUMPDEST SWAP1 POP PUSH1 0x0 DUP2 GT ISZERO PUSH2 0x3CA JUMPI PUSH1 0x0 DUP1 PUSH1 0x0 SWAP1 POP PUSH1 0x0 PUSH1 0x1 DUP5 PUSH2 0x28E SWAP2 SWAP1 PUSH2 0xD7C JUMP JUMPDEST SWAP1 POP PUSH1 0x0 PUSH2 0x29C DUP10 DUP5 PUSH2 0x768 JUMP JUMPDEST SWAP1 POP DUP8 DUP2 LT PUSH2 0x2B6 JUMPI PUSH1 0x0 DUP1 SWAP7 POP SWAP7 POP POP POP POP POP POP PUSH2 0x3D3 JUMP JUMPDEST PUSH2 0x2C0 DUP10 DUP4 PUSH2 0x768 JUMP JUMPDEST SWAP1 POP DUP8 DUP2 LT ISZERO PUSH2 0x2DB JUMPI PUSH1 0x1 DUP3 SWAP7 POP SWAP7 POP POP POP POP POP POP PUSH2 0x3D3 JUMP JUMPDEST JUMPDEST PUSH1 0x1 ISZERO PUSH2 0x3C5 JUMPI DUP3 PUSH1 0x1 PUSH1 0x2 DUP6 DUP6 PUSH2 0x2F4 SWAP2 SWAP1 PUSH2 0xD7C JUMP JUMPDEST PUSH2 0x2FE SWAP2 SWAP1 PUSH2 0xD4B JUMP JUMPDEST PUSH2 0x308 SWAP2 SWAP1 PUSH2 0xCF5 JUMP JUMPDEST PUSH2 0x312 SWAP2 SWAP1 PUSH2 0xCF5 JUMP JUMPDEST SWAP4 POP PUSH2 0x31E DUP10 DUP6 PUSH2 0x768 JUMP JUMPDEST SWAP1 POP DUP8 DUP2 LT ISZERO PUSH2 0x370 JUMPI PUSH1 0x0 PUSH2 0x340 DUP11 PUSH1 0x1 DUP8 PUSH2 0x33B SWAP2 SWAP1 PUSH2 0xCF5 JUMP JUMPDEST PUSH2 0x768 JUMP JUMPDEST SWAP1 POP DUP9 DUP2 LT PUSH2 0x35B JUMPI PUSH1 0x1 DUP6 SWAP8 POP SWAP8 POP POP POP POP POP POP POP PUSH2 0x3D3 JUMP JUMPDEST PUSH1 0x1 DUP6 PUSH2 0x368 SWAP2 SWAP1 PUSH2 0xCF5 JUMP JUMPDEST SWAP4 POP POP PUSH2 0x3C0 JUMP JUMPDEST PUSH1 0x0 PUSH2 0x388 DUP11 PUSH1 0x1 DUP8 PUSH2 0x383 SWAP2 SWAP1 PUSH2 0xD7C JUMP JUMPDEST PUSH2 0x768 JUMP JUMPDEST SWAP1 POP DUP9 DUP2 LT ISZERO PUSH2 0x3AF JUMPI PUSH1 0x1 DUP1 DUP7 PUSH2 0x3A0 SWAP2 SWAP1 PUSH2 0xD7C JUMP JUMPDEST SWAP8 POP SWAP8 POP POP POP POP POP POP POP PUSH2 0x3D3 JUMP JUMPDEST PUSH1 0x1 DUP6 PUSH2 0x3BC SWAP2 SWAP1 PUSH2 0xD7C JUMP JUMPDEST SWAP3 POP POP JUMPDEST PUSH2 0x2DC JUMP JUMPDEST POP POP POP POP JUMPDEST PUSH1 0x0 DUP1 SWAP3 POP SWAP3 POP POP JUMPDEST SWAP3 POP SWAP3 SWAP1 POP JUMP JUMPDEST PUSH1 0x0 DUP1 PUSH1 0x0 SWAP1 SLOAD SWAP1 PUSH2 0x100 EXP SWAP1 DIV PUSH20 0xFFFFFFFFFFFFFFFFFFFFFFFFFFFFFFFFFFFFFFFF AND PUSH20 0xFFFFFFFFFFFFFFFFFFFFFFFFFFFFFFFFFFFFFFFF AND PUSH4 0x44E87F91 DUP5 DUP5 PUSH1 0x40 MLOAD DUP4 PUSH4 0xFFFFFFFF AND PUSH1 0xE0 SHL DUP2 MSTORE PUSH1 0x4 ADD PUSH2 0x438 SWAP3 SWAP2 SWAP1 PUSH2 0xC02 JUMP JUMPDEST PUSH1 0x20 PUSH1 0x40 MLOAD DUP1 DUP4 SUB DUP2 DUP7 DUP1 EXTCODESIZE ISZERO DUP1 ISZERO PUSH2 0x450 JUMPI PUSH1 0x0 DUP1 REVERT JUMPDEST POP GAS STATICCALL ISZERO DUP1 ISZERO PUSH2 0x464 JUMPI RETURNDATASIZE PUSH1 0x0 DUP1 RETURNDATACOPY RETURNDATASIZE PUSH1 0x0 REVERT JUMPDEST POP POP POP POP PUSH1 0x40 MLOAD RETURNDATASIZE PUSH1 0x1F NOT PUSH1 0x1F DUP3 ADD AND DUP3 ADD DUP1 PUSH1 0x40 MSTORE POP DUP2 ADD SWAP1 PUSH2 0x488 SWAP2 SWAP1 PUSH2 0x9CE JUMP JUMPDEST SWAP1 POP SWAP3 SWAP2 POP POP JUMP JUMPDEST PUSH1 0x0 DUP1 PUSH1 0x0 SWAP1 SLOAD SWAP1 PUSH2 0x100 EXP SWAP1 DIV PUSH20 0xFFFFFFFFFFFFFFFFFFFFFFFFFFFFFFFFFFFFFFFF AND PUSH20 0xFFFFFFFFFFFFFFFFFFFFFFFFFFFFFFFFFFFFFFFF AND PUSH4 0x77B03E0D DUP4 PUSH1 0x40 MLOAD DUP3 PUSH4 0xFFFFFFFF AND PUSH1 0xE0 SHL DUP2 MSTORE PUSH1 0x4 ADD PUSH2 0x4EC SWAP2 SWAP1 PUSH2 0xBE7 JUMP JUMPDEST PUSH1 0x20 PUSH1 0x40 MLOAD DUP1 DUP4 SUB DUP2 DUP7 DUP1 EXTCODESIZE ISZERO DUP1 ISZERO PUSH2 0x504 JUMPI PUSH1 0x0 DUP1 REVERT JUMPDEST POP GAS STATICCALL ISZERO DUP1 ISZERO PUSH2 0x518 JUMPI RETURNDATASIZE PUSH1 0x0 DUP1 RETURNDATACOPY RETURNDATASIZE PUSH1 0x0 REVERT JUMPDEST POP POP POP POP PUSH1 0x40 MLOAD RETURNDATASIZE PUSH1 0x1F NOT PUSH1 0x1F DUP3 ADD AND DUP3 ADD DUP1 PUSH1 0x40 MSTORE POP DUP2 ADD SWAP1 PUSH2 0x53C SWAP2 SWAP1 PUSH2 0xA9D JUMP JUMPDEST SWAP1 POP SWAP2 SWAP1 POP JUMP JUMPDEST PUSH1 0x0 PUSH1 0x60 PUSH1 0x0 DUP1 PUSH1 0x0 PUSH2 0x556 DUP8 DUP8 PUSH2 0x25F JUMP JUMPDEST SWAP2 POP SWAP2 POP DUP2 PUSH2 0x580 JUMPI PUSH1 0x0 PUSH1 0x40 MLOAD DUP1 PUSH1 0x20 ADD PUSH1 0x40 MSTORE DUP1 PUSH1 0x0 DUP2 MSTORE POP PUSH1 0x0 SWAP5 POP SWAP5 POP SWAP5 POP POP POP PUSH2 0x5EE JUMP JUMPDEST PUSH1 0x0 PUSH2 0x58C DUP9 DUP4 PUSH2 0x768 JUMP JUMPDEST SWAP1 POP PUSH2 0x598 DUP9 DUP3 PUSH2 0x6AE JUMP JUMPDEST SWAP5 POP PUSH1 0x40 MLOAD DUP1 PUSH1 0x20 ADD PUSH1 0x40 MSTORE DUP1 PUSH1 0x0 DUP2 MSTORE POP DUP1 MLOAD SWAP1 PUSH1 0x20 ADD KECCAK256 DUP6 DUP1 MLOAD SWAP1 PUSH1 0x20 ADD KECCAK256 EQ PUSH2 0x5D0 JUMPI PUSH1 0x1 DUP6 DUP3 SWAP6 POP SWAP6 POP SWAP6 POP POP POP POP PUSH2 0x5EE JUMP JUMPDEST PUSH1 0x0 PUSH1 0x40 MLOAD DUP1 PUSH1 0x20 ADD PUSH1 0x40 MSTORE DUP1 PUSH1 0x0 DUP2 MSTORE POP PUSH1 0x0 SWAP6 POP SWAP6 POP SWAP6 POP POP POP POP JUMPDEST SWAP3 POP SWAP3 POP SWAP3 JUMP JUMPDEST PUSH1 0x0 PUSH1 0x60 PUSH1 0x0 DUP1 PUSH2 0x605 DUP6 PUSH2 0x490 JUMP JUMPDEST SWAP1 POP PUSH1 0x0 DUP2 EQ ISZERO PUSH2 0x630 JUMPI PUSH1 0x0 PUSH1 0x40 MLOAD DUP1 PUSH1 0x20 ADD PUSH1 0x40 MSTORE DUP1 PUSH1 0x0 DUP2 MSTORE POP PUSH1 0x0 SWAP4 POP SWAP4 POP SWAP4 POP POP PUSH2 0x6A7 JUMP JUMPDEST PUSH1 0x0 PUSH2 0x648 DUP7 PUSH1 0x1 DUP5 PUSH2 0x643 SWAP2 SWAP1 PUSH2 0xD7C JUMP JUMPDEST PUSH2 0x768 JUMP JUMPDEST SWAP1 POP PUSH2 0x654 DUP7 DUP3 PUSH2 0x6AE JUMP JUMPDEST SWAP4 POP PUSH1 0x40 MLOAD DUP1 PUSH1 0x20 ADD PUSH1 0x40 MSTORE DUP1 PUSH1 0x0 DUP2 MSTORE POP DUP1 MLOAD SWAP1 PUSH1 0x20 ADD KECCAK256 DUP5 DUP1 MLOAD SWAP1 PUSH1 0x20 ADD KECCAK256 EQ PUSH2 0x68B JUMPI PUSH1 0x1 DUP5 DUP3 SWAP5 POP SWAP5 POP SWAP5 POP POP POP PUSH2 0x6A7 JUMP JUMPDEST PUSH1 0x0 PUSH1 0x40 MLOAD DUP1 PUSH1 0x20 ADD PUSH1 0x40 MSTORE DUP1 PUSH1 0x0 DUP2 MSTORE POP DUP3 SWAP5 POP SWAP5 POP SWAP5 POP POP POP JUMPDEST SWAP2 SWAP4 SWAP1 SWAP3 POP JUMP JUMPDEST PUSH1 0x60 PUSH1 0x0 DUP1 SLOAD SWAP1 PUSH2 0x100 EXP SWAP1 DIV PUSH20 0xFFFFFFFFFFFFFFFFFFFFFFFFFFFFFFFFFFFFFFFF AND PUSH20 0xFFFFFFFFFFFFFFFFFFFFFFFFFFFFFFFFFFFFFFFF AND PUSH4 0xC5958AF9 DUP5 DUP5 PUSH1 0x40 MLOAD DUP4 PUSH4 0xFFFFFFFF AND PUSH1 0xE0 SHL DUP2 MSTORE PUSH1 0x4 ADD PUSH2 0x70B SWAP3 SWAP2 SWAP1 PUSH2 0xC02 JUMP JUMPDEST PUSH1 0x0 PUSH1 0x40 MLOAD DUP1 DUP4 SUB DUP2 DUP7 DUP1 EXTCODESIZE ISZERO DUP1 ISZERO PUSH2 0x723 JUMPI PUSH1 0x0 DUP1 REVERT JUMPDEST POP GAS STATICCALL ISZERO DUP1 ISZERO PUSH2 0x737 JUMPI RETURNDATASIZE PUSH1 0x0 DUP1 RETURNDATACOPY RETURNDATASIZE PUSH1 0x0 REVERT JUMPDEST POP POP POP POP PUSH1 0x40 MLOAD RETURNDATASIZE PUSH1 0x0 DUP3 RETURNDATACOPY RETURNDATASIZE PUSH1 0x1F NOT PUSH1 0x1F DUP3 ADD AND DUP3 ADD DUP1 PUSH1 0x40 MSTORE POP DUP2 ADD SWAP1 PUSH2 0x760 SWAP2 SWAP1 PUSH2 0xA5C JUMP JUMPDEST SWAP1 POP SWAP3 SWAP2 POP POP JUMP JUMPDEST PUSH1 0x0 DUP1 PUSH1 0x0 SWAP1 SLOAD SWAP1 PUSH2 0x100 EXP SWAP1 DIV PUSH20 0xFFFFFFFFFFFFFFFFFFFFFFFFFFFFFFFFFFFFFFFF AND PUSH20 0xFFFFFFFFFFFFFFFFFFFFFFFFFFFFFFFFFFFFFFFF AND PUSH4 0xCE5E11BF DUP5 DUP5 PUSH1 0x40 MLOAD DUP4 PUSH4 0xFFFFFFFF AND PUSH1 0xE0 SHL DUP2 MSTORE PUSH1 0x4 ADD PUSH2 0x7C6 SWAP3 SWAP2 SWAP1 PUSH2 0xC02 JUMP JUMPDEST PUSH1 0x20 PUSH1 0x40 MLOAD DUP1 DUP4 SUB DUP2 DUP7 DUP1 EXTCODESIZE ISZERO DUP1 ISZERO PUSH2 0x7DE JUMPI PUSH1 0x0 DUP1 REVERT JUMPDEST POP GAS STATICCALL ISZERO DUP1 ISZERO PUSH2 0x7F2 JUMPI RETURNDATASIZE PUSH1 0x0 DUP1 RETURNDATACOPY RETURNDATASIZE PUSH1 0x0 REVERT JUMPDEST POP POP POP POP PUSH1 0x40 MLOAD RETURNDATASIZE PUSH1 0x1F NOT PUSH1 0x1F DUP3 ADD AND DUP3 ADD DUP1 PUSH1 0x40 MSTORE POP DUP2 ADD SWAP1 PUSH2 0x816 SWAP2 SWAP1 PUSH2 0xA9D JUMP JUMPDEST SWAP1 POP SWAP3 SWAP2 POP POP JUMP JUMPDEST PUSH1 0x0 DUP1 PUSH1 0x0 SWAP1 SLOAD SWAP1 PUSH2 0x100 EXP SWAP1 DIV PUSH20 0xFFFFFFFFFFFFFFFFFFFFFFFFFFFFFFFFFFFFFFFF AND PUSH20 0xFFFFFFFFFFFFFFFFFFFFFFFFFFFFFFFFFFFFFFFF AND PUSH4 0xE07C5486 DUP5 DUP5 PUSH1 0x40 MLOAD DUP4 PUSH4 0xFFFFFFFF AND PUSH1 0xE0 SHL DUP2 MSTORE PUSH1 0x4 ADD PUSH2 0x87C SWAP3 SWAP2 SWAP1 PUSH2 0xC02 JUMP JUMPDEST PUSH1 0x20 PUSH1 0x40 MLOAD DUP1 DUP4 SUB DUP2 DUP7 DUP1 EXTCODESIZE ISZERO DUP1 ISZERO PUSH2 0x894 JUMPI PUSH1 0x0 DUP1 REVERT JUMPDEST POP GAS STATICCALL ISZERO DUP1 ISZERO PUSH2 0x8A8 JUMPI RETURNDATASIZE PUSH1 0x0 DUP1 RETURNDATACOPY RETURNDATASIZE PUSH1 0x0 REVERT JUMPDEST POP POP POP POP PUSH1 0x40 MLOAD RETURNDATASIZE PUSH1 0x1F NOT PUSH1 0x1F DUP3 ADD AND DUP3 ADD DUP1 PUSH1 0x40 MSTORE POP DUP2 ADD SWAP1 PUSH2 0x8CC SWAP2 SWAP1 PUSH2 0x9A5 JUMP JUMPDEST SWAP1 POP SWAP3 SWAP2 POP POP JUMP JUMPDEST PUSH1 0x0 PUSH2 0x8E7 PUSH2 0x8E2 DUP5 PUSH2 0xCA8 JUMP JUMPDEST PUSH2 0xC83 JUMP JUMPDEST SWAP1 POP DUP3 DUP2 MSTORE PUSH1 0x20 DUP2 ADD DUP5 DUP5 DUP5 ADD GT ISZERO PUSH2 0x8FF JUMPI PUSH1 0x0 DUP1 REVERT JUMPDEST PUSH2 0x90A DUP5 DUP3 DUP6 PUSH2 0xE26 JUMP JUMPDEST POP SWAP4 SWAP3 POP POP POP JUMP JUMPDEST PUSH1 0x0 DUP2 MLOAD SWAP1 POP PUSH2 0x921 DUP2 PUSH2 0xF28 JUMP JUMPDEST SWAP3 SWAP2 POP POP JUMP JUMPDEST PUSH1 0x0 DUP2 MLOAD SWAP1 POP PUSH2 0x936 DUP2 PUSH2 0xF3F JUMP JUMPDEST SWAP3 SWAP2 POP POP JUMP JUMPDEST PUSH1 0x0 DUP2 CALLDATALOAD SWAP1 POP PUSH2 0x94B DUP2 PUSH2 0xF56 JUMP JUMPDEST SWAP3 SWAP2 POP POP JUMP JUMPDEST PUSH1 0x0 DUP3 PUSH1 0x1F DUP4 ADD SLT PUSH2 0x962 JUMPI PUSH1 0x0 DUP1 REVERT JUMPDEST DUP2 MLOAD PUSH2 0x972 DUP5 DUP3 PUSH1 0x20 DUP7 ADD PUSH2 0x8D4 JUMP JUMPDEST SWAP2 POP POP SWAP3 SWAP2 POP POP JUMP JUMPDEST PUSH1 0x0 DUP2 CALLDATALOAD SWAP1 POP PUSH2 0x98A DUP2 PUSH2 0xF6D JUMP JUMPDEST SWAP3 SWAP2 POP POP JUMP JUMPDEST PUSH1 0x0 DUP2 MLOAD SWAP1 POP PUSH2 0x99F DUP2 PUSH2 0xF6D JUMP JUMPDEST SWAP3 SWAP2 POP POP JUMP JUMPDEST PUSH1 0x0 PUSH1 0x20 DUP3 DUP5 SUB SLT ISZERO PUSH2 0x9B7 JUMPI PUSH1 0x0 DUP1 REVERT JUMPDEST PUSH1 0x0 PUSH2 0x9C5 DUP5 DUP3 DUP6 ADD PUSH2 0x912 JUMP JUMPDEST SWAP2 POP POP SWAP3 SWAP2 POP POP JUMP JUMPDEST PUSH1 0x0 PUSH1 0x20 DUP3 DUP5 SUB SLT ISZERO PUSH2 0x9E0 JUMPI PUSH1 0x0 DUP1 REVERT JUMPDEST PUSH1 0x0 PUSH2 0x9EE DUP5 DUP3 DUP6 ADD PUSH2 0x927 JUMP JUMPDEST SWAP2 POP POP SWAP3 SWAP2 POP POP JUMP JUMPDEST PUSH1 0x0 PUSH1 0x20 DUP3 DUP5 SUB SLT ISZERO PUSH2 0xA09 JUMPI PUSH1 0x0 DUP1 REVERT JUMPDEST PUSH1 0x0 PUSH2 0xA17 DUP5 DUP3 DUP6 ADD PUSH2 0x93C JUMP JUMPDEST SWAP2 POP POP SWAP3 SWAP2 POP POP JUMP JUMPDEST PUSH1 0x0 DUP1 PUSH1 0x40 DUP4 DUP6 SUB SLT ISZERO PUSH2 0xA33 JUMPI PUSH1 0x0 DUP1 REVERT JUMPDEST PUSH1 0x0 PUSH2 0xA41 DUP6 DUP3 DUP7 ADD PUSH2 0x93C JUMP JUMPDEST SWAP3 POP POP PUSH1 0x20 PUSH2 0xA52 DUP6 DUP3 DUP7 ADD PUSH2 0x97B JUMP JUMPDEST SWAP2 POP POP SWAP3 POP SWAP3 SWAP1 POP JUMP JUMPDEST PUSH1 0x0 PUSH1 0x20 DUP3 DUP5 SUB SLT ISZERO PUSH2 0xA6E JUMPI PUSH1 0x0 DUP1 REVERT JUMPDEST PUSH1 0x0 DUP3 ADD MLOAD PUSH8 0xFFFFFFFFFFFFFFFF DUP2 GT ISZERO PUSH2 0xA88 JUMPI PUSH1 0x0 DUP1 REVERT JUMPDEST PUSH2 0xA94 DUP5 DUP3 DUP6 ADD PUSH2 0x951 JUMP JUMPDEST SWAP2 POP POP SWAP3 SWAP2 POP POP JUMP JUMPDEST PUSH1 0x0 PUSH1 0x20 DUP3 DUP5 SUB SLT ISZERO PUSH2 0xAAF JUMPI PUSH1 0x0 DUP1 REVERT JUMPDEST PUSH1 0x0 PUSH2 0xABD DUP5 DUP3 DUP6 ADD PUSH2 0x990 JUMP JUMPDEST SWAP2 POP POP SWAP3 SWAP2 POP POP JUMP JUMPDEST PUSH2 0xACF DUP2 PUSH2 0xDB0 JUMP JUMPDEST DUP3 MSTORE POP POP JUMP JUMPDEST PUSH2 0xADE DUP2 PUSH2 0xDC2 JUMP JUMPDEST DUP3 MSTORE POP POP JUMP JUMPDEST PUSH2 0xAED DUP2 PUSH2 0xDCE JUMP JUMPDEST DUP3 MSTORE POP POP JUMP JUMPDEST PUSH1 0x0 PUSH2 0xAFE DUP3 PUSH2 0xCD9 JUMP JUMPDEST PUSH2 0xB08 DUP2 DUP6 PUSH2 0xCE4 JUMP JUMPDEST SWAP4 POP PUSH2 0xB18 DUP2 DUP6 PUSH1 0x20 DUP7 ADD PUSH2 0xE26 JUMP JUMPDEST PUSH2 0xB21 DUP2 PUSH2 0xF17 JUMP JUMPDEST DUP5 ADD SWAP2 POP POP SWAP3 SWAP2 POP POP JUMP JUMPDEST PUSH2 0xB35 DUP2 PUSH2 0xE02 JUMP JUMPDEST DUP3 MSTORE POP POP JUMP JUMPDEST PUSH2 0xB44 DUP2 PUSH2 0xDF8 JUMP JUMPDEST DUP3 MSTORE POP POP JUMP JUMPDEST PUSH1 0x0 PUSH1 0x20 DUP3 ADD SWAP1 POP PUSH2 0xB5F PUSH1 0x0 DUP4 ADD DUP5 PUSH2 0xAC6 JUMP JUMPDEST SWAP3 SWAP2 POP POP JUMP JUMPDEST PUSH1 0x0 PUSH1 0x20 DUP3 ADD SWAP1 POP PUSH2 0xB7A PUSH1 0x0 DUP4 ADD DUP5 PUSH2 0xAD5 JUMP JUMPDEST SWAP3 SWAP2 POP POP JUMP JUMPDEST PUSH1 0x0 PUSH1 0x60 DUP3 ADD SWAP1 POP PUSH2 0xB95 PUSH1 0x0 DUP4 ADD DUP7 PUSH2 0xAD5 JUMP JUMPDEST DUP2 DUP2 SUB PUSH1 0x20 DUP4 ADD MSTORE PUSH2 0xBA7 DUP2 DUP6 PUSH2 0xAF3 JUMP JUMPDEST SWAP1 POP PUSH2 0xBB6 PUSH1 0x40 DUP4 ADD DUP5 PUSH2 0xB3B JUMP JUMPDEST SWAP5 SWAP4 POP POP POP POP JUMP JUMPDEST PUSH1 0x0 PUSH1 0x40 DUP3 ADD SWAP1 POP PUSH2 0xBD3 PUSH1 0x0 DUP4 ADD DUP6 PUSH2 0xAD5 JUMP JUMPDEST PUSH2 0xBE0 PUSH1 0x20 DUP4 ADD DUP5 PUSH2 0xB3B JUMP JUMPDEST SWAP4 SWAP3 POP POP POP JUMP JUMPDEST PUSH1 0x0 PUSH1 0x20 DUP3 ADD SWAP1 POP PUSH2 0xBFC PUSH1 0x0 DUP4 ADD DUP5 PUSH2 0xAE4 JUMP JUMPDEST SWAP3 SWAP2 POP POP JUMP JUMPDEST PUSH1 0x0 PUSH1 0x40 DUP3 ADD SWAP1 POP PUSH2 0xC17 PUSH1 0x0 DUP4 ADD DUP6 PUSH2 0xAE4 JUMP JUMPDEST PUSH2 0xC24 PUSH1 0x20 DUP4 ADD DUP5 PUSH2 0xB3B JUMP JUMPDEST SWAP4 SWAP3 POP POP POP JUMP JUMPDEST PUSH1 0x0 PUSH1 0x20 DUP3 ADD SWAP1 POP DUP2 DUP2 SUB PUSH1 0x0 DUP4 ADD MSTORE PUSH2 0xC45 DUP2 DUP5 PUSH2 0xAF3 JUMP JUMPDEST SWAP1 POP SWAP3 SWAP2 POP POP JUMP JUMPDEST PUSH1 0x0 PUSH1 0x20 DUP3 ADD SWAP1 POP PUSH2 0xC62 PUSH1 0x0 DUP4 ADD DUP5 PUSH2 0xB2C JUMP JUMPDEST SWAP3 SWAP2 POP POP JUMP JUMPDEST PUSH1 0x0 PUSH1 0x20 DUP3 ADD SWAP1 POP PUSH2 0xC7D PUSH1 0x0 DUP4 ADD DUP5 PUSH2 0xB3B JUMP JUMPDEST SWAP3 SWAP2 POP POP JUMP JUMPDEST PUSH1 0x0 PUSH2 0xC8D PUSH2 0xC9E JUMP JUMPDEST SWAP1 POP PUSH2 0xC99 DUP3 DUP3 PUSH2 0xE59 JUMP JUMPDEST SWAP2 SWAP1 POP JUMP JUMPDEST PUSH1 0x0 PUSH1 0x40 MLOAD SWAP1 POP SWAP1 JUMP JUMPDEST PUSH1 0x0 PUSH8 0xFFFFFFFFFFFFFFFF DUP3 GT ISZERO PUSH2 0xCC3 JUMPI PUSH2 0xCC2 PUSH2 0xEE8 JUMP JUMPDEST JUMPDEST PUSH2 0xCCC DUP3 PUSH2 0xF17 JUMP JUMPDEST SWAP1 POP PUSH1 0x20 DUP2 ADD SWAP1 POP SWAP2 SWAP1 POP JUMP JUMPDEST PUSH1 0x0 DUP2 MLOAD SWAP1 POP SWAP2 SWAP1 POP JUMP JUMPDEST PUSH1 0x0 DUP3 DUP3 MSTORE PUSH1 0x20 DUP3 ADD SWAP1 POP SWAP3 SWAP2 POP POP JUMP JUMPDEST PUSH1 0x0 PUSH2 0xD00 DUP3 PUSH2 0xDF8 JUMP JUMPDEST SWAP2 POP PUSH2 0xD0B DUP4 PUSH2 0xDF8 JUMP JUMPDEST SWAP3 POP DUP3 PUSH32 0xFFFFFFFFFFFFFFFFFFFFFFFFFFFFFFFFFFFFFFFFFFFFFFFFFFFFFFFFFFFFFFFF SUB DUP3 GT ISZERO PUSH2 0xD40 JUMPI PUSH2 0xD3F PUSH2 0xE8A JUMP JUMPDEST JUMPDEST DUP3 DUP3 ADD SWAP1 POP SWAP3 SWAP2 POP POP JUMP JUMPDEST PUSH1 0x0 PUSH2 0xD56 DUP3 PUSH2 0xDF8 JUMP JUMPDEST SWAP2 POP PUSH2 0xD61 DUP4 PUSH2 0xDF8 JUMP JUMPDEST SWAP3 POP DUP3 PUSH2 0xD71 JUMPI PUSH2 0xD70 PUSH2 0xEB9 JUMP JUMPDEST JUMPDEST DUP3 DUP3 DIV SWAP1 POP SWAP3 SWAP2 POP POP JUMP JUMPDEST PUSH1 0x0 PUSH2 0xD87 DUP3 PUSH2 0xDF8 JUMP JUMPDEST SWAP2 POP PUSH2 0xD92 DUP4 PUSH2 0xDF8 JUMP JUMPDEST SWAP3 POP DUP3 DUP3 LT ISZERO PUSH2 0xDA5 JUMPI PUSH2 0xDA4 PUSH2 0xE8A JUMP JUMPDEST JUMPDEST DUP3 DUP3 SUB SWAP1 POP SWAP3 SWAP2 POP POP JUMP JUMPDEST PUSH1 0x0 PUSH2 0xDBB DUP3 PUSH2 0xDD8 JUMP JUMPDEST SWAP1 POP SWAP2 SWAP1 POP JUMP JUMPDEST PUSH1 0x0 DUP2 ISZERO ISZERO SWAP1 POP SWAP2 SWAP1 POP JUMP JUMPDEST PUSH1 0x0 DUP2 SWAP1 POP SWAP2 SWAP1 POP JUMP JUMPDEST PUSH1 0x0 PUSH20 0xFFFFFFFFFFFFFFFFFFFFFFFFFFFFFFFFFFFFFFFF DUP3 AND SWAP1 POP SWAP2 SWAP1 POP JUMP JUMPDEST PUSH1 0x0 DUP2 SWAP1 POP SWAP2 SWAP1 POP JUMP JUMPDEST PUSH1 0x0 PUSH2 0xE0D DUP3 PUSH2 0xE14 JUMP JUMPDEST SWAP1 POP SWAP2 SWAP1 POP JUMP JUMPDEST PUSH1 0x0 PUSH2 0xE1F DUP3 PUSH2 0xDD8 JUMP JUMPDEST SWAP1 POP SWAP2 SWAP1 POP JUMP JUMPDEST PUSH1 0x0 JUMPDEST DUP4 DUP2 LT ISZERO PUSH2 0xE44 JUMPI DUP1 DUP3 ADD MLOAD DUP2 DUP5 ADD MSTORE PUSH1 0x20 DUP2 ADD SWAP1 POP PUSH2 0xE29 JUMP JUMPDEST DUP4 DUP2 GT ISZERO PUSH2 0xE53 JUMPI PUSH1 0x0 DUP5 DUP5 ADD MSTORE JUMPDEST POP POP POP POP JUMP JUMPDEST PUSH2 0xE62 DUP3 PUSH2 0xF17 JUMP JUMPDEST DUP2 ADD DUP2 DUP2 LT PUSH8 0xFFFFFFFFFFFFFFFF DUP3 GT OR ISZERO PUSH2 0xE81 JUMPI PUSH2 0xE80 PUSH2 0xEE8 JUMP JUMPDEST JUMPDEST DUP1 PUSH1 0x40 MSTORE POP POP POP JUMP JUMPDEST PUSH32 0x4E487B7100000000000000000000000000000000000000000000000000000000 PUSH1 0x0 MSTORE PUSH1 0x11 PUSH1 0x4 MSTORE PUSH1 0x24 PUSH1 0x0 REVERT JUMPDEST PUSH32 0x4E487B7100000000000000000000000000000000000000000000000000000000 PUSH1 0x0 MSTORE PUSH1 0x12 PUSH1 0x4 MSTORE PUSH1 0x24 PUSH1 0x0 REVERT JUMPDEST PUSH32 0x4E487B7100000000000000000000000000000000000000000000000000000000 PUSH1 0x0 MSTORE PUSH1 0x41 PUSH1 0x4 MSTORE PUSH1 0x24 PUSH1 0x0 REVERT JUMPDEST PUSH1 0x0 PUSH1 0x1F NOT PUSH1 0x1F DUP4 ADD AND SWAP1 POP SWAP2 SWAP1 POP JUMP JUMPDEST PUSH2 0xF31 DUP2 PUSH2 0xDB0 JUMP JUMPDEST DUP2 EQ PUSH2 0xF3C JUMPI PUSH1 0x0 DUP1 REVERT JUMPDEST POP JUMP JUMPDEST PUSH2 0xF48 DUP2 PUSH2 0xDC2 JUMP JUMPDEST DUP2 EQ PUSH2 0xF53 JUMPI PUSH1 0x0 DUP1 REVERT JUMPDEST POP JUMP JUMPDEST PUSH2 0xF5F DUP2 PUSH2 0xDCE JUMP JUMPDEST DUP2 EQ PUSH2 0xF6A JUMPI PUSH1 0x0 DUP1 REVERT JUMPDEST POP JUMP JUMPDEST PUSH2 0xF76 DUP2 PUSH2 0xDF8 JUMP JUMPDEST DUP2 EQ PUSH2 0xF81 JUMPI PUSH1 0x0 DUP1 REVERT JUMPDEST POP JUMP INVALID LOG2 PUSH5 0x6970667358 0x22 SLT KECCAK256 PUSH13 0x6289B4CB51D576C8F685A33716 0xBA LOG4 0x4D 0xF 0xBF DUP3 SDIV MSIZE 0x21 0xB0 DUP5 ADDMOD 0xBA 0xCE JUMPI 0xC6 STATICCALL LOG4 PUSH5 0x736F6C6343 STOP ADDMOD SUB STOP CALLER "
        },
        "methodIdentifiers": {
          "getCurrentValue(bytes32)": "adf1639d",
          "getDataBefore(bytes32,uint256)": "a792765f",
          "getIndexForDataBefore(bytes32,uint256)": "29449085",
          "getNewValueCountbyQueryId(bytes32)": "77b03e0d",
          "getReporterByTimestamp(bytes32,uint256)": "e07c5486",
          "getTimestampbyQueryIdandIndex(bytes32,uint256)": "ce5e11bf",
          "isInDispute(bytes32,uint256)": "44e87f91",
          "retrieveData(bytes32,uint256)": "c5958af9",
          "tellor()": "1959ad5b"
        }
      }
    }
  }
}