{
  "_format": "hh-sol-artifact-1",
  "contractName": "UsingTellor",
  "sourceName": "contracts/UsingTellor.sol",
  "abi": [
    {
      "inputs": [
        {
          "internalType": "address payable",
          "name": "_tellor",
          "type": "address"
        }
      ],
      "stateMutability": "nonpayable",
      "type": "constructor"
    },
    {
      "inputs": [
        {
          "internalType": "bytes32",
          "name": "_queryId",
          "type": "bytes32"
        }
      ],
      "name": "getCurrentValue",
      "outputs": [
        {
          "internalType": "bool",
          "name": "ifRetrieve",
          "type": "bool"
        },
        {
          "internalType": "bytes",
          "name": "value",
          "type": "bytes"
        },
        {
          "internalType": "uint256",
          "name": "_timestampRetrieved",
          "type": "uint256"
        }
      ],
      "stateMutability": "view",
      "type": "function"
    },
    {
      "inputs": [
        {
          "internalType": "bytes32",
          "name": "_queryId",
          "type": "bytes32"
        },
        {
          "internalType": "uint256",
          "name": "_timestamp",
          "type": "uint256"
        }
      ],
      "name": "getDataBefore",
      "outputs": [
        {
          "internalType": "bool",
          "name": "_ifRetrieve",
          "type": "bool"
        },
        {
          "internalType": "bytes",
          "name": "_value",
          "type": "bytes"
        },
        {
          "internalType": "uint256",
          "name": "_timestampRetrieved",
          "type": "uint256"
        }
      ],
      "stateMutability": "view",
      "type": "function"
    },
    {
      "inputs": [
        {
          "internalType": "bytes32",
          "name": "_queryId",
          "type": "bytes32"
        },
        {
          "internalType": "uint256",
          "name": "_timestamp",
          "type": "uint256"
        }
      ],
      "name": "getIndexForDataBefore",
      "outputs": [
        {
          "internalType": "bool",
          "name": "found",
          "type": "bool"
        },
        {
          "internalType": "uint256",
          "name": "index",
          "type": "uint256"
        }
      ],
      "stateMutability": "view",
      "type": "function"
    },
    {
      "inputs": [
        {
          "internalType": "bytes32",
          "name": "_queryId",
          "type": "bytes32"
        }
      ],
      "name": "getNewValueCountbyQueryId",
      "outputs": [
        {
          "internalType": "uint256",
          "name": "",
          "type": "uint256"
        }
      ],
      "stateMutability": "view",
      "type": "function"
    },
    {
      "inputs": [
        {
          "internalType": "bytes32",
          "name": "_queryId",
          "type": "bytes32"
        },
        {
          "internalType": "uint256",
          "name": "_index",
          "type": "uint256"
        }
      ],
      "name": "getTimestampbyQueryIdandIndex",
      "outputs": [
        {
          "internalType": "uint256",
          "name": "",
          "type": "uint256"
        }
      ],
      "stateMutability": "view",
      "type": "function"
    },
    {
      "inputs": [
        {
          "internalType": "bytes32",
          "name": "_queryId",
          "type": "bytes32"
        },
        {
          "internalType": "uint256",
          "name": "_timestamp",
          "type": "uint256"
        }
      ],
      "name": "retrieveData",
      "outputs": [
        {
          "internalType": "bytes",
          "name": "",
          "type": "bytes"
        }
      ],
      "stateMutability": "view",
      "type": "function"
    }
  ],
  "bytecode": "0x60806040523480156200001157600080fd5b506040516200140038038062001400833981810160405281019062000037919062000095565b806000806101000a81548173ffffffffffffffffffffffffffffffffffffffff021916908373ffffffffffffffffffffffffffffffffffffffff160217905550506200010f565b6000815190506200008f81620000f5565b92915050565b600060208284031215620000a857600080fd5b6000620000b8848285016200007e565b91505092915050565b6000620000ce82620000d5565b9050919050565b600073ffffffffffffffffffffffffffffffffffffffff82169050919050565b6200010081620000c1565b81146200010c57600080fd5b50565b6112e1806200011f6000396000f3fe608060405234801561001057600080fd5b50600436106100625760003560e01c8063294490851461006757806377b03e0d14610098578063a792765f146100c8578063adf1639d146100fa578063c5958af91461012c578063ce5e11bf1461015c575b600080fd5b610081600480360381019061007c9190610e3a565b61018c565b60405161008f929190610f84565b60405180910390f35b6100b260048036038101906100ad9190610e11565b6106d0565b6040516100bf9190611013565b60405180910390f35b6100e260048036038101906100dd9190610e3a565b610783565b6040516100f193929190610f46565b60405180910390f35b610114600480360381019061010f9190610e11565b61097d565b60405161012393929190610f46565b60405180910390f35b61014660048036038101906101419190610e3a565b610bfa565b6040516101539190610ff1565b60405180910390f35b61017660048036038101906101719190610e3a565b610cb4565b6040516101839190611013565b60405180910390f35b60008060008060009054906101000a900473ffffffffffffffffffffffffffffffffffffffff1673ffffffffffffffffffffffffffffffffffffffff166377b03e0d866040518263ffffffff1660e01b81526004016101eb9190610fad565b60206040518083038186803b15801561020357600080fd5b505afa158015610217573d6000803e3d6000fd5b505050506040513d601f19601f8201168201806040525081019061023b9190610eb7565b905060008111156106c05760008060009050600060018461025c9190611127565b905060008060009054906101000a900473ffffffffffffffffffffffffffffffffffffffff1673ffffffffffffffffffffffffffffffffffffffff1663ce5e11bf8a856040518363ffffffff1660e01b81526004016102bc929190610fc8565b60206040518083038186803b1580156102d457600080fd5b505afa1580156102e8573d6000803e3d6000fd5b505050506040513d601f19601f8201168201806040525081019061030c9190610eb7565b9050878110610326576000809650965050505050506106c9565b60008054906101000a900473ffffffffffffffffffffffffffffffffffffffff1673ffffffffffffffffffffffffffffffffffffffff1663ce5e11bf8a846040518363ffffffff1660e01b8152600401610381929190610fc8565b60206040518083038186803b15801561039957600080fd5b505afa1580156103ad573d6000803e3d6000fd5b505050506040513d601f19601f820116820180604052508101906103d19190610eb7565b9050878110156103ec576001829650965050505050506106c9565b5b6001156106bb57826001600285856104059190611127565b61040f91906110f6565b61041991906110a0565b61042391906110a0565b935060008054906101000a900473ffffffffffffffffffffffffffffffffffffffff1673ffffffffffffffffffffffffffffffffffffffff1663ce5e11bf8a866040518363ffffffff1660e01b8152600401610480929190610fc8565b60206040518083038186803b15801561049857600080fd5b505afa1580156104ac573d6000803e3d6000fd5b505050506040513d601f19601f820116820180604052508101906104d09190610eb7565b9050878110156105c45760008060009054906101000a900473ffffffffffffffffffffffffffffffffffffffff1673ffffffffffffffffffffffffffffffffffffffff1663ce5e11bf8b60018861052791906110a0565b6040518363ffffffff1660e01b8152600401610544929190610fc8565b60206040518083038186803b15801561055c57600080fd5b505afa158015610570573d6000803e3d6000fd5b505050506040513d601f19601f820116820180604052508101906105949190610eb7565b90508881106105af57600185975097505050505050506106c9565b6001856105bc91906110a0565b9350506106b6565b60008060009054906101000a900473ffffffffffffffffffffffffffffffffffffffff1673ffffffffffffffffffffffffffffffffffffffff1663ce5e11bf8b6001886106119190611127565b6040518363ffffffff1660e01b815260040161062e929190610fc8565b60206040518083038186803b15801561064657600080fd5b505afa15801561065a573d6000803e3d6000fd5b505050506040513d601f19601f8201168201806040525081019061067e9190610eb7565b9050888110156106a557600180866106969190611127565b975097505050505050506106c9565b6001856106b29190611127565b9250505b6103ed565b505050505b60008092509250505b9250929050565b60008060009054906101000a900473ffffffffffffffffffffffffffffffffffffffff1673ffffffffffffffffffffffffffffffffffffffff166377b03e0d836040518263ffffffff1660e01b815260040161072c9190610fad565b60206040518083038186803b15801561074457600080fd5b505afa158015610758573d6000803e3d6000fd5b505050506040513d601f19601f8201168201806040525081019061077c9190610eb7565b9050919050565b600060606000806000610796878761018c565b91509150816107c05760006040518060200160405280600081525060009450945094505050610976565b60008060009054906101000a900473ffffffffffffffffffffffffffffffffffffffff1673ffffffffffffffffffffffffffffffffffffffff1663ce5e11bf89846040518363ffffffff1660e01b815260040161081e929190610fc8565b60206040518083038186803b15801561083657600080fd5b505afa15801561084a573d6000803e3d6000fd5b505050506040513d601f19601f8201168201806040525081019061086e9190610eb7565b905060008054906101000a900473ffffffffffffffffffffffffffffffffffffffff1673ffffffffffffffffffffffffffffffffffffffff1663c5958af989836040518363ffffffff1660e01b81526004016108cb929190610fc8565b60006040518083038186803b1580156108e357600080fd5b505afa1580156108f7573d6000803e3d6000fd5b505050506040513d6000823e3d601f19601f820116820180604052508101906109209190610e76565b945060405180602001604052806000815250805190602001208580519060200120146109585760018582955095509550505050610976565b60006040518060200160405280600081525060009550955095505050505b9250925092565b6000606060008060008054906101000a900473ffffffffffffffffffffffffffffffffffffffff1673ffffffffffffffffffffffffffffffffffffffff166377b03e0d866040518263ffffffff1660e01b81526004016109dd9190610fad565b60206040518083038186803b1580156109f557600080fd5b505afa158015610a09573d6000803e3d6000fd5b505050506040513d601f19601f82011682018060405250810190610a2d9190610eb7565b905060008060009054906101000a900473ffffffffffffffffffffffffffffffffffffffff1673ffffffffffffffffffffffffffffffffffffffff1663ce5e11bf87600185610a7c9190611127565b6040518363ffffffff1660e01b8152600401610a99929190610fc8565b60206040518083038186803b158015610ab157600080fd5b505afa158015610ac5573d6000803e3d6000fd5b505050506040513d601f19601f82011682018060405250810190610ae99190610eb7565b905060008060009054906101000a900473ffffffffffffffffffffffffffffffffffffffff1673ffffffffffffffffffffffffffffffffffffffff1663c5958af988846040518363ffffffff1660e01b8152600401610b49929190610fc8565b60006040518083038186803b158015610b6157600080fd5b505afa158015610b75573d6000803e3d6000fd5b505050506040513d6000823e3d601f19601f82011682018060405250810190610b9e9190610e76565b90506040518060200160405280600081525080519060200120818051906020012014610bd65760018183955095509550505050610bf3565b600060405180602001604052806000815250839550955095505050505b9193909250565b606060008054906101000a900473ffffffffffffffffffffffffffffffffffffffff1673ffffffffffffffffffffffffffffffffffffffff1663c5958af984846040518363ffffffff1660e01b8152600401610c57929190610fc8565b60006040518083038186803b158015610c6f57600080fd5b505afa158015610c83573d6000803e3d6000fd5b505050506040513d6000823e3d601f19601f82011682018060405250810190610cac9190610e76565b905092915050565b60008060009054906101000a900473ffffffffffffffffffffffffffffffffffffffff1673ffffffffffffffffffffffffffffffffffffffff1663ce5e11bf84846040518363ffffffff1660e01b8152600401610d12929190610fc8565b60206040518083038186803b158015610d2a57600080fd5b505afa158015610d3e573d6000803e3d6000fd5b505050506040513d601f19601f82011682018060405250810190610d629190610eb7565b905092915050565b6000610d7d610d7884611053565b61102e565b905082815260208101848484011115610d9557600080fd5b610da084828561117b565b509392505050565b600081359050610db78161127d565b92915050565b600082601f830112610dce57600080fd5b8151610dde848260208601610d6a565b91505092915050565b600081359050610df681611294565b92915050565b600081519050610e0b81611294565b92915050565b600060208284031215610e2357600080fd5b6000610e3184828501610da8565b91505092915050565b60008060408385031215610e4d57600080fd5b6000610e5b85828601610da8565b9250506020610e6c85828601610de7565b9150509250929050565b600060208284031215610e8857600080fd5b600082015167ffffffffffffffff811115610ea257600080fd5b610eae84828501610dbd565b91505092915050565b600060208284031215610ec957600080fd5b6000610ed784828501610dfc565b91505092915050565b610ee98161115b565b82525050565b610ef881611167565b82525050565b6000610f0982611084565b610f13818561108f565b9350610f2381856020860161117b565b610f2c8161126c565b840191505092915050565b610f4081611171565b82525050565b6000606082019050610f5b6000830186610ee0565b8181036020830152610f6d8185610efe565b9050610f7c6040830184610f37565b949350505050565b6000604082019050610f996000830185610ee0565b610fa66020830184610f37565b9392505050565b6000602082019050610fc26000830184610eef565b92915050565b6000604082019050610fdd6000830185610eef565b610fea6020830184610f37565b9392505050565b6000602082019050818103600083015261100b8184610efe565b905092915050565b60006020820190506110286000830184610f37565b92915050565b6000611038611049565b905061104482826111ae565b919050565b6000604051905090565b600067ffffffffffffffff82111561106e5761106d61123d565b5b6110778261126c565b9050602081019050919050565b600081519050919050565b600082825260208201905092915050565b60006110ab82611171565b91506110b683611171565b9250827fffffffffffffffffffffffffffffffffffffffffffffffffffffffffffffffff038211156110eb576110ea6111df565b5b828201905092915050565b600061110182611171565b915061110c83611171565b92508261111c5761111b61120e565b5b828204905092915050565b600061113282611171565b915061113d83611171565b9250828210156111505761114f6111df565b5b828203905092915050565b60008115159050919050565b6000819050919050565b6000819050919050565b60005b8381101561119957808201518184015260208101905061117e565b838111156111a8576000848401525b50505050565b6111b78261126c565b810181811067ffffffffffffffff821117156111d6576111d561123d565b5b80604052505050565b7f4e487b7100000000000000000000000000000000000000000000000000000000600052601160045260246000fd5b7f4e487b7100000000000000000000000000000000000000000000000000000000600052601260045260246000fd5b7f4e487b7100000000000000000000000000000000000000000000000000000000600052604160045260246000fd5b6000601f19601f8301169050919050565b61128681611167565b811461129157600080fd5b50565b61129d81611171565b81146112a857600080fd5b5056fea264697066735822122067969698923f5344513c889bd5adbc284b4f90ac08e70059184d05eb583aa07064736f6c63430008030033",
  "linkReferences": {},
  "deployedLinkReferences": {}
}