{
  "_format": "hh-sol-artifact-1",
  "contractName": "UsingTellor",
  "sourceName": "contracts/UsingTellor.sol",
  "abi": [
    {
      "inputs": [
        {
          "internalType": "address payable",
          "name": "_tellor",
          "type": "address"
        }
      ],
      "stateMutability": "nonpayable",
      "type": "constructor"
    },
    {
      "inputs": [
        {
          "internalType": "bytes32",
          "name": "_queryId",
          "type": "bytes32"
        },
        {
          "internalType": "uint256",
          "name": "_timestamp",
          "type": "uint256"
        }
      ],
      "name": "getDataAfter",
      "outputs": [
        {
          "internalType": "bytes",
          "name": "_value",
          "type": "bytes"
        },
        {
          "internalType": "uint256",
          "name": "_timestampRetrieved",
          "type": "uint256"
        }
      ],
      "stateMutability": "view",
      "type": "function"
    },
    {
      "inputs": [
        {
          "internalType": "bytes32",
          "name": "_queryId",
          "type": "bytes32"
        },
        {
          "internalType": "uint256",
          "name": "_timestamp",
          "type": "uint256"
        }
      ],
      "name": "getDataBefore",
      "outputs": [
        {
          "internalType": "bytes",
          "name": "_value",
          "type": "bytes"
        },
        {
          "internalType": "uint256",
          "name": "_timestampRetrieved",
          "type": "uint256"
        }
      ],
      "stateMutability": "view",
      "type": "function"
    },
    {
      "inputs": [
        {
          "internalType": "bytes32",
          "name": "_queryId",
          "type": "bytes32"
        },
        {
          "internalType": "uint256",
          "name": "_timestamp",
          "type": "uint256"
        }
      ],
      "name": "getIndexForDataAfter",
      "outputs": [
        {
          "internalType": "bool",
          "name": "_found",
          "type": "bool"
        },
        {
          "internalType": "uint256",
          "name": "_index",
          "type": "uint256"
        }
      ],
      "stateMutability": "view",
      "type": "function"
    },
    {
      "inputs": [
        {
          "internalType": "bytes32",
          "name": "_queryId",
          "type": "bytes32"
        },
        {
          "internalType": "uint256",
          "name": "_timestamp",
          "type": "uint256"
        }
      ],
      "name": "getIndexForDataBefore",
      "outputs": [
        {
          "internalType": "bool",
          "name": "_found",
          "type": "bool"
        },
        {
          "internalType": "uint256",
          "name": "_index",
          "type": "uint256"
        }
      ],
      "stateMutability": "view",
      "type": "function"
    },
    {
      "inputs": [
        {
          "internalType": "bytes32",
          "name": "_queryId",
          "type": "bytes32"
        },
        {
          "internalType": "uint256",
          "name": "_timestamp",
          "type": "uint256"
        },
        {
          "internalType": "uint256",
          "name": "_maxAge",
          "type": "uint256"
        },
        {
          "internalType": "uint256",
          "name": "_maxCount",
          "type": "uint256"
        }
      ],
      "name": "getMultipleValuesBefore",
      "outputs": [
        {
          "internalType": "bytes[]",
          "name": "_values",
          "type": "bytes[]"
        },
        {
          "internalType": "uint256[]",
          "name": "_timestamps",
          "type": "uint256[]"
        }
      ],
      "stateMutability": "view",
      "type": "function"
    },
    {
      "inputs": [
        {
          "internalType": "bytes32",
          "name": "_queryId",
          "type": "bytes32"
        }
      ],
      "name": "getNewValueCountbyQueryId",
      "outputs": [
        {
          "internalType": "uint256",
          "name": "",
          "type": "uint256"
        }
      ],
      "stateMutability": "view",
      "type": "function"
    },
    {
      "inputs": [
        {
          "internalType": "bytes32",
          "name": "_queryId",
          "type": "bytes32"
        },
        {
          "internalType": "uint256",
          "name": "_timestamp",
          "type": "uint256"
        }
      ],
      "name": "getReporterByTimestamp",
      "outputs": [
        {
          "internalType": "address",
          "name": "",
          "type": "address"
        }
      ],
      "stateMutability": "view",
      "type": "function"
    },
    {
      "inputs": [
        {
          "internalType": "bytes32",
          "name": "_queryId",
          "type": "bytes32"
        },
        {
          "internalType": "uint256",
          "name": "_index",
          "type": "uint256"
        }
      ],
      "name": "getTimestampbyQueryIdandIndex",
      "outputs": [
        {
          "internalType": "uint256",
          "name": "",
          "type": "uint256"
        }
      ],
      "stateMutability": "view",
      "type": "function"
    },
    {
      "inputs": [],
      "name": "idMappingContract",
      "outputs": [
        {
          "internalType": "contract IMappingContract",
          "name": "",
          "type": "address"
        }
      ],
      "stateMutability": "view",
      "type": "function"
    },
    {
      "inputs": [
        {
          "internalType": "bytes32",
          "name": "_queryId",
          "type": "bytes32"
        },
        {
          "internalType": "uint256",
          "name": "_timestamp",
          "type": "uint256"
        }
      ],
      "name": "isInDispute",
      "outputs": [
        {
          "internalType": "bool",
          "name": "",
          "type": "bool"
        }
      ],
      "stateMutability": "view",
      "type": "function"
    },
    {
      "inputs": [
        {
          "internalType": "bytes32",
          "name": "_queryId",
          "type": "bytes32"
        },
        {
          "internalType": "uint256",
          "name": "_timestamp",
          "type": "uint256"
        }
      ],
      "name": "retrieveData",
      "outputs": [
        {
          "internalType": "bytes",
          "name": "",
          "type": "bytes"
        }
      ],
      "stateMutability": "view",
      "type": "function"
    },
    {
      "inputs": [
        {
          "internalType": "address",
          "name": "_addy",
          "type": "address"
        }
      ],
      "name": "setIdMappingContract",
      "outputs": [],
      "stateMutability": "nonpayable",
      "type": "function"
    },
    {
      "inputs": [],
      "name": "tellor",
      "outputs": [
        {
          "internalType": "contract ITellor",
          "name": "",
          "type": "address"
        }
      ],
      "stateMutability": "view",
      "type": "function"
    },
    {
      "inputs": [
        {
          "internalType": "bytes32",
          "name": "_id",
          "type": "bytes32"
        }
      ],
      "name": "valueFor",
      "outputs": [
        {
          "internalType": "int256",
          "name": "_value",
          "type": "int256"
        },
        {
          "internalType": "uint256",
          "name": "_timestamp",
          "type": "uint256"
        },
        {
          "internalType": "uint256",
          "name": "_statusCode",
          "type": "uint256"
        }
      ],
      "stateMutability": "view",
      "type": "function"
    }
  ],
  "bytecode": "0x60806040523480156200001157600080fd5b5060405162001fe538038062001fe5833981810160405281019062000037919062000095565b806000806101000a81548173ffffffffffffffffffffffffffffffffffffffff021916908373ffffffffffffffffffffffffffffffffffffffff160217905550506200010f565b6000815190506200008f81620000f5565b92915050565b600060208284031215620000a857600080fd5b6000620000b8848285016200007e565b91505092915050565b6000620000ce82620000d5565b9050919050565b600073ffffffffffffffffffffffffffffffffffffffff82169050919050565b6200010081620000c1565b81146200010c57600080fd5b50565b611ec6806200011f6000396000f3fe608060405234801561001057600080fd5b50600436106100ea5760003560e01c8063a792765f1161008c578063e07c548611610066578063e07c54861461029a578063f66f49c3146102ca578063f78eea83146102fb578063fcd4a5461461032d576100ea565b8063a792765f14610209578063c5958af91461023a578063ce5e11bf1461026a576100ea565b80632af8aae0116100c85780632af8aae01461015a57806344e87f911461017857806364ee3c6d146101a857806377b03e0d146101d9576100ea565b8063193b505b146100ef5780631959ad5b1461010b5780632944908514610129575b600080fd5b610109600480360381019061010491906113fb565b61035e565b005b6101136103fd565b60405161012091906119a4565b60405180910390f35b610143600480360381019061013e919061156b565b610421565b6040516101519291906118ca565b60405180910390f35b6101626104d9565b60405161016f9190611989565b60405180910390f35b610192600480360381019061018d919061156b565b6104ff565b60405161019f91906118af565b60405180910390f35b6101c260048036038101906101bd919061156b565b6105b5565b6040516101d0929190611959565b60405180910390f35b6101f360048036038101906101ee9190611519565b61060f565b60405161020091906119f6565b60405180910390f35b610223600480360381019061021e919061156b565b6106c2565b604051610231929190611959565b60405180910390f35b610254600480360381019061024f919061156b565b610789565b6040516102619190611937565b60405180910390f35b610284600480360381019061027f919061156b565b610843565b60405161029191906119f6565b60405180910390f35b6102b460048036038101906102af919061156b565b6108f9565b6040516102c1919061185d565b60405180910390f35b6102e460048036038101906102df919061156b565b6109af565b6040516102f29291906118ca565b60405180910390f35b61031560048036038101906103109190611519565b610b94565b604051610324939291906119bf565b60405180910390f35b610347600480360381019061034291906115a7565b610cd6565b604051610355929190611878565b60405180910390f35b600073ffffffffffffffffffffffffffffffffffffffff16600160009054906101000a900473ffffffffffffffffffffffffffffffffffffffff1673ffffffffffffffffffffffffffffffffffffffff16146103b957600080fd5b80600160006101000a81548173ffffffffffffffffffffffffffffffffffffffff021916908373ffffffffffffffffffffffffffffffffffffffff16021790555050565b60008054906101000a900473ffffffffffffffffffffffffffffffffffffffff1681565b60008060008054906101000a900473ffffffffffffffffffffffffffffffffffffffff1673ffffffffffffffffffffffffffffffffffffffff16632944908585856040518363ffffffff1660e01b815260040161047f92919061190e565b604080518083038186803b15801561049657600080fd5b505afa1580156104aa573d6000803e3d6000fd5b505050506040513d601f19601f820116820180604052508101906104ce91906114dd565b915091509250929050565b600160009054906101000a900473ffffffffffffffffffffffffffffffffffffffff1681565b60008060009054906101000a900473ffffffffffffffffffffffffffffffffffffffff1673ffffffffffffffffffffffffffffffffffffffff166344e87f9184846040518363ffffffff1660e01b815260040161055d92919061190e565b60206040518083038186803b15801561057557600080fd5b505afa158015610589573d6000803e3d6000fd5b505050506040513d601f19601f820116820180604052508101906105ad919061144d565b905092915050565b606060008060006105c686866109af565b91509150816105ed5760006040518060200160405280600081525090935093505050610608565b6105f78682610843565b92506106038684610789565b935050505b9250929050565b60008060009054906101000a900473ffffffffffffffffffffffffffffffffffffffff1673ffffffffffffffffffffffffffffffffffffffff166377b03e0d836040518263ffffffff1660e01b815260040161066b91906118f3565b60206040518083038186803b15801561068357600080fd5b505afa158015610697573d6000803e3d6000fd5b505050506040513d601f19601f820116820180604052508101906106bb919061164b565b9050919050565b606060008060009054906101000a900473ffffffffffffffffffffffffffffffffffffffff1673ffffffffffffffffffffffffffffffffffffffff1663a792765f85856040518363ffffffff1660e01b815260040161072292919061190e565b60006040518083038186803b15801561073a57600080fd5b505afa15801561074e573d6000803e3d6000fd5b505050506040513d6000823e3d601f19601f820116820180604052508101906107779190611476565b90915080925081935050509250929050565b606060008054906101000a900473ffffffffffffffffffffffffffffffffffffffff1673ffffffffffffffffffffffffffffffffffffffff1663c5958af984846040518363ffffffff1660e01b81526004016107e692919061190e565b60006040518083038186803b1580156107fe57600080fd5b505afa158015610812573d6000803e3d6000fd5b505050506040513d6000823e3d601f19601f8201168201806040525081019061083b919061160a565b905092915050565b60008060009054906101000a900473ffffffffffffffffffffffffffffffffffffffff1673ffffffffffffffffffffffffffffffffffffffff1663ce5e11bf84846040518363ffffffff1660e01b81526004016108a192919061190e565b60206040518083038186803b1580156108b957600080fd5b505afa1580156108cd573d6000803e3d6000fd5b505050506040513d601f19601f820116820180604052508101906108f1919061164b565b905092915050565b60008060009054906101000a900473ffffffffffffffffffffffffffffffffffffffff1673ffffffffffffffffffffffffffffffffffffffff1663e07c548684846040518363ffffffff1660e01b815260040161095792919061190e565b60206040518083038186803b15801561096f57600080fd5b505afa158015610983573d6000803e3d6000fd5b505050506040513d601f19601f820116820180604052508101906109a79190611424565b905092915050565b60008060006109bd8561060f565b905060008114156109d5576000809250925050610b8d565b80806109e090611cf2565b915050600060019050600080600084905060006109fd8a83610843565b9050888111610a185760008097509750505050505050610b8d565b610a228a84610843565b905088811115610a3157600094505b5b8415610af95760028383610a469190611b06565b610a509190611b5c565b9350610a5c8a85610843565b905088811115610aa6576000610a7e8b600187610a799190611be7565b610843565b9050898111610a905760009550610aa0565b600185610a9d9190611be7565b92505b50610af4565b6000610abe8b600187610ab99190611b06565b610843565b905089811115610ae257600095508480610ad790611d4d565b955050809150610af2565b600185610aef9190611b06565b93505b505b610a32565b610b038a826104ff565b610b195760018497509750505050505050610b8d565b5b610b248a826104ff565b8015610b2f57508584105b15610b53578380610b3f90611d4d565b945050610b4c8a85610843565b9050610b1a565b8584148015610b685750610b678a826104ff565b5b15610b7f5760008097509750505050505050610b8d565b600184975097505050505050505b9250929050565b6000806000600160009054906101000a900473ffffffffffffffffffffffffffffffffffffffff1673ffffffffffffffffffffffffffffffffffffffff166387a475fd856040518263ffffffff1660e01b8152600401610bf491906118f3565b60206040518083038186803b158015610c0c57600080fd5b505afa158015610c20573d6000803e3d6000fd5b505050506040513d601f19601f82011682018060405250810190610c449190611542565b93506000610c518561060f565b90506000811415610c6e5760008061019493509350935050610ccf565b610c8485600183610c7f9190611be7565b610843565b92506000610c928685610789565b9050600081511415610cb1576000806101949450945094505050610ccf565b6000610cbc82611272565b9050809550858560c89550955095505050505b9193909250565b606080600080610cf1888789610cec9190611be7565b6109af565b9150915081610dea57600067ffffffffffffffff811115610d3b577f4e487b7100000000000000000000000000000000000000000000000000000000600052604160045260246000fd5b604051908082528060200260200182016040528015610d6e57816020015b6060815260200190600190039081610d595790505b50600067ffffffffffffffff811115610db0577f4e487b7100000000000000000000000000000000000000000000000000000000600052604160045260246000fd5b604051908082528060200260200182016040528015610dde5781602001602082028036833780820191505090505b50935093505050611269565b6000610df68989610421565b809250819450505082610ef457600067ffffffffffffffff811115610e44577f4e487b7100000000000000000000000000000000000000000000000000000000600052604160045260246000fd5b604051908082528060200260200182016040528015610e7757816020015b6060815260200190600190039081610e625790505b50600067ffffffffffffffff811115610eb9577f4e487b7100000000000000000000000000000000000000000000000000000000600052604160045260246000fd5b604051908082528060200260200182016040528015610ee75781602001602082028036833780820191505090505b5094509450505050611269565b60008060008867ffffffffffffffff811115610f39577f4e487b7100000000000000000000000000000000000000000000000000000000600052604160045260246000fd5b604051908082528060200260200182016040528015610f675781602001602082028036833780820191505090505b5090505b8883108015610f9057508482600186610f849190611b06565b610f8e9190611be7565b115b15611025576000610fac8d8487610fa79190611be7565b610843565b9050610fb88d826104ff565b6110115780828581518110610ff6577f4e487b7100000000000000000000000000000000000000000000000000000000600052603260045260246000fd5b602002602001018181525050838061100d90611d4d565b9450505b828061101c90611d4d565b93505050610f6b565b60008367ffffffffffffffff811115611067577f4e487b7100000000000000000000000000000000000000000000000000000000600052604160045260246000fd5b60405190808252806020026020018201604052801561109a57816020015b60608152602001906001900390816110855790505b50905060008467ffffffffffffffff8111156110df577f4e487b7100000000000000000000000000000000000000000000000000000000600052604160045260246000fd5b60405190808252806020026020018201604052801561110d5781602001602082028036833780820191505090505b50905060005b8581101561125957838160018861112a9190611be7565b6111349190611be7565b8151811061116b577f4e487b7100000000000000000000000000000000000000000000000000000000600052603260045260246000fd5b60200260200101518282815181106111ac577f4e487b7100000000000000000000000000000000000000000000000000000000600052603260045260246000fd5b6020026020010181815250506112028f8383815181106111f5577f4e487b7100000000000000000000000000000000000000000000000000000000600052603260045260246000fd5b6020026020010151610789565b83828151811061123b577f4e487b7100000000000000000000000000000000000000000000000000000000600052603260045260246000fd5b6020026020010181905250808061125190611d4d565b915050611113565b5081819950995050505050505050505b94509492505050565b600080600090505b82518110156112fa578281815181106112bc577f4e487b7100000000000000000000000000000000000000000000000000000000600052603260045260246000fd5b602001015160f81c60f81b60f81c60ff16610100836112db9190611b8d565b6112e59190611b06565b915080806112f290611d4d565b91505061127a565b50919050565b600061131361130e84611a36565b611a11565b90508281526020810184848401111561132b57600080fd5b611336848285611cbf565b509392505050565b60008135905061134d81611e34565b92915050565b60008151905061136281611e34565b92915050565b60008151905061137781611e4b565b92915050565b60008135905061138c81611e62565b92915050565b6000815190506113a181611e62565b92915050565b600082601f8301126113b857600080fd5b81516113c8848260208601611300565b91505092915050565b6000813590506113e081611e79565b92915050565b6000815190506113f581611e79565b92915050565b60006020828403121561140d57600080fd5b600061141b8482850161133e565b91505092915050565b60006020828403121561143657600080fd5b600061144484828501611353565b91505092915050565b60006020828403121561145f57600080fd5b600061146d84828501611368565b91505092915050565b60008060006060848603121561148b57600080fd5b600061149986828701611368565b935050602084015167ffffffffffffffff8111156114b657600080fd5b6114c2868287016113a7565b92505060406114d3868287016113e6565b9150509250925092565b600080604083850312156114f057600080fd5b60006114fe85828601611368565b925050602061150f858286016113e6565b9150509250929050565b60006020828403121561152b57600080fd5b60006115398482850161137d565b91505092915050565b60006020828403121561155457600080fd5b600061156284828501611392565b91505092915050565b6000806040838503121561157e57600080fd5b600061158c8582860161137d565b925050602061159d858286016113d1565b9150509250929050565b600080600080608085870312156115bd57600080fd5b60006115cb8782880161137d565b94505060206115dc878288016113d1565b93505060406115ed878288016113d1565b92505060606115fe878288016113d1565b91505092959194509250565b60006020828403121561161c57600080fd5b600082015167ffffffffffffffff81111561163657600080fd5b611642848285016113a7565b91505092915050565b60006020828403121561165d57600080fd5b600061166b848285016113e6565b91505092915050565b600061168083836117a0565b905092915050565b6000611694838361183f565b60208301905092915050565b6116a981611c1b565b82525050565b60006116ba82611a87565b6116c48185611ac2565b9350836020820285016116d685611a67565b8060005b8581101561171257848403895281516116f38582611674565b94506116fe83611aa8565b925060208a019950506001810190506116da565b50829750879550505050505092915050565b600061172f82611a92565b6117398185611ad3565b935061174483611a77565b8060005b8381101561177557815161175c8882611688565b975061176783611ab5565b925050600181019050611748565b5085935050505092915050565b61178b81611c2d565b82525050565b61179a81611c39565b82525050565b60006117ab82611a9d565b6117b58185611ae4565b93506117c5818560208601611cbf565b6117ce81611e23565b840191505092915050565b60006117e482611a9d565b6117ee8185611af5565b93506117fe818560208601611cbf565b61180781611e23565b840191505092915050565b61181b81611c77565b82525050565b61182a81611c9b565b82525050565b61183981611c43565b82525050565b61184881611c6d565b82525050565b61185781611c6d565b82525050565b600060208201905061187260008301846116a0565b92915050565b6000604082019050818103600083015261189281856116af565b905081810360208301526118a68184611724565b90509392505050565b60006020820190506118c46000830184611782565b92915050565b60006040820190506118df6000830185611782565b6118ec602083018461184e565b9392505050565b60006020820190506119086000830184611791565b92915050565b60006040820190506119236000830185611791565b611930602083018461184e565b9392505050565b6000602082019050818103600083015261195181846117d9565b905092915050565b6000604082019050818103600083015261197381856117d9565b9050611982602083018461184e565b9392505050565b600060208201905061199e6000830184611812565b92915050565b60006020820190506119b96000830184611821565b92915050565b60006060820190506119d46000830186611830565b6119e1602083018561184e565b6119ee604083018461184e565b949350505050565b6000602082019050611a0b600083018461184e565b92915050565b6000611a1b611a2c565b9050611a278282611d1c565b919050565b6000604051905090565b600067ffffffffffffffff821115611a5157611a50611df4565b5b611a5a82611e23565b9050602081019050919050565b6000819050602082019050919050565b6000819050602082019050919050565b600081519050919050565b600081519050919050565b600081519050919050565b6000602082019050919050565b6000602082019050919050565b600082825260208201905092915050565b600082825260208201905092915050565b600082825260208201905092915050565b600082825260208201905092915050565b6000611b1182611c6d565b9150611b1c83611c6d565b9250827fffffffffffffffffffffffffffffffffffffffffffffffffffffffffffffffff03821115611b5157611b50611d96565b5b828201905092915050565b6000611b6782611c6d565b9150611b7283611c6d565b925082611b8257611b81611dc5565b5b828204905092915050565b6000611b9882611c6d565b9150611ba383611c6d565b9250817fffffffffffffffffffffffffffffffffffffffffffffffffffffffffffffffff0483118215151615611bdc57611bdb611d96565b5b828202905092915050565b6000611bf282611c6d565b9150611bfd83611c6d565b925082821015611c1057611c0f611d96565b5b828203905092915050565b6000611c2682611c4d565b9050919050565b60008115159050919050565b6000819050919050565b6000819050919050565b600073ffffffffffffffffffffffffffffffffffffffff82169050919050565b6000819050919050565b6000611c8282611c89565b9050919050565b6000611c9482611c4d565b9050919050565b6000611ca682611cad565b9050919050565b6000611cb882611c4d565b9050919050565b60005b83811015611cdd578082015181840152602081019050611cc2565b83811115611cec576000848401525b50505050565b6000611cfd82611c6d565b91506000821415611d1157611d10611d96565b5b600182039050919050565b611d2582611e23565b810181811067ffffffffffffffff82111715611d4457611d43611df4565b5b80604052505050565b6000611d5882611c6d565b91507fffffffffffffffffffffffffffffffffffffffffffffffffffffffffffffffff821415611d8b57611d8a611d96565b5b600182019050919050565b7f4e487b7100000000000000000000000000000000000000000000000000000000600052601160045260246000fd5b7f4e487b7100000000000000000000000000000000000000000000000000000000600052601260045260246000fd5b7f4e487b7100000000000000000000000000000000000000000000000000000000600052604160045260246000fd5b6000601f19601f8301169050919050565b611e3d81611c1b565b8114611e4857600080fd5b50565b611e5481611c2d565b8114611e5f57600080fd5b50565b611e6b81611c39565b8114611e7657600080fd5b50565b611e8281611c6d565b8114611e8d57600080fd5b5056fea264697066735822122068db85cb09f82d4a3342150f73686fd9d0705da7b7b145a15dd3e0285761395064736f6c63430008030033",
  "linkReferences": {},
  "deployedLinkReferences": {}
}