{
  "_format": "hh-sol-artifact-1",
  "contractName": "UsingTellor",
  "sourceName": "contracts/UsingTellor.sol",
  "abi": [
    {
      "inputs": [
        {
          "internalType": "address payable",
          "name": "_tellor",
          "type": "address"
        }
      ],
      "stateMutability": "nonpayable",
      "type": "constructor"
    },
    {
      "inputs": [
        {
          "internalType": "bytes32",
          "name": "_queryId",
          "type": "bytes32"
        }
      ],
      "name": "getCurrentValue",
      "outputs": [
        {
          "internalType": "bool",
          "name": "_ifRetrieve",
          "type": "bool"
        },
        {
          "internalType": "bytes",
          "name": "_value",
          "type": "bytes"
        },
        {
          "internalType": "uint256",
          "name": "_timestampRetrieved",
          "type": "uint256"
        }
      ],
      "stateMutability": "view",
      "type": "function"
    },
    {
      "inputs": [
        {
          "internalType": "bytes32",
          "name": "_queryId",
          "type": "bytes32"
        },
        {
          "internalType": "uint256",
          "name": "_timestamp",
          "type": "uint256"
        }
      ],
      "name": "getDataBefore",
      "outputs": [
        {
          "internalType": "bool",
          "name": "_ifRetrieve",
          "type": "bool"
        },
        {
          "internalType": "bytes",
          "name": "_value",
          "type": "bytes"
        },
        {
          "internalType": "uint256",
          "name": "_timestampRetrieved",
          "type": "uint256"
        }
      ],
      "stateMutability": "view",
      "type": "function"
    },
    {
      "inputs": [
        {
          "internalType": "bytes32",
          "name": "_queryId",
          "type": "bytes32"
        },
        {
          "internalType": "uint256",
          "name": "_timestamp",
          "type": "uint256"
        }
      ],
      "name": "getIndexForDataBefore",
      "outputs": [
        {
          "internalType": "bool",
          "name": "_found",
          "type": "bool"
        },
        {
          "internalType": "uint256",
          "name": "_index",
          "type": "uint256"
        }
      ],
      "stateMutability": "view",
      "type": "function"
    },
    {
      "inputs": [
        {
          "internalType": "bytes32",
          "name": "_queryId",
          "type": "bytes32"
        }
      ],
      "name": "getNewValueCountbyQueryId",
      "outputs": [
        {
          "internalType": "uint256",
          "name": "",
          "type": "uint256"
        }
      ],
      "stateMutability": "view",
      "type": "function"
    },
    {
      "inputs": [
        {
          "internalType": "bytes32",
          "name": "_queryId",
          "type": "bytes32"
        },
        {
          "internalType": "uint256",
          "name": "_index",
          "type": "uint256"
        }
      ],
      "name": "getTimestampbyQueryIdandIndex",
      "outputs": [
        {
          "internalType": "uint256",
          "name": "",
          "type": "uint256"
        }
      ],
      "stateMutability": "view",
      "type": "function"
    },
    {
      "inputs": [
        {
          "internalType": "bytes32",
          "name": "_queryId",
          "type": "bytes32"
        },
        {
          "internalType": "uint256",
          "name": "_timestamp",
          "type": "uint256"
        }
      ],
      "name": "isInDispute",
      "outputs": [
        {
          "internalType": "bool",
          "name": "",
          "type": "bool"
        }
      ],
      "stateMutability": "view",
      "type": "function"
    },
    {
      "inputs": [
        {
          "internalType": "bytes32",
          "name": "_queryId",
          "type": "bytes32"
        },
        {
          "internalType": "uint256",
          "name": "_timestamp",
          "type": "uint256"
        }
      ],
      "name": "retrieveData",
      "outputs": [
        {
          "internalType": "bytes",
          "name": "",
          "type": "bytes"
        }
      ],
      "stateMutability": "view",
      "type": "function"
    },
    {
      "inputs": [],
      "name": "tellor",
      "outputs": [
        {
          "internalType": "contract ITellor",
          "name": "",
          "type": "address"
        }
      ],
      "stateMutability": "view",
      "type": "function"
    }
  ],
  "bytecode": "0x60806040523480156200001157600080fd5b506040516200181238038062001812833981810160405281019062000037919062000095565b806000806101000a81548173ffffffffffffffffffffffffffffffffffffffff021916908373ffffffffffffffffffffffffffffffffffffffff160217905550506200010f565b6000815190506200008f81620000f5565b92915050565b600060208284031215620000a857600080fd5b6000620000b8848285016200007e565b91505092915050565b6000620000ce82620000d5565b9050919050565b600073ffffffffffffffffffffffffffffffffffffffff82169050919050565b6200010081620000c1565b81146200010c57600080fd5b50565b6116f3806200011f6000396000f3fe608060405234801561001057600080fd5b50600436106100885760003560e01c8063a792765f1161005b578063a792765f1461013c578063adf1639d1461016e578063c5958af9146101a0578063ce5e11bf146101d057610088565b80631959ad5b1461008d57806329449085146100ab57806344e87f91146100dc57806377b03e0d1461010c575b600080fd5b610095610200565b6040516100a29190611311565b60405180910390f35b6100c560048036038101906100c091906110a5565b610224565b6040516100d3929190611282565b60405180910390f35b6100f660048036038101906100f191906110a5565b61039f565b6040516101039190611229565b60405180910390f35b6101266004803603810190610121919061107c565b6106a2565b6040516101339190611347565b60405180910390f35b610156600480360381019061015191906110a5565b6108d7565b60405161016593929190611244565b60405180910390f35b6101886004803603810190610183919061107c565b610989565b60405161019793929190611244565b60405180910390f35b6101ba60048036038101906101b591906110a5565b610a42565b6040516101c791906112ef565b60405180910390f35b6101ea60048036038101906101e591906110a5565b610c86565b6040516101f79190611347565b60405180910390f35b60008054906101000a900473ffffffffffffffffffffffffffffffffffffffff1681565b6000806000610232856106a2565b9050600081111561038f576000806000905060006001846102539190611487565b905060006102618984610c86565b905087811061027b57600080965096505050505050610398565b6102858983610c86565b9050878110156102a057600182965096505050505050610398565b5b60011561038a57826001600285856102b99190611487565b6102c39190611456565b6102cd9190611400565b6102d79190611400565b93506102e38985610c86565b9050878110156103355760006103058a6001876103009190611400565b610c86565b90508881106103205760018597509750505050505050610398565b60018561032d9190611400565b935050610385565b600061034d8a6001876103489190611487565b610c86565b90508881101561037457600180866103659190611487565b97509750505050505050610398565b6001856103819190611487565b9250505b6102a1565b505050505b60008092509250505b9250929050565b6000807318431fd88adf138e8b979a7246eb58ea7126ea1673ffffffffffffffffffffffffffffffffffffffff1660008054906101000a900473ffffffffffffffffffffffffffffffffffffffff1673ffffffffffffffffffffffffffffffffffffffff16148061046f575073e8218cacb0a5421bc6409e498d9f8cc8869945ea73ffffffffffffffffffffffffffffffffffffffff1660008054906101000a900473ffffffffffffffffffffffffffffffffffffffff1673ffffffffffffffffffffffffffffffffffffffff16145b1561053e5760007388df592f8eb5d7bd38bfef7deb0fbc02cf3778a090508073ffffffffffffffffffffffffffffffffffffffff1663699f200f7fefa19baa864049f50491093580c5433e97e8d5e41f8db1a61108b4fa44cacd936040518263ffffffff1660e01b81526004016104e6919061132c565b60206040518083038186803b1580156104fe57600080fd5b505afa158015610512573d6000803e3d6000fd5b505050506040513d601f19601f820116820180604052508101906105369190611012565b9150506105df565b60008054906101000a900473ffffffffffffffffffffffffffffffffffffffff1673ffffffffffffffffffffffffffffffffffffffff16635aa6e6756040518163ffffffff1660e01b815260040160206040518083038186803b1580156105a457600080fd5b505afa1580156105b8573d6000803e3d6000fd5b505050506040513d601f19601f820116820180604052508101906105dc9190611012565b90505b60008173ffffffffffffffffffffffffffffffffffffffff1663248638e586866040516020016106109291906111fd565b604051602081830303815290604052805190602001206040518263ffffffff1660e01b815260040161064291906112ab565b60006040518083038186803b15801561065a57600080fd5b505afa15801561066e573d6000803e3d6000fd5b505050506040513d6000823e3d601f19601f82011682018060405250810190610697919061103b565b511191505092915050565b60007318431fd88adf138e8b979a7246eb58ea7126ea1673ffffffffffffffffffffffffffffffffffffffff1660008054906101000a900473ffffffffffffffffffffffffffffffffffffffff1673ffffffffffffffffffffffffffffffffffffffff161480610771575073e8218cacb0a5421bc6409e498d9f8cc8869945ea73ffffffffffffffffffffffffffffffffffffffff1660008054906101000a900473ffffffffffffffffffffffffffffffffffffffff1673ffffffffffffffffffffffffffffffffffffffff16145b156108265760008054906101000a900473ffffffffffffffffffffffffffffffffffffffff1673ffffffffffffffffffffffffffffffffffffffff166335e72432836040518263ffffffff1660e01b81526004016107cf91906112ab565b60206040518083038186803b1580156107e757600080fd5b505afa1580156107fb573d6000803e3d6000fd5b505050506040513d601f19601f8201168201806040525081019061081f9190611122565b90506108d2565b60008054906101000a900473ffffffffffffffffffffffffffffffffffffffff1673ffffffffffffffffffffffffffffffffffffffff166377b03e0d836040518263ffffffff1660e01b815260040161087f91906112ab565b60206040518083038186803b15801561089757600080fd5b505afa1580156108ab573d6000803e3d6000fd5b505050506040513d601f19601f820116820180604052508101906108cf9190611122565b90505b919050565b6000606060008060006108ea8787610224565b91509150816109145760006040518060200160405280600081525060009450945094505050610982565b60006109208883610c86565b905061092c8882610a42565b945060405180602001604052806000815250805190602001208580519060200120146109645760018582955095509550505050610982565b60006040518060200160405280600081525060009550955095505050505b9250925092565b60006060600080610999856106a2565b905060008114156109c457600060405180602001604052806000815250600093509350935050610a3b565b60006109dc866001846109d79190611487565b610c86565b90506109e88682610a42565b93506040518060200160405280600081525080519060200120848051906020012014610a1f57600184829450945094505050610a3b565b6000604051806020016040528060008152508294509450945050505b9193909250565b60607318431fd88adf138e8b979a7246eb58ea7126ea1673ffffffffffffffffffffffffffffffffffffffff1660008054906101000a900473ffffffffffffffffffffffffffffffffffffffff1673ffffffffffffffffffffffffffffffffffffffff161480610b11575073e8218cacb0a5421bc6409e498d9f8cc8869945ea73ffffffffffffffffffffffffffffffffffffffff1660008054906101000a900473ffffffffffffffffffffffffffffffffffffffff1673ffffffffffffffffffffffffffffffffffffffff16145b15610bcd5760008054906101000a900473ffffffffffffffffffffffffffffffffffffffff1673ffffffffffffffffffffffffffffffffffffffff16630b2d2b0d84846040518363ffffffff1660e01b8152600401610b719291906112c6565b60006040518083038186803b158015610b8957600080fd5b505afa158015610b9d573d6000803e3d6000fd5b505050506040513d6000823e3d601f19601f82011682018060405250810190610bc691906110e1565b9050610c80565b60008054906101000a900473ffffffffffffffffffffffffffffffffffffffff1673ffffffffffffffffffffffffffffffffffffffff1663c5958af984846040518363ffffffff1660e01b8152600401610c289291906112c6565b60006040518083038186803b158015610c4057600080fd5b505afa158015610c54573d6000803e3d6000fd5b505050506040513d6000823e3d601f19601f82011682018060405250810190610c7d91906110e1565b90505b92915050565b60007318431fd88adf138e8b979a7246eb58ea7126ea1673ffffffffffffffffffffffffffffffffffffffff1660008054906101000a900473ffffffffffffffffffffffffffffffffffffffff1673ffffffffffffffffffffffffffffffffffffffff161480610d55575073e8218cacb0a5421bc6409e498d9f8cc8869945ea73ffffffffffffffffffffffffffffffffffffffff1660008054906101000a900473ffffffffffffffffffffffffffffffffffffffff1673ffffffffffffffffffffffffffffffffffffffff16145b15610e0c5760008054906101000a900473ffffffffffffffffffffffffffffffffffffffff1673ffffffffffffffffffffffffffffffffffffffff16637c37b8b484846040518363ffffffff1660e01b8152600401610db59291906112c6565b60206040518083038186803b158015610dcd57600080fd5b505afa158015610de1573d6000803e3d6000fd5b505050506040513d601f19601f82011682018060405250810190610e059190611122565b9050610eba565b60008054906101000a900473ffffffffffffffffffffffffffffffffffffffff1673ffffffffffffffffffffffffffffffffffffffff1663ce5e11bf84846040518363ffffffff1660e01b8152600401610e679291906112c6565b60206040518083038186803b158015610e7f57600080fd5b505afa158015610e93573d6000803e3d6000fd5b505050506040513d601f19601f82011682018060405250810190610eb79190611122565b90505b92915050565b6000610ed3610ece84611387565b611362565b90508083825260208201905082856020860282011115610ef257600080fd5b60005b85811015610f225781610f088882610ffd565b845260208401935060208301925050600181019050610ef5565b5050509392505050565b6000610f3f610f3a846113b3565b611362565b905082815260208101848484011115610f5757600080fd5b610f62848285611555565b509392505050565b600081519050610f7981611678565b92915050565b600082601f830112610f9057600080fd5b8151610fa0848260208601610ec0565b91505092915050565b600081359050610fb88161168f565b92915050565b600082601f830112610fcf57600080fd5b8151610fdf848260208601610f2c565b91505092915050565b600081359050610ff7816116a6565b92915050565b60008151905061100c816116a6565b92915050565b60006020828403121561102457600080fd5b600061103284828501610f6a565b91505092915050565b60006020828403121561104d57600080fd5b600082015167ffffffffffffffff81111561106757600080fd5b61107384828501610f7f565b91505092915050565b60006020828403121561108e57600080fd5b600061109c84828501610fa9565b91505092915050565b600080604083850312156110b857600080fd5b60006110c685828601610fa9565b92505060206110d785828601610fe8565b9150509250929050565b6000602082840312156110f357600080fd5b600082015167ffffffffffffffff81111561110d57600080fd5b61111984828501610fbe565b91505092915050565b60006020828403121561113457600080fd5b600061114284828501610ffd565b91505092915050565b611154816114cd565b82525050565b611163816114d9565b82525050565b61117a611175826114d9565b6115b9565b82525050565b600061118b826113e4565b61119581856113ef565b93506111a5818560208601611555565b6111ae8161165a565b840191505092915050565b6111c281611517565b82525050565b6111d18161153b565b82525050565b6111e08161150d565b82525050565b6111f76111f28261150d565b6115c3565b82525050565b60006112098285611169565b60208201915061121982846111e6565b6020820191508190509392505050565b600060208201905061123e600083018461114b565b92915050565b6000606082019050611259600083018661114b565b818103602083015261126b8185611180565b905061127a60408301846111d7565b949350505050565b6000604082019050611297600083018561114b565b6112a460208301846111d7565b9392505050565b60006020820190506112c0600083018461115a565b92915050565b60006040820190506112db600083018561115a565b6112e860208301846111d7565b9392505050565b600060208201905081810360008301526113098184611180565b905092915050565b600060208201905061132660008301846111b9565b92915050565b600060208201905061134160008301846111c8565b92915050565b600060208201905061135c60008301846111d7565b92915050565b600061136c61137d565b90506113788282611588565b919050565b6000604051905090565b600067ffffffffffffffff8211156113a2576113a161162b565b5b602082029050602081019050919050565b600067ffffffffffffffff8211156113ce576113cd61162b565b5b6113d78261165a565b9050602081019050919050565b600081519050919050565b600082825260208201905092915050565b600061140b8261150d565b91506114168361150d565b9250827fffffffffffffffffffffffffffffffffffffffffffffffffffffffffffffffff0382111561144b5761144a6115cd565b5b828201905092915050565b60006114618261150d565b915061146c8361150d565b92508261147c5761147b6115fc565b5b828204905092915050565b60006114928261150d565b915061149d8361150d565b9250828210156114b0576114af6115cd565b5b828203905092915050565b60006114c6826114ed565b9050919050565b60008115159050919050565b6000819050919050565b6000819050919050565b600073ffffffffffffffffffffffffffffffffffffffff82169050919050565b6000819050919050565b600061152282611529565b9050919050565b6000611534826114ed565b9050919050565b600061154e611549836114e3565b61166b565b9050919050565b60005b83811015611573578082015181840152602081019050611558565b83811115611582576000848401525b50505050565b6115918261165a565b810181811067ffffffffffffffff821117156115b0576115af61162b565b5b80604052505050565b6000819050919050565b6000819050919050565b7f4e487b7100000000000000000000000000000000000000000000000000000000600052601160045260246000fd5b7f4e487b7100000000000000000000000000000000000000000000000000000000600052601260045260246000fd5b7f4e487b7100000000000000000000000000000000000000000000000000000000600052604160045260246000fd5b6000601f19601f8301169050919050565b60008160001b9050919050565b611681816114bb565b811461168c57600080fd5b50565b611698816114d9565b81146116a357600080fd5b50565b6116af8161150d565b81146116ba57600080fd5b5056fea26469706673582212203c0fd41eca4d8fd5729f0360d448376062bfd6f5bb426f718d34f911915e357f64736f6c63430008030033",
  "linkReferences": {},
  "deployedLinkReferences": {}
}