{
  "_format": "hh-sol-artifact-1",
  "contractName": "UsingTellor",
  "sourceName": "contracts/UsingTellor.sol",
  "abi": [
    {
      "inputs": [
        {
          "internalType": "address payable",
          "name": "_tellor",
          "type": "address"
        }
      ],
      "stateMutability": "nonpayable",
      "type": "constructor"
    },
    {
      "inputs": [
        {
          "internalType": "bytes32",
          "name": "_queryId",
          "type": "bytes32"
        },
        {
          "internalType": "uint256",
          "name": "_timestamp",
          "type": "uint256"
        }
      ],
      "name": "getDataAfter",
      "outputs": [
        {
          "internalType": "bytes",
          "name": "_value",
          "type": "bytes"
        },
        {
          "internalType": "uint256",
          "name": "_timestampRetrieved",
          "type": "uint256"
        }
      ],
      "stateMutability": "view",
      "type": "function"
    },
    {
      "inputs": [
        {
          "internalType": "bytes32",
          "name": "_queryId",
          "type": "bytes32"
        },
        {
          "internalType": "uint256",
          "name": "_timestamp",
          "type": "uint256"
        }
      ],
      "name": "getDataBefore",
      "outputs": [
        {
          "internalType": "bytes",
          "name": "_value",
          "type": "bytes"
        },
        {
          "internalType": "uint256",
          "name": "_timestampRetrieved",
          "type": "uint256"
        }
      ],
      "stateMutability": "view",
      "type": "function"
    },
    {
      "inputs": [
        {
          "internalType": "bytes32",
          "name": "_queryId",
          "type": "bytes32"
        },
        {
          "internalType": "uint256",
          "name": "_timestamp",
          "type": "uint256"
        }
      ],
      "name": "getIndexForDataAfter",
      "outputs": [
        {
          "internalType": "bool",
          "name": "_found",
          "type": "bool"
        },
        {
          "internalType": "uint256",
          "name": "_index",
          "type": "uint256"
        }
      ],
      "stateMutability": "view",
      "type": "function"
    },
    {
      "inputs": [
        {
          "internalType": "bytes32",
          "name": "_queryId",
          "type": "bytes32"
        },
        {
          "internalType": "uint256",
          "name": "_timestamp",
          "type": "uint256"
        }
      ],
      "name": "getIndexForDataBefore",
      "outputs": [
        {
          "internalType": "bool",
          "name": "_found",
          "type": "bool"
        },
        {
          "internalType": "uint256",
          "name": "_index",
          "type": "uint256"
        }
      ],
      "stateMutability": "view",
      "type": "function"
    },
    {
      "inputs": [
        {
          "internalType": "bytes32",
          "name": "_queryId",
          "type": "bytes32"
        },
        {
          "internalType": "uint256",
          "name": "_timestamp",
          "type": "uint256"
        },
        {
          "internalType": "uint256",
          "name": "_maxAge",
          "type": "uint256"
        },
        {
          "internalType": "uint256",
          "name": "_maxCount",
          "type": "uint256"
        }
      ],
      "name": "getMultipleValuesBefore",
      "outputs": [
        {
          "internalType": "bytes[]",
          "name": "_values",
          "type": "bytes[]"
        },
        {
          "internalType": "uint256[]",
          "name": "_timestamps",
          "type": "uint256[]"
        }
      ],
      "stateMutability": "view",
      "type": "function"
    },
    {
      "inputs": [
        {
          "internalType": "bytes32",
          "name": "_queryId",
          "type": "bytes32"
        }
      ],
      "name": "getNewValueCountbyQueryId",
      "outputs": [
        {
          "internalType": "uint256",
          "name": "",
          "type": "uint256"
        }
      ],
      "stateMutability": "view",
      "type": "function"
    },
    {
      "inputs": [
        {
          "internalType": "bytes32",
          "name": "_queryId",
          "type": "bytes32"
        },
        {
          "internalType": "uint256",
          "name": "_timestamp",
          "type": "uint256"
        }
      ],
      "name": "getReporterByTimestamp",
      "outputs": [
        {
          "internalType": "address",
          "name": "",
          "type": "address"
        }
      ],
      "stateMutability": "view",
      "type": "function"
    },
    {
      "inputs": [
        {
          "internalType": "bytes32",
          "name": "_queryId",
          "type": "bytes32"
        },
        {
          "internalType": "uint256",
          "name": "_index",
          "type": "uint256"
        }
      ],
      "name": "getTimestampbyQueryIdandIndex",
      "outputs": [
        {
          "internalType": "uint256",
          "name": "",
          "type": "uint256"
        }
      ],
      "stateMutability": "view",
      "type": "function"
    },
    {
      "inputs": [],
      "name": "idMappingContract",
      "outputs": [
        {
          "internalType": "contract IMappingContract",
          "name": "",
          "type": "address"
        }
      ],
      "stateMutability": "view",
      "type": "function"
    },
    {
      "inputs": [
        {
          "internalType": "bytes32",
          "name": "_queryId",
          "type": "bytes32"
        },
        {
          "internalType": "uint256",
          "name": "_timestamp",
          "type": "uint256"
        }
      ],
      "name": "isInDispute",
      "outputs": [
        {
          "internalType": "bool",
          "name": "",
          "type": "bool"
        }
      ],
      "stateMutability": "view",
      "type": "function"
    },
    {
      "inputs": [
        {
          "internalType": "bytes32",
          "name": "_queryId",
          "type": "bytes32"
        },
        {
          "internalType": "uint256",
          "name": "_timestamp",
          "type": "uint256"
        }
      ],
      "name": "retrieveData",
      "outputs": [
        {
          "internalType": "bytes",
          "name": "",
          "type": "bytes"
        }
      ],
      "stateMutability": "view",
      "type": "function"
    },
    {
      "inputs": [
        {
          "internalType": "address",
          "name": "_addy",
          "type": "address"
        }
      ],
      "name": "setIdMappingContract",
      "outputs": [],
      "stateMutability": "nonpayable",
      "type": "function"
    },
    {
      "inputs": [],
      "name": "tellor",
      "outputs": [
        {
          "internalType": "contract ITellor",
          "name": "",
          "type": "address"
        }
      ],
      "stateMutability": "view",
      "type": "function"
    },
    {
      "inputs": [
        {
          "internalType": "bytes32",
          "name": "_id",
          "type": "bytes32"
        }
      ],
      "name": "valueFor",
      "outputs": [
        {
          "internalType": "int256",
          "name": "_value",
          "type": "int256"
        },
        {
          "internalType": "uint256",
          "name": "_timestamp",
          "type": "uint256"
        },
        {
          "internalType": "uint256",
          "name": "_statusCode",
          "type": "uint256"
        }
      ],
      "stateMutability": "view",
      "type": "function"
    }
  ],
  "bytecode": "0x60806040523480156200001157600080fd5b5060405162001eb738038062001eb7833981810160405281019062000037919062000095565b806000806101000a81548173ffffffffffffffffffffffffffffffffffffffff021916908373ffffffffffffffffffffffffffffffffffffffff160217905550506200010f565b6000815190506200008f81620000f5565b92915050565b600060208284031215620000a857600080fd5b6000620000b8848285016200007e565b91505092915050565b6000620000ce82620000d5565b9050919050565b600073ffffffffffffffffffffffffffffffffffffffff82169050919050565b6200010081620000c1565b81146200010c57600080fd5b50565b611d98806200011f6000396000f3fe608060405234801561001057600080fd5b50600436106100ea5760003560e01c8063a792765f1161008c578063e07c548611610066578063e07c54861461029a578063f66f49c3146102ca578063f78eea83146102fb578063fcd4a5461461032d576100ea565b8063a792765f14610209578063c5958af91461023a578063ce5e11bf1461026a576100ea565b80632af8aae0116100c85780632af8aae01461015a57806344e87f911461017857806364ee3c6d146101a857806377b03e0d146101d9576100ea565b8063193b505b146100ef5780631959ad5b1461010b5780632944908514610129575b600080fd5b610109600480360381019061010491906112cd565b61035e565b005b6101136103fd565b6040516101209190611876565b60405180910390f35b610143600480360381019061013e919061143d565b610421565b60405161015192919061179c565b60405180910390f35b6101626104d9565b60405161016f919061185b565b60405180910390f35b610192600480360381019061018d919061143d565b6104ff565b60405161019f9190611781565b60405180910390f35b6101c260048036038101906101bd919061143d565b6105b5565b6040516101d092919061182b565b60405180910390f35b6101f360048036038101906101ee91906113eb565b61060f565b60405161020091906118c8565b60405180910390f35b610223600480360381019061021e919061143d565b6106c2565b60405161023192919061182b565b60405180910390f35b610254600480360381019061024f919061143d565b610789565b6040516102619190611809565b60405180910390f35b610284600480360381019061027f919061143d565b610843565b60405161029191906118c8565b60405180910390f35b6102b460048036038101906102af919061143d565b6108f9565b6040516102c1919061172f565b60405180910390f35b6102e460048036038101906102df919061143d565b6109af565b6040516102f292919061179c565b60405180910390f35b610315600480360381019061031091906113eb565b610b94565b60405161032493929190611891565b60405180910390f35b61034760048036038101906103429190611479565b610cd6565b60405161035592919061174a565b60405180910390f35b600073ffffffffffffffffffffffffffffffffffffffff16600160009054906101000a900473ffffffffffffffffffffffffffffffffffffffff1673ffffffffffffffffffffffffffffffffffffffff16146103b957600080fd5b80600160006101000a81548173ffffffffffffffffffffffffffffffffffffffff021916908373ffffffffffffffffffffffffffffffffffffffff16021790555050565b60008054906101000a900473ffffffffffffffffffffffffffffffffffffffff1681565b60008060008054906101000a900473ffffffffffffffffffffffffffffffffffffffff1673ffffffffffffffffffffffffffffffffffffffff16632944908585856040518363ffffffff1660e01b815260040161047f9291906117e0565b604080518083038186803b15801561049657600080fd5b505afa1580156104aa573d6000803e3d6000fd5b505050506040513d601f19601f820116820180604052508101906104ce91906113af565b915091509250929050565b600160009054906101000a900473ffffffffffffffffffffffffffffffffffffffff1681565b60008060009054906101000a900473ffffffffffffffffffffffffffffffffffffffff1673ffffffffffffffffffffffffffffffffffffffff166344e87f9184846040518363ffffffff1660e01b815260040161055d9291906117e0565b60206040518083038186803b15801561057557600080fd5b505afa158015610589573d6000803e3d6000fd5b505050506040513d601f19601f820116820180604052508101906105ad919061131f565b905092915050565b606060008060006105c686866109af565b91509150816105ed5760006040518060200160405280600081525090935093505050610608565b6105f78682610843565b92506106038684610789565b935050505b9250929050565b60008060009054906101000a900473ffffffffffffffffffffffffffffffffffffffff1673ffffffffffffffffffffffffffffffffffffffff166377b03e0d836040518263ffffffff1660e01b815260040161066b91906117c5565b60206040518083038186803b15801561068357600080fd5b505afa158015610697573d6000803e3d6000fd5b505050506040513d601f19601f820116820180604052508101906106bb919061151d565b9050919050565b606060008060009054906101000a900473ffffffffffffffffffffffffffffffffffffffff1673ffffffffffffffffffffffffffffffffffffffff1663a792765f85856040518363ffffffff1660e01b81526004016107229291906117e0565b60006040518083038186803b15801561073a57600080fd5b505afa15801561074e573d6000803e3d6000fd5b505050506040513d6000823e3d601f19601f820116820180604052508101906107779190611348565b90915080925081935050509250929050565b606060008054906101000a900473ffffffffffffffffffffffffffffffffffffffff1673ffffffffffffffffffffffffffffffffffffffff1663c5958af984846040518363ffffffff1660e01b81526004016107e69291906117e0565b60006040518083038186803b1580156107fe57600080fd5b505afa158015610812573d6000803e3d6000fd5b505050506040513d6000823e3d601f19601f8201168201806040525081019061083b91906114dc565b905092915050565b60008060009054906101000a900473ffffffffffffffffffffffffffffffffffffffff1673ffffffffffffffffffffffffffffffffffffffff1663ce5e11bf84846040518363ffffffff1660e01b81526004016108a19291906117e0565b60206040518083038186803b1580156108b957600080fd5b505afa1580156108cd573d6000803e3d6000fd5b505050506040513d601f19601f820116820180604052508101906108f1919061151d565b905092915050565b60008060009054906101000a900473ffffffffffffffffffffffffffffffffffffffff1673ffffffffffffffffffffffffffffffffffffffff1663e07c548684846040518363ffffffff1660e01b81526004016109579291906117e0565b60206040518083038186803b15801561096f57600080fd5b505afa158015610983573d6000803e3d6000fd5b505050506040513d601f19601f820116820180604052508101906109a791906112f6565b905092915050565b60008060006109bd8561060f565b905060008114156109d5576000809250925050610b8d565b80806109e090611bc4565b915050600060019050600080600084905060006109fd8a83610843565b9050888111610a185760008097509750505050505050610b8d565b610a228a84610843565b905088811115610a3157600094505b5b8415610af95760028383610a4691906119d8565b610a509190611a2e565b9350610a5c8a85610843565b905088811115610aa6576000610a7e8b600187610a799190611ab9565b610843565b9050898111610a905760009550610aa0565b600185610a9d9190611ab9565b92505b50610af4565b6000610abe8b600187610ab991906119d8565b610843565b905089811115610ae257600095508480610ad790611c1f565b955050809150610af2565b600185610aef91906119d8565b93505b505b610a32565b610b038a826104ff565b610b195760018497509750505050505050610b8d565b5b610b248a826104ff565b8015610b2f57508584105b15610b53578380610b3f90611c1f565b945050610b4c8a85610843565b9050610b1a565b8584148015610b685750610b678a826104ff565b5b15610b7f5760008097509750505050505050610b8d565b600184975097505050505050505b9250929050565b6000806000600160009054906101000a900473ffffffffffffffffffffffffffffffffffffffff1673ffffffffffffffffffffffffffffffffffffffff166387a475fd856040518263ffffffff1660e01b8152600401610bf491906117c5565b60206040518083038186803b158015610c0c57600080fd5b505afa158015610c20573d6000803e3d6000fd5b505050506040513d601f19601f82011682018060405250810190610c449190611414565b93506000610c518561060f565b90506000811415610c6e5760008061019493509350935050610ccf565b610c8485600183610c7f9190611ab9565b610843565b92506000610c928685610789565b9050600081511415610cb1576000806101949450945094505050610ccf565b6000610cbc82611144565b9050809550858560c89550955095505050505b9193909250565b606080600080610cf1888789610cec9190611ab9565b6109af565b9150915081610dea57600067ffffffffffffffff811115610d3b577f4e487b7100000000000000000000000000000000000000000000000000000000600052604160045260246000fd5b604051908082528060200260200182016040528015610d6e57816020015b6060815260200190600190039081610d595790505b50600067ffffffffffffffff811115610db0577f4e487b7100000000000000000000000000000000000000000000000000000000600052604160045260246000fd5b604051908082528060200260200182016040528015610dde5781602001602082028036833780820191505090505b5093509350505061113b565b6000610df68989610421565b809250819450505082610ef457600067ffffffffffffffff811115610e44577f4e487b7100000000000000000000000000000000000000000000000000000000600052604160045260246000fd5b604051908082528060200260200182016040528015610e7757816020015b6060815260200190600190039081610e625790505b50600067ffffffffffffffff811115610eb9577f4e487b7100000000000000000000000000000000000000000000000000000000600052604160045260246000fd5b604051908082528060200260200182016040528015610ee75781602001602082028036833780820191505090505b509450945050505061113b565b600060018383610f049190611ab9565b610f0e91906119d8565b905086811115610f365760018783610f269190611ab9565b610f3091906119d8565b92508690505b60008167ffffffffffffffff811115610f78577f4e487b7100000000000000000000000000000000000000000000000000000000600052604160045260246000fd5b604051908082528060200260200182016040528015610fab57816020015b6060815260200190600190039081610f965790505b50905060008267ffffffffffffffff811115610ff0577f4e487b7100000000000000000000000000000000000000000000000000000000600052604160045260246000fd5b60405190808252806020026020018201604052801561101e5781602001602082028036833780820191505090505b509050606060005b8481101561112c576110438e828961103e91906119d8565b610843565b83828151811061107c577f4e487b7100000000000000000000000000000000000000000000000000000000600052603260045260246000fd5b6020026020010181815250506110d28e8483815181106110c5577f4e487b7100000000000000000000000000000000000000000000000000000000600052603260045260246000fd5b6020026020010151610789565b91508184828151811061110e577f4e487b7100000000000000000000000000000000000000000000000000000000600052603260045260246000fd5b6020026020010181905250808061112490611c1f565b915050611026565b50828298509850505050505050505b94509492505050565b600080600090505b82518110156111cc5782818151811061118e577f4e487b7100000000000000000000000000000000000000000000000000000000600052603260045260246000fd5b602001015160f81c60f81b60f81c60ff16610100836111ad9190611a5f565b6111b791906119d8565b915080806111c490611c1f565b91505061114c565b50919050565b60006111e56111e084611908565b6118e3565b9050828152602081018484840111156111fd57600080fd5b611208848285611b91565b509392505050565b60008135905061121f81611d06565b92915050565b60008151905061123481611d06565b92915050565b60008151905061124981611d1d565b92915050565b60008135905061125e81611d34565b92915050565b60008151905061127381611d34565b92915050565b600082601f83011261128a57600080fd5b815161129a8482602086016111d2565b91505092915050565b6000813590506112b281611d4b565b92915050565b6000815190506112c781611d4b565b92915050565b6000602082840312156112df57600080fd5b60006112ed84828501611210565b91505092915050565b60006020828403121561130857600080fd5b600061131684828501611225565b91505092915050565b60006020828403121561133157600080fd5b600061133f8482850161123a565b91505092915050565b60008060006060848603121561135d57600080fd5b600061136b8682870161123a565b935050602084015167ffffffffffffffff81111561138857600080fd5b61139486828701611279565b92505060406113a5868287016112b8565b9150509250925092565b600080604083850312156113c257600080fd5b60006113d08582860161123a565b92505060206113e1858286016112b8565b9150509250929050565b6000602082840312156113fd57600080fd5b600061140b8482850161124f565b91505092915050565b60006020828403121561142657600080fd5b600061143484828501611264565b91505092915050565b6000806040838503121561145057600080fd5b600061145e8582860161124f565b925050602061146f858286016112a3565b9150509250929050565b6000806000806080858703121561148f57600080fd5b600061149d8782880161124f565b94505060206114ae878288016112a3565b93505060406114bf878288016112a3565b92505060606114d0878288016112a3565b91505092959194509250565b6000602082840312156114ee57600080fd5b600082015167ffffffffffffffff81111561150857600080fd5b61151484828501611279565b91505092915050565b60006020828403121561152f57600080fd5b600061153d848285016112b8565b91505092915050565b60006115528383611672565b905092915050565b60006115668383611711565b60208301905092915050565b61157b81611aed565b82525050565b600061158c82611959565b6115968185611994565b9350836020820285016115a885611939565b8060005b858110156115e457848403895281516115c58582611546565b94506115d08361197a565b925060208a019950506001810190506115ac565b50829750879550505050505092915050565b600061160182611964565b61160b81856119a5565b935061161683611949565b8060005b8381101561164757815161162e888261155a565b975061163983611987565b92505060018101905061161a565b5085935050505092915050565b61165d81611aff565b82525050565b61166c81611b0b565b82525050565b600061167d8261196f565b61168781856119b6565b9350611697818560208601611b91565b6116a081611cf5565b840191505092915050565b60006116b68261196f565b6116c081856119c7565b93506116d0818560208601611b91565b6116d981611cf5565b840191505092915050565b6116ed81611b49565b82525050565b6116fc81611b6d565b82525050565b61170b81611b15565b82525050565b61171a81611b3f565b82525050565b61172981611b3f565b82525050565b60006020820190506117446000830184611572565b92915050565b600060408201905081810360008301526117648185611581565b9050818103602083015261177881846115f6565b90509392505050565b60006020820190506117966000830184611654565b92915050565b60006040820190506117b16000830185611654565b6117be6020830184611720565b9392505050565b60006020820190506117da6000830184611663565b92915050565b60006040820190506117f56000830185611663565b6118026020830184611720565b9392505050565b6000602082019050818103600083015261182381846116ab565b905092915050565b6000604082019050818103600083015261184581856116ab565b90506118546020830184611720565b9392505050565b600060208201905061187060008301846116e4565b92915050565b600060208201905061188b60008301846116f3565b92915050565b60006060820190506118a66000830186611702565b6118b36020830185611720565b6118c06040830184611720565b949350505050565b60006020820190506118dd6000830184611720565b92915050565b60006118ed6118fe565b90506118f98282611bee565b919050565b6000604051905090565b600067ffffffffffffffff82111561192357611922611cc6565b5b61192c82611cf5565b9050602081019050919050565b6000819050602082019050919050565b6000819050602082019050919050565b600081519050919050565b600081519050919050565b600081519050919050565b6000602082019050919050565b6000602082019050919050565b600082825260208201905092915050565b600082825260208201905092915050565b600082825260208201905092915050565b600082825260208201905092915050565b60006119e382611b3f565b91506119ee83611b3f565b9250827fffffffffffffffffffffffffffffffffffffffffffffffffffffffffffffffff03821115611a2357611a22611c68565b5b828201905092915050565b6000611a3982611b3f565b9150611a4483611b3f565b925082611a5457611a53611c97565b5b828204905092915050565b6000611a6a82611b3f565b9150611a7583611b3f565b9250817fffffffffffffffffffffffffffffffffffffffffffffffffffffffffffffffff0483118215151615611aae57611aad611c68565b5b828202905092915050565b6000611ac482611b3f565b9150611acf83611b3f565b925082821015611ae257611ae1611c68565b5b828203905092915050565b6000611af882611b1f565b9050919050565b60008115159050919050565b6000819050919050565b6000819050919050565b600073ffffffffffffffffffffffffffffffffffffffff82169050919050565b6000819050919050565b6000611b5482611b5b565b9050919050565b6000611b6682611b1f565b9050919050565b6000611b7882611b7f565b9050919050565b6000611b8a82611b1f565b9050919050565b60005b83811015611baf578082015181840152602081019050611b94565b83811115611bbe576000848401525b50505050565b6000611bcf82611b3f565b91506000821415611be357611be2611c68565b5b600182039050919050565b611bf782611cf5565b810181811067ffffffffffffffff82111715611c1657611c15611cc6565b5b80604052505050565b6000611c2a82611b3f565b91507fffffffffffffffffffffffffffffffffffffffffffffffffffffffffffffffff821415611c5d57611c5c611c68565b5b600182019050919050565b7f4e487b7100000000000000000000000000000000000000000000000000000000600052601160045260246000fd5b7f4e487b7100000000000000000000000000000000000000000000000000000000600052601260045260246000fd5b7f4e487b7100000000000000000000000000000000000000000000000000000000600052604160045260246000fd5b6000601f19601f8301169050919050565b611d0f81611aed565b8114611d1a57600080fd5b50565b611d2681611aff565b8114611d3157600080fd5b50565b611d3d81611b0b565b8114611d4857600080fd5b50565b611d5481611b3f565b8114611d5f57600080fd5b5056fea26469706673582212207fad23fe51b2244b84cd918383c1bdc248ac12059ee048fbe4d3a87a2ec46d8264736f6c63430008030033",
  "linkReferences": {},
  "deployedLinkReferences": {}
}