{
  "_format": "hh-sol-artifact-1",
  "contractName": "UsingTellor",
  "sourceName": "contracts/UsingTellor.sol",
  "abi": [
    {
      "inputs": [
        {
          "internalType": "address payable",
          "name": "_tellor",
          "type": "address"
        }
      ],
      "stateMutability": "nonpayable",
      "type": "constructor"
    },
    {
      "inputs": [
        {
          "internalType": "bytes32",
          "name": "_queryId",
          "type": "bytes32"
        },
        {
          "internalType": "uint256",
          "name": "_timestamp",
          "type": "uint256"
        }
      ],
      "name": "getDataAfter",
      "outputs": [
        {
          "internalType": "bool",
          "name": "_ifRetrieve",
          "type": "bool"
        },
        {
          "internalType": "bytes",
          "name": "_value",
          "type": "bytes"
        },
        {
          "internalType": "uint256",
          "name": "_timestampRetrieved",
          "type": "uint256"
        }
      ],
      "stateMutability": "view",
      "type": "function"
    },
    {
      "inputs": [
        {
          "internalType": "bytes32",
          "name": "_queryId",
          "type": "bytes32"
        },
        {
          "internalType": "uint256",
          "name": "_timestamp",
          "type": "uint256"
        }
      ],
      "name": "getDataBefore",
      "outputs": [
        {
          "internalType": "bool",
          "name": "_ifRetrieve",
          "type": "bool"
        },
        {
          "internalType": "bytes",
          "name": "_value",
          "type": "bytes"
        },
        {
          "internalType": "uint256",
          "name": "_timestampRetrieved",
          "type": "uint256"
        }
      ],
      "stateMutability": "view",
      "type": "function"
    },
    {
      "inputs": [
        {
          "internalType": "bytes32",
          "name": "_queryId",
          "type": "bytes32"
        },
        {
          "internalType": "uint256",
          "name": "_timestamp",
          "type": "uint256"
        }
      ],
      "name": "getIndexForDataAfter",
      "outputs": [
        {
          "internalType": "bool",
          "name": "_found",
          "type": "bool"
        },
        {
          "internalType": "uint256",
          "name": "_index",
          "type": "uint256"
        }
      ],
      "stateMutability": "view",
      "type": "function"
    },
    {
      "inputs": [
        {
          "internalType": "bytes32",
          "name": "_queryId",
          "type": "bytes32"
        },
        {
          "internalType": "uint256",
          "name": "_timestamp",
          "type": "uint256"
        }
      ],
      "name": "getIndexForDataBefore",
      "outputs": [
        {
          "internalType": "bool",
          "name": "_found",
          "type": "bool"
        },
        {
          "internalType": "uint256",
          "name": "_index",
          "type": "uint256"
        }
      ],
      "stateMutability": "view",
      "type": "function"
    },
    {
      "inputs": [
        {
          "internalType": "bytes32",
          "name": "_queryId",
          "type": "bytes32"
        }
      ],
      "name": "getNewValueCountbyQueryId",
      "outputs": [
        {
          "internalType": "uint256",
          "name": "",
          "type": "uint256"
        }
      ],
      "stateMutability": "view",
      "type": "function"
    },
    {
      "inputs": [
        {
          "internalType": "bytes32",
          "name": "_queryId",
          "type": "bytes32"
        },
        {
          "internalType": "uint256",
          "name": "_timestamp",
          "type": "uint256"
        }
      ],
      "name": "getReporterByTimestamp",
      "outputs": [
        {
          "internalType": "address",
          "name": "",
          "type": "address"
        }
      ],
      "stateMutability": "view",
      "type": "function"
    },
    {
      "inputs": [
        {
          "internalType": "bytes32",
          "name": "_queryId",
          "type": "bytes32"
        },
        {
          "internalType": "uint256",
          "name": "_index",
          "type": "uint256"
        }
      ],
      "name": "getTimestampbyQueryIdandIndex",
      "outputs": [
        {
          "internalType": "uint256",
          "name": "",
          "type": "uint256"
        }
      ],
      "stateMutability": "view",
      "type": "function"
    },
    {
      "inputs": [
        {
          "internalType": "bytes32",
          "name": "_queryId",
          "type": "bytes32"
        },
        {
          "internalType": "uint256",
          "name": "_timestamp",
          "type": "uint256"
        }
      ],
      "name": "isInDispute",
      "outputs": [
        {
          "internalType": "bool",
          "name": "",
          "type": "bool"
        }
      ],
      "stateMutability": "view",
      "type": "function"
    },
    {
      "inputs": [
        {
          "internalType": "bytes32",
          "name": "_queryId",
          "type": "bytes32"
        },
        {
          "internalType": "uint256",
          "name": "_timestamp",
          "type": "uint256"
        }
      ],
      "name": "retrieveData",
      "outputs": [
        {
          "internalType": "bytes",
          "name": "",
          "type": "bytes"
        }
      ],
      "stateMutability": "view",
      "type": "function"
    },
    {
      "inputs": [],
      "name": "tellor",
      "outputs": [
        {
          "internalType": "contract ITellor",
          "name": "",
          "type": "address"
        }
      ],
      "stateMutability": "view",
      "type": "function"
    },
    {
      "inputs": [
        {
          "internalType": "bytes32",
          "name": "_id",
          "type": "bytes32"
        }
      ],
      "name": "valueFor",
      "outputs": [
        {
          "internalType": "int256",
          "name": "_value",
          "type": "int256"
        },
        {
          "internalType": "uint256",
          "name": "_timestamp",
          "type": "uint256"
        },
        {
          "internalType": "uint256",
          "name": "_statusCode",
          "type": "uint256"
        }
      ],
      "stateMutability": "view",
      "type": "function"
    }
  ],
  "bytecode": "0x60806040523480156200001157600080fd5b50604051620017a0380380620017a0833981810160405281019062000037919062000095565b806000806101000a81548173ffffffffffffffffffffffffffffffffffffffff021916908373ffffffffffffffffffffffffffffffffffffffff160217905550506200010f565b6000815190506200008f81620000f5565b92915050565b600060208284031215620000a857600080fd5b6000620000b8848285016200007e565b91505092915050565b6000620000ce82620000d5565b9050919050565b600073ffffffffffffffffffffffffffffffffffffffff82169050919050565b6200010081620000c1565b81146200010c57600080fd5b50565b611681806200011f6000396000f3fe608060405234801561001057600080fd5b50600436106100a95760003560e01c8063a792765f11610071578063a792765f1461018f578063c5958af9146101c1578063ce5e11bf146101f1578063e07c548614610221578063f66f49c314610251578063f78eea8314610282576100a9565b80631959ad5b146100ae57806329449085146100cc57806344e87f91146100fd57806364ee3c6d1461012d57806377b03e0d1461015f575b600080fd5b6100b66102b4565b6040516100c391906110d8565b60405180910390f35b6100e660048036038101906100e19190610dca565b6102d8565b6040516100f4929190611049565b60405180910390f35b61011760048036038101906101129190610dca565b610390565b6040516101249190610ff0565b60405180910390f35b61014760048036038101906101429190610dca565b610446565b6040516101569392919061100b565b60405180910390f35b61017960048036038101906101749190610da1565b6104a9565b604051610186919061122b565b60405180910390f35b6101a960048036038101906101a49190610dca565b61055c565b6040516101b89392919061100b565b60405180910390f35b6101db60048036038101906101d69190610dca565b610620565b6040516101e891906110b6565b60405180910390f35b61020b60048036038101906102069190610dca565b6106da565b604051610218919061122b565b60405180910390f35b61023b60048036038101906102369190610dca565b610790565b6040516102489190610fd5565b60405180910390f35b61026b60048036038101906102669190610dca565b610846565b604051610279929190611049565b60405180910390f35b61029c60048036038101906102979190610da1565b6108fb565b6040516102ab939291906110f3565b60405180910390f35b60008054906101000a900473ffffffffffffffffffffffffffffffffffffffff1681565b60008060008054906101000a900473ffffffffffffffffffffffffffffffffffffffff1673ffffffffffffffffffffffffffffffffffffffff16632944908585856040518363ffffffff1660e01b815260040161033692919061108d565b604080518083038186803b15801561034d57600080fd5b505afa158015610361573d6000803e3d6000fd5b505050506040513d601f19601f820116820180604052508101906103859190610d65565b915091509250929050565b60008060009054906101000a900473ffffffffffffffffffffffffffffffffffffffff1673ffffffffffffffffffffffffffffffffffffffff166344e87f9184846040518363ffffffff1660e01b81526004016103ee92919061108d565b60206040518083038186803b15801561040657600080fd5b505afa15801561041a573d6000803e3d6000fd5b505050506040513d601f19601f8201168201806040525081019061043e9190610cd5565b905092915050565b6000606060008060006104598787610846565b915091508161048357600080604051806020016040528060008152509094509450945050506104a2565b61048d87826106da565b92506104998782610620565b93506001945050505b9250925092565b60008060009054906101000a900473ffffffffffffffffffffffffffffffffffffffff1673ffffffffffffffffffffffffffffffffffffffff166377b03e0d836040518263ffffffff1660e01b81526004016105059190611072565b60206040518083038186803b15801561051d57600080fd5b505afa158015610531573d6000803e3d6000fd5b505050506040513d601f19601f820116820180604052508101906105559190610e47565b9050919050565b6000606060008060009054906101000a900473ffffffffffffffffffffffffffffffffffffffff1673ffffffffffffffffffffffffffffffffffffffff1663a792765f86866040518363ffffffff1660e01b81526004016105be92919061108d565b60006040518083038186803b1580156105d657600080fd5b505afa1580156105ea573d6000803e3d6000fd5b505050506040513d6000823e3d601f19601f820116820180604052508101906106139190610cfe565b9250925092509250925092565b606060008054906101000a900473ffffffffffffffffffffffffffffffffffffffff1673ffffffffffffffffffffffffffffffffffffffff1663c5958af984846040518363ffffffff1660e01b815260040161067d92919061108d565b60006040518083038186803b15801561069557600080fd5b505afa1580156106a9573d6000803e3d6000fd5b505050506040513d6000823e3d601f19601f820116820180604052508101906106d29190610e06565b905092915050565b60008060009054906101000a900473ffffffffffffffffffffffffffffffffffffffff1673ffffffffffffffffffffffffffffffffffffffff1663ce5e11bf84846040518363ffffffff1660e01b815260040161073892919061108d565b60206040518083038186803b15801561075057600080fd5b505afa158015610764573d6000803e3d6000fd5b505050506040513d601f19601f820116820180604052508101906107889190610e47565b905092915050565b60008060009054906101000a900473ffffffffffffffffffffffffffffffffffffffff1673ffffffffffffffffffffffffffffffffffffffff1663e07c548684846040518363ffffffff1660e01b81526004016107ee92919061108d565b60206040518083038186803b15801561080657600080fd5b505afa15801561081a573d6000803e3d6000fd5b505050506040513d601f19601f8201168201806040525081019061083e9190610cac565b905092915050565b60008061085384846102d8565b80925081935050508161086c57600080915091506108f4565b808061087790611412565b9150506000610885856104a9565b90508181101561089c5760008092509250506108f4565b60006108a886846106da565b9050848111156108bd576001935050506108f4565b82806108c890611412565b935050828210156108e1576000809350935050506108f4565b6108eb86846106da565b90506001935050505b9250929050565b6000806000806000600190507fdfaa6f747f0f012e8f2069d6ecacff25f5cdf0258702051747439949737fc0b560001b86141561099157600060405160200161094390611190565b60405160208183030381529060405260405160200161096291906111f6565b6040516020818303038152906040529050808051906020012096506001925066038d7ea4c68000915050610b2c565b7f637b7efb6b620736c247aaa282f3898914c0bef6c12faff0d3fe9d4bea78302060001b861415610a1b5760006040516020016109cd9061115d565b6040516020818303038152906040526040516020016109ec91906111f6565b6040516020818303038152906040529050808051906020012096506001925066038d7ea4c68000915050610b2b565b7f2dfb033e1ae0529b328985942d27f2d5a62213f3a2d97ca8e27ad2864c5af94260001b861415610aa5576000604051602001610a579061112a565b604051602081830303815290604052604051602001610a7691906111f6565b6040516020818303038152906040529050808051906020012096506001925066038d7ea4c68000915050610b2a565b7f9899e35601719f1348e09967349f72c7d04800f17c14992d6dcf2f17fac713ea60001b861415610b29576000604051602001610ae1906111c3565b604051602081830303815290604052604051602001610b0091906111f6565b6040516020818303038152906040529050808051906020012096506001925064e8d4a510009150505b5b5b5b6000610b37876104a9565b90506000811415610b5657600080610194955095509550505050610bd4565b610b6c87600183610b6791906112fa565b6106da565b94506000610b7a8887610620565b9050600081511415610b9b5760008061019496509650965050505050610bd4565b600081806020019051810190610bb19190610e47565b90508381610bbf91906112c9565b9050809750878760c897509750975050505050505b9193909250565b6000610bee610be98461126b565b611246565b905082815260208101848484011115610c0657600080fd5b610c118482856113ae565b509392505050565b600081519050610c28816115ef565b92915050565b600081519050610c3d81611606565b92915050565b600081359050610c528161161d565b92915050565b600082601f830112610c6957600080fd5b8151610c79848260208601610bdb565b91505092915050565b600081359050610c9181611634565b92915050565b600081519050610ca681611634565b92915050565b600060208284031215610cbe57600080fd5b6000610ccc84828501610c19565b91505092915050565b600060208284031215610ce757600080fd5b6000610cf584828501610c2e565b91505092915050565b600080600060608486031215610d1357600080fd5b6000610d2186828701610c2e565b935050602084015167ffffffffffffffff811115610d3e57600080fd5b610d4a86828701610c58565b9250506040610d5b86828701610c97565b9150509250925092565b60008060408385031215610d7857600080fd5b6000610d8685828601610c2e565b9250506020610d9785828601610c97565b9150509250929050565b600060208284031215610db357600080fd5b6000610dc184828501610c43565b91505092915050565b60008060408385031215610ddd57600080fd5b6000610deb85828601610c43565b9250506020610dfc85828601610c82565b9150509250929050565b600060208284031215610e1857600080fd5b600082015167ffffffffffffffff811115610e3257600080fd5b610e3e84828501610c58565b91505092915050565b600060208284031215610e5957600080fd5b6000610e6784828501610c97565b91505092915050565b610e798161132e565b82525050565b610e8881611340565b82525050565b610e978161134c565b82525050565b6000610ea88261129c565b610eb281856112a7565b9350610ec28185602086016113ae565b610ecb816114e8565b840191505092915050565b610edf8161138a565b82525050565b610eee81611356565b82525050565b6000610f016003836112b8565b9150610f0c826114f9565b602082019050919050565b6000610f246003836112b8565b9150610f2f82611522565b602082019050919050565b6000610f476003836112b8565b9150610f528261154b565b602082019050919050565b6000610f6a6003836112b8565b9150610f7582611574565b602082019050919050565b6000610f8d6003836112b8565b9150610f988261159d565b602082019050919050565b6000610fb06009836112b8565b9150610fbb826115c6565b602082019050919050565b610fcf81611380565b82525050565b6000602082019050610fea6000830184610e70565b92915050565b60006020820190506110056000830184610e7f565b92915050565b60006060820190506110206000830186610e7f565b81810360208301526110328185610e9d565b90506110416040830184610fc6565b949350505050565b600060408201905061105e6000830185610e7f565b61106b6020830184610fc6565b9392505050565b60006020820190506110876000830184610e8e565b92915050565b60006040820190506110a26000830185610e8e565b6110af6020830184610fc6565b9392505050565b600060208201905081810360008301526110d08184610e9d565b905092915050565b60006020820190506110ed6000830184610ed6565b92915050565b60006060820190506111086000830186610ee5565b6111156020830185610fc6565b6111226040830184610fc6565b949350505050565b6000604082019050818103600083015261114381610ef4565b9050818103602083015261115681610f5d565b9050919050565b6000604082019050818103600083015261117681610f17565b9050818103602083015261118981610f5d565b9050919050565b600060408201905081810360008301526111a981610f3a565b905081810360208301526111bc81610f5d565b9050919050565b600060408201905081810360008301526111dc81610f80565b905081810360208301526111ef81610f5d565b9050919050565b6000604082019050818103600083015261120f81610fa3565b905081810360208301526112238184610e9d565b905092915050565b60006020820190506112406000830184610fc6565b92915050565b6000611250611261565b905061125c82826113e1565b919050565b6000604051905090565b600067ffffffffffffffff821115611286576112856114b9565b5b61128f826114e8565b9050602081019050919050565b600081519050919050565b600082825260208201905092915050565b600082825260208201905092915050565b60006112d482611380565b91506112df83611380565b9250826112ef576112ee61148a565b5b828204905092915050565b600061130582611380565b915061131083611380565b9250828210156113235761132261145b565b5b828203905092915050565b600061133982611360565b9050919050565b60008115159050919050565b6000819050919050565b6000819050919050565b600073ffffffffffffffffffffffffffffffffffffffff82169050919050565b6000819050919050565b60006113958261139c565b9050919050565b60006113a782611360565b9050919050565b60005b838110156113cc5780820151818401526020810190506113b1565b838111156113db576000848401525b50505050565b6113ea826114e8565b810181811067ffffffffffffffff82111715611409576114086114b9565b5b80604052505050565b600061141d82611380565b91507fffffffffffffffffffffffffffffffffffffffffffffffffffffffffffffffff8214156114505761144f61145b565b5b600182019050919050565b7f4e487b7100000000000000000000000000000000000000000000000000000000600052601160045260246000fd5b7f4e487b7100000000000000000000000000000000000000000000000000000000600052601260045260246000fd5b7f4e487b7100000000000000000000000000000000000000000000000000000000600052604160045260246000fd5b6000601f19601f8301169050919050565b7f7861750000000000000000000000000000000000000000000000000000000000600082015250565b7f6274630000000000000000000000000000000000000000000000000000000000600082015250565b7f6574680000000000000000000000000000000000000000000000000000000000600082015250565b7f7573640000000000000000000000000000000000000000000000000000000000600082015250565b7f6461690000000000000000000000000000000000000000000000000000000000600082015250565b7f53706f7450726963650000000000000000000000000000000000000000000000600082015250565b6115f88161132e565b811461160357600080fd5b50565b61160f81611340565b811461161a57600080fd5b50565b6116268161134c565b811461163157600080fd5b50565b61163d81611380565b811461164857600080fd5b5056fea2646970667358221220f5da8df775b858a26e65813aec0d07a19a9e46c35ad938534f78f0ef4e8fdb0464736f6c63430008030033",
  "linkReferences": {},
  "deployedLinkReferences": {}
}