{
  "_format": "hh-sol-artifact-1",
  "contractName": "UsingTellor",
  "sourceName": "contracts/UsingTellor.sol",
  "abi": [
    {
      "inputs": [
        {
          "internalType": "address payable",
          "name": "_tellor",
          "type": "address"
        }
      ],
      "stateMutability": "nonpayable",
      "type": "constructor"
    },
    {
      "inputs": [],
      "name": "tellor",
      "outputs": [
        {
          "internalType": "contract ITellor",
          "name": "",
          "type": "address"
        }
      ],
      "stateMutability": "view",
      "type": "function"
    }
  ],
  "bytecode": "0x608060405234801561001057600080fd5b5060405161012138038061012183398101604081905261002f91610054565b600080546001600160a01b0319166001600160a01b0392909216919091179055610082565b600060208284031215610065578081fd5b81516001600160a01b038116811461007b578182fd5b9392505050565b6091806100906000396000f3fe6080604052348015600f57600080fd5b506004361060285760003560e01c80631959ad5b14602d575b600080fd5b600054603f906001600160a01b031681565b6040516001600160a01b03909116815260200160405180910390f3fea2646970667358221220c85fd8ea6634789fc4a849e0defca57dda9b3c77ed93cb434dfee8ecef3a20eb64736f6c63430008030033",
  "linkReferences": {},
  "deployedLinkReferences": {}
}