{
  "_format": "hh-sol-artifact-1",
  "contractName": "UsingTellor",
  "sourceName": "contracts/UsingTellor.sol",
  "abi": [
    {
      "inputs": [
        {
          "internalType": "address payable",
          "name": "_tellor",
          "type": "address"
        }
      ],
      "stateMutability": "nonpayable",
      "type": "constructor"
    },
    {
      "inputs": [
        {
          "internalType": "bytes32",
          "name": "_queryId",
          "type": "bytes32"
        },
        {
          "internalType": "uint256",
          "name": "_timestamp",
          "type": "uint256"
        }
      ],
      "name": "getDataAfter",
      "outputs": [
        {
          "internalType": "bytes",
          "name": "_value",
          "type": "bytes"
        },
        {
          "internalType": "uint256",
          "name": "_timestampRetrieved",
          "type": "uint256"
        }
      ],
      "stateMutability": "view",
      "type": "function"
    },
    {
      "inputs": [
        {
          "internalType": "bytes32",
          "name": "_queryId",
          "type": "bytes32"
        },
        {
          "internalType": "uint256",
          "name": "_timestamp",
          "type": "uint256"
        }
      ],
      "name": "getDataBefore",
      "outputs": [
        {
          "internalType": "bytes",
          "name": "_value",
          "type": "bytes"
        },
        {
          "internalType": "uint256",
          "name": "_timestampRetrieved",
          "type": "uint256"
        }
      ],
      "stateMutability": "view",
      "type": "function"
    },
    {
      "inputs": [
        {
          "internalType": "bytes32",
          "name": "_queryId",
          "type": "bytes32"
        },
        {
          "internalType": "uint256",
          "name": "_timestamp",
          "type": "uint256"
        }
      ],
      "name": "getIndexForDataAfter",
      "outputs": [
        {
          "internalType": "bool",
          "name": "_found",
          "type": "bool"
        },
        {
          "internalType": "uint256",
          "name": "_index",
          "type": "uint256"
        }
      ],
      "stateMutability": "view",
      "type": "function"
    },
    {
      "inputs": [
        {
          "internalType": "bytes32",
          "name": "_queryId",
          "type": "bytes32"
        },
        {
          "internalType": "uint256",
          "name": "_timestamp",
          "type": "uint256"
        }
      ],
      "name": "getIndexForDataAfterOld",
      "outputs": [
        {
          "internalType": "bool",
          "name": "_found",
          "type": "bool"
        },
        {
          "internalType": "uint256",
          "name": "_index",
          "type": "uint256"
        }
      ],
      "stateMutability": "view",
      "type": "function"
    },
    {
      "inputs": [
        {
          "internalType": "bytes32",
          "name": "_queryId",
          "type": "bytes32"
        },
        {
          "internalType": "uint256",
          "name": "_timestamp",
          "type": "uint256"
        }
      ],
      "name": "getIndexForDataBefore",
      "outputs": [
        {
          "internalType": "bool",
          "name": "_found",
          "type": "bool"
        },
        {
          "internalType": "uint256",
          "name": "_index",
          "type": "uint256"
        }
      ],
      "stateMutability": "view",
      "type": "function"
    },
    {
      "inputs": [
        {
          "internalType": "bytes32",
          "name": "_queryId",
          "type": "bytes32"
        },
        {
          "internalType": "uint256",
          "name": "_timestamp",
          "type": "uint256"
        },
        {
          "internalType": "uint256",
          "name": "_maxAge",
          "type": "uint256"
        },
        {
          "internalType": "uint256",
          "name": "_maxCount",
          "type": "uint256"
        }
      ],
      "name": "getMultipleValuesBefore",
      "outputs": [
        {
          "internalType": "bytes[]",
          "name": "_values",
          "type": "bytes[]"
        },
        {
          "internalType": "uint256[]",
          "name": "_timestamps",
          "type": "uint256[]"
        }
      ],
      "stateMutability": "view",
      "type": "function"
    },
    {
      "inputs": [
        {
          "internalType": "bytes32",
          "name": "_queryId",
          "type": "bytes32"
        }
      ],
      "name": "getNewValueCountbyQueryId",
      "outputs": [
        {
          "internalType": "uint256",
          "name": "",
          "type": "uint256"
        }
      ],
      "stateMutability": "view",
      "type": "function"
    },
    {
      "inputs": [
        {
          "internalType": "bytes32",
          "name": "_queryId",
          "type": "bytes32"
        },
        {
          "internalType": "uint256",
          "name": "_timestamp",
          "type": "uint256"
        }
      ],
      "name": "getReporterByTimestamp",
      "outputs": [
        {
          "internalType": "address",
          "name": "",
          "type": "address"
        }
      ],
      "stateMutability": "view",
      "type": "function"
    },
    {
      "inputs": [
        {
          "internalType": "bytes32",
          "name": "_queryId",
          "type": "bytes32"
        },
        {
          "internalType": "uint256",
          "name": "_index",
          "type": "uint256"
        }
      ],
      "name": "getTimestampbyQueryIdandIndex",
      "outputs": [
        {
          "internalType": "uint256",
          "name": "",
          "type": "uint256"
        }
      ],
      "stateMutability": "view",
      "type": "function"
    },
    {
      "inputs": [],
      "name": "idMappingContract",
      "outputs": [
        {
          "internalType": "contract IMappingContract",
          "name": "",
          "type": "address"
        }
      ],
      "stateMutability": "view",
      "type": "function"
    },
    {
      "inputs": [
        {
          "internalType": "bytes32",
          "name": "_queryId",
          "type": "bytes32"
        },
        {
          "internalType": "uint256",
          "name": "_timestamp",
          "type": "uint256"
        }
      ],
      "name": "isInDispute",
      "outputs": [
        {
          "internalType": "bool",
          "name": "",
          "type": "bool"
        }
      ],
      "stateMutability": "view",
      "type": "function"
    },
    {
      "inputs": [
        {
          "internalType": "bytes32",
          "name": "_queryId",
          "type": "bytes32"
        },
        {
          "internalType": "uint256",
          "name": "_timestamp",
          "type": "uint256"
        }
      ],
      "name": "retrieveData",
      "outputs": [
        {
          "internalType": "bytes",
          "name": "",
          "type": "bytes"
        }
      ],
      "stateMutability": "view",
      "type": "function"
    },
    {
      "inputs": [
        {
          "internalType": "address",
          "name": "_addy",
          "type": "address"
        }
      ],
      "name": "setIdMappingContract",
      "outputs": [],
      "stateMutability": "nonpayable",
      "type": "function"
    },
    {
      "inputs": [],
      "name": "tellor",
      "outputs": [
        {
          "internalType": "contract ITellor",
          "name": "",
          "type": "address"
        }
      ],
      "stateMutability": "view",
      "type": "function"
    },
    {
      "inputs": [
        {
          "internalType": "bytes32",
          "name": "_id",
          "type": "bytes32"
        }
      ],
      "name": "valueFor",
      "outputs": [
        {
          "internalType": "int256",
          "name": "_value",
          "type": "int256"
        },
        {
          "internalType": "uint256",
          "name": "_timestamp",
          "type": "uint256"
        },
        {
          "internalType": "uint256",
          "name": "_statusCode",
          "type": "uint256"
        }
      ],
      "stateMutability": "view",
      "type": "function"
    }
  ],
  "bytecode": "0x60806040523480156200001157600080fd5b506040516200284438038062002844833981810160405281019062000037919062000095565b806000806101000a81548173ffffffffffffffffffffffffffffffffffffffff021916908373ffffffffffffffffffffffffffffffffffffffff160217905550506200010f565b6000815190506200008f81620000f5565b92915050565b600060208284031215620000a857600080fd5b6000620000b8848285016200007e565b91505092915050565b6000620000ce82620000d5565b9050919050565b600073ffffffffffffffffffffffffffffffffffffffff82169050919050565b6200010081620000c1565b81146200010c57600080fd5b50565b612725806200011f6000396000f3fe608060405234801561001057600080fd5b50600436106100f55760003560e01c8063a792765f11610097578063e07c548611610066578063e07c5486146102d6578063f66f49c314610306578063f78eea8314610337578063fcd4a54614610369576100f5565b8063a792765f14610214578063ac54598414610245578063c5958af914610276578063ce5e11bf146102a6576100f5565b80632af8aae0116100d35780632af8aae01461016557806344e87f911461018357806364ee3c6d146101b357806377b03e0d146101e4576100f5565b8063193b505b146100fa5780631959ad5b146101165780632944908514610134575b600080fd5b610114600480360381019061010f9190611aab565b61039a565b005b61011e610439565b60405161012b919061208d565b60405180910390f35b61014e60048036038101906101499190611c1b565b61045d565b60405161015c929190611fb3565b60405180910390f35b61016d610515565b60405161017a9190612072565b60405180910390f35b61019d60048036038101906101989190611c1b565b61053b565b6040516101aa9190611f98565b60405180910390f35b6101cd60048036038101906101c89190611c1b565b6105f1565b6040516101db929190612042565b60405180910390f35b6101fe60048036038101906101f99190611bc9565b61068b565b60405161020b919061218b565b60405180910390f35b61022e60048036038101906102299190611c1b565b61073e565b60405161023c929190612042565b60405180910390f35b61025f600480360381019061025a9190611c1b565b610805565b60405161026d929190611fb3565b60405180910390f35b610290600480360381019061028b9190611c1b565b610c0c565b60405161029d9190612020565b60405180910390f35b6102c060048036038101906102bb9190611c1b565b610cc6565b6040516102cd919061218b565b60405180910390f35b6102f060048036038101906102eb9190611c1b565b610d7c565b6040516102fd9190611f46565b60405180910390f35b610320600480360381019061031b9190611c1b565b610e32565b60405161032e929190611fb3565b60405180910390f35b610351600480360381019061034c9190611bc9565b61116f565b604051610360939291906120a8565b60405180910390f35b610383600480360381019061037e9190611c57565b6112b1565b604051610391929190611f61565b60405180910390f35b600073ffffffffffffffffffffffffffffffffffffffff16600160009054906101000a900473ffffffffffffffffffffffffffffffffffffffff1673ffffffffffffffffffffffffffffffffffffffff16146103f557600080fd5b80600160006101000a81548173ffffffffffffffffffffffffffffffffffffffff021916908373ffffffffffffffffffffffffffffffffffffffff16021790555050565b60008054906101000a900473ffffffffffffffffffffffffffffffffffffffff1681565b60008060008054906101000a900473ffffffffffffffffffffffffffffffffffffffff1673ffffffffffffffffffffffffffffffffffffffff16632944908585856040518363ffffffff1660e01b81526004016104bb929190611ff7565b604080518083038186803b1580156104d257600080fd5b505afa1580156104e6573d6000803e3d6000fd5b505050506040513d601f19601f8201168201806040525081019061050a9190611b8d565b915091509250929050565b600160009054906101000a900473ffffffffffffffffffffffffffffffffffffffff1681565b60008060009054906101000a900473ffffffffffffffffffffffffffffffffffffffff1673ffffffffffffffffffffffffffffffffffffffff166344e87f9184846040518363ffffffff1660e01b8152600401610599929190611ff7565b60206040518083038186803b1580156105b157600080fd5b505afa1580156105c5573d6000803e3d6000fd5b505050506040513d601f19601f820116820180604052508101906105e99190611afd565b905092915050565b606060008060006106028686610e32565b915091506106466040518060400160405280601481526020017f466f756e643a2025732c20496e6465783a202573000000000000000000000000815250838361171f565b816106695760006040518060200160405280600081525090935093505050610684565b6106738682610cc6565b925061067f8684610c0c565b935050505b9250929050565b60008060009054906101000a900473ffffffffffffffffffffffffffffffffffffffff1673ffffffffffffffffffffffffffffffffffffffff166377b03e0d836040518263ffffffff1660e01b81526004016106e79190611fdc565b60206040518083038186803b1580156106ff57600080fd5b505afa158015610713573d6000803e3d6000fd5b505050506040513d601f19601f820116820180604052508101906107379190611cfb565b9050919050565b606060008060009054906101000a900473ffffffffffffffffffffffffffffffffffffffff1673ffffffffffffffffffffffffffffffffffffffff1663a792765f85856040518363ffffffff1660e01b815260040161079e929190611ff7565b60006040518083038186803b1580156107b657600080fd5b505afa1580156107ca573d6000803e3d6000fd5b505050506040513d6000823e3d601f19601f820116820180604052508101906107f39190611b26565b90915080925081935050509250929050565b60008060008054906101000a900473ffffffffffffffffffffffffffffffffffffffff1673ffffffffffffffffffffffffffffffffffffffff16632944908585856040518363ffffffff1660e01b8152600401610863929190611ff7565b604080518083038186803b15801561087a57600080fd5b505afa15801561088e573d6000803e3d6000fd5b505050506040513d601f19601f820116820180604052508101906108b29190611b8d565b809250819350505081156108cf5780806108cb906124fe565b9150505b60008060009054906101000a900473ffffffffffffffffffffffffffffffffffffffff1673ffffffffffffffffffffffffffffffffffffffff166377b03e0d866040518263ffffffff1660e01b815260040161092b9190611fdc565b60206040518083038186803b15801561094357600080fd5b505afa158015610957573d6000803e3d6000fd5b505050506040513d601f19601f8201168201806040525081019061097b9190611cfb565b9050818111610991576000809250925050610c05565b60008060009054906101000a900473ffffffffffffffffffffffffffffffffffffffff1673ffffffffffffffffffffffffffffffffffffffff1663ce5e11bf87856040518363ffffffff1660e01b81526004016109ef929190611ff7565b60206040518083038186803b158015610a0757600080fd5b505afa158015610a1b573d6000803e3d6000fd5b505050506040513d601f19601f82011682018060405250810190610a3f9190611cfb565b9050848111610b19578280610a53906124fe565b935050828211610a6b57600080935093505050610c05565b60008054906101000a900473ffffffffffffffffffffffffffffffffffffffff1673ffffffffffffffffffffffffffffffffffffffff1663ce5e11bf87856040518363ffffffff1660e01b8152600401610ac6929190611ff7565b60206040518083038186803b158015610ade57600080fd5b505afa158015610af2573d6000803e3d6000fd5b505050506040513d601f19601f82011682018060405250810190610b169190611cfb565b90505b5b610b24868261053b565b15610bfe578280610b34906124fe565b935050828211610b4c57600080935093505050610c05565b60008054906101000a900473ffffffffffffffffffffffffffffffffffffffff1673ffffffffffffffffffffffffffffffffffffffff1663ce5e11bf87856040518363ffffffff1660e01b8152600401610ba7929190611ff7565b60206040518083038186803b158015610bbf57600080fd5b505afa158015610bd3573d6000803e3d6000fd5b505050506040513d601f19601f82011682018060405250810190610bf79190611cfb565b9050610b1a565b6001935050505b9250929050565b606060008054906101000a900473ffffffffffffffffffffffffffffffffffffffff1673ffffffffffffffffffffffffffffffffffffffff1663c5958af984846040518363ffffffff1660e01b8152600401610c69929190611ff7565b60006040518083038186803b158015610c8157600080fd5b505afa158015610c95573d6000803e3d6000fd5b505050506040513d6000823e3d601f19601f82011682018060405250810190610cbe9190611cba565b905092915050565b60008060009054906101000a900473ffffffffffffffffffffffffffffffffffffffff1673ffffffffffffffffffffffffffffffffffffffff1663ce5e11bf84846040518363ffffffff1660e01b8152600401610d24929190611ff7565b60206040518083038186803b158015610d3c57600080fd5b505afa158015610d50573d6000803e3d6000fd5b505050506040513d601f19601f82011682018060405250810190610d749190611cfb565b905092915050565b60008060009054906101000a900473ffffffffffffffffffffffffffffffffffffffff1673ffffffffffffffffffffffffffffffffffffffff1663e07c548684846040518363ffffffff1660e01b8152600401610dda929190611ff7565b60206040518083038186803b158015610df257600080fd5b505afa158015610e06573d6000803e3d6000fd5b505050506040513d601f19601f82011682018060405250810190610e2a9190611ad4565b905092915050565b600080610e566040518060600160405280602c81526020016126c4602c91396117be565b6000610e618561068b565b90506000811415610e79576000809250925050611168565b8080610e84906124a3565b91505060006001905060008060008490506000610ea18a83610cc6565b9050888111610ebc5760008097509750505050505050611168565b610ec68a84610cc6565b905088811115610ed557600094505b5b841561107557610f1a6040518060400160405280601681526020017f4056414c5f57495448494e5f424f554e444152494553000000000000000000008152506117be565b82600160028585610f2b9190612398565b610f35919061230d565b610f3f91906122b7565b610f4991906122b7565b9350610f8c6040518060400160405280601f81526020017f4053544152543a2025732c20454e443a2025732c204d4944444c453a20257300815250848487611857565b610f968a85610cc6565b90508881111561100157610fc16040518060600160405280602b8152602001612642602b91396117be565b6000610fd98b600187610fd49190612398565b610cc6565b9050898111610feb5760009550610ffb565b600185610ff89190612398565b92505b50611070565b61102260405180606001604052806034815260200161266d603491396117be565b600061103a8b60018761103591906122b7565b610cc6565b90508981111561105e57600095508480611053906124fe565b95505080915061106e565b60018561106b91906122b7565b93505b505b610ed6565b61107f8a8261053b565b6110b6576110a46040518060600160405280602381526020016126a1602391396117be565b60018497509750505050505050611168565b5b6110c18a8261053b565b80156110cc57508584105b1561112e5761110f6040518060400160405280601f81526020017f4054494d455354414d505f52455452494556454420494e2044495350555445008152506117be565b838061111a906124fe565b9450506111278a85610cc6565b90506110b7565b858414801561114357506111428a8261053b565b5b1561115a5760008097509750505050505050611168565b600184975097505050505050505b9250929050565b6000806000600160009054906101000a900473ffffffffffffffffffffffffffffffffffffffff1673ffffffffffffffffffffffffffffffffffffffff166387a475fd856040518263ffffffff1660e01b81526004016111cf9190611fdc565b60206040518083038186803b1580156111e757600080fd5b505afa1580156111fb573d6000803e3d6000fd5b505050506040513d601f19601f8201168201806040525081019061121f9190611bf2565b9350600061122c8561068b565b9050600081141561124957600080610194935093509350506112aa565b61125f8560018361125a9190612398565b610cc6565b9250600061126d8685610c0c565b905060008151141561128c5760008061019494509450945050506112aa565b6000611297826118f9565b9050809550858560c89550955095505050505b9193909250565b6060806000806112cc8887896112c79190612398565b610e32565b91509150816113c557600067ffffffffffffffff811115611316577f4e487b7100000000000000000000000000000000000000000000000000000000600052604160045260246000fd5b60405190808252806020026020018201604052801561134957816020015b60608152602001906001900390816113345790505b50600067ffffffffffffffff81111561138b577f4e487b7100000000000000000000000000000000000000000000000000000000600052604160045260246000fd5b6040519080825280602002602001820160405280156113b95781602001602082028036833780820191505090505b50935093505050611716565b60006113d1898961045d565b8092508194505050826114cf57600067ffffffffffffffff81111561141f577f4e487b7100000000000000000000000000000000000000000000000000000000600052604160045260246000fd5b60405190808252806020026020018201604052801561145257816020015b606081526020019060019003908161143d5790505b50600067ffffffffffffffff811115611494577f4e487b7100000000000000000000000000000000000000000000000000000000600052604160045260246000fd5b6040519080825280602002602001820160405280156114c25781602001602082028036833780820191505090505b5094509450505050611716565b6000600183836114df9190612398565b6114e991906122b7565b90508681111561151157600187836115019190612398565b61150b91906122b7565b92508690505b60008167ffffffffffffffff811115611553577f4e487b7100000000000000000000000000000000000000000000000000000000600052604160045260246000fd5b60405190808252806020026020018201604052801561158657816020015b60608152602001906001900390816115715790505b50905060008267ffffffffffffffff8111156115cb577f4e487b7100000000000000000000000000000000000000000000000000000000600052604160045260246000fd5b6040519080825280602002602001820160405280156115f95781602001602082028036833780820191505090505b509050606060005b848110156117075761161e8e828961161991906122b7565b610cc6565b838281518110611657577f4e487b7100000000000000000000000000000000000000000000000000000000600052603260045260246000fd5b6020026020010181815250506116ad8e8483815181106116a0577f4e487b7100000000000000000000000000000000000000000000000000000000600052603260045260246000fd5b6020026020010151610c0c565b9150818482815181106116e9577f4e487b7100000000000000000000000000000000000000000000000000000000600052603260045260246000fd5b602002602001018190525080806116ff906124fe565b915050611601565b50828298509850505050505050505b94509492505050565b6117b983838360405160240161173793929190612101565b6040516020818303038152906040527f291bb9d0000000000000000000000000000000000000000000000000000000007bffffffffffffffffffffffffffffffffffffffffffffffffffffffff19166020820180517bffffffffffffffffffffffffffffffffffffffffffffffffffffffff8381831617835250505050611987565b505050565b611854816040516024016117d291906120df565b6040516020818303038152906040527f41304fac000000000000000000000000000000000000000000000000000000007bffffffffffffffffffffffffffffffffffffffffffffffffffffffff19166020820180517bffffffffffffffffffffffffffffffffffffffffffffffffffffffff8381831617835250505050611987565b50565b6118f384848484604051602401611871949392919061213f565b6040516020818303038152906040527f08ee5666000000000000000000000000000000000000000000000000000000007bffffffffffffffffffffffffffffffffffffffffffffffffffffffff19166020820180517bffffffffffffffffffffffffffffffffffffffffffffffffffffffff8381831617835250505050611987565b50505050565b600080600090505b825181101561198157828181518110611943577f4e487b7100000000000000000000000000000000000000000000000000000000600052603260045260246000fd5b602001015160f81c60f81b60f81c60ff1661010083611962919061233e565b61196c91906122b7565b91508080611979906124fe565b915050611901565b50919050565b60008151905060006a636f6e736f6c652e6c6f679050602083016000808483855afa5050505050565b60006119c36119be846121cb565b6121a6565b9050828152602081018484840111156119db57600080fd5b6119e6848285612470565b509392505050565b6000813590506119fd816125e5565b92915050565b600081519050611a12816125e5565b92915050565b600081519050611a27816125fc565b92915050565b600081359050611a3c81612613565b92915050565b600081519050611a5181612613565b92915050565b600082601f830112611a6857600080fd5b8151611a788482602086016119b0565b91505092915050565b600081359050611a908161262a565b92915050565b600081519050611aa58161262a565b92915050565b600060208284031215611abd57600080fd5b6000611acb848285016119ee565b91505092915050565b600060208284031215611ae657600080fd5b6000611af484828501611a03565b91505092915050565b600060208284031215611b0f57600080fd5b6000611b1d84828501611a18565b91505092915050565b600080600060608486031215611b3b57600080fd5b6000611b4986828701611a18565b935050602084015167ffffffffffffffff811115611b6657600080fd5b611b7286828701611a57565b9250506040611b8386828701611a96565b9150509250925092565b60008060408385031215611ba057600080fd5b6000611bae85828601611a18565b9250506020611bbf85828601611a96565b9150509250929050565b600060208284031215611bdb57600080fd5b6000611be984828501611a2d565b91505092915050565b600060208284031215611c0457600080fd5b6000611c1284828501611a42565b91505092915050565b60008060408385031215611c2e57600080fd5b6000611c3c85828601611a2d565b9250506020611c4d85828601611a81565b9150509250929050565b60008060008060808587031215611c6d57600080fd5b6000611c7b87828801611a2d565b9450506020611c8c87828801611a81565b9350506040611c9d87828801611a81565b9250506060611cae87828801611a81565b91505092959194509250565b600060208284031215611ccc57600080fd5b600082015167ffffffffffffffff811115611ce657600080fd5b611cf284828501611a57565b91505092915050565b600060208284031215611d0d57600080fd5b6000611d1b84828501611a96565b91505092915050565b6000611d308383611e50565b905092915050565b6000611d448383611f28565b60208301905092915050565b611d59816123cc565b82525050565b6000611d6a8261221c565b611d748185612262565b935083602082028501611d86856121fc565b8060005b85811015611dc25784840389528151611da38582611d24565b9450611dae83612248565b925060208a01995050600181019050611d8a565b50829750879550505050505092915050565b6000611ddf82612227565b611de98185612273565b9350611df48361220c565b8060005b83811015611e25578151611e0c8882611d38565b9750611e1783612255565b925050600181019050611df8565b5085935050505092915050565b611e3b816123de565b82525050565b611e4a816123ea565b82525050565b6000611e5b82612232565b611e658185612284565b9350611e75818560208601612470565b611e7e816125d4565b840191505092915050565b6000611e9482612232565b611e9e8185612295565b9350611eae818560208601612470565b611eb7816125d4565b840191505092915050565b611ecb81612428565b82525050565b611eda8161244c565b82525050565b611ee9816123f4565b82525050565b6000611efa8261223d565b611f0481856122a6565b9350611f14818560208601612470565b611f1d816125d4565b840191505092915050565b611f318161241e565b82525050565b611f408161241e565b82525050565b6000602082019050611f5b6000830184611d50565b92915050565b60006040820190508181036000830152611f7b8185611d5f565b90508181036020830152611f8f8184611dd4565b90509392505050565b6000602082019050611fad6000830184611e32565b92915050565b6000604082019050611fc86000830185611e32565b611fd56020830184611f37565b9392505050565b6000602082019050611ff16000830184611e41565b92915050565b600060408201905061200c6000830185611e41565b6120196020830184611f37565b9392505050565b6000602082019050818103600083015261203a8184611e89565b905092915050565b6000604082019050818103600083015261205c8185611e89565b905061206b6020830184611f37565b9392505050565b60006020820190506120876000830184611ec2565b92915050565b60006020820190506120a26000830184611ed1565b92915050565b60006060820190506120bd6000830186611ee0565b6120ca6020830185611f37565b6120d76040830184611f37565b949350505050565b600060208201905081810360008301526120f98184611eef565b905092915050565b6000606082019050818103600083015261211b8186611eef565b905061212a6020830185611e32565b6121376040830184611f37565b949350505050565b600060808201905081810360008301526121598187611eef565b90506121686020830186611f37565b6121756040830185611f37565b6121826060830184611f37565b95945050505050565b60006020820190506121a06000830184611f37565b92915050565b60006121b06121c1565b90506121bc82826124cd565b919050565b6000604051905090565b600067ffffffffffffffff8211156121e6576121e56125a5565b5b6121ef826125d4565b9050602081019050919050565b6000819050602082019050919050565b6000819050602082019050919050565b600081519050919050565b600081519050919050565b600081519050919050565b600081519050919050565b6000602082019050919050565b6000602082019050919050565b600082825260208201905092915050565b600082825260208201905092915050565b600082825260208201905092915050565b600082825260208201905092915050565b600082825260208201905092915050565b60006122c28261241e565b91506122cd8361241e565b9250827fffffffffffffffffffffffffffffffffffffffffffffffffffffffffffffffff0382111561230257612301612547565b5b828201905092915050565b60006123188261241e565b91506123238361241e565b92508261233357612332612576565b5b828204905092915050565b60006123498261241e565b91506123548361241e565b9250817fffffffffffffffffffffffffffffffffffffffffffffffffffffffffffffffff048311821515161561238d5761238c612547565b5b828202905092915050565b60006123a38261241e565b91506123ae8361241e565b9250828210156123c1576123c0612547565b5b828203905092915050565b60006123d7826123fe565b9050919050565b60008115159050919050565b6000819050919050565b6000819050919050565b600073ffffffffffffffffffffffffffffffffffffffff82169050919050565b6000819050919050565b60006124338261243a565b9050919050565b6000612445826123fe565b9050919050565b60006124578261245e565b9050919050565b6000612469826123fe565b9050919050565b60005b8381101561248e578082015181840152602081019050612473565b8381111561249d576000848401525b50505050565b60006124ae8261241e565b915060008214156124c2576124c1612547565b5b600182039050919050565b6124d6826125d4565b810181811067ffffffffffffffff821117156124f5576124f46125a5565b5b80604052505050565b60006125098261241e565b91507fffffffffffffffffffffffffffffffffffffffffffffffffffffffffffffffff82141561253c5761253b612547565b5b600182019050919050565b7f4e487b7100000000000000000000000000000000000000000000000000000000600052601160045260246000fd5b7f4e487b7100000000000000000000000000000000000000000000000000000000600052601260045260246000fd5b7f4e487b7100000000000000000000000000000000000000000000000000000000600052604160045260246000fd5b6000601f19601f8301169050919050565b6125ee816123cc565b81146125f957600080fd5b50565b612605816123de565b811461261057600080fd5b50565b61261c816123ea565b811461262757600080fd5b50565b6126338161241e565b811461263e57600080fd5b5056fe4054494d455354414d505f52455452494556454420475245415445525f5448414e2054494d455354414d504054494d455354414d505f524554524945564544204c4553535f5448414e5f4f525f455155414c5f544f2054494d455354414d504054494d455354414d505f524554524945564544204e4f5420494e20444953505554452a2a2a2a2a2a2a2a2a2a2a20676574496e646578466f72446174614166746572202a2a2a2a2a2a2a2a2a2a2aa2646970667358221220446a552f9fe6d66da38473f5628d7a5e6aa976c0f50462272d751b2e60fa825e64736f6c63430008030033",
  "linkReferences": {},
  "deployedLinkReferences": {}
}