{
  "_format": "hh-sol-artifact-1",
  "contractName": "UsingTellor",
  "sourceName": "contracts/UsingTellor.sol",
  "abi": [
    {
      "inputs": [
        {
          "internalType": "address payable",
          "name": "_tellor",
          "type": "address"
        }
      ],
      "stateMutability": "nonpayable",
      "type": "constructor"
    },
    {
      "inputs": [
        {
          "internalType": "bytes32",
          "name": "_queryId",
          "type": "bytes32"
        }
      ],
      "name": "getCurrentValue",
      "outputs": [
        {
          "internalType": "bool",
          "name": "_ifRetrieve",
          "type": "bool"
        },
        {
          "internalType": "bytes",
          "name": "_value",
          "type": "bytes"
        },
        {
          "internalType": "uint256",
          "name": "_timestampRetrieved",
          "type": "uint256"
        }
      ],
      "stateMutability": "view",
      "type": "function"
    },
    {
      "inputs": [
        {
          "internalType": "bytes32",
          "name": "_queryId",
          "type": "bytes32"
        },
        {
          "internalType": "uint256",
          "name": "_timestamp",
          "type": "uint256"
        }
      ],
      "name": "getDataBefore",
      "outputs": [
        {
          "internalType": "bool",
          "name": "_ifRetrieve",
          "type": "bool"
        },
        {
          "internalType": "bytes",
          "name": "_value",
          "type": "bytes"
        },
        {
          "internalType": "uint256",
          "name": "_timestampRetrieved",
          "type": "uint256"
        }
      ],
      "stateMutability": "view",
      "type": "function"
    },
    {
      "inputs": [
        {
          "internalType": "bytes32",
          "name": "_queryId",
          "type": "bytes32"
        },
        {
          "internalType": "uint256",
          "name": "_timestamp",
          "type": "uint256"
        }
      ],
      "name": "getIndexForDataBefore",
      "outputs": [
        {
          "internalType": "bool",
          "name": "_found",
          "type": "bool"
        },
        {
          "internalType": "uint256",
          "name": "_index",
          "type": "uint256"
        }
      ],
      "stateMutability": "view",
      "type": "function"
    },
    {
      "inputs": [
        {
          "internalType": "bytes32",
          "name": "_queryId",
          "type": "bytes32"
        }
      ],
      "name": "getNewValueCountbyQueryId",
      "outputs": [
        {
          "internalType": "uint256",
          "name": "",
          "type": "uint256"
        }
      ],
      "stateMutability": "view",
      "type": "function"
    },
    {
      "inputs": [
        {
          "internalType": "bytes32",
          "name": "_queryId",
          "type": "bytes32"
        },
        {
          "internalType": "uint256",
          "name": "_index",
          "type": "uint256"
        }
      ],
      "name": "getTimestampbyQueryIdandIndex",
      "outputs": [
        {
          "internalType": "uint256",
          "name": "",
          "type": "uint256"
        }
      ],
      "stateMutability": "view",
      "type": "function"
    },
    {
      "inputs": [
        {
          "internalType": "bytes32",
          "name": "_queryId",
          "type": "bytes32"
        },
        {
          "internalType": "uint256",
          "name": "_timestamp",
          "type": "uint256"
        }
      ],
      "name": "isInDispute",
      "outputs": [
        {
          "internalType": "bool",
          "name": "",
          "type": "bool"
        }
      ],
      "stateMutability": "view",
      "type": "function"
    },
    {
      "inputs": [
        {
          "internalType": "bytes32",
          "name": "_queryId",
          "type": "bytes32"
        },
        {
          "internalType": "uint256",
          "name": "_timestamp",
          "type": "uint256"
        }
      ],
      "name": "retrieveData",
      "outputs": [
        {
          "internalType": "bytes",
          "name": "",
          "type": "bytes"
        }
      ],
      "stateMutability": "view",
      "type": "function"
    },
    {
      "inputs": [],
      "name": "tellor",
      "outputs": [
        {
          "internalType": "contract ITellor",
          "name": "",
          "type": "address"
        }
      ],
      "stateMutability": "view",
      "type": "function"
    }
  ],
  "bytecode": "0x60806040523480156200001157600080fd5b506040516200191e3803806200191e833981810160405281019062000037919062000095565b806000806101000a81548173ffffffffffffffffffffffffffffffffffffffff021916908373ffffffffffffffffffffffffffffffffffffffff160217905550506200010f565b6000815190506200008f81620000f5565b92915050565b600060208284031215620000a857600080fd5b6000620000b8848285016200007e565b91505092915050565b6000620000ce82620000d5565b9050919050565b600073ffffffffffffffffffffffffffffffffffffffff82169050919050565b6200010081620000c1565b81146200010c57600080fd5b50565b6117ff806200011f6000396000f3fe608060405234801561001057600080fd5b50600436106100885760003560e01c8063a792765f1161005b578063a792765f1461013c578063adf1639d1461016e578063c5958af9146101a0578063ce5e11bf146101d057610088565b80631959ad5b1461008d57806329449085146100ab57806344e87f91146100dc57806377b03e0d1461010c575b600080fd5b610095610200565b6040516100a29190611435565b60405180910390f35b6100c560048036038101906100c091906111a0565b610224565b6040516100d39291906113a6565b60405180910390f35b6100f660048036038101906100f191906111a0565b610768565b604051610103919061134d565b60405180910390f35b61012660048036038101906101219190611177565b6108fd565b6040516101339190611450565b60405180910390f35b610156600480360381019061015191906111a0565b6109b0565b60405161016593929190611368565b60405180910390f35b61018860048036038101906101839190611177565b610baa565b60405161019793929190611368565b60405180910390f35b6101ba60048036038101906101b591906111a0565b610e4b565b6040516101c79190611413565b60405180910390f35b6101ea60048036038101906101e591906111a0565b610f05565b6040516101f79190611450565b60405180910390f35b60008054906101000a900473ffffffffffffffffffffffffffffffffffffffff1681565b60008060008060009054906101000a900473ffffffffffffffffffffffffffffffffffffffff1673ffffffffffffffffffffffffffffffffffffffff166377b03e0d866040518263ffffffff1660e01b815260040161028391906113cf565b60206040518083038186803b15801561029b57600080fd5b505afa1580156102af573d6000803e3d6000fd5b505050506040513d601f19601f820116820180604052508101906102d3919061121d565b90506000811115610758576000806000905060006001846102f4919061159b565b905060008060009054906101000a900473ffffffffffffffffffffffffffffffffffffffff1673ffffffffffffffffffffffffffffffffffffffff1663ce5e11bf8a856040518363ffffffff1660e01b81526004016103549291906113ea565b60206040518083038186803b15801561036c57600080fd5b505afa158015610380573d6000803e3d6000fd5b505050506040513d601f19601f820116820180604052508101906103a4919061121d565b90508781106103be57600080965096505050505050610761565b60008054906101000a900473ffffffffffffffffffffffffffffffffffffffff1673ffffffffffffffffffffffffffffffffffffffff1663ce5e11bf8a846040518363ffffffff1660e01b81526004016104199291906113ea565b60206040518083038186803b15801561043157600080fd5b505afa158015610445573d6000803e3d6000fd5b505050506040513d601f19601f82011682018060405250810190610469919061121d565b90508781101561048457600182965096505050505050610761565b5b600115610753578260016002858561049d919061159b565b6104a7919061156a565b6104b19190611514565b6104bb9190611514565b935060008054906101000a900473ffffffffffffffffffffffffffffffffffffffff1673ffffffffffffffffffffffffffffffffffffffff1663ce5e11bf8a866040518363ffffffff1660e01b81526004016105189291906113ea565b60206040518083038186803b15801561053057600080fd5b505afa158015610544573d6000803e3d6000fd5b505050506040513d601f19601f82011682018060405250810190610568919061121d565b90508781101561065c5760008060009054906101000a900473ffffffffffffffffffffffffffffffffffffffff1673ffffffffffffffffffffffffffffffffffffffff1663ce5e11bf8b6001886105bf9190611514565b6040518363ffffffff1660e01b81526004016105dc9291906113ea565b60206040518083038186803b1580156105f457600080fd5b505afa158015610608573d6000803e3d6000fd5b505050506040513d601f19601f8201168201806040525081019061062c919061121d565b90508881106106475760018597509750505050505050610761565b6001856106549190611514565b93505061074e565b60008060009054906101000a900473ffffffffffffffffffffffffffffffffffffffff1673ffffffffffffffffffffffffffffffffffffffff1663ce5e11bf8b6001886106a9919061159b565b6040518363ffffffff1660e01b81526004016106c69291906113ea565b60206040518083038186803b1580156106de57600080fd5b505afa1580156106f2573d6000803e3d6000fd5b505050506040513d601f19601f82011682018060405250810190610716919061121d565b90508881101561073d576001808661072e919061159b565b97509750505050505050610761565b60018561074a919061159b565b9250505b610485565b505050505b60008092509250505b9250929050565b60008060008054906101000a900473ffffffffffffffffffffffffffffffffffffffff1673ffffffffffffffffffffffffffffffffffffffff1663699f200f6040516020016107b690611338565b604051602081830303815290604052805190602001206040518263ffffffff1660e01b81526004016107e891906113cf565b60206040518083038186803b15801561080057600080fd5b505afa158015610814573d6000803e3d6000fd5b505050506040513d601f19601f82011682018060405250810190610838919061110d565b905060008173ffffffffffffffffffffffffffffffffffffffff1663248638e5868660405160200161086b92919061130c565b604051602081830303815290604052805190602001206040518263ffffffff1660e01b815260040161089d91906113cf565b60006040518083038186803b1580156108b557600080fd5b505afa1580156108c9573d6000803e3d6000fd5b505050506040513d6000823e3d601f19601f820116820180604052508101906108f29190611136565b511191505092915050565b60008060009054906101000a900473ffffffffffffffffffffffffffffffffffffffff1673ffffffffffffffffffffffffffffffffffffffff166377b03e0d836040518263ffffffff1660e01b815260040161095991906113cf565b60206040518083038186803b15801561097157600080fd5b505afa158015610985573d6000803e3d6000fd5b505050506040513d601f19601f820116820180604052508101906109a9919061121d565b9050919050565b6000606060008060006109c38787610224565b91509150816109ed5760006040518060200160405280600081525060009450945094505050610ba3565b60008060009054906101000a900473ffffffffffffffffffffffffffffffffffffffff1673ffffffffffffffffffffffffffffffffffffffff1663ce5e11bf89846040518363ffffffff1660e01b8152600401610a4b9291906113ea565b60206040518083038186803b158015610a6357600080fd5b505afa158015610a77573d6000803e3d6000fd5b505050506040513d601f19601f82011682018060405250810190610a9b919061121d565b905060008054906101000a900473ffffffffffffffffffffffffffffffffffffffff1673ffffffffffffffffffffffffffffffffffffffff1663c5958af989836040518363ffffffff1660e01b8152600401610af89291906113ea565b60006040518083038186803b158015610b1057600080fd5b505afa158015610b24573d6000803e3d6000fd5b505050506040513d6000823e3d601f19601f82011682018060405250810190610b4d91906111dc565b94506040518060200160405280600081525080519060200120858051906020012014610b855760018582955095509550505050610ba3565b60006040518060200160405280600081525060009550955095505050505b9250925092565b6000606060008060008054906101000a900473ffffffffffffffffffffffffffffffffffffffff1673ffffffffffffffffffffffffffffffffffffffff166377b03e0d866040518263ffffffff1660e01b8152600401610c0a91906113cf565b60206040518083038186803b158015610c2257600080fd5b505afa158015610c36573d6000803e3d6000fd5b505050506040513d601f19601f82011682018060405250810190610c5a919061121d565b90506000811415610c8557600060405180602001604052806000815250600093509350935050610e44565b60008060009054906101000a900473ffffffffffffffffffffffffffffffffffffffff1673ffffffffffffffffffffffffffffffffffffffff1663ce5e11bf87600185610cd2919061159b565b6040518363ffffffff1660e01b8152600401610cef9291906113ea565b60206040518083038186803b158015610d0757600080fd5b505afa158015610d1b573d6000803e3d6000fd5b505050506040513d601f19601f82011682018060405250810190610d3f919061121d565b905060008054906101000a900473ffffffffffffffffffffffffffffffffffffffff1673ffffffffffffffffffffffffffffffffffffffff1663c5958af987836040518363ffffffff1660e01b8152600401610d9c9291906113ea565b60006040518083038186803b158015610db457600080fd5b505afa158015610dc8573d6000803e3d6000fd5b505050506040513d6000823e3d601f19601f82011682018060405250810190610df191906111dc565b93506040518060200160405280600081525080519060200120848051906020012014610e2857600184829450945094505050610e44565b6000604051806020016040528060008152508294509450945050505b9193909250565b606060008054906101000a900473ffffffffffffffffffffffffffffffffffffffff1673ffffffffffffffffffffffffffffffffffffffff1663c5958af984846040518363ffffffff1660e01b8152600401610ea89291906113ea565b60006040518083038186803b158015610ec057600080fd5b505afa158015610ed4573d6000803e3d6000fd5b505050506040513d6000823e3d601f19601f82011682018060405250810190610efd91906111dc565b905092915050565b60008060009054906101000a900473ffffffffffffffffffffffffffffffffffffffff1673ffffffffffffffffffffffffffffffffffffffff1663ce5e11bf84846040518363ffffffff1660e01b8152600401610f639291906113ea565b60206040518083038186803b158015610f7b57600080fd5b505afa158015610f8f573d6000803e3d6000fd5b505050506040513d601f19601f82011682018060405250810190610fb3919061121d565b905092915050565b6000610fce610fc984611490565b61146b565b90508083825260208201905082856020860282011115610fed57600080fd5b60005b8581101561101d578161100388826110f8565b845260208401935060208301925050600181019050610ff0565b5050509392505050565b600061103a611035846114bc565b61146b565b90508281526020810184848401111561105257600080fd5b61105d848285611645565b509392505050565b60008151905061107481611784565b92915050565b600082601f83011261108b57600080fd5b815161109b848260208601610fbb565b91505092915050565b6000813590506110b38161179b565b92915050565b600082601f8301126110ca57600080fd5b81516110da848260208601611027565b91505092915050565b6000813590506110f2816117b2565b92915050565b600081519050611107816117b2565b92915050565b60006020828403121561111f57600080fd5b600061112d84828501611065565b91505092915050565b60006020828403121561114857600080fd5b600082015167ffffffffffffffff81111561116257600080fd5b61116e8482850161107a565b91505092915050565b60006020828403121561118957600080fd5b6000611197848285016110a4565b91505092915050565b600080604083850312156111b357600080fd5b60006111c1858286016110a4565b92505060206111d2858286016110e3565b9150509250929050565b6000602082840312156111ee57600080fd5b600082015167ffffffffffffffff81111561120857600080fd5b611214848285016110b9565b91505092915050565b60006020828403121561122f57600080fd5b600061123d848285016110f8565b91505092915050565b61124f816115e1565b82525050565b61125e816115ed565b82525050565b611275611270826115ed565b6116a9565b82525050565b6000611286826114ed565b61129081856114f8565b93506112a0818560208601611645565b6112a98161174a565b840191505092915050565b6112bd81611621565b82525050565b60006112d0601483611509565b91506112db8261175b565b601482019050919050565b6112ef81611617565b82525050565b61130661130182611617565b6116b3565b82525050565b60006113188285611264565b60208201915061132882846112f5565b6020820191508190509392505050565b6000611343826112c3565b9150819050919050565b60006020820190506113626000830184611246565b92915050565b600060608201905061137d6000830186611246565b818103602083015261138f818561127b565b905061139e60408301846112e6565b949350505050565b60006040820190506113bb6000830185611246565b6113c860208301846112e6565b9392505050565b60006020820190506113e46000830184611255565b92915050565b60006040820190506113ff6000830185611255565b61140c60208301846112e6565b9392505050565b6000602082019050818103600083015261142d818461127b565b905092915050565b600060208201905061144a60008301846112b4565b92915050565b600060208201905061146560008301846112e6565b92915050565b6000611475611486565b90506114818282611678565b919050565b6000604051905090565b600067ffffffffffffffff8211156114ab576114aa61171b565b5b602082029050602081019050919050565b600067ffffffffffffffff8211156114d7576114d661171b565b5b6114e08261174a565b9050602081019050919050565b600081519050919050565b600082825260208201905092915050565b600081905092915050565b600061151f82611617565b915061152a83611617565b9250827fffffffffffffffffffffffffffffffffffffffffffffffffffffffffffffffff0382111561155f5761155e6116bd565b5b828201905092915050565b600061157582611617565b915061158083611617565b9250826115905761158f6116ec565b5b828204905092915050565b60006115a682611617565b91506115b183611617565b9250828210156115c4576115c36116bd565b5b828203905092915050565b60006115da826115f7565b9050919050565b60008115159050919050565b6000819050919050565b600073ffffffffffffffffffffffffffffffffffffffff82169050919050565b6000819050919050565b600061162c82611633565b9050919050565b600061163e826115f7565b9050919050565b60005b83811015611663578082015181840152602081019050611648565b83811115611672576000848401525b50505050565b6116818261174a565b810181811067ffffffffffffffff821117156116a05761169f61171b565b5b80604052505050565b6000819050919050565b6000819050919050565b7f4e487b7100000000000000000000000000000000000000000000000000000000600052601160045260246000fd5b7f4e487b7100000000000000000000000000000000000000000000000000000000600052601260045260246000fd5b7f4e487b7100000000000000000000000000000000000000000000000000000000600052604160045260246000fd5b6000601f19601f8301169050919050565b7f5f474f5645524e414e43455f434f4e5452414354000000000000000000000000600082015250565b61178d816115cf565b811461179857600080fd5b50565b6117a4816115ed565b81146117af57600080fd5b50565b6117bb81611617565b81146117c657600080fd5b5056fea264697066735822122087d445875e71474b1e5b33445dee2e653c2879d8b4478c1068cfb1dbc7bac3e264736f6c63430008030033",
  "linkReferences": {},
  "deployedLinkReferences": {}
}