{
  "_format": "hh-sol-artifact-1",
  "contractName": "UsingTellor",
  "sourceName": "contracts/UsingTellor.sol",
  "abi": [
    {
      "inputs": [
        {
          "internalType": "address payable",
          "name": "_tellor",
          "type": "address"
        }
      ],
      "stateMutability": "nonpayable",
      "type": "constructor"
    },
    {
      "inputs": [
        {
          "internalType": "bytes32",
          "name": "_queryId",
          "type": "bytes32"
        },
        {
          "internalType": "uint256",
          "name": "_timestamp",
          "type": "uint256"
        }
      ],
      "name": "getDataAfter",
      "outputs": [
        {
          "internalType": "bytes",
          "name": "_value",
          "type": "bytes"
        },
        {
          "internalType": "uint256",
          "name": "_timestampRetrieved",
          "type": "uint256"
        }
      ],
      "stateMutability": "view",
      "type": "function"
    },
    {
      "inputs": [
        {
          "internalType": "bytes32",
          "name": "_queryId",
          "type": "bytes32"
        },
        {
          "internalType": "uint256",
          "name": "_timestamp",
          "type": "uint256"
        }
      ],
      "name": "getDataBefore",
      "outputs": [
        {
          "internalType": "bytes",
          "name": "_value",
          "type": "bytes"
        },
        {
          "internalType": "uint256",
          "name": "_timestampRetrieved",
          "type": "uint256"
        }
      ],
      "stateMutability": "view",
      "type": "function"
    },
    {
      "inputs": [
        {
          "internalType": "bytes32",
          "name": "_queryId",
          "type": "bytes32"
        },
        {
          "internalType": "uint256",
          "name": "_timestamp",
          "type": "uint256"
        }
      ],
      "name": "getIndexForDataAfter",
      "outputs": [
        {
          "internalType": "bool",
          "name": "_found",
          "type": "bool"
        },
        {
          "internalType": "uint256",
          "name": "_index",
          "type": "uint256"
        }
      ],
      "stateMutability": "view",
      "type": "function"
    },
    {
      "inputs": [
        {
          "internalType": "bytes32",
          "name": "_queryId",
          "type": "bytes32"
        },
        {
          "internalType": "uint256",
          "name": "_timestamp",
          "type": "uint256"
        }
      ],
      "name": "getIndexForDataAfterOld",
      "outputs": [
        {
          "internalType": "bool",
          "name": "_found",
          "type": "bool"
        },
        {
          "internalType": "uint256",
          "name": "_index",
          "type": "uint256"
        }
      ],
      "stateMutability": "view",
      "type": "function"
    },
    {
      "inputs": [
        {
          "internalType": "bytes32",
          "name": "_queryId",
          "type": "bytes32"
        },
        {
          "internalType": "uint256",
          "name": "_timestamp",
          "type": "uint256"
        }
      ],
      "name": "getIndexForDataBefore",
      "outputs": [
        {
          "internalType": "bool",
          "name": "_found",
          "type": "bool"
        },
        {
          "internalType": "uint256",
          "name": "_index",
          "type": "uint256"
        }
      ],
      "stateMutability": "view",
      "type": "function"
    },
    {
      "inputs": [
        {
          "internalType": "bytes32",
          "name": "_queryId",
          "type": "bytes32"
        },
        {
          "internalType": "uint256",
          "name": "_timestamp",
          "type": "uint256"
        },
        {
          "internalType": "uint256",
          "name": "_maxAge",
          "type": "uint256"
        },
        {
          "internalType": "uint256",
          "name": "_maxCount",
          "type": "uint256"
        }
      ],
      "name": "getMultipleValuesBefore",
      "outputs": [
        {
          "internalType": "bytes[]",
          "name": "_values",
          "type": "bytes[]"
        },
        {
          "internalType": "uint256[]",
          "name": "_timestamps",
          "type": "uint256[]"
        }
      ],
      "stateMutability": "view",
      "type": "function"
    },
    {
      "inputs": [
        {
          "internalType": "bytes32",
          "name": "_queryId",
          "type": "bytes32"
        }
      ],
      "name": "getNewValueCountbyQueryId",
      "outputs": [
        {
          "internalType": "uint256",
          "name": "",
          "type": "uint256"
        }
      ],
      "stateMutability": "view",
      "type": "function"
    },
    {
      "inputs": [
        {
          "internalType": "bytes32",
          "name": "_queryId",
          "type": "bytes32"
        },
        {
          "internalType": "uint256",
          "name": "_timestamp",
          "type": "uint256"
        }
      ],
      "name": "getReporterByTimestamp",
      "outputs": [
        {
          "internalType": "address",
          "name": "",
          "type": "address"
        }
      ],
      "stateMutability": "view",
      "type": "function"
    },
    {
      "inputs": [
        {
          "internalType": "bytes32",
          "name": "_queryId",
          "type": "bytes32"
        },
        {
          "internalType": "uint256",
          "name": "_index",
          "type": "uint256"
        }
      ],
      "name": "getTimestampbyQueryIdandIndex",
      "outputs": [
        {
          "internalType": "uint256",
          "name": "",
          "type": "uint256"
        }
      ],
      "stateMutability": "view",
      "type": "function"
    },
    {
      "inputs": [],
      "name": "idMappingContract",
      "outputs": [
        {
          "internalType": "contract IMappingContract",
          "name": "",
          "type": "address"
        }
      ],
      "stateMutability": "view",
      "type": "function"
    },
    {
      "inputs": [
        {
          "internalType": "bytes32",
          "name": "_queryId",
          "type": "bytes32"
        },
        {
          "internalType": "uint256",
          "name": "_timestamp",
          "type": "uint256"
        }
      ],
      "name": "isInDispute",
      "outputs": [
        {
          "internalType": "bool",
          "name": "",
          "type": "bool"
        }
      ],
      "stateMutability": "view",
      "type": "function"
    },
    {
      "inputs": [
        {
          "internalType": "bytes32",
          "name": "_queryId",
          "type": "bytes32"
        },
        {
          "internalType": "uint256",
          "name": "_timestamp",
          "type": "uint256"
        }
      ],
      "name": "retrieveData",
      "outputs": [
        {
          "internalType": "bytes",
          "name": "",
          "type": "bytes"
        }
      ],
      "stateMutability": "view",
      "type": "function"
    },
    {
      "inputs": [
        {
          "internalType": "address",
          "name": "_addy",
          "type": "address"
        }
      ],
      "name": "setIdMappingContract",
      "outputs": [],
      "stateMutability": "nonpayable",
      "type": "function"
    },
    {
      "inputs": [],
      "name": "tellor",
      "outputs": [
        {
          "internalType": "contract ITellor",
          "name": "",
          "type": "address"
        }
      ],
      "stateMutability": "view",
      "type": "function"
    },
    {
      "inputs": [
        {
          "internalType": "bytes32",
          "name": "_id",
          "type": "bytes32"
        }
      ],
      "name": "valueFor",
      "outputs": [
        {
          "internalType": "int256",
          "name": "_value",
          "type": "int256"
        },
        {
          "internalType": "uint256",
          "name": "_timestamp",
          "type": "uint256"
        },
        {
          "internalType": "uint256",
          "name": "_statusCode",
          "type": "uint256"
        }
      ],
      "stateMutability": "view",
      "type": "function"
    }
  ],
  "bytecode": "0x60806040523480156200001157600080fd5b50604051620029df380380620029df833981810160405281019062000037919062000095565b806000806101000a81548173ffffffffffffffffffffffffffffffffffffffff021916908373ffffffffffffffffffffffffffffffffffffffff160217905550506200010f565b6000815190506200008f81620000f5565b92915050565b600060208284031215620000a857600080fd5b6000620000b8848285016200007e565b91505092915050565b6000620000ce82620000d5565b9050919050565b600073ffffffffffffffffffffffffffffffffffffffff82169050919050565b6200010081620000c1565b81146200010c57600080fd5b50565b6128c0806200011f6000396000f3fe608060405234801561001057600080fd5b50600436106100f55760003560e01c8063a792765f11610097578063e07c548611610066578063e07c5486146102d6578063f66f49c314610306578063f78eea8314610337578063fcd4a54614610369576100f5565b8063a792765f14610214578063ac54598414610245578063c5958af914610276578063ce5e11bf146102a6576100f5565b80632af8aae0116100d35780632af8aae01461016557806344e87f911461018357806364ee3c6d146101b357806377b03e0d146101e4576100f5565b8063193b505b146100fa5780631959ad5b146101165780632944908514610134575b600080fd5b610114600480360381019061010f9190611c46565b61039a565b005b61011e610439565b60405161012b9190612228565b60405180910390f35b61014e60048036038101906101499190611db6565b61045d565b60405161015c92919061214e565b60405180910390f35b61016d610515565b60405161017a919061220d565b60405180910390f35b61019d60048036038101906101989190611db6565b61053b565b6040516101aa9190612133565b60405180910390f35b6101cd60048036038101906101c89190611db6565b6105f1565b6040516101db9291906121dd565b60405180910390f35b6101fe60048036038101906101f99190611d64565b61068b565b60405161020b9190612326565b60405180910390f35b61022e60048036038101906102299190611db6565b61073e565b60405161023c9291906121dd565b60405180910390f35b61025f600480360381019061025a9190611db6565b610805565b60405161026d92919061214e565b60405180910390f35b610290600480360381019061028b9190611db6565b610c0c565b60405161029d91906121bb565b60405180910390f35b6102c060048036038101906102bb9190611db6565b610cc6565b6040516102cd9190612326565b60405180910390f35b6102f060048036038101906102eb9190611db6565b610d7c565b6040516102fd91906120e1565b60405180910390f35b610320600480360381019061031b9190611db6565b610e32565b60405161032e92919061214e565b60405180910390f35b610351600480360381019061034c9190611d64565b61130a565b60405161036093929190612243565b60405180910390f35b610383600480360381019061037e9190611df2565b61144c565b6040516103919291906120fc565b60405180910390f35b600073ffffffffffffffffffffffffffffffffffffffff16600160009054906101000a900473ffffffffffffffffffffffffffffffffffffffff1673ffffffffffffffffffffffffffffffffffffffff16146103f557600080fd5b80600160006101000a81548173ffffffffffffffffffffffffffffffffffffffff021916908373ffffffffffffffffffffffffffffffffffffffff16021790555050565b60008054906101000a900473ffffffffffffffffffffffffffffffffffffffff1681565b60008060008054906101000a900473ffffffffffffffffffffffffffffffffffffffff1673ffffffffffffffffffffffffffffffffffffffff16632944908585856040518363ffffffff1660e01b81526004016104bb929190612192565b604080518083038186803b1580156104d257600080fd5b505afa1580156104e6573d6000803e3d6000fd5b505050506040513d601f19601f8201168201806040525081019061050a9190611d28565b915091509250929050565b600160009054906101000a900473ffffffffffffffffffffffffffffffffffffffff1681565b60008060009054906101000a900473ffffffffffffffffffffffffffffffffffffffff1673ffffffffffffffffffffffffffffffffffffffff166344e87f9184846040518363ffffffff1660e01b8152600401610599929190612192565b60206040518083038186803b1580156105b157600080fd5b505afa1580156105c5573d6000803e3d6000fd5b505050506040513d601f19601f820116820180604052508101906105e99190611c98565b905092915050565b606060008060006106028686610e32565b915091506106466040518060400160405280601481526020017f466f756e643a2025732c20496e6465783a20257300000000000000000000000081525083836118ba565b816106695760006040518060200160405280600081525090935093505050610684565b6106738682610cc6565b925061067f8684610c0c565b935050505b9250929050565b60008060009054906101000a900473ffffffffffffffffffffffffffffffffffffffff1673ffffffffffffffffffffffffffffffffffffffff166377b03e0d836040518263ffffffff1660e01b81526004016106e79190612177565b60206040518083038186803b1580156106ff57600080fd5b505afa158015610713573d6000803e3d6000fd5b505050506040513d601f19601f820116820180604052508101906107379190611e96565b9050919050565b606060008060009054906101000a900473ffffffffffffffffffffffffffffffffffffffff1673ffffffffffffffffffffffffffffffffffffffff1663a792765f85856040518363ffffffff1660e01b815260040161079e929190612192565b60006040518083038186803b1580156107b657600080fd5b505afa1580156107ca573d6000803e3d6000fd5b505050506040513d6000823e3d601f19601f820116820180604052508101906107f39190611cc1565b90915080925081935050509250929050565b60008060008054906101000a900473ffffffffffffffffffffffffffffffffffffffff1673ffffffffffffffffffffffffffffffffffffffff16632944908585856040518363ffffffff1660e01b8152600401610863929190612192565b604080518083038186803b15801561087a57600080fd5b505afa15801561088e573d6000803e3d6000fd5b505050506040513d601f19601f820116820180604052508101906108b29190611d28565b809250819350505081156108cf5780806108cb90612699565b9150505b60008060009054906101000a900473ffffffffffffffffffffffffffffffffffffffff1673ffffffffffffffffffffffffffffffffffffffff166377b03e0d866040518263ffffffff1660e01b815260040161092b9190612177565b60206040518083038186803b15801561094357600080fd5b505afa158015610957573d6000803e3d6000fd5b505050506040513d601f19601f8201168201806040525081019061097b9190611e96565b9050818111610991576000809250925050610c05565b60008060009054906101000a900473ffffffffffffffffffffffffffffffffffffffff1673ffffffffffffffffffffffffffffffffffffffff1663ce5e11bf87856040518363ffffffff1660e01b81526004016109ef929190612192565b60206040518083038186803b158015610a0757600080fd5b505afa158015610a1b573d6000803e3d6000fd5b505050506040513d601f19601f82011682018060405250810190610a3f9190611e96565b9050848111610b19578280610a5390612699565b935050828211610a6b57600080935093505050610c05565b60008054906101000a900473ffffffffffffffffffffffffffffffffffffffff1673ffffffffffffffffffffffffffffffffffffffff1663ce5e11bf87856040518363ffffffff1660e01b8152600401610ac6929190612192565b60206040518083038186803b158015610ade57600080fd5b505afa158015610af2573d6000803e3d6000fd5b505050506040513d601f19601f82011682018060405250810190610b169190611e96565b90505b5b610b24868261053b565b15610bfe578280610b3490612699565b935050828211610b4c57600080935093505050610c05565b60008054906101000a900473ffffffffffffffffffffffffffffffffffffffff1673ffffffffffffffffffffffffffffffffffffffff1663ce5e11bf87856040518363ffffffff1660e01b8152600401610ba7929190612192565b60206040518083038186803b158015610bbf57600080fd5b505afa158015610bd3573d6000803e3d6000fd5b505050506040513d601f19601f82011682018060405250810190610bf79190611e96565b9050610b1a565b6001935050505b9250929050565b606060008054906101000a900473ffffffffffffffffffffffffffffffffffffffff1673ffffffffffffffffffffffffffffffffffffffff1663c5958af984846040518363ffffffff1660e01b8152600401610c69929190612192565b60006040518083038186803b158015610c8157600080fd5b505afa158015610c95573d6000803e3d6000fd5b505050506040513d6000823e3d601f19601f82011682018060405250810190610cbe9190611e55565b905092915050565b60008060009054906101000a900473ffffffffffffffffffffffffffffffffffffffff1673ffffffffffffffffffffffffffffffffffffffff1663ce5e11bf84846040518363ffffffff1660e01b8152600401610d24929190612192565b60206040518083038186803b158015610d3c57600080fd5b505afa158015610d50573d6000803e3d6000fd5b505050506040513d601f19601f82011682018060405250810190610d749190611e96565b905092915050565b60008060009054906101000a900473ffffffffffffffffffffffffffffffffffffffff1673ffffffffffffffffffffffffffffffffffffffff1663e07c548684846040518363ffffffff1660e01b8152600401610dda929190612192565b60206040518083038186803b158015610df257600080fd5b505afa158015610e06573d6000803e3d6000fd5b505050506040513d601f19601f82011682018060405250810190610e2a9190611c6f565b905092915050565b600080610e566040518060600160405280602c815260200161285f602c9139611959565b6000610e618561068b565b905060008111156112fa578080610e779061263e565b9150506000806000905060008390506000610e928983610cc6565b9050878111610eac57600080965096505050505050611303565b610eb68984610cc6565b905087811115610f5557610eca898261053b565b610edf57600183965096505050505050611303565b5b610eea898261053b565b8015610ef557508483105b15610f19578280610f0590612699565b935050610f128984610cc6565b9050610ee0565b8483148015610f2e5750610f2d898261053b565b5b15610f4457600080965096505050505050611303565b600183965096505050505050611303565b5b6001156112f557610f9b6040518060400160405280601681526020017f4056414c5f57495448494e5f424f554e44415249455300000000000000000000815250611959565b82600160028585610fac9190612533565b610fb691906124a8565b610fc09190612452565b610fca9190612452565b935061100d6040518060400160405280601f81526020017f4053544152543a2025732c20454e443a2025732c204d4944444c453a202573008152508484876119f2565b6110178985610cc6565b90508781111561116f576110426040518060600160405280602b81526020016127dd602b9139611959565b600061105a8a6001876110559190612533565b610cc6565b905088811161115a5761106d8a8361053b565b6110a45761109260405180606001604052806023815260200161283c60239139611959565b60018597509750505050505050611303565b5b6110af8a8361053b565b80156110ba57508585105b1561111c576110fd6040518060400160405280601f81526020017f4054494d455354414d505f52455452494556454420494e204449535055544500815250611959565b848061110890612699565b9550506111158a86610cc6565b91506110a5565b858514801561113157506111308a8361053b565b5b156111485760008097509750505050505050611303565b60018597509750505050505050611303565b6001856111679190612533565b9250506112f0565b61119060405180606001604052806034815260200161280860349139611959565b60006111a88a6001876111a39190612452565b610cc6565b9050888111156112df576111bc8a8261053b565b61121b576111fe6040518060400160405280601e81526020017f404e4558545f54494d455354414d50204e4f5420494e20444953505554450000815250611959565b6001808661120c9190612452565b97509750505050505050611303565b848061122690612699565b9550505b6112348a8261053b565b801561123f57508585105b156112a1576112826040518060400160405280601a81526020017f404e4558545f54494d455354414d5020494e2044495350555445000000000000815250611959565b848061128d90612699565b95505061129a8a86610cc6565b905061122a565b85851480156112b657506112b58a8261053b565b5b156112cd5760008097509750505050505050611303565b60018597509750505050505050611303565b6001856112ec9190612452565b9350505b610f56565b505050505b60008092509250505b9250929050565b6000806000600160009054906101000a900473ffffffffffffffffffffffffffffffffffffffff1673ffffffffffffffffffffffffffffffffffffffff166387a475fd856040518263ffffffff1660e01b815260040161136a9190612177565b60206040518083038186803b15801561138257600080fd5b505afa158015611396573d6000803e3d6000fd5b505050506040513d601f19601f820116820180604052508101906113ba9190611d8d565b935060006113c78561068b565b905060008114156113e45760008061019493509350935050611445565b6113fa856001836113f59190612533565b610cc6565b925060006114088685610c0c565b9050600081511415611427576000806101949450945094505050611445565b600061143282611a94565b9050809550858560c89550955095505050505b9193909250565b6060806000806114678887896114629190612533565b610e32565b915091508161156057600067ffffffffffffffff8111156114b1577f4e487b7100000000000000000000000000000000000000000000000000000000600052604160045260246000fd5b6040519080825280602002602001820160405280156114e457816020015b60608152602001906001900390816114cf5790505b50600067ffffffffffffffff811115611526577f4e487b7100000000000000000000000000000000000000000000000000000000600052604160045260246000fd5b6040519080825280602002602001820160405280156115545781602001602082028036833780820191505090505b509350935050506118b1565b600061156c898961045d565b80925081945050508261166a57600067ffffffffffffffff8111156115ba577f4e487b7100000000000000000000000000000000000000000000000000000000600052604160045260246000fd5b6040519080825280602002602001820160405280156115ed57816020015b60608152602001906001900390816115d85790505b50600067ffffffffffffffff81111561162f577f4e487b7100000000000000000000000000000000000000000000000000000000600052604160045260246000fd5b60405190808252806020026020018201604052801561165d5781602001602082028036833780820191505090505b50945094505050506118b1565b60006001838361167a9190612533565b6116849190612452565b9050868111156116ac576001878361169c9190612533565b6116a69190612452565b92508690505b60008167ffffffffffffffff8111156116ee577f4e487b7100000000000000000000000000000000000000000000000000000000600052604160045260246000fd5b60405190808252806020026020018201604052801561172157816020015b606081526020019060019003908161170c5790505b50905060008267ffffffffffffffff811115611766577f4e487b7100000000000000000000000000000000000000000000000000000000600052604160045260246000fd5b6040519080825280602002602001820160405280156117945781602001602082028036833780820191505090505b509050606060005b848110156118a2576117b98e82896117b49190612452565b610cc6565b8382815181106117f2577f4e487b7100000000000000000000000000000000000000000000000000000000600052603260045260246000fd5b6020026020010181815250506118488e84838151811061183b577f4e487b7100000000000000000000000000000000000000000000000000000000600052603260045260246000fd5b6020026020010151610c0c565b915081848281518110611884577f4e487b7100000000000000000000000000000000000000000000000000000000600052603260045260246000fd5b6020026020010181905250808061189a90612699565b91505061179c565b50828298509850505050505050505b94509492505050565b6119548383836040516024016118d29392919061229c565b6040516020818303038152906040527f291bb9d0000000000000000000000000000000000000000000000000000000007bffffffffffffffffffffffffffffffffffffffffffffffffffffffff19166020820180517bffffffffffffffffffffffffffffffffffffffffffffffffffffffff8381831617835250505050611b22565b505050565b6119ef8160405160240161196d919061227a565b6040516020818303038152906040527f41304fac000000000000000000000000000000000000000000000000000000007bffffffffffffffffffffffffffffffffffffffffffffffffffffffff19166020820180517bffffffffffffffffffffffffffffffffffffffffffffffffffffffff8381831617835250505050611b22565b50565b611a8e84848484604051602401611a0c94939291906122da565b6040516020818303038152906040527f08ee5666000000000000000000000000000000000000000000000000000000007bffffffffffffffffffffffffffffffffffffffffffffffffffffffff19166020820180517bffffffffffffffffffffffffffffffffffffffffffffffffffffffff8381831617835250505050611b22565b50505050565b600080600090505b8251811015611b1c57828181518110611ade577f4e487b7100000000000000000000000000000000000000000000000000000000600052603260045260246000fd5b602001015160f81c60f81b60f81c60ff1661010083611afd91906124d9565b611b079190612452565b91508080611b1490612699565b915050611a9c565b50919050565b60008151905060006a636f6e736f6c652e6c6f679050602083016000808483855afa5050505050565b6000611b5e611b5984612366565b612341565b905082815260208101848484011115611b7657600080fd5b611b8184828561260b565b509392505050565b600081359050611b9881612780565b92915050565b600081519050611bad81612780565b92915050565b600081519050611bc281612797565b92915050565b600081359050611bd7816127ae565b92915050565b600081519050611bec816127ae565b92915050565b600082601f830112611c0357600080fd5b8151611c13848260208601611b4b565b91505092915050565b600081359050611c2b816127c5565b92915050565b600081519050611c40816127c5565b92915050565b600060208284031215611c5857600080fd5b6000611c6684828501611b89565b91505092915050565b600060208284031215611c8157600080fd5b6000611c8f84828501611b9e565b91505092915050565b600060208284031215611caa57600080fd5b6000611cb884828501611bb3565b91505092915050565b600080600060608486031215611cd657600080fd5b6000611ce486828701611bb3565b935050602084015167ffffffffffffffff811115611d0157600080fd5b611d0d86828701611bf2565b9250506040611d1e86828701611c31565b9150509250925092565b60008060408385031215611d3b57600080fd5b6000611d4985828601611bb3565b9250506020611d5a85828601611c31565b9150509250929050565b600060208284031215611d7657600080fd5b6000611d8484828501611bc8565b91505092915050565b600060208284031215611d9f57600080fd5b6000611dad84828501611bdd565b91505092915050565b60008060408385031215611dc957600080fd5b6000611dd785828601611bc8565b9250506020611de885828601611c1c565b9150509250929050565b60008060008060808587031215611e0857600080fd5b6000611e1687828801611bc8565b9450506020611e2787828801611c1c565b9350506040611e3887828801611c1c565b9250506060611e4987828801611c1c565b91505092959194509250565b600060208284031215611e6757600080fd5b600082015167ffffffffffffffff811115611e8157600080fd5b611e8d84828501611bf2565b91505092915050565b600060208284031215611ea857600080fd5b6000611eb684828501611c31565b91505092915050565b6000611ecb8383611feb565b905092915050565b6000611edf83836120c3565b60208301905092915050565b611ef481612567565b82525050565b6000611f05826123b7565b611f0f81856123fd565b935083602082028501611f2185612397565b8060005b85811015611f5d5784840389528151611f3e8582611ebf565b9450611f49836123e3565b925060208a01995050600181019050611f25565b50829750879550505050505092915050565b6000611f7a826123c2565b611f84818561240e565b9350611f8f836123a7565b8060005b83811015611fc0578151611fa78882611ed3565b9750611fb2836123f0565b925050600181019050611f93565b5085935050505092915050565b611fd681612579565b82525050565b611fe581612585565b82525050565b6000611ff6826123cd565b612000818561241f565b935061201081856020860161260b565b6120198161276f565b840191505092915050565b600061202f826123cd565b6120398185612430565b935061204981856020860161260b565b6120528161276f565b840191505092915050565b612066816125c3565b82525050565b612075816125e7565b82525050565b6120848161258f565b82525050565b6000612095826123d8565b61209f8185612441565b93506120af81856020860161260b565b6120b88161276f565b840191505092915050565b6120cc816125b9565b82525050565b6120db816125b9565b82525050565b60006020820190506120f66000830184611eeb565b92915050565b600060408201905081810360008301526121168185611efa565b9050818103602083015261212a8184611f6f565b90509392505050565b60006020820190506121486000830184611fcd565b92915050565b60006040820190506121636000830185611fcd565b61217060208301846120d2565b9392505050565b600060208201905061218c6000830184611fdc565b92915050565b60006040820190506121a76000830185611fdc565b6121b460208301846120d2565b9392505050565b600060208201905081810360008301526121d58184612024565b905092915050565b600060408201905081810360008301526121f78185612024565b905061220660208301846120d2565b9392505050565b6000602082019050612222600083018461205d565b92915050565b600060208201905061223d600083018461206c565b92915050565b6000606082019050612258600083018661207b565b61226560208301856120d2565b61227260408301846120d2565b949350505050565b60006020820190508181036000830152612294818461208a565b905092915050565b600060608201905081810360008301526122b6818661208a565b90506122c56020830185611fcd565b6122d260408301846120d2565b949350505050565b600060808201905081810360008301526122f4818761208a565b905061230360208301866120d2565b61231060408301856120d2565b61231d60608301846120d2565b95945050505050565b600060208201905061233b60008301846120d2565b92915050565b600061234b61235c565b90506123578282612668565b919050565b6000604051905090565b600067ffffffffffffffff82111561238157612380612740565b5b61238a8261276f565b9050602081019050919050565b6000819050602082019050919050565b6000819050602082019050919050565b600081519050919050565b600081519050919050565b600081519050919050565b600081519050919050565b6000602082019050919050565b6000602082019050919050565b600082825260208201905092915050565b600082825260208201905092915050565b600082825260208201905092915050565b600082825260208201905092915050565b600082825260208201905092915050565b600061245d826125b9565b9150612468836125b9565b9250827fffffffffffffffffffffffffffffffffffffffffffffffffffffffffffffffff0382111561249d5761249c6126e2565b5b828201905092915050565b60006124b3826125b9565b91506124be836125b9565b9250826124ce576124cd612711565b5b828204905092915050565b60006124e4826125b9565b91506124ef836125b9565b9250817fffffffffffffffffffffffffffffffffffffffffffffffffffffffffffffffff0483118215151615612528576125276126e2565b5b828202905092915050565b600061253e826125b9565b9150612549836125b9565b92508282101561255c5761255b6126e2565b5b828203905092915050565b600061257282612599565b9050919050565b60008115159050919050565b6000819050919050565b6000819050919050565b600073ffffffffffffffffffffffffffffffffffffffff82169050919050565b6000819050919050565b60006125ce826125d5565b9050919050565b60006125e082612599565b9050919050565b60006125f2826125f9565b9050919050565b600061260482612599565b9050919050565b60005b8381101561262957808201518184015260208101905061260e565b83811115612638576000848401525b50505050565b6000612649826125b9565b9150600082141561265d5761265c6126e2565b5b600182039050919050565b6126718261276f565b810181811067ffffffffffffffff821117156126905761268f612740565b5b80604052505050565b60006126a4826125b9565b91507fffffffffffffffffffffffffffffffffffffffffffffffffffffffffffffffff8214156126d7576126d66126e2565b5b600182019050919050565b7f4e487b7100000000000000000000000000000000000000000000000000000000600052601160045260246000fd5b7f4e487b7100000000000000000000000000000000000000000000000000000000600052601260045260246000fd5b7f4e487b7100000000000000000000000000000000000000000000000000000000600052604160045260246000fd5b6000601f19601f8301169050919050565b61278981612567565b811461279457600080fd5b50565b6127a081612579565b81146127ab57600080fd5b50565b6127b781612585565b81146127c257600080fd5b50565b6127ce816125b9565b81146127d957600080fd5b5056fe4054494d455354414d505f52455452494556454420475245415445525f5448414e2054494d455354414d504054494d455354414d505f524554524945564544204c4553535f5448414e5f4f525f455155414c5f544f2054494d455354414d504054494d455354414d505f524554524945564544204e4f5420494e20444953505554452a2a2a2a2a2a2a2a2a2a2a20676574496e646578466f72446174614166746572202a2a2a2a2a2a2a2a2a2a2aa2646970667358221220f2a5c6f6b1b8f8048b3e03a88bbf5a2cf68dd62483ac86367369585aeff8956f64736f6c63430008030033",
  "linkReferences": {},
  "deployedLinkReferences": {}
}