{
  "_format": "hh-sol-artifact-1",
  "contractName": "UsingTellor",
  "sourceName": "contracts/UsingTellor.sol",
  "abi": [
    {
      "inputs": [
        {
          "internalType": "address payable",
          "name": "_oracle",
          "type": "address"
        },
        {
          "internalType": "address payable",
          "name": "_autopay",
          "type": "address"
        }
      ],
      "stateMutability": "nonpayable",
      "type": "constructor"
    },
    {
      "inputs": [],
      "name": "autopay",
      "outputs": [
        {
          "internalType": "contract ITellor",
          "name": "",
          "type": "address"
        }
      ],
      "stateMutability": "view",
      "type": "function"
    },
    {
      "inputs": [
        {
          "internalType": "bytes32",
          "name": "_queryId",
          "type": "bytes32"
        },
        {
          "internalType": "uint256",
          "name": "_timestamp",
          "type": "uint256"
        }
      ],
      "name": "getDataAfter",
      "outputs": [
        {
          "internalType": "bytes",
          "name": "_value",
          "type": "bytes"
        },
        {
          "internalType": "uint256",
          "name": "_timestampRetrieved",
          "type": "uint256"
        }
      ],
      "stateMutability": "view",
      "type": "function"
    },
    {
      "inputs": [
        {
          "internalType": "bytes32",
          "name": "_queryId",
          "type": "bytes32"
        },
        {
          "internalType": "uint256",
          "name": "_timestamp",
          "type": "uint256"
        }
      ],
      "name": "getDataBefore",
      "outputs": [
        {
          "internalType": "bytes",
          "name": "_value",
          "type": "bytes"
        },
        {
          "internalType": "uint256",
          "name": "_timestampRetrieved",
          "type": "uint256"
        }
      ],
      "stateMutability": "view",
      "type": "function"
    },
    {
      "inputs": [
        {
          "internalType": "bytes32",
          "name": "_queryId",
          "type": "bytes32"
        },
        {
          "internalType": "uint256",
          "name": "_timestamp",
          "type": "uint256"
        }
      ],
      "name": "getIndexForDataAfter",
      "outputs": [
        {
          "internalType": "bool",
          "name": "_found",
          "type": "bool"
        },
        {
          "internalType": "uint256",
          "name": "_index",
          "type": "uint256"
        }
      ],
      "stateMutability": "view",
      "type": "function"
    },
    {
      "inputs": [
        {
          "internalType": "bytes32",
          "name": "_queryId",
          "type": "bytes32"
        },
        {
          "internalType": "uint256",
          "name": "_timestamp",
          "type": "uint256"
        }
      ],
      "name": "getIndexForDataBefore",
      "outputs": [
        {
          "internalType": "bool",
          "name": "_found",
          "type": "bool"
        },
        {
          "internalType": "uint256",
          "name": "_index",
          "type": "uint256"
        }
      ],
      "stateMutability": "view",
      "type": "function"
    },
    {
      "inputs": [
        {
          "internalType": "bytes32",
          "name": "_queryId",
          "type": "bytes32"
        },
        {
          "internalType": "uint256",
          "name": "_timestamp",
          "type": "uint256"
        },
        {
          "internalType": "uint256",
          "name": "_maxAge",
          "type": "uint256"
        },
        {
          "internalType": "uint256",
          "name": "_maxCount",
          "type": "uint256"
        }
      ],
      "name": "getMultipleValuesBefore",
      "outputs": [
        {
          "internalType": "bytes[]",
          "name": "_values",
          "type": "bytes[]"
        },
        {
          "internalType": "uint256[]",
          "name": "_timestamps",
          "type": "uint256[]"
        }
      ],
      "stateMutability": "view",
      "type": "function"
    },
    {
      "inputs": [
        {
          "internalType": "bytes32",
          "name": "_queryId",
          "type": "bytes32"
        }
      ],
      "name": "getNewValueCountbyQueryId",
      "outputs": [
        {
          "internalType": "uint256",
          "name": "",
          "type": "uint256"
        }
      ],
      "stateMutability": "view",
      "type": "function"
    },
    {
      "inputs": [
        {
          "internalType": "bytes32",
          "name": "_queryId",
          "type": "bytes32"
        },
        {
          "internalType": "uint256",
          "name": "_timestamp",
          "type": "uint256"
        }
      ],
      "name": "getReporterByTimestamp",
      "outputs": [
        {
          "internalType": "address",
          "name": "",
          "type": "address"
        }
      ],
      "stateMutability": "view",
      "type": "function"
    },
    {
      "inputs": [
        {
          "internalType": "bytes32",
          "name": "_queryId",
          "type": "bytes32"
        },
        {
          "internalType": "uint256",
          "name": "_index",
          "type": "uint256"
        }
      ],
      "name": "getTimestampbyQueryIdandIndex",
      "outputs": [
        {
          "internalType": "uint256",
          "name": "",
          "type": "uint256"
        }
      ],
      "stateMutability": "view",
      "type": "function"
    },
    {
      "inputs": [],
      "name": "idMappingContract",
      "outputs": [
        {
          "internalType": "contract IMappingContract",
          "name": "",
          "type": "address"
        }
      ],
      "stateMutability": "view",
      "type": "function"
    },
    {
      "inputs": [
        {
          "internalType": "bytes32",
          "name": "_queryId",
          "type": "bytes32"
        },
        {
          "internalType": "uint256",
          "name": "_timestamp",
          "type": "uint256"
        }
      ],
      "name": "isInDispute",
      "outputs": [
        {
          "internalType": "bool",
          "name": "",
          "type": "bool"
        }
      ],
      "stateMutability": "view",
      "type": "function"
    },
    {
      "inputs": [],
      "name": "oracle",
      "outputs": [
        {
          "internalType": "contract ITellor",
          "name": "",
          "type": "address"
        }
      ],
      "stateMutability": "view",
      "type": "function"
    },
    {
      "inputs": [
        {
          "internalType": "bytes32",
          "name": "_queryId",
          "type": "bytes32"
        },
        {
          "internalType": "uint256",
          "name": "_timestamp",
          "type": "uint256"
        }
      ],
      "name": "retrieveData",
      "outputs": [
        {
          "internalType": "bytes",
          "name": "",
          "type": "bytes"
        }
      ],
      "stateMutability": "view",
      "type": "function"
    },
    {
      "inputs": [
        {
          "internalType": "address",
          "name": "_addy",
          "type": "address"
        }
      ],
      "name": "setIdMappingContract",
      "outputs": [],
      "stateMutability": "nonpayable",
      "type": "function"
    },
    {
      "inputs": [
        {
          "internalType": "bytes32",
          "name": "_queryId",
          "type": "bytes32"
        },
        {
          "internalType": "uint256",
          "name": "_reward",
          "type": "uint256"
        },
        {
          "internalType": "uint256",
          "name": "_startTime",
          "type": "uint256"
        },
        {
          "internalType": "uint256",
          "name": "_interval",
          "type": "uint256"
        },
        {
          "internalType": "uint256",
          "name": "_window",
          "type": "uint256"
        },
        {
          "internalType": "uint256",
          "name": "_priceThreshold",
          "type": "uint256"
        },
        {
          "internalType": "uint256",
          "name": "_rewardIncreasePerSecond",
          "type": "uint256"
        },
        {
          "internalType": "bytes",
          "name": "_queryData",
          "type": "bytes"
        },
        {
          "internalType": "uint256",
          "name": "_amount",
          "type": "uint256"
        }
      ],
      "name": "setupDataFeed",
      "outputs": [],
      "stateMutability": "nonpayable",
      "type": "function"
    },
    {
      "inputs": [],
      "name": "tellor",
      "outputs": [
        {
          "internalType": "contract ITellor",
          "name": "",
          "type": "address"
        }
      ],
      "stateMutability": "view",
      "type": "function"
    },
    {
      "inputs": [
        {
          "internalType": "bytes32",
          "name": "_id",
          "type": "bytes32"
        }
      ],
      "name": "valueFor",
      "outputs": [
        {
          "internalType": "int256",
          "name": "_value",
          "type": "int256"
        },
        {
          "internalType": "uint256",
          "name": "_timestamp",
          "type": "uint256"
        },
        {
          "internalType": "uint256",
          "name": "_statusCode",
          "type": "uint256"
        }
      ],
      "stateMutability": "view",
      "type": "function"
    }
  ],
  "bytecode": "0x60806040523480156200001157600080fd5b5060405162002323380380620023238339818101604052810190620000379190620000d8565b81600260006101000a81548173ffffffffffffffffffffffffffffffffffffffff021916908373ffffffffffffffffffffffffffffffffffffffff16021790555080600360006101000a81548173ffffffffffffffffffffffffffffffffffffffff021916908373ffffffffffffffffffffffffffffffffffffffff160217905550505062000167565b600081519050620000d2816200014d565b92915050565b60008060408385031215620000ec57600080fd5b6000620000fc85828601620000c1565b92505060206200010f85828601620000c1565b9150509250929050565b600062000126826200012d565b9050919050565b600073ffffffffffffffffffffffffffffffffffffffff82169050919050565b620001588162000119565b81146200016457600080fd5b50565b6121ac80620001776000396000f3fe608060405234801561001057600080fd5b506004361061010b5760003560e01c80637dc0d1d0116100a2578063ce5e11bf11610071578063ce5e11bf146102e3578063e07c548614610313578063f66f49c314610343578063f78eea8314610374578063fcd4a546146103a65761010b565b80637dc0d1d014610248578063a733d2db14610266578063a792765f14610282578063c5958af9146102b35761010b565b806344e87f91116100de57806344e87f9114610199578063584a67d7146101c957806364ee3c6d146101e757806377b03e0d146102185761010b565b8063193b505b146101105780631959ad5b1461012c578063294490851461014a5780632af8aae01461017b575b600080fd5b61012a600480360381019061012591906115ea565b6103d7565b005b610134610476565b6040516101419190611d05565b60405180910390f35b610164600480360381019061015f919061175a565b61049a565b604051610172929190611b97565b60405180910390f35b610183610552565b6040516101909190611cea565b60405180910390f35b6101b360048036038101906101ae919061175a565b610578565b6040516101c09190611b7c565b60405180910390f35b6101d161062e565b6040516101de9190611d05565b60405180910390f35b61020160048036038101906101fc919061175a565b610654565b60405161020f929190611cba565b60405180910390f35b610232600480360381019061022d9190611708565b6106ae565b60405161023f9190611d57565b60405180910390f35b610250610761565b60405161025d9190611d05565b60405180910390f35b610280600480360381019061027b91906117f9565b610787565b005b61029c6004803603810190610297919061175a565b61082f565b6040516102aa929190611cba565b60405180910390f35b6102cd60048036038101906102c8919061175a565b6108f6565b6040516102da9190611c98565b60405180910390f35b6102fd60048036038101906102f8919061175a565b6109b0565b60405161030a9190611d57565b60405180910390f35b61032d6004803603810190610328919061175a565b610a66565b60405161033a9190611b2a565b60405180910390f35b61035d6004803603810190610358919061175a565b610b1c565b60405161036b929190611b97565b60405180910390f35b61038e60048036038101906103899190611708565b610e49565b60405161039d93929190611d20565b60405180910390f35b6103c060048036038101906103bb9190611796565b610f8b565b6040516103ce929190611b45565b60405180910390f35b600073ffffffffffffffffffffffffffffffffffffffff16600160009054906101000a900473ffffffffffffffffffffffffffffffffffffffff1673ffffffffffffffffffffffffffffffffffffffff161461043257600080fd5b80600160006101000a81548173ffffffffffffffffffffffffffffffffffffffff021916908373ffffffffffffffffffffffffffffffffffffffff16021790555050565b60008054906101000a900473ffffffffffffffffffffffffffffffffffffffff1681565b60008060008054906101000a900473ffffffffffffffffffffffffffffffffffffffff1673ffffffffffffffffffffffffffffffffffffffff16632944908585856040518363ffffffff1660e01b81526004016104f8929190611bdb565b604080518083038186803b15801561050f57600080fd5b505afa158015610523573d6000803e3d6000fd5b505050506040513d601f19601f8201168201806040525081019061054791906116cc565b915091509250929050565b600160009054906101000a900473ffffffffffffffffffffffffffffffffffffffff1681565b60008060009054906101000a900473ffffffffffffffffffffffffffffffffffffffff1673ffffffffffffffffffffffffffffffffffffffff166344e87f9184846040518363ffffffff1660e01b81526004016105d6929190611bdb565b60206040518083038186803b1580156105ee57600080fd5b505afa158015610602573d6000803e3d6000fd5b505050506040513d601f19601f82011682018060405250810190610626919061163c565b905092915050565b600360009054906101000a900473ffffffffffffffffffffffffffffffffffffffff1681565b606060008060006106658686610b1c565b915091508161068c57600060405180602001604052806000815250909350935050506106a7565b61069686826109b0565b92506106a286846108f6565b935050505b9250929050565b60008060009054906101000a900473ffffffffffffffffffffffffffffffffffffffff1673ffffffffffffffffffffffffffffffffffffffff166377b03e0d836040518263ffffffff1660e01b815260040161070a9190611bc0565b60206040518083038186803b15801561072257600080fd5b505afa158015610736573d6000803e3d6000fd5b505050506040513d601f19601f8201168201806040525081019061075a9190611918565b9050919050565b600260009054906101000a900473ffffffffffffffffffffffffffffffffffffffff1681565b600360009054906101000a900473ffffffffffffffffffffffffffffffffffffffff1673ffffffffffffffffffffffffffffffffffffffff1663a733d2db8a8a8a8a8a8a8a8a8a6040518a63ffffffff1660e01b81526004016107f299989796959493929190611c04565b600060405180830381600087803b15801561080c57600080fd5b505af1158015610820573d6000803e3d6000fd5b50505050505050505050505050565b606060008060009054906101000a900473ffffffffffffffffffffffffffffffffffffffff1673ffffffffffffffffffffffffffffffffffffffff1663a792765f85856040518363ffffffff1660e01b815260040161088f929190611bdb565b60006040518083038186803b1580156108a757600080fd5b505afa1580156108bb573d6000803e3d6000fd5b505050506040513d6000823e3d601f19601f820116820180604052508101906108e49190611665565b90915080925081935050509250929050565b606060008054906101000a900473ffffffffffffffffffffffffffffffffffffffff1673ffffffffffffffffffffffffffffffffffffffff1663c5958af984846040518363ffffffff1660e01b8152600401610953929190611bdb565b60006040518083038186803b15801561096b57600080fd5b505afa15801561097f573d6000803e3d6000fd5b505050506040513d6000823e3d601f19601f820116820180604052508101906109a891906118d7565b905092915050565b60008060009054906101000a900473ffffffffffffffffffffffffffffffffffffffff1673ffffffffffffffffffffffffffffffffffffffff1663ce5e11bf84846040518363ffffffff1660e01b8152600401610a0e929190611bdb565b60206040518083038186803b158015610a2657600080fd5b505afa158015610a3a573d6000803e3d6000fd5b505050506040513d601f19601f82011682018060405250810190610a5e9190611918565b905092915050565b60008060009054906101000a900473ffffffffffffffffffffffffffffffffffffffff1673ffffffffffffffffffffffffffffffffffffffff1663e07c548684846040518363ffffffff1660e01b8152600401610ac4929190611bdb565b60206040518083038186803b158015610adc57600080fd5b505afa158015610af0573d6000803e3d6000fd5b505050506040513d601f19601f82011682018060405250810190610b149190611613565b905092915050565b60008060008054906101000a900473ffffffffffffffffffffffffffffffffffffffff1673ffffffffffffffffffffffffffffffffffffffff16632944908585856040518363ffffffff1660e01b8152600401610b7a929190611bdb565b604080518083038186803b158015610b9157600080fd5b505afa158015610ba5573d6000803e3d6000fd5b505050506040513d601f19601f82011682018060405250810190610bc991906116cc565b80925081935050508115610be6578080610be290612062565b9150505b60008060009054906101000a900473ffffffffffffffffffffffffffffffffffffffff1673ffffffffffffffffffffffffffffffffffffffff166377b03e0d866040518263ffffffff1660e01b8152600401610c429190611bc0565b60206040518083038186803b158015610c5a57600080fd5b505afa158015610c6e573d6000803e3d6000fd5b505050506040513d601f19601f82011682018060405250810190610c929190611918565b9050818111610ca8576000809250925050610e42565b60008060009054906101000a900473ffffffffffffffffffffffffffffffffffffffff1673ffffffffffffffffffffffffffffffffffffffff1663ce5e11bf87856040518363ffffffff1660e01b8152600401610d06929190611bdb565b60206040518083038186803b158015610d1e57600080fd5b505afa158015610d32573d6000803e3d6000fd5b505050506040513d601f19601f82011682018060405250810190610d569190611918565b905084811115610d6b57600193505050610e42565b8280610d7690612062565b935050828211610d8e57600080935093505050610e42565b60008054906101000a900473ffffffffffffffffffffffffffffffffffffffff1673ffffffffffffffffffffffffffffffffffffffff1663ce5e11bf87856040518363ffffffff1660e01b8152600401610de9929190611bdb565b60206040518083038186803b158015610e0157600080fd5b505afa158015610e15573d6000803e3d6000fd5b505050506040513d601f19601f82011682018060405250810190610e399190611918565b90506001935050505b9250929050565b6000806000600160009054906101000a900473ffffffffffffffffffffffffffffffffffffffff1673ffffffffffffffffffffffffffffffffffffffff166387a475fd856040518263ffffffff1660e01b8152600401610ea99190611bc0565b60206040518083038186803b158015610ec157600080fd5b505afa158015610ed5573d6000803e3d6000fd5b505050506040513d601f19601f82011682018060405250810190610ef99190611731565b93506000610f06856106ae565b90506000811415610f235760008061019493509350935050610f84565b610f3985600183610f349190611f17565b6109b0565b92506000610f4786856108f6565b9050600081511415610f66576000806101949450945094505050610f84565b6000610f71826113f9565b9050809550858560c89550955095505050505b9193909250565b606080600080610fa6888789610fa19190611f17565b610b1c565b915091508161109f57600067ffffffffffffffff811115610ff0577f4e487b7100000000000000000000000000000000000000000000000000000000600052604160045260246000fd5b60405190808252806020026020018201604052801561102357816020015b606081526020019060019003908161100e5790505b50600067ffffffffffffffff811115611065577f4e487b7100000000000000000000000000000000000000000000000000000000600052604160045260246000fd5b6040519080825280602002602001820160405280156110935781602001602082028036833780820191505090505b509350935050506113f0565b60006110ab898961049a565b8092508194505050826111a957600067ffffffffffffffff8111156110f9577f4e487b7100000000000000000000000000000000000000000000000000000000600052604160045260246000fd5b60405190808252806020026020018201604052801561112c57816020015b60608152602001906001900390816111175790505b50600067ffffffffffffffff81111561116e577f4e487b7100000000000000000000000000000000000000000000000000000000600052604160045260246000fd5b60405190808252806020026020018201604052801561119c5781602001602082028036833780820191505090505b50945094505050506113f0565b6000600183836111b99190611f17565b6111c39190611e67565b9050868111156111eb57600187836111db9190611f17565b6111e59190611e67565b92508690505b60008167ffffffffffffffff81111561122d577f4e487b7100000000000000000000000000000000000000000000000000000000600052604160045260246000fd5b60405190808252806020026020018201604052801561126057816020015b606081526020019060019003908161124b5790505b50905060008267ffffffffffffffff8111156112a5577f4e487b7100000000000000000000000000000000000000000000000000000000600052604160045260246000fd5b6040519080825280602002602001820160405280156112d35781602001602082028036833780820191505090505b509050606060005b848110156113e1576112f88e82896112f39190611e67565b6109b0565b838281518110611331577f4e487b7100000000000000000000000000000000000000000000000000000000600052603260045260246000fd5b6020026020010181815250506113878e84838151811061137a577f4e487b7100000000000000000000000000000000000000000000000000000000600052603260045260246000fd5b60200260200101516108f6565b9150818482815181106113c3577f4e487b7100000000000000000000000000000000000000000000000000000000600052603260045260246000fd5b602002602001018190525080806113d990612062565b9150506112db565b50828298509850505050505050505b94509492505050565b600080600090505b825181101561148157828181518110611443577f4e487b7100000000000000000000000000000000000000000000000000000000600052603260045260246000fd5b602001015160f81c60f81b60f81c60ff16610100836114629190611ebd565b61146c9190611e67565b9150808061147990612062565b915050611401565b50919050565b600061149a61149584611d97565b611d72565b9050828152602081018484840111156114b257600080fd5b6114bd848285611fef565b509392505050565b60006114d86114d384611d97565b611d72565b9050828152602081018484840111156114f057600080fd5b6114fb848285611ffe565b509392505050565b6000813590506115128161211a565b92915050565b6000815190506115278161211a565b92915050565b60008151905061153c81612131565b92915050565b60008135905061155181612148565b92915050565b60008151905061156681612148565b92915050565b600082601f83011261157d57600080fd5b813561158d848260208601611487565b91505092915050565b600082601f8301126115a757600080fd5b81516115b78482602086016114c5565b91505092915050565b6000813590506115cf8161215f565b92915050565b6000815190506115e48161215f565b92915050565b6000602082840312156115fc57600080fd5b600061160a84828501611503565b91505092915050565b60006020828403121561162557600080fd5b600061163384828501611518565b91505092915050565b60006020828403121561164e57600080fd5b600061165c8482850161152d565b91505092915050565b60008060006060848603121561167a57600080fd5b60006116888682870161152d565b935050602084015167ffffffffffffffff8111156116a557600080fd5b6116b186828701611596565b92505060406116c2868287016115d5565b9150509250925092565b600080604083850312156116df57600080fd5b60006116ed8582860161152d565b92505060206116fe858286016115d5565b9150509250929050565b60006020828403121561171a57600080fd5b600061172884828501611542565b91505092915050565b60006020828403121561174357600080fd5b600061175184828501611557565b91505092915050565b6000806040838503121561176d57600080fd5b600061177b85828601611542565b925050602061178c858286016115c0565b9150509250929050565b600080600080608085870312156117ac57600080fd5b60006117ba87828801611542565b94505060206117cb878288016115c0565b93505060406117dc878288016115c0565b92505060606117ed878288016115c0565b91505092959194509250565b60008060008060008060008060006101208a8c03121561181857600080fd5b60006118268c828d01611542565b99505060206118378c828d016115c0565b98505060406118488c828d016115c0565b97505060606118598c828d016115c0565b965050608061186a8c828d016115c0565b95505060a061187b8c828d016115c0565b94505060c061188c8c828d016115c0565b93505060e08a013567ffffffffffffffff8111156118a957600080fd5b6118b58c828d0161156c565b9250506101006118c78c828d016115c0565b9150509295985092959850929598565b6000602082840312156118e957600080fd5b600082015167ffffffffffffffff81111561190357600080fd5b61190f84828501611596565b91505092915050565b60006020828403121561192a57600080fd5b6000611938848285016115d5565b91505092915050565b600061194d8383611a6d565b905092915050565b60006119618383611b0c565b60208301905092915050565b61197681611f4b565b82525050565b600061198782611de8565b6119918185611e23565b9350836020820285016119a385611dc8565b8060005b858110156119df57848403895281516119c08582611941565b94506119cb83611e09565b925060208a019950506001810190506119a7565b50829750879550505050505092915050565b60006119fc82611df3565b611a068185611e34565b9350611a1183611dd8565b8060005b83811015611a42578151611a298882611955565b9750611a3483611e16565b925050600181019050611a15565b5085935050505092915050565b611a5881611f5d565b82525050565b611a6781611f69565b82525050565b6000611a7882611dfe565b611a828185611e45565b9350611a92818560208601611ffe565b611a9b81612109565b840191505092915050565b6000611ab182611dfe565b611abb8185611e56565b9350611acb818560208601611ffe565b611ad481612109565b840191505092915050565b611ae881611fa7565b82525050565b611af781611fcb565b82525050565b611b0681611f73565b82525050565b611b1581611f9d565b82525050565b611b2481611f9d565b82525050565b6000602082019050611b3f600083018461196d565b92915050565b60006040820190508181036000830152611b5f818561197c565b90508181036020830152611b7381846119f1565b90509392505050565b6000602082019050611b916000830184611a4f565b92915050565b6000604082019050611bac6000830185611a4f565b611bb96020830184611b1b565b9392505050565b6000602082019050611bd56000830184611a5e565b92915050565b6000604082019050611bf06000830185611a5e565b611bfd6020830184611b1b565b9392505050565b600061012082019050611c1a600083018c611a5e565b611c27602083018b611b1b565b611c34604083018a611b1b565b611c416060830189611b1b565b611c4e6080830188611b1b565b611c5b60a0830187611b1b565b611c6860c0830186611b1b565b81810360e0830152611c7a8185611aa6565b9050611c8a610100830184611b1b565b9a9950505050505050505050565b60006020820190508181036000830152611cb28184611aa6565b905092915050565b60006040820190508181036000830152611cd48185611aa6565b9050611ce36020830184611b1b565b9392505050565b6000602082019050611cff6000830184611adf565b92915050565b6000602082019050611d1a6000830184611aee565b92915050565b6000606082019050611d356000830186611afd565b611d426020830185611b1b565b611d4f6040830184611b1b565b949350505050565b6000602082019050611d6c6000830184611b1b565b92915050565b6000611d7c611d8d565b9050611d888282612031565b919050565b6000604051905090565b600067ffffffffffffffff821115611db257611db16120da565b5b611dbb82612109565b9050602081019050919050565b6000819050602082019050919050565b6000819050602082019050919050565b600081519050919050565b600081519050919050565b600081519050919050565b6000602082019050919050565b6000602082019050919050565b600082825260208201905092915050565b600082825260208201905092915050565b600082825260208201905092915050565b600082825260208201905092915050565b6000611e7282611f9d565b9150611e7d83611f9d565b9250827fffffffffffffffffffffffffffffffffffffffffffffffffffffffffffffffff03821115611eb257611eb16120ab565b5b828201905092915050565b6000611ec882611f9d565b9150611ed383611f9d565b9250817fffffffffffffffffffffffffffffffffffffffffffffffffffffffffffffffff0483118215151615611f0c57611f0b6120ab565b5b828202905092915050565b6000611f2282611f9d565b9150611f2d83611f9d565b925082821015611f4057611f3f6120ab565b5b828203905092915050565b6000611f5682611f7d565b9050919050565b60008115159050919050565b6000819050919050565b6000819050919050565b600073ffffffffffffffffffffffffffffffffffffffff82169050919050565b6000819050919050565b6000611fb282611fb9565b9050919050565b6000611fc482611f7d565b9050919050565b6000611fd682611fdd565b9050919050565b6000611fe882611f7d565b9050919050565b82818337600083830152505050565b60005b8381101561201c578082015181840152602081019050612001565b8381111561202b576000848401525b50505050565b61203a82612109565b810181811067ffffffffffffffff82111715612059576120586120da565b5b80604052505050565b600061206d82611f9d565b91507fffffffffffffffffffffffffffffffffffffffffffffffffffffffffffffffff8214156120a05761209f6120ab565b5b600182019050919050565b7f4e487b7100000000000000000000000000000000000000000000000000000000600052601160045260246000fd5b7f4e487b7100000000000000000000000000000000000000000000000000000000600052604160045260246000fd5b6000601f19601f8301169050919050565b61212381611f4b565b811461212e57600080fd5b50565b61213a81611f5d565b811461214557600080fd5b50565b61215181611f69565b811461215c57600080fd5b50565b61216881611f9d565b811461217357600080fd5b5056fea2646970667358221220f7d5681a6cb2a526f1ea0d72ececfabec0726b5cdfa00dcd20e4e48b78a071ff64736f6c63430008030033",
  "linkReferences": {},
  "deployedLinkReferences": {}
}