{
  "_format": "hh-sol-artifact-1",
  "contractName": "MappingContractExample",
  "sourceName": "contracts/mocks/MappingContractExample.sol",
  "abi": [
    {
      "inputs": [
        {
          "internalType": "bytes32",
          "name": "_id",
          "type": "bytes32"
        }
      ],
      "name": "getTellorID",
      "outputs": [
        {
          "internalType": "bytes32",
          "name": "",
          "type": "bytes32"
        }
      ],
      "stateMutability": "pure",
      "type": "function"
    }
  ],
  "bytecode": "0x608060405234801561001057600080fd5b5061068b806100206000396000f3fe608060405234801561001057600080fd5b506004361061002b5760003560e01c806387a475fd14610030575b600080fd5b61004a6004803603810190610045919061026e565b610060565b60405161005791906103b1565b60405180910390f35b60007fdfaa6f747f0f012e8f2069d6ecacff25f5cdf0258702051747439949737fc0b560001b8214156100de57600060405160200161009e90610432565b6040516020818303038152906040526040516020016100bd9190610498565b60405160208183030381529060405290508080519060200120925050610251565b7f637b7efb6b620736c247aaa282f3898914c0bef6c12faff0d3fe9d4bea78302060001b82141561015a57600060405160200161011a906103ff565b6040516020818303038152906040526040516020016101399190610498565b60405160208183030381529060405290508080519060200120925050610250565b7f2dfb033e1ae0529b328985942d27f2d5a62213f3a2d97ca8e27ad2864c5af94260001b8214156101d6576000604051602001610196906103cc565b6040516020818303038152906040526040516020016101b59190610498565b6040516020818303038152906040529050808051906020012092505061024f565b7f9899e35601719f1348e09967349f72c7d04800f17c14992d6dcf2f17fac713ea60001b82141561024e57600060405160200161021290610465565b6040516020818303038152906040526040516020016102319190610498565b604051602081830303815290604052905080805190602001209250505b5b5b5b819050919050565b6000813590506102688161063e565b92915050565b60006020828403121561028057600080fd5b600061028e84828501610259565b91505092915050565b6102a0816104fa565b82525050565b60006102b1826104cd565b6102bb81856104d8565b93506102cb818560208601610504565b6102d481610537565b840191505092915050565b60006102ec6003836104e9565b91506102f782610548565b602082019050919050565b600061030f6003836104e9565b915061031a82610571565b602082019050919050565b60006103326003836104e9565b915061033d8261059a565b602082019050919050565b60006103556003836104e9565b9150610360826105c3565b602082019050919050565b60006103786003836104e9565b9150610383826105ec565b602082019050919050565b600061039b6009836104e9565b91506103a682610615565b602082019050919050565b60006020820190506103c66000830184610297565b92915050565b600060408201905081810360008301526103e5816102df565b905081810360208301526103f881610348565b9050919050565b6000604082019050818103600083015261041881610302565b9050818103602083015261042b81610348565b9050919050565b6000604082019050818103600083015261044b81610325565b9050818103602083015261045e81610348565b9050919050565b6000604082019050818103600083015261047e8161036b565b9050818103602083015261049181610348565b9050919050565b600060408201905081810360008301526104b18161038e565b905081810360208301526104c581846102a6565b905092915050565b600081519050919050565b600082825260208201905092915050565b600082825260208201905092915050565b6000819050919050565b60005b83811015610522578082015181840152602081019050610507565b83811115610531576000848401525b50505050565b6000601f19601f8301169050919050565b7f7861750000000000000000000000000000000000000000000000000000000000600082015250565b7f6274630000000000000000000000000000000000000000000000000000000000600082015250565b7f6574680000000000000000000000000000000000000000000000000000000000600082015250565b7f7573640000000000000000000000000000000000000000000000000000000000600082015250565b7f6461690000000000000000000000000000000000000000000000000000000000600082015250565b7f53706f7450726963650000000000000000000000000000000000000000000000600082015250565b610647816104fa565b811461065257600080fd5b5056fea264697066735822122067e70a6c2ccb625f2149d818502e746952a65c03943d9e68f833a39d70a67f3264736f6c63430008030033",
  "linkReferences": {},
  "deployedLinkReferences": {}
}