{
  "_format": "hh-sol-artifact-1",
  "contractName": "MappingContractExample",
  "sourceName": "contracts/mocks/MappingContractExample.sol",
  "abi": [
    {
      "inputs": [
        {
          "internalType": "bytes32",
          "name": "_id",
          "type": "bytes32"
        }
      ],
      "name": "getTellorID",
      "outputs": [
        {
          "internalType": "bytes32",
          "name": "",
          "type": "bytes32"
        }
      ],
      "stateMutability": "pure",
      "type": "function"
    }
  ],
  "bytecode": "0x608060405234801561001057600080fd5b50610372806100206000396000f3fe608060405234801561001057600080fd5b506004361061002b5760003560e01c806387a475fd14610030575b600080fd5b61004361003e3660046101b6565b610055565b60405190815260200160405180910390f35b60007fdfaa6f747f0f012e8f2069d6ecacff25f5cdf0258702051747439949737fc0b58214156100ce5760006040516020016100909061024e565b60408051601f19818403018152908290526100ad916020016102c8565b604051602081830303815290604052905080805190602001209250506101b2565b7f637b7efb6b620736c247aaa282f3898914c0bef6c12faff0d3fe9d4bea78302082141561010757600060405160200161009090610211565b7f2dfb033e1ae0529b328985942d27f2d5a62213f3a2d97ca8e27ad2864c5af942821415610140576000604051602001610090906101ce565b7f9899e35601719f1348e09967349f72c7d04800f17c14992d6dcf2f17fac713ea8214156101b25760006040516020016101799061028b565b60408051601f1981840301815290829052610196916020016102c8565b60408051601f1981840301815291905280516020909101209250505b5090565b6000602082840312156101c7578081fd5b5035919050565b600060408252600360408301526278617560e81b60608301526080602083015261020b6080830160038152621d5cd960ea1b602082015260400190565b92915050565b600060408252600360408301526262746360e81b60608301526080602083015261020b6080830160038152621d5cd960ea1b602082015260400190565b60006040825260036040830152620cae8d60eb1b60608301526080602083015261020b6080830160038152621d5cd960ea1b602082015260400190565b600060408252600360408301526264616960e81b60608301526080602083015261020b6080830160038152621d5cd960ea1b602082015260400190565b600060408252600960408301526853706f74507269636560b81b606083015260206080818401528351806080850152825b818110156103155785810183015185820160a0015282016102f9565b81811115610326578360a083870101525b50601f01601f19169290920160a001939250505056fea264697066735822122069aab3bcd02f414c8924911d8d7d52694b8dc5890c6b292763cd286b0c5b85f464736f6c63430008030033",
  "linkReferences": {},
  "deployedLinkReferences": {}
}