{
  "_format": "hh-sol-artifact-1",
  "contractName": "TestUsingTellor",
  "sourceName": "contracts/mocks/TestUsingTellor.sol",
  "abi": [
    {
      "inputs": [
        {
          "internalType": "address payable",
          "name": "_oracle",
          "type": "address"
        },
        {
          "internalType": "address payable",
          "name": "_autopay",
          "type": "address"
        }
      ],
      "stateMutability": "nonpayable",
      "type": "constructor"
    },
    {
      "inputs": [],
      "name": "autopay",
      "outputs": [
        {
          "internalType": "contract ITellor",
          "name": "",
          "type": "address"
        }
      ],
      "stateMutability": "view",
      "type": "function"
    },
    {
      "inputs": [
        {
          "internalType": "bytes32",
          "name": "_queryId",
          "type": "bytes32"
        },
        {
          "internalType": "uint256",
          "name": "_timestamp",
          "type": "uint256"
        }
      ],
      "name": "getDataAfter",
      "outputs": [
        {
          "internalType": "bytes",
          "name": "_value",
          "type": "bytes"
        },
        {
          "internalType": "uint256",
          "name": "_timestampRetrieved",
          "type": "uint256"
        }
      ],
      "stateMutability": "view",
      "type": "function"
    },
    {
      "inputs": [
        {
          "internalType": "bytes32",
          "name": "_queryId",
          "type": "bytes32"
        },
        {
          "internalType": "uint256",
          "name": "_timestamp",
          "type": "uint256"
        }
      ],
      "name": "getDataBefore",
      "outputs": [
        {
          "internalType": "bytes",
          "name": "_value",
          "type": "bytes"
        },
        {
          "internalType": "uint256",
          "name": "_timestampRetrieved",
          "type": "uint256"
        }
      ],
      "stateMutability": "view",
      "type": "function"
    },
    {
      "inputs": [
        {
          "internalType": "bytes32",
          "name": "_queryId",
          "type": "bytes32"
        },
        {
          "internalType": "uint256",
          "name": "_timestamp",
          "type": "uint256"
        }
      ],
      "name": "getIndexForDataAfter",
      "outputs": [
        {
          "internalType": "bool",
          "name": "_found",
          "type": "bool"
        },
        {
          "internalType": "uint256",
          "name": "_index",
          "type": "uint256"
        }
      ],
      "stateMutability": "view",
      "type": "function"
    },
    {
      "inputs": [
        {
          "internalType": "bytes32",
          "name": "_queryId",
          "type": "bytes32"
        },
        {
          "internalType": "uint256",
          "name": "_timestamp",
          "type": "uint256"
        }
      ],
      "name": "getIndexForDataBefore",
      "outputs": [
        {
          "internalType": "bool",
          "name": "_found",
          "type": "bool"
        },
        {
          "internalType": "uint256",
          "name": "_index",
          "type": "uint256"
        }
      ],
      "stateMutability": "view",
      "type": "function"
    },
    {
      "inputs": [
        {
          "internalType": "bytes32",
          "name": "_queryId",
          "type": "bytes32"
        },
        {
          "internalType": "uint256",
          "name": "_timestamp",
          "type": "uint256"
        },
        {
          "internalType": "uint256",
          "name": "_maxAge",
          "type": "uint256"
        },
        {
          "internalType": "uint256",
          "name": "_maxCount",
          "type": "uint256"
        }
      ],
      "name": "getMultipleValuesBefore",
      "outputs": [
        {
          "internalType": "bytes[]",
          "name": "_values",
          "type": "bytes[]"
        },
        {
          "internalType": "uint256[]",
          "name": "_timestamps",
          "type": "uint256[]"
        }
      ],
      "stateMutability": "view",
      "type": "function"
    },
    {
      "inputs": [
        {
          "internalType": "bytes32",
          "name": "_queryId",
          "type": "bytes32"
        }
      ],
      "name": "getNewValueCountbyQueryId",
      "outputs": [
        {
          "internalType": "uint256",
          "name": "",
          "type": "uint256"
        }
      ],
      "stateMutability": "view",
      "type": "function"
    },
    {
      "inputs": [
        {
          "internalType": "bytes32",
          "name": "_queryId",
          "type": "bytes32"
        },
        {
          "internalType": "uint256",
          "name": "_timestamp",
          "type": "uint256"
        }
      ],
      "name": "getReporterByTimestamp",
      "outputs": [
        {
          "internalType": "address",
          "name": "",
          "type": "address"
        }
      ],
      "stateMutability": "view",
      "type": "function"
    },
    {
      "inputs": [
        {
          "internalType": "bytes32",
          "name": "_queryId",
          "type": "bytes32"
        },
        {
          "internalType": "uint256",
          "name": "_index",
          "type": "uint256"
        }
      ],
      "name": "getTimestampbyQueryIdandIndex",
      "outputs": [
        {
          "internalType": "uint256",
          "name": "",
          "type": "uint256"
        }
      ],
      "stateMutability": "view",
      "type": "function"
    },
    {
      "inputs": [],
      "name": "idMappingContract",
      "outputs": [
        {
          "internalType": "contract IMappingContract",
          "name": "",
          "type": "address"
        }
      ],
      "stateMutability": "view",
      "type": "function"
    },
    {
      "inputs": [
        {
          "internalType": "bytes32",
          "name": "_queryId",
          "type": "bytes32"
        },
        {
          "internalType": "uint256",
          "name": "_timestamp",
          "type": "uint256"
        }
      ],
      "name": "isInDispute",
      "outputs": [
        {
          "internalType": "bool",
          "name": "",
          "type": "bool"
        }
      ],
      "stateMutability": "view",
      "type": "function"
    },
    {
      "inputs": [],
      "name": "oracle",
      "outputs": [
        {
          "internalType": "contract ITellor",
          "name": "",
          "type": "address"
        }
      ],
      "stateMutability": "view",
      "type": "function"
    },
    {
      "inputs": [
        {
          "internalType": "bytes32",
          "name": "_queryId",
          "type": "bytes32"
        },
        {
          "internalType": "uint256",
          "name": "_timestamp",
          "type": "uint256"
        }
      ],
      "name": "retrieveData",
      "outputs": [
        {
          "internalType": "bytes",
          "name": "",
          "type": "bytes"
        }
      ],
      "stateMutability": "view",
      "type": "function"
    },
    {
      "inputs": [
        {
          "internalType": "address",
          "name": "_addy",
          "type": "address"
        }
      ],
      "name": "setIdMappingContract",
      "outputs": [],
      "stateMutability": "nonpayable",
      "type": "function"
    },
    {
      "inputs": [
        {
          "internalType": "bytes32",
          "name": "_queryId",
          "type": "bytes32"
        },
        {
          "internalType": "uint256",
          "name": "_reward",
          "type": "uint256"
        },
        {
          "internalType": "uint256",
          "name": "_startTime",
          "type": "uint256"
        },
        {
          "internalType": "uint256",
          "name": "_interval",
          "type": "uint256"
        },
        {
          "internalType": "uint256",
          "name": "_window",
          "type": "uint256"
        },
        {
          "internalType": "uint256",
          "name": "_priceThreshold",
          "type": "uint256"
        },
        {
          "internalType": "uint256",
          "name": "_rewardIncreasePerSecond",
          "type": "uint256"
        },
        {
          "internalType": "bytes",
          "name": "_queryData",
          "type": "bytes"
        },
        {
          "internalType": "uint256",
          "name": "_amount",
          "type": "uint256"
        }
      ],
      "name": "setupDataFeed",
      "outputs": [],
      "stateMutability": "nonpayable",
      "type": "function"
    },
    {
      "inputs": [
        {
          "internalType": "bytes",
          "name": "_b",
          "type": "bytes"
        }
      ],
      "name": "sliceUint",
      "outputs": [
        {
          "internalType": "uint256",
          "name": "",
          "type": "uint256"
        }
      ],
      "stateMutability": "pure",
      "type": "function"
    },
    {
      "inputs": [],
      "name": "tellor",
      "outputs": [
        {
          "internalType": "contract ITellor",
          "name": "",
          "type": "address"
        }
      ],
      "stateMutability": "view",
      "type": "function"
    },
    {
      "inputs": [
        {
          "internalType": "bytes32",
          "name": "_id",
          "type": "bytes32"
        }
      ],
      "name": "valueFor",
      "outputs": [
        {
          "internalType": "int256",
          "name": "_value",
          "type": "int256"
        },
        {
          "internalType": "uint256",
          "name": "_timestamp",
          "type": "uint256"
        },
        {
          "internalType": "uint256",
          "name": "_statusCode",
          "type": "uint256"
        }
      ],
      "stateMutability": "view",
      "type": "function"
    }
  ],
  "bytecode": "0x60806040523480156200001157600080fd5b50604051620023b5380380620023b58339818101604052810190620000379190620000dc565b818181600260006101000a81548173ffffffffffffffffffffffffffffffffffffffff021916908373ffffffffffffffffffffffffffffffffffffffff16021790555080600360006101000a81548173ffffffffffffffffffffffffffffffffffffffff021916908373ffffffffffffffffffffffffffffffffffffffff160217905550505050506200016b565b600081519050620000d68162000151565b92915050565b60008060408385031215620000f057600080fd5b60006200010085828601620000c5565b92505060206200011385828601620000c5565b9150509250929050565b60006200012a8262000131565b9050919050565b600073ffffffffffffffffffffffffffffffffffffffff82169050919050565b6200015c816200011d565b81146200016857600080fd5b50565b61223a806200017b6000396000f3fe608060405234801561001057600080fd5b50600436106101165760003560e01c80637dc0d1d0116100a2578063ce5e11bf11610071578063ce5e11bf1461031e578063e07c54861461034e578063f66f49c31461037e578063f78eea83146103af578063fcd4a546146103e157610116565b80637dc0d1d014610283578063a733d2db146102a1578063a792765f146102bd578063c5958af9146102ee57610116565b806344e87f91116100e957806344e87f91146101a45780634c8a78e8146101d4578063584a67d71461020457806364ee3c6d1461022257806377b03e0d1461025357610116565b8063193b505b1461011b5780631959ad5b1461013757806329449085146101555780632af8aae014610186575b600080fd5b61013560048036038101906101309190611637565b610412565b005b61013f6104b1565b60405161014c9190611d93565b60405180910390f35b61016f600480360381019061016a91906117a7565b6104d5565b60405161017d929190611c25565b60405180910390f35b61018e61058d565b60405161019b9190611d78565b60405180910390f35b6101be60048036038101906101b991906117a7565b6105b3565b6040516101cb9190611c0a565b60405180910390f35b6101ee60048036038101906101e99190611924565b610669565b6040516101fb9190611de5565b60405180910390f35b61020c61067b565b6040516102199190611d93565b60405180910390f35b61023c600480360381019061023791906117a7565b6106a1565b60405161024a929190611d48565b60405180910390f35b61026d60048036038101906102689190611755565b6106fb565b60405161027a9190611de5565b60405180910390f35b61028b6107ae565b6040516102989190611d93565b60405180910390f35b6102bb60048036038101906102b69190611846565b6107d4565b005b6102d760048036038101906102d291906117a7565b61087c565b6040516102e5929190611d48565b60405180910390f35b610308600480360381019061030391906117a7565b610943565b6040516103159190611d26565b60405180910390f35b610338600480360381019061033391906117a7565b6109fd565b6040516103459190611de5565b60405180910390f35b610368600480360381019061036391906117a7565b610ab3565b6040516103759190611bb8565b60405180910390f35b610398600480360381019061039391906117a7565b610b69565b6040516103a6929190611c25565b60405180910390f35b6103c960048036038101906103c49190611755565b610e96565b6040516103d893929190611dae565b60405180910390f35b6103fb60048036038101906103f691906117e3565b610fd8565b604051610409929190611bd3565b60405180910390f35b600073ffffffffffffffffffffffffffffffffffffffff16600160009054906101000a900473ffffffffffffffffffffffffffffffffffffffff1673ffffffffffffffffffffffffffffffffffffffff161461046d57600080fd5b80600160006101000a81548173ffffffffffffffffffffffffffffffffffffffff021916908373ffffffffffffffffffffffffffffffffffffffff16021790555050565b60008054906101000a900473ffffffffffffffffffffffffffffffffffffffff1681565b60008060008054906101000a900473ffffffffffffffffffffffffffffffffffffffff1673ffffffffffffffffffffffffffffffffffffffff16632944908585856040518363ffffffff1660e01b8152600401610533929190611c69565b604080518083038186803b15801561054a57600080fd5b505afa15801561055e573d6000803e3d6000fd5b505050506040513d601f19601f820116820180604052508101906105829190611719565b915091509250929050565b600160009054906101000a900473ffffffffffffffffffffffffffffffffffffffff1681565b60008060009054906101000a900473ffffffffffffffffffffffffffffffffffffffff1673ffffffffffffffffffffffffffffffffffffffff166344e87f9184846040518363ffffffff1660e01b8152600401610611929190611c69565b60206040518083038186803b15801561062957600080fd5b505afa15801561063d573d6000803e3d6000fd5b505050506040513d601f19601f820116820180604052508101906106619190611689565b905092915050565b600061067482611446565b9050919050565b600360009054906101000a900473ffffffffffffffffffffffffffffffffffffffff1681565b606060008060006106b28686610b69565b91509150816106d957600060405180602001604052806000815250909350935050506106f4565b6106e386826109fd565b92506106ef8684610943565b935050505b9250929050565b60008060009054906101000a900473ffffffffffffffffffffffffffffffffffffffff1673ffffffffffffffffffffffffffffffffffffffff166377b03e0d836040518263ffffffff1660e01b81526004016107579190611c4e565b60206040518083038186803b15801561076f57600080fd5b505afa158015610783573d6000803e3d6000fd5b505050506040513d601f19601f820116820180604052508101906107a791906119a6565b9050919050565b600260009054906101000a900473ffffffffffffffffffffffffffffffffffffffff1681565b600360009054906101000a900473ffffffffffffffffffffffffffffffffffffffff1673ffffffffffffffffffffffffffffffffffffffff1663a733d2db8a8a8a8a8a8a8a8a8a6040518a63ffffffff1660e01b815260040161083f99989796959493929190611c92565b600060405180830381600087803b15801561085957600080fd5b505af115801561086d573d6000803e3d6000fd5b50505050505050505050505050565b606060008060009054906101000a900473ffffffffffffffffffffffffffffffffffffffff1673ffffffffffffffffffffffffffffffffffffffff1663a792765f85856040518363ffffffff1660e01b81526004016108dc929190611c69565b60006040518083038186803b1580156108f457600080fd5b505afa158015610908573d6000803e3d6000fd5b505050506040513d6000823e3d601f19601f8201168201806040525081019061093191906116b2565b90915080925081935050509250929050565b606060008054906101000a900473ffffffffffffffffffffffffffffffffffffffff1673ffffffffffffffffffffffffffffffffffffffff1663c5958af984846040518363ffffffff1660e01b81526004016109a0929190611c69565b60006040518083038186803b1580156109b857600080fd5b505afa1580156109cc573d6000803e3d6000fd5b505050506040513d6000823e3d601f19601f820116820180604052508101906109f59190611965565b905092915050565b60008060009054906101000a900473ffffffffffffffffffffffffffffffffffffffff1673ffffffffffffffffffffffffffffffffffffffff1663ce5e11bf84846040518363ffffffff1660e01b8152600401610a5b929190611c69565b60206040518083038186803b158015610a7357600080fd5b505afa158015610a87573d6000803e3d6000fd5b505050506040513d601f19601f82011682018060405250810190610aab91906119a6565b905092915050565b60008060009054906101000a900473ffffffffffffffffffffffffffffffffffffffff1673ffffffffffffffffffffffffffffffffffffffff1663e07c548684846040518363ffffffff1660e01b8152600401610b11929190611c69565b60206040518083038186803b158015610b2957600080fd5b505afa158015610b3d573d6000803e3d6000fd5b505050506040513d601f19601f82011682018060405250810190610b619190611660565b905092915050565b60008060008054906101000a900473ffffffffffffffffffffffffffffffffffffffff1673ffffffffffffffffffffffffffffffffffffffff16632944908585856040518363ffffffff1660e01b8152600401610bc7929190611c69565b604080518083038186803b158015610bde57600080fd5b505afa158015610bf2573d6000803e3d6000fd5b505050506040513d601f19601f82011682018060405250810190610c169190611719565b80925081935050508115610c33578080610c2f906120f0565b9150505b60008060009054906101000a900473ffffffffffffffffffffffffffffffffffffffff1673ffffffffffffffffffffffffffffffffffffffff166377b03e0d866040518263ffffffff1660e01b8152600401610c8f9190611c4e565b60206040518083038186803b158015610ca757600080fd5b505afa158015610cbb573d6000803e3d6000fd5b505050506040513d601f19601f82011682018060405250810190610cdf91906119a6565b9050818111610cf5576000809250925050610e8f565b60008060009054906101000a900473ffffffffffffffffffffffffffffffffffffffff1673ffffffffffffffffffffffffffffffffffffffff1663ce5e11bf87856040518363ffffffff1660e01b8152600401610d53929190611c69565b60206040518083038186803b158015610d6b57600080fd5b505afa158015610d7f573d6000803e3d6000fd5b505050506040513d601f19601f82011682018060405250810190610da391906119a6565b905084811115610db857600193505050610e8f565b8280610dc3906120f0565b935050828211610ddb57600080935093505050610e8f565b60008054906101000a900473ffffffffffffffffffffffffffffffffffffffff1673ffffffffffffffffffffffffffffffffffffffff1663ce5e11bf87856040518363ffffffff1660e01b8152600401610e36929190611c69565b60206040518083038186803b158015610e4e57600080fd5b505afa158015610e62573d6000803e3d6000fd5b505050506040513d601f19601f82011682018060405250810190610e8691906119a6565b90506001935050505b9250929050565b6000806000600160009054906101000a900473ffffffffffffffffffffffffffffffffffffffff1673ffffffffffffffffffffffffffffffffffffffff166387a475fd856040518263ffffffff1660e01b8152600401610ef69190611c4e565b60206040518083038186803b158015610f0e57600080fd5b505afa158015610f22573d6000803e3d6000fd5b505050506040513d601f19601f82011682018060405250810190610f46919061177e565b93506000610f53856106fb565b90506000811415610f705760008061019493509350935050610fd1565b610f8685600183610f819190611fa5565b6109fd565b92506000610f948685610943565b9050600081511415610fb3576000806101949450945094505050610fd1565b6000610fbe82611446565b9050809550858560c89550955095505050505b9193909250565b606080600080610ff3888789610fee9190611fa5565b610b69565b91509150816110ec57600067ffffffffffffffff81111561103d577f4e487b7100000000000000000000000000000000000000000000000000000000600052604160045260246000fd5b60405190808252806020026020018201604052801561107057816020015b606081526020019060019003908161105b5790505b50600067ffffffffffffffff8111156110b2577f4e487b7100000000000000000000000000000000000000000000000000000000600052604160045260246000fd5b6040519080825280602002602001820160405280156110e05781602001602082028036833780820191505090505b5093509350505061143d565b60006110f889896104d5565b8092508194505050826111f657600067ffffffffffffffff811115611146577f4e487b7100000000000000000000000000000000000000000000000000000000600052604160045260246000fd5b60405190808252806020026020018201604052801561117957816020015b60608152602001906001900390816111645790505b50600067ffffffffffffffff8111156111bb577f4e487b7100000000000000000000000000000000000000000000000000000000600052604160045260246000fd5b6040519080825280602002602001820160405280156111e95781602001602082028036833780820191505090505b509450945050505061143d565b6000600183836112069190611fa5565b6112109190611ef5565b90508681111561123857600187836112289190611fa5565b6112329190611ef5565b92508690505b60008167ffffffffffffffff81111561127a577f4e487b7100000000000000000000000000000000000000000000000000000000600052604160045260246000fd5b6040519080825280602002602001820160405280156112ad57816020015b60608152602001906001900390816112985790505b50905060008267ffffffffffffffff8111156112f2577f4e487b7100000000000000000000000000000000000000000000000000000000600052604160045260246000fd5b6040519080825280602002602001820160405280156113205781602001602082028036833780820191505090505b509050606060005b8481101561142e576113458e82896113409190611ef5565b6109fd565b83828151811061137e577f4e487b7100000000000000000000000000000000000000000000000000000000600052603260045260246000fd5b6020026020010181815250506113d48e8483815181106113c7577f4e487b7100000000000000000000000000000000000000000000000000000000600052603260045260246000fd5b6020026020010151610943565b915081848281518110611410577f4e487b7100000000000000000000000000000000000000000000000000000000600052603260045260246000fd5b60200260200101819052508080611426906120f0565b915050611328565b50828298509850505050505050505b94509492505050565b600080600090505b82518110156114ce57828181518110611490577f4e487b7100000000000000000000000000000000000000000000000000000000600052603260045260246000fd5b602001015160f81c60f81b60f81c60ff16610100836114af9190611f4b565b6114b99190611ef5565b915080806114c6906120f0565b91505061144e565b50919050565b60006114e76114e284611e25565b611e00565b9050828152602081018484840111156114ff57600080fd5b61150a84828561207d565b509392505050565b600061152561152084611e25565b611e00565b90508281526020810184848401111561153d57600080fd5b61154884828561208c565b509392505050565b60008135905061155f816121a8565b92915050565b600081519050611574816121a8565b92915050565b600081519050611589816121bf565b92915050565b60008135905061159e816121d6565b92915050565b6000815190506115b3816121d6565b92915050565b600082601f8301126115ca57600080fd5b81356115da8482602086016114d4565b91505092915050565b600082601f8301126115f457600080fd5b8151611604848260208601611512565b91505092915050565b60008135905061161c816121ed565b92915050565b600081519050611631816121ed565b92915050565b60006020828403121561164957600080fd5b600061165784828501611550565b91505092915050565b60006020828403121561167257600080fd5b600061168084828501611565565b91505092915050565b60006020828403121561169b57600080fd5b60006116a98482850161157a565b91505092915050565b6000806000606084860312156116c757600080fd5b60006116d58682870161157a565b935050602084015167ffffffffffffffff8111156116f257600080fd5b6116fe868287016115e3565b925050604061170f86828701611622565b9150509250925092565b6000806040838503121561172c57600080fd5b600061173a8582860161157a565b925050602061174b85828601611622565b9150509250929050565b60006020828403121561176757600080fd5b60006117758482850161158f565b91505092915050565b60006020828403121561179057600080fd5b600061179e848285016115a4565b91505092915050565b600080604083850312156117ba57600080fd5b60006117c88582860161158f565b92505060206117d98582860161160d565b9150509250929050565b600080600080608085870312156117f957600080fd5b60006118078782880161158f565b94505060206118188782880161160d565b93505060406118298782880161160d565b925050606061183a8782880161160d565b91505092959194509250565b60008060008060008060008060006101208a8c03121561186557600080fd5b60006118738c828d0161158f565b99505060206118848c828d0161160d565b98505060406118958c828d0161160d565b97505060606118a68c828d0161160d565b96505060806118b78c828d0161160d565b95505060a06118c88c828d0161160d565b94505060c06118d98c828d0161160d565b93505060e08a013567ffffffffffffffff8111156118f657600080fd5b6119028c828d016115b9565b9250506101006119148c828d0161160d565b9150509295985092959850929598565b60006020828403121561193657600080fd5b600082013567ffffffffffffffff81111561195057600080fd5b61195c848285016115b9565b91505092915050565b60006020828403121561197757600080fd5b600082015167ffffffffffffffff81111561199157600080fd5b61199d848285016115e3565b91505092915050565b6000602082840312156119b857600080fd5b60006119c684828501611622565b91505092915050565b60006119db8383611afb565b905092915050565b60006119ef8383611b9a565b60208301905092915050565b611a0481611fd9565b82525050565b6000611a1582611e76565b611a1f8185611eb1565b935083602082028501611a3185611e56565b8060005b85811015611a6d5784840389528151611a4e85826119cf565b9450611a5983611e97565b925060208a01995050600181019050611a35565b50829750879550505050505092915050565b6000611a8a82611e81565b611a948185611ec2565b9350611a9f83611e66565b8060005b83811015611ad0578151611ab788826119e3565b9750611ac283611ea4565b925050600181019050611aa3565b5085935050505092915050565b611ae681611feb565b82525050565b611af581611ff7565b82525050565b6000611b0682611e8c565b611b108185611ed3565b9350611b2081856020860161208c565b611b2981612197565b840191505092915050565b6000611b3f82611e8c565b611b498185611ee4565b9350611b5981856020860161208c565b611b6281612197565b840191505092915050565b611b7681612035565b82525050565b611b8581612059565b82525050565b611b9481612001565b82525050565b611ba38161202b565b82525050565b611bb28161202b565b82525050565b6000602082019050611bcd60008301846119fb565b92915050565b60006040820190508181036000830152611bed8185611a0a565b90508181036020830152611c018184611a7f565b90509392505050565b6000602082019050611c1f6000830184611add565b92915050565b6000604082019050611c3a6000830185611add565b611c476020830184611ba9565b9392505050565b6000602082019050611c636000830184611aec565b92915050565b6000604082019050611c7e6000830185611aec565b611c8b6020830184611ba9565b9392505050565b600061012082019050611ca8600083018c611aec565b611cb5602083018b611ba9565b611cc2604083018a611ba9565b611ccf6060830189611ba9565b611cdc6080830188611ba9565b611ce960a0830187611ba9565b611cf660c0830186611ba9565b81810360e0830152611d088185611b34565b9050611d18610100830184611ba9565b9a9950505050505050505050565b60006020820190508181036000830152611d408184611b34565b905092915050565b60006040820190508181036000830152611d628185611b34565b9050611d716020830184611ba9565b9392505050565b6000602082019050611d8d6000830184611b6d565b92915050565b6000602082019050611da86000830184611b7c565b92915050565b6000606082019050611dc36000830186611b8b565b611dd06020830185611ba9565b611ddd6040830184611ba9565b949350505050565b6000602082019050611dfa6000830184611ba9565b92915050565b6000611e0a611e1b565b9050611e1682826120bf565b919050565b6000604051905090565b600067ffffffffffffffff821115611e4057611e3f612168565b5b611e4982612197565b9050602081019050919050565b6000819050602082019050919050565b6000819050602082019050919050565b600081519050919050565b600081519050919050565b600081519050919050565b6000602082019050919050565b6000602082019050919050565b600082825260208201905092915050565b600082825260208201905092915050565b600082825260208201905092915050565b600082825260208201905092915050565b6000611f008261202b565b9150611f0b8361202b565b9250827fffffffffffffffffffffffffffffffffffffffffffffffffffffffffffffffff03821115611f4057611f3f612139565b5b828201905092915050565b6000611f568261202b565b9150611f618361202b565b9250817fffffffffffffffffffffffffffffffffffffffffffffffffffffffffffffffff0483118215151615611f9a57611f99612139565b5b828202905092915050565b6000611fb08261202b565b9150611fbb8361202b565b925082821015611fce57611fcd612139565b5b828203905092915050565b6000611fe48261200b565b9050919050565b60008115159050919050565b6000819050919050565b6000819050919050565b600073ffffffffffffffffffffffffffffffffffffffff82169050919050565b6000819050919050565b600061204082612047565b9050919050565b60006120528261200b565b9050919050565b60006120648261206b565b9050919050565b60006120768261200b565b9050919050565b82818337600083830152505050565b60005b838110156120aa57808201518184015260208101905061208f565b838111156120b9576000848401525b50505050565b6120c882612197565b810181811067ffffffffffffffff821117156120e7576120e6612168565b5b80604052505050565b60006120fb8261202b565b91507fffffffffffffffffffffffffffffffffffffffffffffffffffffffffffffffff82141561212e5761212d612139565b5b600182019050919050565b7f4e487b7100000000000000000000000000000000000000000000000000000000600052601160045260246000fd5b7f4e487b7100000000000000000000000000000000000000000000000000000000600052604160045260246000fd5b6000601f19601f8301169050919050565b6121b181611fd9565b81146121bc57600080fd5b50565b6121c881611feb565b81146121d357600080fd5b50565b6121df81611ff7565b81146121ea57600080fd5b50565b6121f68161202b565b811461220157600080fd5b5056fea2646970667358221220a7877f5c33f0c49d7e98ab18a9481909815143f7f16d285359936cee26e53e9d64736f6c63430008030033",
  "linkReferences": {},
  "deployedLinkReferences": {}
}