{
  "_format": "hh-sol-artifact-1",
  "contractName": "BenchUsingTellor",
  "sourceName": "contracts/mocks/BenchUsingTellor.sol",
  "abi": [
    {
      "inputs": [
        {
          "internalType": "address payable",
          "name": "_tellor",
          "type": "address"
        }
      ],
      "stateMutability": "nonpayable",
      "type": "constructor"
    },
    {
      "inputs": [
        {
          "internalType": "bytes",
          "name": "_b",
          "type": "bytes"
        }
      ],
      "name": "_sliceUint",
      "outputs": [
        {
          "internalType": "uint256",
          "name": "_number",
          "type": "uint256"
        }
      ],
      "stateMutability": "pure",
      "type": "function"
    },
    {
      "inputs": [
        {
          "internalType": "bytes32",
          "name": "_queryId",
          "type": "bytes32"
        },
        {
          "internalType": "uint256",
          "name": "_timestamp",
          "type": "uint256"
        }
      ],
      "name": "getDataAfter",
      "outputs": [
        {
          "internalType": "bytes",
          "name": "_value",
          "type": "bytes"
        },
        {
          "internalType": "uint256",
          "name": "_timestampRetrieved",
          "type": "uint256"
        }
      ],
      "stateMutability": "view",
      "type": "function"
    },
    {
      "inputs": [
        {
          "internalType": "bytes32",
          "name": "_queryId",
          "type": "bytes32"
        },
        {
          "internalType": "uint256",
          "name": "_timestamp",
          "type": "uint256"
        }
      ],
      "name": "getDataBefore",
      "outputs": [
        {
          "internalType": "bool",
          "name": "_ifRetrieve",
          "type": "bool"
        },
        {
          "internalType": "bytes",
          "name": "_value",
          "type": "bytes"
        },
        {
          "internalType": "uint256",
          "name": "_timestampRetrieved",
          "type": "uint256"
        }
      ],
      "stateMutability": "view",
      "type": "function"
    },
    {
      "inputs": [
        {
          "internalType": "bytes32",
          "name": "_queryId",
          "type": "bytes32"
        },
        {
          "internalType": "uint256",
          "name": "_timestamp",
          "type": "uint256"
        }
      ],
      "name": "getIndexForDataAfter",
      "outputs": [
        {
          "internalType": "bool",
          "name": "_found",
          "type": "bool"
        },
        {
          "internalType": "uint256",
          "name": "_index",
          "type": "uint256"
        }
      ],
      "stateMutability": "view",
      "type": "function"
    },
    {
      "inputs": [
        {
          "internalType": "bytes32",
          "name": "_queryId",
          "type": "bytes32"
        },
        {
          "internalType": "uint256",
          "name": "_timestamp",
          "type": "uint256"
        }
      ],
      "name": "getIndexForDataBefore",
      "outputs": [
        {
          "internalType": "bool",
          "name": "_found",
          "type": "bool"
        },
        {
          "internalType": "uint256",
          "name": "_index",
          "type": "uint256"
        }
      ],
      "stateMutability": "view",
      "type": "function"
    },
    {
      "inputs": [
        {
          "internalType": "bytes32",
          "name": "_queryId",
          "type": "bytes32"
        },
        {
          "internalType": "uint256",
          "name": "_timestamp",
          "type": "uint256"
        },
        {
          "internalType": "uint256",
          "name": "_maxAge",
          "type": "uint256"
        },
        {
          "internalType": "uint256",
          "name": "_maxCount",
          "type": "uint256"
        }
      ],
      "name": "getMultipleValuesBefore",
      "outputs": [
        {
          "internalType": "uint256[]",
          "name": "_values",
          "type": "uint256[]"
        },
        {
          "internalType": "uint256[]",
          "name": "_timestamps",
          "type": "uint256[]"
        }
      ],
      "stateMutability": "view",
      "type": "function"
    },
    {
      "inputs": [
        {
          "internalType": "bytes32",
          "name": "_queryId",
          "type": "bytes32"
        }
      ],
      "name": "getNewValueCountbyQueryId",
      "outputs": [
        {
          "internalType": "uint256",
          "name": "",
          "type": "uint256"
        }
      ],
      "stateMutability": "view",
      "type": "function"
    },
    {
      "inputs": [
        {
          "internalType": "bytes32",
          "name": "_queryId",
          "type": "bytes32"
        },
        {
          "internalType": "uint256",
          "name": "_timestamp",
          "type": "uint256"
        }
      ],
      "name": "getReporterByTimestamp",
      "outputs": [
        {
          "internalType": "address",
          "name": "",
          "type": "address"
        }
      ],
      "stateMutability": "view",
      "type": "function"
    },
    {
      "inputs": [
        {
          "internalType": "bytes32",
          "name": "_queryId",
          "type": "bytes32"
        },
        {
          "internalType": "uint256",
          "name": "_index",
          "type": "uint256"
        }
      ],
      "name": "getTimestampbyQueryIdandIndex",
      "outputs": [
        {
          "internalType": "uint256",
          "name": "",
          "type": "uint256"
        }
      ],
      "stateMutability": "view",
      "type": "function"
    },
    {
      "inputs": [
        {
          "internalType": "bytes32",
          "name": "_queryId",
          "type": "bytes32"
        },
        {
          "internalType": "uint256",
          "name": "_timestamp",
          "type": "uint256"
        }
      ],
      "name": "isInDispute",
      "outputs": [
        {
          "internalType": "bool",
          "name": "",
          "type": "bool"
        }
      ],
      "stateMutability": "view",
      "type": "function"
    },
    {
      "inputs": [
        {
          "internalType": "bytes32",
          "name": "_queryId",
          "type": "bytes32"
        },
        {
          "internalType": "uint256",
          "name": "_timestamp",
          "type": "uint256"
        }
      ],
      "name": "retrieveData",
      "outputs": [
        {
          "internalType": "bytes",
          "name": "",
          "type": "bytes"
        }
      ],
      "stateMutability": "view",
      "type": "function"
    },
    {
      "inputs": [],
      "name": "tellor",
      "outputs": [
        {
          "internalType": "contract ITellor",
          "name": "",
          "type": "address"
        }
      ],
      "stateMutability": "view",
      "type": "function"
    },
    {
      "inputs": [
        {
          "internalType": "bytes32",
          "name": "_id",
          "type": "bytes32"
        }
      ],
      "name": "valueFor",
      "outputs": [
        {
          "internalType": "int256",
          "name": "_value",
          "type": "int256"
        },
        {
          "internalType": "uint256",
          "name": "_timestamp",
          "type": "uint256"
        },
        {
          "internalType": "uint256",
          "name": "_statusCode",
          "type": "uint256"
        }
      ],
      "stateMutability": "view",
      "type": "function"
    }
  ],
  "bytecode": "0x60806040523480156200001157600080fd5b506040516200228038038062002280833981810160405281019062000037919062000097565b80806000806101000a81548173ffffffffffffffffffffffffffffffffffffffff021916908373ffffffffffffffffffffffffffffffffffffffff160217905550505062000111565b6000815190506200009181620000f7565b92915050565b600060208284031215620000aa57600080fd5b6000620000ba8482850162000080565b91505092915050565b6000620000d082620000d7565b9050919050565b600073ffffffffffffffffffffffffffffffffffffffff82169050919050565b6200010281620000c3565b81146200010e57600080fd5b50565b61215f80620001216000396000f3fe608060405234801561001057600080fd5b50600436106100cf5760003560e01c8063a792765f1161008c578063e07c548611610066578063e07c548614610276578063f66f49c3146102a6578063f78eea83146102d7578063fcd4a54614610309576100cf565b8063a792765f146101e4578063c5958af914610216578063ce5e11bf14610246576100cf565b80631959ad5b146100d457806329449085146100f2578063340a13721461012357806344e87f911461015357806364ee3c6d1461018357806377b03e0d146101b4575b600080fd5b6100dc61033a565b6040516100e99190611abe565b60405180910390f35b61010c60048036038101906101079190611620565b61035e565b60405161011a9291906119ff565b60405180910390f35b61013d600480360381019061013891906116bf565b610416565b60405161014a9190611c11565b60405180910390f35b61016d60048036038101906101689190611620565b6104a7565b60405161017a91906119a6565b60405180910390f35b61019d60048036038101906101989190611620565b61055d565b6040516101ab929190611a8e565b60405180910390f35b6101ce60048036038101906101c991906115f7565b6105b7565b6040516101db9190611c11565b60405180910390f35b6101fe60048036038101906101f99190611620565b61066a565b60405161020d939291906119c1565b60405180910390f35b610230600480360381019061022b9190611620565b61072e565b60405161023d9190611a6c565b60405180910390f35b610260600480360381019061025b9190611620565b6107e8565b60405161026d9190611c11565b60405180910390f35b610290600480360381019061028b9190611620565b61089e565b60405161029d9190611954565b60405180910390f35b6102c060048036038101906102bb9190611620565b610954565b6040516102ce9291906119ff565b60405180910390f35b6102f160048036038101906102ec91906115f7565b610c81565b60405161030093929190611ad9565b60405180910390f35b610323600480360381019061031e919061165c565b610f61565b60405161033192919061196f565b60405180910390f35b60008054906101000a900473ffffffffffffffffffffffffffffffffffffffff1681565b60008060008054906101000a900473ffffffffffffffffffffffffffffffffffffffff1673ffffffffffffffffffffffffffffffffffffffff16632944908585856040518363ffffffff1660e01b81526004016103bc929190611a43565b604080518083038186803b1580156103d357600080fd5b505afa1580156103e7573d6000803e3d6000fd5b505050506040513d601f19601f8201168201806040525081019061040b91906115bb565b915091509250929050565b600080600090505b82518110156104a157610100826104359190611d6f565b9150828181518110610470577f4e487b7100000000000000000000000000000000000000000000000000000000600052603260045260246000fd5b602001015160f81c60f81b60f81c60ff168261048c9190611ce8565b9150808061049990611ef0565b91505061041e565b50919050565b60008060009054906101000a900473ffffffffffffffffffffffffffffffffffffffff1673ffffffffffffffffffffffffffffffffffffffff166344e87f9184846040518363ffffffff1660e01b8152600401610505929190611a43565b60206040518083038186803b15801561051d57600080fd5b505afa158015610531573d6000803e3d6000fd5b505050506040513d601f19601f82011682018060405250810190610555919061152b565b905092915050565b6060600080600061056e8686610954565b915091508161059557600060405180602001604052806000815250909350935050506105b0565b61059f86826107e8565b92506105ab868461072e565b935050505b9250929050565b60008060009054906101000a900473ffffffffffffffffffffffffffffffffffffffff1673ffffffffffffffffffffffffffffffffffffffff166377b03e0d836040518263ffffffff1660e01b81526004016106139190611a28565b60206040518083038186803b15801561062b57600080fd5b505afa15801561063f573d6000803e3d6000fd5b505050506040513d601f19601f820116820180604052508101906106639190611741565b9050919050565b6000606060008060009054906101000a900473ffffffffffffffffffffffffffffffffffffffff1673ffffffffffffffffffffffffffffffffffffffff1663a792765f86866040518363ffffffff1660e01b81526004016106cc929190611a43565b60006040518083038186803b1580156106e457600080fd5b505afa1580156106f8573d6000803e3d6000fd5b505050506040513d6000823e3d601f19601f820116820180604052508101906107219190611554565b9250925092509250925092565b606060008054906101000a900473ffffffffffffffffffffffffffffffffffffffff1673ffffffffffffffffffffffffffffffffffffffff1663c5958af984846040518363ffffffff1660e01b815260040161078b929190611a43565b60006040518083038186803b1580156107a357600080fd5b505afa1580156107b7573d6000803e3d6000fd5b505050506040513d6000823e3d601f19601f820116820180604052508101906107e09190611700565b905092915050565b60008060009054906101000a900473ffffffffffffffffffffffffffffffffffffffff1673ffffffffffffffffffffffffffffffffffffffff1663ce5e11bf84846040518363ffffffff1660e01b8152600401610846929190611a43565b60206040518083038186803b15801561085e57600080fd5b505afa158015610872573d6000803e3d6000fd5b505050506040513d601f19601f820116820180604052508101906108969190611741565b905092915050565b60008060009054906101000a900473ffffffffffffffffffffffffffffffffffffffff1673ffffffffffffffffffffffffffffffffffffffff1663e07c548684846040518363ffffffff1660e01b81526004016108fc929190611a43565b60206040518083038186803b15801561091457600080fd5b505afa158015610928573d6000803e3d6000fd5b505050506040513d601f19601f8201168201806040525081019061094c9190611502565b905092915050565b60008060008054906101000a900473ffffffffffffffffffffffffffffffffffffffff1673ffffffffffffffffffffffffffffffffffffffff16632944908585856040518363ffffffff1660e01b81526004016109b2929190611a43565b604080518083038186803b1580156109c957600080fd5b505afa1580156109dd573d6000803e3d6000fd5b505050506040513d601f19601f82011682018060405250810190610a0191906115bb565b80925081935050508115610a1e578080610a1a90611ef0565b9150505b60008060009054906101000a900473ffffffffffffffffffffffffffffffffffffffff1673ffffffffffffffffffffffffffffffffffffffff166377b03e0d866040518263ffffffff1660e01b8152600401610a7a9190611a28565b60206040518083038186803b158015610a9257600080fd5b505afa158015610aa6573d6000803e3d6000fd5b505050506040513d601f19601f82011682018060405250810190610aca9190611741565b9050818111610ae0576000809250925050610c7a565b60008060009054906101000a900473ffffffffffffffffffffffffffffffffffffffff1673ffffffffffffffffffffffffffffffffffffffff1663ce5e11bf87856040518363ffffffff1660e01b8152600401610b3e929190611a43565b60206040518083038186803b158015610b5657600080fd5b505afa158015610b6a573d6000803e3d6000fd5b505050506040513d601f19601f82011682018060405250810190610b8e9190611741565b905084811115610ba357600193505050610c7a565b8280610bae90611ef0565b935050828211610bc657600080935093505050610c7a565b60008054906101000a900473ffffffffffffffffffffffffffffffffffffffff1673ffffffffffffffffffffffffffffffffffffffff1663ce5e11bf87856040518363ffffffff1660e01b8152600401610c21929190611a43565b60206040518083038186803b158015610c3957600080fd5b505afa158015610c4d573d6000803e3d6000fd5b505050506040513d601f19601f82011682018060405250810190610c719190611741565b90506001935050505b9250929050565b6000806000806000600190507fdfaa6f747f0f012e8f2069d6ecacff25f5cdf0258702051747439949737fc0b560001b861415610d17576000604051602001610cc990611b76565b604051602081830303815290604052604051602001610ce89190611bdc565b6040516020818303038152906040529050808051906020012096506001925066038d7ea4c68000915050610eb2565b7f637b7efb6b620736c247aaa282f3898914c0bef6c12faff0d3fe9d4bea78302060001b861415610da1576000604051602001610d5390611b43565b604051602081830303815290604052604051602001610d729190611bdc565b6040516020818303038152906040529050808051906020012096506001925066038d7ea4c68000915050610eb1565b7f2dfb033e1ae0529b328985942d27f2d5a62213f3a2d97ca8e27ad2864c5af94260001b861415610e2b576000604051602001610ddd90611b10565b604051602081830303815290604052604051602001610dfc9190611bdc565b6040516020818303038152906040529050808051906020012096506001925066038d7ea4c68000915050610eb0565b7f9899e35601719f1348e09967349f72c7d04800f17c14992d6dcf2f17fac713ea60001b861415610eaf576000604051602001610e6790611ba9565b604051602081830303815290604052604051602001610e869190611bdc565b6040516020818303038152906040529050808051906020012096506001925064e8d4a510009150505b5b5b5b6000610ebd876105b7565b90506000811415610edc57600080610194955095509550505050610f5a565b610ef287600183610eed9190611dc9565b6107e8565b94506000610f00888761072e565b9050600081511415610f215760008061019496509650965050505050610f5a565b600081806020019051810190610f379190611741565b90508381610f459190611d3e565b9050809750878760c897509750975050505050505b9193909250565b606080600080610f7c888789610f779190611dc9565b610954565b915091508161107057600067ffffffffffffffff811115610fc6577f4e487b7100000000000000000000000000000000000000000000000000000000600052604160045260246000fd5b604051908082528060200260200182016040528015610ff45781602001602082028036833780820191505090505b50600067ffffffffffffffff811115611036577f4e487b7100000000000000000000000000000000000000000000000000000000600052604160045260246000fd5b6040519080825280602002602001820160405280156110645781602001602082028036833780820191505090505b509350935050506113c0565b600061107c898961035e565b80925081945050508261117557600067ffffffffffffffff8111156110ca577f4e487b7100000000000000000000000000000000000000000000000000000000600052604160045260246000fd5b6040519080825280602002602001820160405280156110f85781602001602082028036833780820191505090505b50600067ffffffffffffffff81111561113a577f4e487b7100000000000000000000000000000000000000000000000000000000600052604160045260246000fd5b6040519080825280602002602001820160405280156111685781602001602082028036833780820191505090505b50945094505050506113c0565b6000600183836111859190611dc9565b61118f9190611ce8565b9050868111156111b757600187836111a79190611dc9565b6111b19190611ce8565b92508690505b60008167ffffffffffffffff8111156111f9577f4e487b7100000000000000000000000000000000000000000000000000000000600052604160045260246000fd5b6040519080825280602002602001820160405280156112275781602001602082028036833780820191505090505b50905060008267ffffffffffffffff81111561126c577f4e487b7100000000000000000000000000000000000000000000000000000000600052604160045260246000fd5b60405190808252806020026020018201604052801561129a5781602001602082028036833780820191505090505b509050606060005b848110156113b1576112bf8e82896112ba9190611ce8565b6107e8565b8382815181106112f8577f4e487b7100000000000000000000000000000000000000000000000000000000600052603260045260246000fd5b60200260200101818152505061134e8e848381518110611341577f4e487b7100000000000000000000000000000000000000000000000000000000600052603260045260246000fd5b602002602001015161072e565b915061135982610416565b848281518110611392577f4e487b7100000000000000000000000000000000000000000000000000000000600052603260045260246000fd5b60200260200101818152505080806113a990611ef0565b9150506112a2565b50828298509850505050505050505b94509492505050565b60006113dc6113d784611c51565b611c2c565b9050828152602081018484840111156113f457600080fd5b6113ff848285611e7d565b509392505050565b600061141a61141584611c51565b611c2c565b90508281526020810184848401111561143257600080fd5b61143d848285611e8c565b509392505050565b600081519050611454816120cd565b92915050565b600081519050611469816120e4565b92915050565b60008135905061147e816120fb565b92915050565b600082601f83011261149557600080fd5b81356114a58482602086016113c9565b91505092915050565b600082601f8301126114bf57600080fd5b81516114cf848260208601611407565b91505092915050565b6000813590506114e781612112565b92915050565b6000815190506114fc81612112565b92915050565b60006020828403121561151457600080fd5b600061152284828501611445565b91505092915050565b60006020828403121561153d57600080fd5b600061154b8482850161145a565b91505092915050565b60008060006060848603121561156957600080fd5b60006115778682870161145a565b935050602084015167ffffffffffffffff81111561159457600080fd5b6115a0868287016114ae565b92505060406115b1868287016114ed565b9150509250925092565b600080604083850312156115ce57600080fd5b60006115dc8582860161145a565b92505060206115ed858286016114ed565b9150509250929050565b60006020828403121561160957600080fd5b60006116178482850161146f565b91505092915050565b6000806040838503121561163357600080fd5b60006116418582860161146f565b9250506020611652858286016114d8565b9150509250929050565b6000806000806080858703121561167257600080fd5b60006116808782880161146f565b9450506020611691878288016114d8565b93505060406116a2878288016114d8565b92505060606116b3878288016114d8565b91505092959194509250565b6000602082840312156116d157600080fd5b600082013567ffffffffffffffff8111156116eb57600080fd5b6116f784828501611484565b91505092915050565b60006020828403121561171257600080fd5b600082015167ffffffffffffffff81111561172c57600080fd5b611738848285016114ae565b91505092915050565b60006020828403121561175357600080fd5b6000611761848285016114ed565b91505092915050565b60006117768383611936565b60208301905092915050565b61178b81611dfd565b82525050565b600061179c82611c92565b6117a68185611cb5565b93506117b183611c82565b8060005b838110156117e25781516117c9888261176a565b97506117d483611ca8565b9250506001810190506117b5565b5085935050505092915050565b6117f881611e0f565b82525050565b61180781611e1b565b82525050565b600061181882611c9d565b6118228185611cc6565b9350611832818560208601611e8c565b61183b81611fc6565b840191505092915050565b61184f81611e59565b82525050565b61185e81611e25565b82525050565b6000611871600383611cd7565b915061187c82611fd7565b602082019050919050565b6000611894600383611cd7565b915061189f82612000565b602082019050919050565b60006118b7600383611cd7565b91506118c282612029565b602082019050919050565b60006118da600383611cd7565b91506118e582612052565b602082019050919050565b60006118fd600383611cd7565b91506119088261207b565b602082019050919050565b6000611920600983611cd7565b915061192b826120a4565b602082019050919050565b61193f81611e4f565b82525050565b61194e81611e4f565b82525050565b60006020820190506119696000830184611782565b92915050565b600060408201905081810360008301526119898185611791565b9050818103602083015261199d8184611791565b90509392505050565b60006020820190506119bb60008301846117ef565b92915050565b60006060820190506119d660008301866117ef565b81810360208301526119e8818561180d565b90506119f76040830184611945565b949350505050565b6000604082019050611a1460008301856117ef565b611a216020830184611945565b9392505050565b6000602082019050611a3d60008301846117fe565b92915050565b6000604082019050611a5860008301856117fe565b611a656020830184611945565b9392505050565b60006020820190508181036000830152611a86818461180d565b905092915050565b60006040820190508181036000830152611aa8818561180d565b9050611ab76020830184611945565b9392505050565b6000602082019050611ad36000830184611846565b92915050565b6000606082019050611aee6000830186611855565b611afb6020830185611945565b611b086040830184611945565b949350505050565b60006040820190508181036000830152611b2981611864565b90508181036020830152611b3c816118cd565b9050919050565b60006040820190508181036000830152611b5c81611887565b90508181036020830152611b6f816118cd565b9050919050565b60006040820190508181036000830152611b8f816118aa565b90508181036020830152611ba2816118cd565b9050919050565b60006040820190508181036000830152611bc2816118f0565b90508181036020830152611bd5816118cd565b9050919050565b60006040820190508181036000830152611bf581611913565b90508181036020830152611c09818461180d565b905092915050565b6000602082019050611c266000830184611945565b92915050565b6000611c36611c47565b9050611c428282611ebf565b919050565b6000604051905090565b600067ffffffffffffffff821115611c6c57611c6b611f97565b5b611c7582611fc6565b9050602081019050919050565b6000819050602082019050919050565b600081519050919050565b600081519050919050565b6000602082019050919050565b600082825260208201905092915050565b600082825260208201905092915050565b600082825260208201905092915050565b6000611cf382611e4f565b9150611cfe83611e4f565b9250827fffffffffffffffffffffffffffffffffffffffffffffffffffffffffffffffff03821115611d3357611d32611f39565b5b828201905092915050565b6000611d4982611e4f565b9150611d5483611e4f565b925082611d6457611d63611f68565b5b828204905092915050565b6000611d7a82611e4f565b9150611d8583611e4f565b9250817fffffffffffffffffffffffffffffffffffffffffffffffffffffffffffffffff0483118215151615611dbe57611dbd611f39565b5b828202905092915050565b6000611dd482611e4f565b9150611ddf83611e4f565b925082821015611df257611df1611f39565b5b828203905092915050565b6000611e0882611e2f565b9050919050565b60008115159050919050565b6000819050919050565b6000819050919050565b600073ffffffffffffffffffffffffffffffffffffffff82169050919050565b6000819050919050565b6000611e6482611e6b565b9050919050565b6000611e7682611e2f565b9050919050565b82818337600083830152505050565b60005b83811015611eaa578082015181840152602081019050611e8f565b83811115611eb9576000848401525b50505050565b611ec882611fc6565b810181811067ffffffffffffffff82111715611ee757611ee6611f97565b5b80604052505050565b6000611efb82611e4f565b91507fffffffffffffffffffffffffffffffffffffffffffffffffffffffffffffffff821415611f2e57611f2d611f39565b5b600182019050919050565b7f4e487b7100000000000000000000000000000000000000000000000000000000600052601160045260246000fd5b7f4e487b7100000000000000000000000000000000000000000000000000000000600052601260045260246000fd5b7f4e487b7100000000000000000000000000000000000000000000000000000000600052604160045260246000fd5b6000601f19601f8301169050919050565b7f7861750000000000000000000000000000000000000000000000000000000000600082015250565b7f6274630000000000000000000000000000000000000000000000000000000000600082015250565b7f6574680000000000000000000000000000000000000000000000000000000000600082015250565b7f7573640000000000000000000000000000000000000000000000000000000000600082015250565b7f6461690000000000000000000000000000000000000000000000000000000000600082015250565b7f53706f7450726963650000000000000000000000000000000000000000000000600082015250565b6120d681611dfd565b81146120e157600080fd5b50565b6120ed81611e0f565b81146120f857600080fd5b50565b61210481611e1b565b811461210f57600080fd5b50565b61211b81611e4f565b811461212657600080fd5b5056fea2646970667358221220e625f90d7668d60b2a03847137926b71f41a626447d657d428c87821a7a9e8ce64736f6c63430008030033",
  "linkReferences": {},
  "deployedLinkReferences": {}
}