{
  "_format": "hh-sol-artifact-1",
  "contractName": "BenchUsingTellor",
  "sourceName": "contracts/mocks/BenchUsingTellor.sol",
  "abi": [
    {
      "inputs": [
        {
          "internalType": "address payable",
          "name": "_tellor",
          "type": "address"
        }
      ],
      "stateMutability": "nonpayable",
      "type": "constructor"
    },
    {
      "inputs": [
        {
          "internalType": "bytes32",
          "name": "_queryId",
          "type": "bytes32"
        },
        {
          "internalType": "uint256",
          "name": "_timestamp",
          "type": "uint256"
        }
      ],
      "name": "getDataAfter",
      "outputs": [
        {
          "internalType": "bytes",
          "name": "_value",
          "type": "bytes"
        },
        {
          "internalType": "uint256",
          "name": "_timestampRetrieved",
          "type": "uint256"
        }
      ],
      "stateMutability": "view",
      "type": "function"
    },
    {
      "inputs": [
        {
          "internalType": "bytes32",
          "name": "_queryId",
          "type": "bytes32"
        },
        {
          "internalType": "uint256",
          "name": "_timestamp",
          "type": "uint256"
        }
      ],
      "name": "getDataBefore",
      "outputs": [
        {
          "internalType": "bytes",
          "name": "_value",
          "type": "bytes"
        },
        {
          "internalType": "uint256",
          "name": "_timestampRetrieved",
          "type": "uint256"
        }
      ],
      "stateMutability": "view",
      "type": "function"
    },
    {
      "inputs": [
        {
          "internalType": "bytes32",
          "name": "_queryId",
          "type": "bytes32"
        },
        {
          "internalType": "uint256",
          "name": "_timestamp",
          "type": "uint256"
        }
      ],
      "name": "getIndexForDataAfter",
      "outputs": [
        {
          "internalType": "bool",
          "name": "_found",
          "type": "bool"
        },
        {
          "internalType": "uint256",
          "name": "_index",
          "type": "uint256"
        }
      ],
      "stateMutability": "view",
      "type": "function"
    },
    {
      "inputs": [
        {
          "internalType": "bytes32",
          "name": "_queryId",
          "type": "bytes32"
        },
        {
          "internalType": "uint256",
          "name": "_timestamp",
          "type": "uint256"
        }
      ],
      "name": "getIndexForDataBefore",
      "outputs": [
        {
          "internalType": "bool",
          "name": "_found",
          "type": "bool"
        },
        {
          "internalType": "uint256",
          "name": "_index",
          "type": "uint256"
        }
      ],
      "stateMutability": "view",
      "type": "function"
    },
    {
      "inputs": [
        {
          "internalType": "bytes32",
          "name": "_queryId",
          "type": "bytes32"
        },
        {
          "internalType": "uint256",
          "name": "_timestamp",
          "type": "uint256"
        },
        {
          "internalType": "uint256",
          "name": "_maxAge",
          "type": "uint256"
        },
        {
          "internalType": "uint256",
          "name": "_maxCount",
          "type": "uint256"
        }
      ],
      "name": "getMultipleValuesBefore",
      "outputs": [
        {
          "internalType": "bytes[]",
          "name": "_values",
          "type": "bytes[]"
        },
        {
          "internalType": "uint256[]",
          "name": "_timestamps",
          "type": "uint256[]"
        }
      ],
      "stateMutability": "view",
      "type": "function"
    },
    {
      "inputs": [
        {
          "internalType": "bytes32",
          "name": "_queryId",
          "type": "bytes32"
        }
      ],
      "name": "getNewValueCountbyQueryId",
      "outputs": [
        {
          "internalType": "uint256",
          "name": "",
          "type": "uint256"
        }
      ],
      "stateMutability": "view",
      "type": "function"
    },
    {
      "inputs": [
        {
          "internalType": "bytes32",
          "name": "_queryId",
          "type": "bytes32"
        },
        {
          "internalType": "uint256",
          "name": "_timestamp",
          "type": "uint256"
        }
      ],
      "name": "getReporterByTimestamp",
      "outputs": [
        {
          "internalType": "address",
          "name": "",
          "type": "address"
        }
      ],
      "stateMutability": "view",
      "type": "function"
    },
    {
      "inputs": [
        {
          "internalType": "bytes32",
          "name": "_queryId",
          "type": "bytes32"
        },
        {
          "internalType": "uint256",
          "name": "_index",
          "type": "uint256"
        }
      ],
      "name": "getTimestampbyQueryIdandIndex",
      "outputs": [
        {
          "internalType": "uint256",
          "name": "",
          "type": "uint256"
        }
      ],
      "stateMutability": "view",
      "type": "function"
    },
    {
      "inputs": [],
      "name": "idMappingContract",
      "outputs": [
        {
          "internalType": "contract IMappingContract",
          "name": "",
          "type": "address"
        }
      ],
      "stateMutability": "view",
      "type": "function"
    },
    {
      "inputs": [
        {
          "internalType": "bytes32",
          "name": "_queryId",
          "type": "bytes32"
        },
        {
          "internalType": "uint256",
          "name": "_timestamp",
          "type": "uint256"
        }
      ],
      "name": "isInDispute",
      "outputs": [
        {
          "internalType": "bool",
          "name": "",
          "type": "bool"
        }
      ],
      "stateMutability": "view",
      "type": "function"
    },
    {
      "inputs": [
        {
          "internalType": "bytes32",
          "name": "_queryId",
          "type": "bytes32"
        },
        {
          "internalType": "uint256",
          "name": "_timestamp",
          "type": "uint256"
        }
      ],
      "name": "retrieveData",
      "outputs": [
        {
          "internalType": "bytes",
          "name": "",
          "type": "bytes"
        }
      ],
      "stateMutability": "view",
      "type": "function"
    },
    {
      "inputs": [
        {
          "internalType": "address",
          "name": "_addy",
          "type": "address"
        }
      ],
      "name": "setIdMappingContract",
      "outputs": [],
      "stateMutability": "nonpayable",
      "type": "function"
    },
    {
      "inputs": [
        {
          "internalType": "bytes",
          "name": "_b",
          "type": "bytes"
        }
      ],
      "name": "sliceUint",
      "outputs": [
        {
          "internalType": "uint256",
          "name": "",
          "type": "uint256"
        }
      ],
      "stateMutability": "pure",
      "type": "function"
    },
    {
      "inputs": [],
      "name": "tellor",
      "outputs": [
        {
          "internalType": "contract ITellor",
          "name": "",
          "type": "address"
        }
      ],
      "stateMutability": "view",
      "type": "function"
    },
    {
      "inputs": [
        {
          "internalType": "bytes32",
          "name": "_id",
          "type": "bytes32"
        }
      ],
      "name": "valueFor",
      "outputs": [
        {
          "internalType": "int256",
          "name": "_value",
          "type": "int256"
        },
        {
          "internalType": "uint256",
          "name": "_timestamp",
          "type": "uint256"
        },
        {
          "internalType": "uint256",
          "name": "_statusCode",
          "type": "uint256"
        }
      ],
      "stateMutability": "view",
      "type": "function"
    }
  ],
  "bytecode": "0x608060405234801561001057600080fd5b506040516112f63803806112f683398101604081905261002f91610054565b600080546001600160a01b0319166001600160a01b0392909216919091179055610082565b600060208284031215610065578081fd5b81516001600160a01b038116811461007b578182fd5b9392505050565b611265806100916000396000f3fe608060405234801561001057600080fd5b50600436106100f55760003560e01c806377b03e0d11610097578063e07c548611610066578063e07c54861461023a578063f66f49c31461024d578063f78eea8314610260578063fcd4a5461461028e576100f5565b806377b03e0d146101e1578063a792765f146101f4578063c5958af914610207578063ce5e11bf14610227576100f5565b80632af8aae0116100d35780632af8aae01461016957806344e87f911461017c5780634c8a78e81461019f57806364ee3c6d146101c0576100f5565b8063193b505b146100fa5780631959ad5b1461010f578063294490851461013f575b600080fd5b61010d610108366004610dcd565b6102af565b005b600054610122906001600160a01b031681565b6040516001600160a01b0390911681526020015b60405180910390f35b61015261014d366004610ecf565b6102f4565b604080519215158352602083019190915201610136565b600154610122906001600160a01b031681565b61018f61018a366004610ecf565b610383565b6040519015158152602001610136565b6101b26101ad366004610f21565b61040e565b604051908152602001610136565b6101d36101ce366004610ecf565b610421565b6040516101369291906110a0565b6101b26101ef366004610e9f565b61047a565b6101d3610202366004610ecf565b6104f7565b61021a610215366004610ecf565b61058d565b604051610136919061108d565b6101b2610235366004610ecf565b610615565b610122610248366004610ecf565b610699565b61015261025b366004610ecf565b61071d565b61027361026e366004610e9f565b6108d9565b60408051938452602084019290925290820152606001610136565b6102a161029c366004610ef0565b6109a9565b604051610136929190610ff4565b6001546001600160a01b0316156102c557600080fd5b6001805473ffffffffffffffffffffffffffffffffffffffff19166001600160a01b0392909216919091179055565b60008054604051632944908560e01b8152600481018590526024810184905282916001600160a01b031690632944908590604401604080518083038186803b15801561033f57600080fd5b505afa158015610353573d6000803e3d6000fd5b505050506040513d601f19601f820116820180604052508101906103779190610e74565b915091505b9250929050565b600080546040516344e87f9160e01b815260048101859052602481018490526001600160a01b03909116906344e87f919060440160206040518083038186803b1580156103cf57600080fd5b505afa1580156103e3573d6000803e3d6000fd5b505050506040513d601f19601f820116820180604052508101906104079190610e05565b9392505050565b600061041982610d08565b90505b919050565b60606000806000610432868661071d565b9150915081610459576000604051806020016040528060008152509093509350505061037c565b6104638682610615565b925061046f868461058d565b935050509250929050565b600080546040516377b03e0d60e01b8152600481018490526001600160a01b03909116906377b03e0d9060240160206040518083038186803b1580156104bf57600080fd5b505afa1580156104d3573d6000803e3d6000fd5b505050506040513d601f19601f820116820180604052508101906104199190610eb7565b6000805460405163a792765f60e01b81526004810185905260248101849052606092916001600160a01b03169063a792765f9060440160006040518083038186803b15801561054557600080fd5b505afa158015610559573d6000803e3d6000fd5b505050506040513d6000823e601f3d908101601f191682016040526105819190810190610e1f565b90969095509350505050565b60005460405163c5958af960e01b815260048101849052602481018390526060916001600160a01b03169063c5958af99060440160006040518083038186803b1580156105d957600080fd5b505afa1580156105ed573d6000803e3d6000fd5b505050506040513d6000823e601f3d908101601f191682016040526104079190810190610f95565b6000805460405163ce5e11bf60e01b815260048101859052602481018490526001600160a01b039091169063ce5e11bf9060440160206040518083038186803b15801561066157600080fd5b505afa158015610675573d6000803e3d6000fd5b505050506040513d601f19601f820116820180604052508101906104079190610eb7565b6000805460405163703e2a4360e11b815260048101859052602481018490526001600160a01b039091169063e07c54869060440160206040518083038186803b1580156106e557600080fd5b505afa1580156106f9573d6000803e3d6000fd5b505050506040513d601f19601f820116820180604052508101906104079190610de9565b600080600061072b8561047a565b90508061073f57600080925092505061037c565b80610749816111b9565b915060019050600080838161075e8a83610615565b9050888111610779576000809750975050505050505061037c565b6107838a84610615565b90508881111561079257600094505b84156108445760026107a4848461111b565b6107ae9190611133565b93506107ba8a85610615565b9050888111156107fb5760006107d58b610235600188611172565b90508981116107e757600095506107f5565b6107f2600186611172565b92505b5061083f565b600061080c8b61023587600161111b565b90508981111561082f576000955084610824816111d0565b95505080915061083d565b61083a85600161111b565b93505b505b610792565b61084e8a82610383565b610864576001849750975050505050505061037c565b61086e8a82610383565b801561087957508584105b1561089c5783610888816111d0565b9450506108958a85610615565b9050610864565b85841480156108b057506108b08a82610383565b156108c7576000809750975050505050505061037c565b6001849750975050505050505061037c565b6001546040516387a475fd60e01b8152600481018390526000918291829182916001600160a01b03909116906387a475fd9060240160206040518083038186803b15801561092657600080fd5b505afa15801561093a573d6000803e3d6000fd5b505050506040513d601f19601f8201168201806040525081019061095e9190610eb7565b905060606109718261020242600161111b565b945090508361098d5760008061019494509450945050506109a2565b600061099882610d08565b955060c893505050505b9193909250565b6060806000806109bd8861025b888a611172565b9150915081610a0e5760408051600080825260208201909252906109f1565b60608152602001906001900390816109dc5790505b506040805160008152602081019091529094509250610cff915050565b6000610a1a89896102f4565b909350905082610a6d576040805160008082526020820190925290610a4f565b6060815260200190600190039081610a3a5790505b506040805160008152602081019091529095509350610cff92505050565b60008060008867ffffffffffffffff811115610a9957634e487b7160e01b600052604160045260246000fd5b604051908082528060200260200182016040528015610ac2578160200160208202803683370190505b5090505b8883108015610ae957508482610add86600161111b565b610ae79190611172565b115b15610b5b576000610afe8d6102358588611172565b9050610b0a8d82610383565b610b485780828581518110610b2f57634e487b7160e01b600052603260045260246000fd5b602090810291909101015283610b44816111d0565b9450505b82610b52816111d0565b93505050610ac6565b60008367ffffffffffffffff811115610b8457634e487b7160e01b600052604160045260246000fd5b604051908082528060200260200182016040528015610bb757816020015b6060815260200190600190039081610ba25790505b50905060008467ffffffffffffffff811115610be357634e487b7160e01b600052604160045260246000fd5b604051908082528060200260200182016040528015610c0c578160200160208202803683370190505b50905060005b85811015610cf2578381610c27600189611172565b610c319190611172565b81518110610c4f57634e487b7160e01b600052603260045260246000fd5b6020026020010151828281518110610c7757634e487b7160e01b600052603260045260246000fd5b602002602001018181525050610cb48f838381518110610ca757634e487b7160e01b600052603260045260246000fd5b602002602001015161058d565b838281518110610cd457634e487b7160e01b600052603260045260246000fd5b60200260200101819052508080610cea906111d0565b915050610c12565b5090985096505050505050505b94509492505050565b6000805b8251811015610d6757828181518110610d3557634e487b7160e01b600052603260045260246000fd5b016020015160f81c610d4983610100611153565b610d53919061111b565b915080610d5f816111d0565b915050610d0c565b50919050565b8051801515811461041c57600080fd5b600082601f830112610d8d578081fd5b8151610da0610d9b826110f3565b6110c2565b818152846020838601011115610db4578283fd5b610dc5826020830160208701611189565b949350505050565b600060208284031215610dde578081fd5b813561040781611217565b600060208284031215610dfa578081fd5b815161040781611217565b600060208284031215610e16578081fd5b61040782610d6d565b600080600060608486031215610e33578182fd5b610e3c84610d6d565b9250602084015167ffffffffffffffff811115610e57578283fd5b610e6386828701610d7d565b925050604084015190509250925092565b60008060408385031215610e86578182fd5b610e8f83610d6d565b9150602083015190509250929050565b600060208284031215610eb0578081fd5b5035919050565b600060208284031215610ec8578081fd5b5051919050565b60008060408385031215610ee1578182fd5b50508035926020909101359150565b60008060008060808587031215610f05578081fd5b5050823594602084013594506040840135936060013592509050565b600060208284031215610f32578081fd5b813567ffffffffffffffff811115610f48578182fd5b8201601f81018413610f58578182fd5b8035610f66610d9b826110f3565b818152856020838501011115610f7a578384fd5b81602084016020830137908101602001929092525092915050565b600060208284031215610fa6578081fd5b815167ffffffffffffffff811115610fbc578182fd5b610dc584828501610d7d565b60008151808452610fe0816020860160208601611189565b601f01601f19169290920160200192915050565b6000604082016040835280855180835260608501915060608160051b86010192506020808801855b8381101561104a57605f19888703018552611038868351610fc8565b9550938201939082019060010161101c565b505085840381870152865180855287820194820193509150845b8281101561108057845184529381019392810192600101611064565b5091979650505050505050565b6000602082526104076020830184610fc8565b6000604082526110b36040830185610fc8565b90508260208301529392505050565b604051601f8201601f1916810167ffffffffffffffff811182821017156110eb576110eb611201565b604052919050565b600067ffffffffffffffff82111561110d5761110d611201565b50601f01601f191660200190565b6000821982111561112e5761112e6111eb565b500190565b60008261114e57634e487b7160e01b81526012600452602481fd5b500490565b600081600019048311821515161561116d5761116d6111eb565b500290565b600082821015611184576111846111eb565b500390565b60005b838110156111a457818101518382015260200161118c565b838111156111b3576000848401525b50505050565b6000816111c8576111c86111eb565b506000190190565b60006000198214156111e4576111e46111eb565b5060010190565b634e487b7160e01b600052601160045260246000fd5b634e487b7160e01b600052604160045260246000fd5b6001600160a01b038116811461122c57600080fd5b5056fea264697066735822122066eab668835267a152c3a373b02992178cdc1739b0685ff134c0886352994e8f64736f6c63430008030033",
  "linkReferences": {},
  "deployedLinkReferences": {}
}