{
  "_format": "hh-sol-artifact-1",
  "contractName": "BenchUsingTellor",
  "sourceName": "contracts/mocks/BenchUsingTellor.sol",
  "abi": [
    {
      "inputs": [
        {
          "internalType": "address payable",
          "name": "_tellor",
          "type": "address"
        }
      ],
      "stateMutability": "nonpayable",
      "type": "constructor"
    },
    {
      "inputs": [
        {
          "internalType": "bytes32",
          "name": "_queryId",
          "type": "bytes32"
        },
        {
          "internalType": "uint256",
          "name": "_timestamp",
          "type": "uint256"
        }
      ],
      "name": "getDataAfter",
      "outputs": [
        {
          "internalType": "bool",
          "name": "_ifRetrieve",
          "type": "bool"
        },
        {
          "internalType": "bytes",
          "name": "_value",
          "type": "bytes"
        },
        {
          "internalType": "uint256",
          "name": "_timestampRetrieved",
          "type": "uint256"
        }
      ],
      "stateMutability": "view",
      "type": "function"
    },
    {
      "inputs": [
        {
          "internalType": "bytes32",
          "name": "_queryId",
          "type": "bytes32"
        },
        {
          "internalType": "uint256",
          "name": "_timestamp",
          "type": "uint256"
        }
      ],
      "name": "getDataBefore",
      "outputs": [
        {
          "internalType": "bool",
          "name": "_ifRetrieve",
          "type": "bool"
        },
        {
          "internalType": "bytes",
          "name": "_value",
          "type": "bytes"
        },
        {
          "internalType": "uint256",
          "name": "_timestampRetrieved",
          "type": "uint256"
        }
      ],
      "stateMutability": "view",
      "type": "function"
    },
    {
      "inputs": [
        {
          "internalType": "bytes32",
          "name": "_queryId",
          "type": "bytes32"
        },
        {
          "internalType": "uint256",
          "name": "_timestamp",
          "type": "uint256"
        }
      ],
      "name": "getIndexForDataAfter",
      "outputs": [
        {
          "internalType": "bool",
          "name": "_found",
          "type": "bool"
        },
        {
          "internalType": "uint256",
          "name": "_index",
          "type": "uint256"
        }
      ],
      "stateMutability": "view",
      "type": "function"
    },
    {
      "inputs": [
        {
          "internalType": "bytes32",
          "name": "_queryId",
          "type": "bytes32"
        },
        {
          "internalType": "uint256",
          "name": "_timestamp",
          "type": "uint256"
        }
      ],
      "name": "getIndexForDataBefore",
      "outputs": [
        {
          "internalType": "bool",
          "name": "_found",
          "type": "bool"
        },
        {
          "internalType": "uint256",
          "name": "_index",
          "type": "uint256"
        }
      ],
      "stateMutability": "view",
      "type": "function"
    },
    {
      "inputs": [
        {
          "internalType": "bytes32",
          "name": "_queryId",
          "type": "bytes32"
        }
      ],
      "name": "getNewValueCountbyQueryId",
      "outputs": [
        {
          "internalType": "uint256",
          "name": "",
          "type": "uint256"
        }
      ],
      "stateMutability": "view",
      "type": "function"
    },
    {
      "inputs": [
        {
          "internalType": "bytes32",
          "name": "_queryId",
          "type": "bytes32"
        },
        {
          "internalType": "uint256",
          "name": "_timestamp",
          "type": "uint256"
        }
      ],
      "name": "getReporterByTimestamp",
      "outputs": [
        {
          "internalType": "address",
          "name": "",
          "type": "address"
        }
      ],
      "stateMutability": "view",
      "type": "function"
    },
    {
      "inputs": [
        {
          "internalType": "bytes32",
          "name": "_queryId",
          "type": "bytes32"
        },
        {
          "internalType": "uint256",
          "name": "_index",
          "type": "uint256"
        }
      ],
      "name": "getTimestampbyQueryIdandIndex",
      "outputs": [
        {
          "internalType": "uint256",
          "name": "",
          "type": "uint256"
        }
      ],
      "stateMutability": "view",
      "type": "function"
    },
    {
      "inputs": [
        {
          "internalType": "bytes32",
          "name": "_queryId",
          "type": "bytes32"
        },
        {
          "internalType": "uint256",
          "name": "_timestamp",
          "type": "uint256"
        }
      ],
      "name": "isInDispute",
      "outputs": [
        {
          "internalType": "bool",
          "name": "",
          "type": "bool"
        }
      ],
      "stateMutability": "view",
      "type": "function"
    },
    {
      "inputs": [
        {
          "internalType": "bytes32",
          "name": "_queryId",
          "type": "bytes32"
        },
        {
          "internalType": "uint256",
          "name": "_timestamp",
          "type": "uint256"
        }
      ],
      "name": "retrieveData",
      "outputs": [
        {
          "internalType": "bytes",
          "name": "",
          "type": "bytes"
        }
      ],
      "stateMutability": "view",
      "type": "function"
    },
    {
      "inputs": [],
      "name": "tellor",
      "outputs": [
        {
          "internalType": "contract ITellor",
          "name": "",
          "type": "address"
        }
      ],
      "stateMutability": "view",
      "type": "function"
    }
  ],
  "bytecode": "0x608060405234801561001057600080fd5b506040516110b63803806110b68339818101604052810190610032919061008f565b80806000806101000a81548173ffffffffffffffffffffffffffffffffffffffff021916908373ffffffffffffffffffffffffffffffffffffffff1602179055505050610101565b600081519050610089816100ea565b92915050565b6000602082840312156100a157600080fd5b60006100af8482850161007a565b91505092915050565b60006100c3826100ca565b9050919050565b600073ffffffffffffffffffffffffffffffffffffffff82169050919050565b6100f3816100b8565b81146100fe57600080fd5b50565b610fa6806101106000396000f3fe608060405234801561001057600080fd5b506004361061009e5760003560e01c8063a792765f11610066578063a792765f14610184578063c5958af9146101b6578063ce5e11bf146101e6578063e07c548614610216578063f66f49c3146102465761009e565b80631959ad5b146100a357806329449085146100c157806344e87f91146100f257806364ee3c6d1461012257806377b03e0d14610154575b600080fd5b6100ab610277565b6040516100b89190610cda565b60405180910390f35b6100db60048036038101906100d69190610aad565b61029b565b6040516100e9929190610c4b565b60405180910390f35b61010c60048036038101906101079190610aad565b610353565b6040516101199190610bf2565b60405180910390f35b61013c60048036038101906101379190610aad565b610409565b60405161014b93929190610c0d565b60405180910390f35b61016e60048036038101906101699190610a84565b61046c565b60405161017b9190610cf5565b60405180910390f35b61019e60048036038101906101999190610aad565b61051f565b6040516101ad93929190610c0d565b60405180910390f35b6101d060048036038101906101cb9190610aad565b6105e3565b6040516101dd9190610cb8565b60405180910390f35b61020060048036038101906101fb9190610aad565b61069d565b60405161020d9190610cf5565b60405180910390f35b610230600480360381019061022b9190610aad565b610753565b60405161023d9190610bd7565b60405180910390f35b610260600480360381019061025b9190610aad565b610809565b60405161026e929190610c4b565b60405180910390f35b60008054906101000a900473ffffffffffffffffffffffffffffffffffffffff1681565b60008060008054906101000a900473ffffffffffffffffffffffffffffffffffffffff1673ffffffffffffffffffffffffffffffffffffffff16632944908585856040518363ffffffff1660e01b81526004016102f9929190610c8f565b604080518083038186803b15801561031057600080fd5b505afa158015610324573d6000803e3d6000fd5b505050506040513d601f19601f820116820180604052508101906103489190610a48565b915091509250929050565b60008060009054906101000a900473ffffffffffffffffffffffffffffffffffffffff1673ffffffffffffffffffffffffffffffffffffffff166344e87f9184846040518363ffffffff1660e01b81526004016103b1929190610c8f565b60206040518083038186803b1580156103c957600080fd5b505afa1580156103dd573d6000803e3d6000fd5b505050506040513d601f19601f8201168201806040525081019061040191906109b8565b905092915050565b60006060600080600061041c8787610809565b91509150816104465760008060405180602001604052806000815250909450945094505050610465565b610450878261069d565b925061045c87826105e3565b93506001945050505b9250925092565b60008060009054906101000a900473ffffffffffffffffffffffffffffffffffffffff1673ffffffffffffffffffffffffffffffffffffffff166377b03e0d836040518263ffffffff1660e01b81526004016104c89190610c74565b60206040518083038186803b1580156104e057600080fd5b505afa1580156104f4573d6000803e3d6000fd5b505050506040513d601f19601f820116820180604052508101906105189190610b2a565b9050919050565b6000606060008060009054906101000a900473ffffffffffffffffffffffffffffffffffffffff1673ffffffffffffffffffffffffffffffffffffffff1663a792765f86866040518363ffffffff1660e01b8152600401610581929190610c8f565b60006040518083038186803b15801561059957600080fd5b505afa1580156105ad573d6000803e3d6000fd5b505050506040513d6000823e3d601f19601f820116820180604052508101906105d691906109e1565b9250925092509250925092565b606060008054906101000a900473ffffffffffffffffffffffffffffffffffffffff1673ffffffffffffffffffffffffffffffffffffffff1663c5958af984846040518363ffffffff1660e01b8152600401610640929190610c8f565b60006040518083038186803b15801561065857600080fd5b505afa15801561066c573d6000803e3d6000fd5b505050506040513d6000823e3d601f19601f820116820180604052508101906106959190610ae9565b905092915050565b60008060009054906101000a900473ffffffffffffffffffffffffffffffffffffffff1673ffffffffffffffffffffffffffffffffffffffff1663ce5e11bf84846040518363ffffffff1660e01b81526004016106fb929190610c8f565b60206040518083038186803b15801561071357600080fd5b505afa158015610727573d6000803e3d6000fd5b505050506040513d601f19601f8201168201806040525081019061074b9190610b2a565b905092915050565b60008060009054906101000a900473ffffffffffffffffffffffffffffffffffffffff1673ffffffffffffffffffffffffffffffffffffffff1663e07c548684846040518363ffffffff1660e01b81526004016107b1929190610c8f565b60206040518083038186803b1580156107c957600080fd5b505afa1580156107dd573d6000803e3d6000fd5b505050506040513d601f19601f82011682018060405250810190610801919061098f565b905092915050565b600080610816848461029b565b80925081935050508161082f57600080915091506108b7565b808061083a90610e5c565b91505060006108488561046c565b90508181101561085f5760008092509250506108b7565b600061086b868461069d565b905084811115610880576001935050506108b7565b828061088b90610e5c565b935050828210156108a4576000809350935050506108b7565b6108ae868461069d565b90506001935050505b9250929050565b60006108d16108cc84610d35565b610d10565b9050828152602081018484840111156108e957600080fd5b6108f4848285610df8565b509392505050565b60008151905061090b81610f14565b92915050565b60008151905061092081610f2b565b92915050565b60008135905061093581610f42565b92915050565b600082601f83011261094c57600080fd5b815161095c8482602086016108be565b91505092915050565b60008135905061097481610f59565b92915050565b60008151905061098981610f59565b92915050565b6000602082840312156109a157600080fd5b60006109af848285016108fc565b91505092915050565b6000602082840312156109ca57600080fd5b60006109d884828501610911565b91505092915050565b6000806000606084860312156109f657600080fd5b6000610a0486828701610911565b935050602084015167ffffffffffffffff811115610a2157600080fd5b610a2d8682870161093b565b9250506040610a3e8682870161097a565b9150509250925092565b60008060408385031215610a5b57600080fd5b6000610a6985828601610911565b9250506020610a7a8582860161097a565b9150509250929050565b600060208284031215610a9657600080fd5b6000610aa484828501610926565b91505092915050565b60008060408385031215610ac057600080fd5b6000610ace85828601610926565b9250506020610adf85828601610965565b9150509250929050565b600060208284031215610afb57600080fd5b600082015167ffffffffffffffff811115610b1557600080fd5b610b218482850161093b565b91505092915050565b600060208284031215610b3c57600080fd5b6000610b4a8482850161097a565b91505092915050565b610b5c81610d82565b82525050565b610b6b81610d94565b82525050565b610b7a81610da0565b82525050565b6000610b8b82610d66565b610b958185610d71565b9350610ba5818560208601610df8565b610bae81610f03565b840191505092915050565b610bc281610dd4565b82525050565b610bd181610dca565b82525050565b6000602082019050610bec6000830184610b53565b92915050565b6000602082019050610c076000830184610b62565b92915050565b6000606082019050610c226000830186610b62565b8181036020830152610c348185610b80565b9050610c436040830184610bc8565b949350505050565b6000604082019050610c606000830185610b62565b610c6d6020830184610bc8565b9392505050565b6000602082019050610c896000830184610b71565b92915050565b6000604082019050610ca46000830185610b71565b610cb16020830184610bc8565b9392505050565b60006020820190508181036000830152610cd28184610b80565b905092915050565b6000602082019050610cef6000830184610bb9565b92915050565b6000602082019050610d0a6000830184610bc8565b92915050565b6000610d1a610d2b565b9050610d268282610e2b565b919050565b6000604051905090565b600067ffffffffffffffff821115610d5057610d4f610ed4565b5b610d5982610f03565b9050602081019050919050565b600081519050919050565b600082825260208201905092915050565b6000610d8d82610daa565b9050919050565b60008115159050919050565b6000819050919050565b600073ffffffffffffffffffffffffffffffffffffffff82169050919050565b6000819050919050565b6000610ddf82610de6565b9050919050565b6000610df182610daa565b9050919050565b60005b83811015610e16578082015181840152602081019050610dfb565b83811115610e25576000848401525b50505050565b610e3482610f03565b810181811067ffffffffffffffff82111715610e5357610e52610ed4565b5b80604052505050565b6000610e6782610dca565b91507fffffffffffffffffffffffffffffffffffffffffffffffffffffffffffffffff821415610e9a57610e99610ea5565b5b600182019050919050565b7f4e487b7100000000000000000000000000000000000000000000000000000000600052601160045260246000fd5b7f4e487b7100000000000000000000000000000000000000000000000000000000600052604160045260246000fd5b6000601f19601f8301169050919050565b610f1d81610d82565b8114610f2857600080fd5b50565b610f3481610d94565b8114610f3f57600080fd5b50565b610f4b81610da0565b8114610f5657600080fd5b50565b610f6281610dca565b8114610f6d57600080fd5b5056fea26469706673582212204ec22c272429da088c9b07d0bb81619094190dad357e45758aac8e1b58c544b564736f6c63430008030033",
  "linkReferences": {},
  "deployedLinkReferences": {}
}