{
  "_format": "hh-sol-artifact-1",
  "contractName": "BenchUsingTellor",
  "sourceName": "contracts/mocks/BenchUsingTellor.sol",
  "abi": [
    {
      "inputs": [
        {
          "internalType": "address payable",
          "name": "_tellor",
          "type": "address"
        }
      ],
      "stateMutability": "nonpayable",
      "type": "constructor"
    },
    {
      "inputs": [
        {
          "internalType": "bytes",
          "name": "_b",
          "type": "bytes"
        }
      ],
      "name": "_sliceUint",
      "outputs": [
        {
          "internalType": "uint256",
          "name": "_number",
          "type": "uint256"
        }
      ],
      "stateMutability": "pure",
      "type": "function"
    },
    {
      "inputs": [
        {
          "internalType": "bytes32",
          "name": "_queryId",
          "type": "bytes32"
        },
        {
          "internalType": "uint256",
          "name": "_timestamp",
          "type": "uint256"
        }
      ],
      "name": "getDataAfter",
      "outputs": [
        {
          "internalType": "bytes",
          "name": "_value",
          "type": "bytes"
        },
        {
          "internalType": "uint256",
          "name": "_timestampRetrieved",
          "type": "uint256"
        }
      ],
      "stateMutability": "view",
      "type": "function"
    },
    {
      "inputs": [
        {
          "internalType": "bytes32",
          "name": "_queryId",
          "type": "bytes32"
        },
        {
          "internalType": "uint256",
          "name": "_timestamp",
          "type": "uint256"
        }
      ],
      "name": "getDataBefore",
      "outputs": [
        {
          "internalType": "bytes",
          "name": "_value",
          "type": "bytes"
        },
        {
          "internalType": "uint256",
          "name": "_timestampRetrieved",
          "type": "uint256"
        }
      ],
      "stateMutability": "view",
      "type": "function"
    },
    {
      "inputs": [
        {
          "internalType": "bytes32",
          "name": "_queryId",
          "type": "bytes32"
        },
        {
          "internalType": "uint256",
          "name": "_timestamp",
          "type": "uint256"
        }
      ],
      "name": "getIndexForDataAfter",
      "outputs": [
        {
          "internalType": "bool",
          "name": "_found",
          "type": "bool"
        },
        {
          "internalType": "uint256",
          "name": "_index",
          "type": "uint256"
        }
      ],
      "stateMutability": "view",
      "type": "function"
    },
    {
      "inputs": [
        {
          "internalType": "bytes32",
          "name": "_queryId",
          "type": "bytes32"
        },
        {
          "internalType": "uint256",
          "name": "_timestamp",
          "type": "uint256"
        }
      ],
      "name": "getIndexForDataBefore",
      "outputs": [
        {
          "internalType": "bool",
          "name": "_found",
          "type": "bool"
        },
        {
          "internalType": "uint256",
          "name": "_index",
          "type": "uint256"
        }
      ],
      "stateMutability": "view",
      "type": "function"
    },
    {
      "inputs": [
        {
          "internalType": "bytes32",
          "name": "_queryId",
          "type": "bytes32"
        },
        {
          "internalType": "uint256",
          "name": "_timestamp",
          "type": "uint256"
        },
        {
          "internalType": "uint256",
          "name": "_maxAge",
          "type": "uint256"
        },
        {
          "internalType": "uint256",
          "name": "_maxCount",
          "type": "uint256"
        }
      ],
      "name": "getMultipleValuesBefore",
      "outputs": [
        {
          "internalType": "bytes[]",
          "name": "_values",
          "type": "bytes[]"
        },
        {
          "internalType": "uint256[]",
          "name": "_timestamps",
          "type": "uint256[]"
        }
      ],
      "stateMutability": "view",
      "type": "function"
    },
    {
      "inputs": [
        {
          "internalType": "bytes32",
          "name": "_queryId",
          "type": "bytes32"
        }
      ],
      "name": "getNewValueCountbyQueryId",
      "outputs": [
        {
          "internalType": "uint256",
          "name": "",
          "type": "uint256"
        }
      ],
      "stateMutability": "view",
      "type": "function"
    },
    {
      "inputs": [
        {
          "internalType": "bytes32",
          "name": "_queryId",
          "type": "bytes32"
        },
        {
          "internalType": "uint256",
          "name": "_timestamp",
          "type": "uint256"
        }
      ],
      "name": "getReporterByTimestamp",
      "outputs": [
        {
          "internalType": "address",
          "name": "",
          "type": "address"
        }
      ],
      "stateMutability": "view",
      "type": "function"
    },
    {
      "inputs": [
        {
          "internalType": "bytes32",
          "name": "_queryId",
          "type": "bytes32"
        },
        {
          "internalType": "uint256",
          "name": "_index",
          "type": "uint256"
        }
      ],
      "name": "getTimestampbyQueryIdandIndex",
      "outputs": [
        {
          "internalType": "uint256",
          "name": "",
          "type": "uint256"
        }
      ],
      "stateMutability": "view",
      "type": "function"
    },
    {
      "inputs": [],
      "name": "idMappingContract",
      "outputs": [
        {
          "internalType": "contract IMappingContract",
          "name": "",
          "type": "address"
        }
      ],
      "stateMutability": "view",
      "type": "function"
    },
    {
      "inputs": [
        {
          "internalType": "bytes32",
          "name": "_queryId",
          "type": "bytes32"
        },
        {
          "internalType": "uint256",
          "name": "_timestamp",
          "type": "uint256"
        }
      ],
      "name": "isInDispute",
      "outputs": [
        {
          "internalType": "bool",
          "name": "",
          "type": "bool"
        }
      ],
      "stateMutability": "view",
      "type": "function"
    },
    {
      "inputs": [
        {
          "internalType": "bytes32",
          "name": "_queryId",
          "type": "bytes32"
        },
        {
          "internalType": "uint256",
          "name": "_timestamp",
          "type": "uint256"
        }
      ],
      "name": "retrieveData",
      "outputs": [
        {
          "internalType": "bytes",
          "name": "",
          "type": "bytes"
        }
      ],
      "stateMutability": "view",
      "type": "function"
    },
    {
      "inputs": [
        {
          "internalType": "address",
          "name": "_addy",
          "type": "address"
        }
      ],
      "name": "setIdMappingContract",
      "outputs": [],
      "stateMutability": "nonpayable",
      "type": "function"
    },
    {
      "inputs": [],
      "name": "tellor",
      "outputs": [
        {
          "internalType": "contract ITellor",
          "name": "",
          "type": "address"
        }
      ],
      "stateMutability": "view",
      "type": "function"
    },
    {
      "inputs": [
        {
          "internalType": "bytes32",
          "name": "_id",
          "type": "bytes32"
        }
      ],
      "name": "valueFor",
      "outputs": [
        {
          "internalType": "int256",
          "name": "_value",
          "type": "int256"
        },
        {
          "internalType": "uint256",
          "name": "_timestamp",
          "type": "uint256"
        },
        {
          "internalType": "uint256",
          "name": "_statusCode",
          "type": "uint256"
        }
      ],
      "stateMutability": "view",
      "type": "function"
    }
  ],
  "bytecode": "0x60806040523480156200001157600080fd5b506040516200206a3803806200206a833981810160405281019062000037919062000097565b80806000806101000a81548173ffffffffffffffffffffffffffffffffffffffff021916908373ffffffffffffffffffffffffffffffffffffffff160217905550505062000111565b6000815190506200009181620000f7565b92915050565b600060208284031215620000aa57600080fd5b6000620000ba8482850162000080565b91505092915050565b6000620000d082620000d7565b9050919050565b600073ffffffffffffffffffffffffffffffffffffffff82169050919050565b6200010281620000c3565b81146200010e57600080fd5b50565b611f4980620001216000396000f3fe608060405234801561001057600080fd5b50600436106100f55760003560e01c806377b03e0d11610097578063e07c548611610066578063e07c5486146102d5578063f66f49c314610305578063f78eea8314610336578063fcd4a54614610368576100f5565b806377b03e0d14610214578063a792765f14610244578063c5958af914610275578063ce5e11bf146102a5576100f5565b80632af8aae0116100d35780632af8aae014610165578063340a13721461018357806344e87f91146101b357806364ee3c6d146101e3576100f5565b8063193b505b146100fa5780631959ad5b146101165780632944908514610134575b600080fd5b610114600480360381019061010f91906114b8565b610399565b005b61011e610438565b60405161012b9190611aa2565b60405180910390f35b61014e60048036038101906101499190611628565b61045c565b60405161015c9291906119c8565b60405180910390f35b61016d610514565b60405161017a9190611a87565b60405180910390f35b61019d600480360381019061019891906116c7565b61053a565b6040516101aa9190611af4565b60405180910390f35b6101cd60048036038101906101c89190611628565b6105c8565b6040516101da91906119ad565b60405180910390f35b6101fd60048036038101906101f89190611628565b61067e565b60405161020b929190611a57565b60405180910390f35b61022e600480360381019061022991906115d6565b6106d8565b60405161023b9190611af4565b60405180910390f35b61025e60048036038101906102599190611628565b61078b565b60405161026c929190611a57565b60405180910390f35b61028f600480360381019061028a9190611628565b610852565b60405161029c9190611a35565b60405180910390f35b6102bf60048036038101906102ba9190611628565b61090c565b6040516102cc9190611af4565b60405180910390f35b6102ef60048036038101906102ea9190611628565b6109c2565b6040516102fc919061195b565b60405180910390f35b61031f600480360381019061031a9190611628565b610a78565b60405161032d9291906119c8565b60405180910390f35b610350600480360381019061034b91906115d6565b610da5565b60405161035f93929190611abd565b60405180910390f35b610382600480360381019061037d9190611664565b610ee7565b604051610390929190611976565b60405180910390f35b600073ffffffffffffffffffffffffffffffffffffffff16600160009054906101000a900473ffffffffffffffffffffffffffffffffffffffff1673ffffffffffffffffffffffffffffffffffffffff16146103f457600080fd5b80600160006101000a81548173ffffffffffffffffffffffffffffffffffffffff021916908373ffffffffffffffffffffffffffffffffffffffff16021790555050565b60008054906101000a900473ffffffffffffffffffffffffffffffffffffffff1681565b60008060008054906101000a900473ffffffffffffffffffffffffffffffffffffffff1673ffffffffffffffffffffffffffffffffffffffff16632944908585856040518363ffffffff1660e01b81526004016104ba929190611a0c565b604080518083038186803b1580156104d157600080fd5b505afa1580156104e5573d6000803e3d6000fd5b505050506040513d601f19601f82011682018060405250810190610509919061159a565b915091509250929050565b600160009054906101000a900473ffffffffffffffffffffffffffffffffffffffff1681565b600080600090505b82518110156105c257828181518110610584577f4e487b7100000000000000000000000000000000000000000000000000000000600052603260045260246000fd5b602001015160f81c60f81b60f81c60ff16610100836105a39190611c5a565b6105ad9190611c04565b915080806105ba90611dff565b915050610542565b50919050565b60008060009054906101000a900473ffffffffffffffffffffffffffffffffffffffff1673ffffffffffffffffffffffffffffffffffffffff166344e87f9184846040518363ffffffff1660e01b8152600401610626929190611a0c565b60206040518083038186803b15801561063e57600080fd5b505afa158015610652573d6000803e3d6000fd5b505050506040513d601f19601f82011682018060405250810190610676919061150a565b905092915050565b6060600080600061068f8686610a78565b91509150816106b657600060405180602001604052806000815250909350935050506106d1565b6106c0868261090c565b92506106cc8684610852565b935050505b9250929050565b60008060009054906101000a900473ffffffffffffffffffffffffffffffffffffffff1673ffffffffffffffffffffffffffffffffffffffff166377b03e0d836040518263ffffffff1660e01b815260040161073491906119f1565b60206040518083038186803b15801561074c57600080fd5b505afa158015610760573d6000803e3d6000fd5b505050506040513d601f19601f820116820180604052508101906107849190611749565b9050919050565b606060008060009054906101000a900473ffffffffffffffffffffffffffffffffffffffff1673ffffffffffffffffffffffffffffffffffffffff1663a792765f85856040518363ffffffff1660e01b81526004016107eb929190611a0c565b60006040518083038186803b15801561080357600080fd5b505afa158015610817573d6000803e3d6000fd5b505050506040513d6000823e3d601f19601f820116820180604052508101906108409190611533565b90915080925081935050509250929050565b606060008054906101000a900473ffffffffffffffffffffffffffffffffffffffff1673ffffffffffffffffffffffffffffffffffffffff1663c5958af984846040518363ffffffff1660e01b81526004016108af929190611a0c565b60006040518083038186803b1580156108c757600080fd5b505afa1580156108db573d6000803e3d6000fd5b505050506040513d6000823e3d601f19601f820116820180604052508101906109049190611708565b905092915050565b60008060009054906101000a900473ffffffffffffffffffffffffffffffffffffffff1673ffffffffffffffffffffffffffffffffffffffff1663ce5e11bf84846040518363ffffffff1660e01b815260040161096a929190611a0c565b60206040518083038186803b15801561098257600080fd5b505afa158015610996573d6000803e3d6000fd5b505050506040513d601f19601f820116820180604052508101906109ba9190611749565b905092915050565b60008060009054906101000a900473ffffffffffffffffffffffffffffffffffffffff1673ffffffffffffffffffffffffffffffffffffffff1663e07c548684846040518363ffffffff1660e01b8152600401610a20929190611a0c565b60206040518083038186803b158015610a3857600080fd5b505afa158015610a4c573d6000803e3d6000fd5b505050506040513d601f19601f82011682018060405250810190610a7091906114e1565b905092915050565b60008060008054906101000a900473ffffffffffffffffffffffffffffffffffffffff1673ffffffffffffffffffffffffffffffffffffffff16632944908585856040518363ffffffff1660e01b8152600401610ad6929190611a0c565b604080518083038186803b158015610aed57600080fd5b505afa158015610b01573d6000803e3d6000fd5b505050506040513d601f19601f82011682018060405250810190610b25919061159a565b80925081935050508115610b42578080610b3e90611dff565b9150505b60008060009054906101000a900473ffffffffffffffffffffffffffffffffffffffff1673ffffffffffffffffffffffffffffffffffffffff166377b03e0d866040518263ffffffff1660e01b8152600401610b9e91906119f1565b60206040518083038186803b158015610bb657600080fd5b505afa158015610bca573d6000803e3d6000fd5b505050506040513d601f19601f82011682018060405250810190610bee9190611749565b9050818111610c04576000809250925050610d9e565b60008060009054906101000a900473ffffffffffffffffffffffffffffffffffffffff1673ffffffffffffffffffffffffffffffffffffffff1663ce5e11bf87856040518363ffffffff1660e01b8152600401610c62929190611a0c565b60206040518083038186803b158015610c7a57600080fd5b505afa158015610c8e573d6000803e3d6000fd5b505050506040513d601f19601f82011682018060405250810190610cb29190611749565b905084811115610cc757600193505050610d9e565b8280610cd290611dff565b935050828211610cea57600080935093505050610d9e565b60008054906101000a900473ffffffffffffffffffffffffffffffffffffffff1673ffffffffffffffffffffffffffffffffffffffff1663ce5e11bf87856040518363ffffffff1660e01b8152600401610d45929190611a0c565b60206040518083038186803b158015610d5d57600080fd5b505afa158015610d71573d6000803e3d6000fd5b505050506040513d601f19601f82011682018060405250810190610d959190611749565b90506001935050505b9250929050565b6000806000600160009054906101000a900473ffffffffffffffffffffffffffffffffffffffff1673ffffffffffffffffffffffffffffffffffffffff166387a475fd856040518263ffffffff1660e01b8152600401610e0591906119f1565b60206040518083038186803b158015610e1d57600080fd5b505afa158015610e31573d6000803e3d6000fd5b505050506040513d601f19601f82011682018060405250810190610e5591906115ff565b93506000610e62856106d8565b90506000811415610e7f5760008061019493509350935050610ee0565b610e9585600183610e909190611cb4565b61090c565b92506000610ea38685610852565b9050600081511415610ec2576000806101949450945094505050610ee0565b6000610ecd8261053a565b9050809550858560c89550955095505050505b9193909250565b606080600080610f02888789610efd9190611cb4565b610a78565b9150915081610ffb57600067ffffffffffffffff811115610f4c577f4e487b7100000000000000000000000000000000000000000000000000000000600052604160045260246000fd5b604051908082528060200260200182016040528015610f7f57816020015b6060815260200190600190039081610f6a5790505b50600067ffffffffffffffff811115610fc1577f4e487b7100000000000000000000000000000000000000000000000000000000600052604160045260246000fd5b604051908082528060200260200182016040528015610fef5781602001602082028036833780820191505090505b5093509350505061134c565b6000611007898961045c565b80925081945050508261110557600067ffffffffffffffff811115611055577f4e487b7100000000000000000000000000000000000000000000000000000000600052604160045260246000fd5b60405190808252806020026020018201604052801561108857816020015b60608152602001906001900390816110735790505b50600067ffffffffffffffff8111156110ca577f4e487b7100000000000000000000000000000000000000000000000000000000600052604160045260246000fd5b6040519080825280602002602001820160405280156110f85781602001602082028036833780820191505090505b509450945050505061134c565b6000600183836111159190611cb4565b61111f9190611c04565b90508681111561114757600187836111379190611cb4565b6111419190611c04565b92508690505b60008167ffffffffffffffff811115611189577f4e487b7100000000000000000000000000000000000000000000000000000000600052604160045260246000fd5b6040519080825280602002602001820160405280156111bc57816020015b60608152602001906001900390816111a75790505b50905060008267ffffffffffffffff811115611201577f4e487b7100000000000000000000000000000000000000000000000000000000600052604160045260246000fd5b60405190808252806020026020018201604052801561122f5781602001602082028036833780820191505090505b509050606060005b8481101561133d576112548e828961124f9190611c04565b61090c565b83828151811061128d577f4e487b7100000000000000000000000000000000000000000000000000000000600052603260045260246000fd5b6020026020010181815250506112e38e8483815181106112d6577f4e487b7100000000000000000000000000000000000000000000000000000000600052603260045260246000fd5b6020026020010151610852565b91508184828151811061131f577f4e487b7100000000000000000000000000000000000000000000000000000000600052603260045260246000fd5b6020026020010181905250808061133590611dff565b915050611237565b50828298509850505050505050505b94509492505050565b600061136861136384611b34565b611b0f565b90508281526020810184848401111561138057600080fd5b61138b848285611d8c565b509392505050565b60006113a66113a184611b34565b611b0f565b9050828152602081018484840111156113be57600080fd5b6113c9848285611d9b565b509392505050565b6000813590506113e081611eb7565b92915050565b6000815190506113f581611eb7565b92915050565b60008151905061140a81611ece565b92915050565b60008135905061141f81611ee5565b92915050565b60008151905061143481611ee5565b92915050565b600082601f83011261144b57600080fd5b813561145b848260208601611355565b91505092915050565b600082601f83011261147557600080fd5b8151611485848260208601611393565b91505092915050565b60008135905061149d81611efc565b92915050565b6000815190506114b281611efc565b92915050565b6000602082840312156114ca57600080fd5b60006114d8848285016113d1565b91505092915050565b6000602082840312156114f357600080fd5b6000611501848285016113e6565b91505092915050565b60006020828403121561151c57600080fd5b600061152a848285016113fb565b91505092915050565b60008060006060848603121561154857600080fd5b6000611556868287016113fb565b935050602084015167ffffffffffffffff81111561157357600080fd5b61157f86828701611464565b9250506040611590868287016114a3565b9150509250925092565b600080604083850312156115ad57600080fd5b60006115bb858286016113fb565b92505060206115cc858286016114a3565b9150509250929050565b6000602082840312156115e857600080fd5b60006115f684828501611410565b91505092915050565b60006020828403121561161157600080fd5b600061161f84828501611425565b91505092915050565b6000806040838503121561163b57600080fd5b600061164985828601611410565b925050602061165a8582860161148e565b9150509250929050565b6000806000806080858703121561167a57600080fd5b600061168887828801611410565b94505060206116998782880161148e565b93505060406116aa8782880161148e565b92505060606116bb8782880161148e565b91505092959194509250565b6000602082840312156116d957600080fd5b600082013567ffffffffffffffff8111156116f357600080fd5b6116ff8482850161143a565b91505092915050565b60006020828403121561171a57600080fd5b600082015167ffffffffffffffff81111561173457600080fd5b61174084828501611464565b91505092915050565b60006020828403121561175b57600080fd5b6000611769848285016114a3565b91505092915050565b600061177e838361189e565b905092915050565b6000611792838361193d565b60208301905092915050565b6117a781611ce8565b82525050565b60006117b882611b85565b6117c28185611bc0565b9350836020820285016117d485611b65565b8060005b8581101561181057848403895281516117f18582611772565b94506117fc83611ba6565b925060208a019950506001810190506117d8565b50829750879550505050505092915050565b600061182d82611b90565b6118378185611bd1565b935061184283611b75565b8060005b8381101561187357815161185a8882611786565b975061186583611bb3565b925050600181019050611846565b5085935050505092915050565b61188981611cfa565b82525050565b61189881611d06565b82525050565b60006118a982611b9b565b6118b38185611be2565b93506118c3818560208601611d9b565b6118cc81611ea6565b840191505092915050565b60006118e282611b9b565b6118ec8185611bf3565b93506118fc818560208601611d9b565b61190581611ea6565b840191505092915050565b61191981611d44565b82525050565b61192881611d68565b82525050565b61193781611d10565b82525050565b61194681611d3a565b82525050565b61195581611d3a565b82525050565b6000602082019050611970600083018461179e565b92915050565b6000604082019050818103600083015261199081856117ad565b905081810360208301526119a48184611822565b90509392505050565b60006020820190506119c26000830184611880565b92915050565b60006040820190506119dd6000830185611880565b6119ea602083018461194c565b9392505050565b6000602082019050611a06600083018461188f565b92915050565b6000604082019050611a21600083018561188f565b611a2e602083018461194c565b9392505050565b60006020820190508181036000830152611a4f81846118d7565b905092915050565b60006040820190508181036000830152611a7181856118d7565b9050611a80602083018461194c565b9392505050565b6000602082019050611a9c6000830184611910565b92915050565b6000602082019050611ab7600083018461191f565b92915050565b6000606082019050611ad2600083018661192e565b611adf602083018561194c565b611aec604083018461194c565b949350505050565b6000602082019050611b09600083018461194c565b92915050565b6000611b19611b2a565b9050611b258282611dce565b919050565b6000604051905090565b600067ffffffffffffffff821115611b4f57611b4e611e77565b5b611b5882611ea6565b9050602081019050919050565b6000819050602082019050919050565b6000819050602082019050919050565b600081519050919050565b600081519050919050565b600081519050919050565b6000602082019050919050565b6000602082019050919050565b600082825260208201905092915050565b600082825260208201905092915050565b600082825260208201905092915050565b600082825260208201905092915050565b6000611c0f82611d3a565b9150611c1a83611d3a565b9250827fffffffffffffffffffffffffffffffffffffffffffffffffffffffffffffffff03821115611c4f57611c4e611e48565b5b828201905092915050565b6000611c6582611d3a565b9150611c7083611d3a565b9250817fffffffffffffffffffffffffffffffffffffffffffffffffffffffffffffffff0483118215151615611ca957611ca8611e48565b5b828202905092915050565b6000611cbf82611d3a565b9150611cca83611d3a565b925082821015611cdd57611cdc611e48565b5b828203905092915050565b6000611cf382611d1a565b9050919050565b60008115159050919050565b6000819050919050565b6000819050919050565b600073ffffffffffffffffffffffffffffffffffffffff82169050919050565b6000819050919050565b6000611d4f82611d56565b9050919050565b6000611d6182611d1a565b9050919050565b6000611d7382611d7a565b9050919050565b6000611d8582611d1a565b9050919050565b82818337600083830152505050565b60005b83811015611db9578082015181840152602081019050611d9e565b83811115611dc8576000848401525b50505050565b611dd782611ea6565b810181811067ffffffffffffffff82111715611df657611df5611e77565b5b80604052505050565b6000611e0a82611d3a565b91507fffffffffffffffffffffffffffffffffffffffffffffffffffffffffffffffff821415611e3d57611e3c611e48565b5b600182019050919050565b7f4e487b7100000000000000000000000000000000000000000000000000000000600052601160045260246000fd5b7f4e487b7100000000000000000000000000000000000000000000000000000000600052604160045260246000fd5b6000601f19601f8301169050919050565b611ec081611ce8565b8114611ecb57600080fd5b50565b611ed781611cfa565b8114611ee257600080fd5b50565b611eee81611d06565b8114611ef957600080fd5b50565b611f0581611d3a565b8114611f1057600080fd5b5056fea26469706673582212205145e3bc0cfad006322b460b449d1e9bacbe65600655c840cf328a3d5090da3d64736f6c63430008030033",
  "linkReferences": {},
  "deployedLinkReferences": {}
}