{
  "_format": "hh-sol-artifact-1",
  "contractName": "BenchUsingTellor",
  "sourceName": "contracts/mocks/BenchUsingTellor.sol",
  "abi": [
    {
      "inputs": [
        {
          "internalType": "address payable",
          "name": "_tellor",
          "type": "address"
        }
      ],
      "stateMutability": "nonpayable",
      "type": "constructor"
    },
    {
      "inputs": [
        {
          "internalType": "bytes32",
          "name": "_queryId",
          "type": "bytes32"
        },
        {
          "internalType": "uint256",
          "name": "_timestamp",
          "type": "uint256"
        }
      ],
      "name": "getDataAfter",
      "outputs": [
        {
          "internalType": "bytes",
          "name": "_value",
          "type": "bytes"
        },
        {
          "internalType": "uint256",
          "name": "_timestampRetrieved",
          "type": "uint256"
        }
      ],
      "stateMutability": "view",
      "type": "function"
    },
    {
      "inputs": [
        {
          "internalType": "bytes32",
          "name": "_queryId",
          "type": "bytes32"
        },
        {
          "internalType": "uint256",
          "name": "_timestamp",
          "type": "uint256"
        }
      ],
      "name": "getDataBefore",
      "outputs": [
        {
          "internalType": "bytes",
          "name": "_value",
          "type": "bytes"
        },
        {
          "internalType": "uint256",
          "name": "_timestampRetrieved",
          "type": "uint256"
        }
      ],
      "stateMutability": "view",
      "type": "function"
    },
    {
      "inputs": [
        {
          "internalType": "bytes32",
          "name": "_queryId",
          "type": "bytes32"
        },
        {
          "internalType": "uint256",
          "name": "_timestamp",
          "type": "uint256"
        }
      ],
      "name": "getIndexForDataAfter",
      "outputs": [
        {
          "internalType": "bool",
          "name": "_found",
          "type": "bool"
        },
        {
          "internalType": "uint256",
          "name": "_index",
          "type": "uint256"
        }
      ],
      "stateMutability": "view",
      "type": "function"
    },
    {
      "inputs": [
        {
          "internalType": "bytes32",
          "name": "_queryId",
          "type": "bytes32"
        },
        {
          "internalType": "uint256",
          "name": "_timestamp",
          "type": "uint256"
        }
      ],
      "name": "getIndexForDataAfterOld",
      "outputs": [
        {
          "internalType": "bool",
          "name": "_found",
          "type": "bool"
        },
        {
          "internalType": "uint256",
          "name": "_index",
          "type": "uint256"
        }
      ],
      "stateMutability": "view",
      "type": "function"
    },
    {
      "inputs": [
        {
          "internalType": "bytes32",
          "name": "_queryId",
          "type": "bytes32"
        },
        {
          "internalType": "uint256",
          "name": "_timestamp",
          "type": "uint256"
        }
      ],
      "name": "getIndexForDataBefore",
      "outputs": [
        {
          "internalType": "bool",
          "name": "_found",
          "type": "bool"
        },
        {
          "internalType": "uint256",
          "name": "_index",
          "type": "uint256"
        }
      ],
      "stateMutability": "view",
      "type": "function"
    },
    {
      "inputs": [
        {
          "internalType": "bytes32",
          "name": "_queryId",
          "type": "bytes32"
        },
        {
          "internalType": "uint256",
          "name": "_timestamp",
          "type": "uint256"
        },
        {
          "internalType": "uint256",
          "name": "_maxAge",
          "type": "uint256"
        },
        {
          "internalType": "uint256",
          "name": "_maxCount",
          "type": "uint256"
        }
      ],
      "name": "getMultipleValuesBefore",
      "outputs": [
        {
          "internalType": "bytes[]",
          "name": "_values",
          "type": "bytes[]"
        },
        {
          "internalType": "uint256[]",
          "name": "_timestamps",
          "type": "uint256[]"
        }
      ],
      "stateMutability": "view",
      "type": "function"
    },
    {
      "inputs": [
        {
          "internalType": "bytes32",
          "name": "_queryId",
          "type": "bytes32"
        }
      ],
      "name": "getNewValueCountbyQueryId",
      "outputs": [
        {
          "internalType": "uint256",
          "name": "",
          "type": "uint256"
        }
      ],
      "stateMutability": "view",
      "type": "function"
    },
    {
      "inputs": [
        {
          "internalType": "bytes32",
          "name": "_queryId",
          "type": "bytes32"
        },
        {
          "internalType": "uint256",
          "name": "_timestamp",
          "type": "uint256"
        }
      ],
      "name": "getReporterByTimestamp",
      "outputs": [
        {
          "internalType": "address",
          "name": "",
          "type": "address"
        }
      ],
      "stateMutability": "view",
      "type": "function"
    },
    {
      "inputs": [
        {
          "internalType": "bytes32",
          "name": "_queryId",
          "type": "bytes32"
        },
        {
          "internalType": "uint256",
          "name": "_index",
          "type": "uint256"
        }
      ],
      "name": "getTimestampbyQueryIdandIndex",
      "outputs": [
        {
          "internalType": "uint256",
          "name": "",
          "type": "uint256"
        }
      ],
      "stateMutability": "view",
      "type": "function"
    },
    {
      "inputs": [],
      "name": "idMappingContract",
      "outputs": [
        {
          "internalType": "contract IMappingContract",
          "name": "",
          "type": "address"
        }
      ],
      "stateMutability": "view",
      "type": "function"
    },
    {
      "inputs": [
        {
          "internalType": "bytes32",
          "name": "_queryId",
          "type": "bytes32"
        },
        {
          "internalType": "uint256",
          "name": "_timestamp",
          "type": "uint256"
        }
      ],
      "name": "isInDispute",
      "outputs": [
        {
          "internalType": "bool",
          "name": "",
          "type": "bool"
        }
      ],
      "stateMutability": "view",
      "type": "function"
    },
    {
      "inputs": [
        {
          "internalType": "bytes32",
          "name": "_queryId",
          "type": "bytes32"
        },
        {
          "internalType": "uint256",
          "name": "_timestamp",
          "type": "uint256"
        }
      ],
      "name": "retrieveData",
      "outputs": [
        {
          "internalType": "bytes",
          "name": "",
          "type": "bytes"
        }
      ],
      "stateMutability": "view",
      "type": "function"
    },
    {
      "inputs": [
        {
          "internalType": "address",
          "name": "_addy",
          "type": "address"
        }
      ],
      "name": "setIdMappingContract",
      "outputs": [],
      "stateMutability": "nonpayable",
      "type": "function"
    },
    {
      "inputs": [
        {
          "internalType": "bytes",
          "name": "_b",
          "type": "bytes"
        }
      ],
      "name": "sliceUint",
      "outputs": [
        {
          "internalType": "uint256",
          "name": "",
          "type": "uint256"
        }
      ],
      "stateMutability": "pure",
      "type": "function"
    },
    {
      "inputs": [],
      "name": "tellor",
      "outputs": [
        {
          "internalType": "contract ITellor",
          "name": "",
          "type": "address"
        }
      ],
      "stateMutability": "view",
      "type": "function"
    },
    {
      "inputs": [
        {
          "internalType": "bytes32",
          "name": "_id",
          "type": "bytes32"
        }
      ],
      "name": "valueFor",
      "outputs": [
        {
          "internalType": "int256",
          "name": "_value",
          "type": "int256"
        },
        {
          "internalType": "uint256",
          "name": "_timestamp",
          "type": "uint256"
        },
        {
          "internalType": "uint256",
          "name": "_statusCode",
          "type": "uint256"
        }
      ],
      "stateMutability": "view",
      "type": "function"
    }
  ],
  "bytecode": "0x60806040523480156200001157600080fd5b5060405162002ae638038062002ae6833981810160405281019062000037919062000097565b80806000806101000a81548173ffffffffffffffffffffffffffffffffffffffff021916908373ffffffffffffffffffffffffffffffffffffffff160217905550505062000111565b6000815190506200009181620000f7565b92915050565b600060208284031215620000aa57600080fd5b6000620000ba8482850162000080565b91505092915050565b6000620000d082620000d7565b9050919050565b600073ffffffffffffffffffffffffffffffffffffffff82169050919050565b6200010281620000c3565b81146200010e57600080fd5b50565b6129c580620001216000396000f3fe608060405234801561001057600080fd5b50600436106101005760003560e01c8063a792765f11610097578063e07c548611610066578063e07c548614610311578063f66f49c314610341578063f78eea8314610372578063fcd4a546146103a457610100565b8063a792765f1461024f578063ac54598414610280578063c5958af9146102b1578063ce5e11bf146102e157610100565b806344e87f91116100d357806344e87f911461018e5780634c8a78e8146101be57806364ee3c6d146101ee57806377b03e0d1461021f57610100565b8063193b505b146101055780631959ad5b14610121578063294490851461013f5780632af8aae014610170575b600080fd5b61011f600480360381019061011a9190611cfb565b6103d5565b005b610129610474565b604051610136919061231e565b60405180910390f35b61015960048036038101906101549190611e6b565b610498565b604051610167929190612244565b60405180910390f35b610178610550565b6040516101859190612303565b60405180910390f35b6101a860048036038101906101a39190611e6b565b610576565b6040516101b59190612229565b60405180910390f35b6101d860048036038101906101d39190611f0a565b61062c565b6040516101e5919061241c565b60405180910390f35b61020860048036038101906102039190611e6b565b61063e565b6040516102169291906122d3565b60405180910390f35b61023960048036038101906102349190611e19565b6106d8565b604051610246919061241c565b60405180910390f35b61026960048036038101906102649190611e6b565b61078b565b6040516102779291906122d3565b60405180910390f35b61029a60048036038101906102959190611e6b565b610852565b6040516102a8929190612244565b60405180910390f35b6102cb60048036038101906102c69190611e6b565b610c59565b6040516102d891906122b1565b60405180910390f35b6102fb60048036038101906102f69190611e6b565b610d13565b604051610308919061241c565b60405180910390f35b61032b60048036038101906103269190611e6b565b610dc9565b60405161033891906121d7565b60405180910390f35b61035b60048036038101906103569190611e6b565b610e7f565b604051610369929190612244565b60405180910390f35b61038c60048036038101906103879190611e19565b611357565b60405161039b93929190612339565b60405180910390f35b6103be60048036038101906103b99190611ea7565b611499565b6040516103cc9291906121f2565b60405180910390f35b600073ffffffffffffffffffffffffffffffffffffffff16600160009054906101000a900473ffffffffffffffffffffffffffffffffffffffff1673ffffffffffffffffffffffffffffffffffffffff161461043057600080fd5b80600160006101000a81548173ffffffffffffffffffffffffffffffffffffffff021916908373ffffffffffffffffffffffffffffffffffffffff16021790555050565b60008054906101000a900473ffffffffffffffffffffffffffffffffffffffff1681565b60008060008054906101000a900473ffffffffffffffffffffffffffffffffffffffff1673ffffffffffffffffffffffffffffffffffffffff16632944908585856040518363ffffffff1660e01b81526004016104f6929190612288565b604080518083038186803b15801561050d57600080fd5b505afa158015610521573d6000803e3d6000fd5b505050506040513d601f19601f820116820180604052508101906105459190611ddd565b915091509250929050565b600160009054906101000a900473ffffffffffffffffffffffffffffffffffffffff1681565b60008060009054906101000a900473ffffffffffffffffffffffffffffffffffffffff1673ffffffffffffffffffffffffffffffffffffffff166344e87f9184846040518363ffffffff1660e01b81526004016105d4929190612288565b60206040518083038186803b1580156105ec57600080fd5b505afa158015610600573d6000803e3d6000fd5b505050506040513d601f19601f820116820180604052508101906106249190611d4d565b905092915050565b600061063782611907565b9050919050565b6060600080600061064f8686610e7f565b915091506106936040518060400160405280601481526020017f466f756e643a2025732c20496e6465783a2025730000000000000000000000008152508383611995565b816106b657600060405180602001604052806000815250909350935050506106d1565b6106c08682610d13565b92506106cc8684610c59565b935050505b9250929050565b60008060009054906101000a900473ffffffffffffffffffffffffffffffffffffffff1673ffffffffffffffffffffffffffffffffffffffff166377b03e0d836040518263ffffffff1660e01b8152600401610734919061226d565b60206040518083038186803b15801561074c57600080fd5b505afa158015610760573d6000803e3d6000fd5b505050506040513d601f19601f820116820180604052508101906107849190611f8c565b9050919050565b606060008060009054906101000a900473ffffffffffffffffffffffffffffffffffffffff1673ffffffffffffffffffffffffffffffffffffffff1663a792765f85856040518363ffffffff1660e01b81526004016107eb929190612288565b60006040518083038186803b15801561080357600080fd5b505afa158015610817573d6000803e3d6000fd5b505050506040513d6000823e3d601f19601f820116820180604052508101906108409190611d76565b90915080925081935050509250929050565b60008060008054906101000a900473ffffffffffffffffffffffffffffffffffffffff1673ffffffffffffffffffffffffffffffffffffffff16632944908585856040518363ffffffff1660e01b81526004016108b0929190612288565b604080518083038186803b1580156108c757600080fd5b505afa1580156108db573d6000803e3d6000fd5b505050506040513d601f19601f820116820180604052508101906108ff9190611ddd565b8092508193505050811561091c5780806109189061279e565b9150505b60008060009054906101000a900473ffffffffffffffffffffffffffffffffffffffff1673ffffffffffffffffffffffffffffffffffffffff166377b03e0d866040518263ffffffff1660e01b8152600401610978919061226d565b60206040518083038186803b15801561099057600080fd5b505afa1580156109a4573d6000803e3d6000fd5b505050506040513d601f19601f820116820180604052508101906109c89190611f8c565b90508181116109de576000809250925050610c52565b60008060009054906101000a900473ffffffffffffffffffffffffffffffffffffffff1673ffffffffffffffffffffffffffffffffffffffff1663ce5e11bf87856040518363ffffffff1660e01b8152600401610a3c929190612288565b60206040518083038186803b158015610a5457600080fd5b505afa158015610a68573d6000803e3d6000fd5b505050506040513d601f19601f82011682018060405250810190610a8c9190611f8c565b9050848111610b66578280610aa09061279e565b935050828211610ab857600080935093505050610c52565b60008054906101000a900473ffffffffffffffffffffffffffffffffffffffff1673ffffffffffffffffffffffffffffffffffffffff1663ce5e11bf87856040518363ffffffff1660e01b8152600401610b13929190612288565b60206040518083038186803b158015610b2b57600080fd5b505afa158015610b3f573d6000803e3d6000fd5b505050506040513d601f19601f82011682018060405250810190610b639190611f8c565b90505b5b610b718682610576565b15610c4b578280610b819061279e565b935050828211610b9957600080935093505050610c52565b60008054906101000a900473ffffffffffffffffffffffffffffffffffffffff1673ffffffffffffffffffffffffffffffffffffffff1663ce5e11bf87856040518363ffffffff1660e01b8152600401610bf4929190612288565b60206040518083038186803b158015610c0c57600080fd5b505afa158015610c20573d6000803e3d6000fd5b505050506040513d601f19601f82011682018060405250810190610c449190611f8c565b9050610b67565b6001935050505b9250929050565b606060008054906101000a900473ffffffffffffffffffffffffffffffffffffffff1673ffffffffffffffffffffffffffffffffffffffff1663c5958af984846040518363ffffffff1660e01b8152600401610cb6929190612288565b60006040518083038186803b158015610cce57600080fd5b505afa158015610ce2573d6000803e3d6000fd5b505050506040513d6000823e3d601f19601f82011682018060405250810190610d0b9190611f4b565b905092915050565b60008060009054906101000a900473ffffffffffffffffffffffffffffffffffffffff1673ffffffffffffffffffffffffffffffffffffffff1663ce5e11bf84846040518363ffffffff1660e01b8152600401610d71929190612288565b60206040518083038186803b158015610d8957600080fd5b505afa158015610d9d573d6000803e3d6000fd5b505050506040513d601f19601f82011682018060405250810190610dc19190611f8c565b905092915050565b60008060009054906101000a900473ffffffffffffffffffffffffffffffffffffffff1673ffffffffffffffffffffffffffffffffffffffff1663e07c548684846040518363ffffffff1660e01b8152600401610e27929190612288565b60206040518083038186803b158015610e3f57600080fd5b505afa158015610e53573d6000803e3d6000fd5b505050506040513d601f19601f82011682018060405250810190610e779190611d24565b905092915050565b600080610ea36040518060600160405280602c8152602001612964602c9139611a34565b6000610eae856106d8565b90506000811115611347578080610ec490612743565b9150506000806000905060008390506000610edf8983610d13565b9050878111610ef957600080965096505050505050611350565b610f038984610d13565b905087811115610fa257610f178982610576565b610f2c57600183965096505050505050611350565b5b610f378982610576565b8015610f4257508483105b15610f66578280610f529061279e565b935050610f5f8984610d13565b9050610f2d565b8483148015610f7b5750610f7a8982610576565b5b15610f9157600080965096505050505050611350565b600183965096505050505050611350565b5b60011561134257610fe86040518060400160405280601681526020017f4056414c5f57495448494e5f424f554e44415249455300000000000000000000815250611a34565b82600160028585610ff99190612629565b611003919061259e565b61100d9190612548565b6110179190612548565b935061105a6040518060400160405280601f81526020017f4053544152543a2025732c20454e443a2025732c204d4944444c453a20257300815250848487611acd565b6110648985610d13565b9050878111156111bc5761108f6040518060600160405280602b81526020016128e2602b9139611a34565b60006110a78a6001876110a29190612629565b610d13565b90508881116111a7576110ba8a83610576565b6110f1576110df60405180606001604052806023815260200161294160239139611a34565b60018597509750505050505050611350565b5b6110fc8a83610576565b801561110757508585105b156111695761114a6040518060400160405280601f81526020017f4054494d455354414d505f52455452494556454420494e204449535055544500815250611a34565b84806111559061279e565b9550506111628a86610d13565b91506110f2565b858514801561117e575061117d8a83610576565b5b156111955760008097509750505050505050611350565b60018597509750505050505050611350565b6001856111b49190612629565b92505061133d565b6111dd60405180606001604052806034815260200161290d60349139611a34565b60006111f58a6001876111f09190612548565b610d13565b90508881111561132c576112098a82610576565b6112685761124b6040518060400160405280601e81526020017f404e4558545f54494d455354414d50204e4f5420494e20444953505554450000815250611a34565b600180866112599190612548565b97509750505050505050611350565b84806112739061279e565b9550505b6112818a82610576565b801561128c57508585105b156112ee576112cf6040518060400160405280601a81526020017f404e4558545f54494d455354414d5020494e2044495350555445000000000000815250611a34565b84806112da9061279e565b9550506112e78a86610d13565b9050611277565b858514801561130357506113028a82610576565b5b1561131a5760008097509750505050505050611350565b60018597509750505050505050611350565b6001856113399190612548565b9350505b610fa3565b505050505b60008092509250505b9250929050565b6000806000600160009054906101000a900473ffffffffffffffffffffffffffffffffffffffff1673ffffffffffffffffffffffffffffffffffffffff166387a475fd856040518263ffffffff1660e01b81526004016113b7919061226d565b60206040518083038186803b1580156113cf57600080fd5b505afa1580156113e3573d6000803e3d6000fd5b505050506040513d601f19601f820116820180604052508101906114079190611e42565b93506000611414856106d8565b905060008114156114315760008061019493509350935050611492565b611447856001836114429190612629565b610d13565b925060006114558685610c59565b9050600081511415611474576000806101949450945094505050611492565b600061147f82611907565b9050809550858560c89550955095505050505b9193909250565b6060806000806114b48887896114af9190612629565b610e7f565b91509150816115ad57600067ffffffffffffffff8111156114fe577f4e487b7100000000000000000000000000000000000000000000000000000000600052604160045260246000fd5b60405190808252806020026020018201604052801561153157816020015b606081526020019060019003908161151c5790505b50600067ffffffffffffffff811115611573577f4e487b7100000000000000000000000000000000000000000000000000000000600052604160045260246000fd5b6040519080825280602002602001820160405280156115a15781602001602082028036833780820191505090505b509350935050506118fe565b60006115b98989610498565b8092508194505050826116b757600067ffffffffffffffff811115611607577f4e487b7100000000000000000000000000000000000000000000000000000000600052604160045260246000fd5b60405190808252806020026020018201604052801561163a57816020015b60608152602001906001900390816116255790505b50600067ffffffffffffffff81111561167c577f4e487b7100000000000000000000000000000000000000000000000000000000600052604160045260246000fd5b6040519080825280602002602001820160405280156116aa5781602001602082028036833780820191505090505b50945094505050506118fe565b6000600183836116c79190612629565b6116d19190612548565b9050868111156116f957600187836116e99190612629565b6116f39190612548565b92508690505b60008167ffffffffffffffff81111561173b577f4e487b7100000000000000000000000000000000000000000000000000000000600052604160045260246000fd5b60405190808252806020026020018201604052801561176e57816020015b60608152602001906001900390816117595790505b50905060008267ffffffffffffffff8111156117b3577f4e487b7100000000000000000000000000000000000000000000000000000000600052604160045260246000fd5b6040519080825280602002602001820160405280156117e15781602001602082028036833780820191505090505b509050606060005b848110156118ef576118068e82896118019190612548565b610d13565b83828151811061183f577f4e487b7100000000000000000000000000000000000000000000000000000000600052603260045260246000fd5b6020026020010181815250506118958e848381518110611888577f4e487b7100000000000000000000000000000000000000000000000000000000600052603260045260246000fd5b6020026020010151610c59565b9150818482815181106118d1577f4e487b7100000000000000000000000000000000000000000000000000000000600052603260045260246000fd5b602002602001018190525080806118e79061279e565b9150506117e9565b50828298509850505050505050505b94509492505050565b600080600090505b825181101561198f57828181518110611951577f4e487b7100000000000000000000000000000000000000000000000000000000600052603260045260246000fd5b602001015160f81c60f81b60f81c60ff166101008361197091906125cf565b61197a9190612548565b915080806119879061279e565b91505061190f565b50919050565b611a2f8383836040516024016119ad93929190612392565b6040516020818303038152906040527f291bb9d0000000000000000000000000000000000000000000000000000000007bffffffffffffffffffffffffffffffffffffffffffffffffffffffff19166020820180517bffffffffffffffffffffffffffffffffffffffffffffffffffffffff8381831617835250505050611b6f565b505050565b611aca81604051602401611a489190612370565b6040516020818303038152906040527f41304fac000000000000000000000000000000000000000000000000000000007bffffffffffffffffffffffffffffffffffffffffffffffffffffffff19166020820180517bffffffffffffffffffffffffffffffffffffffffffffffffffffffff8381831617835250505050611b6f565b50565b611b6984848484604051602401611ae794939291906123d0565b6040516020818303038152906040527f08ee5666000000000000000000000000000000000000000000000000000000007bffffffffffffffffffffffffffffffffffffffffffffffffffffffff19166020820180517bffffffffffffffffffffffffffffffffffffffffffffffffffffffff8381831617835250505050611b6f565b50505050565b60008151905060006a636f6e736f6c652e6c6f679050602083016000808483855afa5050505050565b6000611bab611ba68461245c565b612437565b905082815260208101848484011115611bc357600080fd5b611bce848285612701565b509392505050565b6000611be9611be48461245c565b612437565b905082815260208101848484011115611c0157600080fd5b611c0c848285612710565b509392505050565b600081359050611c2381612885565b92915050565b600081519050611c3881612885565b92915050565b600081519050611c4d8161289c565b92915050565b600081359050611c62816128b3565b92915050565b600081519050611c77816128b3565b92915050565b600082601f830112611c8e57600080fd5b8135611c9e848260208601611b98565b91505092915050565b600082601f830112611cb857600080fd5b8151611cc8848260208601611bd6565b91505092915050565b600081359050611ce0816128ca565b92915050565b600081519050611cf5816128ca565b92915050565b600060208284031215611d0d57600080fd5b6000611d1b84828501611c14565b91505092915050565b600060208284031215611d3657600080fd5b6000611d4484828501611c29565b91505092915050565b600060208284031215611d5f57600080fd5b6000611d6d84828501611c3e565b91505092915050565b600080600060608486031215611d8b57600080fd5b6000611d9986828701611c3e565b935050602084015167ffffffffffffffff811115611db657600080fd5b611dc286828701611ca7565b9250506040611dd386828701611ce6565b9150509250925092565b60008060408385031215611df057600080fd5b6000611dfe85828601611c3e565b9250506020611e0f85828601611ce6565b9150509250929050565b600060208284031215611e2b57600080fd5b6000611e3984828501611c53565b91505092915050565b600060208284031215611e5457600080fd5b6000611e6284828501611c68565b91505092915050565b60008060408385031215611e7e57600080fd5b6000611e8c85828601611c53565b9250506020611e9d85828601611cd1565b9150509250929050565b60008060008060808587031215611ebd57600080fd5b6000611ecb87828801611c53565b9450506020611edc87828801611cd1565b9350506040611eed87828801611cd1565b9250506060611efe87828801611cd1565b91505092959194509250565b600060208284031215611f1c57600080fd5b600082013567ffffffffffffffff811115611f3657600080fd5b611f4284828501611c7d565b91505092915050565b600060208284031215611f5d57600080fd5b600082015167ffffffffffffffff811115611f7757600080fd5b611f8384828501611ca7565b91505092915050565b600060208284031215611f9e57600080fd5b6000611fac84828501611ce6565b91505092915050565b6000611fc183836120e1565b905092915050565b6000611fd583836121b9565b60208301905092915050565b611fea8161265d565b82525050565b6000611ffb826124ad565b61200581856124f3565b9350836020820285016120178561248d565b8060005b8581101561205357848403895281516120348582611fb5565b945061203f836124d9565b925060208a0199505060018101905061201b565b50829750879550505050505092915050565b6000612070826124b8565b61207a8185612504565b93506120858361249d565b8060005b838110156120b657815161209d8882611fc9565b97506120a8836124e6565b925050600181019050612089565b5085935050505092915050565b6120cc8161266f565b82525050565b6120db8161267b565b82525050565b60006120ec826124c3565b6120f68185612515565b9350612106818560208601612710565b61210f81612874565b840191505092915050565b6000612125826124c3565b61212f8185612526565b935061213f818560208601612710565b61214881612874565b840191505092915050565b61215c816126b9565b82525050565b61216b816126dd565b82525050565b61217a81612685565b82525050565b600061218b826124ce565b6121958185612537565b93506121a5818560208601612710565b6121ae81612874565b840191505092915050565b6121c2816126af565b82525050565b6121d1816126af565b82525050565b60006020820190506121ec6000830184611fe1565b92915050565b6000604082019050818103600083015261220c8185611ff0565b905081810360208301526122208184612065565b90509392505050565b600060208201905061223e60008301846120c3565b92915050565b600060408201905061225960008301856120c3565b61226660208301846121c8565b9392505050565b600060208201905061228260008301846120d2565b92915050565b600060408201905061229d60008301856120d2565b6122aa60208301846121c8565b9392505050565b600060208201905081810360008301526122cb818461211a565b905092915050565b600060408201905081810360008301526122ed818561211a565b90506122fc60208301846121c8565b9392505050565b60006020820190506123186000830184612153565b92915050565b60006020820190506123336000830184612162565b92915050565b600060608201905061234e6000830186612171565b61235b60208301856121c8565b61236860408301846121c8565b949350505050565b6000602082019050818103600083015261238a8184612180565b905092915050565b600060608201905081810360008301526123ac8186612180565b90506123bb60208301856120c3565b6123c860408301846121c8565b949350505050565b600060808201905081810360008301526123ea8187612180565b90506123f960208301866121c8565b61240660408301856121c8565b61241360608301846121c8565b95945050505050565b600060208201905061243160008301846121c8565b92915050565b6000612441612452565b905061244d828261276d565b919050565b6000604051905090565b600067ffffffffffffffff82111561247757612476612845565b5b61248082612874565b9050602081019050919050565b6000819050602082019050919050565b6000819050602082019050919050565b600081519050919050565b600081519050919050565b600081519050919050565b600081519050919050565b6000602082019050919050565b6000602082019050919050565b600082825260208201905092915050565b600082825260208201905092915050565b600082825260208201905092915050565b600082825260208201905092915050565b600082825260208201905092915050565b6000612553826126af565b915061255e836126af565b9250827fffffffffffffffffffffffffffffffffffffffffffffffffffffffffffffffff03821115612593576125926127e7565b5b828201905092915050565b60006125a9826126af565b91506125b4836126af565b9250826125c4576125c3612816565b5b828204905092915050565b60006125da826126af565b91506125e5836126af565b9250817fffffffffffffffffffffffffffffffffffffffffffffffffffffffffffffffff048311821515161561261e5761261d6127e7565b5b828202905092915050565b6000612634826126af565b915061263f836126af565b925082821015612652576126516127e7565b5b828203905092915050565b60006126688261268f565b9050919050565b60008115159050919050565b6000819050919050565b6000819050919050565b600073ffffffffffffffffffffffffffffffffffffffff82169050919050565b6000819050919050565b60006126c4826126cb565b9050919050565b60006126d68261268f565b9050919050565b60006126e8826126ef565b9050919050565b60006126fa8261268f565b9050919050565b82818337600083830152505050565b60005b8381101561272e578082015181840152602081019050612713565b8381111561273d576000848401525b50505050565b600061274e826126af565b91506000821415612762576127616127e7565b5b600182039050919050565b61277682612874565b810181811067ffffffffffffffff8211171561279557612794612845565b5b80604052505050565b60006127a9826126af565b91507fffffffffffffffffffffffffffffffffffffffffffffffffffffffffffffffff8214156127dc576127db6127e7565b5b600182019050919050565b7f4e487b7100000000000000000000000000000000000000000000000000000000600052601160045260246000fd5b7f4e487b7100000000000000000000000000000000000000000000000000000000600052601260045260246000fd5b7f4e487b7100000000000000000000000000000000000000000000000000000000600052604160045260246000fd5b6000601f19601f8301169050919050565b61288e8161265d565b811461289957600080fd5b50565b6128a58161266f565b81146128b057600080fd5b50565b6128bc8161267b565b81146128c757600080fd5b50565b6128d3816126af565b81146128de57600080fd5b5056fe4054494d455354414d505f52455452494556454420475245415445525f5448414e2054494d455354414d504054494d455354414d505f524554524945564544204c4553535f5448414e5f4f525f455155414c5f544f2054494d455354414d504054494d455354414d505f524554524945564544204e4f5420494e20444953505554452a2a2a2a2a2a2a2a2a2a2a20676574496e646578466f72446174614166746572202a2a2a2a2a2a2a2a2a2a2aa2646970667358221220a4c5b3a1a2c5ff9587a2614c694936e356bb00bfee73554e70ed40099126392864736f6c63430008030033",
  "linkReferences": {},
  "deployedLinkReferences": {}
}