{
  "_format": "hh-sol-artifact-1",
  "contractName": "BenchUsingTellor",
  "sourceName": "contracts/mocks/BenchUsingTellor.sol",
  "abi": [
    {
      "inputs": [
        {
          "internalType": "address payable",
          "name": "_tellor",
          "type": "address"
        }
      ],
      "stateMutability": "nonpayable",
      "type": "constructor"
    },
    {
      "inputs": [
        {
          "internalType": "bytes32",
          "name": "_queryId",
          "type": "bytes32"
        },
        {
          "internalType": "uint256",
          "name": "_timestamp",
          "type": "uint256"
        }
      ],
      "name": "getDataAfter",
      "outputs": [
        {
          "internalType": "bytes",
          "name": "_value",
          "type": "bytes"
        },
        {
          "internalType": "uint256",
          "name": "_timestampRetrieved",
          "type": "uint256"
        }
      ],
      "stateMutability": "view",
      "type": "function"
    },
    {
      "inputs": [
        {
          "internalType": "bytes32",
          "name": "_queryId",
          "type": "bytes32"
        },
        {
          "internalType": "uint256",
          "name": "_timestamp",
          "type": "uint256"
        }
      ],
      "name": "getDataBefore",
      "outputs": [
        {
          "internalType": "bytes",
          "name": "_value",
          "type": "bytes"
        },
        {
          "internalType": "uint256",
          "name": "_timestampRetrieved",
          "type": "uint256"
        }
      ],
      "stateMutability": "view",
      "type": "function"
    },
    {
      "inputs": [
        {
          "internalType": "bytes32",
          "name": "_queryId",
          "type": "bytes32"
        },
        {
          "internalType": "uint256",
          "name": "_timestamp",
          "type": "uint256"
        }
      ],
      "name": "getIndexForDataAfter",
      "outputs": [
        {
          "internalType": "bool",
          "name": "_found",
          "type": "bool"
        },
        {
          "internalType": "uint256",
          "name": "_index",
          "type": "uint256"
        }
      ],
      "stateMutability": "view",
      "type": "function"
    },
    {
      "inputs": [
        {
          "internalType": "bytes32",
          "name": "_queryId",
          "type": "bytes32"
        },
        {
          "internalType": "uint256",
          "name": "_timestamp",
          "type": "uint256"
        }
      ],
      "name": "getIndexForDataAfterOld",
      "outputs": [
        {
          "internalType": "bool",
          "name": "_found",
          "type": "bool"
        },
        {
          "internalType": "uint256",
          "name": "_index",
          "type": "uint256"
        }
      ],
      "stateMutability": "view",
      "type": "function"
    },
    {
      "inputs": [
        {
          "internalType": "bytes32",
          "name": "_queryId",
          "type": "bytes32"
        },
        {
          "internalType": "uint256",
          "name": "_timestamp",
          "type": "uint256"
        }
      ],
      "name": "getIndexForDataBefore",
      "outputs": [
        {
          "internalType": "bool",
          "name": "_found",
          "type": "bool"
        },
        {
          "internalType": "uint256",
          "name": "_index",
          "type": "uint256"
        }
      ],
      "stateMutability": "view",
      "type": "function"
    },
    {
      "inputs": [
        {
          "internalType": "bytes32",
          "name": "_queryId",
          "type": "bytes32"
        },
        {
          "internalType": "uint256",
          "name": "_timestamp",
          "type": "uint256"
        },
        {
          "internalType": "uint256",
          "name": "_maxAge",
          "type": "uint256"
        },
        {
          "internalType": "uint256",
          "name": "_maxCount",
          "type": "uint256"
        }
      ],
      "name": "getMultipleValuesBefore",
      "outputs": [
        {
          "internalType": "bytes[]",
          "name": "_values",
          "type": "bytes[]"
        },
        {
          "internalType": "uint256[]",
          "name": "_timestamps",
          "type": "uint256[]"
        }
      ],
      "stateMutability": "view",
      "type": "function"
    },
    {
      "inputs": [
        {
          "internalType": "bytes32",
          "name": "_queryId",
          "type": "bytes32"
        }
      ],
      "name": "getNewValueCountbyQueryId",
      "outputs": [
        {
          "internalType": "uint256",
          "name": "",
          "type": "uint256"
        }
      ],
      "stateMutability": "view",
      "type": "function"
    },
    {
      "inputs": [
        {
          "internalType": "bytes32",
          "name": "_queryId",
          "type": "bytes32"
        },
        {
          "internalType": "uint256",
          "name": "_timestamp",
          "type": "uint256"
        }
      ],
      "name": "getReporterByTimestamp",
      "outputs": [
        {
          "internalType": "address",
          "name": "",
          "type": "address"
        }
      ],
      "stateMutability": "view",
      "type": "function"
    },
    {
      "inputs": [
        {
          "internalType": "bytes32",
          "name": "_queryId",
          "type": "bytes32"
        },
        {
          "internalType": "uint256",
          "name": "_index",
          "type": "uint256"
        }
      ],
      "name": "getTimestampbyQueryIdandIndex",
      "outputs": [
        {
          "internalType": "uint256",
          "name": "",
          "type": "uint256"
        }
      ],
      "stateMutability": "view",
      "type": "function"
    },
    {
      "inputs": [],
      "name": "idMappingContract",
      "outputs": [
        {
          "internalType": "contract IMappingContract",
          "name": "",
          "type": "address"
        }
      ],
      "stateMutability": "view",
      "type": "function"
    },
    {
      "inputs": [
        {
          "internalType": "bytes32",
          "name": "_queryId",
          "type": "bytes32"
        },
        {
          "internalType": "uint256",
          "name": "_timestamp",
          "type": "uint256"
        }
      ],
      "name": "isInDispute",
      "outputs": [
        {
          "internalType": "bool",
          "name": "",
          "type": "bool"
        }
      ],
      "stateMutability": "view",
      "type": "function"
    },
    {
      "inputs": [
        {
          "internalType": "bytes32",
          "name": "_queryId",
          "type": "bytes32"
        },
        {
          "internalType": "uint256",
          "name": "_timestamp",
          "type": "uint256"
        }
      ],
      "name": "retrieveData",
      "outputs": [
        {
          "internalType": "bytes",
          "name": "",
          "type": "bytes"
        }
      ],
      "stateMutability": "view",
      "type": "function"
    },
    {
      "inputs": [
        {
          "internalType": "address",
          "name": "_addy",
          "type": "address"
        }
      ],
      "name": "setIdMappingContract",
      "outputs": [],
      "stateMutability": "nonpayable",
      "type": "function"
    },
    {
      "inputs": [
        {
          "internalType": "bytes",
          "name": "_b",
          "type": "bytes"
        }
      ],
      "name": "sliceUint",
      "outputs": [
        {
          "internalType": "uint256",
          "name": "",
          "type": "uint256"
        }
      ],
      "stateMutability": "pure",
      "type": "function"
    },
    {
      "inputs": [],
      "name": "tellor",
      "outputs": [
        {
          "internalType": "contract ITellor",
          "name": "",
          "type": "address"
        }
      ],
      "stateMutability": "view",
      "type": "function"
    },
    {
      "inputs": [
        {
          "internalType": "bytes32",
          "name": "_id",
          "type": "bytes32"
        }
      ],
      "name": "valueFor",
      "outputs": [
        {
          "internalType": "int256",
          "name": "_value",
          "type": "int256"
        },
        {
          "internalType": "uint256",
          "name": "_timestamp",
          "type": "uint256"
        },
        {
          "internalType": "uint256",
          "name": "_statusCode",
          "type": "uint256"
        }
      ],
      "stateMutability": "view",
      "type": "function"
    }
  ],
  "bytecode": "0x60806040523480156200001157600080fd5b506040516200294b3803806200294b833981810160405281019062000037919062000097565b80806000806101000a81548173ffffffffffffffffffffffffffffffffffffffff021916908373ffffffffffffffffffffffffffffffffffffffff160217905550505062000111565b6000815190506200009181620000f7565b92915050565b600060208284031215620000aa57600080fd5b6000620000ba8482850162000080565b91505092915050565b6000620000d082620000d7565b9050919050565b600073ffffffffffffffffffffffffffffffffffffffff82169050919050565b6200010281620000c3565b81146200010e57600080fd5b50565b61282a80620001216000396000f3fe608060405234801561001057600080fd5b50600436106101005760003560e01c8063a792765f11610097578063e07c548611610066578063e07c548614610311578063f66f49c314610341578063f78eea8314610372578063fcd4a546146103a457610100565b8063a792765f1461024f578063ac54598414610280578063c5958af9146102b1578063ce5e11bf146102e157610100565b806344e87f91116100d357806344e87f911461018e5780634c8a78e8146101be57806364ee3c6d146101ee57806377b03e0d1461021f57610100565b8063193b505b146101055780631959ad5b14610121578063294490851461013f5780632af8aae014610170575b600080fd5b61011f600480360381019061011a9190611b60565b6103d5565b005b610129610474565b6040516101369190612183565b60405180910390f35b61015960048036038101906101549190611cd0565b610498565b6040516101679291906120a9565b60405180910390f35b610178610550565b6040516101859190612168565b60405180910390f35b6101a860048036038101906101a39190611cd0565b610576565b6040516101b5919061208e565b60405180910390f35b6101d860048036038101906101d39190611d6f565b61062c565b6040516101e59190612281565b60405180910390f35b61020860048036038101906102039190611cd0565b61063e565b604051610216929190612138565b60405180910390f35b61023960048036038101906102349190611c7e565b6106d8565b6040516102469190612281565b60405180910390f35b61026960048036038101906102649190611cd0565b61078b565b604051610277929190612138565b60405180910390f35b61029a60048036038101906102959190611cd0565b610852565b6040516102a89291906120a9565b60405180910390f35b6102cb60048036038101906102c69190611cd0565b610c59565b6040516102d89190612116565b60405180910390f35b6102fb60048036038101906102f69190611cd0565b610d13565b6040516103089190612281565b60405180910390f35b61032b60048036038101906103269190611cd0565b610dc9565b604051610338919061203c565b60405180910390f35b61035b60048036038101906103569190611cd0565b610e7f565b6040516103699291906120a9565b60405180910390f35b61038c60048036038101906103879190611c7e565b6111bc565b60405161039b9392919061219e565b60405180910390f35b6103be60048036038101906103b99190611d0c565b6112fe565b6040516103cc929190612057565b60405180910390f35b600073ffffffffffffffffffffffffffffffffffffffff16600160009054906101000a900473ffffffffffffffffffffffffffffffffffffffff1673ffffffffffffffffffffffffffffffffffffffff161461043057600080fd5b80600160006101000a81548173ffffffffffffffffffffffffffffffffffffffff021916908373ffffffffffffffffffffffffffffffffffffffff16021790555050565b60008054906101000a900473ffffffffffffffffffffffffffffffffffffffff1681565b60008060008054906101000a900473ffffffffffffffffffffffffffffffffffffffff1673ffffffffffffffffffffffffffffffffffffffff16632944908585856040518363ffffffff1660e01b81526004016104f69291906120ed565b604080518083038186803b15801561050d57600080fd5b505afa158015610521573d6000803e3d6000fd5b505050506040513d601f19601f820116820180604052508101906105459190611c42565b915091509250929050565b600160009054906101000a900473ffffffffffffffffffffffffffffffffffffffff1681565b60008060009054906101000a900473ffffffffffffffffffffffffffffffffffffffff1673ffffffffffffffffffffffffffffffffffffffff166344e87f9184846040518363ffffffff1660e01b81526004016105d49291906120ed565b60206040518083038186803b1580156105ec57600080fd5b505afa158015610600573d6000803e3d6000fd5b505050506040513d601f19601f820116820180604052508101906106249190611bb2565b905092915050565b60006106378261176c565b9050919050565b6060600080600061064f8686610e7f565b915091506106936040518060400160405280601481526020017f466f756e643a2025732c20496e6465783a20257300000000000000000000000081525083836117fa565b816106b657600060405180602001604052806000815250909350935050506106d1565b6106c08682610d13565b92506106cc8684610c59565b935050505b9250929050565b60008060009054906101000a900473ffffffffffffffffffffffffffffffffffffffff1673ffffffffffffffffffffffffffffffffffffffff166377b03e0d836040518263ffffffff1660e01b815260040161073491906120d2565b60206040518083038186803b15801561074c57600080fd5b505afa158015610760573d6000803e3d6000fd5b505050506040513d601f19601f820116820180604052508101906107849190611df1565b9050919050565b606060008060009054906101000a900473ffffffffffffffffffffffffffffffffffffffff1673ffffffffffffffffffffffffffffffffffffffff1663a792765f85856040518363ffffffff1660e01b81526004016107eb9291906120ed565b60006040518083038186803b15801561080357600080fd5b505afa158015610817573d6000803e3d6000fd5b505050506040513d6000823e3d601f19601f820116820180604052508101906108409190611bdb565b90915080925081935050509250929050565b60008060008054906101000a900473ffffffffffffffffffffffffffffffffffffffff1673ffffffffffffffffffffffffffffffffffffffff16632944908585856040518363ffffffff1660e01b81526004016108b09291906120ed565b604080518083038186803b1580156108c757600080fd5b505afa1580156108db573d6000803e3d6000fd5b505050506040513d601f19601f820116820180604052508101906108ff9190611c42565b8092508193505050811561091c57808061091890612603565b9150505b60008060009054906101000a900473ffffffffffffffffffffffffffffffffffffffff1673ffffffffffffffffffffffffffffffffffffffff166377b03e0d866040518263ffffffff1660e01b815260040161097891906120d2565b60206040518083038186803b15801561099057600080fd5b505afa1580156109a4573d6000803e3d6000fd5b505050506040513d601f19601f820116820180604052508101906109c89190611df1565b90508181116109de576000809250925050610c52565b60008060009054906101000a900473ffffffffffffffffffffffffffffffffffffffff1673ffffffffffffffffffffffffffffffffffffffff1663ce5e11bf87856040518363ffffffff1660e01b8152600401610a3c9291906120ed565b60206040518083038186803b158015610a5457600080fd5b505afa158015610a68573d6000803e3d6000fd5b505050506040513d601f19601f82011682018060405250810190610a8c9190611df1565b9050848111610b66578280610aa090612603565b935050828211610ab857600080935093505050610c52565b60008054906101000a900473ffffffffffffffffffffffffffffffffffffffff1673ffffffffffffffffffffffffffffffffffffffff1663ce5e11bf87856040518363ffffffff1660e01b8152600401610b139291906120ed565b60206040518083038186803b158015610b2b57600080fd5b505afa158015610b3f573d6000803e3d6000fd5b505050506040513d601f19601f82011682018060405250810190610b639190611df1565b90505b5b610b718682610576565b15610c4b578280610b8190612603565b935050828211610b9957600080935093505050610c52565b60008054906101000a900473ffffffffffffffffffffffffffffffffffffffff1673ffffffffffffffffffffffffffffffffffffffff1663ce5e11bf87856040518363ffffffff1660e01b8152600401610bf49291906120ed565b60206040518083038186803b158015610c0c57600080fd5b505afa158015610c20573d6000803e3d6000fd5b505050506040513d601f19601f82011682018060405250810190610c449190611df1565b9050610b67565b6001935050505b9250929050565b606060008054906101000a900473ffffffffffffffffffffffffffffffffffffffff1673ffffffffffffffffffffffffffffffffffffffff1663c5958af984846040518363ffffffff1660e01b8152600401610cb69291906120ed565b60006040518083038186803b158015610cce57600080fd5b505afa158015610ce2573d6000803e3d6000fd5b505050506040513d6000823e3d601f19601f82011682018060405250810190610d0b9190611db0565b905092915050565b60008060009054906101000a900473ffffffffffffffffffffffffffffffffffffffff1673ffffffffffffffffffffffffffffffffffffffff1663ce5e11bf84846040518363ffffffff1660e01b8152600401610d719291906120ed565b60206040518083038186803b158015610d8957600080fd5b505afa158015610d9d573d6000803e3d6000fd5b505050506040513d601f19601f82011682018060405250810190610dc19190611df1565b905092915050565b60008060009054906101000a900473ffffffffffffffffffffffffffffffffffffffff1673ffffffffffffffffffffffffffffffffffffffff1663e07c548684846040518363ffffffff1660e01b8152600401610e279291906120ed565b60206040518083038186803b158015610e3f57600080fd5b505afa158015610e53573d6000803e3d6000fd5b505050506040513d601f19601f82011682018060405250810190610e779190611b89565b905092915050565b600080610ea36040518060600160405280602c81526020016127c9602c9139611899565b6000610eae856106d8565b90506000811415610ec65760008092509250506111b5565b8080610ed1906125a8565b91505060006001905060008060008490506000610eee8a83610d13565b9050888111610f0957600080975097505050505050506111b5565b610f138a84610d13565b905088811115610f2257600094505b5b84156110c257610f676040518060400160405280601681526020017f4056414c5f57495448494e5f424f554e44415249455300000000000000000000815250611899565b82600160028585610f78919061248e565b610f829190612403565b610f8c91906123ad565b610f9691906123ad565b9350610fd96040518060400160405280601f81526020017f4053544152543a2025732c20454e443a2025732c204d4944444c453a20257300815250848487611932565b610fe38a85610d13565b90508881111561104e5761100e6040518060600160405280602b8152602001612747602b9139611899565b60006110268b600187611021919061248e565b610d13565b90508981116110385760009550611048565b600185611045919061248e565b92505b506110bd565b61106f60405180606001604052806034815260200161277260349139611899565b60006110878b60018761108291906123ad565b610d13565b9050898111156110ab576000955084806110a090612603565b9550508091506110bb565b6001856110b891906123ad565b93505b505b610f23565b6110cc8a82610576565b611103576110f16040518060600160405280602381526020016127a660239139611899565b600184975097505050505050506111b5565b5b61110e8a82610576565b801561111957508584105b1561117b5761115c6040518060400160405280601f81526020017f4054494d455354414d505f52455452494556454420494e204449535055544500815250611899565b838061116790612603565b9450506111748a85610d13565b9050611104565b8584148015611190575061118f8a82610576565b5b156111a757600080975097505050505050506111b5565b600184975097505050505050505b9250929050565b6000806000600160009054906101000a900473ffffffffffffffffffffffffffffffffffffffff1673ffffffffffffffffffffffffffffffffffffffff166387a475fd856040518263ffffffff1660e01b815260040161121c91906120d2565b60206040518083038186803b15801561123457600080fd5b505afa158015611248573d6000803e3d6000fd5b505050506040513d601f19601f8201168201806040525081019061126c9190611ca7565b93506000611279856106d8565b9050600081141561129657600080610194935093509350506112f7565b6112ac856001836112a7919061248e565b610d13565b925060006112ba8685610c59565b90506000815114156112d95760008061019494509450945050506112f7565b60006112e48261176c565b9050809550858560c89550955095505050505b9193909250565b606080600080611319888789611314919061248e565b610e7f565b915091508161141257600067ffffffffffffffff811115611363577f4e487b7100000000000000000000000000000000000000000000000000000000600052604160045260246000fd5b60405190808252806020026020018201604052801561139657816020015b60608152602001906001900390816113815790505b50600067ffffffffffffffff8111156113d8577f4e487b7100000000000000000000000000000000000000000000000000000000600052604160045260246000fd5b6040519080825280602002602001820160405280156114065781602001602082028036833780820191505090505b50935093505050611763565b600061141e8989610498565b80925081945050508261151c57600067ffffffffffffffff81111561146c577f4e487b7100000000000000000000000000000000000000000000000000000000600052604160045260246000fd5b60405190808252806020026020018201604052801561149f57816020015b606081526020019060019003908161148a5790505b50600067ffffffffffffffff8111156114e1577f4e487b7100000000000000000000000000000000000000000000000000000000600052604160045260246000fd5b60405190808252806020026020018201604052801561150f5781602001602082028036833780820191505090505b5094509450505050611763565b60006001838361152c919061248e565b61153691906123ad565b90508681111561155e576001878361154e919061248e565b61155891906123ad565b92508690505b60008167ffffffffffffffff8111156115a0577f4e487b7100000000000000000000000000000000000000000000000000000000600052604160045260246000fd5b6040519080825280602002602001820160405280156115d357816020015b60608152602001906001900390816115be5790505b50905060008267ffffffffffffffff811115611618577f4e487b7100000000000000000000000000000000000000000000000000000000600052604160045260246000fd5b6040519080825280602002602001820160405280156116465781602001602082028036833780820191505090505b509050606060005b848110156117545761166b8e828961166691906123ad565b610d13565b8382815181106116a4577f4e487b7100000000000000000000000000000000000000000000000000000000600052603260045260246000fd5b6020026020010181815250506116fa8e8483815181106116ed577f4e487b7100000000000000000000000000000000000000000000000000000000600052603260045260246000fd5b6020026020010151610c59565b915081848281518110611736577f4e487b7100000000000000000000000000000000000000000000000000000000600052603260045260246000fd5b6020026020010181905250808061174c90612603565b91505061164e565b50828298509850505050505050505b94509492505050565b600080600090505b82518110156117f4578281815181106117b6577f4e487b7100000000000000000000000000000000000000000000000000000000600052603260045260246000fd5b602001015160f81c60f81b60f81c60ff16610100836117d59190612434565b6117df91906123ad565b915080806117ec90612603565b915050611774565b50919050565b611894838383604051602401611812939291906121f7565b6040516020818303038152906040527f291bb9d0000000000000000000000000000000000000000000000000000000007bffffffffffffffffffffffffffffffffffffffffffffffffffffffff19166020820180517bffffffffffffffffffffffffffffffffffffffffffffffffffffffff83818316178352505050506119d4565b505050565b61192f816040516024016118ad91906121d5565b6040516020818303038152906040527f41304fac000000000000000000000000000000000000000000000000000000007bffffffffffffffffffffffffffffffffffffffffffffffffffffffff19166020820180517bffffffffffffffffffffffffffffffffffffffffffffffffffffffff83818316178352505050506119d4565b50565b6119ce8484848460405160240161194c9493929190612235565b6040516020818303038152906040527f08ee5666000000000000000000000000000000000000000000000000000000007bffffffffffffffffffffffffffffffffffffffffffffffffffffffff19166020820180517bffffffffffffffffffffffffffffffffffffffffffffffffffffffff83818316178352505050506119d4565b50505050565b60008151905060006a636f6e736f6c652e6c6f679050602083016000808483855afa5050505050565b6000611a10611a0b846122c1565b61229c565b905082815260208101848484011115611a2857600080fd5b611a33848285612566565b509392505050565b6000611a4e611a49846122c1565b61229c565b905082815260208101848484011115611a6657600080fd5b611a71848285612575565b509392505050565b600081359050611a88816126ea565b92915050565b600081519050611a9d816126ea565b92915050565b600081519050611ab281612701565b92915050565b600081359050611ac781612718565b92915050565b600081519050611adc81612718565b92915050565b600082601f830112611af357600080fd5b8135611b038482602086016119fd565b91505092915050565b600082601f830112611b1d57600080fd5b8151611b2d848260208601611a3b565b91505092915050565b600081359050611b458161272f565b92915050565b600081519050611b5a8161272f565b92915050565b600060208284031215611b7257600080fd5b6000611b8084828501611a79565b91505092915050565b600060208284031215611b9b57600080fd5b6000611ba984828501611a8e565b91505092915050565b600060208284031215611bc457600080fd5b6000611bd284828501611aa3565b91505092915050565b600080600060608486031215611bf057600080fd5b6000611bfe86828701611aa3565b935050602084015167ffffffffffffffff811115611c1b57600080fd5b611c2786828701611b0c565b9250506040611c3886828701611b4b565b9150509250925092565b60008060408385031215611c5557600080fd5b6000611c6385828601611aa3565b9250506020611c7485828601611b4b565b9150509250929050565b600060208284031215611c9057600080fd5b6000611c9e84828501611ab8565b91505092915050565b600060208284031215611cb957600080fd5b6000611cc784828501611acd565b91505092915050565b60008060408385031215611ce357600080fd5b6000611cf185828601611ab8565b9250506020611d0285828601611b36565b9150509250929050565b60008060008060808587031215611d2257600080fd5b6000611d3087828801611ab8565b9450506020611d4187828801611b36565b9350506040611d5287828801611b36565b9250506060611d6387828801611b36565b91505092959194509250565b600060208284031215611d8157600080fd5b600082013567ffffffffffffffff811115611d9b57600080fd5b611da784828501611ae2565b91505092915050565b600060208284031215611dc257600080fd5b600082015167ffffffffffffffff811115611ddc57600080fd5b611de884828501611b0c565b91505092915050565b600060208284031215611e0357600080fd5b6000611e1184828501611b4b565b91505092915050565b6000611e268383611f46565b905092915050565b6000611e3a838361201e565b60208301905092915050565b611e4f816124c2565b82525050565b6000611e6082612312565b611e6a8185612358565b935083602082028501611e7c856122f2565b8060005b85811015611eb85784840389528151611e998582611e1a565b9450611ea48361233e565b925060208a01995050600181019050611e80565b50829750879550505050505092915050565b6000611ed58261231d565b611edf8185612369565b9350611eea83612302565b8060005b83811015611f1b578151611f028882611e2e565b9750611f0d8361234b565b925050600181019050611eee565b5085935050505092915050565b611f31816124d4565b82525050565b611f40816124e0565b82525050565b6000611f5182612328565b611f5b818561237a565b9350611f6b818560208601612575565b611f74816126d9565b840191505092915050565b6000611f8a82612328565b611f94818561238b565b9350611fa4818560208601612575565b611fad816126d9565b840191505092915050565b611fc18161251e565b82525050565b611fd081612542565b82525050565b611fdf816124ea565b82525050565b6000611ff082612333565b611ffa818561239c565b935061200a818560208601612575565b612013816126d9565b840191505092915050565b61202781612514565b82525050565b61203681612514565b82525050565b60006020820190506120516000830184611e46565b92915050565b600060408201905081810360008301526120718185611e55565b905081810360208301526120858184611eca565b90509392505050565b60006020820190506120a36000830184611f28565b92915050565b60006040820190506120be6000830185611f28565b6120cb602083018461202d565b9392505050565b60006020820190506120e76000830184611f37565b92915050565b60006040820190506121026000830185611f37565b61210f602083018461202d565b9392505050565b600060208201905081810360008301526121308184611f7f565b905092915050565b600060408201905081810360008301526121528185611f7f565b9050612161602083018461202d565b9392505050565b600060208201905061217d6000830184611fb8565b92915050565b60006020820190506121986000830184611fc7565b92915050565b60006060820190506121b36000830186611fd6565b6121c0602083018561202d565b6121cd604083018461202d565b949350505050565b600060208201905081810360008301526121ef8184611fe5565b905092915050565b600060608201905081810360008301526122118186611fe5565b90506122206020830185611f28565b61222d604083018461202d565b949350505050565b6000608082019050818103600083015261224f8187611fe5565b905061225e602083018661202d565b61226b604083018561202d565b612278606083018461202d565b95945050505050565b6000602082019050612296600083018461202d565b92915050565b60006122a66122b7565b90506122b282826125d2565b919050565b6000604051905090565b600067ffffffffffffffff8211156122dc576122db6126aa565b5b6122e5826126d9565b9050602081019050919050565b6000819050602082019050919050565b6000819050602082019050919050565b600081519050919050565b600081519050919050565b600081519050919050565b600081519050919050565b6000602082019050919050565b6000602082019050919050565b600082825260208201905092915050565b600082825260208201905092915050565b600082825260208201905092915050565b600082825260208201905092915050565b600082825260208201905092915050565b60006123b882612514565b91506123c383612514565b9250827fffffffffffffffffffffffffffffffffffffffffffffffffffffffffffffffff038211156123f8576123f761264c565b5b828201905092915050565b600061240e82612514565b915061241983612514565b9250826124295761242861267b565b5b828204905092915050565b600061243f82612514565b915061244a83612514565b9250817fffffffffffffffffffffffffffffffffffffffffffffffffffffffffffffffff04831182151516156124835761248261264c565b5b828202905092915050565b600061249982612514565b91506124a483612514565b9250828210156124b7576124b661264c565b5b828203905092915050565b60006124cd826124f4565b9050919050565b60008115159050919050565b6000819050919050565b6000819050919050565b600073ffffffffffffffffffffffffffffffffffffffff82169050919050565b6000819050919050565b600061252982612530565b9050919050565b600061253b826124f4565b9050919050565b600061254d82612554565b9050919050565b600061255f826124f4565b9050919050565b82818337600083830152505050565b60005b83811015612593578082015181840152602081019050612578565b838111156125a2576000848401525b50505050565b60006125b382612514565b915060008214156125c7576125c661264c565b5b600182039050919050565b6125db826126d9565b810181811067ffffffffffffffff821117156125fa576125f96126aa565b5b80604052505050565b600061260e82612514565b91507fffffffffffffffffffffffffffffffffffffffffffffffffffffffffffffffff8214156126415761264061264c565b5b600182019050919050565b7f4e487b7100000000000000000000000000000000000000000000000000000000600052601160045260246000fd5b7f4e487b7100000000000000000000000000000000000000000000000000000000600052601260045260246000fd5b7f4e487b7100000000000000000000000000000000000000000000000000000000600052604160045260246000fd5b6000601f19601f8301169050919050565b6126f3816124c2565b81146126fe57600080fd5b50565b61270a816124d4565b811461271557600080fd5b50565b612721816124e0565b811461272c57600080fd5b50565b61273881612514565b811461274357600080fd5b5056fe4054494d455354414d505f52455452494556454420475245415445525f5448414e2054494d455354414d504054494d455354414d505f524554524945564544204c4553535f5448414e5f4f525f455155414c5f544f2054494d455354414d504054494d455354414d505f524554524945564544204e4f5420494e20444953505554452a2a2a2a2a2a2a2a2a2a2a20676574496e646578466f72446174614166746572202a2a2a2a2a2a2a2a2a2a2aa2646970667358221220ae5802479a1d3264346f73fc165f982f499ded688496ae058acab2da2b2fcd7564736f6c63430008030033",
  "linkReferences": {},
  "deployedLinkReferences": {}
}