{
  "_format": "hh-sol-artifact-1",
  "contractName": "BenchUsingTellor",
  "sourceName": "contracts/mocks/BenchUsingTellor.sol",
  "abi": [
    {
      "inputs": [
        {
          "internalType": "address payable",
          "name": "_tellor",
          "type": "address"
        }
      ],
      "stateMutability": "nonpayable",
      "type": "constructor"
    },
    {
      "inputs": [
        {
          "internalType": "bytes",
          "name": "_b",
          "type": "bytes"
        }
      ],
      "name": "_sliceUint",
      "outputs": [
        {
          "internalType": "uint256",
          "name": "_number",
          "type": "uint256"
        }
      ],
      "stateMutability": "pure",
      "type": "function"
    },
    {
      "inputs": [
        {
          "internalType": "bytes32",
          "name": "_queryId",
          "type": "bytes32"
        },
        {
          "internalType": "uint256",
          "name": "_timestamp",
          "type": "uint256"
        }
      ],
      "name": "getDataAfter",
      "outputs": [
        {
          "internalType": "bytes",
          "name": "_value",
          "type": "bytes"
        },
        {
          "internalType": "uint256",
          "name": "_timestampRetrieved",
          "type": "uint256"
        }
      ],
      "stateMutability": "view",
      "type": "function"
    },
    {
      "inputs": [
        {
          "internalType": "bytes32",
          "name": "_queryId",
          "type": "bytes32"
        },
        {
          "internalType": "uint256",
          "name": "_timestamp",
          "type": "uint256"
        }
      ],
      "name": "getDataBefore",
      "outputs": [
        {
          "internalType": "bytes",
          "name": "_value",
          "type": "bytes"
        },
        {
          "internalType": "uint256",
          "name": "_timestampRetrieved",
          "type": "uint256"
        }
      ],
      "stateMutability": "view",
      "type": "function"
    },
    {
      "inputs": [
        {
          "internalType": "bytes32",
          "name": "_queryId",
          "type": "bytes32"
        },
        {
          "internalType": "uint256",
          "name": "_timestamp",
          "type": "uint256"
        }
      ],
      "name": "getIndexForDataAfter",
      "outputs": [
        {
          "internalType": "bool",
          "name": "_found",
          "type": "bool"
        },
        {
          "internalType": "uint256",
          "name": "_index",
          "type": "uint256"
        }
      ],
      "stateMutability": "view",
      "type": "function"
    },
    {
      "inputs": [
        {
          "internalType": "bytes32",
          "name": "_queryId",
          "type": "bytes32"
        },
        {
          "internalType": "uint256",
          "name": "_timestamp",
          "type": "uint256"
        }
      ],
      "name": "getIndexForDataBefore",
      "outputs": [
        {
          "internalType": "bool",
          "name": "_found",
          "type": "bool"
        },
        {
          "internalType": "uint256",
          "name": "_index",
          "type": "uint256"
        }
      ],
      "stateMutability": "view",
      "type": "function"
    },
    {
      "inputs": [
        {
          "internalType": "bytes32",
          "name": "_queryId",
          "type": "bytes32"
        },
        {
          "internalType": "uint256",
          "name": "_timestamp",
          "type": "uint256"
        },
        {
          "internalType": "uint256",
          "name": "_maxAge",
          "type": "uint256"
        },
        {
          "internalType": "uint256",
          "name": "_maxCount",
          "type": "uint256"
        }
      ],
      "name": "getMultipleValuesBefore",
      "outputs": [
        {
          "internalType": "bytes[]",
          "name": "_values",
          "type": "bytes[]"
        },
        {
          "internalType": "uint256[]",
          "name": "_timestamps",
          "type": "uint256[]"
        }
      ],
      "stateMutability": "view",
      "type": "function"
    },
    {
      "inputs": [
        {
          "internalType": "bytes32",
          "name": "_queryId",
          "type": "bytes32"
        }
      ],
      "name": "getNewValueCountbyQueryId",
      "outputs": [
        {
          "internalType": "uint256",
          "name": "",
          "type": "uint256"
        }
      ],
      "stateMutability": "view",
      "type": "function"
    },
    {
      "inputs": [
        {
          "internalType": "bytes32",
          "name": "_queryId",
          "type": "bytes32"
        },
        {
          "internalType": "uint256",
          "name": "_timestamp",
          "type": "uint256"
        }
      ],
      "name": "getReporterByTimestamp",
      "outputs": [
        {
          "internalType": "address",
          "name": "",
          "type": "address"
        }
      ],
      "stateMutability": "view",
      "type": "function"
    },
    {
      "inputs": [
        {
          "internalType": "bytes32",
          "name": "_queryId",
          "type": "bytes32"
        },
        {
          "internalType": "uint256",
          "name": "_index",
          "type": "uint256"
        }
      ],
      "name": "getTimestampbyQueryIdandIndex",
      "outputs": [
        {
          "internalType": "uint256",
          "name": "",
          "type": "uint256"
        }
      ],
      "stateMutability": "view",
      "type": "function"
    },
    {
      "inputs": [],
      "name": "idMappingContract",
      "outputs": [
        {
          "internalType": "contract IMappingContract",
          "name": "",
          "type": "address"
        }
      ],
      "stateMutability": "view",
      "type": "function"
    },
    {
      "inputs": [
        {
          "internalType": "bytes32",
          "name": "_queryId",
          "type": "bytes32"
        },
        {
          "internalType": "uint256",
          "name": "_timestamp",
          "type": "uint256"
        }
      ],
      "name": "isInDispute",
      "outputs": [
        {
          "internalType": "bool",
          "name": "",
          "type": "bool"
        }
      ],
      "stateMutability": "view",
      "type": "function"
    },
    {
      "inputs": [
        {
          "internalType": "bytes32",
          "name": "_queryId",
          "type": "bytes32"
        },
        {
          "internalType": "uint256",
          "name": "_timestamp",
          "type": "uint256"
        }
      ],
      "name": "retrieveData",
      "outputs": [
        {
          "internalType": "bytes",
          "name": "",
          "type": "bytes"
        }
      ],
      "stateMutability": "view",
      "type": "function"
    },
    {
      "inputs": [
        {
          "internalType": "address",
          "name": "_addy",
          "type": "address"
        }
      ],
      "name": "setIdMappingContract",
      "outputs": [],
      "stateMutability": "nonpayable",
      "type": "function"
    },
    {
      "inputs": [],
      "name": "tellor",
      "outputs": [
        {
          "internalType": "contract ITellor",
          "name": "",
          "type": "address"
        }
      ],
      "stateMutability": "view",
      "type": "function"
    },
    {
      "inputs": [
        {
          "internalType": "bytes32",
          "name": "_id",
          "type": "bytes32"
        }
      ],
      "name": "valueFor",
      "outputs": [
        {
          "internalType": "int256",
          "name": "_value",
          "type": "int256"
        },
        {
          "internalType": "uint256",
          "name": "_timestamp",
          "type": "uint256"
        },
        {
          "internalType": "uint256",
          "name": "_statusCode",
          "type": "uint256"
        }
      ],
      "stateMutability": "view",
      "type": "function"
    }
  ],
  "bytecode": "0x60806040523480156200001157600080fd5b506040516200221638038062002216833981810160405281019062000037919062000097565b80806000806101000a81548173ffffffffffffffffffffffffffffffffffffffff021916908373ffffffffffffffffffffffffffffffffffffffff160217905550505062000111565b6000815190506200009181620000f7565b92915050565b600060208284031215620000aa57600080fd5b6000620000ba8482850162000080565b91505092915050565b6000620000d082620000d7565b9050919050565b600073ffffffffffffffffffffffffffffffffffffffff82169050919050565b6200010281620000c3565b81146200010e57600080fd5b50565b6120f580620001216000396000f3fe608060405234801561001057600080fd5b50600436106100f55760003560e01c806377b03e0d11610097578063e07c548611610066578063e07c5486146102d5578063f66f49c314610305578063f78eea8314610336578063fcd4a54614610368576100f5565b806377b03e0d14610214578063a792765f14610244578063c5958af914610275578063ce5e11bf146102a5576100f5565b80632af8aae0116100d35780632af8aae014610165578063340a13721461018357806344e87f91146101b357806364ee3c6d146101e3576100f5565b8063193b505b146100fa5780631959ad5b146101165780632944908514610134575b600080fd5b610114600480360381019061010f91906114e6565b610399565b005b61011e610438565b60405161012b9190611ad0565b60405180910390f35b61014e60048036038101906101499190611656565b61045c565b60405161015c9291906119f6565b60405180910390f35b61016d610514565b60405161017a9190611ab5565b60405180910390f35b61019d600480360381019061019891906116f5565b61053a565b6040516101aa9190611b22565b60405180910390f35b6101cd60048036038101906101c89190611656565b6105f6565b6040516101da91906119db565b60405180910390f35b6101fd60048036038101906101f89190611656565b6106ac565b60405161020b929190611a85565b60405180910390f35b61022e60048036038101906102299190611604565b610706565b60405161023b9190611b22565b60405180910390f35b61025e60048036038101906102599190611656565b6107b9565b60405161026c929190611a85565b60405180910390f35b61028f600480360381019061028a9190611656565b610880565b60405161029c9190611a63565b60405180910390f35b6102bf60048036038101906102ba9190611656565b61093a565b6040516102cc9190611b22565b60405180910390f35b6102ef60048036038101906102ea9190611656565b6109f0565b6040516102fc9190611989565b60405180910390f35b61031f600480360381019061031a9190611656565b610aa6565b60405161032d9291906119f6565b60405180910390f35b610350600480360381019061034b9190611604565b610dd3565b60405161035f93929190611aeb565b60405180910390f35b610382600480360381019061037d9190611692565b610f15565b6040516103909291906119a4565b60405180910390f35b600073ffffffffffffffffffffffffffffffffffffffff16600160009054906101000a900473ffffffffffffffffffffffffffffffffffffffff1673ffffffffffffffffffffffffffffffffffffffff16146103f457600080fd5b80600160006101000a81548173ffffffffffffffffffffffffffffffffffffffff021916908373ffffffffffffffffffffffffffffffffffffffff16021790555050565b60008054906101000a900473ffffffffffffffffffffffffffffffffffffffff1681565b60008060008054906101000a900473ffffffffffffffffffffffffffffffffffffffff1673ffffffffffffffffffffffffffffffffffffffff16632944908585856040518363ffffffff1660e01b81526004016104ba929190611a3a565b604080518083038186803b1580156104d157600080fd5b505afa1580156104e5573d6000803e3d6000fd5b505050506040513d601f19601f8201168201806040525081019061050991906115c8565b915091509250929050565b600160009054906101000a900473ffffffffffffffffffffffffffffffffffffffff1681565b600080600090505b82518110156105f0576001816105589190611c32565b83516105649190611e53565b60086105709190611df9565b600261057c9190611cdb565b8382815181106105b5577f4e487b7100000000000000000000000000000000000000000000000000000000600052603260045260246000fd5b602001015160f81c60f81b60f81c60ff166105d09190611df9565b826105db9190611c32565b915080806105e890611f9e565b915050610542565b50919050565b60008060009054906101000a900473ffffffffffffffffffffffffffffffffffffffff1673ffffffffffffffffffffffffffffffffffffffff166344e87f9184846040518363ffffffff1660e01b8152600401610654929190611a3a565b60206040518083038186803b15801561066c57600080fd5b505afa158015610680573d6000803e3d6000fd5b505050506040513d601f19601f820116820180604052508101906106a49190611538565b905092915050565b606060008060006106bd8686610aa6565b91509150816106e457600060405180602001604052806000815250909350935050506106ff565b6106ee868261093a565b92506106fa8684610880565b935050505b9250929050565b60008060009054906101000a900473ffffffffffffffffffffffffffffffffffffffff1673ffffffffffffffffffffffffffffffffffffffff166377b03e0d836040518263ffffffff1660e01b81526004016107629190611a1f565b60206040518083038186803b15801561077a57600080fd5b505afa15801561078e573d6000803e3d6000fd5b505050506040513d601f19601f820116820180604052508101906107b29190611777565b9050919050565b606060008060009054906101000a900473ffffffffffffffffffffffffffffffffffffffff1673ffffffffffffffffffffffffffffffffffffffff1663a792765f85856040518363ffffffff1660e01b8152600401610819929190611a3a565b60006040518083038186803b15801561083157600080fd5b505afa158015610845573d6000803e3d6000fd5b505050506040513d6000823e3d601f19601f8201168201806040525081019061086e9190611561565b90915080925081935050509250929050565b606060008054906101000a900473ffffffffffffffffffffffffffffffffffffffff1673ffffffffffffffffffffffffffffffffffffffff1663c5958af984846040518363ffffffff1660e01b81526004016108dd929190611a3a565b60006040518083038186803b1580156108f557600080fd5b505afa158015610909573d6000803e3d6000fd5b505050506040513d6000823e3d601f19601f820116820180604052508101906109329190611736565b905092915050565b60008060009054906101000a900473ffffffffffffffffffffffffffffffffffffffff1673ffffffffffffffffffffffffffffffffffffffff1663ce5e11bf84846040518363ffffffff1660e01b8152600401610998929190611a3a565b60206040518083038186803b1580156109b057600080fd5b505afa1580156109c4573d6000803e3d6000fd5b505050506040513d601f19601f820116820180604052508101906109e89190611777565b905092915050565b60008060009054906101000a900473ffffffffffffffffffffffffffffffffffffffff1673ffffffffffffffffffffffffffffffffffffffff1663e07c548684846040518363ffffffff1660e01b8152600401610a4e929190611a3a565b60206040518083038186803b158015610a6657600080fd5b505afa158015610a7a573d6000803e3d6000fd5b505050506040513d601f19601f82011682018060405250810190610a9e919061150f565b905092915050565b60008060008054906101000a900473ffffffffffffffffffffffffffffffffffffffff1673ffffffffffffffffffffffffffffffffffffffff16632944908585856040518363ffffffff1660e01b8152600401610b04929190611a3a565b604080518083038186803b158015610b1b57600080fd5b505afa158015610b2f573d6000803e3d6000fd5b505050506040513d601f19601f82011682018060405250810190610b5391906115c8565b80925081935050508115610b70578080610b6c90611f9e565b9150505b60008060009054906101000a900473ffffffffffffffffffffffffffffffffffffffff1673ffffffffffffffffffffffffffffffffffffffff166377b03e0d866040518263ffffffff1660e01b8152600401610bcc9190611a1f565b60206040518083038186803b158015610be457600080fd5b505afa158015610bf8573d6000803e3d6000fd5b505050506040513d601f19601f82011682018060405250810190610c1c9190611777565b9050818111610c32576000809250925050610dcc565b60008060009054906101000a900473ffffffffffffffffffffffffffffffffffffffff1673ffffffffffffffffffffffffffffffffffffffff1663ce5e11bf87856040518363ffffffff1660e01b8152600401610c90929190611a3a565b60206040518083038186803b158015610ca857600080fd5b505afa158015610cbc573d6000803e3d6000fd5b505050506040513d601f19601f82011682018060405250810190610ce09190611777565b905084811115610cf557600193505050610dcc565b8280610d0090611f9e565b935050828211610d1857600080935093505050610dcc565b60008054906101000a900473ffffffffffffffffffffffffffffffffffffffff1673ffffffffffffffffffffffffffffffffffffffff1663ce5e11bf87856040518363ffffffff1660e01b8152600401610d73929190611a3a565b60206040518083038186803b158015610d8b57600080fd5b505afa158015610d9f573d6000803e3d6000fd5b505050506040513d601f19601f82011682018060405250810190610dc39190611777565b90506001935050505b9250929050565b6000806000600160009054906101000a900473ffffffffffffffffffffffffffffffffffffffff1673ffffffffffffffffffffffffffffffffffffffff166387a475fd856040518263ffffffff1660e01b8152600401610e339190611a1f565b60206040518083038186803b158015610e4b57600080fd5b505afa158015610e5f573d6000803e3d6000fd5b505050506040513d601f19601f82011682018060405250810190610e83919061162d565b93506000610e9085610706565b90506000811415610ead5760008061019493509350935050610f0e565b610ec385600183610ebe9190611e53565b61093a565b92506000610ed18685610880565b9050600081511415610ef0576000806101949450945094505050610f0e565b6000610efb8261053a565b9050809550858560c89550955095505050505b9193909250565b606080600080610f30888789610f2b9190611e53565b610aa6565b915091508161102957600067ffffffffffffffff811115610f7a577f4e487b7100000000000000000000000000000000000000000000000000000000600052604160045260246000fd5b604051908082528060200260200182016040528015610fad57816020015b6060815260200190600190039081610f985790505b50600067ffffffffffffffff811115610fef577f4e487b7100000000000000000000000000000000000000000000000000000000600052604160045260246000fd5b60405190808252806020026020018201604052801561101d5781602001602082028036833780820191505090505b5093509350505061137a565b6000611035898961045c565b80925081945050508261113357600067ffffffffffffffff811115611083577f4e487b7100000000000000000000000000000000000000000000000000000000600052604160045260246000fd5b6040519080825280602002602001820160405280156110b657816020015b60608152602001906001900390816110a15790505b50600067ffffffffffffffff8111156110f8577f4e487b7100000000000000000000000000000000000000000000000000000000600052604160045260246000fd5b6040519080825280602002602001820160405280156111265781602001602082028036833780820191505090505b509450945050505061137a565b6000600183836111439190611e53565b61114d9190611c32565b90508681111561117557600187836111659190611e53565b61116f9190611c32565b92508690505b60008167ffffffffffffffff8111156111b7577f4e487b7100000000000000000000000000000000000000000000000000000000600052604160045260246000fd5b6040519080825280602002602001820160405280156111ea57816020015b60608152602001906001900390816111d55790505b50905060008267ffffffffffffffff81111561122f577f4e487b7100000000000000000000000000000000000000000000000000000000600052604160045260246000fd5b60405190808252806020026020018201604052801561125d5781602001602082028036833780820191505090505b509050606060005b8481101561136b576112828e828961127d9190611c32565b61093a565b8382815181106112bb577f4e487b7100000000000000000000000000000000000000000000000000000000600052603260045260246000fd5b6020026020010181815250506113118e848381518110611304577f4e487b7100000000000000000000000000000000000000000000000000000000600052603260045260246000fd5b6020026020010151610880565b91508184828151811061134d577f4e487b7100000000000000000000000000000000000000000000000000000000600052603260045260246000fd5b6020026020010181905250808061136390611f9e565b915050611265565b50828298509850505050505050505b94509492505050565b600061139661139184611b62565b611b3d565b9050828152602081018484840111156113ae57600080fd5b6113b9848285611f2b565b509392505050565b60006113d46113cf84611b62565b611b3d565b9050828152602081018484840111156113ec57600080fd5b6113f7848285611f3a565b509392505050565b60008135905061140e81612063565b92915050565b60008151905061142381612063565b92915050565b6000815190506114388161207a565b92915050565b60008135905061144d81612091565b92915050565b60008151905061146281612091565b92915050565b600082601f83011261147957600080fd5b8135611489848260208601611383565b91505092915050565b600082601f8301126114a357600080fd5b81516114b38482602086016113c1565b91505092915050565b6000813590506114cb816120a8565b92915050565b6000815190506114e0816120a8565b92915050565b6000602082840312156114f857600080fd5b6000611506848285016113ff565b91505092915050565b60006020828403121561152157600080fd5b600061152f84828501611414565b91505092915050565b60006020828403121561154a57600080fd5b600061155884828501611429565b91505092915050565b60008060006060848603121561157657600080fd5b600061158486828701611429565b935050602084015167ffffffffffffffff8111156115a157600080fd5b6115ad86828701611492565b92505060406115be868287016114d1565b9150509250925092565b600080604083850312156115db57600080fd5b60006115e985828601611429565b92505060206115fa858286016114d1565b9150509250929050565b60006020828403121561161657600080fd5b60006116248482850161143e565b91505092915050565b60006020828403121561163f57600080fd5b600061164d84828501611453565b91505092915050565b6000806040838503121561166957600080fd5b60006116778582860161143e565b9250506020611688858286016114bc565b9150509250929050565b600080600080608085870312156116a857600080fd5b60006116b68782880161143e565b94505060206116c7878288016114bc565b93505060406116d8878288016114bc565b92505060606116e9878288016114bc565b91505092959194509250565b60006020828403121561170757600080fd5b600082013567ffffffffffffffff81111561172157600080fd5b61172d84828501611468565b91505092915050565b60006020828403121561174857600080fd5b600082015167ffffffffffffffff81111561176257600080fd5b61176e84828501611492565b91505092915050565b60006020828403121561178957600080fd5b6000611797848285016114d1565b91505092915050565b60006117ac83836118cc565b905092915050565b60006117c0838361196b565b60208301905092915050565b6117d581611e87565b82525050565b60006117e682611bb3565b6117f08185611bee565b93508360208202850161180285611b93565b8060005b8581101561183e578484038952815161181f85826117a0565b945061182a83611bd4565b925060208a01995050600181019050611806565b50829750879550505050505092915050565b600061185b82611bbe565b6118658185611bff565b935061187083611ba3565b8060005b838110156118a157815161188888826117b4565b975061189383611be1565b925050600181019050611874565b5085935050505092915050565b6118b781611e99565b82525050565b6118c681611ea5565b82525050565b60006118d782611bc9565b6118e18185611c10565b93506118f1818560208601611f3a565b6118fa81612045565b840191505092915050565b600061191082611bc9565b61191a8185611c21565b935061192a818560208601611f3a565b61193381612045565b840191505092915050565b61194781611ee3565b82525050565b61195681611f07565b82525050565b61196581611eaf565b82525050565b61197481611ed9565b82525050565b61198381611ed9565b82525050565b600060208201905061199e60008301846117cc565b92915050565b600060408201905081810360008301526119be81856117db565b905081810360208301526119d28184611850565b90509392505050565b60006020820190506119f060008301846118ae565b92915050565b6000604082019050611a0b60008301856118ae565b611a18602083018461197a565b9392505050565b6000602082019050611a3460008301846118bd565b92915050565b6000604082019050611a4f60008301856118bd565b611a5c602083018461197a565b9392505050565b60006020820190508181036000830152611a7d8184611905565b905092915050565b60006040820190508181036000830152611a9f8185611905565b9050611aae602083018461197a565b9392505050565b6000602082019050611aca600083018461193e565b92915050565b6000602082019050611ae5600083018461194d565b92915050565b6000606082019050611b00600083018661195c565b611b0d602083018561197a565b611b1a604083018461197a565b949350505050565b6000602082019050611b37600083018461197a565b92915050565b6000611b47611b58565b9050611b538282611f6d565b919050565b6000604051905090565b600067ffffffffffffffff821115611b7d57611b7c612016565b5b611b8682612045565b9050602081019050919050565b6000819050602082019050919050565b6000819050602082019050919050565b600081519050919050565b600081519050919050565b600081519050919050565b6000602082019050919050565b6000602082019050919050565b600082825260208201905092915050565b600082825260208201905092915050565b600082825260208201905092915050565b600082825260208201905092915050565b6000611c3d82611ed9565b9150611c4883611ed9565b9250827fffffffffffffffffffffffffffffffffffffffffffffffffffffffffffffffff03821115611c7d57611c7c611fe7565b5b828201905092915050565b6000808291508390505b6001851115611cd257808604811115611cae57611cad611fe7565b5b6001851615611cbd5780820291505b8081029050611ccb85612056565b9450611c92565b94509492505050565b6000611ce682611ed9565b9150611cf183611ed9565b9250611d1e7fffffffffffffffffffffffffffffffffffffffffffffffffffffffffffffffff8484611d26565b905092915050565b600082611d365760019050611df2565b81611d445760009050611df2565b8160018114611d5a5760028114611d6457611d93565b6001915050611df2565b60ff841115611d7657611d75611fe7565b5b8360020a915084821115611d8d57611d8c611fe7565b5b50611df2565b5060208310610133831016604e8410600b8410161715611dc85782820a905083811115611dc357611dc2611fe7565b5b611df2565b611dd58484846001611c88565b92509050818404811115611dec57611deb611fe7565b5b81810290505b9392505050565b6000611e0482611ed9565b9150611e0f83611ed9565b9250817fffffffffffffffffffffffffffffffffffffffffffffffffffffffffffffffff0483118215151615611e4857611e47611fe7565b5b828202905092915050565b6000611e5e82611ed9565b9150611e6983611ed9565b925082821015611e7c57611e7b611fe7565b5b828203905092915050565b6000611e9282611eb9565b9050919050565b60008115159050919050565b6000819050919050565b6000819050919050565b600073ffffffffffffffffffffffffffffffffffffffff82169050919050565b6000819050919050565b6000611eee82611ef5565b9050919050565b6000611f0082611eb9565b9050919050565b6000611f1282611f19565b9050919050565b6000611f2482611eb9565b9050919050565b82818337600083830152505050565b60005b83811015611f58578082015181840152602081019050611f3d565b83811115611f67576000848401525b50505050565b611f7682612045565b810181811067ffffffffffffffff82111715611f9557611f94612016565b5b80604052505050565b6000611fa982611ed9565b91507fffffffffffffffffffffffffffffffffffffffffffffffffffffffffffffffff821415611fdc57611fdb611fe7565b5b600182019050919050565b7f4e487b7100000000000000000000000000000000000000000000000000000000600052601160045260246000fd5b7f4e487b7100000000000000000000000000000000000000000000000000000000600052604160045260246000fd5b6000601f19601f8301169050919050565b60008160011c9050919050565b61206c81611e87565b811461207757600080fd5b50565b61208381611e99565b811461208e57600080fd5b50565b61209a81611ea5565b81146120a557600080fd5b50565b6120b181611ed9565b81146120bc57600080fd5b5056fea2646970667358221220f5552039e21d5f4afeee27e04a339758f084abce478290f57dcd7f7c12cf647364736f6c63430008030033",
  "linkReferences": {},
  "deployedLinkReferences": {}
}