{
  "_format": "hh-sol-artifact-1",
  "contractName": "BenchUsingTellor",
  "sourceName": "contracts/mocks/BenchUsingTellor.sol",
  "abi": [
    {
      "inputs": [
        {
          "internalType": "address payable",
          "name": "_tellor",
          "type": "address"
        }
      ],
      "stateMutability": "nonpayable",
      "type": "constructor"
    },
    {
      "inputs": [
        {
          "internalType": "bytes",
          "name": "_b",
          "type": "bytes"
        }
      ],
      "name": "bytesToUint",
      "outputs": [
        {
          "internalType": "uint256",
          "name": "",
          "type": "uint256"
        }
      ],
      "stateMutability": "pure",
      "type": "function"
    },
    {
      "inputs": [
        {
          "internalType": "bytes32",
          "name": "_queryId",
          "type": "bytes32"
        },
        {
          "internalType": "uint256",
          "name": "_timestamp",
          "type": "uint256"
        }
      ],
      "name": "getDataAfter",
      "outputs": [
        {
          "internalType": "bytes",
          "name": "_value",
          "type": "bytes"
        },
        {
          "internalType": "uint256",
          "name": "_timestampRetrieved",
          "type": "uint256"
        }
      ],
      "stateMutability": "view",
      "type": "function"
    },
    {
      "inputs": [
        {
          "internalType": "bytes32",
          "name": "_queryId",
          "type": "bytes32"
        },
        {
          "internalType": "uint256",
          "name": "_timestamp",
          "type": "uint256"
        }
      ],
      "name": "getDataBefore",
      "outputs": [
        {
          "internalType": "bytes",
          "name": "_value",
          "type": "bytes"
        },
        {
          "internalType": "uint256",
          "name": "_timestampRetrieved",
          "type": "uint256"
        }
      ],
      "stateMutability": "view",
      "type": "function"
    },
    {
      "inputs": [
        {
          "internalType": "bytes32",
          "name": "_queryId",
          "type": "bytes32"
        },
        {
          "internalType": "uint256",
          "name": "_timestamp",
          "type": "uint256"
        }
      ],
      "name": "getIndexForDataAfter",
      "outputs": [
        {
          "internalType": "bool",
          "name": "_found",
          "type": "bool"
        },
        {
          "internalType": "uint256",
          "name": "_index",
          "type": "uint256"
        }
      ],
      "stateMutability": "view",
      "type": "function"
    },
    {
      "inputs": [
        {
          "internalType": "bytes32",
          "name": "_queryId",
          "type": "bytes32"
        },
        {
          "internalType": "uint256",
          "name": "_timestamp",
          "type": "uint256"
        }
      ],
      "name": "getIndexForDataBefore",
      "outputs": [
        {
          "internalType": "bool",
          "name": "_found",
          "type": "bool"
        },
        {
          "internalType": "uint256",
          "name": "_index",
          "type": "uint256"
        }
      ],
      "stateMutability": "view",
      "type": "function"
    },
    {
      "inputs": [
        {
          "internalType": "bytes32",
          "name": "_queryId",
          "type": "bytes32"
        },
        {
          "internalType": "uint256",
          "name": "_timestamp",
          "type": "uint256"
        },
        {
          "internalType": "uint256",
          "name": "_maxAge",
          "type": "uint256"
        },
        {
          "internalType": "uint256",
          "name": "_maxCount",
          "type": "uint256"
        }
      ],
      "name": "getMultipleValuesBefore",
      "outputs": [
        {
          "internalType": "bytes[]",
          "name": "_values",
          "type": "bytes[]"
        },
        {
          "internalType": "uint256[]",
          "name": "_timestamps",
          "type": "uint256[]"
        }
      ],
      "stateMutability": "view",
      "type": "function"
    },
    {
      "inputs": [
        {
          "internalType": "bytes32",
          "name": "_queryId",
          "type": "bytes32"
        }
      ],
      "name": "getNewValueCountbyQueryId",
      "outputs": [
        {
          "internalType": "uint256",
          "name": "",
          "type": "uint256"
        }
      ],
      "stateMutability": "view",
      "type": "function"
    },
    {
      "inputs": [
        {
          "internalType": "bytes32",
          "name": "_queryId",
          "type": "bytes32"
        },
        {
          "internalType": "uint256",
          "name": "_timestamp",
          "type": "uint256"
        }
      ],
      "name": "getReporterByTimestamp",
      "outputs": [
        {
          "internalType": "address",
          "name": "",
          "type": "address"
        }
      ],
      "stateMutability": "view",
      "type": "function"
    },
    {
      "inputs": [
        {
          "internalType": "bytes32",
          "name": "_queryId",
          "type": "bytes32"
        },
        {
          "internalType": "uint256",
          "name": "_index",
          "type": "uint256"
        }
      ],
      "name": "getTimestampbyQueryIdandIndex",
      "outputs": [
        {
          "internalType": "uint256",
          "name": "",
          "type": "uint256"
        }
      ],
      "stateMutability": "view",
      "type": "function"
    },
    {
      "inputs": [],
      "name": "idMappingContract",
      "outputs": [
        {
          "internalType": "contract IMappingContract",
          "name": "",
          "type": "address"
        }
      ],
      "stateMutability": "view",
      "type": "function"
    },
    {
      "inputs": [
        {
          "internalType": "bytes32",
          "name": "_queryId",
          "type": "bytes32"
        },
        {
          "internalType": "uint256",
          "name": "_timestamp",
          "type": "uint256"
        }
      ],
      "name": "isInDispute",
      "outputs": [
        {
          "internalType": "bool",
          "name": "",
          "type": "bool"
        }
      ],
      "stateMutability": "view",
      "type": "function"
    },
    {
      "inputs": [
        {
          "internalType": "bytes32",
          "name": "_queryId",
          "type": "bytes32"
        },
        {
          "internalType": "uint256",
          "name": "_timestamp",
          "type": "uint256"
        }
      ],
      "name": "retrieveData",
      "outputs": [
        {
          "internalType": "bytes",
          "name": "",
          "type": "bytes"
        }
      ],
      "stateMutability": "view",
      "type": "function"
    },
    {
      "inputs": [
        {
          "internalType": "address",
          "name": "_addy",
          "type": "address"
        }
      ],
      "name": "setIdMappingContract",
      "outputs": [],
      "stateMutability": "nonpayable",
      "type": "function"
    },
    {
      "inputs": [],
      "name": "tellor",
      "outputs": [
        {
          "internalType": "contract ITellor",
          "name": "",
          "type": "address"
        }
      ],
      "stateMutability": "view",
      "type": "function"
    },
    {
      "inputs": [
        {
          "internalType": "bytes32",
          "name": "_id",
          "type": "bytes32"
        }
      ],
      "name": "valueFor",
      "outputs": [
        {
          "internalType": "int256",
          "name": "_value",
          "type": "int256"
        },
        {
          "internalType": "uint256",
          "name": "_timestamp",
          "type": "uint256"
        },
        {
          "internalType": "uint256",
          "name": "_statusCode",
          "type": "uint256"
        }
      ],
      "stateMutability": "view",
      "type": "function"
    }
  ],
  "bytecode": "0x60806040523480156200001157600080fd5b506040516200207e3803806200207e833981810160405281019062000037919062000099565b8080806000806101000a81548173ffffffffffffffffffffffffffffffffffffffff021916908373ffffffffffffffffffffffffffffffffffffffff16021790555050505062000113565b6000815190506200009381620000f9565b92915050565b600060208284031215620000ac57600080fd5b6000620000bc8482850162000082565b91505092915050565b6000620000d282620000d9565b9050919050565b600073ffffffffffffffffffffffffffffffffffffffff82169050919050565b6200010481620000c5565b81146200011057600080fd5b50565b611f5b80620001236000396000f3fe608060405234801561001057600080fd5b50600436106100f55760003560e01c806377b03e0d11610097578063e07c548611610066578063e07c5486146102d5578063f66f49c314610305578063f78eea8314610336578063fcd4a54614610368576100f5565b806377b03e0d14610214578063a792765f14610244578063c5958af914610275578063ce5e11bf146102a5576100f5565b806329449085116100d357806329449085146101645780632af8aae01461019557806344e87f91146101b357806364ee3c6d146101e3576100f5565b806302d06d05146100fa578063193b505b1461012a5780631959ad5b14610146575b600080fd5b610114600480360381019061010f91906116d9565b610399565b6040516101219190611b06565b60405180910390f35b610144600480360381019061013f91906114ca565b6103ab565b005b61014e61044a565b60405161015b9190611ab4565b60405180910390f35b61017e6004803603810190610179919061163a565b61046e565b60405161018c9291906119da565b60405180910390f35b61019d610526565b6040516101aa9190611a99565b60405180910390f35b6101cd60048036038101906101c8919061163a565b61054c565b6040516101da91906119bf565b60405180910390f35b6101fd60048036038101906101f8919061163a565b610602565b60405161020b929190611a69565b60405180910390f35b61022e600480360381019061022991906115e8565b61065c565b60405161023b9190611b06565b60405180910390f35b61025e6004803603810190610259919061163a565b61070f565b60405161026c929190611a69565b60405180910390f35b61028f600480360381019061028a919061163a565b6107d6565b60405161029c9190611a47565b60405180910390f35b6102bf60048036038101906102ba919061163a565b610890565b6040516102cc9190611b06565b60405180910390f35b6102ef60048036038101906102ea919061163a565b610946565b6040516102fc919061196d565b60405180910390f35b61031f600480360381019061031a919061163a565b6109fc565b60405161032d9291906119da565b60405180910390f35b610350600480360381019061034b91906115e8565b610d29565b60405161035f93929190611acf565b60405180910390f35b610382600480360381019061037d9190611676565b610e6b565b604051610390929190611988565b60405180910390f35b60006103a4826112d9565b9050919050565b600073ffffffffffffffffffffffffffffffffffffffff16600160009054906101000a900473ffffffffffffffffffffffffffffffffffffffff1673ffffffffffffffffffffffffffffffffffffffff161461040657600080fd5b80600160006101000a81548173ffffffffffffffffffffffffffffffffffffffff021916908373ffffffffffffffffffffffffffffffffffffffff16021790555050565b60008054906101000a900473ffffffffffffffffffffffffffffffffffffffff1681565b60008060008054906101000a900473ffffffffffffffffffffffffffffffffffffffff1673ffffffffffffffffffffffffffffffffffffffff16632944908585856040518363ffffffff1660e01b81526004016104cc929190611a1e565b604080518083038186803b1580156104e357600080fd5b505afa1580156104f7573d6000803e3d6000fd5b505050506040513d601f19601f8201168201806040525081019061051b91906115ac565b915091509250929050565b600160009054906101000a900473ffffffffffffffffffffffffffffffffffffffff1681565b60008060009054906101000a900473ffffffffffffffffffffffffffffffffffffffff1673ffffffffffffffffffffffffffffffffffffffff166344e87f9184846040518363ffffffff1660e01b81526004016105aa929190611a1e565b60206040518083038186803b1580156105c257600080fd5b505afa1580156105d6573d6000803e3d6000fd5b505050506040513d601f19601f820116820180604052508101906105fa919061151c565b905092915050565b6060600080600061061386866109fc565b915091508161063a5760006040518060200160405280600081525090935093505050610655565b6106448682610890565b925061065086846107d6565b935050505b9250929050565b60008060009054906101000a900473ffffffffffffffffffffffffffffffffffffffff1673ffffffffffffffffffffffffffffffffffffffff166377b03e0d836040518263ffffffff1660e01b81526004016106b89190611a03565b60206040518083038186803b1580156106d057600080fd5b505afa1580156106e4573d6000803e3d6000fd5b505050506040513d601f19601f82011682018060405250810190610708919061175b565b9050919050565b606060008060009054906101000a900473ffffffffffffffffffffffffffffffffffffffff1673ffffffffffffffffffffffffffffffffffffffff1663a792765f85856040518363ffffffff1660e01b815260040161076f929190611a1e565b60006040518083038186803b15801561078757600080fd5b505afa15801561079b573d6000803e3d6000fd5b505050506040513d6000823e3d601f19601f820116820180604052508101906107c49190611545565b90915080925081935050509250929050565b606060008054906101000a900473ffffffffffffffffffffffffffffffffffffffff1673ffffffffffffffffffffffffffffffffffffffff1663c5958af984846040518363ffffffff1660e01b8152600401610833929190611a1e565b60006040518083038186803b15801561084b57600080fd5b505afa15801561085f573d6000803e3d6000fd5b505050506040513d6000823e3d601f19601f82011682018060405250810190610888919061171a565b905092915050565b60008060009054906101000a900473ffffffffffffffffffffffffffffffffffffffff1673ffffffffffffffffffffffffffffffffffffffff1663ce5e11bf84846040518363ffffffff1660e01b81526004016108ee929190611a1e565b60206040518083038186803b15801561090657600080fd5b505afa15801561091a573d6000803e3d6000fd5b505050506040513d601f19601f8201168201806040525081019061093e919061175b565b905092915050565b60008060009054906101000a900473ffffffffffffffffffffffffffffffffffffffff1673ffffffffffffffffffffffffffffffffffffffff1663e07c548684846040518363ffffffff1660e01b81526004016109a4929190611a1e565b60206040518083038186803b1580156109bc57600080fd5b505afa1580156109d0573d6000803e3d6000fd5b505050506040513d601f19601f820116820180604052508101906109f491906114f3565b905092915050565b60008060008054906101000a900473ffffffffffffffffffffffffffffffffffffffff1673ffffffffffffffffffffffffffffffffffffffff16632944908585856040518363ffffffff1660e01b8152600401610a5a929190611a1e565b604080518083038186803b158015610a7157600080fd5b505afa158015610a85573d6000803e3d6000fd5b505050506040513d601f19601f82011682018060405250810190610aa991906115ac565b80925081935050508115610ac6578080610ac290611e11565b9150505b60008060009054906101000a900473ffffffffffffffffffffffffffffffffffffffff1673ffffffffffffffffffffffffffffffffffffffff166377b03e0d866040518263ffffffff1660e01b8152600401610b229190611a03565b60206040518083038186803b158015610b3a57600080fd5b505afa158015610b4e573d6000803e3d6000fd5b505050506040513d601f19601f82011682018060405250810190610b72919061175b565b9050818111610b88576000809250925050610d22565b60008060009054906101000a900473ffffffffffffffffffffffffffffffffffffffff1673ffffffffffffffffffffffffffffffffffffffff1663ce5e11bf87856040518363ffffffff1660e01b8152600401610be6929190611a1e565b60206040518083038186803b158015610bfe57600080fd5b505afa158015610c12573d6000803e3d6000fd5b505050506040513d601f19601f82011682018060405250810190610c36919061175b565b905084811115610c4b57600193505050610d22565b8280610c5690611e11565b935050828211610c6e57600080935093505050610d22565b60008054906101000a900473ffffffffffffffffffffffffffffffffffffffff1673ffffffffffffffffffffffffffffffffffffffff1663ce5e11bf87856040518363ffffffff1660e01b8152600401610cc9929190611a1e565b60206040518083038186803b158015610ce157600080fd5b505afa158015610cf5573d6000803e3d6000fd5b505050506040513d601f19601f82011682018060405250810190610d19919061175b565b90506001935050505b9250929050565b6000806000600160009054906101000a900473ffffffffffffffffffffffffffffffffffffffff1673ffffffffffffffffffffffffffffffffffffffff166387a475fd856040518263ffffffff1660e01b8152600401610d899190611a03565b60206040518083038186803b158015610da157600080fd5b505afa158015610db5573d6000803e3d6000fd5b505050506040513d601f19601f82011682018060405250810190610dd99190611611565b93506000610de68561065c565b90506000811415610e035760008061019493509350935050610e64565b610e1985600183610e149190611cc6565b610890565b92506000610e2786856107d6565b9050600081511415610e46576000806101949450945094505050610e64565b6000610e51826112d9565b9050809550858560c89550955095505050505b9193909250565b606080600080610e86888789610e819190611cc6565b6109fc565b9150915081610f7f57600067ffffffffffffffff811115610ed0577f4e487b7100000000000000000000000000000000000000000000000000000000600052604160045260246000fd5b604051908082528060200260200182016040528015610f0357816020015b6060815260200190600190039081610eee5790505b50600067ffffffffffffffff811115610f45577f4e487b7100000000000000000000000000000000000000000000000000000000600052604160045260246000fd5b604051908082528060200260200182016040528015610f735781602001602082028036833780820191505090505b509350935050506112d0565b6000610f8b898961046e565b80925081945050508261108957600067ffffffffffffffff811115610fd9577f4e487b7100000000000000000000000000000000000000000000000000000000600052604160045260246000fd5b60405190808252806020026020018201604052801561100c57816020015b6060815260200190600190039081610ff75790505b50600067ffffffffffffffff81111561104e577f4e487b7100000000000000000000000000000000000000000000000000000000600052604160045260246000fd5b60405190808252806020026020018201604052801561107c5781602001602082028036833780820191505090505b50945094505050506112d0565b6000600183836110999190611cc6565b6110a39190611c16565b9050868111156110cb57600187836110bb9190611cc6565b6110c59190611c16565b92508690505b60008167ffffffffffffffff81111561110d577f4e487b7100000000000000000000000000000000000000000000000000000000600052604160045260246000fd5b60405190808252806020026020018201604052801561114057816020015b606081526020019060019003908161112b5790505b50905060008267ffffffffffffffff811115611185577f4e487b7100000000000000000000000000000000000000000000000000000000600052604160045260246000fd5b6040519080825280602002602001820160405280156111b35781602001602082028036833780820191505090505b509050606060005b848110156112c1576111d88e82896111d39190611c16565b610890565b838281518110611211577f4e487b7100000000000000000000000000000000000000000000000000000000600052603260045260246000fd5b6020026020010181815250506112678e84838151811061125a577f4e487b7100000000000000000000000000000000000000000000000000000000600052603260045260246000fd5b60200260200101516107d6565b9150818482815181106112a3577f4e487b7100000000000000000000000000000000000000000000000000000000600052603260045260246000fd5b602002602001018190525080806112b990611e11565b9150506111bb565b50828298509850505050505050505b94509492505050565b600080600090505b825181101561136157828181518110611323577f4e487b7100000000000000000000000000000000000000000000000000000000600052603260045260246000fd5b602001015160f81c60f81b60f81c60ff16610100836113429190611c6c565b61134c9190611c16565b9150808061135990611e11565b9150506112e1565b50919050565b600061137a61137584611b46565b611b21565b90508281526020810184848401111561139257600080fd5b61139d848285611d9e565b509392505050565b60006113b86113b384611b46565b611b21565b9050828152602081018484840111156113d057600080fd5b6113db848285611dad565b509392505050565b6000813590506113f281611ec9565b92915050565b60008151905061140781611ec9565b92915050565b60008151905061141c81611ee0565b92915050565b60008135905061143181611ef7565b92915050565b60008151905061144681611ef7565b92915050565b600082601f83011261145d57600080fd5b813561146d848260208601611367565b91505092915050565b600082601f83011261148757600080fd5b81516114978482602086016113a5565b91505092915050565b6000813590506114af81611f0e565b92915050565b6000815190506114c481611f0e565b92915050565b6000602082840312156114dc57600080fd5b60006114ea848285016113e3565b91505092915050565b60006020828403121561150557600080fd5b6000611513848285016113f8565b91505092915050565b60006020828403121561152e57600080fd5b600061153c8482850161140d565b91505092915050565b60008060006060848603121561155a57600080fd5b60006115688682870161140d565b935050602084015167ffffffffffffffff81111561158557600080fd5b61159186828701611476565b92505060406115a2868287016114b5565b9150509250925092565b600080604083850312156115bf57600080fd5b60006115cd8582860161140d565b92505060206115de858286016114b5565b9150509250929050565b6000602082840312156115fa57600080fd5b600061160884828501611422565b91505092915050565b60006020828403121561162357600080fd5b600061163184828501611437565b91505092915050565b6000806040838503121561164d57600080fd5b600061165b85828601611422565b925050602061166c858286016114a0565b9150509250929050565b6000806000806080858703121561168c57600080fd5b600061169a87828801611422565b94505060206116ab878288016114a0565b93505060406116bc878288016114a0565b92505060606116cd878288016114a0565b91505092959194509250565b6000602082840312156116eb57600080fd5b600082013567ffffffffffffffff81111561170557600080fd5b6117118482850161144c565b91505092915050565b60006020828403121561172c57600080fd5b600082015167ffffffffffffffff81111561174657600080fd5b61175284828501611476565b91505092915050565b60006020828403121561176d57600080fd5b600061177b848285016114b5565b91505092915050565b600061179083836118b0565b905092915050565b60006117a4838361194f565b60208301905092915050565b6117b981611cfa565b82525050565b60006117ca82611b97565b6117d48185611bd2565b9350836020820285016117e685611b77565b8060005b8581101561182257848403895281516118038582611784565b945061180e83611bb8565b925060208a019950506001810190506117ea565b50829750879550505050505092915050565b600061183f82611ba2565b6118498185611be3565b935061185483611b87565b8060005b8381101561188557815161186c8882611798565b975061187783611bc5565b925050600181019050611858565b5085935050505092915050565b61189b81611d0c565b82525050565b6118aa81611d18565b82525050565b60006118bb82611bad565b6118c58185611bf4565b93506118d5818560208601611dad565b6118de81611eb8565b840191505092915050565b60006118f482611bad565b6118fe8185611c05565b935061190e818560208601611dad565b61191781611eb8565b840191505092915050565b61192b81611d56565b82525050565b61193a81611d7a565b82525050565b61194981611d22565b82525050565b61195881611d4c565b82525050565b61196781611d4c565b82525050565b600060208201905061198260008301846117b0565b92915050565b600060408201905081810360008301526119a281856117bf565b905081810360208301526119b68184611834565b90509392505050565b60006020820190506119d46000830184611892565b92915050565b60006040820190506119ef6000830185611892565b6119fc602083018461195e565b9392505050565b6000602082019050611a1860008301846118a1565b92915050565b6000604082019050611a3360008301856118a1565b611a40602083018461195e565b9392505050565b60006020820190508181036000830152611a6181846118e9565b905092915050565b60006040820190508181036000830152611a8381856118e9565b9050611a92602083018461195e565b9392505050565b6000602082019050611aae6000830184611922565b92915050565b6000602082019050611ac96000830184611931565b92915050565b6000606082019050611ae46000830186611940565b611af1602083018561195e565b611afe604083018461195e565b949350505050565b6000602082019050611b1b600083018461195e565b92915050565b6000611b2b611b3c565b9050611b378282611de0565b919050565b6000604051905090565b600067ffffffffffffffff821115611b6157611b60611e89565b5b611b6a82611eb8565b9050602081019050919050565b6000819050602082019050919050565b6000819050602082019050919050565b600081519050919050565b600081519050919050565b600081519050919050565b6000602082019050919050565b6000602082019050919050565b600082825260208201905092915050565b600082825260208201905092915050565b600082825260208201905092915050565b600082825260208201905092915050565b6000611c2182611d4c565b9150611c2c83611d4c565b9250827fffffffffffffffffffffffffffffffffffffffffffffffffffffffffffffffff03821115611c6157611c60611e5a565b5b828201905092915050565b6000611c7782611d4c565b9150611c8283611d4c565b9250817fffffffffffffffffffffffffffffffffffffffffffffffffffffffffffffffff0483118215151615611cbb57611cba611e5a565b5b828202905092915050565b6000611cd182611d4c565b9150611cdc83611d4c565b925082821015611cef57611cee611e5a565b5b828203905092915050565b6000611d0582611d2c565b9050919050565b60008115159050919050565b6000819050919050565b6000819050919050565b600073ffffffffffffffffffffffffffffffffffffffff82169050919050565b6000819050919050565b6000611d6182611d68565b9050919050565b6000611d7382611d2c565b9050919050565b6000611d8582611d8c565b9050919050565b6000611d9782611d2c565b9050919050565b82818337600083830152505050565b60005b83811015611dcb578082015181840152602081019050611db0565b83811115611dda576000848401525b50505050565b611de982611eb8565b810181811067ffffffffffffffff82111715611e0857611e07611e89565b5b80604052505050565b6000611e1c82611d4c565b91507fffffffffffffffffffffffffffffffffffffffffffffffffffffffffffffffff821415611e4f57611e4e611e5a565b5b600182019050919050565b7f4e487b7100000000000000000000000000000000000000000000000000000000600052601160045260246000fd5b7f4e487b7100000000000000000000000000000000000000000000000000000000600052604160045260246000fd5b6000601f19601f8301169050919050565b611ed281611cfa565b8114611edd57600080fd5b50565b611ee981611d0c565b8114611ef457600080fd5b50565b611f0081611d18565b8114611f0b57600080fd5b50565b611f1781611d4c565b8114611f2257600080fd5b5056fea2646970667358221220e4e9ac15ea3d46fe620baddd4549940798c957c69b05376daac311576b723b8464736f6c63430008030033",
  "linkReferences": {},
  "deployedLinkReferences": {}
}