{
  "_format": "hh-sol-artifact-1",
  "contractName": "BenchUsingTellor",
  "sourceName": "contracts/mocks/BenchUsingTellor.sol",
  "abi": [
    {
      "inputs": [
        {
          "internalType": "address payable",
          "name": "_tellor",
          "type": "address"
        }
      ],
      "stateMutability": "nonpayable",
      "type": "constructor"
    },
    {
      "inputs": [
        {
          "internalType": "bytes32",
          "name": "_queryId",
          "type": "bytes32"
        },
        {
          "internalType": "uint256",
          "name": "_timestamp",
          "type": "uint256"
        }
      ],
      "name": "getDataAfter",
      "outputs": [
        {
          "internalType": "bytes",
          "name": "_value",
          "type": "bytes"
        },
        {
          "internalType": "uint256",
          "name": "_timestampRetrieved",
          "type": "uint256"
        }
      ],
      "stateMutability": "view",
      "type": "function"
    },
    {
      "inputs": [
        {
          "internalType": "bytes32",
          "name": "_queryId",
          "type": "bytes32"
        },
        {
          "internalType": "uint256",
          "name": "_timestamp",
          "type": "uint256"
        }
      ],
      "name": "getDataBefore",
      "outputs": [
        {
          "internalType": "bytes",
          "name": "_value",
          "type": "bytes"
        },
        {
          "internalType": "uint256",
          "name": "_timestampRetrieved",
          "type": "uint256"
        }
      ],
      "stateMutability": "view",
      "type": "function"
    },
    {
      "inputs": [
        {
          "internalType": "bytes32",
          "name": "_queryId",
          "type": "bytes32"
        },
        {
          "internalType": "uint256",
          "name": "_timestamp",
          "type": "uint256"
        }
      ],
      "name": "getIndexForDataAfter",
      "outputs": [
        {
          "internalType": "bool",
          "name": "_found",
          "type": "bool"
        },
        {
          "internalType": "uint256",
          "name": "_index",
          "type": "uint256"
        }
      ],
      "stateMutability": "view",
      "type": "function"
    },
    {
      "inputs": [
        {
          "internalType": "bytes32",
          "name": "_queryId",
          "type": "bytes32"
        },
        {
          "internalType": "uint256",
          "name": "_timestamp",
          "type": "uint256"
        }
      ],
      "name": "getIndexForDataBefore",
      "outputs": [
        {
          "internalType": "bool",
          "name": "_found",
          "type": "bool"
        },
        {
          "internalType": "uint256",
          "name": "_index",
          "type": "uint256"
        }
      ],
      "stateMutability": "view",
      "type": "function"
    },
    {
      "inputs": [
        {
          "internalType": "bytes32",
          "name": "_queryId",
          "type": "bytes32"
        },
        {
          "internalType": "uint256",
          "name": "_timestamp",
          "type": "uint256"
        },
        {
          "internalType": "uint256",
          "name": "_maxAge",
          "type": "uint256"
        },
        {
          "internalType": "uint256",
          "name": "_maxCount",
          "type": "uint256"
        }
      ],
      "name": "getMultipleValuesBefore",
      "outputs": [
        {
          "internalType": "bytes[]",
          "name": "_values",
          "type": "bytes[]"
        },
        {
          "internalType": "uint256[]",
          "name": "_timestamps",
          "type": "uint256[]"
        }
      ],
      "stateMutability": "view",
      "type": "function"
    },
    {
      "inputs": [
        {
          "internalType": "bytes32",
          "name": "_queryId",
          "type": "bytes32"
        }
      ],
      "name": "getNewValueCountbyQueryId",
      "outputs": [
        {
          "internalType": "uint256",
          "name": "",
          "type": "uint256"
        }
      ],
      "stateMutability": "view",
      "type": "function"
    },
    {
      "inputs": [
        {
          "internalType": "bytes32",
          "name": "_queryId",
          "type": "bytes32"
        },
        {
          "internalType": "uint256",
          "name": "_timestamp",
          "type": "uint256"
        }
      ],
      "name": "getReporterByTimestamp",
      "outputs": [
        {
          "internalType": "address",
          "name": "",
          "type": "address"
        }
      ],
      "stateMutability": "view",
      "type": "function"
    },
    {
      "inputs": [
        {
          "internalType": "bytes32",
          "name": "_queryId",
          "type": "bytes32"
        },
        {
          "internalType": "uint256",
          "name": "_index",
          "type": "uint256"
        }
      ],
      "name": "getTimestampbyQueryIdandIndex",
      "outputs": [
        {
          "internalType": "uint256",
          "name": "",
          "type": "uint256"
        }
      ],
      "stateMutability": "view",
      "type": "function"
    },
    {
      "inputs": [],
      "name": "idMappingContract",
      "outputs": [
        {
          "internalType": "contract IMappingContract",
          "name": "",
          "type": "address"
        }
      ],
      "stateMutability": "view",
      "type": "function"
    },
    {
      "inputs": [
        {
          "internalType": "bytes32",
          "name": "_queryId",
          "type": "bytes32"
        },
        {
          "internalType": "uint256",
          "name": "_timestamp",
          "type": "uint256"
        }
      ],
      "name": "isInDispute",
      "outputs": [
        {
          "internalType": "bool",
          "name": "",
          "type": "bool"
        }
      ],
      "stateMutability": "view",
      "type": "function"
    },
    {
      "inputs": [
        {
          "internalType": "bytes32",
          "name": "_queryId",
          "type": "bytes32"
        },
        {
          "internalType": "uint256",
          "name": "_timestamp",
          "type": "uint256"
        }
      ],
      "name": "retrieveData",
      "outputs": [
        {
          "internalType": "bytes",
          "name": "",
          "type": "bytes"
        }
      ],
      "stateMutability": "view",
      "type": "function"
    },
    {
      "inputs": [
        {
          "internalType": "address",
          "name": "_addy",
          "type": "address"
        }
      ],
      "name": "setIdMappingContract",
      "outputs": [],
      "stateMutability": "nonpayable",
      "type": "function"
    },
    {
      "inputs": [
        {
          "internalType": "bytes",
          "name": "_b",
          "type": "bytes"
        }
      ],
      "name": "sliceUint",
      "outputs": [
        {
          "internalType": "uint256",
          "name": "",
          "type": "uint256"
        }
      ],
      "stateMutability": "pure",
      "type": "function"
    },
    {
      "inputs": [],
      "name": "tellor",
      "outputs": [
        {
          "internalType": "contract ITellor",
          "name": "",
          "type": "address"
        }
      ],
      "stateMutability": "view",
      "type": "function"
    },
    {
      "inputs": [
        {
          "internalType": "bytes32",
          "name": "_id",
          "type": "bytes32"
        }
      ],
      "name": "valueFor",
      "outputs": [
        {
          "internalType": "int256",
          "name": "_value",
          "type": "int256"
        },
        {
          "internalType": "uint256",
          "name": "_timestamp",
          "type": "uint256"
        },
        {
          "internalType": "uint256",
          "name": "_statusCode",
          "type": "uint256"
        }
      ],
      "stateMutability": "view",
      "type": "function"
    }
  ],
  "bytecode": "0x60806040523480156200001157600080fd5b5060405162001fbe38038062001fbe833981810160405281019062000037919062000097565b80806000806101000a81548173ffffffffffffffffffffffffffffffffffffffff021916908373ffffffffffffffffffffffffffffffffffffffff160217905550505062000111565b6000815190506200009181620000f7565b92915050565b600060208284031215620000aa57600080fd5b6000620000ba8482850162000080565b91505092915050565b6000620000d082620000d7565b9050919050565b600073ffffffffffffffffffffffffffffffffffffffff82169050919050565b6200010281620000c3565b81146200010e57600080fd5b50565b611e9d80620001216000396000f3fe608060405234801561001057600080fd5b50600436106100f55760003560e01c806377b03e0d11610097578063e07c548611610066578063e07c5486146102d5578063f66f49c314610305578063f78eea8314610336578063fcd4a54614610368576100f5565b806377b03e0d14610214578063a792765f14610244578063c5958af914610275578063ce5e11bf146102a5576100f5565b80632af8aae0116100d35780632af8aae01461016557806344e87f91146101835780634c8a78e8146101b357806364ee3c6d146101e3576100f5565b8063193b505b146100fa5780631959ad5b146101165780632944908514610134575b600080fd5b610114600480360381019061010f9190611382565b610399565b005b61011e610438565b60405161012b919061196c565b60405180910390f35b61014e600480360381019061014991906114f2565b61045c565b60405161015c929190611892565b60405180910390f35b61016d610514565b60405161017a9190611951565b60405180910390f35b61019d600480360381019061019891906114f2565b61053a565b6040516101aa9190611877565b60405180910390f35b6101cd60048036038101906101c89190611591565b6105f0565b6040516101da91906119be565b60405180910390f35b6101fd60048036038101906101f891906114f2565b610602565b60405161020b929190611921565b60405180910390f35b61022e600480360381019061022991906114a0565b61065c565b60405161023b91906119be565b60405180910390f35b61025e600480360381019061025991906114f2565b61070f565b60405161026c929190611921565b60405180910390f35b61028f600480360381019061028a91906114f2565b6107d6565b60405161029c91906118ff565b60405180910390f35b6102bf60048036038101906102ba91906114f2565b610890565b6040516102cc91906119be565b60405180910390f35b6102ef60048036038101906102ea91906114f2565b610946565b6040516102fc9190611825565b60405180910390f35b61031f600480360381019061031a91906114f2565b6109fc565b60405161032d929190611892565b60405180910390f35b610350600480360381019061034b91906114a0565b610be1565b60405161035f93929190611987565b60405180910390f35b610382600480360381019061037d919061152e565b610d23565b604051610390929190611840565b60405180910390f35b600073ffffffffffffffffffffffffffffffffffffffff16600160009054906101000a900473ffffffffffffffffffffffffffffffffffffffff1673ffffffffffffffffffffffffffffffffffffffff16146103f457600080fd5b80600160006101000a81548173ffffffffffffffffffffffffffffffffffffffff021916908373ffffffffffffffffffffffffffffffffffffffff16021790555050565b60008054906101000a900473ffffffffffffffffffffffffffffffffffffffff1681565b60008060008054906101000a900473ffffffffffffffffffffffffffffffffffffffff1673ffffffffffffffffffffffffffffffffffffffff16632944908585856040518363ffffffff1660e01b81526004016104ba9291906118d6565b604080518083038186803b1580156104d157600080fd5b505afa1580156104e5573d6000803e3d6000fd5b505050506040513d601f19601f820116820180604052508101906105099190611464565b915091509250929050565b600160009054906101000a900473ffffffffffffffffffffffffffffffffffffffff1681565b60008060009054906101000a900473ffffffffffffffffffffffffffffffffffffffff1673ffffffffffffffffffffffffffffffffffffffff166344e87f9184846040518363ffffffff1660e01b81526004016105989291906118d6565b60206040518083038186803b1580156105b057600080fd5b505afa1580156105c4573d6000803e3d6000fd5b505050506040513d601f19601f820116820180604052508101906105e891906113d4565b905092915050565b60006105fb82611191565b9050919050565b6060600080600061061386866109fc565b915091508161063a5760006040518060200160405280600081525090935093505050610655565b6106448682610890565b925061065086846107d6565b935050505b9250929050565b60008060009054906101000a900473ffffffffffffffffffffffffffffffffffffffff1673ffffffffffffffffffffffffffffffffffffffff166377b03e0d836040518263ffffffff1660e01b81526004016106b891906118bb565b60206040518083038186803b1580156106d057600080fd5b505afa1580156106e4573d6000803e3d6000fd5b505050506040513d601f19601f820116820180604052508101906107089190611613565b9050919050565b606060008060009054906101000a900473ffffffffffffffffffffffffffffffffffffffff1673ffffffffffffffffffffffffffffffffffffffff1663a792765f85856040518363ffffffff1660e01b815260040161076f9291906118d6565b60006040518083038186803b15801561078757600080fd5b505afa15801561079b573d6000803e3d6000fd5b505050506040513d6000823e3d601f19601f820116820180604052508101906107c491906113fd565b90915080925081935050509250929050565b606060008054906101000a900473ffffffffffffffffffffffffffffffffffffffff1673ffffffffffffffffffffffffffffffffffffffff1663c5958af984846040518363ffffffff1660e01b81526004016108339291906118d6565b60006040518083038186803b15801561084b57600080fd5b505afa15801561085f573d6000803e3d6000fd5b505050506040513d6000823e3d601f19601f8201168201806040525081019061088891906115d2565b905092915050565b60008060009054906101000a900473ffffffffffffffffffffffffffffffffffffffff1673ffffffffffffffffffffffffffffffffffffffff1663ce5e11bf84846040518363ffffffff1660e01b81526004016108ee9291906118d6565b60206040518083038186803b15801561090657600080fd5b505afa15801561091a573d6000803e3d6000fd5b505050506040513d601f19601f8201168201806040525081019061093e9190611613565b905092915050565b60008060009054906101000a900473ffffffffffffffffffffffffffffffffffffffff1673ffffffffffffffffffffffffffffffffffffffff1663e07c548684846040518363ffffffff1660e01b81526004016109a49291906118d6565b60206040518083038186803b1580156109bc57600080fd5b505afa1580156109d0573d6000803e3d6000fd5b505050506040513d601f19601f820116820180604052508101906109f491906113ab565b905092915050565b6000806000610a0a8561065c565b90506000811415610a22576000809250925050610bda565b8080610a2d90611cc9565b91505060006001905060008060008490506000610a4a8a83610890565b9050888111610a655760008097509750505050505050610bda565b610a6f8a84610890565b905088811115610a7e57600094505b5b8415610b465760028383610a939190611ace565b610a9d9190611b24565b9350610aa98a85610890565b905088811115610af3576000610acb8b600187610ac69190611baf565b610890565b9050898111610add5760009550610aed565b600185610aea9190611baf565b92505b50610b41565b6000610b0b8b600187610b069190611ace565b610890565b905089811115610b2f57600095508480610b2490611d24565b955050809150610b3f565b600185610b3c9190611ace565b93505b505b610a7f565b610b508a8261053a565b610b665760018497509750505050505050610bda565b5b610b718a8261053a565b8015610b7c57508584105b15610ba0578380610b8c90611d24565b945050610b998a85610890565b9050610b67565b8584148015610bb55750610bb48a8261053a565b5b15610bcc5760008097509750505050505050610bda565b600184975097505050505050505b9250929050565b6000806000600160009054906101000a900473ffffffffffffffffffffffffffffffffffffffff1673ffffffffffffffffffffffffffffffffffffffff166387a475fd856040518263ffffffff1660e01b8152600401610c4191906118bb565b60206040518083038186803b158015610c5957600080fd5b505afa158015610c6d573d6000803e3d6000fd5b505050506040513d601f19601f82011682018060405250810190610c9191906114c9565b93506000610c9e8561065c565b90506000811415610cbb5760008061019493509350935050610d1c565b610cd185600183610ccc9190611baf565b610890565b92506000610cdf86856107d6565b9050600081511415610cfe576000806101949450945094505050610d1c565b6000610d0982611191565b9050809550858560c89550955095505050505b9193909250565b606080600080610d3e888789610d399190611baf565b6109fc565b9150915081610e3757600067ffffffffffffffff811115610d88577f4e487b7100000000000000000000000000000000000000000000000000000000600052604160045260246000fd5b604051908082528060200260200182016040528015610dbb57816020015b6060815260200190600190039081610da65790505b50600067ffffffffffffffff811115610dfd577f4e487b7100000000000000000000000000000000000000000000000000000000600052604160045260246000fd5b604051908082528060200260200182016040528015610e2b5781602001602082028036833780820191505090505b50935093505050611188565b6000610e43898961045c565b809250819450505082610f4157600067ffffffffffffffff811115610e91577f4e487b7100000000000000000000000000000000000000000000000000000000600052604160045260246000fd5b604051908082528060200260200182016040528015610ec457816020015b6060815260200190600190039081610eaf5790505b50600067ffffffffffffffff811115610f06577f4e487b7100000000000000000000000000000000000000000000000000000000600052604160045260246000fd5b604051908082528060200260200182016040528015610f345781602001602082028036833780820191505090505b5094509450505050611188565b600060018383610f519190611baf565b610f5b9190611ace565b905086811115610f835760018783610f739190611baf565b610f7d9190611ace565b92508690505b60008167ffffffffffffffff811115610fc5577f4e487b7100000000000000000000000000000000000000000000000000000000600052604160045260246000fd5b604051908082528060200260200182016040528015610ff857816020015b6060815260200190600190039081610fe35790505b50905060008267ffffffffffffffff81111561103d577f4e487b7100000000000000000000000000000000000000000000000000000000600052604160045260246000fd5b60405190808252806020026020018201604052801561106b5781602001602082028036833780820191505090505b509050606060005b84811015611179576110908e828961108b9190611ace565b610890565b8382815181106110c9577f4e487b7100000000000000000000000000000000000000000000000000000000600052603260045260246000fd5b60200260200101818152505061111f8e848381518110611112577f4e487b7100000000000000000000000000000000000000000000000000000000600052603260045260246000fd5b60200260200101516107d6565b91508184828151811061115b577f4e487b7100000000000000000000000000000000000000000000000000000000600052603260045260246000fd5b6020026020010181905250808061117190611d24565b915050611073565b50828298509850505050505050505b94509492505050565b600080600090505b8251811015611219578281815181106111db577f4e487b7100000000000000000000000000000000000000000000000000000000600052603260045260246000fd5b602001015160f81c60f81b60f81c60ff16610100836111fa9190611b55565b6112049190611ace565b9150808061121190611d24565b915050611199565b50919050565b600061123261122d846119fe565b6119d9565b90508281526020810184848401111561124a57600080fd5b611255848285611c87565b509392505050565b600061127061126b846119fe565b6119d9565b90508281526020810184848401111561128857600080fd5b611293848285611c96565b509392505050565b6000813590506112aa81611e0b565b92915050565b6000815190506112bf81611e0b565b92915050565b6000815190506112d481611e22565b92915050565b6000813590506112e981611e39565b92915050565b6000815190506112fe81611e39565b92915050565b600082601f83011261131557600080fd5b813561132584826020860161121f565b91505092915050565b600082601f83011261133f57600080fd5b815161134f84826020860161125d565b91505092915050565b60008135905061136781611e50565b92915050565b60008151905061137c81611e50565b92915050565b60006020828403121561139457600080fd5b60006113a28482850161129b565b91505092915050565b6000602082840312156113bd57600080fd5b60006113cb848285016112b0565b91505092915050565b6000602082840312156113e657600080fd5b60006113f4848285016112c5565b91505092915050565b60008060006060848603121561141257600080fd5b6000611420868287016112c5565b935050602084015167ffffffffffffffff81111561143d57600080fd5b6114498682870161132e565b925050604061145a8682870161136d565b9150509250925092565b6000806040838503121561147757600080fd5b6000611485858286016112c5565b92505060206114968582860161136d565b9150509250929050565b6000602082840312156114b257600080fd5b60006114c0848285016112da565b91505092915050565b6000602082840312156114db57600080fd5b60006114e9848285016112ef565b91505092915050565b6000806040838503121561150557600080fd5b6000611513858286016112da565b925050602061152485828601611358565b9150509250929050565b6000806000806080858703121561154457600080fd5b6000611552878288016112da565b945050602061156387828801611358565b935050604061157487828801611358565b925050606061158587828801611358565b91505092959194509250565b6000602082840312156115a357600080fd5b600082013567ffffffffffffffff8111156115bd57600080fd5b6115c984828501611304565b91505092915050565b6000602082840312156115e457600080fd5b600082015167ffffffffffffffff8111156115fe57600080fd5b61160a8482850161132e565b91505092915050565b60006020828403121561162557600080fd5b60006116338482850161136d565b91505092915050565b60006116488383611768565b905092915050565b600061165c8383611807565b60208301905092915050565b61167181611be3565b82525050565b600061168282611a4f565b61168c8185611a8a565b93508360208202850161169e85611a2f565b8060005b858110156116da57848403895281516116bb858261163c565b94506116c683611a70565b925060208a019950506001810190506116a2565b50829750879550505050505092915050565b60006116f782611a5a565b6117018185611a9b565b935061170c83611a3f565b8060005b8381101561173d5781516117248882611650565b975061172f83611a7d565b925050600181019050611710565b5085935050505092915050565b61175381611bf5565b82525050565b61176281611c01565b82525050565b600061177382611a65565b61177d8185611aac565b935061178d818560208601611c96565b61179681611dfa565b840191505092915050565b60006117ac82611a65565b6117b68185611abd565b93506117c6818560208601611c96565b6117cf81611dfa565b840191505092915050565b6117e381611c3f565b82525050565b6117f281611c63565b82525050565b61180181611c0b565b82525050565b61181081611c35565b82525050565b61181f81611c35565b82525050565b600060208201905061183a6000830184611668565b92915050565b6000604082019050818103600083015261185a8185611677565b9050818103602083015261186e81846116ec565b90509392505050565b600060208201905061188c600083018461174a565b92915050565b60006040820190506118a7600083018561174a565b6118b46020830184611816565b9392505050565b60006020820190506118d06000830184611759565b92915050565b60006040820190506118eb6000830185611759565b6118f86020830184611816565b9392505050565b6000602082019050818103600083015261191981846117a1565b905092915050565b6000604082019050818103600083015261193b81856117a1565b905061194a6020830184611816565b9392505050565b600060208201905061196660008301846117da565b92915050565b600060208201905061198160008301846117e9565b92915050565b600060608201905061199c60008301866117f8565b6119a96020830185611816565b6119b66040830184611816565b949350505050565b60006020820190506119d36000830184611816565b92915050565b60006119e36119f4565b90506119ef8282611cf3565b919050565b6000604051905090565b600067ffffffffffffffff821115611a1957611a18611dcb565b5b611a2282611dfa565b9050602081019050919050565b6000819050602082019050919050565b6000819050602082019050919050565b600081519050919050565b600081519050919050565b600081519050919050565b6000602082019050919050565b6000602082019050919050565b600082825260208201905092915050565b600082825260208201905092915050565b600082825260208201905092915050565b600082825260208201905092915050565b6000611ad982611c35565b9150611ae483611c35565b9250827fffffffffffffffffffffffffffffffffffffffffffffffffffffffffffffffff03821115611b1957611b18611d6d565b5b828201905092915050565b6000611b2f82611c35565b9150611b3a83611c35565b925082611b4a57611b49611d9c565b5b828204905092915050565b6000611b6082611c35565b9150611b6b83611c35565b9250817fffffffffffffffffffffffffffffffffffffffffffffffffffffffffffffffff0483118215151615611ba457611ba3611d6d565b5b828202905092915050565b6000611bba82611c35565b9150611bc583611c35565b925082821015611bd857611bd7611d6d565b5b828203905092915050565b6000611bee82611c15565b9050919050565b60008115159050919050565b6000819050919050565b6000819050919050565b600073ffffffffffffffffffffffffffffffffffffffff82169050919050565b6000819050919050565b6000611c4a82611c51565b9050919050565b6000611c5c82611c15565b9050919050565b6000611c6e82611c75565b9050919050565b6000611c8082611c15565b9050919050565b82818337600083830152505050565b60005b83811015611cb4578082015181840152602081019050611c99565b83811115611cc3576000848401525b50505050565b6000611cd482611c35565b91506000821415611ce857611ce7611d6d565b5b600182039050919050565b611cfc82611dfa565b810181811067ffffffffffffffff82111715611d1b57611d1a611dcb565b5b80604052505050565b6000611d2f82611c35565b91507fffffffffffffffffffffffffffffffffffffffffffffffffffffffffffffffff821415611d6257611d61611d6d565b5b600182019050919050565b7f4e487b7100000000000000000000000000000000000000000000000000000000600052601160045260246000fd5b7f4e487b7100000000000000000000000000000000000000000000000000000000600052601260045260246000fd5b7f4e487b7100000000000000000000000000000000000000000000000000000000600052604160045260246000fd5b6000601f19601f8301169050919050565b611e1481611be3565b8114611e1f57600080fd5b50565b611e2b81611bf5565b8114611e3657600080fd5b50565b611e4281611c01565b8114611e4d57600080fd5b50565b611e5981611c35565b8114611e6457600080fd5b5056fea26469706673582212202065686b0f2c07ec9e0867378280fd20d1546cc90acc705037179ed4fd436cfd64736f6c63430008030033",
  "linkReferences": {},
  "deployedLinkReferences": {}
}