{
  "_format": "hh-sol-artifact-1",
  "contractName": "TellorPlayground",
  "sourceName": "contracts/TellorPlayground.sol",
  "abi": [
    {
      "inputs": [],
      "stateMutability": "nonpayable",
      "type": "constructor"
    },
    {
      "anonymous": false,
      "inputs": [
        {
          "indexed": true,
          "internalType": "address",
          "name": "owner",
          "type": "address"
        },
        {
          "indexed": true,
          "internalType": "address",
          "name": "spender",
          "type": "address"
        },
        {
          "indexed": false,
          "internalType": "uint256",
          "name": "value",
          "type": "uint256"
        }
      ],
      "name": "Approval",
      "type": "event"
    },
    {
      "anonymous": false,
      "inputs": [
        {
          "indexed": false,
          "internalType": "bytes32",
          "name": "_queryId",
          "type": "bytes32"
        },
        {
          "indexed": false,
          "internalType": "uint256",
          "name": "_time",
          "type": "uint256"
        },
        {
          "indexed": false,
          "internalType": "bytes",
          "name": "_value",
          "type": "bytes"
        },
        {
          "indexed": false,
          "internalType": "uint256",
          "name": "_nonce",
          "type": "uint256"
        },
        {
          "indexed": false,
          "internalType": "bytes",
          "name": "_queryData",
          "type": "bytes"
        },
        {
          "indexed": false,
          "internalType": "address",
          "name": "_reporter",
          "type": "address"
        }
      ],
      "name": "NewReport",
      "type": "event"
    },
    {
      "anonymous": false,
      "inputs": [
        {
          "indexed": false,
          "internalType": "address",
          "name": "_staker",
          "type": "address"
        },
        {
          "indexed": false,
          "internalType": "uint256",
          "name": "_amount",
          "type": "uint256"
        }
      ],
      "name": "NewStaker",
      "type": "event"
    },
    {
      "anonymous": false,
      "inputs": [
        {
          "indexed": false,
          "internalType": "address",
          "name": "_staker",
          "type": "address"
        },
        {
          "indexed": false,
          "internalType": "uint256",
          "name": "_amount",
          "type": "uint256"
        }
      ],
      "name": "StakeWithdrawRequested",
      "type": "event"
    },
    {
      "anonymous": false,
      "inputs": [
        {
          "indexed": false,
          "internalType": "address",
          "name": "_staker",
          "type": "address"
        }
      ],
      "name": "StakeWithdrawn",
      "type": "event"
    },
    {
      "anonymous": false,
      "inputs": [
        {
          "indexed": true,
          "internalType": "address",
          "name": "from",
          "type": "address"
        },
        {
          "indexed": true,
          "internalType": "address",
          "name": "to",
          "type": "address"
        },
        {
          "indexed": false,
          "internalType": "uint256",
          "name": "value",
          "type": "uint256"
        }
      ],
      "name": "Transfer",
      "type": "event"
    },
    {
      "inputs": [
        {
          "internalType": "uint256",
          "name": "_amount",
          "type": "uint256"
        }
      ],
      "name": "addStakingRewards",
      "outputs": [],
      "stateMutability": "nonpayable",
      "type": "function"
    },
    {
      "inputs": [
        {
          "internalType": "address",
          "name": "_owner",
          "type": "address"
        },
        {
          "internalType": "address",
          "name": "_spender",
          "type": "address"
        }
      ],
      "name": "allowance",
      "outputs": [
        {
          "internalType": "uint256",
          "name": "",
          "type": "uint256"
        }
      ],
      "stateMutability": "view",
      "type": "function"
    },
    {
      "inputs": [
        {
          "internalType": "address",
          "name": "_spender",
          "type": "address"
        },
        {
          "internalType": "uint256",
          "name": "_amount",
          "type": "uint256"
        }
      ],
      "name": "approve",
      "outputs": [
        {
          "internalType": "bool",
          "name": "",
          "type": "bool"
        }
      ],
      "stateMutability": "nonpayable",
      "type": "function"
    },
    {
      "inputs": [
        {
          "internalType": "address",
          "name": "_account",
          "type": "address"
        }
      ],
      "name": "balanceOf",
      "outputs": [
        {
          "internalType": "uint256",
          "name": "",
          "type": "uint256"
        }
      ],
      "stateMutability": "view",
      "type": "function"
    },
    {
      "inputs": [
        {
          "internalType": "bytes32",
          "name": "_queryId",
          "type": "bytes32"
        },
        {
          "internalType": "uint256",
          "name": "_timestamp",
          "type": "uint256"
        }
      ],
      "name": "beginDispute",
      "outputs": [],
      "stateMutability": "nonpayable",
      "type": "function"
    },
    {
      "inputs": [],
      "name": "decimals",
      "outputs": [
        {
          "internalType": "uint8",
          "name": "",
          "type": "uint8"
        }
      ],
      "stateMutability": "view",
      "type": "function"
    },
    {
      "inputs": [
        {
          "internalType": "uint256",
          "name": "_amount",
          "type": "uint256"
        }
      ],
      "name": "depositStake",
      "outputs": [],
      "stateMutability": "nonpayable",
      "type": "function"
    },
    {
      "inputs": [
        {
          "internalType": "address",
          "name": "_user",
          "type": "address"
        }
      ],
      "name": "faucet",
      "outputs": [],
      "stateMutability": "nonpayable",
      "type": "function"
    },
    {
      "inputs": [
        {
          "internalType": "bytes32",
          "name": "_queryId",
          "type": "bytes32"
        },
        {
          "internalType": "uint256",
          "name": "_timestamp",
          "type": "uint256"
        }
      ],
      "name": "getDataBefore",
      "outputs": [
        {
          "internalType": "bool",
          "name": "_ifRetrieve",
          "type": "bool"
        },
        {
          "internalType": "bytes",
          "name": "_value",
          "type": "bytes"
        },
        {
          "internalType": "uint256",
          "name": "_timestampRetrieved",
          "type": "uint256"
        }
      ],
      "stateMutability": "view",
      "type": "function"
    },
    {
      "inputs": [
        {
          "internalType": "bytes32",
          "name": "_queryId",
          "type": "bytes32"
        },
        {
          "internalType": "uint256",
          "name": "_timestamp",
          "type": "uint256"
        }
      ],
      "name": "getGasUsedByReport",
      "outputs": [
        {
          "internalType": "uint256",
          "name": "",
          "type": "uint256"
        }
      ],
      "stateMutability": "view",
      "type": "function"
    },
    {
      "inputs": [
        {
          "internalType": "bytes32",
          "name": "_queryId",
          "type": "bytes32"
        },
        {
          "internalType": "uint256",
          "name": "_timestamp",
          "type": "uint256"
        }
      ],
      "name": "getIndexForDataBefore",
      "outputs": [
        {
          "internalType": "bool",
          "name": "_found",
          "type": "bool"
        },
        {
          "internalType": "uint256",
          "name": "_index",
          "type": "uint256"
        }
      ],
      "stateMutability": "view",
      "type": "function"
    },
    {
      "inputs": [
        {
          "internalType": "bytes32",
          "name": "_queryId",
          "type": "bytes32"
        }
      ],
      "name": "getNewValueCountbyQueryId",
      "outputs": [
        {
          "internalType": "uint256",
          "name": "",
          "type": "uint256"
        }
      ],
      "stateMutability": "view",
      "type": "function"
    },
    {
      "inputs": [
        {
          "internalType": "bytes32",
          "name": "_queryId",
          "type": "bytes32"
        },
        {
          "internalType": "uint256",
          "name": "_timestamp",
          "type": "uint256"
        }
      ],
      "name": "getReporterByTimestamp",
      "outputs": [
        {
          "internalType": "address",
          "name": "",
          "type": "address"
        }
      ],
      "stateMutability": "view",
      "type": "function"
    },
    {
      "inputs": [],
      "name": "getStakeAmount",
      "outputs": [
        {
          "internalType": "uint256",
          "name": "",
          "type": "uint256"
        }
      ],
      "stateMutability": "view",
      "type": "function"
    },
    {
      "inputs": [
        {
          "internalType": "address",
          "name": "_stakerAddress",
          "type": "address"
        }
      ],
      "name": "getStakerInfo",
      "outputs": [
        {
          "internalType": "uint256",
          "name": "",
          "type": "uint256"
        },
        {
          "internalType": "uint256",
          "name": "",
          "type": "uint256"
        },
        {
          "internalType": "uint256",
          "name": "",
          "type": "uint256"
        },
        {
          "internalType": "uint256",
          "name": "",
          "type": "uint256"
        },
        {
          "internalType": "uint256",
          "name": "",
          "type": "uint256"
        },
        {
          "internalType": "uint256",
          "name": "",
          "type": "uint256"
        },
        {
          "internalType": "uint256",
          "name": "",
          "type": "uint256"
        },
        {
          "internalType": "uint256",
          "name": "",
          "type": "uint256"
        },
        {
          "internalType": "bool",
          "name": "",
          "type": "bool"
        }
      ],
      "stateMutability": "view",
      "type": "function"
    },
    {
      "inputs": [
        {
          "internalType": "bytes32",
          "name": "_queryId",
          "type": "bytes32"
        },
        {
          "internalType": "uint256",
          "name": "_index",
          "type": "uint256"
        }
      ],
      "name": "getTimestampbyQueryIdandIndex",
      "outputs": [
        {
          "internalType": "uint256",
          "name": "",
          "type": "uint256"
        }
      ],
      "stateMutability": "view",
      "type": "function"
    },
    {
      "inputs": [
        {
          "internalType": "bytes32",
          "name": "_hash",
          "type": "bytes32"
        }
      ],
      "name": "getVoteRounds",
      "outputs": [
        {
          "internalType": "uint256[]",
          "name": "",
          "type": "uint256[]"
        }
      ],
      "stateMutability": "view",
      "type": "function"
    },
    {
      "inputs": [],
      "name": "governance",
      "outputs": [
        {
          "internalType": "address",
          "name": "",
          "type": "address"
        }
      ],
      "stateMutability": "view",
      "type": "function"
    },
    {
      "inputs": [
        {
          "internalType": "bytes32",
          "name": "",
          "type": "bytes32"
        },
        {
          "internalType": "uint256",
          "name": "",
          "type": "uint256"
        }
      ],
      "name": "isDisputed",
      "outputs": [
        {
          "internalType": "bool",
          "name": "",
          "type": "bool"
        }
      ],
      "stateMutability": "view",
      "type": "function"
    },
    {
      "inputs": [
        {
          "internalType": "bytes32",
          "name": "_queryId",
          "type": "bytes32"
        },
        {
          "internalType": "uint256",
          "name": "_timestamp",
          "type": "uint256"
        }
      ],
      "name": "isInDispute",
      "outputs": [
        {
          "internalType": "bool",
          "name": "",
          "type": "bool"
        }
      ],
      "stateMutability": "view",
      "type": "function"
    },
    {
      "inputs": [],
      "name": "name",
      "outputs": [
        {
          "internalType": "string",
          "name": "",
          "type": "string"
        }
      ],
      "stateMutability": "view",
      "type": "function"
    },
    {
      "inputs": [
        {
          "internalType": "bytes32",
          "name": "",
          "type": "bytes32"
        },
        {
          "internalType": "uint256",
          "name": "",
          "type": "uint256"
        }
      ],
      "name": "reporterByTimestamp",
      "outputs": [
        {
          "internalType": "address",
          "name": "",
          "type": "address"
        }
      ],
      "stateMutability": "view",
      "type": "function"
    },
    {
      "inputs": [
        {
          "internalType": "uint256",
          "name": "_amount",
          "type": "uint256"
        }
      ],
      "name": "requestStakingWithdraw",
      "outputs": [],
      "stateMutability": "nonpayable",
      "type": "function"
    },
    {
      "inputs": [
        {
          "internalType": "bytes32",
          "name": "_queryId",
          "type": "bytes32"
        },
        {
          "internalType": "uint256",
          "name": "_timestamp",
          "type": "uint256"
        }
      ],
      "name": "retrieveData",
      "outputs": [
        {
          "internalType": "bytes",
          "name": "",
          "type": "bytes"
        }
      ],
      "stateMutability": "view",
      "type": "function"
    },
    {
      "inputs": [],
      "name": "stakeAmount",
      "outputs": [
        {
          "internalType": "uint256",
          "name": "",
          "type": "uint256"
        }
      ],
      "stateMutability": "view",
      "type": "function"
    },
    {
      "inputs": [
        {
          "internalType": "bytes32",
          "name": "_queryId",
          "type": "bytes32"
        },
        {
          "internalType": "bytes",
          "name": "_value",
          "type": "bytes"
        },
        {
          "internalType": "uint256",
          "name": "_nonce",
          "type": "uint256"
        },
        {
          "internalType": "bytes",
          "name": "_queryData",
          "type": "bytes"
        }
      ],
      "name": "submitValue",
      "outputs": [],
      "stateMutability": "nonpayable",
      "type": "function"
    },
    {
      "inputs": [],
      "name": "symbol",
      "outputs": [
        {
          "internalType": "string",
          "name": "",
          "type": "string"
        }
      ],
      "stateMutability": "view",
      "type": "function"
    },
    {
      "inputs": [],
      "name": "timeBasedReward",
      "outputs": [
        {
          "internalType": "uint256",
          "name": "",
          "type": "uint256"
        }
      ],
      "stateMutability": "view",
      "type": "function"
    },
    {
      "inputs": [
        {
          "internalType": "bytes32",
          "name": "",
          "type": "bytes32"
        },
        {
          "internalType": "uint256",
          "name": "",
          "type": "uint256"
        }
      ],
      "name": "timestamps",
      "outputs": [
        {
          "internalType": "uint256",
          "name": "",
          "type": "uint256"
        }
      ],
      "stateMutability": "view",
      "type": "function"
    },
    {
      "inputs": [
        {
          "internalType": "bytes32",
          "name": "",
          "type": "bytes32"
        }
      ],
      "name": "tips",
      "outputs": [
        {
          "internalType": "uint256",
          "name": "",
          "type": "uint256"
        }
      ],
      "stateMutability": "view",
      "type": "function"
    },
    {
      "inputs": [],
      "name": "tipsInContract",
      "outputs": [
        {
          "internalType": "uint256",
          "name": "",
          "type": "uint256"
        }
      ],
      "stateMutability": "view",
      "type": "function"
    },
    {
      "inputs": [],
      "name": "token",
      "outputs": [
        {
          "internalType": "address",
          "name": "",
          "type": "address"
        }
      ],
      "stateMutability": "view",
      "type": "function"
    },
    {
      "inputs": [],
      "name": "totalSupply",
      "outputs": [
        {
          "internalType": "uint256",
          "name": "",
          "type": "uint256"
        }
      ],
      "stateMutability": "view",
      "type": "function"
    },
    {
      "inputs": [
        {
          "internalType": "address",
          "name": "_recipient",
          "type": "address"
        },
        {
          "internalType": "uint256",
          "name": "_amount",
          "type": "uint256"
        }
      ],
      "name": "transfer",
      "outputs": [
        {
          "internalType": "bool",
          "name": "",
          "type": "bool"
        }
      ],
      "stateMutability": "nonpayable",
      "type": "function"
    },
    {
      "inputs": [
        {
          "internalType": "address",
          "name": "_sender",
          "type": "address"
        },
        {
          "internalType": "address",
          "name": "_recipient",
          "type": "address"
        },
        {
          "internalType": "uint256",
          "name": "_amount",
          "type": "uint256"
        }
      ],
      "name": "transferFrom",
      "outputs": [
        {
          "internalType": "bool",
          "name": "",
          "type": "bool"
        }
      ],
      "stateMutability": "nonpayable",
      "type": "function"
    },
    {
      "inputs": [
        {
          "internalType": "bytes32",
          "name": "",
          "type": "bytes32"
        },
        {
          "internalType": "uint256",
          "name": "",
          "type": "uint256"
        }
      ],
      "name": "values",
      "outputs": [
        {
          "internalType": "bytes",
          "name": "",
          "type": "bytes"
        }
      ],
      "stateMutability": "view",
      "type": "function"
    },
    {
      "inputs": [],
      "name": "voteCount",
      "outputs": [
        {
          "internalType": "uint256",
          "name": "",
          "type": "uint256"
        }
      ],
      "stateMutability": "view",
      "type": "function"
    },
    {
      "inputs": [
        {
          "internalType": "bytes32",
          "name": "",
          "type": "bytes32"
        },
        {
          "internalType": "uint256",
          "name": "",
          "type": "uint256"
        }
      ],
      "name": "voteRounds",
      "outputs": [
        {
          "internalType": "uint256",
          "name": "",
          "type": "uint256"
        }
      ],
      "stateMutability": "view",
      "type": "function"
    },
    {
      "inputs": [],
      "name": "withdrawStake",
      "outputs": [],
      "stateMutability": "nonpayable",
      "type": "function"
    }
  ],
  "bytecode": "0x60806040523480156200001157600080fd5b506040518060400160405280601081526020017f54656c6c6f72506c617967726f756e6400000000000000000000000000000000815250600e90805190602001906200005f92919062000111565b506040518060400160405280600481526020017f5452425000000000000000000000000000000000000000000000000000000000815250600f9080519060200190620000ad92919062000111565b506012601060006101000a81548160ff021916908360ff16021790555030600c60006101000a81548173ffffffffffffffffffffffffffffffffffffffff021916908373ffffffffffffffffffffffffffffffffffffffff16021790555062000226565b8280546200011f90620001c1565b90600052602060002090601f0160209004810192826200014357600085556200018f565b82601f106200015e57805160ff19168380011785556200018f565b828001600101855582156200018f579182015b828111156200018e57825182559160200191906001019062000171565b5b5090506200019e9190620001a2565b5090565b5b80821115620001bd576000816000905550600101620001a3565b5090565b60006002820490506001821680620001da57607f821691505b60208210811415620001f157620001f0620001f7565b5b50919050565b7f4e487b7100000000000000000000000000000000000000000000000000000000600052602260045260246000fd5b6133ac80620002366000396000f3fe608060405234801561001057600080fd5b506004361061023d5760003560e01c8063722580b61161013b578063c5958af9116100b8578063d9c51cd41161007c578063d9c51cd41461076f578063dd62ed3e1461078b578063e07c5486146107bb578063f25133f3146107eb578063fc0c546a1461081b5761023d565b8063c5958af9146106a5578063c6384071146106d5578063c979fe9f146106f3578063cb82cc8f14610723578063ce5e11bf1461073f5761023d565b806396426d97116100ff57806396426d97146105ff578063a792765f1461061d578063a9059cbb1461064f578063b86d1d631461067f578063bed9d8611461069b5761023d565b8063722580b61461053f578063733bdef01461055d57806377b03e0d146105955780638929f4c6146105c557806395d89b41146105e15761023d565b8063313ce567116101c9578063602bf2271161018d578063602bf2271461047357806360c7dc47146104a357806364473df2146104c157806369d43bd3146104f157806370a082311461050f5761023d565b8063313ce567146103bb5780633a3f2aba146103d957806344e87f91146104095780635aa6e675146104395780635eaa9ced146104575761023d565b80631f379acc116102105780631f379acc146102de578063217053c0146102fa57806323b872dd1461032a578063248638e51461035a578063294490851461038a5761023d565b806306fdde0314610242578063091b50ff14610260578063095ea7b31461029057806318160ddd146102c0575b600080fd5b61024a610839565b6040516102579190612a86565b60405180910390f35b61027a6004803603810190610275919061251e565b6108cb565b6040516102879190612a64565b60405180910390f35b6102aa60048036038101906102a59190612421565b610978565b6040516102b79190612971565b60405180910390f35b6102c861098f565b6040516102d59190612c08565b60405180910390f35b6102f860048036038101906102f3919061251e565b610999565b005b610314600480360381019061030f919061251e565b610a9d565b604051610321919061290b565b60405180910390f35b610344600480360381019061033f91906123d2565b610adf565b6040516103519190612971565b60405180910390f35b610374600480360381019061036f919061245d565b610b89565b604051610381919061294f565b60405180910390f35b6103a4600480360381019061039f919061251e565b610bf4565b6040516103b29291906129ca565b60405180910390f35b6103c3610ef4565b6040516103d09190612cb0565b60405180910390f35b6103f360048036038101906103ee919061251e565b610f0b565b6040516104009190612c08565b60405180910390f35b610423600480360381019061041e919061251e565b610f1e565b6040516104309190612971565b60405180910390f35b610441610f59565b60405161044e919061290b565b60405180910390f35b610471600480360381019061046c9190612486565b610f61565b005b61048d6004803603810190610488919061245d565b611250565b60405161049a9190612c08565b60405180910390f35b6104ab611268565b6040516104b89190612c08565b60405180910390f35b6104db60048036038101906104d6919061251e565b61126e565b6040516104e89190612971565b60405180910390f35b6104f961129d565b6040516105069190612c08565b60405180910390f35b6105296004803603810190610524919061236d565b6112a3565b6040516105369190612c08565b60405180910390f35b6105476112ec565b6040516105549190612c08565b60405180910390f35b6105776004803603810190610572919061236d565b6112f6565b60405161058c99989796959493929190612c23565b60405180910390f35b6105af60048036038101906105aa919061245d565b611386565b6040516105bc9190612c08565b60405180910390f35b6105df60048036038101906105da919061255a565b6113a6565b005b6105e96114ac565b6040516105f69190612a86565b60405180910390f35b61060761153e565b6040516106149190612c08565b60405180910390f35b6106376004803603810190610632919061251e565b61154a565b6040516106469392919061298c565b60405180910390f35b61066960048036038101906106649190612421565b611650565b6040516106769190612971565b60405180910390f35b6106996004803603810190610694919061236d565b611667565b005b6106a361167d565b005b6106bf60048036038101906106ba919061251e565b6117af565b6040516106cc9190612a64565b60405180910390f35b6106dd611866565b6040516106ea9190612c08565b60405180910390f35b61070d6004803603810190610708919061251e565b61186c565b60405161071a9190612c08565b60405180910390f35b61073d6004803603810190610738919061255a565b61189d565b005b6107596004803603810190610754919061251e565b6119c1565b6040516107669190612c08565b60405180910390f35b6107896004803603810190610784919061255a565b611a5b565b005b6107a560048036038101906107a09190612396565b611a72565b6040516107b29190612c08565b60405180910390f35b6107d560048036038101906107d0919061251e565b611af9565b6040516107e2919061290b565b60405180910390f35b6108056004803603810190610800919061251e565b611b48565b6040516108129190612c08565b60405180910390f35b610823611b79565b604051610830919061290b565b60405180910390f35b6060600e805461084890612f23565b80601f016020809104026020016040519081016040528092919081815260200182805461087490612f23565b80156108c15780601f10610896576101008083540402835291602001916108c1565b820191906000526020600020905b8154815290600101906020018083116108a457829003601f168201915b5050505050905090565b60056020528160005260406000206020528060005260406000206000915091505080546108f790612f23565b80601f016020809104026020016040519081016040528092919081815260200182805461092390612f23565b80156109705780601f1061094557610100808354040283529160200191610970565b820191906000526020600020905b81548152906001019060200180831161095357829003601f168201915b505050505081565b6000610985338484611b9f565b6001905092915050565b6000600d54905090565b6040518060200160405280600081525060056000848152602001908152602001600020600083815260200190815260200160002090805190602001906109e0929190612153565b506001600080848152602001908152602001600020600083815260200190815260200160002060006101000a81548160ff021916908315150217905550600b6000815480929190610a3090612f86565b9190505550600660008383604051602001610a4c9291906128c6565b604051602081830303815290604052805190602001208152602001908152602001600020600b5490806001815401808255809150506001900390600052602060002001600090919091909150555050565b60016020528160005260406000206020528060005260406000206000915091509054906101000a900473ffffffffffffffffffffffffffffffffffffffff1681565b6000610aec848484611d6a565b610b7e843384600760008973ffffffffffffffffffffffffffffffffffffffff1673ffffffffffffffffffffffffffffffffffffffff16815260200190815260200160002060003373ffffffffffffffffffffffffffffffffffffffff1673ffffffffffffffffffffffffffffffffffffffff16815260200190815260200160002054610b799190612e24565b611b9f565b600190509392505050565b606060066000838152602001908152602001600020805480602002602001604051908101604052809291908181526020018280548015610be857602002820191906000526020600020905b815481526020019060010190808311610bd4575b50505050509050919050565b6000806000610c0285611386565b90506000811115610ee457600080600090506000600184610c239190612e24565b90506000610c3189846119c1565b9050878110610c4b57600080965096505050505050610eed565b610c5589836119c1565b905087811015610cd7575b610c6a8982610f1e565b8015610c765750600082115b15610c9a578180610c8690612ef9565b925050610c9389836119c1565b9050610c60565b600082148015610cb05750610caf8982610f1e565b5b15610cc657600080965096505050505050610eed565b600182965096505050505050610eed565b5b600115610edf5782600160028585610cf09190612e24565b610cfa9190612df3565b610d049190612d9d565b610d0e9190612d9d565b9350610d1a89856119c1565b905087811015610df4576000610d3c8a600187610d379190612d9d565b6119c1565b9050888110610ddf57610d4f8a83610f1e565b610d655760018597509750505050505050610eed565b5b610d708a83610f1e565b8015610d7c5750600085115b15610da0578480610d8c90612ef9565b955050610d998a866119c1565b9150610d66565b600085148015610db65750610db58a83610f1e565b5b15610dcd5760008097509750505050505050610eed565b60018597509750505050505050610eed565b600185610dec9190612d9d565b935050610eda565b6000610e0c8a600187610e079190612e24565b6119c1565b905088811015610ec957610e208a82610f1e565b610e415760018086610e329190612e24565b97509750505050505050610eed565b8480610e4c90612ef9565b9550505b610e5a8a82610f1e565b8015610e665750600085115b15610e8a578480610e7690612ef9565b955050610e838a866119c1565b9050610e50565b600085148015610ea05750610e9f8a82610f1e565b5b15610eb75760008097509750505050505050610eed565b60018597509750505050505050610eed565b600185610ed69190612e24565b9250505b610cd8565b505050505b60008092509250505b9250929050565b6000601060009054906101000a900460ff16905090565b60006706f05b59d3b20000905092915050565b6000806000848152602001908152602001600020600083815260200190815260200160002060009054906101000a900460ff16905092915050565b600030905090565b7fc5d2460186f7233c927e7db2dcc703c0e500b653ca82273b7bfad8045d85a4708484604051610f929291906128f2565b60405180910390201415610fdb576040517f08c379a0000000000000000000000000000000000000000000000000000000008152600401610fd290612b28565b60405180910390fd5b6003600086815260200190815260200160002080549050821480610fff5750600082145b61103e576040517f08c379a000000000000000000000000000000000000000000000000000000000815260040161103590612b48565b60405180910390fd5b8080519060200120851480611057575060648560001c11155b611096576040517f08c379a000000000000000000000000000000000000000000000000000000000815260040161108d90612ae8565b60405180910390fd5b838360056000888152602001908152602001600020600042815260200190815260200160002091906110c99291906121d9565b50600360008681526020019081526020016000204290806001815401808255809150506001900390600052602060002001600090919091909150553360016000878152602001908152602001600020600042815260200190815260200160002060006101000a81548173ffffffffffffffffffffffffffffffffffffffff021916908373ffffffffffffffffffffffffffffffffffffffff16021790555042600260003373ffffffffffffffffffffffffffffffffffffffff1673ffffffffffffffffffffffffffffffffffffffff16815260200190815260200160002060030181905550600260003373ffffffffffffffffffffffffffffffffffffffff1673ffffffffffffffffffffffffffffffffffffffff168152602001908152602001600020600401600081548092919061120190612f86565b91905055507f48e9e2c732ba278de6ac88a3a57a5c5ba13d3d8370e709b3b98333a57876ca958542868686863360405161124197969594939291906129f3565b60405180910390a15050505050565b60046020528060005260406000206000915090505481565b60095481565b60006020528160005260406000206020528060005260406000206000915091509054906101000a900460ff1681565b600a5481565b6000600860008373ffffffffffffffffffffffffffffffffffffffff1673ffffffffffffffffffffffffffffffffffffffff168152602001908152602001600020549050919050565b6000600954905090565b600080600080600080600080600080600260008c73ffffffffffffffffffffffffffffffffffffffff1673ffffffffffffffffffffffffffffffffffffffff16815260200190815260200160002090508060000154816001015482600201546000846003015485600401546000806000995099509950995099509950995099509950509193959799909294969850565b600060036000838152602001908152602001600020805490509050919050565b6000600260003373ffffffffffffffffffffffffffffffffffffffff1673ffffffffffffffffffffffffffffffffffffffff16815260200190815260200160002090508181600101541015611430576040517f08c379a000000000000000000000000000000000000000000000000000000000815260040161142790612bc8565b60405180910390fd5b4281600001819055508181600201600082825461144d9190612d9d565b92505081905550818160010160008282546114689190612e24565b925050819055507f3d8d9df4bd0172df32e557fa48e96435cd7f2cac06aaffacfaee608e6f7898ef33836040516114a0929190612926565b60405180910390a15050565b6060600f80546114bb90612f23565b80601f01602080910402602001604051908101604052809291908181526020018280546114e790612f23565b80156115345780601f1061150957610100808354040283529160200191611534565b820191906000526020600020905b81548152906001019060200180831161151757829003601f168201915b5050505050905090565b6706f05b59d3b2000081565b60006060600080600061155d8787610bf4565b91509150816115875760006040518060200160405280600081525060009450945094505050611649565b61159187826119c1565b925060056000888152602001908152602001600020600084815260200190815260200160002080546115c290612f23565b80601f01602080910402602001604051908101604052809291908181526020018280546115ee90612f23565b801561163b5780601f106116105761010080835404028352916020019161163b565b820191906000526020600020905b81548152906001019060200180831161161e57829003601f168201915b505050505093506001945050505b9250925092565b600061165d338484611d6a565b6001905092915050565b61167a81683635c9adc5dea00000611f60565b50565b6000600260003373ffffffffffffffffffffffffffffffffffffffff1673ffffffffffffffffffffffffffffffffffffffff168152602001908152602001600020905062093a808160000154426116d49190612e24565b1015611715576040517f08c379a000000000000000000000000000000000000000000000000000000000815260040161170c90612b08565b60405180910390fd5b600081600201541161175c576040517f08c379a000000000000000000000000000000000000000000000000000000000815260040161175390612b88565b60405180910390fd5b61176b30338360020154611d6a565b600081600201819055507f4a7934670bd8304e7da22378be1368f7c4fef17c5aee81804beda8638fe428ec336040516117a4919061290b565b60405180910390a150565b606060056000848152602001908152602001600020600083815260200190815260200160002080546117e090612f23565b80601f016020809104026020016040519081016040528092919081815260200182805461180c90612f23565b80156118595780601f1061182e57610100808354040283529160200191611859565b820191906000526020600020905b81548152906001019060200180831161183c57829003601f168201915b5050505050905092915050565b600b5481565b6006602052816000526040600020818154811061188857600080fd5b90600052602060002001600091509150505481565b6000600260003373ffffffffffffffffffffffffffffffffffffffff1673ffffffffffffffffffffffffffffffffffffffff168152602001908152602001600020905060008160020154111561194b5781816002015410611918578181600201600082825461190c9190612e24565b92505081905550611946565b611932333083600201548561192d9190612e24565b6120a9565b61193b57600080fd5b600081600201819055505b611960565b6119563330846120a9565b61195f57600080fd5b5b4281600001819055508181600101600082825461197d9190612d9d565b925050819055507fa96c2cce65119a2170d1711a6e82f18f2006448828483ba7545e59547654364733836040516119b5929190612926565b60405180910390a15050565b6000806003600085815260200190815260200160002080549050905060008114806119ec5750828111155b156119fb576000915050611a55565b600360008581526020019081526020016000208381548110611a46577f4e487b7100000000000000000000000000000000000000000000000000000000600052603260045260246000fd5b90600052602060002001549150505b92915050565b611a663330836120a9565b611a6f57600080fd5b50565b6000600760008473ffffffffffffffffffffffffffffffffffffffff1673ffffffffffffffffffffffffffffffffffffffff16815260200190815260200160002060008373ffffffffffffffffffffffffffffffffffffffff1673ffffffffffffffffffffffffffffffffffffffff16815260200190815260200160002054905092915050565b600060016000848152602001908152602001600020600083815260200190815260200160002060009054906101000a900473ffffffffffffffffffffffffffffffffffffffff16905092915050565b60036020528160005260406000208181548110611b6457600080fd5b90600052602060002001600091509150505481565b600c60009054906101000a900473ffffffffffffffffffffffffffffffffffffffff1681565b600073ffffffffffffffffffffffffffffffffffffffff168373ffffffffffffffffffffffffffffffffffffffff161415611c0f576040517f08c379a0000000000000000000000000000000000000000000000000000000008152600401611c0690612ba8565b60405180910390fd5b600073ffffffffffffffffffffffffffffffffffffffff168273ffffffffffffffffffffffffffffffffffffffff161415611c7f576040517f08c379a0000000000000000000000000000000000000000000000000000000008152600401611c7690612ac8565b60405180910390fd5b80600760008573ffffffffffffffffffffffffffffffffffffffff1673ffffffffffffffffffffffffffffffffffffffff16815260200190815260200160002060008473ffffffffffffffffffffffffffffffffffffffff1673ffffffffffffffffffffffffffffffffffffffff168152602001908152602001600020819055508173ffffffffffffffffffffffffffffffffffffffff168373ffffffffffffffffffffffffffffffffffffffff167f8c5be1e5ebec7d5bd14f71427d1e84f3dd0314c0f7b2291e5b200ac8c7c3b92583604051611d5d9190612c08565b60405180910390a3505050565b600073ffffffffffffffffffffffffffffffffffffffff168373ffffffffffffffffffffffffffffffffffffffff161415611dda576040517f08c379a0000000000000000000000000000000000000000000000000000000008152600401611dd190612b68565b60405180910390fd5b600073ffffffffffffffffffffffffffffffffffffffff168273ffffffffffffffffffffffffffffffffffffffff161415611e4a576040517f08c379a0000000000000000000000000000000000000000000000000000000008152600401611e4190612aa8565b60405180910390fd5b80600860008573ffffffffffffffffffffffffffffffffffffffff1673ffffffffffffffffffffffffffffffffffffffff1681526020019081526020016000206000828254611e999190612e24565b9250508190555080600860008473ffffffffffffffffffffffffffffffffffffffff1673ffffffffffffffffffffffffffffffffffffffff1681526020019081526020016000206000828254611eef9190612d9d565b925050819055508173ffffffffffffffffffffffffffffffffffffffff168373ffffffffffffffffffffffffffffffffffffffff167fddf252ad1be2c89b69c2b068fc378daa952ba7f163c4a11628f55a4df523b3ef83604051611f539190612c08565b60405180910390a3505050565b600073ffffffffffffffffffffffffffffffffffffffff168273ffffffffffffffffffffffffffffffffffffffff161415611fd0576040517f08c379a0000000000000000000000000000000000000000000000000000000008152600401611fc790612be8565b60405180910390fd5b80600d6000828254611fe29190612d9d565b9250508190555080600860008473ffffffffffffffffffffffffffffffffffffffff1673ffffffffffffffffffffffffffffffffffffffff16815260200190815260200160002060008282546120389190612d9d565b925050819055508173ffffffffffffffffffffffffffffffffffffffff16600073ffffffffffffffffffffffffffffffffffffffff167fddf252ad1be2c89b69c2b068fc378daa952ba7f163c4a11628f55a4df523b3ef8360405161209d9190612c08565b60405180910390a35050565b60006120b6848484611d6a565b612148843384600760008973ffffffffffffffffffffffffffffffffffffffff1673ffffffffffffffffffffffffffffffffffffffff16815260200190815260200160002060003073ffffffffffffffffffffffffffffffffffffffff1673ffffffffffffffffffffffffffffffffffffffff168152602001908152602001600020546121439190612e24565b611b9f565b600190509392505050565b82805461215f90612f23565b90600052602060002090601f01602090048101928261218157600085556121c8565b82601f1061219a57805160ff19168380011785556121c8565b828001600101855582156121c8579182015b828111156121c75782518255916020019190600101906121ac565b5b5090506121d5919061225f565b5090565b8280546121e590612f23565b90600052602060002090601f016020900481019282612207576000855561224e565b82601f1061222057803560ff191683800117855561224e565b8280016001018555821561224e579182015b8281111561224d578235825591602001919060010190612232565b5b50905061225b919061225f565b5090565b5b80821115612278576000816000905550600101612260565b5090565b600061228f61228a84612cf0565b612ccb565b9050828152602081018484840111156122a757600080fd5b6122b2848285612eb7565b509392505050565b6000813590506122c981613331565b92915050565b6000813590506122de81613348565b92915050565b60008083601f8401126122f657600080fd5b8235905067ffffffffffffffff81111561230f57600080fd5b60208301915083600182028301111561232757600080fd5b9250929050565b600082601f83011261233f57600080fd5b813561234f84826020860161227c565b91505092915050565b6000813590506123678161335f565b92915050565b60006020828403121561237f57600080fd5b600061238d848285016122ba565b91505092915050565b600080604083850312156123a957600080fd5b60006123b7858286016122ba565b92505060206123c8858286016122ba565b9150509250929050565b6000806000606084860312156123e757600080fd5b60006123f5868287016122ba565b9350506020612406868287016122ba565b925050604061241786828701612358565b9150509250925092565b6000806040838503121561243457600080fd5b6000612442858286016122ba565b925050602061245385828601612358565b9150509250929050565b60006020828403121561246f57600080fd5b600061247d848285016122cf565b91505092915050565b60008060008060006080868803121561249e57600080fd5b60006124ac888289016122cf565b955050602086013567ffffffffffffffff8111156124c957600080fd5b6124d5888289016122e4565b945094505060406124e888828901612358565b925050606086013567ffffffffffffffff81111561250557600080fd5b6125118882890161232e565b9150509295509295909350565b6000806040838503121561253157600080fd5b600061253f858286016122cf565b925050602061255085828601612358565b9150509250929050565b60006020828403121561256c57600080fd5b600061257a84828501612358565b91505092915050565b600061258f8383612882565b60208301905092915050565b6125a481612e58565b82525050565b60006125b582612d31565b6125bf8185612d5f565b93506125ca83612d21565b8060005b838110156125fb5781516125e28882612583565b97506125ed83612d52565b9250506001810190506125ce565b5085935050505092915050565b61261181612e6a565b82525050565b61262081612e76565b82525050565b61263761263282612e76565b612fcf565b82525050565b60006126498385612d70565b9350612656838584612eb7565b61265f8361309f565b840190509392505050565b60006126768385612d81565b9350612683838584612eb7565b82840190509392505050565b600061269a82612d3c565b6126a48185612d70565b93506126b4818560208601612ec6565b6126bd8161309f565b840191505092915050565b60006126d382612d47565b6126dd8185612d8c565b93506126ed818560208601612ec6565b6126f68161309f565b840191505092915050565b600061270e602383612d8c565b9150612719826130b0565b604082019050919050565b6000612731602283612d8c565b915061273c826130ff565b604082019050919050565b6000612754601d83612d8c565b915061275f8261314e565b602082019050919050565b6000612777601283612d8c565b915061278282613177565b602082019050919050565b600061279a601783612d8c565b91506127a5826131a0565b602082019050919050565b60006127bd602083612d8c565b91506127c8826131c9565b602082019050919050565b60006127e0602583612d8c565b91506127eb826131f2565b604082019050919050565b6000612803602283612d8c565b915061280e82613241565b604082019050919050565b6000612826602483612d8c565b915061283182613290565b604082019050919050565b6000612849601b83612d8c565b9150612854826132df565b602082019050919050565b600061286c601f83612d8c565b915061287782613308565b602082019050919050565b61288b81612ea0565b82525050565b61289a81612ea0565b82525050565b6128b16128ac82612ea0565b612fd9565b82525050565b6128c081612eaa565b82525050565b60006128d28285612626565b6020820191506128e282846128a0565b6020820191508190509392505050565b60006128ff82848661266a565b91508190509392505050565b6000602082019050612920600083018461259b565b92915050565b600060408201905061293b600083018561259b565b6129486020830184612891565b9392505050565b6000602082019050818103600083015261296981846125aa565b905092915050565b60006020820190506129866000830184612608565b92915050565b60006060820190506129a16000830186612608565b81810360208301526129b3818561268f565b90506129c26040830184612891565b949350505050565b60006040820190506129df6000830185612608565b6129ec6020830184612891565b9392505050565b600060c082019050612a08600083018a612617565b612a156020830189612891565b8181036040830152612a2881878961263d565b9050612a376060830186612891565b8181036080830152612a49818561268f565b9050612a5860a083018461259b565b98975050505050505050565b60006020820190508181036000830152612a7e818461268f565b905092915050565b60006020820190508181036000830152612aa081846126c8565b905092915050565b60006020820190508181036000830152612ac181612701565b9050919050565b60006020820190508181036000830152612ae181612724565b9050919050565b60006020820190508181036000830152612b0181612747565b9050919050565b60006020820190508181036000830152612b218161276a565b9050919050565b60006020820190508181036000830152612b418161278d565b9050919050565b60006020820190508181036000830152612b61816127b0565b9050919050565b60006020820190508181036000830152612b81816127d3565b9050919050565b60006020820190508181036000830152612ba1816127f6565b9050919050565b60006020820190508181036000830152612bc181612819565b9050919050565b60006020820190508181036000830152612be18161283c565b9050919050565b60006020820190508181036000830152612c018161285f565b9050919050565b6000602082019050612c1d6000830184612891565b92915050565b600061012082019050612c39600083018c612891565b612c46602083018b612891565b612c53604083018a612891565b612c606060830189612891565b612c6d6080830188612891565b612c7a60a0830187612891565b612c8760c0830186612891565b612c9460e0830185612891565b612ca2610100830184612608565b9a9950505050505050505050565b6000602082019050612cc560008301846128b7565b92915050565b6000612cd5612ce6565b9050612ce18282612f55565b919050565b6000604051905090565b600067ffffffffffffffff821115612d0b57612d0a613070565b5b612d148261309f565b9050602081019050919050565b6000819050602082019050919050565b600081519050919050565b600081519050919050565b600081519050919050565b6000602082019050919050565b600082825260208201905092915050565b600082825260208201905092915050565b600081905092915050565b600082825260208201905092915050565b6000612da882612ea0565b9150612db383612ea0565b9250827fffffffffffffffffffffffffffffffffffffffffffffffffffffffffffffffff03821115612de857612de7612fe3565b5b828201905092915050565b6000612dfe82612ea0565b9150612e0983612ea0565b925082612e1957612e18613012565b5b828204905092915050565b6000612e2f82612ea0565b9150612e3a83612ea0565b925082821015612e4d57612e4c612fe3565b5b828203905092915050565b6000612e6382612e80565b9050919050565b60008115159050919050565b6000819050919050565b600073ffffffffffffffffffffffffffffffffffffffff82169050919050565b6000819050919050565b600060ff82169050919050565b82818337600083830152505050565b60005b83811015612ee4578082015181840152602081019050612ec9565b83811115612ef3576000848401525b50505050565b6000612f0482612ea0565b91506000821415612f1857612f17612fe3565b5b600182039050919050565b60006002820490506001821680612f3b57607f821691505b60208210811415612f4f57612f4e613041565b5b50919050565b612f5e8261309f565b810181811067ffffffffffffffff82111715612f7d57612f7c613070565b5b80604052505050565b6000612f9182612ea0565b91507fffffffffffffffffffffffffffffffffffffffffffffffffffffffffffffffff821415612fc457612fc3612fe3565b5b600182019050919050565b6000819050919050565b6000819050919050565b7f4e487b7100000000000000000000000000000000000000000000000000000000600052601160045260246000fd5b7f4e487b7100000000000000000000000000000000000000000000000000000000600052601260045260246000fd5b7f4e487b7100000000000000000000000000000000000000000000000000000000600052602260045260246000fd5b7f4e487b7100000000000000000000000000000000000000000000000000000000600052604160045260246000fd5b6000601f19601f8301169050919050565b7f45524332303a207472616e7366657220746f20746865207a65726f206164647260008201527f6573730000000000000000000000000000000000000000000000000000000000602082015250565b7f45524332303a20617070726f766520746f20746865207a65726f20616464726560008201527f7373000000000000000000000000000000000000000000000000000000000000602082015250565b7f6964206d7573742062652068617368206f662062797465732064617461000000600082015250565b7f372064617973206469646e277420706173730000000000000000000000000000600082015250565b7f76616c7565206d757374206265207375626d6974746564000000000000000000600082015250565b7f6e6f6e6365206d757374206d617463682074696d657374616d7020696e646578600082015250565b7f45524332303a207472616e736665722066726f6d20746865207a65726f20616460008201527f6472657373000000000000000000000000000000000000000000000000000000602082015250565b7f7265706f72746572206e6f74206c6f636b656420666f7220776974686472617760008201527f616c000000000000000000000000000000000000000000000000000000000000602082015250565b7f45524332303a20617070726f76652066726f6d20746865207a65726f2061646460008201527f7265737300000000000000000000000000000000000000000000000000000000602082015250565b7f696e73756666696369656e74207374616b65642062616c616e63650000000000600082015250565b7f45524332303a206d696e7420746f20746865207a65726f206164647265737300600082015250565b61333a81612e58565b811461334557600080fd5b50565b61335181612e76565b811461335c57600080fd5b50565b61336881612ea0565b811461337357600080fd5b5056fea264697066735822122041f60e266fbb72ca986a010aadeac9fc891ec5ac4a447d839c3f05dee0cd69e564736f6c63430008030033",
  "linkReferences": {},
  "deployedLinkReferences": {}
}