{
  "_format": "hh-sol-artifact-1",
  "contractName": "TellorPlayground",
  "sourceName": "contracts/TellorPlayground.sol",
  "abi": [
    {
      "inputs": [],
      "stateMutability": "nonpayable",
      "type": "constructor"
    },
    {
      "anonymous": false,
      "inputs": [
        {
          "indexed": true,
          "internalType": "address",
          "name": "owner",
          "type": "address"
        },
        {
          "indexed": true,
          "internalType": "address",
          "name": "spender",
          "type": "address"
        },
        {
          "indexed": false,
          "internalType": "uint256",
          "name": "value",
          "type": "uint256"
        }
      ],
      "name": "Approval",
      "type": "event"
    },
    {
      "anonymous": false,
      "inputs": [
        {
          "indexed": false,
          "internalType": "bytes32",
          "name": "_queryId",
          "type": "bytes32"
        },
        {
          "indexed": false,
          "internalType": "uint256",
          "name": "_time",
          "type": "uint256"
        },
        {
          "indexed": false,
          "internalType": "bytes",
          "name": "_value",
          "type": "bytes"
        },
        {
          "indexed": false,
          "internalType": "uint256",
          "name": "_reward",
          "type": "uint256"
        },
        {
          "indexed": false,
          "internalType": "uint256",
          "name": "_nonce",
          "type": "uint256"
        },
        {
          "indexed": false,
          "internalType": "bytes",
          "name": "_queryData",
          "type": "bytes"
        },
        {
          "indexed": false,
          "internalType": "address",
          "name": "_reporter",
          "type": "address"
        }
      ],
      "name": "NewReport",
      "type": "event"
    },
    {
      "anonymous": false,
      "inputs": [
        {
          "indexed": true,
          "internalType": "address",
          "name": "_user",
          "type": "address"
        },
        {
          "indexed": true,
          "internalType": "bytes32",
          "name": "_queryId",
          "type": "bytes32"
        },
        {
          "indexed": false,
          "internalType": "uint256",
          "name": "_tip",
          "type": "uint256"
        },
        {
          "indexed": false,
          "internalType": "uint256",
          "name": "_totalTip",
          "type": "uint256"
        },
        {
          "indexed": false,
          "internalType": "bytes",
          "name": "_queryData",
          "type": "bytes"
        }
      ],
      "name": "TipAdded",
      "type": "event"
    },
    {
      "anonymous": false,
      "inputs": [
        {
          "indexed": true,
          "internalType": "address",
          "name": "from",
          "type": "address"
        },
        {
          "indexed": true,
          "internalType": "address",
          "name": "to",
          "type": "address"
        },
        {
          "indexed": false,
          "internalType": "uint256",
          "name": "value",
          "type": "uint256"
        }
      ],
      "name": "Transfer",
      "type": "event"
    },
    {
      "inputs": [
        {
          "internalType": "address",
          "name": "_owner",
          "type": "address"
        },
        {
          "internalType": "address",
          "name": "_spender",
          "type": "address"
        }
      ],
      "name": "allowance",
      "outputs": [
        {
          "internalType": "uint256",
          "name": "",
          "type": "uint256"
        }
      ],
      "stateMutability": "view",
      "type": "function"
    },
    {
      "inputs": [
        {
          "internalType": "address",
          "name": "_spender",
          "type": "address"
        },
        {
          "internalType": "uint256",
          "name": "_amount",
          "type": "uint256"
        }
      ],
      "name": "approve",
      "outputs": [
        {
          "internalType": "bool",
          "name": "",
          "type": "bool"
        }
      ],
      "stateMutability": "nonpayable",
      "type": "function"
    },
    {
      "inputs": [
        {
          "internalType": "address",
          "name": "_account",
          "type": "address"
        }
      ],
      "name": "balanceOf",
      "outputs": [
        {
          "internalType": "uint256",
          "name": "",
          "type": "uint256"
        }
      ],
      "stateMutability": "view",
      "type": "function"
    },
    {
      "inputs": [
        {
          "internalType": "bytes32",
          "name": "_queryId",
          "type": "bytes32"
        },
        {
          "internalType": "uint256",
          "name": "_timestamp",
          "type": "uint256"
        }
      ],
      "name": "beginDispute",
      "outputs": [],
      "stateMutability": "nonpayable",
      "type": "function"
    },
    {
      "inputs": [],
      "name": "decimals",
      "outputs": [
        {
          "internalType": "uint8",
          "name": "",
          "type": "uint8"
        }
      ],
      "stateMutability": "view",
      "type": "function"
    },
    {
      "inputs": [
        {
          "internalType": "address",
          "name": "_user",
          "type": "address"
        }
      ],
      "name": "faucet",
      "outputs": [],
      "stateMutability": "nonpayable",
      "type": "function"
    },
    {
      "inputs": [
        {
          "internalType": "bytes32",
          "name": "_queryId",
          "type": "bytes32"
        }
      ],
      "name": "getCurrentReward",
      "outputs": [
        {
          "internalType": "uint256",
          "name": "",
          "type": "uint256"
        },
        {
          "internalType": "uint256",
          "name": "",
          "type": "uint256"
        }
      ],
      "stateMutability": "view",
      "type": "function"
    },
    {
      "inputs": [
        {
          "internalType": "bytes32",
          "name": "_queryId",
          "type": "bytes32"
        }
      ],
      "name": "getNewValueCountbyQueryId",
      "outputs": [
        {
          "internalType": "uint256",
          "name": "",
          "type": "uint256"
        }
      ],
      "stateMutability": "view",
      "type": "function"
    },
    {
      "inputs": [
        {
          "internalType": "bytes32",
          "name": "_queryId",
          "type": "bytes32"
        },
        {
          "internalType": "uint256",
          "name": "_index",
          "type": "uint256"
        }
      ],
      "name": "getTimestampbyQueryIdandIndex",
      "outputs": [
        {
          "internalType": "uint256",
          "name": "",
          "type": "uint256"
        }
      ],
      "stateMutability": "view",
      "type": "function"
    },
    {
      "inputs": [
        {
          "internalType": "bytes32",
          "name": "",
          "type": "bytes32"
        },
        {
          "internalType": "uint256",
          "name": "",
          "type": "uint256"
        }
      ],
      "name": "isDisputed",
      "outputs": [
        {
          "internalType": "bool",
          "name": "",
          "type": "bool"
        }
      ],
      "stateMutability": "view",
      "type": "function"
    },
    {
      "inputs": [],
      "name": "name",
      "outputs": [
        {
          "internalType": "string",
          "name": "",
          "type": "string"
        }
      ],
      "stateMutability": "view",
      "type": "function"
    },
    {
      "inputs": [
        {
          "internalType": "bytes32",
          "name": "_queryId",
          "type": "bytes32"
        },
        {
          "internalType": "uint256",
          "name": "_timestamp",
          "type": "uint256"
        }
      ],
      "name": "retrieveData",
      "outputs": [
        {
          "internalType": "bytes",
          "name": "",
          "type": "bytes"
        }
      ],
      "stateMutability": "view",
      "type": "function"
    },
    {
      "inputs": [
        {
          "internalType": "bytes32",
          "name": "_queryId",
          "type": "bytes32"
        },
        {
          "internalType": "bytes",
          "name": "_value",
          "type": "bytes"
        },
        {
          "internalType": "uint256",
          "name": "_nonce",
          "type": "uint256"
        },
        {
          "internalType": "bytes",
          "name": "_queryData",
          "type": "bytes"
        }
      ],
      "name": "submitValue",
      "outputs": [],
      "stateMutability": "nonpayable",
      "type": "function"
    },
    {
      "inputs": [],
      "name": "symbol",
      "outputs": [
        {
          "internalType": "string",
          "name": "",
          "type": "string"
        }
      ],
      "stateMutability": "view",
      "type": "function"
    },
    {
      "inputs": [],
      "name": "timeBasedReward",
      "outputs": [
        {
          "internalType": "uint256",
          "name": "",
          "type": "uint256"
        }
      ],
      "stateMutability": "view",
      "type": "function"
    },
    {
      "inputs": [],
      "name": "timeOfLastNewValue",
      "outputs": [
        {
          "internalType": "uint256",
          "name": "",
          "type": "uint256"
        }
      ],
      "stateMutability": "view",
      "type": "function"
    },
    {
      "inputs": [
        {
          "internalType": "bytes32",
          "name": "",
          "type": "bytes32"
        },
        {
          "internalType": "uint256",
          "name": "",
          "type": "uint256"
        }
      ],
      "name": "timestamps",
      "outputs": [
        {
          "internalType": "uint256",
          "name": "",
          "type": "uint256"
        }
      ],
      "stateMutability": "view",
      "type": "function"
    },
    {
      "inputs": [
        {
          "internalType": "bytes32",
          "name": "_queryId",
          "type": "bytes32"
        },
        {
          "internalType": "uint256",
          "name": "_amount",
          "type": "uint256"
        },
        {
          "internalType": "bytes",
          "name": "_queryData",
          "type": "bytes"
        }
      ],
      "name": "tipQuery",
      "outputs": [],
      "stateMutability": "nonpayable",
      "type": "function"
    },
    {
      "inputs": [
        {
          "internalType": "bytes32",
          "name": "",
          "type": "bytes32"
        }
      ],
      "name": "tips",
      "outputs": [
        {
          "internalType": "uint256",
          "name": "",
          "type": "uint256"
        }
      ],
      "stateMutability": "view",
      "type": "function"
    },
    {
      "inputs": [],
      "name": "tipsInContract",
      "outputs": [
        {
          "internalType": "uint256",
          "name": "",
          "type": "uint256"
        }
      ],
      "stateMutability": "view",
      "type": "function"
    },
    {
      "inputs": [],
      "name": "totalSupply",
      "outputs": [
        {
          "internalType": "uint256",
          "name": "",
          "type": "uint256"
        }
      ],
      "stateMutability": "view",
      "type": "function"
    },
    {
      "inputs": [
        {
          "internalType": "address",
          "name": "_recipient",
          "type": "address"
        },
        {
          "internalType": "uint256",
          "name": "_amount",
          "type": "uint256"
        }
      ],
      "name": "transfer",
      "outputs": [
        {
          "internalType": "bool",
          "name": "",
          "type": "bool"
        }
      ],
      "stateMutability": "nonpayable",
      "type": "function"
    },
    {
      "inputs": [
        {
          "internalType": "address",
          "name": "_sender",
          "type": "address"
        },
        {
          "internalType": "address",
          "name": "_recipient",
          "type": "address"
        },
        {
          "internalType": "uint256",
          "name": "_amount",
          "type": "uint256"
        }
      ],
      "name": "transferFrom",
      "outputs": [
        {
          "internalType": "bool",
          "name": "",
          "type": "bool"
        }
      ],
      "stateMutability": "nonpayable",
      "type": "function"
    },
    {
      "inputs": [
        {
          "internalType": "bytes32",
          "name": "",
          "type": "bytes32"
        },
        {
          "internalType": "uint256",
          "name": "",
          "type": "uint256"
        }
      ],
      "name": "values",
      "outputs": [
        {
          "internalType": "bytes",
          "name": "",
          "type": "bytes"
        }
      ],
      "stateMutability": "view",
      "type": "function"
    }
  ],
  "bytecode": "0x6080604052426006556706f05b59d3b200006007553480156200002157600080fd5b506040518060400160405280601081526020017f54656c6c6f72506c617967726f756e6400000000000000000000000000000000815250600a90805190602001906200006f929190620000e0565b506040518060400160405280600481526020017f5452425000000000000000000000000000000000000000000000000000000000815250600b9080519060200190620000bd929190620000e0565b506012600c60006101000a81548160ff021916908360ff160217905550620001f5565b828054620000ee9062000190565b90600052602060002090601f0160209004810192826200011257600085556200015e565b82601f106200012d57805160ff19168380011785556200015e565b828001600101855582156200015e579182015b828111156200015d57825182559160200191906001019062000140565b5b5090506200016d919062000171565b5090565b5b808211156200018c57600081600090555060010162000172565b5090565b60006002820490506001821680620001a957607f821691505b60208210811415620001c057620001bf620001c6565b5b50919050565b7f4e487b7100000000000000000000000000000000000000000000000000000000600052602260045260246000fd5b61241580620002056000396000f3fe608060405234801561001057600080fd5b50600436106101585760003560e01c806370a08231116100c3578063b86d1d631161007c578063b86d1d6314610418578063c5958af914610434578063ce5e11bf14610464578063dd62ed3e14610494578063ef0234ad146104c4578063f25133f3146104e057610158565b806370a082311461031b57806377b03e0d1461034b57806395d89b411461037b57806396426d9714610399578063a1e588a5146103b7578063a9059cbb146103e857610158565b8063313ce56711610115578063313ce567146102455780635eaa9ced14610263578063602bf2271461027f57806364473df2146102af57806369d43bd3146102df5780636fd4f229146102fd57610158565b806306fdde031461015d578063091b50ff1461017b578063095ea7b3146101ab57806318160ddd146101db5780631f379acc146101f957806323b872dd14610215575b600080fd5b610165610510565b6040516101729190611c61565b60405180910390f35b61019560048036038101906101909190611900565b6105a2565b6040516101a29190611c3f565b60405180910390f35b6101c560048036038101906101c09190611803565b61064f565b6040516101d29190611ba5565b60405180910390f35b6101e3610666565b6040516101f09190611d83565b60405180910390f35b610213600480360381019061020e9190611900565b610670565b005b61022f600480360381019061022a91906117b4565b6106f8565b60405161023c9190611ba5565b60405180910390f35b61024d6107a2565b60405161025a9190611e05565b60405180910390f35b61027d60048036038101906102789190611868565b6107b9565b005b6102996004803603810190610294919061183f565b6109a4565b6040516102a69190611d83565b60405180910390f35b6102c960048036038101906102c49190611900565b6109bc565b6040516102d69190611ba5565b60405180910390f35b6102e76109eb565b6040516102f49190611d83565b60405180910390f35b6103056109f1565b6040516103129190611d83565b60405180910390f35b6103356004803603810190610330919061174f565b6109f7565b6040516103429190611d83565b60405180910390f35b6103656004803603810190610360919061183f565b610a40565b6040516103729190611d83565b60405180910390f35b610383610a60565b6040516103909190611c61565b60405180910390f35b6103a1610af2565b6040516103ae9190611d83565b60405180910390f35b6103d160048036038101906103cc919061183f565b610af8565b6040516103df929190611d9e565b60405180910390f35b61040260048036038101906103fd9190611803565b610b82565b60405161040f9190611ba5565b60405180910390f35b610432600480360381019061042d919061174f565b610b99565b005b61044e60048036038101906104499190611900565b610baf565b60405161045b9190611c3f565b60405180910390f35b61047e60048036038101906104799190611900565b610c66565b60405161048b9190611d83565b60405180910390f35b6104ae60048036038101906104a99190611778565b610d00565b6040516104bb9190611d83565b60405180910390f35b6104de60048036038101906104d9919061193c565b610d87565b005b6104fa60048036038101906104f59190611900565b610eb1565b6040516105079190611d83565b60405180910390f35b6060600a805461051f90612064565b80601f016020809104026020016040519081016040528092919081815260200182805461054b90612064565b80156105985780601f1061056d57610100808354040283529160200191610598565b820191906000526020600020905b81548152906001019060200180831161057b57829003601f168201915b5050505050905090565b60036020528160005260406000206020528060005260406000206000915091505080546105ce90612064565b80601f01602080910402602001604051908101604052809291908181526020018280546105fa90612064565b80156106475780601f1061061c57610100808354040283529160200191610647565b820191906000526020600020905b81548152906001019060200180831161062a57829003601f168201915b505050505081565b600061065c338484610ee2565b6001905092915050565b6000600954905090565b6040518060200160405280600081525060036000848152602001908152602001600020600083815260200190815260200160002090805190602001906106b7929190611535565b506001600080848152602001908152602001600020600083815260200190815260200160002060006101000a81548160ff0219169083151502179055505050565b60006107058484846110ad565b610797843384600460008973ffffffffffffffffffffffffffffffffffffffff1673ffffffffffffffffffffffffffffffffffffffff16815260200190815260200160002060003373ffffffffffffffffffffffffffffffffffffffff1673ffffffffffffffffffffffffffffffffffffffff168152602001908152602001600020546107929190611f8f565b610ee2565b600190509392505050565b6000600c60009054906101000a900460ff16905090565b60016000868152602001908152602001600020805490508214610811576040517f08c379a000000000000000000000000000000000000000000000000000000000815260040161080890611ce3565b60405180910390fd5b808051906020012085148061082a575060648560001c11155b610869576040517f08c379a000000000000000000000000000000000000000000000000000000000815260040161086090611cc3565b60405180910390fd5b8383600360008881526020019081526020016000206000428152602001908152602001600020919061089c9291906115bb565b50600160008681526020019081526020016000204290806001815401808255809150506001900390600052602060002001600090919091909150556000806108e387610af8565b91509150600082826108f59190611eae565b11156109125761091033838361090b9190611eae565b610b82565b505b42600681905550816008600082825461092b9190611f8f565b92505081905550600060026000898152602001908152602001600020819055507fab1d593f8e2ecb165106e30a39db6769078d35c3fdbb110f24932f0d7af68c2987428888858761097c9190611eae565b898933604051610993989796959493929190611bc0565b60405180910390a150505050505050565b60026020528060005260406000206000915090505481565b60006020528160005260406000206020528060005260406000206000915091509054906101000a900460ff1681565b60085481565b60065481565b6000600560008373ffffffffffffffffffffffffffffffffffffffff1673ffffffffffffffffffffffffffffffffffffffff168152602001908152602001600020549050919050565b600060016000838152602001908152602001600020805490509050919050565b6060600b8054610a6f90612064565b80601f0160208091040260200160405190810160405280929190818152602001828054610a9b90612064565b8015610ae85780601f10610abd57610100808354040283529160200191610ae8565b820191906000526020600020905b815481529060010190602001808311610acb57829003601f168201915b5050505050905090565b60075481565b600080600060065442610b0b9190611f8f565b9050600061012c60075483610b209190611f35565b610b2a9190611f04565b905060085481610b3a9190611eae565b610b43306109f7565b1015610b6257600854610b55306109f7565b610b5f9190611f8f565b90505b600260008681526020019081526020016000205481935093505050915091565b6000610b8f3384846110ad565b6001905092915050565b610bac81683635c9adc5dea000006112a3565b50565b60606003600084815260200190815260200160002060008381526020019081526020016000208054610be090612064565b80601f0160208091040260200160405190810160405280929190818152602001828054610c0c90612064565b8015610c595780601f10610c2e57610100808354040283529160200191610c59565b820191906000526020600020905b815481529060010190602001808311610c3c57829003601f168201915b5050505050905092915050565b600080600160008581526020019081526020016000208054905090506000811480610c915750828111155b15610ca0576000915050610cfa565b600160008581526020019081526020016000208381548110610ceb577f4e487b7100000000000000000000000000000000000000000000000000000000600052603260045260246000fd5b90600052602060002001549150505b92915050565b6000600460008473ffffffffffffffffffffffffffffffffffffffff1673ffffffffffffffffffffffffffffffffffffffff16815260200190815260200160002060008373ffffffffffffffffffffffffffffffffffffffff1673ffffffffffffffffffffffffffffffffffffffff16815260200190815260200160002054905092915050565b8080519060200120831480610da0575060648360001c11155b610ddf576040517f08c379a0000000000000000000000000000000000000000000000000000000008152600401610dd690611cc3565b60405180910390fd5b610dea3330846110ad565b600282610df79190611f04565b9150610e0330836113ec565b8160086000828254610e159190611eae565b9250508190555081600260008581526020019081526020016000206000828254610e3f9190611eae565b92505081905550823373ffffffffffffffffffffffffffffffffffffffff167fd951d408a0f5057da5c25b826fb5ce403d56542962b6ac6994dbc6d5432fbff584600260008881526020019081526020016000205485604051610ea493929190611dc7565b60405180910390a3505050565b60016020528160005260406000208181548110610ecd57600080fd5b90600052602060002001600091509150505481565b600073ffffffffffffffffffffffffffffffffffffffff168373ffffffffffffffffffffffffffffffffffffffff161415610f52576040517f08c379a0000000000000000000000000000000000000000000000000000000008152600401610f4990611d43565b60405180910390fd5b600073ffffffffffffffffffffffffffffffffffffffff168273ffffffffffffffffffffffffffffffffffffffff161415610fc2576040517f08c379a0000000000000000000000000000000000000000000000000000000008152600401610fb990611ca3565b60405180910390fd5b80600460008573ffffffffffffffffffffffffffffffffffffffff1673ffffffffffffffffffffffffffffffffffffffff16815260200190815260200160002060008473ffffffffffffffffffffffffffffffffffffffff1673ffffffffffffffffffffffffffffffffffffffff168152602001908152602001600020819055508173ffffffffffffffffffffffffffffffffffffffff168373ffffffffffffffffffffffffffffffffffffffff167f8c5be1e5ebec7d5bd14f71427d1e84f3dd0314c0f7b2291e5b200ac8c7c3b925836040516110a09190611d83565b60405180910390a3505050565b600073ffffffffffffffffffffffffffffffffffffffff168373ffffffffffffffffffffffffffffffffffffffff16141561111d576040517f08c379a000000000000000000000000000000000000000000000000000000000815260040161111490611d23565b60405180910390fd5b600073ffffffffffffffffffffffffffffffffffffffff168273ffffffffffffffffffffffffffffffffffffffff16141561118d576040517f08c379a000000000000000000000000000000000000000000000000000000000815260040161118490611c83565b60405180910390fd5b80600560008573ffffffffffffffffffffffffffffffffffffffff1673ffffffffffffffffffffffffffffffffffffffff16815260200190815260200160002060008282546111dc9190611f8f565b9250508190555080600560008473ffffffffffffffffffffffffffffffffffffffff1673ffffffffffffffffffffffffffffffffffffffff16815260200190815260200160002060008282546112329190611eae565b925050819055508173ffffffffffffffffffffffffffffffffffffffff168373ffffffffffffffffffffffffffffffffffffffff167fddf252ad1be2c89b69c2b068fc378daa952ba7f163c4a11628f55a4df523b3ef836040516112969190611d83565b60405180910390a3505050565b600073ffffffffffffffffffffffffffffffffffffffff168273ffffffffffffffffffffffffffffffffffffffff161415611313576040517f08c379a000000000000000000000000000000000000000000000000000000000815260040161130a90611d63565b60405180910390fd5b80600960008282546113259190611eae565b9250508190555080600560008473ffffffffffffffffffffffffffffffffffffffff1673ffffffffffffffffffffffffffffffffffffffff168152602001908152602001600020600082825461137b9190611eae565b925050819055508173ffffffffffffffffffffffffffffffffffffffff16600073ffffffffffffffffffffffffffffffffffffffff167fddf252ad1be2c89b69c2b068fc378daa952ba7f163c4a11628f55a4df523b3ef836040516113e09190611d83565b60405180910390a35050565b600073ffffffffffffffffffffffffffffffffffffffff168273ffffffffffffffffffffffffffffffffffffffff16141561145c576040517f08c379a000000000000000000000000000000000000000000000000000000000815260040161145390611d03565b60405180910390fd5b80600560008473ffffffffffffffffffffffffffffffffffffffff1673ffffffffffffffffffffffffffffffffffffffff16815260200190815260200160002060008282546114ab9190611f8f565b9250508190555080600960008282546114c49190611f8f565b92505081905550600073ffffffffffffffffffffffffffffffffffffffff168273ffffffffffffffffffffffffffffffffffffffff167fddf252ad1be2c89b69c2b068fc378daa952ba7f163c4a11628f55a4df523b3ef836040516115299190611d83565b60405180910390a35050565b82805461154190612064565b90600052602060002090601f01602090048101928261156357600085556115aa565b82601f1061157c57805160ff19168380011785556115aa565b828001600101855582156115aa579182015b828111156115a957825182559160200191906001019061158e565b5b5090506115b79190611641565b5090565b8280546115c790612064565b90600052602060002090601f0160209004810192826115e95760008555611630565b82601f1061160257803560ff1916838001178555611630565b82800160010185558215611630579182015b8281111561162f578235825591602001919060010190611614565b5b50905061163d9190611641565b5090565b5b8082111561165a576000816000905550600101611642565b5090565b600061167161166c84611e45565b611e20565b90508281526020810184848401111561168957600080fd5b611694848285612022565b509392505050565b6000813590506116ab8161239a565b92915050565b6000813590506116c0816123b1565b92915050565b60008083601f8401126116d857600080fd5b8235905067ffffffffffffffff8111156116f157600080fd5b60208301915083600182028301111561170957600080fd5b9250929050565b600082601f83011261172157600080fd5b813561173184826020860161165e565b91505092915050565b600081359050611749816123c8565b92915050565b60006020828403121561176157600080fd5b600061176f8482850161169c565b91505092915050565b6000806040838503121561178b57600080fd5b60006117998582860161169c565b92505060206117aa8582860161169c565b9150509250929050565b6000806000606084860312156117c957600080fd5b60006117d78682870161169c565b93505060206117e88682870161169c565b92505060406117f98682870161173a565b9150509250925092565b6000806040838503121561181657600080fd5b60006118248582860161169c565b92505060206118358582860161173a565b9150509250929050565b60006020828403121561185157600080fd5b600061185f848285016116b1565b91505092915050565b60008060008060006080868803121561188057600080fd5b600061188e888289016116b1565b955050602086013567ffffffffffffffff8111156118ab57600080fd5b6118b7888289016116c6565b945094505060406118ca8882890161173a565b925050606086013567ffffffffffffffff8111156118e757600080fd5b6118f388828901611710565b9150509295509295909350565b6000806040838503121561191357600080fd5b6000611921858286016116b1565b92505060206119328582860161173a565b9150509250929050565b60008060006060848603121561195157600080fd5b600061195f868287016116b1565b93505060206119708682870161173a565b925050604084013567ffffffffffffffff81111561198d57600080fd5b61199986828701611710565b9150509250925092565b6119ac81611fc3565b82525050565b6119bb81611fd5565b82525050565b6119ca81611fe1565b82525050565b60006119dc8385611e8c565b93506119e9838584612022565b6119f283612183565b840190509392505050565b6000611a0882611e76565b611a128185611e8c565b9350611a22818560208601612031565b611a2b81612183565b840191505092915050565b6000611a4182611e81565b611a4b8185611e9d565b9350611a5b818560208601612031565b611a6481612183565b840191505092915050565b6000611a7c602383611e9d565b9150611a8782612194565b604082019050919050565b6000611a9f602283611e9d565b9150611aaa826121e3565b604082019050919050565b6000611ac2601d83611e9d565b9150611acd82612232565b602082019050919050565b6000611ae5601783611e9d565b9150611af08261225b565b602082019050919050565b6000611b08602183611e9d565b9150611b1382612284565b604082019050919050565b6000611b2b602583611e9d565b9150611b36826122d3565b604082019050919050565b6000611b4e602483611e9d565b9150611b5982612322565b604082019050919050565b6000611b71601f83611e9d565b9150611b7c82612371565b602082019050919050565b611b908161200b565b82525050565b611b9f81612015565b82525050565b6000602082019050611bba60008301846119b2565b92915050565b600060e082019050611bd5600083018b6119c1565b611be2602083018a611b87565b8181036040830152611bf581888a6119d0565b9050611c046060830187611b87565b611c116080830186611b87565b81810360a0830152611c2381856119fd565b9050611c3260c08301846119a3565b9998505050505050505050565b60006020820190508181036000830152611c5981846119fd565b905092915050565b60006020820190508181036000830152611c7b8184611a36565b905092915050565b60006020820190508181036000830152611c9c81611a6f565b9050919050565b60006020820190508181036000830152611cbc81611a92565b9050919050565b60006020820190508181036000830152611cdc81611ab5565b9050919050565b60006020820190508181036000830152611cfc81611ad8565b9050919050565b60006020820190508181036000830152611d1c81611afb565b9050919050565b60006020820190508181036000830152611d3c81611b1e565b9050919050565b60006020820190508181036000830152611d5c81611b41565b9050919050565b60006020820190508181036000830152611d7c81611b64565b9050919050565b6000602082019050611d986000830184611b87565b92915050565b6000604082019050611db36000830185611b87565b611dc06020830184611b87565b9392505050565b6000606082019050611ddc6000830186611b87565b611de96020830185611b87565b8181036040830152611dfb81846119fd565b9050949350505050565b6000602082019050611e1a6000830184611b96565b92915050565b6000611e2a611e3b565b9050611e368282612096565b919050565b6000604051905090565b600067ffffffffffffffff821115611e6057611e5f612154565b5b611e6982612183565b9050602081019050919050565b600081519050919050565b600081519050919050565b600082825260208201905092915050565b600082825260208201905092915050565b6000611eb98261200b565b9150611ec48361200b565b9250827fffffffffffffffffffffffffffffffffffffffffffffffffffffffffffffffff03821115611ef957611ef86120c7565b5b828201905092915050565b6000611f0f8261200b565b9150611f1a8361200b565b925082611f2a57611f296120f6565b5b828204905092915050565b6000611f408261200b565b9150611f4b8361200b565b9250817fffffffffffffffffffffffffffffffffffffffffffffffffffffffffffffffff0483118215151615611f8457611f836120c7565b5b828202905092915050565b6000611f9a8261200b565b9150611fa58361200b565b925082821015611fb857611fb76120c7565b5b828203905092915050565b6000611fce82611feb565b9050919050565b60008115159050919050565b6000819050919050565b600073ffffffffffffffffffffffffffffffffffffffff82169050919050565b6000819050919050565b600060ff82169050919050565b82818337600083830152505050565b60005b8381101561204f578082015181840152602081019050612034565b8381111561205e576000848401525b50505050565b6000600282049050600182168061207c57607f821691505b602082108114156120905761208f612125565b5b50919050565b61209f82612183565b810181811067ffffffffffffffff821117156120be576120bd612154565b5b80604052505050565b7f4e487b7100000000000000000000000000000000000000000000000000000000600052601160045260246000fd5b7f4e487b7100000000000000000000000000000000000000000000000000000000600052601260045260246000fd5b7f4e487b7100000000000000000000000000000000000000000000000000000000600052602260045260246000fd5b7f4e487b7100000000000000000000000000000000000000000000000000000000600052604160045260246000fd5b6000601f19601f8301169050919050565b7f45524332303a207472616e7366657220746f20746865207a65726f206164647260008201527f6573730000000000000000000000000000000000000000000000000000000000602082015250565b7f45524332303a20617070726f766520746f20746865207a65726f20616464726560008201527f7373000000000000000000000000000000000000000000000000000000000000602082015250565b7f6964206d7573742062652068617368206f662062797465732064617461000000600082015250565b7f6e6f6e63652073686f756c6420626520636f7272656374000000000000000000600082015250565b7f45524332303a206275726e2066726f6d20746865207a65726f2061646472657360008201527f7300000000000000000000000000000000000000000000000000000000000000602082015250565b7f45524332303a207472616e736665722066726f6d20746865207a65726f20616460008201527f6472657373000000000000000000000000000000000000000000000000000000602082015250565b7f45524332303a20617070726f76652066726f6d20746865207a65726f2061646460008201527f7265737300000000000000000000000000000000000000000000000000000000602082015250565b7f45524332303a206d696e7420746f20746865207a65726f206164647265737300600082015250565b6123a381611fc3565b81146123ae57600080fd5b50565b6123ba81611fe1565b81146123c557600080fd5b50565b6123d18161200b565b81146123dc57600080fd5b5056fea26469706673582212209ea9cae918a75068b36996c6e6ef6723d2abd4b82f3ca6b03bf32c7da9a5828c64736f6c63430008030033",
  "linkReferences": {},
  "deployedLinkReferences": {}
}