{
  "_format": "hh-sol-artifact-1",
  "contractName": "TellorPlayground",
  "sourceName": "contracts/TellorPlayground.sol",
  "abi": [
    {
      "inputs": [],
      "stateMutability": "nonpayable",
      "type": "constructor"
    },
    {
      "anonymous": false,
      "inputs": [
        {
          "indexed": true,
          "internalType": "address",
          "name": "owner",
          "type": "address"
        },
        {
          "indexed": true,
          "internalType": "address",
          "name": "spender",
          "type": "address"
        },
        {
          "indexed": false,
          "internalType": "uint256",
          "name": "value",
          "type": "uint256"
        }
      ],
      "name": "Approval",
      "type": "event"
    },
    {
      "anonymous": false,
      "inputs": [
        {
          "indexed": false,
          "internalType": "bytes32",
          "name": "_queryId",
          "type": "bytes32"
        },
        {
          "indexed": false,
          "internalType": "uint256",
          "name": "_time",
          "type": "uint256"
        },
        {
          "indexed": false,
          "internalType": "bytes",
          "name": "_value",
          "type": "bytes"
        },
        {
          "indexed": false,
          "internalType": "uint256",
          "name": "_reward",
          "type": "uint256"
        },
        {
          "indexed": false,
          "internalType": "uint256",
          "name": "_nonce",
          "type": "uint256"
        },
        {
          "indexed": false,
          "internalType": "bytes",
          "name": "_queryData",
          "type": "bytes"
        },
        {
          "indexed": false,
          "internalType": "address",
          "name": "_reporter",
          "type": "address"
        }
      ],
      "name": "NewReport",
      "type": "event"
    },
    {
      "anonymous": false,
      "inputs": [
        {
          "indexed": true,
          "internalType": "address",
          "name": "_user",
          "type": "address"
        },
        {
          "indexed": true,
          "internalType": "bytes32",
          "name": "_queryId",
          "type": "bytes32"
        },
        {
          "indexed": false,
          "internalType": "uint256",
          "name": "_tip",
          "type": "uint256"
        },
        {
          "indexed": false,
          "internalType": "uint256",
          "name": "_totalTip",
          "type": "uint256"
        },
        {
          "indexed": false,
          "internalType": "bytes",
          "name": "_queryData",
          "type": "bytes"
        }
      ],
      "name": "TipAdded",
      "type": "event"
    },
    {
      "anonymous": false,
      "inputs": [
        {
          "indexed": true,
          "internalType": "address",
          "name": "from",
          "type": "address"
        },
        {
          "indexed": true,
          "internalType": "address",
          "name": "to",
          "type": "address"
        },
        {
          "indexed": false,
          "internalType": "uint256",
          "name": "value",
          "type": "uint256"
        }
      ],
      "name": "Transfer",
      "type": "event"
    },
    {
      "inputs": [
        {
          "internalType": "bytes32",
          "name": "",
          "type": "bytes32"
        }
      ],
      "name": "addresses",
      "outputs": [
        {
          "internalType": "address",
          "name": "",
          "type": "address"
        }
      ],
      "stateMutability": "view",
      "type": "function"
    },
    {
      "inputs": [
        {
          "internalType": "address",
          "name": "_owner",
          "type": "address"
        },
        {
          "internalType": "address",
          "name": "_spender",
          "type": "address"
        }
      ],
      "name": "allowance",
      "outputs": [
        {
          "internalType": "uint256",
          "name": "",
          "type": "uint256"
        }
      ],
      "stateMutability": "view",
      "type": "function"
    },
    {
      "inputs": [
        {
          "internalType": "address",
          "name": "_spender",
          "type": "address"
        },
        {
          "internalType": "uint256",
          "name": "_amount",
          "type": "uint256"
        }
      ],
      "name": "approve",
      "outputs": [
        {
          "internalType": "bool",
          "name": "",
          "type": "bool"
        }
      ],
      "stateMutability": "nonpayable",
      "type": "function"
    },
    {
      "inputs": [
        {
          "internalType": "address",
          "name": "_account",
          "type": "address"
        }
      ],
      "name": "balanceOf",
      "outputs": [
        {
          "internalType": "uint256",
          "name": "",
          "type": "uint256"
        }
      ],
      "stateMutability": "view",
      "type": "function"
    },
    {
      "inputs": [
        {
          "internalType": "bytes32",
          "name": "_queryId",
          "type": "bytes32"
        },
        {
          "internalType": "uint256",
          "name": "_timestamp",
          "type": "uint256"
        }
      ],
      "name": "beginDispute",
      "outputs": [],
      "stateMutability": "nonpayable",
      "type": "function"
    },
    {
      "inputs": [],
      "name": "decimals",
      "outputs": [
        {
          "internalType": "uint8",
          "name": "",
          "type": "uint8"
        }
      ],
      "stateMutability": "view",
      "type": "function"
    },
    {
      "inputs": [
        {
          "internalType": "address",
          "name": "_user",
          "type": "address"
        }
      ],
      "name": "faucet",
      "outputs": [],
      "stateMutability": "nonpayable",
      "type": "function"
    },
    {
      "inputs": [
        {
          "internalType": "bytes32",
          "name": "_queryId",
          "type": "bytes32"
        }
      ],
      "name": "getCurrentReward",
      "outputs": [
        {
          "internalType": "uint256",
          "name": "",
          "type": "uint256"
        },
        {
          "internalType": "uint256",
          "name": "",
          "type": "uint256"
        }
      ],
      "stateMutability": "view",
      "type": "function"
    },
    {
      "inputs": [
        {
          "internalType": "bytes32",
          "name": "_queryId",
          "type": "bytes32"
        }
      ],
      "name": "getNewValueCountbyQueryId",
      "outputs": [
        {
          "internalType": "uint256",
          "name": "",
          "type": "uint256"
        }
      ],
      "stateMutability": "view",
      "type": "function"
    },
    {
      "inputs": [
        {
          "internalType": "bytes32",
          "name": "_queryId",
          "type": "bytes32"
        },
        {
          "internalType": "uint256",
          "name": "_index",
          "type": "uint256"
        }
      ],
      "name": "getTimestampbyQueryIdandIndex",
      "outputs": [
        {
          "internalType": "uint256",
          "name": "",
          "type": "uint256"
        }
      ],
      "stateMutability": "view",
      "type": "function"
    },
    {
      "inputs": [
        {
          "internalType": "bytes32",
          "name": "_hash",
          "type": "bytes32"
        }
      ],
      "name": "getVoteRounds",
      "outputs": [
        {
          "internalType": "uint256[]",
          "name": "",
          "type": "uint256[]"
        }
      ],
      "stateMutability": "view",
      "type": "function"
    },
    {
      "inputs": [
        {
          "internalType": "bytes32",
          "name": "",
          "type": "bytes32"
        },
        {
          "internalType": "uint256",
          "name": "",
          "type": "uint256"
        }
      ],
      "name": "isDisputed",
      "outputs": [
        {
          "internalType": "bool",
          "name": "",
          "type": "bool"
        }
      ],
      "stateMutability": "view",
      "type": "function"
    },
    {
      "inputs": [],
      "name": "name",
      "outputs": [
        {
          "internalType": "string",
          "name": "",
          "type": "string"
        }
      ],
      "stateMutability": "view",
      "type": "function"
    },
    {
      "inputs": [
        {
          "internalType": "bytes32",
          "name": "_queryId",
          "type": "bytes32"
        },
        {
          "internalType": "uint256",
          "name": "_timestamp",
          "type": "uint256"
        }
      ],
      "name": "retrieveData",
      "outputs": [
        {
          "internalType": "bytes",
          "name": "",
          "type": "bytes"
        }
      ],
      "stateMutability": "view",
      "type": "function"
    },
    {
      "inputs": [
        {
          "internalType": "bytes32",
          "name": "_queryId",
          "type": "bytes32"
        },
        {
          "internalType": "bytes",
          "name": "_value",
          "type": "bytes"
        },
        {
          "internalType": "uint256",
          "name": "_nonce",
          "type": "uint256"
        },
        {
          "internalType": "bytes",
          "name": "_queryData",
          "type": "bytes"
        }
      ],
      "name": "submitValue",
      "outputs": [],
      "stateMutability": "nonpayable",
      "type": "function"
    },
    {
      "inputs": [],
      "name": "symbol",
      "outputs": [
        {
          "internalType": "string",
          "name": "",
          "type": "string"
        }
      ],
      "stateMutability": "view",
      "type": "function"
    },
    {
      "inputs": [],
      "name": "timeBasedReward",
      "outputs": [
        {
          "internalType": "uint256",
          "name": "",
          "type": "uint256"
        }
      ],
      "stateMutability": "view",
      "type": "function"
    },
    {
      "inputs": [],
      "name": "timeOfLastNewValue",
      "outputs": [
        {
          "internalType": "uint256",
          "name": "",
          "type": "uint256"
        }
      ],
      "stateMutability": "view",
      "type": "function"
    },
    {
      "inputs": [
        {
          "internalType": "bytes32",
          "name": "",
          "type": "bytes32"
        },
        {
          "internalType": "uint256",
          "name": "",
          "type": "uint256"
        }
      ],
      "name": "timestamps",
      "outputs": [
        {
          "internalType": "uint256",
          "name": "",
          "type": "uint256"
        }
      ],
      "stateMutability": "view",
      "type": "function"
    },
    {
      "inputs": [
        {
          "internalType": "bytes32",
          "name": "_queryId",
          "type": "bytes32"
        },
        {
          "internalType": "uint256",
          "name": "_amount",
          "type": "uint256"
        },
        {
          "internalType": "bytes",
          "name": "_queryData",
          "type": "bytes"
        }
      ],
      "name": "tipQuery",
      "outputs": [],
      "stateMutability": "nonpayable",
      "type": "function"
    },
    {
      "inputs": [
        {
          "internalType": "bytes32",
          "name": "",
          "type": "bytes32"
        }
      ],
      "name": "tips",
      "outputs": [
        {
          "internalType": "uint256",
          "name": "",
          "type": "uint256"
        }
      ],
      "stateMutability": "view",
      "type": "function"
    },
    {
      "inputs": [],
      "name": "tipsInContract",
      "outputs": [
        {
          "internalType": "uint256",
          "name": "",
          "type": "uint256"
        }
      ],
      "stateMutability": "view",
      "type": "function"
    },
    {
      "inputs": [],
      "name": "totalSupply",
      "outputs": [
        {
          "internalType": "uint256",
          "name": "",
          "type": "uint256"
        }
      ],
      "stateMutability": "view",
      "type": "function"
    },
    {
      "inputs": [
        {
          "internalType": "address",
          "name": "_recipient",
          "type": "address"
        },
        {
          "internalType": "uint256",
          "name": "_amount",
          "type": "uint256"
        }
      ],
      "name": "transfer",
      "outputs": [
        {
          "internalType": "bool",
          "name": "",
          "type": "bool"
        }
      ],
      "stateMutability": "nonpayable",
      "type": "function"
    },
    {
      "inputs": [
        {
          "internalType": "address",
          "name": "_sender",
          "type": "address"
        },
        {
          "internalType": "address",
          "name": "_recipient",
          "type": "address"
        },
        {
          "internalType": "uint256",
          "name": "_amount",
          "type": "uint256"
        }
      ],
      "name": "transferFrom",
      "outputs": [
        {
          "internalType": "bool",
          "name": "",
          "type": "bool"
        }
      ],
      "stateMutability": "nonpayable",
      "type": "function"
    },
    {
      "inputs": [
        {
          "internalType": "bytes32",
          "name": "",
          "type": "bytes32"
        },
        {
          "internalType": "uint256",
          "name": "",
          "type": "uint256"
        }
      ],
      "name": "values",
      "outputs": [
        {
          "internalType": "bytes",
          "name": "",
          "type": "bytes"
        }
      ],
      "stateMutability": "view",
      "type": "function"
    },
    {
      "inputs": [],
      "name": "voteCount",
      "outputs": [
        {
          "internalType": "uint256",
          "name": "",
          "type": "uint256"
        }
      ],
      "stateMutability": "view",
      "type": "function"
    },
    {
      "inputs": [
        {
          "internalType": "bytes32",
          "name": "",
          "type": "bytes32"
        },
        {
          "internalType": "uint256",
          "name": "",
          "type": "uint256"
        }
      ],
      "name": "voteRounds",
      "outputs": [
        {
          "internalType": "uint256",
          "name": "",
          "type": "uint256"
        }
      ],
      "stateMutability": "view",
      "type": "function"
    }
  ],
  "bytecode": "0x6080604052426008553480156200001557600080fd5b506040518060400160405280601081526020017f54656c6c6f72506c617967726f756e6400000000000000000000000000000000815250600c9080519060200190620000639291906200014b565b506040518060400160405280600481526020017f5452425000000000000000000000000000000000000000000000000000000000815250600d9080519060200190620000b19291906200014b565b506012600e60006101000a81548160ff021916908360ff16021790555030600080604051602001620000e39062000222565b60405160208183030381529060405280519060200120815260200190815260200160002060006101000a81548173ffffffffffffffffffffffffffffffffffffffff021916908373ffffffffffffffffffffffffffffffffffffffff160217905550620002d2565b828054620001599062000244565b90600052602060002090601f0160209004810192826200017d5760008555620001c9565b82601f106200019857805160ff1916838001178555620001c9565b82800160010185558215620001c9579182015b82811115620001c8578251825591602001919060010190620001ab565b5b509050620001d89190620001dc565b5090565b5b80821115620001f7576000816000905550600101620001dd565b5090565b60006200020a60148362000239565b91506200021782620002a9565b601482019050919050565b60006200022f82620001fb565b9150819050919050565b600081905092915050565b600060028204905060018216806200025d57607f821691505b602082108114156200027457620002736200027a565b5b50919050565b7f4e487b7100000000000000000000000000000000000000000000000000000000600052602260045260246000fd5b7f5f474f5645524e414e43455f434f4e5452414354000000000000000000000000600082015250565b61283e80620002e26000396000f3fe608060405234801561001057600080fd5b50600436106101c45760003560e01c806370a08231116100f9578063c5958af911610097578063ce5e11bf11610071578063ce5e11bf1461057e578063dd62ed3e146105ae578063ef0234ad146105de578063f25133f3146105fa576101c4565b8063c5958af914610500578063c638407114610530578063c979fe9f1461054e576101c4565b806396426d97116100d357806396426d9714610465578063a1e588a514610483578063a9059cbb146104b4578063b86d1d63146104e4576101c4565b806370a08231146103e757806377b03e0d1461041757806395d89b4114610447576101c4565b8063313ce5671161016657806364473df21161014057806364473df21461034b578063699f200f1461037b57806369d43bd3146103ab5780636fd4f229146103c9576101c4565b8063313ce567146102e15780635eaa9ced146102ff578063602bf2271461031b576101c4565b806318160ddd116101a257806318160ddd146102475780631f379acc1461026557806323b872dd14610281578063248638e5146102b1576101c4565b806306fdde03146101c9578063091b50ff146101e7578063095ea7b314610217575b600080fd5b6101d161062a565b6040516101de9190611ff4565b60405180910390f35b61020160048036038101906101fc9190611b77565b6106bc565b60405161020e9190611fd2565b60405180910390f35b610231600480360381019061022c9190611a7a565b610769565b60405161023e9190611f38565b60405180910390f35b61024f610780565b60405161025c9190612116565b60405180910390f35b61027f600480360381019061027a9190611b77565b61078a565b005b61029b60048036038101906102969190611a2b565b61088e565b6040516102a89190611f38565b60405180910390f35b6102cb60048036038101906102c69190611ab6565b610938565b6040516102d89190611f16565b60405180910390f35b6102e96109a3565b6040516102f69190612198565b60405180910390f35b61031960048036038101906103149190611adf565b6109ba565b005b61033560048036038101906103309190611ab6565b610ba5565b6040516103429190612116565b60405180910390f35b61036560048036038101906103609190611b77565b610bbd565b6040516103729190611f38565b60405180910390f35b61039560048036038101906103909190611ab6565b610bec565b6040516103a29190611efb565b60405180910390f35b6103b3610c1f565b6040516103c09190612116565b60405180910390f35b6103d1610c25565b6040516103de9190612116565b60405180910390f35b61040160048036038101906103fc91906119c6565b610c2b565b60405161040e9190612116565b60405180910390f35b610431600480360381019061042c9190611ab6565b610c74565b60405161043e9190612116565b60405180910390f35b61044f610c94565b60405161045c9190611ff4565b60405180910390f35b61046d610d26565b60405161047a9190612116565b60405180910390f35b61049d60048036038101906104989190611ab6565b610d32565b6040516104ab929190612131565b60405180910390f35b6104ce60048036038101906104c99190611a7a565b610dc2565b6040516104db9190611f38565b60405180910390f35b6104fe60048036038101906104f991906119c6565b610dd9565b005b61051a60048036038101906105159190611b77565b610def565b6040516105279190611fd2565b60405180910390f35b610538610ea6565b6040516105459190612116565b60405180910390f35b61056860048036038101906105639190611b77565b610eac565b6040516105759190612116565b60405180910390f35b61059860048036038101906105939190611b77565b610edd565b6040516105a59190612116565b60405180910390f35b6105c860048036038101906105c391906119ef565b610f77565b6040516105d59190612116565b60405180910390f35b6105f860048036038101906105f39190611bb3565b610ffe565b005b610614600480360381019061060f9190611b77565b611128565b6040516106219190612116565b60405180910390f35b6060600c805461063990612430565b80601f016020809104026020016040519081016040528092919081815260200182805461066590612430565b80156106b25780601f10610687576101008083540402835291602001916106b2565b820191906000526020600020905b81548152906001019060200180831161069557829003601f168201915b5050505050905090565b60046020528160005260406000206020528060005260406000206000915091505080546106e890612430565b80601f016020809104026020016040519081016040528092919081815260200182805461071490612430565b80156107615780601f1061073657610100808354040283529160200191610761565b820191906000526020600020905b81548152906001019060200180831161074457829003601f168201915b505050505081565b6000610776338484611159565b6001905092915050565b6000600b54905090565b6040518060200160405280600081525060046000848152602001908152602001600020600083815260200190815260200160002090805190602001906107d19291906117ac565b506001806000848152602001908152602001600020600083815260200190815260200160002060006101000a81548160ff021916908315150217905550600a600081548092919061082190612493565b919050555060056000838360405160200161083d929190611ecf565b604051602081830303815290604052805190602001208152602001908152602001600020600a5490806001815401808255809150506001900390600052602060002001600090919091909150555050565b600061089b848484611324565b61092d843384600660008973ffffffffffffffffffffffffffffffffffffffff1673ffffffffffffffffffffffffffffffffffffffff16815260200190815260200160002060003373ffffffffffffffffffffffffffffffffffffffff1673ffffffffffffffffffffffffffffffffffffffff16815260200190815260200160002054610928919061235b565b611159565b600190509392505050565b60606005600083815260200190815260200160002080548060200260200160405190810160405280929190818152602001828054801561099757602002820191906000526020600020905b815481526020019060010190808311610983575b50505050509050919050565b6000600e60009054906101000a900460ff16905090565b60026000868152602001908152602001600020805490508214610a12576040517f08c379a0000000000000000000000000000000000000000000000000000000008152600401610a0990612076565b60405180910390fd5b8080519060200120851480610a2b575060648560001c11155b610a6a576040517f08c379a0000000000000000000000000000000000000000000000000000000008152600401610a6190612056565b60405180910390fd5b83836004600088815260200190815260200160002060004281526020019081526020016000209190610a9d929190611832565b5060026000868152602001908152602001600020429080600181540180825580915050600190039060005260206000200160009091909190915055600080610ae487610d32565b9150915060008282610af6919061227a565b1115610b1357610b11338383610b0c919061227a565b610dc2565b505b426008819055508160096000828254610b2c919061235b565b92505081905550600060036000898152602001908152602001600020819055507fab1d593f8e2ecb165106e30a39db6769078d35c3fdbb110f24932f0d7af68c29874288888587610b7d919061227a565b898933604051610b94989796959493929190611f53565b60405180910390a150505050505050565b60036020528060005260406000206000915090505481565b60016020528160005260406000206020528060005260406000206000915091509054906101000a900460ff1681565b60006020528060005260406000206000915054906101000a900473ffffffffffffffffffffffffffffffffffffffff1681565b60095481565b60085481565b6000600760008373ffffffffffffffffffffffffffffffffffffffff1673ffffffffffffffffffffffffffffffffffffffff168152602001908152602001600020549050919050565b600060026000838152602001908152602001600020805490509050919050565b6060600d8054610ca390612430565b80601f0160208091040260200160405190810160405280929190818152602001828054610ccf90612430565b8015610d1c5780601f10610cf157610100808354040283529160200191610d1c565b820191906000526020600020905b815481529060010190602001808311610cff57829003601f168201915b5050505050905090565b6706f05b59d3b2000081565b600080600060085442610d45919061235b565b9050600061012c6706f05b59d3b2000083610d609190612301565b610d6a91906122d0565b905060095481610d7a919061227a565b610d8330610c2b565b1015610da257600954610d9530610c2b565b610d9f919061235b565b90505b600360008681526020019081526020016000205481935093505050915091565b6000610dcf338484611324565b6001905092915050565b610dec81683635c9adc5dea0000061151a565b50565b60606004600084815260200190815260200160002060008381526020019081526020016000208054610e2090612430565b80601f0160208091040260200160405190810160405280929190818152602001828054610e4c90612430565b8015610e995780601f10610e6e57610100808354040283529160200191610e99565b820191906000526020600020905b815481529060010190602001808311610e7c57829003601f168201915b5050505050905092915050565b600a5481565b60056020528160005260406000208181548110610ec857600080fd5b90600052602060002001600091509150505481565b600080600260008581526020019081526020016000208054905090506000811480610f085750828111155b15610f17576000915050610f71565b600260008581526020019081526020016000208381548110610f62577f4e487b7100000000000000000000000000000000000000000000000000000000600052603260045260246000fd5b90600052602060002001549150505b92915050565b6000600660008473ffffffffffffffffffffffffffffffffffffffff1673ffffffffffffffffffffffffffffffffffffffff16815260200190815260200160002060008373ffffffffffffffffffffffffffffffffffffffff1673ffffffffffffffffffffffffffffffffffffffff16815260200190815260200160002054905092915050565b8080519060200120831480611017575060648360001c11155b611056576040517f08c379a000000000000000000000000000000000000000000000000000000000815260040161104d90612056565b60405180910390fd5b611061333084611324565b60028261106e91906122d0565b915061107a3083611663565b816009600082825461108c919061227a565b92505081905550816003600085815260200190815260200160002060008282546110b6919061227a565b92505081905550823373ffffffffffffffffffffffffffffffffffffffff167fd951d408a0f5057da5c25b826fb5ce403d56542962b6ac6994dbc6d5432fbff58460036000888152602001908152602001600020548560405161111b9392919061215a565b60405180910390a3505050565b6002602052816000526040600020818154811061114457600080fd5b90600052602060002001600091509150505481565b600073ffffffffffffffffffffffffffffffffffffffff168373ffffffffffffffffffffffffffffffffffffffff1614156111c9576040517f08c379a00000000000000000000000000000000000000000000000000000000081526004016111c0906120d6565b60405180910390fd5b600073ffffffffffffffffffffffffffffffffffffffff168273ffffffffffffffffffffffffffffffffffffffff161415611239576040517f08c379a000000000000000000000000000000000000000000000000000000000815260040161123090612036565b60405180910390fd5b80600660008573ffffffffffffffffffffffffffffffffffffffff1673ffffffffffffffffffffffffffffffffffffffff16815260200190815260200160002060008473ffffffffffffffffffffffffffffffffffffffff1673ffffffffffffffffffffffffffffffffffffffff168152602001908152602001600020819055508173ffffffffffffffffffffffffffffffffffffffff168373ffffffffffffffffffffffffffffffffffffffff167f8c5be1e5ebec7d5bd14f71427d1e84f3dd0314c0f7b2291e5b200ac8c7c3b925836040516113179190612116565b60405180910390a3505050565b600073ffffffffffffffffffffffffffffffffffffffff168373ffffffffffffffffffffffffffffffffffffffff161415611394576040517f08c379a000000000000000000000000000000000000000000000000000000000815260040161138b906120b6565b60405180910390fd5b600073ffffffffffffffffffffffffffffffffffffffff168273ffffffffffffffffffffffffffffffffffffffff161415611404576040517f08c379a00000000000000000000000000000000000000000000000000000000081526004016113fb90612016565b60405180910390fd5b80600760008573ffffffffffffffffffffffffffffffffffffffff1673ffffffffffffffffffffffffffffffffffffffff1681526020019081526020016000206000828254611453919061235b565b9250508190555080600760008473ffffffffffffffffffffffffffffffffffffffff1673ffffffffffffffffffffffffffffffffffffffff16815260200190815260200160002060008282546114a9919061227a565b925050819055508173ffffffffffffffffffffffffffffffffffffffff168373ffffffffffffffffffffffffffffffffffffffff167fddf252ad1be2c89b69c2b068fc378daa952ba7f163c4a11628f55a4df523b3ef8360405161150d9190612116565b60405180910390a3505050565b600073ffffffffffffffffffffffffffffffffffffffff168273ffffffffffffffffffffffffffffffffffffffff16141561158a576040517f08c379a0000000000000000000000000000000000000000000000000000000008152600401611581906120f6565b60405180910390fd5b80600b600082825461159c919061227a565b9250508190555080600760008473ffffffffffffffffffffffffffffffffffffffff1673ffffffffffffffffffffffffffffffffffffffff16815260200190815260200160002060008282546115f2919061227a565b925050819055508173ffffffffffffffffffffffffffffffffffffffff16600073ffffffffffffffffffffffffffffffffffffffff167fddf252ad1be2c89b69c2b068fc378daa952ba7f163c4a11628f55a4df523b3ef836040516116579190612116565b60405180910390a35050565b600073ffffffffffffffffffffffffffffffffffffffff168273ffffffffffffffffffffffffffffffffffffffff1614156116d3576040517f08c379a00000000000000000000000000000000000000000000000000000000081526004016116ca90612096565b60405180910390fd5b80600760008473ffffffffffffffffffffffffffffffffffffffff1673ffffffffffffffffffffffffffffffffffffffff1681526020019081526020016000206000828254611722919061235b565b9250508190555080600b600082825461173b919061235b565b92505081905550600073ffffffffffffffffffffffffffffffffffffffff168273ffffffffffffffffffffffffffffffffffffffff167fddf252ad1be2c89b69c2b068fc378daa952ba7f163c4a11628f55a4df523b3ef836040516117a09190612116565b60405180910390a35050565b8280546117b890612430565b90600052602060002090601f0160209004810192826117da5760008555611821565b82601f106117f357805160ff1916838001178555611821565b82800160010185558215611821579182015b82811115611820578251825591602001919060010190611805565b5b50905061182e91906118b8565b5090565b82805461183e90612430565b90600052602060002090601f01602090048101928261186057600085556118a7565b82601f1061187957803560ff19168380011785556118a7565b828001600101855582156118a7579182015b828111156118a657823582559160200191906001019061188b565b5b5090506118b491906118b8565b5090565b5b808211156118d15760008160009055506001016118b9565b5090565b60006118e86118e3846121d8565b6121b3565b90508281526020810184848401111561190057600080fd5b61190b8482856123ee565b509392505050565b600081359050611922816127c3565b92915050565b600081359050611937816127da565b92915050565b60008083601f84011261194f57600080fd5b8235905067ffffffffffffffff81111561196857600080fd5b60208301915083600182028301111561198057600080fd5b9250929050565b600082601f83011261199857600080fd5b81356119a88482602086016118d5565b91505092915050565b6000813590506119c0816127f1565b92915050565b6000602082840312156119d857600080fd5b60006119e684828501611913565b91505092915050565b60008060408385031215611a0257600080fd5b6000611a1085828601611913565b9250506020611a2185828601611913565b9150509250929050565b600080600060608486031215611a4057600080fd5b6000611a4e86828701611913565b9350506020611a5f86828701611913565b9250506040611a70868287016119b1565b9150509250925092565b60008060408385031215611a8d57600080fd5b6000611a9b85828601611913565b9250506020611aac858286016119b1565b9150509250929050565b600060208284031215611ac857600080fd5b6000611ad684828501611928565b91505092915050565b600080600080600060808688031215611af757600080fd5b6000611b0588828901611928565b955050602086013567ffffffffffffffff811115611b2257600080fd5b611b2e8882890161193d565b94509450506040611b41888289016119b1565b925050606086013567ffffffffffffffff811115611b5e57600080fd5b611b6a88828901611987565b9150509295509295909350565b60008060408385031215611b8a57600080fd5b6000611b9885828601611928565b9250506020611ba9858286016119b1565b9150509250929050565b600080600060608486031215611bc857600080fd5b6000611bd686828701611928565b9350506020611be7868287016119b1565b925050604084013567ffffffffffffffff811115611c0457600080fd5b611c1086828701611987565b9150509250925092565b6000611c268383611e8b565b60208301905092915050565b611c3b8161238f565b82525050565b6000611c4c82612219565b611c568185612247565b9350611c6183612209565b8060005b83811015611c92578151611c798882611c1a565b9750611c848361223a565b925050600181019050611c65565b5085935050505092915050565b611ca8816123a1565b82525050565b611cb7816123ad565b82525050565b611cce611cc9826123ad565b6124dc565b82525050565b6000611ce08385612258565b9350611ced8385846123ee565b611cf6836125ac565b840190509392505050565b6000611d0c82612224565b611d168185612258565b9350611d268185602086016123fd565b611d2f816125ac565b840191505092915050565b6000611d458261222f565b611d4f8185612269565b9350611d5f8185602086016123fd565b611d68816125ac565b840191505092915050565b6000611d80602383612269565b9150611d8b826125bd565b604082019050919050565b6000611da3602283612269565b9150611dae8261260c565b604082019050919050565b6000611dc6601d83612269565b9150611dd18261265b565b602082019050919050565b6000611de9601783612269565b9150611df482612684565b602082019050919050565b6000611e0c602183612269565b9150611e17826126ad565b604082019050919050565b6000611e2f602583612269565b9150611e3a826126fc565b604082019050919050565b6000611e52602483612269565b9150611e5d8261274b565b604082019050919050565b6000611e75601f83612269565b9150611e808261279a565b602082019050919050565b611e94816123d7565b82525050565b611ea3816123d7565b82525050565b611eba611eb5826123d7565b6124e6565b82525050565b611ec9816123e1565b82525050565b6000611edb8285611cbd565b602082019150611eeb8284611ea9565b6020820191508190509392505050565b6000602082019050611f106000830184611c32565b92915050565b60006020820190508181036000830152611f308184611c41565b905092915050565b6000602082019050611f4d6000830184611c9f565b92915050565b600060e082019050611f68600083018b611cae565b611f75602083018a611e9a565b8181036040830152611f8881888a611cd4565b9050611f976060830187611e9a565b611fa46080830186611e9a565b81810360a0830152611fb68185611d01565b9050611fc560c0830184611c32565b9998505050505050505050565b60006020820190508181036000830152611fec8184611d01565b905092915050565b6000602082019050818103600083015261200e8184611d3a565b905092915050565b6000602082019050818103600083015261202f81611d73565b9050919050565b6000602082019050818103600083015261204f81611d96565b9050919050565b6000602082019050818103600083015261206f81611db9565b9050919050565b6000602082019050818103600083015261208f81611ddc565b9050919050565b600060208201905081810360008301526120af81611dff565b9050919050565b600060208201905081810360008301526120cf81611e22565b9050919050565b600060208201905081810360008301526120ef81611e45565b9050919050565b6000602082019050818103600083015261210f81611e68565b9050919050565b600060208201905061212b6000830184611e9a565b92915050565b60006040820190506121466000830185611e9a565b6121536020830184611e9a565b9392505050565b600060608201905061216f6000830186611e9a565b61217c6020830185611e9a565b818103604083015261218e8184611d01565b9050949350505050565b60006020820190506121ad6000830184611ec0565b92915050565b60006121bd6121ce565b90506121c98282612462565b919050565b6000604051905090565b600067ffffffffffffffff8211156121f3576121f261257d565b5b6121fc826125ac565b9050602081019050919050565b6000819050602082019050919050565b600081519050919050565b600081519050919050565b600081519050919050565b6000602082019050919050565b600082825260208201905092915050565b600082825260208201905092915050565b600082825260208201905092915050565b6000612285826123d7565b9150612290836123d7565b9250827fffffffffffffffffffffffffffffffffffffffffffffffffffffffffffffffff038211156122c5576122c46124f0565b5b828201905092915050565b60006122db826123d7565b91506122e6836123d7565b9250826122f6576122f561251f565b5b828204905092915050565b600061230c826123d7565b9150612317836123d7565b9250817fffffffffffffffffffffffffffffffffffffffffffffffffffffffffffffffff04831182151516156123505761234f6124f0565b5b828202905092915050565b6000612366826123d7565b9150612371836123d7565b925082821015612384576123836124f0565b5b828203905092915050565b600061239a826123b7565b9050919050565b60008115159050919050565b6000819050919050565b600073ffffffffffffffffffffffffffffffffffffffff82169050919050565b6000819050919050565b600060ff82169050919050565b82818337600083830152505050565b60005b8381101561241b578082015181840152602081019050612400565b8381111561242a576000848401525b50505050565b6000600282049050600182168061244857607f821691505b6020821081141561245c5761245b61254e565b5b50919050565b61246b826125ac565b810181811067ffffffffffffffff8211171561248a5761248961257d565b5b80604052505050565b600061249e826123d7565b91507fffffffffffffffffffffffffffffffffffffffffffffffffffffffffffffffff8214156124d1576124d06124f0565b5b600182019050919050565b6000819050919050565b6000819050919050565b7f4e487b7100000000000000000000000000000000000000000000000000000000600052601160045260246000fd5b7f4e487b7100000000000000000000000000000000000000000000000000000000600052601260045260246000fd5b7f4e487b7100000000000000000000000000000000000000000000000000000000600052602260045260246000fd5b7f4e487b7100000000000000000000000000000000000000000000000000000000600052604160045260246000fd5b6000601f19601f8301169050919050565b7f45524332303a207472616e7366657220746f20746865207a65726f206164647260008201527f6573730000000000000000000000000000000000000000000000000000000000602082015250565b7f45524332303a20617070726f766520746f20746865207a65726f20616464726560008201527f7373000000000000000000000000000000000000000000000000000000000000602082015250565b7f6964206d7573742062652068617368206f662062797465732064617461000000600082015250565b7f6e6f6e63652073686f756c6420626520636f7272656374000000000000000000600082015250565b7f45524332303a206275726e2066726f6d20746865207a65726f2061646472657360008201527f7300000000000000000000000000000000000000000000000000000000000000602082015250565b7f45524332303a207472616e736665722066726f6d20746865207a65726f20616460008201527f6472657373000000000000000000000000000000000000000000000000000000602082015250565b7f45524332303a20617070726f76652066726f6d20746865207a65726f2061646460008201527f7265737300000000000000000000000000000000000000000000000000000000602082015250565b7f45524332303a206d696e7420746f20746865207a65726f206164647265737300600082015250565b6127cc8161238f565b81146127d757600080fd5b50565b6127e3816123ad565b81146127ee57600080fd5b50565b6127fa816123d7565b811461280557600080fd5b5056fea2646970667358221220c10170b5b815dc4863c131b01c0739ada9c0ab232be270b0179e32d74ebf6b3264736f6c63430008030033",
  "linkReferences": {},
  "deployedLinkReferences": {}
}