{
  "_format": "hh-sol-artifact-1",
  "contractName": "TellorPlayground",
  "sourceName": "contracts/TellorPlayground.sol",
  "abi": [
    {
      "inputs": [],
      "stateMutability": "nonpayable",
      "type": "constructor"
    },
    {
      "anonymous": false,
      "inputs": [
        {
          "indexed": true,
          "internalType": "address",
          "name": "owner",
          "type": "address"
        },
        {
          "indexed": true,
          "internalType": "address",
          "name": "spender",
          "type": "address"
        },
        {
          "indexed": false,
          "internalType": "uint256",
          "name": "value",
          "type": "uint256"
        }
      ],
      "name": "Approval",
      "type": "event"
    },
    {
      "anonymous": false,
      "inputs": [
        {
          "indexed": false,
          "internalType": "bytes32",
          "name": "_queryId",
          "type": "bytes32"
        },
        {
          "indexed": false,
          "internalType": "uint256",
          "name": "_time",
          "type": "uint256"
        },
        {
          "indexed": false,
          "internalType": "bytes",
          "name": "_value",
          "type": "bytes"
        },
        {
          "indexed": false,
          "internalType": "uint256",
          "name": "_reward",
          "type": "uint256"
        },
        {
          "indexed": false,
          "internalType": "uint256",
          "name": "_nonce",
          "type": "uint256"
        },
        {
          "indexed": false,
          "internalType": "bytes",
          "name": "_queryData",
          "type": "bytes"
        },
        {
          "indexed": false,
          "internalType": "address",
          "name": "_reporter",
          "type": "address"
        }
      ],
      "name": "NewReport",
      "type": "event"
    },
    {
      "anonymous": false,
      "inputs": [
        {
          "indexed": false,
          "internalType": "address",
          "name": "_staker",
          "type": "address"
        },
        {
          "indexed": false,
          "internalType": "uint256",
          "name": "_amount",
          "type": "uint256"
        }
      ],
      "name": "NewStaker",
      "type": "event"
    },
    {
      "anonymous": false,
      "inputs": [
        {
          "indexed": false,
          "internalType": "address",
          "name": "_staker",
          "type": "address"
        },
        {
          "indexed": false,
          "internalType": "uint256",
          "name": "_amount",
          "type": "uint256"
        }
      ],
      "name": "StakeWithdrawRequested",
      "type": "event"
    },
    {
      "anonymous": false,
      "inputs": [
        {
          "indexed": false,
          "internalType": "address",
          "name": "_staker",
          "type": "address"
        }
      ],
      "name": "StakeWithdrawn",
      "type": "event"
    },
    {
      "anonymous": false,
      "inputs": [
        {
          "indexed": true,
          "internalType": "address",
          "name": "_user",
          "type": "address"
        },
        {
          "indexed": true,
          "internalType": "bytes32",
          "name": "_queryId",
          "type": "bytes32"
        },
        {
          "indexed": false,
          "internalType": "uint256",
          "name": "_tip",
          "type": "uint256"
        },
        {
          "indexed": false,
          "internalType": "uint256",
          "name": "_totalTip",
          "type": "uint256"
        },
        {
          "indexed": false,
          "internalType": "bytes",
          "name": "_queryData",
          "type": "bytes"
        }
      ],
      "name": "TipAdded",
      "type": "event"
    },
    {
      "anonymous": false,
      "inputs": [
        {
          "indexed": true,
          "internalType": "address",
          "name": "from",
          "type": "address"
        },
        {
          "indexed": true,
          "internalType": "address",
          "name": "to",
          "type": "address"
        },
        {
          "indexed": false,
          "internalType": "uint256",
          "name": "value",
          "type": "uint256"
        }
      ],
      "name": "Transfer",
      "type": "event"
    },
    {
      "inputs": [
        {
          "internalType": "bytes32",
          "name": "",
          "type": "bytes32"
        }
      ],
      "name": "addresses",
      "outputs": [
        {
          "internalType": "address",
          "name": "",
          "type": "address"
        }
      ],
      "stateMutability": "view",
      "type": "function"
    },
    {
      "inputs": [
        {
          "internalType": "address",
          "name": "_owner",
          "type": "address"
        },
        {
          "internalType": "address",
          "name": "_spender",
          "type": "address"
        }
      ],
      "name": "allowance",
      "outputs": [
        {
          "internalType": "uint256",
          "name": "",
          "type": "uint256"
        }
      ],
      "stateMutability": "view",
      "type": "function"
    },
    {
      "inputs": [
        {
          "internalType": "address",
          "name": "_spender",
          "type": "address"
        },
        {
          "internalType": "uint256",
          "name": "_amount",
          "type": "uint256"
        }
      ],
      "name": "approve",
      "outputs": [
        {
          "internalType": "bool",
          "name": "",
          "type": "bool"
        }
      ],
      "stateMutability": "nonpayable",
      "type": "function"
    },
    {
      "inputs": [
        {
          "internalType": "address",
          "name": "_account",
          "type": "address"
        }
      ],
      "name": "balanceOf",
      "outputs": [
        {
          "internalType": "uint256",
          "name": "",
          "type": "uint256"
        }
      ],
      "stateMutability": "view",
      "type": "function"
    },
    {
      "inputs": [
        {
          "internalType": "bytes32",
          "name": "_queryId",
          "type": "bytes32"
        },
        {
          "internalType": "uint256",
          "name": "_timestamp",
          "type": "uint256"
        }
      ],
      "name": "beginDispute",
      "outputs": [],
      "stateMutability": "nonpayable",
      "type": "function"
    },
    {
      "inputs": [],
      "name": "decimals",
      "outputs": [
        {
          "internalType": "uint8",
          "name": "",
          "type": "uint8"
        }
      ],
      "stateMutability": "view",
      "type": "function"
    },
    {
      "inputs": [
        {
          "internalType": "uint256",
          "name": "_amount",
          "type": "uint256"
        }
      ],
      "name": "depositStake",
      "outputs": [],
      "stateMutability": "nonpayable",
      "type": "function"
    },
    {
      "inputs": [
        {
          "internalType": "address",
          "name": "_user",
          "type": "address"
        }
      ],
      "name": "faucet",
      "outputs": [],
      "stateMutability": "nonpayable",
      "type": "function"
    },
    {
      "inputs": [
        {
          "internalType": "bytes32",
          "name": "_queryId",
          "type": "bytes32"
        }
      ],
      "name": "getCurrentReward",
      "outputs": [
        {
          "internalType": "uint256",
          "name": "",
          "type": "uint256"
        },
        {
          "internalType": "uint256",
          "name": "",
          "type": "uint256"
        }
      ],
      "stateMutability": "view",
      "type": "function"
    },
    {
      "inputs": [
        {
          "internalType": "bytes32",
          "name": "_queryId",
          "type": "bytes32"
        }
      ],
      "name": "getNewValueCountbyQueryId",
      "outputs": [
        {
          "internalType": "uint256",
          "name": "",
          "type": "uint256"
        }
      ],
      "stateMutability": "view",
      "type": "function"
    },
    {
      "inputs": [
        {
          "internalType": "bytes32",
          "name": "_queryId",
          "type": "bytes32"
        },
        {
          "internalType": "uint256",
          "name": "_timestamp",
          "type": "uint256"
        }
      ],
      "name": "getReporterByTimestamp",
      "outputs": [
        {
          "internalType": "address",
          "name": "",
          "type": "address"
        }
      ],
      "stateMutability": "view",
      "type": "function"
    },
    {
      "inputs": [
        {
          "internalType": "address",
          "name": "_staker",
          "type": "address"
        }
      ],
      "name": "getStakerInfo",
      "outputs": [
        {
          "internalType": "uint256",
          "name": "",
          "type": "uint256"
        },
        {
          "internalType": "uint256",
          "name": "",
          "type": "uint256"
        },
        {
          "internalType": "uint256",
          "name": "",
          "type": "uint256"
        },
        {
          "internalType": "uint256",
          "name": "",
          "type": "uint256"
        },
        {
          "internalType": "uint256",
          "name": "",
          "type": "uint256"
        }
      ],
      "stateMutability": "view",
      "type": "function"
    },
    {
      "inputs": [
        {
          "internalType": "bytes32",
          "name": "_queryId",
          "type": "bytes32"
        },
        {
          "internalType": "uint256",
          "name": "_index",
          "type": "uint256"
        }
      ],
      "name": "getTimestampbyQueryIdandIndex",
      "outputs": [
        {
          "internalType": "uint256",
          "name": "",
          "type": "uint256"
        }
      ],
      "stateMutability": "view",
      "type": "function"
    },
    {
      "inputs": [
        {
          "internalType": "bytes32",
          "name": "_hash",
          "type": "bytes32"
        }
      ],
      "name": "getVoteRounds",
      "outputs": [
        {
          "internalType": "uint256[]",
          "name": "",
          "type": "uint256[]"
        }
      ],
      "stateMutability": "view",
      "type": "function"
    },
    {
      "inputs": [
        {
          "internalType": "bytes32",
          "name": "",
          "type": "bytes32"
        },
        {
          "internalType": "uint256",
          "name": "",
          "type": "uint256"
        }
      ],
      "name": "isDisputed",
      "outputs": [
        {
          "internalType": "bool",
          "name": "",
          "type": "bool"
        }
      ],
      "stateMutability": "view",
      "type": "function"
    },
    {
      "inputs": [],
      "name": "name",
      "outputs": [
        {
          "internalType": "string",
          "name": "",
          "type": "string"
        }
      ],
      "stateMutability": "view",
      "type": "function"
    },
    {
      "inputs": [
        {
          "internalType": "bytes32",
          "name": "",
          "type": "bytes32"
        },
        {
          "internalType": "uint256",
          "name": "",
          "type": "uint256"
        }
      ],
      "name": "reporterByTimestamp",
      "outputs": [
        {
          "internalType": "address",
          "name": "",
          "type": "address"
        }
      ],
      "stateMutability": "view",
      "type": "function"
    },
    {
      "inputs": [
        {
          "internalType": "uint256",
          "name": "_amount",
          "type": "uint256"
        }
      ],
      "name": "requestStakingWithdraw",
      "outputs": [],
      "stateMutability": "nonpayable",
      "type": "function"
    },
    {
      "inputs": [
        {
          "internalType": "bytes32",
          "name": "_queryId",
          "type": "bytes32"
        },
        {
          "internalType": "uint256",
          "name": "_timestamp",
          "type": "uint256"
        }
      ],
      "name": "retrieveData",
      "outputs": [
        {
          "internalType": "bytes",
          "name": "",
          "type": "bytes"
        }
      ],
      "stateMutability": "view",
      "type": "function"
    },
    {
      "inputs": [
        {
          "internalType": "bytes32",
          "name": "_queryId",
          "type": "bytes32"
        },
        {
          "internalType": "bytes",
          "name": "_value",
          "type": "bytes"
        },
        {
          "internalType": "uint256",
          "name": "_nonce",
          "type": "uint256"
        },
        {
          "internalType": "bytes",
          "name": "_queryData",
          "type": "bytes"
        }
      ],
      "name": "submitValue",
      "outputs": [],
      "stateMutability": "nonpayable",
      "type": "function"
    },
    {
      "inputs": [],
      "name": "symbol",
      "outputs": [
        {
          "internalType": "string",
          "name": "",
          "type": "string"
        }
      ],
      "stateMutability": "view",
      "type": "function"
    },
    {
      "inputs": [],
      "name": "timeBasedReward",
      "outputs": [
        {
          "internalType": "uint256",
          "name": "",
          "type": "uint256"
        }
      ],
      "stateMutability": "view",
      "type": "function"
    },
    {
      "inputs": [],
      "name": "timeOfLastNewValue",
      "outputs": [
        {
          "internalType": "uint256",
          "name": "",
          "type": "uint256"
        }
      ],
      "stateMutability": "view",
      "type": "function"
    },
    {
      "inputs": [
        {
          "internalType": "bytes32",
          "name": "",
          "type": "bytes32"
        },
        {
          "internalType": "uint256",
          "name": "",
          "type": "uint256"
        }
      ],
      "name": "timestamps",
      "outputs": [
        {
          "internalType": "uint256",
          "name": "",
          "type": "uint256"
        }
      ],
      "stateMutability": "view",
      "type": "function"
    },
    {
      "inputs": [
        {
          "internalType": "bytes32",
          "name": "_queryId",
          "type": "bytes32"
        },
        {
          "internalType": "uint256",
          "name": "_amount",
          "type": "uint256"
        },
        {
          "internalType": "bytes",
          "name": "_queryData",
          "type": "bytes"
        }
      ],
      "name": "tipQuery",
      "outputs": [],
      "stateMutability": "nonpayable",
      "type": "function"
    },
    {
      "inputs": [
        {
          "internalType": "bytes32",
          "name": "",
          "type": "bytes32"
        }
      ],
      "name": "tips",
      "outputs": [
        {
          "internalType": "uint256",
          "name": "",
          "type": "uint256"
        }
      ],
      "stateMutability": "view",
      "type": "function"
    },
    {
      "inputs": [],
      "name": "tipsInContract",
      "outputs": [
        {
          "internalType": "uint256",
          "name": "",
          "type": "uint256"
        }
      ],
      "stateMutability": "view",
      "type": "function"
    },
    {
      "inputs": [],
      "name": "totalSupply",
      "outputs": [
        {
          "internalType": "uint256",
          "name": "",
          "type": "uint256"
        }
      ],
      "stateMutability": "view",
      "type": "function"
    },
    {
      "inputs": [
        {
          "internalType": "address",
          "name": "_recipient",
          "type": "address"
        },
        {
          "internalType": "uint256",
          "name": "_amount",
          "type": "uint256"
        }
      ],
      "name": "transfer",
      "outputs": [
        {
          "internalType": "bool",
          "name": "",
          "type": "bool"
        }
      ],
      "stateMutability": "nonpayable",
      "type": "function"
    },
    {
      "inputs": [
        {
          "internalType": "address",
          "name": "_sender",
          "type": "address"
        },
        {
          "internalType": "address",
          "name": "_recipient",
          "type": "address"
        },
        {
          "internalType": "uint256",
          "name": "_amount",
          "type": "uint256"
        }
      ],
      "name": "transferFrom",
      "outputs": [
        {
          "internalType": "bool",
          "name": "",
          "type": "bool"
        }
      ],
      "stateMutability": "nonpayable",
      "type": "function"
    },
    {
      "inputs": [
        {
          "internalType": "bytes32",
          "name": "",
          "type": "bytes32"
        },
        {
          "internalType": "uint256",
          "name": "",
          "type": "uint256"
        }
      ],
      "name": "values",
      "outputs": [
        {
          "internalType": "bytes",
          "name": "",
          "type": "bytes"
        }
      ],
      "stateMutability": "view",
      "type": "function"
    },
    {
      "inputs": [],
      "name": "voteCount",
      "outputs": [
        {
          "internalType": "uint256",
          "name": "",
          "type": "uint256"
        }
      ],
      "stateMutability": "view",
      "type": "function"
    },
    {
      "inputs": [
        {
          "internalType": "bytes32",
          "name": "",
          "type": "bytes32"
        },
        {
          "internalType": "uint256",
          "name": "",
          "type": "uint256"
        }
      ],
      "name": "voteRounds",
      "outputs": [
        {
          "internalType": "uint256",
          "name": "",
          "type": "uint256"
        }
      ],
      "stateMutability": "view",
      "type": "function"
    },
    {
      "inputs": [],
      "name": "withdrawStake",
      "outputs": [],
      "stateMutability": "nonpayable",
      "type": "function"
    }
  ],
  "bytecode": "0x608060405242600a553480156200001557600080fd5b506040518060400160405280601081526020017f54656c6c6f72506c617967726f756e6400000000000000000000000000000000815250600e9080519060200190620000639291906200014b565b506040518060400160405280600481526020017f5452425000000000000000000000000000000000000000000000000000000000815250600f9080519060200190620000b19291906200014b565b506012601060006101000a81548160ff021916908360ff16021790555030600080604051602001620000e39062000222565b60405160208183030381529060405280519060200120815260200190815260200160002060006101000a81548173ffffffffffffffffffffffffffffffffffffffff021916908373ffffffffffffffffffffffffffffffffffffffff160217905550620002d2565b828054620001599062000244565b90600052602060002090601f0160209004810192826200017d5760008555620001c9565b82601f106200019857805160ff1916838001178555620001c9565b82800160010185558215620001c9579182015b82811115620001c8578251825591602001919060010190620001ab565b5b509050620001d89190620001dc565b5090565b5b80821115620001f7576000816000905550600101620001dd565b5090565b60006200020a60148362000239565b91506200021782620002a9565b601482019050919050565b60006200022f82620001fb565b9150819050919050565b600081905092915050565b600060028204905060018216806200025d57607f821691505b602082108114156200027457620002736200027a565b5b50919050565b7f4e487b7100000000000000000000000000000000000000000000000000000000600052602260045260246000fd5b7f5f474f5645524e414e43455f434f4e5452414354000000000000000000000000600082015250565b61326880620002e26000396000f3fe608060405234801561001057600080fd5b50600436106102065760003560e01c806377b03e0d1161011a578063c5958af9116100ad578063ce5e11bf1161007c578063ce5e11bf14610666578063dd62ed3e14610696578063e07c5486146106c6578063ef0234ad146106f6578063f25133f31461071257610206565b8063c5958af9146105cc578063c6384071146105fc578063c979fe9f1461061a578063cb82cc8f1461064a57610206565b8063a1e588a5116100e9578063a1e588a514610545578063a9059cbb14610576578063b86d1d63146105a6578063bed9d861146105c257610206565b806377b03e0d146104bd5780638929f4c6146104ed57806395d89b411461050957806396426d971461052757610206565b8063313ce5671161019d578063699f200f1161016c578063699f200f146103ed57806369d43bd31461041d5780636fd4f2291461043b57806370a0823114610459578063733bdef01461048957610206565b8063313ce567146103535780635eaa9ced14610371578063602bf2271461038d57806364473df2146103bd57610206565b80631f379acc116101d95780631f379acc146102a7578063217053c0146102c357806323b872dd146102f3578063248638e51461032357610206565b806306fdde031461020b578063091b50ff14610229578063095ea7b31461025957806318160ddd14610289575b600080fd5b610213610742565b60405161022091906128ca565b60405180910390f35b610243600480360381019061023e9190612392565b6107d4565b60405161025091906128a8565b60405180910390f35b610273600480360381019061026e9190612295565b610881565b604051610280919061280e565b60405180910390f35b610291610898565b60405161029e9190612a4c565b60405180910390f35b6102c160048036038101906102bc9190612392565b6108a2565b005b6102dd60048036038101906102d89190612392565b6109a6565b6040516102ea91906127a8565b60405180910390f35b61030d60048036038101906103089190612246565b6109e8565b60405161031a919061280e565b60405180910390f35b61033d600480360381019061033891906122d1565b610a92565b60405161034a91906127ec565b60405180910390f35b61035b610afd565b6040516103689190612b21565b60405180910390f35b61038b600480360381019061038691906122fa565b610b14565b005b6103a760048036038101906103a291906122d1565b610e01565b6040516103b49190612a4c565b60405180910390f35b6103d760048036038101906103d29190612392565b610e19565b6040516103e4919061280e565b60405180910390f35b610407600480360381019061040291906122d1565b610e48565b60405161041491906127a8565b60405180910390f35b610425610e7b565b6040516104329190612a4c565b60405180910390f35b610443610e81565b6040516104509190612a4c565b60405180910390f35b610473600480360381019061046e91906121e1565b610e87565b6040516104809190612a4c565b60405180910390f35b6104a3600480360381019061049e91906121e1565b610ed0565b6040516104b4959493929190612ace565b60405180910390f35b6104d760048036038101906104d291906122d1565b61103a565b6040516104e49190612a4c565b60405180910390f35b61050760048036038101906105029190612435565b61105a565b005b610511611160565b60405161051e91906128ca565b60405180910390f35b61052f6111f2565b60405161053c9190612a4c565b60405180910390f35b61055f600480360381019061055a91906122d1565b6111fe565b60405161056d929190612a67565b60405180910390f35b610590600480360381019061058b9190612295565b61128e565b60405161059d919061280e565b60405180910390f35b6105c060048036038101906105bb91906121e1565b6112a5565b005b6105ca6112bb565b005b6105e660048036038101906105e19190612392565b6113ed565b6040516105f391906128a8565b60405180910390f35b6106046114a4565b6040516106119190612a4c565b60405180910390f35b610634600480360381019061062f9190612392565b6114aa565b6040516106419190612a4c565b60405180910390f35b610664600480360381019061065f9190612435565b6114db565b005b610680600480360381019061067b9190612392565b6115ff565b60405161068d9190612a4c565b60405180910390f35b6106b060048036038101906106ab919061220a565b611699565b6040516106bd9190612a4c565b60405180910390f35b6106e060048036038101906106db9190612392565b611720565b6040516106ed91906127a8565b60405180910390f35b610710600480360381019061070b91906123ce565b61176f565b005b61072c60048036038101906107279190612392565b611899565b6040516107399190612a4c565b60405180910390f35b6060600e805461075190612db9565b80601f016020809104026020016040519081016040528092919081815260200182805461077d90612db9565b80156107ca5780601f1061079f576101008083540402835291602001916107ca565b820191906000526020600020905b8154815290600101906020018083116107ad57829003601f168201915b5050505050905090565b600660205281600052604060002060205280600052604060002060009150915050805461080090612db9565b80601f016020809104026020016040519081016040528092919081815260200182805461082c90612db9565b80156108795780601f1061084e57610100808354040283529160200191610879565b820191906000526020600020905b81548152906001019060200180831161085c57829003601f168201915b505050505081565b600061088e3384846118ca565b6001905092915050565b6000600d54905090565b6040518060200160405280600081525060066000848152602001908152602001600020600083815260200190815260200160002090805190602001906108e9929190611fc7565b506001806000848152602001908152602001600020600083815260200190815260200160002060006101000a81548160ff021916908315150217905550600c600081548092919061093990612e1c565b919050555060076000838360405160200161095592919061277c565b604051602081830303815290604052805190602001208152602001908152602001600020600c5490806001815401808255809150506001900390600052602060002001600090919091909150555050565b60026020528160005260406000206020528060005260406000206000915091509054906101000a900473ffffffffffffffffffffffffffffffffffffffff1681565b60006109f5848484611a95565b610a87843384600860008973ffffffffffffffffffffffffffffffffffffffff1673ffffffffffffffffffffffffffffffffffffffff16815260200190815260200160002060003373ffffffffffffffffffffffffffffffffffffffff1673ffffffffffffffffffffffffffffffffffffffff16815260200190815260200160002054610a829190612ce4565b6118ca565b600190509392505050565b606060076000838152602001908152602001600020805480602002602001604051908101604052809291908181526020018280548015610af157602002820191906000526020600020905b815481526020019060010190808311610add575b50505050509050919050565b6000601060009054906101000a900460ff16905090565b60046000868152602001908152602001600020805490508214610b6c576040517f08c379a0000000000000000000000000000000000000000000000000000000008152600401610b639061296c565b60405180910390fd5b8080519060200120851480610b85575060648560001c11155b610bc4576040517f08c379a0000000000000000000000000000000000000000000000000000000008152600401610bbb9061292c565b60405180910390fd5b83836006600088815260200190815260200160002060004281526020019081526020016000209190610bf792919061204d565b5060046000868152602001908152602001600020429080600181540180825580915050600190039060005260206000200160009091909190915055600080610c3e876111fe565b9150915060008282610c509190612c03565b1115610c6d57610c6b338383610c669190612c03565b61128e565b505b42600a8190555081600b6000828254610c869190612ce4565b92505081905550600060056000898152602001908152602001600020819055503360026000898152602001908152602001600020600042815260200190815260200160002060006101000a81548173ffffffffffffffffffffffffffffffffffffffff021916908373ffffffffffffffffffffffffffffffffffffffff16021790555042600360003373ffffffffffffffffffffffffffffffffffffffff1673ffffffffffffffffffffffffffffffffffffffff16815260200190815260200160002060030181905550600360003373ffffffffffffffffffffffffffffffffffffffff1673ffffffffffffffffffffffffffffffffffffffff1681526020019081526020016000206004016000815480929190610da390612e1c565b91905055507fab1d593f8e2ecb165106e30a39db6769078d35c3fdbb110f24932f0d7af68c29874288888587610dd99190612c03565b898933604051610df0989796959493929190612829565b60405180910390a150505050505050565b60056020528060005260406000206000915090505481565b60016020528160005260406000206020528060005260406000206000915091509054906101000a900460ff1681565b60006020528060005260406000206000915054906101000a900473ffffffffffffffffffffffffffffffffffffffff1681565b600b5481565b600a5481565b6000600960008373ffffffffffffffffffffffffffffffffffffffff1673ffffffffffffffffffffffffffffffffffffffff168152602001908152602001600020549050919050565b6000806000806000600360008773ffffffffffffffffffffffffffffffffffffffff1673ffffffffffffffffffffffffffffffffffffffff16815260200190815260200160002060000154600360008873ffffffffffffffffffffffffffffffffffffffff1673ffffffffffffffffffffffffffffffffffffffff16815260200190815260200160002060010154600360008973ffffffffffffffffffffffffffffffffffffffff1673ffffffffffffffffffffffffffffffffffffffff16815260200190815260200160002060020154600360008a73ffffffffffffffffffffffffffffffffffffffff1673ffffffffffffffffffffffffffffffffffffffff16815260200190815260200160002060030154600360008b73ffffffffffffffffffffffffffffffffffffffff1673ffffffffffffffffffffffffffffffffffffffff168152602001908152602001600020600401549450945094509450945091939590929450565b600060046000838152602001908152602001600020805490509050919050565b6000600360003373ffffffffffffffffffffffffffffffffffffffff1673ffffffffffffffffffffffffffffffffffffffff168152602001908152602001600020905081816001015410156110e4576040517f08c379a00000000000000000000000000000000000000000000000000000000081526004016110db90612a0c565b60405180910390fd5b428160000181905550818160020160008282546111019190612c03565b925050819055508181600101600082825461111c9190612ce4565b925050819055507f3d8d9df4bd0172df32e557fa48e96435cd7f2cac06aaffacfaee608e6f7898ef33836040516111549291906127c3565b60405180910390a15050565b6060600f805461116f90612db9565b80601f016020809104026020016040519081016040528092919081815260200182805461119b90612db9565b80156111e85780601f106111bd576101008083540402835291602001916111e8565b820191906000526020600020905b8154815290600101906020018083116111cb57829003601f168201915b5050505050905090565b6706f05b59d3b2000081565b6000806000600a54426112119190612ce4565b9050600061012c6706f05b59d3b200008361122c9190612c8a565b6112369190612c59565b9050600b54816112469190612c03565b61124f30610e87565b101561126e57600b5461126130610e87565b61126b9190612ce4565b90505b600560008681526020019081526020016000205481935093505050915091565b600061129b338484611a95565b6001905092915050565b6112b881683635c9adc5dea00000611c8b565b50565b6000600360003373ffffffffffffffffffffffffffffffffffffffff1673ffffffffffffffffffffffffffffffffffffffff168152602001908152602001600020905062093a808160000154426113129190612ce4565b1015611353576040517f08c379a000000000000000000000000000000000000000000000000000000000815260040161134a9061294c565b60405180910390fd5b600081600201541161139a576040517f08c379a0000000000000000000000000000000000000000000000000000000008152600401611391906129cc565b60405180910390fd5b6113a930338360020154611a95565b600081600201819055507f4a7934670bd8304e7da22378be1368f7c4fef17c5aee81804beda8638fe428ec336040516113e291906127a8565b60405180910390a150565b6060600660008481526020019081526020016000206000838152602001908152602001600020805461141e90612db9565b80601f016020809104026020016040519081016040528092919081815260200182805461144a90612db9565b80156114975780601f1061146c57610100808354040283529160200191611497565b820191906000526020600020905b81548152906001019060200180831161147a57829003601f168201915b5050505050905092915050565b600c5481565b600760205281600052604060002081815481106114c657600080fd5b90600052602060002001600091509150505481565b6000600360003373ffffffffffffffffffffffffffffffffffffffff1673ffffffffffffffffffffffffffffffffffffffff16815260200190815260200160002090506000816002015411156115895781816002015410611556578181600201600082825461154a9190612ce4565b92505081905550611584565b611570333083600201548561156b9190612ce4565b611dd4565b61157957600080fd5b600081600201819055505b61159e565b611594333084611dd4565b61159d57600080fd5b5b428160000181905550818160010160008282546115bb9190612c03565b925050819055507fa96c2cce65119a2170d1711a6e82f18f2006448828483ba7545e59547654364733836040516115f39291906127c3565b60405180910390a15050565b60008060046000858152602001908152602001600020805490509050600081148061162a5750828111155b15611639576000915050611693565b600460008581526020019081526020016000208381548110611684577f4e487b7100000000000000000000000000000000000000000000000000000000600052603260045260246000fd5b90600052602060002001549150505b92915050565b6000600860008473ffffffffffffffffffffffffffffffffffffffff1673ffffffffffffffffffffffffffffffffffffffff16815260200190815260200160002060008373ffffffffffffffffffffffffffffffffffffffff1673ffffffffffffffffffffffffffffffffffffffff16815260200190815260200160002054905092915050565b600060026000848152602001908152602001600020600083815260200190815260200160002060009054906101000a900473ffffffffffffffffffffffffffffffffffffffff16905092915050565b8080519060200120831480611788575060648360001c11155b6117c7576040517f08c379a00000000000000000000000000000000000000000000000000000000081526004016117be9061292c565b60405180910390fd5b6117d2333084611a95565b6002826117df9190612c59565b91506117eb3083611e7e565b81600b60008282546117fd9190612c03565b92505081905550816005600085815260200190815260200160002060008282546118279190612c03565b92505081905550823373ffffffffffffffffffffffffffffffffffffffff167fd951d408a0f5057da5c25b826fb5ce403d56542962b6ac6994dbc6d5432fbff58460056000888152602001908152602001600020548560405161188c93929190612a90565b60405180910390a3505050565b600460205281600052604060002081815481106118b557600080fd5b90600052602060002001600091509150505481565b600073ffffffffffffffffffffffffffffffffffffffff168373ffffffffffffffffffffffffffffffffffffffff16141561193a576040517f08c379a0000000000000000000000000000000000000000000000000000000008152600401611931906129ec565b60405180910390fd5b600073ffffffffffffffffffffffffffffffffffffffff168273ffffffffffffffffffffffffffffffffffffffff1614156119aa576040517f08c379a00000000000000000000000000000000000000000000000000000000081526004016119a19061290c565b60405180910390fd5b80600860008573ffffffffffffffffffffffffffffffffffffffff1673ffffffffffffffffffffffffffffffffffffffff16815260200190815260200160002060008473ffffffffffffffffffffffffffffffffffffffff1673ffffffffffffffffffffffffffffffffffffffff168152602001908152602001600020819055508173ffffffffffffffffffffffffffffffffffffffff168373ffffffffffffffffffffffffffffffffffffffff167f8c5be1e5ebec7d5bd14f71427d1e84f3dd0314c0f7b2291e5b200ac8c7c3b92583604051611a889190612a4c565b60405180910390a3505050565b600073ffffffffffffffffffffffffffffffffffffffff168373ffffffffffffffffffffffffffffffffffffffff161415611b05576040517f08c379a0000000000000000000000000000000000000000000000000000000008152600401611afc906129ac565b60405180910390fd5b600073ffffffffffffffffffffffffffffffffffffffff168273ffffffffffffffffffffffffffffffffffffffff161415611b75576040517f08c379a0000000000000000000000000000000000000000000000000000000008152600401611b6c906128ec565b60405180910390fd5b80600960008573ffffffffffffffffffffffffffffffffffffffff1673ffffffffffffffffffffffffffffffffffffffff1681526020019081526020016000206000828254611bc49190612ce4565b9250508190555080600960008473ffffffffffffffffffffffffffffffffffffffff1673ffffffffffffffffffffffffffffffffffffffff1681526020019081526020016000206000828254611c1a9190612c03565b925050819055508173ffffffffffffffffffffffffffffffffffffffff168373ffffffffffffffffffffffffffffffffffffffff167fddf252ad1be2c89b69c2b068fc378daa952ba7f163c4a11628f55a4df523b3ef83604051611c7e9190612a4c565b60405180910390a3505050565b600073ffffffffffffffffffffffffffffffffffffffff168273ffffffffffffffffffffffffffffffffffffffff161415611cfb576040517f08c379a0000000000000000000000000000000000000000000000000000000008152600401611cf290612a2c565b60405180910390fd5b80600d6000828254611d0d9190612c03565b9250508190555080600960008473ffffffffffffffffffffffffffffffffffffffff1673ffffffffffffffffffffffffffffffffffffffff1681526020019081526020016000206000828254611d639190612c03565b925050819055508173ffffffffffffffffffffffffffffffffffffffff16600073ffffffffffffffffffffffffffffffffffffffff167fddf252ad1be2c89b69c2b068fc378daa952ba7f163c4a11628f55a4df523b3ef83604051611dc89190612a4c565b60405180910390a35050565b6000611de1848484611a95565b611e73843384600860008973ffffffffffffffffffffffffffffffffffffffff1673ffffffffffffffffffffffffffffffffffffffff16815260200190815260200160002060003073ffffffffffffffffffffffffffffffffffffffff1673ffffffffffffffffffffffffffffffffffffffff16815260200190815260200160002054611e6e9190612ce4565b6118ca565b600190509392505050565b600073ffffffffffffffffffffffffffffffffffffffff168273ffffffffffffffffffffffffffffffffffffffff161415611eee576040517f08c379a0000000000000000000000000000000000000000000000000000000008152600401611ee59061298c565b60405180910390fd5b80600960008473ffffffffffffffffffffffffffffffffffffffff1673ffffffffffffffffffffffffffffffffffffffff1681526020019081526020016000206000828254611f3d9190612ce4565b9250508190555080600d6000828254611f569190612ce4565b92505081905550600073ffffffffffffffffffffffffffffffffffffffff168273ffffffffffffffffffffffffffffffffffffffff167fddf252ad1be2c89b69c2b068fc378daa952ba7f163c4a11628f55a4df523b3ef83604051611fbb9190612a4c565b60405180910390a35050565b828054611fd390612db9565b90600052602060002090601f016020900481019282611ff5576000855561203c565b82601f1061200e57805160ff191683800117855561203c565b8280016001018555821561203c579182015b8281111561203b578251825591602001919060010190612020565b5b50905061204991906120d3565b5090565b82805461205990612db9565b90600052602060002090601f01602090048101928261207b57600085556120c2565b82601f1061209457803560ff19168380011785556120c2565b828001600101855582156120c2579182015b828111156120c15782358255916020019190600101906120a6565b5b5090506120cf91906120d3565b5090565b5b808211156120ec5760008160009055506001016120d4565b5090565b60006121036120fe84612b61565b612b3c565b90508281526020810184848401111561211b57600080fd5b612126848285612d77565b509392505050565b60008135905061213d816131ed565b92915050565b60008135905061215281613204565b92915050565b60008083601f84011261216a57600080fd5b8235905067ffffffffffffffff81111561218357600080fd5b60208301915083600182028301111561219b57600080fd5b9250929050565b600082601f8301126121b357600080fd5b81356121c38482602086016120f0565b91505092915050565b6000813590506121db8161321b565b92915050565b6000602082840312156121f357600080fd5b60006122018482850161212e565b91505092915050565b6000806040838503121561221d57600080fd5b600061222b8582860161212e565b925050602061223c8582860161212e565b9150509250929050565b60008060006060848603121561225b57600080fd5b60006122698682870161212e565b935050602061227a8682870161212e565b925050604061228b868287016121cc565b9150509250925092565b600080604083850312156122a857600080fd5b60006122b68582860161212e565b92505060206122c7858286016121cc565b9150509250929050565b6000602082840312156122e357600080fd5b60006122f184828501612143565b91505092915050565b60008060008060006080868803121561231257600080fd5b600061232088828901612143565b955050602086013567ffffffffffffffff81111561233d57600080fd5b61234988828901612158565b9450945050604061235c888289016121cc565b925050606086013567ffffffffffffffff81111561237957600080fd5b612385888289016121a2565b9150509295509295909350565b600080604083850312156123a557600080fd5b60006123b385828601612143565b92505060206123c4858286016121cc565b9150509250929050565b6000806000606084860312156123e357600080fd5b60006123f186828701612143565b9350506020612402868287016121cc565b925050604084013567ffffffffffffffff81111561241f57600080fd5b61242b868287016121a2565b9150509250925092565b60006020828403121561244757600080fd5b6000612455848285016121cc565b91505092915050565b600061246a8383612738565b60208301905092915050565b61247f81612d18565b82525050565b600061249082612ba2565b61249a8185612bd0565b93506124a583612b92565b8060005b838110156124d65781516124bd888261245e565b97506124c883612bc3565b9250506001810190506124a9565b5085935050505092915050565b6124ec81612d2a565b82525050565b6124fb81612d36565b82525050565b61251261250d82612d36565b612e65565b82525050565b60006125248385612be1565b9350612531838584612d77565b61253a83612f35565b840190509392505050565b600061255082612bad565b61255a8185612be1565b935061256a818560208601612d86565b61257381612f35565b840191505092915050565b600061258982612bb8565b6125938185612bf2565b93506125a3818560208601612d86565b6125ac81612f35565b840191505092915050565b60006125c4602383612bf2565b91506125cf82612f46565b604082019050919050565b60006125e7602283612bf2565b91506125f282612f95565b604082019050919050565b600061260a601d83612bf2565b915061261582612fe4565b602082019050919050565b600061262d601283612bf2565b91506126388261300d565b602082019050919050565b6000612650601783612bf2565b915061265b82613036565b602082019050919050565b6000612673602183612bf2565b915061267e8261305f565b604082019050919050565b6000612696602583612bf2565b91506126a1826130ae565b604082019050919050565b60006126b9602283612bf2565b91506126c4826130fd565b604082019050919050565b60006126dc602483612bf2565b91506126e78261314c565b604082019050919050565b60006126ff601b83612bf2565b915061270a8261319b565b602082019050919050565b6000612722601f83612bf2565b915061272d826131c4565b602082019050919050565b61274181612d60565b82525050565b61275081612d60565b82525050565b61276761276282612d60565b612e6f565b82525050565b61277681612d6a565b82525050565b60006127888285612501565b6020820191506127988284612756565b6020820191508190509392505050565b60006020820190506127bd6000830184612476565b92915050565b60006040820190506127d86000830185612476565b6127e56020830184612747565b9392505050565b600060208201905081810360008301526128068184612485565b905092915050565b600060208201905061282360008301846124e3565b92915050565b600060e08201905061283e600083018b6124f2565b61284b602083018a612747565b818103604083015261285e81888a612518565b905061286d6060830187612747565b61287a6080830186612747565b81810360a083015261288c8185612545565b905061289b60c0830184612476565b9998505050505050505050565b600060208201905081810360008301526128c28184612545565b905092915050565b600060208201905081810360008301526128e4818461257e565b905092915050565b60006020820190508181036000830152612905816125b7565b9050919050565b60006020820190508181036000830152612925816125da565b9050919050565b60006020820190508181036000830152612945816125fd565b9050919050565b6000602082019050818103600083015261296581612620565b9050919050565b6000602082019050818103600083015261298581612643565b9050919050565b600060208201905081810360008301526129a581612666565b9050919050565b600060208201905081810360008301526129c581612689565b9050919050565b600060208201905081810360008301526129e5816126ac565b9050919050565b60006020820190508181036000830152612a05816126cf565b9050919050565b60006020820190508181036000830152612a25816126f2565b9050919050565b60006020820190508181036000830152612a4581612715565b9050919050565b6000602082019050612a616000830184612747565b92915050565b6000604082019050612a7c6000830185612747565b612a896020830184612747565b9392505050565b6000606082019050612aa56000830186612747565b612ab26020830185612747565b8181036040830152612ac48184612545565b9050949350505050565b600060a082019050612ae36000830188612747565b612af06020830187612747565b612afd6040830186612747565b612b0a6060830185612747565b612b176080830184612747565b9695505050505050565b6000602082019050612b36600083018461276d565b92915050565b6000612b46612b57565b9050612b528282612deb565b919050565b6000604051905090565b600067ffffffffffffffff821115612b7c57612b7b612f06565b5b612b8582612f35565b9050602081019050919050565b6000819050602082019050919050565b600081519050919050565b600081519050919050565b600081519050919050565b6000602082019050919050565b600082825260208201905092915050565b600082825260208201905092915050565b600082825260208201905092915050565b6000612c0e82612d60565b9150612c1983612d60565b9250827fffffffffffffffffffffffffffffffffffffffffffffffffffffffffffffffff03821115612c4e57612c4d612e79565b5b828201905092915050565b6000612c6482612d60565b9150612c6f83612d60565b925082612c7f57612c7e612ea8565b5b828204905092915050565b6000612c9582612d60565b9150612ca083612d60565b9250817fffffffffffffffffffffffffffffffffffffffffffffffffffffffffffffffff0483118215151615612cd957612cd8612e79565b5b828202905092915050565b6000612cef82612d60565b9150612cfa83612d60565b925082821015612d0d57612d0c612e79565b5b828203905092915050565b6000612d2382612d40565b9050919050565b60008115159050919050565b6000819050919050565b600073ffffffffffffffffffffffffffffffffffffffff82169050919050565b6000819050919050565b600060ff82169050919050565b82818337600083830152505050565b60005b83811015612da4578082015181840152602081019050612d89565b83811115612db3576000848401525b50505050565b60006002820490506001821680612dd157607f821691505b60208210811415612de557612de4612ed7565b5b50919050565b612df482612f35565b810181811067ffffffffffffffff82111715612e1357612e12612f06565b5b80604052505050565b6000612e2782612d60565b91507fffffffffffffffffffffffffffffffffffffffffffffffffffffffffffffffff821415612e5a57612e59612e79565b5b600182019050919050565b6000819050919050565b6000819050919050565b7f4e487b7100000000000000000000000000000000000000000000000000000000600052601160045260246000fd5b7f4e487b7100000000000000000000000000000000000000000000000000000000600052601260045260246000fd5b7f4e487b7100000000000000000000000000000000000000000000000000000000600052602260045260246000fd5b7f4e487b7100000000000000000000000000000000000000000000000000000000600052604160045260246000fd5b6000601f19601f8301169050919050565b7f45524332303a207472616e7366657220746f20746865207a65726f206164647260008201527f6573730000000000000000000000000000000000000000000000000000000000602082015250565b7f45524332303a20617070726f766520746f20746865207a65726f20616464726560008201527f7373000000000000000000000000000000000000000000000000000000000000602082015250565b7f6964206d7573742062652068617368206f662062797465732064617461000000600082015250565b7f372064617973206469646e277420706173730000000000000000000000000000600082015250565b7f6e6f6e63652073686f756c6420626520636f7272656374000000000000000000600082015250565b7f45524332303a206275726e2066726f6d20746865207a65726f2061646472657360008201527f7300000000000000000000000000000000000000000000000000000000000000602082015250565b7f45524332303a207472616e736665722066726f6d20746865207a65726f20616460008201527f6472657373000000000000000000000000000000000000000000000000000000602082015250565b7f7265706f72746572206e6f74206c6f636b656420666f7220776974686472617760008201527f616c000000000000000000000000000000000000000000000000000000000000602082015250565b7f45524332303a20617070726f76652066726f6d20746865207a65726f2061646460008201527f7265737300000000000000000000000000000000000000000000000000000000602082015250565b7f696e73756666696369656e74207374616b65642062616c616e63650000000000600082015250565b7f45524332303a206d696e7420746f20746865207a65726f206164647265737300600082015250565b6131f681612d18565b811461320157600080fd5b50565b61320d81612d36565b811461321857600080fd5b50565b61322481612d60565b811461322f57600080fd5b5056fea2646970667358221220d6d6defe384cb57e129e09f3980376bedc3cdce3ee7e72bedd5aa279626fee2164736f6c63430008030033",
  "linkReferences": {},
  "deployedLinkReferences": {}
}