{
  "_format": "hh-sol-artifact-1",
  "contractName": "TellorPlayground",
  "sourceName": "contracts/TellorPlayground.sol",
  "abi": [
    {
      "inputs": [],
      "stateMutability": "nonpayable",
      "type": "constructor"
    },
    {
      "anonymous": false,
      "inputs": [
        {
          "indexed": true,
          "internalType": "address",
          "name": "owner",
          "type": "address"
        },
        {
          "indexed": true,
          "internalType": "address",
          "name": "spender",
          "type": "address"
        },
        {
          "indexed": false,
          "internalType": "uint256",
          "name": "value",
          "type": "uint256"
        }
      ],
      "name": "Approval",
      "type": "event"
    },
    {
      "anonymous": false,
      "inputs": [
        {
          "indexed": false,
          "internalType": "bytes32",
          "name": "_queryId",
          "type": "bytes32"
        },
        {
          "indexed": false,
          "internalType": "uint256",
          "name": "_time",
          "type": "uint256"
        },
        {
          "indexed": false,
          "internalType": "bytes",
          "name": "_value",
          "type": "bytes"
        },
        {
          "indexed": false,
          "internalType": "uint256",
          "name": "_nonce",
          "type": "uint256"
        },
        {
          "indexed": false,
          "internalType": "bytes",
          "name": "_queryData",
          "type": "bytes"
        },
        {
          "indexed": false,
          "internalType": "address",
          "name": "_reporter",
          "type": "address"
        }
      ],
      "name": "NewReport",
      "type": "event"
    },
    {
      "anonymous": false,
      "inputs": [
        {
          "indexed": false,
          "internalType": "address",
          "name": "_staker",
          "type": "address"
        },
        {
          "indexed": false,
          "internalType": "uint256",
          "name": "_amount",
          "type": "uint256"
        }
      ],
      "name": "NewStaker",
      "type": "event"
    },
    {
      "anonymous": false,
      "inputs": [
        {
          "indexed": false,
          "internalType": "address",
          "name": "_staker",
          "type": "address"
        },
        {
          "indexed": false,
          "internalType": "uint256",
          "name": "_amount",
          "type": "uint256"
        }
      ],
      "name": "StakeWithdrawRequested",
      "type": "event"
    },
    {
      "anonymous": false,
      "inputs": [
        {
          "indexed": false,
          "internalType": "address",
          "name": "_staker",
          "type": "address"
        }
      ],
      "name": "StakeWithdrawn",
      "type": "event"
    },
    {
      "anonymous": false,
      "inputs": [
        {
          "indexed": true,
          "internalType": "address",
          "name": "from",
          "type": "address"
        },
        {
          "indexed": true,
          "internalType": "address",
          "name": "to",
          "type": "address"
        },
        {
          "indexed": false,
          "internalType": "uint256",
          "name": "value",
          "type": "uint256"
        }
      ],
      "name": "Transfer",
      "type": "event"
    },
    {
      "inputs": [
        {
          "internalType": "address",
          "name": "_owner",
          "type": "address"
        },
        {
          "internalType": "address",
          "name": "_spender",
          "type": "address"
        }
      ],
      "name": "allowance",
      "outputs": [
        {
          "internalType": "uint256",
          "name": "",
          "type": "uint256"
        }
      ],
      "stateMutability": "view",
      "type": "function"
    },
    {
      "inputs": [
        {
          "internalType": "address",
          "name": "_spender",
          "type": "address"
        },
        {
          "internalType": "uint256",
          "name": "_amount",
          "type": "uint256"
        }
      ],
      "name": "approve",
      "outputs": [
        {
          "internalType": "bool",
          "name": "",
          "type": "bool"
        }
      ],
      "stateMutability": "nonpayable",
      "type": "function"
    },
    {
      "inputs": [
        {
          "internalType": "address",
          "name": "_account",
          "type": "address"
        }
      ],
      "name": "balanceOf",
      "outputs": [
        {
          "internalType": "uint256",
          "name": "",
          "type": "uint256"
        }
      ],
      "stateMutability": "view",
      "type": "function"
    },
    {
      "inputs": [
        {
          "internalType": "bytes32",
          "name": "_queryId",
          "type": "bytes32"
        },
        {
          "internalType": "uint256",
          "name": "_timestamp",
          "type": "uint256"
        }
      ],
      "name": "beginDispute",
      "outputs": [],
      "stateMutability": "nonpayable",
      "type": "function"
    },
    {
      "inputs": [],
      "name": "decimals",
      "outputs": [
        {
          "internalType": "uint8",
          "name": "",
          "type": "uint8"
        }
      ],
      "stateMutability": "view",
      "type": "function"
    },
    {
      "inputs": [
        {
          "internalType": "uint256",
          "name": "_amount",
          "type": "uint256"
        }
      ],
      "name": "depositStake",
      "outputs": [],
      "stateMutability": "nonpayable",
      "type": "function"
    },
    {
      "inputs": [
        {
          "internalType": "address",
          "name": "_user",
          "type": "address"
        }
      ],
      "name": "faucet",
      "outputs": [],
      "stateMutability": "nonpayable",
      "type": "function"
    },
    {
      "inputs": [
        {
          "internalType": "bytes32",
          "name": "_queryId",
          "type": "bytes32"
        },
        {
          "internalType": "uint256",
          "name": "_timestamp",
          "type": "uint256"
        }
      ],
      "name": "getDataBefore",
      "outputs": [
        {
          "internalType": "bool",
          "name": "_ifRetrieve",
          "type": "bool"
        },
        {
          "internalType": "bytes",
          "name": "_value",
          "type": "bytes"
        },
        {
          "internalType": "uint256",
          "name": "_timestampRetrieved",
          "type": "uint256"
        }
      ],
      "stateMutability": "view",
      "type": "function"
    },
    {
      "inputs": [
        {
          "internalType": "bytes32",
          "name": "_queryId",
          "type": "bytes32"
        },
        {
          "internalType": "uint256",
          "name": "_timestamp",
          "type": "uint256"
        }
      ],
      "name": "getIndexForDataBefore",
      "outputs": [
        {
          "internalType": "bool",
          "name": "_found",
          "type": "bool"
        },
        {
          "internalType": "uint256",
          "name": "_index",
          "type": "uint256"
        }
      ],
      "stateMutability": "view",
      "type": "function"
    },
    {
      "inputs": [
        {
          "internalType": "bytes32",
          "name": "_queryId",
          "type": "bytes32"
        }
      ],
      "name": "getNewValueCountbyQueryId",
      "outputs": [
        {
          "internalType": "uint256",
          "name": "",
          "type": "uint256"
        }
      ],
      "stateMutability": "view",
      "type": "function"
    },
    {
      "inputs": [
        {
          "internalType": "bytes32",
          "name": "_queryId",
          "type": "bytes32"
        },
        {
          "internalType": "uint256",
          "name": "_timestamp",
          "type": "uint256"
        }
      ],
      "name": "getReporterByTimestamp",
      "outputs": [
        {
          "internalType": "address",
          "name": "",
          "type": "address"
        }
      ],
      "stateMutability": "view",
      "type": "function"
    },
    {
      "inputs": [],
      "name": "getStakeAmount",
      "outputs": [
        {
          "internalType": "uint256",
          "name": "",
          "type": "uint256"
        }
      ],
      "stateMutability": "view",
      "type": "function"
    },
    {
      "inputs": [
        {
          "internalType": "address",
          "name": "_stakerAddress",
          "type": "address"
        }
      ],
      "name": "getStakerInfo",
      "outputs": [
        {
          "internalType": "uint256",
          "name": "",
          "type": "uint256"
        },
        {
          "internalType": "uint256",
          "name": "",
          "type": "uint256"
        },
        {
          "internalType": "uint256",
          "name": "",
          "type": "uint256"
        },
        {
          "internalType": "uint256",
          "name": "",
          "type": "uint256"
        },
        {
          "internalType": "uint256",
          "name": "",
          "type": "uint256"
        },
        {
          "internalType": "uint256",
          "name": "",
          "type": "uint256"
        },
        {
          "internalType": "uint256",
          "name": "",
          "type": "uint256"
        },
        {
          "internalType": "uint256",
          "name": "",
          "type": "uint256"
        },
        {
          "internalType": "bool",
          "name": "",
          "type": "bool"
        }
      ],
      "stateMutability": "view",
      "type": "function"
    },
    {
      "inputs": [
        {
          "internalType": "bytes32",
          "name": "_queryId",
          "type": "bytes32"
        },
        {
          "internalType": "uint256",
          "name": "_index",
          "type": "uint256"
        }
      ],
      "name": "getTimestampbyQueryIdandIndex",
      "outputs": [
        {
          "internalType": "uint256",
          "name": "",
          "type": "uint256"
        }
      ],
      "stateMutability": "view",
      "type": "function"
    },
    {
      "inputs": [
        {
          "internalType": "bytes32",
          "name": "_hash",
          "type": "bytes32"
        }
      ],
      "name": "getVoteRounds",
      "outputs": [
        {
          "internalType": "uint256[]",
          "name": "",
          "type": "uint256[]"
        }
      ],
      "stateMutability": "view",
      "type": "function"
    },
    {
      "inputs": [],
      "name": "governance",
      "outputs": [
        {
          "internalType": "address",
          "name": "",
          "type": "address"
        }
      ],
      "stateMutability": "view",
      "type": "function"
    },
    {
      "inputs": [
        {
          "internalType": "bytes32",
          "name": "",
          "type": "bytes32"
        },
        {
          "internalType": "uint256",
          "name": "",
          "type": "uint256"
        }
      ],
      "name": "isDisputed",
      "outputs": [
        {
          "internalType": "bool",
          "name": "",
          "type": "bool"
        }
      ],
      "stateMutability": "view",
      "type": "function"
    },
    {
      "inputs": [
        {
          "internalType": "bytes32",
          "name": "_queryId",
          "type": "bytes32"
        },
        {
          "internalType": "uint256",
          "name": "_timestamp",
          "type": "uint256"
        }
      ],
      "name": "isInDispute",
      "outputs": [
        {
          "internalType": "bool",
          "name": "",
          "type": "bool"
        }
      ],
      "stateMutability": "view",
      "type": "function"
    },
    {
      "inputs": [],
      "name": "name",
      "outputs": [
        {
          "internalType": "string",
          "name": "",
          "type": "string"
        }
      ],
      "stateMutability": "view",
      "type": "function"
    },
    {
      "inputs": [
        {
          "internalType": "bytes32",
          "name": "",
          "type": "bytes32"
        },
        {
          "internalType": "uint256",
          "name": "",
          "type": "uint256"
        }
      ],
      "name": "reporterByTimestamp",
      "outputs": [
        {
          "internalType": "address",
          "name": "",
          "type": "address"
        }
      ],
      "stateMutability": "view",
      "type": "function"
    },
    {
      "inputs": [
        {
          "internalType": "uint256",
          "name": "_amount",
          "type": "uint256"
        }
      ],
      "name": "requestStakingWithdraw",
      "outputs": [],
      "stateMutability": "nonpayable",
      "type": "function"
    },
    {
      "inputs": [
        {
          "internalType": "bytes32",
          "name": "_queryId",
          "type": "bytes32"
        },
        {
          "internalType": "uint256",
          "name": "_timestamp",
          "type": "uint256"
        }
      ],
      "name": "retrieveData",
      "outputs": [
        {
          "internalType": "bytes",
          "name": "",
          "type": "bytes"
        }
      ],
      "stateMutability": "view",
      "type": "function"
    },
    {
      "inputs": [],
      "name": "stakeAmount",
      "outputs": [
        {
          "internalType": "uint256",
          "name": "",
          "type": "uint256"
        }
      ],
      "stateMutability": "view",
      "type": "function"
    },
    {
      "inputs": [
        {
          "internalType": "bytes32",
          "name": "_queryId",
          "type": "bytes32"
        },
        {
          "internalType": "bytes",
          "name": "_value",
          "type": "bytes"
        },
        {
          "internalType": "uint256",
          "name": "_nonce",
          "type": "uint256"
        },
        {
          "internalType": "bytes",
          "name": "_queryData",
          "type": "bytes"
        }
      ],
      "name": "submitValue",
      "outputs": [],
      "stateMutability": "nonpayable",
      "type": "function"
    },
    {
      "inputs": [],
      "name": "symbol",
      "outputs": [
        {
          "internalType": "string",
          "name": "",
          "type": "string"
        }
      ],
      "stateMutability": "view",
      "type": "function"
    },
    {
      "inputs": [],
      "name": "timeBasedReward",
      "outputs": [
        {
          "internalType": "uint256",
          "name": "",
          "type": "uint256"
        }
      ],
      "stateMutability": "view",
      "type": "function"
    },
    {
      "inputs": [
        {
          "internalType": "bytes32",
          "name": "",
          "type": "bytes32"
        },
        {
          "internalType": "uint256",
          "name": "",
          "type": "uint256"
        }
      ],
      "name": "timestamps",
      "outputs": [
        {
          "internalType": "uint256",
          "name": "",
          "type": "uint256"
        }
      ],
      "stateMutability": "view",
      "type": "function"
    },
    {
      "inputs": [
        {
          "internalType": "bytes32",
          "name": "",
          "type": "bytes32"
        }
      ],
      "name": "tips",
      "outputs": [
        {
          "internalType": "uint256",
          "name": "",
          "type": "uint256"
        }
      ],
      "stateMutability": "view",
      "type": "function"
    },
    {
      "inputs": [],
      "name": "tipsInContract",
      "outputs": [
        {
          "internalType": "uint256",
          "name": "",
          "type": "uint256"
        }
      ],
      "stateMutability": "view",
      "type": "function"
    },
    {
      "inputs": [],
      "name": "token",
      "outputs": [
        {
          "internalType": "address",
          "name": "",
          "type": "address"
        }
      ],
      "stateMutability": "view",
      "type": "function"
    },
    {
      "inputs": [],
      "name": "totalSupply",
      "outputs": [
        {
          "internalType": "uint256",
          "name": "",
          "type": "uint256"
        }
      ],
      "stateMutability": "view",
      "type": "function"
    },
    {
      "inputs": [
        {
          "internalType": "address",
          "name": "_recipient",
          "type": "address"
        },
        {
          "internalType": "uint256",
          "name": "_amount",
          "type": "uint256"
        }
      ],
      "name": "transfer",
      "outputs": [
        {
          "internalType": "bool",
          "name": "",
          "type": "bool"
        }
      ],
      "stateMutability": "nonpayable",
      "type": "function"
    },
    {
      "inputs": [
        {
          "internalType": "address",
          "name": "_sender",
          "type": "address"
        },
        {
          "internalType": "address",
          "name": "_recipient",
          "type": "address"
        },
        {
          "internalType": "uint256",
          "name": "_amount",
          "type": "uint256"
        }
      ],
      "name": "transferFrom",
      "outputs": [
        {
          "internalType": "bool",
          "name": "",
          "type": "bool"
        }
      ],
      "stateMutability": "nonpayable",
      "type": "function"
    },
    {
      "inputs": [
        {
          "internalType": "bytes32",
          "name": "",
          "type": "bytes32"
        },
        {
          "internalType": "uint256",
          "name": "",
          "type": "uint256"
        }
      ],
      "name": "values",
      "outputs": [
        {
          "internalType": "bytes",
          "name": "",
          "type": "bytes"
        }
      ],
      "stateMutability": "view",
      "type": "function"
    },
    {
      "inputs": [],
      "name": "voteCount",
      "outputs": [
        {
          "internalType": "uint256",
          "name": "",
          "type": "uint256"
        }
      ],
      "stateMutability": "view",
      "type": "function"
    },
    {
      "inputs": [
        {
          "internalType": "bytes32",
          "name": "",
          "type": "bytes32"
        },
        {
          "internalType": "uint256",
          "name": "",
          "type": "uint256"
        }
      ],
      "name": "voteRounds",
      "outputs": [
        {
          "internalType": "uint256",
          "name": "",
          "type": "uint256"
        }
      ],
      "stateMutability": "view",
      "type": "function"
    },
    {
      "inputs": [],
      "name": "withdrawStake",
      "outputs": [],
      "stateMutability": "nonpayable",
      "type": "function"
    }
  ],
  "bytecode": "0x60806040523480156200001157600080fd5b506040518060400160405280601081526020017f54656c6c6f72506c617967726f756e6400000000000000000000000000000000815250600e90805190602001906200005f92919062000111565b506040518060400160405280600481526020017f5452425000000000000000000000000000000000000000000000000000000000815250600f9080519060200190620000ad92919062000111565b506012601060006101000a81548160ff021916908360ff16021790555030600c60006101000a81548173ffffffffffffffffffffffffffffffffffffffff021916908373ffffffffffffffffffffffffffffffffffffffff16021790555062000226565b8280546200011f90620001c1565b90600052602060002090601f0160209004810192826200014357600085556200018f565b82601f106200015e57805160ff19168380011785556200018f565b828001600101855582156200018f579182015b828111156200018e57825182559160200191906001019062000171565b5b5090506200019e9190620001a2565b5090565b5b80821115620001bd576000816000905550600101620001a3565b5090565b60006002820490506001821680620001da57607f821691505b60208210811415620001f157620001f0620001f7565b5b50919050565b7f4e487b7100000000000000000000000000000000000000000000000000000000600052602260045260246000fd5b61327d80620002366000396000f3fe608060405234801561001057600080fd5b50600436106102275760003560e01c8063722580b611610130578063bed9d861116100b8578063ce5e11bf1161007c578063ce5e11bf146106f9578063dd62ed3e14610729578063e07c548614610759578063f25133f314610789578063fc0c546a146107b957610227565b8063bed9d86114610655578063c5958af91461065f578063c63840711461068f578063c979fe9f146106ad578063cb82cc8f146106dd57610227565b806395d89b41116100ff57806395d89b411461059b57806396426d97146105b9578063a792765f146105d7578063a9059cbb14610609578063b86d1d631461063957610227565b8063722580b6146104f9578063733bdef01461051757806377b03e0d1461054f5780638929f4c61461057f57610227565b8063313ce567116101b3578063602bf22711610182578063602bf2271461042d57806360c7dc471461045d57806364473df21461047b57806369d43bd3146104ab57806370a08231146104c957610227565b8063313ce567146103a557806344e87f91146103c35780635aa6e675146103f35780635eaa9ced1461041157610227565b80631f379acc116101fa5780631f379acc146102c8578063217053c0146102e457806323b872dd14610314578063248638e514610344578063294490851461037457610227565b806306fdde031461022c578063091b50ff1461024a578063095ea7b31461027a57806318160ddd146102aa575b600080fd5b6102346107d7565b6040516102419190612957565b60405180910390f35b610264600480360381019061025f91906123ef565b610869565b6040516102719190612935565b60405180910390f35b610294600480360381019061028f91906122f2565b610916565b6040516102a19190612842565b60405180910390f35b6102b261092d565b6040516102bf9190612ad9565b60405180910390f35b6102e260048036038101906102dd91906123ef565b610937565b005b6102fe60048036038101906102f991906123ef565b610a3b565b60405161030b91906127dc565b60405180910390f35b61032e600480360381019061032991906122a3565b610a7d565b60405161033b9190612842565b60405180910390f35b61035e6004803603810190610359919061232e565b610b27565b60405161036b9190612820565b60405180910390f35b61038e600480360381019061038991906123ef565b610b92565b60405161039c92919061289b565b60405180910390f35b6103ad610e92565b6040516103ba9190612b81565b60405180910390f35b6103dd60048036038101906103d891906123ef565b610ea9565b6040516103ea9190612842565b60405180910390f35b6103fb610ee4565b60405161040891906127dc565b60405180910390f35b61042b60048036038101906104269190612357565b610eec565b005b6104476004803603810190610442919061232e565b6111db565b6040516104549190612ad9565b60405180910390f35b6104656111f3565b6040516104729190612ad9565b60405180910390f35b610495600480360381019061049091906123ef565b6111f9565b6040516104a29190612842565b60405180910390f35b6104b3611228565b6040516104c09190612ad9565b60405180910390f35b6104e360048036038101906104de919061223e565b61122e565b6040516104f09190612ad9565b60405180910390f35b610501611277565b60405161050e9190612ad9565b60405180910390f35b610531600480360381019061052c919061223e565b611281565b60405161054699989796959493929190612af4565b60405180910390f35b6105696004803603810190610564919061232e565b611311565b6040516105769190612ad9565b60405180910390f35b6105996004803603810190610594919061242b565b611331565b005b6105a3611437565b6040516105b09190612957565b60405180910390f35b6105c16114c9565b6040516105ce9190612ad9565b60405180910390f35b6105f160048036038101906105ec91906123ef565b6114d5565b6040516106009392919061285d565b60405180910390f35b610623600480360381019061061e91906122f2565b611538565b6040516106309190612842565b60405180910390f35b610653600480360381019061064e919061223e565b61154f565b005b61065d611565565b005b610679600480360381019061067491906123ef565b611697565b6040516106869190612935565b60405180910390f35b61069761174e565b6040516106a49190612ad9565b60405180910390f35b6106c760048036038101906106c291906123ef565b611754565b6040516106d49190612ad9565b60405180910390f35b6106f760048036038101906106f2919061242b565b611785565b005b610713600480360381019061070e91906123ef565b6118a9565b6040516107209190612ad9565b60405180910390f35b610743600480360381019061073e9190612267565b611943565b6040516107509190612ad9565b60405180910390f35b610773600480360381019061076e91906123ef565b6119ca565b60405161078091906127dc565b60405180910390f35b6107a3600480360381019061079e91906123ef565b611a19565b6040516107b09190612ad9565b60405180910390f35b6107c1611a4a565b6040516107ce91906127dc565b60405180910390f35b6060600e80546107e690612df4565b80601f016020809104026020016040519081016040528092919081815260200182805461081290612df4565b801561085f5780601f106108345761010080835404028352916020019161085f565b820191906000526020600020905b81548152906001019060200180831161084257829003601f168201915b5050505050905090565b600560205281600052604060002060205280600052604060002060009150915050805461089590612df4565b80601f01602080910402602001604051908101604052809291908181526020018280546108c190612df4565b801561090e5780601f106108e35761010080835404028352916020019161090e565b820191906000526020600020905b8154815290600101906020018083116108f157829003601f168201915b505050505081565b6000610923338484611a70565b6001905092915050565b6000600d54905090565b60405180602001604052806000815250600560008481526020019081526020016000206000838152602001908152602001600020908051906020019061097e929190612024565b506001600080848152602001908152602001600020600083815260200190815260200160002060006101000a81548160ff021916908315150217905550600b60008154809291906109ce90612e57565b91905055506006600083836040516020016109ea929190612797565b604051602081830303815290604052805190602001208152602001908152602001600020600b5490806001815401808255809150506001900390600052602060002001600090919091909150555050565b60016020528160005260406000206020528060005260406000206000915091509054906101000a900473ffffffffffffffffffffffffffffffffffffffff1681565b6000610a8a848484611c3b565b610b1c843384600760008973ffffffffffffffffffffffffffffffffffffffff1673ffffffffffffffffffffffffffffffffffffffff16815260200190815260200160002060003373ffffffffffffffffffffffffffffffffffffffff1673ffffffffffffffffffffffffffffffffffffffff16815260200190815260200160002054610b179190612cf5565b611a70565b600190509392505050565b606060066000838152602001908152602001600020805480602002602001604051908101604052809291908181526020018280548015610b8657602002820191906000526020600020905b815481526020019060010190808311610b72575b50505050509050919050565b6000806000610ba085611311565b90506000811115610e8257600080600090506000600184610bc19190612cf5565b90506000610bcf89846118a9565b9050878110610be957600080965096505050505050610e8b565b610bf389836118a9565b905087811015610c75575b610c088982610ea9565b8015610c145750600082115b15610c38578180610c2490612dca565b925050610c3189836118a9565b9050610bfe565b600082148015610c4e5750610c4d8982610ea9565b5b15610c6457600080965096505050505050610e8b565b600182965096505050505050610e8b565b5b600115610e7d5782600160028585610c8e9190612cf5565b610c989190612cc4565b610ca29190612c6e565b610cac9190612c6e565b9350610cb889856118a9565b905087811015610d92576000610cda8a600187610cd59190612c6e565b6118a9565b9050888110610d7d57610ced8a83610ea9565b610d035760018597509750505050505050610e8b565b5b610d0e8a83610ea9565b8015610d1a5750600085115b15610d3e578480610d2a90612dca565b955050610d378a866118a9565b9150610d04565b600085148015610d545750610d538a83610ea9565b5b15610d6b5760008097509750505050505050610e8b565b60018597509750505050505050610e8b565b600185610d8a9190612c6e565b935050610e78565b6000610daa8a600187610da59190612cf5565b6118a9565b905088811015610e6757610dbe8a82610ea9565b610ddf5760018086610dd09190612cf5565b97509750505050505050610e8b565b8480610dea90612dca565b9550505b610df88a82610ea9565b8015610e045750600085115b15610e28578480610e1490612dca565b955050610e218a866118a9565b9050610dee565b600085148015610e3e5750610e3d8a82610ea9565b5b15610e555760008097509750505050505050610e8b565b60018597509750505050505050610e8b565b600185610e749190612cf5565b9250505b610c76565b505050505b60008092509250505b9250929050565b6000601060009054906101000a900460ff16905090565b6000806000848152602001908152602001600020600083815260200190815260200160002060009054906101000a900460ff16905092915050565b600030905090565b7fc5d2460186f7233c927e7db2dcc703c0e500b653ca82273b7bfad8045d85a4708484604051610f1d9291906127c3565b60405180910390201415610f66576040517f08c379a0000000000000000000000000000000000000000000000000000000008152600401610f5d906129f9565b60405180910390fd5b6003600086815260200190815260200160002080549050821480610f8a5750600082145b610fc9576040517f08c379a0000000000000000000000000000000000000000000000000000000008152600401610fc090612a19565b60405180910390fd5b8080519060200120851480610fe2575060648560001c11155b611021576040517f08c379a0000000000000000000000000000000000000000000000000000000008152600401611018906129b9565b60405180910390fd5b838360056000888152602001908152602001600020600042815260200190815260200160002091906110549291906120aa565b50600360008681526020019081526020016000204290806001815401808255809150506001900390600052602060002001600090919091909150553360016000878152602001908152602001600020600042815260200190815260200160002060006101000a81548173ffffffffffffffffffffffffffffffffffffffff021916908373ffffffffffffffffffffffffffffffffffffffff16021790555042600260003373ffffffffffffffffffffffffffffffffffffffff1673ffffffffffffffffffffffffffffffffffffffff16815260200190815260200160002060030181905550600260003373ffffffffffffffffffffffffffffffffffffffff1673ffffffffffffffffffffffffffffffffffffffff168152602001908152602001600020600401600081548092919061118c90612e57565b91905055507f48e9e2c732ba278de6ac88a3a57a5c5ba13d3d8370e709b3b98333a57876ca95854286868686336040516111cc97969594939291906128c4565b60405180910390a15050505050565b60046020528060005260406000206000915090505481565b60095481565b60006020528160005260406000206020528060005260406000206000915091509054906101000a900460ff1681565b600a5481565b6000600860008373ffffffffffffffffffffffffffffffffffffffff1673ffffffffffffffffffffffffffffffffffffffff168152602001908152602001600020549050919050565b6000600954905090565b600080600080600080600080600080600260008c73ffffffffffffffffffffffffffffffffffffffff1673ffffffffffffffffffffffffffffffffffffffff16815260200190815260200160002090508060000154816001015482600201546000846003015485600401546000806000995099509950995099509950995099509950509193959799909294969850565b600060036000838152602001908152602001600020805490509050919050565b6000600260003373ffffffffffffffffffffffffffffffffffffffff1673ffffffffffffffffffffffffffffffffffffffff168152602001908152602001600020905081816001015410156113bb576040517f08c379a00000000000000000000000000000000000000000000000000000000081526004016113b290612a99565b60405180910390fd5b428160000181905550818160020160008282546113d89190612c6e565b92505081905550818160010160008282546113f39190612cf5565b925050819055507f3d8d9df4bd0172df32e557fa48e96435cd7f2cac06aaffacfaee608e6f7898ef338360405161142b9291906127f7565b60405180910390a15050565b6060600f805461144690612df4565b80601f016020809104026020016040519081016040528092919081815260200182805461147290612df4565b80156114bf5780601f10611494576101008083540402835291602001916114bf565b820191906000526020600020905b8154815290600101906020018083116114a257829003601f168201915b5050505050905090565b6706f05b59d3b2000081565b6000606060008060006114e88787610b92565b91509150816115125760006040518060200160405280600081525060009450945094505050611531565b61151c87826118a9565b92506115288784611697565b93506001945050505b9250925092565b6000611545338484611c3b565b6001905092915050565b61156281683635c9adc5dea00000611e31565b50565b6000600260003373ffffffffffffffffffffffffffffffffffffffff1673ffffffffffffffffffffffffffffffffffffffff168152602001908152602001600020905062093a808160000154426115bc9190612cf5565b10156115fd576040517f08c379a00000000000000000000000000000000000000000000000000000000081526004016115f4906129d9565b60405180910390fd5b6000816002015411611644576040517f08c379a000000000000000000000000000000000000000000000000000000000815260040161163b90612a59565b60405180910390fd5b61165330338360020154611c3b565b600081600201819055507f4a7934670bd8304e7da22378be1368f7c4fef17c5aee81804beda8638fe428ec3360405161168c91906127dc565b60405180910390a150565b606060056000848152602001908152602001600020600083815260200190815260200160002080546116c890612df4565b80601f01602080910402602001604051908101604052809291908181526020018280546116f490612df4565b80156117415780601f1061171657610100808354040283529160200191611741565b820191906000526020600020905b81548152906001019060200180831161172457829003601f168201915b5050505050905092915050565b600b5481565b6006602052816000526040600020818154811061177057600080fd5b90600052602060002001600091509150505481565b6000600260003373ffffffffffffffffffffffffffffffffffffffff1673ffffffffffffffffffffffffffffffffffffffff1681526020019081526020016000209050600081600201541115611833578181600201541061180057818160020160008282546117f49190612cf5565b9250508190555061182e565b61181a33308360020154856118159190612cf5565b611f7a565b61182357600080fd5b600081600201819055505b611848565b61183e333084611f7a565b61184757600080fd5b5b428160000181905550818160010160008282546118659190612c6e565b925050819055507fa96c2cce65119a2170d1711a6e82f18f2006448828483ba7545e595476543647338360405161189d9291906127f7565b60405180910390a15050565b6000806003600085815260200190815260200160002080549050905060008114806118d45750828111155b156118e357600091505061193d565b60036000858152602001908152602001600020838154811061192e577f4e487b7100000000000000000000000000000000000000000000000000000000600052603260045260246000fd5b90600052602060002001549150505b92915050565b6000600760008473ffffffffffffffffffffffffffffffffffffffff1673ffffffffffffffffffffffffffffffffffffffff16815260200190815260200160002060008373ffffffffffffffffffffffffffffffffffffffff1673ffffffffffffffffffffffffffffffffffffffff16815260200190815260200160002054905092915050565b600060016000848152602001908152602001600020600083815260200190815260200160002060009054906101000a900473ffffffffffffffffffffffffffffffffffffffff16905092915050565b60036020528160005260406000208181548110611a3557600080fd5b90600052602060002001600091509150505481565b600c60009054906101000a900473ffffffffffffffffffffffffffffffffffffffff1681565b600073ffffffffffffffffffffffffffffffffffffffff168373ffffffffffffffffffffffffffffffffffffffff161415611ae0576040517f08c379a0000000000000000000000000000000000000000000000000000000008152600401611ad790612a79565b60405180910390fd5b600073ffffffffffffffffffffffffffffffffffffffff168273ffffffffffffffffffffffffffffffffffffffff161415611b50576040517f08c379a0000000000000000000000000000000000000000000000000000000008152600401611b4790612999565b60405180910390fd5b80600760008573ffffffffffffffffffffffffffffffffffffffff1673ffffffffffffffffffffffffffffffffffffffff16815260200190815260200160002060008473ffffffffffffffffffffffffffffffffffffffff1673ffffffffffffffffffffffffffffffffffffffff168152602001908152602001600020819055508173ffffffffffffffffffffffffffffffffffffffff168373ffffffffffffffffffffffffffffffffffffffff167f8c5be1e5ebec7d5bd14f71427d1e84f3dd0314c0f7b2291e5b200ac8c7c3b92583604051611c2e9190612ad9565b60405180910390a3505050565b600073ffffffffffffffffffffffffffffffffffffffff168373ffffffffffffffffffffffffffffffffffffffff161415611cab576040517f08c379a0000000000000000000000000000000000000000000000000000000008152600401611ca290612a39565b60405180910390fd5b600073ffffffffffffffffffffffffffffffffffffffff168273ffffffffffffffffffffffffffffffffffffffff161415611d1b576040517f08c379a0000000000000000000000000000000000000000000000000000000008152600401611d1290612979565b60405180910390fd5b80600860008573ffffffffffffffffffffffffffffffffffffffff1673ffffffffffffffffffffffffffffffffffffffff1681526020019081526020016000206000828254611d6a9190612cf5565b9250508190555080600860008473ffffffffffffffffffffffffffffffffffffffff1673ffffffffffffffffffffffffffffffffffffffff1681526020019081526020016000206000828254611dc09190612c6e565b925050819055508173ffffffffffffffffffffffffffffffffffffffff168373ffffffffffffffffffffffffffffffffffffffff167fddf252ad1be2c89b69c2b068fc378daa952ba7f163c4a11628f55a4df523b3ef83604051611e249190612ad9565b60405180910390a3505050565b600073ffffffffffffffffffffffffffffffffffffffff168273ffffffffffffffffffffffffffffffffffffffff161415611ea1576040517f08c379a0000000000000000000000000000000000000000000000000000000008152600401611e9890612ab9565b60405180910390fd5b80600d6000828254611eb39190612c6e565b9250508190555080600860008473ffffffffffffffffffffffffffffffffffffffff1673ffffffffffffffffffffffffffffffffffffffff1681526020019081526020016000206000828254611f099190612c6e565b925050819055508173ffffffffffffffffffffffffffffffffffffffff16600073ffffffffffffffffffffffffffffffffffffffff167fddf252ad1be2c89b69c2b068fc378daa952ba7f163c4a11628f55a4df523b3ef83604051611f6e9190612ad9565b60405180910390a35050565b6000611f87848484611c3b565b612019843384600760008973ffffffffffffffffffffffffffffffffffffffff1673ffffffffffffffffffffffffffffffffffffffff16815260200190815260200160002060003073ffffffffffffffffffffffffffffffffffffffff1673ffffffffffffffffffffffffffffffffffffffff168152602001908152602001600020546120149190612cf5565b611a70565b600190509392505050565b82805461203090612df4565b90600052602060002090601f0160209004810192826120525760008555612099565b82601f1061206b57805160ff1916838001178555612099565b82800160010185558215612099579182015b8281111561209857825182559160200191906001019061207d565b5b5090506120a69190612130565b5090565b8280546120b690612df4565b90600052602060002090601f0160209004810192826120d8576000855561211f565b82601f106120f157803560ff191683800117855561211f565b8280016001018555821561211f579182015b8281111561211e578235825591602001919060010190612103565b5b50905061212c9190612130565b5090565b5b80821115612149576000816000905550600101612131565b5090565b600061216061215b84612bc1565b612b9c565b90508281526020810184848401111561217857600080fd5b612183848285612d88565b509392505050565b60008135905061219a81613202565b92915050565b6000813590506121af81613219565b92915050565b60008083601f8401126121c757600080fd5b8235905067ffffffffffffffff8111156121e057600080fd5b6020830191508360018202830111156121f857600080fd5b9250929050565b600082601f83011261221057600080fd5b813561222084826020860161214d565b91505092915050565b60008135905061223881613230565b92915050565b60006020828403121561225057600080fd5b600061225e8482850161218b565b91505092915050565b6000806040838503121561227a57600080fd5b60006122888582860161218b565b92505060206122998582860161218b565b9150509250929050565b6000806000606084860312156122b857600080fd5b60006122c68682870161218b565b93505060206122d78682870161218b565b92505060406122e886828701612229565b9150509250925092565b6000806040838503121561230557600080fd5b60006123138582860161218b565b925050602061232485828601612229565b9150509250929050565b60006020828403121561234057600080fd5b600061234e848285016121a0565b91505092915050565b60008060008060006080868803121561236f57600080fd5b600061237d888289016121a0565b955050602086013567ffffffffffffffff81111561239a57600080fd5b6123a6888289016121b5565b945094505060406123b988828901612229565b925050606086013567ffffffffffffffff8111156123d657600080fd5b6123e2888289016121ff565b9150509295509295909350565b6000806040838503121561240257600080fd5b6000612410858286016121a0565b925050602061242185828601612229565b9150509250929050565b60006020828403121561243d57600080fd5b600061244b84828501612229565b91505092915050565b60006124608383612753565b60208301905092915050565b61247581612d29565b82525050565b600061248682612c02565b6124908185612c30565b935061249b83612bf2565b8060005b838110156124cc5781516124b38882612454565b97506124be83612c23565b92505060018101905061249f565b5085935050505092915050565b6124e281612d3b565b82525050565b6124f181612d47565b82525050565b61250861250382612d47565b612ea0565b82525050565b600061251a8385612c41565b9350612527838584612d88565b61253083612f70565b840190509392505050565b60006125478385612c52565b9350612554838584612d88565b82840190509392505050565b600061256b82612c0d565b6125758185612c41565b9350612585818560208601612d97565b61258e81612f70565b840191505092915050565b60006125a482612c18565b6125ae8185612c5d565b93506125be818560208601612d97565b6125c781612f70565b840191505092915050565b60006125df602383612c5d565b91506125ea82612f81565b604082019050919050565b6000612602602283612c5d565b915061260d82612fd0565b604082019050919050565b6000612625601d83612c5d565b91506126308261301f565b602082019050919050565b6000612648601283612c5d565b915061265382613048565b602082019050919050565b600061266b601783612c5d565b915061267682613071565b602082019050919050565b600061268e602083612c5d565b91506126998261309a565b602082019050919050565b60006126b1602583612c5d565b91506126bc826130c3565b604082019050919050565b60006126d4602283612c5d565b91506126df82613112565b604082019050919050565b60006126f7602483612c5d565b915061270282613161565b604082019050919050565b600061271a601b83612c5d565b9150612725826131b0565b602082019050919050565b600061273d601f83612c5d565b9150612748826131d9565b602082019050919050565b61275c81612d71565b82525050565b61276b81612d71565b82525050565b61278261277d82612d71565b612eaa565b82525050565b61279181612d7b565b82525050565b60006127a382856124f7565b6020820191506127b38284612771565b6020820191508190509392505050565b60006127d082848661253b565b91508190509392505050565b60006020820190506127f1600083018461246c565b92915050565b600060408201905061280c600083018561246c565b6128196020830184612762565b9392505050565b6000602082019050818103600083015261283a818461247b565b905092915050565b600060208201905061285760008301846124d9565b92915050565b600060608201905061287260008301866124d9565b81810360208301526128848185612560565b90506128936040830184612762565b949350505050565b60006040820190506128b060008301856124d9565b6128bd6020830184612762565b9392505050565b600060c0820190506128d9600083018a6124e8565b6128e66020830189612762565b81810360408301526128f981878961250e565b90506129086060830186612762565b818103608083015261291a8185612560565b905061292960a083018461246c565b98975050505050505050565b6000602082019050818103600083015261294f8184612560565b905092915050565b600060208201905081810360008301526129718184612599565b905092915050565b60006020820190508181036000830152612992816125d2565b9050919050565b600060208201905081810360008301526129b2816125f5565b9050919050565b600060208201905081810360008301526129d281612618565b9050919050565b600060208201905081810360008301526129f28161263b565b9050919050565b60006020820190508181036000830152612a128161265e565b9050919050565b60006020820190508181036000830152612a3281612681565b9050919050565b60006020820190508181036000830152612a52816126a4565b9050919050565b60006020820190508181036000830152612a72816126c7565b9050919050565b60006020820190508181036000830152612a92816126ea565b9050919050565b60006020820190508181036000830152612ab28161270d565b9050919050565b60006020820190508181036000830152612ad281612730565b9050919050565b6000602082019050612aee6000830184612762565b92915050565b600061012082019050612b0a600083018c612762565b612b17602083018b612762565b612b24604083018a612762565b612b316060830189612762565b612b3e6080830188612762565b612b4b60a0830187612762565b612b5860c0830186612762565b612b6560e0830185612762565b612b736101008301846124d9565b9a9950505050505050505050565b6000602082019050612b966000830184612788565b92915050565b6000612ba6612bb7565b9050612bb28282612e26565b919050565b6000604051905090565b600067ffffffffffffffff821115612bdc57612bdb612f41565b5b612be582612f70565b9050602081019050919050565b6000819050602082019050919050565b600081519050919050565b600081519050919050565b600081519050919050565b6000602082019050919050565b600082825260208201905092915050565b600082825260208201905092915050565b600081905092915050565b600082825260208201905092915050565b6000612c7982612d71565b9150612c8483612d71565b9250827fffffffffffffffffffffffffffffffffffffffffffffffffffffffffffffffff03821115612cb957612cb8612eb4565b5b828201905092915050565b6000612ccf82612d71565b9150612cda83612d71565b925082612cea57612ce9612ee3565b5b828204905092915050565b6000612d0082612d71565b9150612d0b83612d71565b925082821015612d1e57612d1d612eb4565b5b828203905092915050565b6000612d3482612d51565b9050919050565b60008115159050919050565b6000819050919050565b600073ffffffffffffffffffffffffffffffffffffffff82169050919050565b6000819050919050565b600060ff82169050919050565b82818337600083830152505050565b60005b83811015612db5578082015181840152602081019050612d9a565b83811115612dc4576000848401525b50505050565b6000612dd582612d71565b91506000821415612de957612de8612eb4565b5b600182039050919050565b60006002820490506001821680612e0c57607f821691505b60208210811415612e2057612e1f612f12565b5b50919050565b612e2f82612f70565b810181811067ffffffffffffffff82111715612e4e57612e4d612f41565b5b80604052505050565b6000612e6282612d71565b91507fffffffffffffffffffffffffffffffffffffffffffffffffffffffffffffffff821415612e9557612e94612eb4565b5b600182019050919050565b6000819050919050565b6000819050919050565b7f4e487b7100000000000000000000000000000000000000000000000000000000600052601160045260246000fd5b7f4e487b7100000000000000000000000000000000000000000000000000000000600052601260045260246000fd5b7f4e487b7100000000000000000000000000000000000000000000000000000000600052602260045260246000fd5b7f4e487b7100000000000000000000000000000000000000000000000000000000600052604160045260246000fd5b6000601f19601f8301169050919050565b7f45524332303a207472616e7366657220746f20746865207a65726f206164647260008201527f6573730000000000000000000000000000000000000000000000000000000000602082015250565b7f45524332303a20617070726f766520746f20746865207a65726f20616464726560008201527f7373000000000000000000000000000000000000000000000000000000000000602082015250565b7f6964206d7573742062652068617368206f662062797465732064617461000000600082015250565b7f372064617973206469646e277420706173730000000000000000000000000000600082015250565b7f76616c7565206d757374206265207375626d6974746564000000000000000000600082015250565b7f6e6f6e6365206d757374206d617463682074696d657374616d7020696e646578600082015250565b7f45524332303a207472616e736665722066726f6d20746865207a65726f20616460008201527f6472657373000000000000000000000000000000000000000000000000000000602082015250565b7f7265706f72746572206e6f74206c6f636b656420666f7220776974686472617760008201527f616c000000000000000000000000000000000000000000000000000000000000602082015250565b7f45524332303a20617070726f76652066726f6d20746865207a65726f2061646460008201527f7265737300000000000000000000000000000000000000000000000000000000602082015250565b7f696e73756666696369656e74207374616b65642062616c616e63650000000000600082015250565b7f45524332303a206d696e7420746f20746865207a65726f206164647265737300600082015250565b61320b81612d29565b811461321657600080fd5b50565b61322281612d47565b811461322d57600080fd5b50565b61323981612d71565b811461324457600080fd5b5056fea26469706673582212208c5d2fc4bdb8577fd6e618d9eab1dc2a7e252050bb0b879380c635ed42462bd764736f6c63430008030033",
  "linkReferences": {},
  "deployedLinkReferences": {}
}