{
  "_format": "hh-sol-artifact-1",
  "contractName": "TellorPlayground",
  "sourceName": "contracts/TellorPlayground.sol",
  "abi": [
    {
      "inputs": [],
      "stateMutability": "nonpayable",
      "type": "constructor"
    },
    {
      "anonymous": false,
      "inputs": [
        {
          "indexed": true,
          "internalType": "address",
          "name": "owner",
          "type": "address"
        },
        {
          "indexed": true,
          "internalType": "address",
          "name": "spender",
          "type": "address"
        },
        {
          "indexed": false,
          "internalType": "uint256",
          "name": "value",
          "type": "uint256"
        }
      ],
      "name": "Approval",
      "type": "event"
    },
    {
      "anonymous": false,
      "inputs": [
        {
          "indexed": false,
          "internalType": "bytes32",
          "name": "_queryId",
          "type": "bytes32"
        },
        {
          "indexed": false,
          "internalType": "uint256",
          "name": "_time",
          "type": "uint256"
        },
        {
          "indexed": false,
          "internalType": "bytes",
          "name": "_value",
          "type": "bytes"
        },
        {
          "indexed": false,
          "internalType": "uint256",
          "name": "_nonce",
          "type": "uint256"
        },
        {
          "indexed": false,
          "internalType": "bytes",
          "name": "_queryData",
          "type": "bytes"
        },
        {
          "indexed": false,
          "internalType": "address",
          "name": "_reporter",
          "type": "address"
        }
      ],
      "name": "NewReport",
      "type": "event"
    },
    {
      "anonymous": false,
      "inputs": [
        {
          "indexed": false,
          "internalType": "address",
          "name": "_staker",
          "type": "address"
        },
        {
          "indexed": false,
          "internalType": "uint256",
          "name": "_amount",
          "type": "uint256"
        }
      ],
      "name": "NewStaker",
      "type": "event"
    },
    {
      "anonymous": false,
      "inputs": [
        {
          "indexed": false,
          "internalType": "address",
          "name": "_staker",
          "type": "address"
        },
        {
          "indexed": false,
          "internalType": "uint256",
          "name": "_amount",
          "type": "uint256"
        }
      ],
      "name": "StakeWithdrawRequested",
      "type": "event"
    },
    {
      "anonymous": false,
      "inputs": [
        {
          "indexed": false,
          "internalType": "address",
          "name": "_staker",
          "type": "address"
        }
      ],
      "name": "StakeWithdrawn",
      "type": "event"
    },
    {
      "anonymous": false,
      "inputs": [
        {
          "indexed": true,
          "internalType": "address",
          "name": "from",
          "type": "address"
        },
        {
          "indexed": true,
          "internalType": "address",
          "name": "to",
          "type": "address"
        },
        {
          "indexed": false,
          "internalType": "uint256",
          "name": "value",
          "type": "uint256"
        }
      ],
      "name": "Transfer",
      "type": "event"
    },
    {
      "inputs": [
        {
          "internalType": "uint256",
          "name": "_amount",
          "type": "uint256"
        }
      ],
      "name": "addStakingRewards",
      "outputs": [],
      "stateMutability": "nonpayable",
      "type": "function"
    },
    {
      "inputs": [
        {
          "internalType": "address",
          "name": "_owner",
          "type": "address"
        },
        {
          "internalType": "address",
          "name": "_spender",
          "type": "address"
        }
      ],
      "name": "allowance",
      "outputs": [
        {
          "internalType": "uint256",
          "name": "",
          "type": "uint256"
        }
      ],
      "stateMutability": "view",
      "type": "function"
    },
    {
      "inputs": [
        {
          "internalType": "address",
          "name": "_spender",
          "type": "address"
        },
        {
          "internalType": "uint256",
          "name": "_amount",
          "type": "uint256"
        }
      ],
      "name": "approve",
      "outputs": [
        {
          "internalType": "bool",
          "name": "",
          "type": "bool"
        }
      ],
      "stateMutability": "nonpayable",
      "type": "function"
    },
    {
      "inputs": [
        {
          "internalType": "address",
          "name": "_account",
          "type": "address"
        }
      ],
      "name": "balanceOf",
      "outputs": [
        {
          "internalType": "uint256",
          "name": "",
          "type": "uint256"
        }
      ],
      "stateMutability": "view",
      "type": "function"
    },
    {
      "inputs": [
        {
          "internalType": "bytes32",
          "name": "_queryId",
          "type": "bytes32"
        },
        {
          "internalType": "uint256",
          "name": "_timestamp",
          "type": "uint256"
        }
      ],
      "name": "beginDispute",
      "outputs": [],
      "stateMutability": "nonpayable",
      "type": "function"
    },
    {
      "inputs": [],
      "name": "decimals",
      "outputs": [
        {
          "internalType": "uint8",
          "name": "",
          "type": "uint8"
        }
      ],
      "stateMutability": "view",
      "type": "function"
    },
    {
      "inputs": [
        {
          "internalType": "uint256",
          "name": "_amount",
          "type": "uint256"
        }
      ],
      "name": "depositStake",
      "outputs": [],
      "stateMutability": "nonpayable",
      "type": "function"
    },
    {
      "inputs": [
        {
          "internalType": "address",
          "name": "_user",
          "type": "address"
        }
      ],
      "name": "faucet",
      "outputs": [],
      "stateMutability": "nonpayable",
      "type": "function"
    },
    {
      "inputs": [
        {
          "internalType": "bytes32",
          "name": "_queryId",
          "type": "bytes32"
        },
        {
          "internalType": "uint256",
          "name": "_timestamp",
          "type": "uint256"
        }
      ],
      "name": "getDataBefore",
      "outputs": [
        {
          "internalType": "bool",
          "name": "_ifRetrieve",
          "type": "bool"
        },
        {
          "internalType": "bytes",
          "name": "_value",
          "type": "bytes"
        },
        {
          "internalType": "uint256",
          "name": "_timestampRetrieved",
          "type": "uint256"
        }
      ],
      "stateMutability": "view",
      "type": "function"
    },
    {
      "inputs": [
        {
          "internalType": "bytes32",
          "name": "_queryId",
          "type": "bytes32"
        },
        {
          "internalType": "uint256",
          "name": "_timestamp",
          "type": "uint256"
        }
      ],
      "name": "getIndexForDataBefore",
      "outputs": [
        {
          "internalType": "bool",
          "name": "_found",
          "type": "bool"
        },
        {
          "internalType": "uint256",
          "name": "_index",
          "type": "uint256"
        }
      ],
      "stateMutability": "view",
      "type": "function"
    },
    {
      "inputs": [
        {
          "internalType": "bytes32",
          "name": "_queryId",
          "type": "bytes32"
        }
      ],
      "name": "getNewValueCountbyQueryId",
      "outputs": [
        {
          "internalType": "uint256",
          "name": "",
          "type": "uint256"
        }
      ],
      "stateMutability": "view",
      "type": "function"
    },
    {
      "inputs": [
        {
          "internalType": "bytes32",
          "name": "_queryId",
          "type": "bytes32"
        },
        {
          "internalType": "uint256",
          "name": "_timestamp",
          "type": "uint256"
        }
      ],
      "name": "getReporterByTimestamp",
      "outputs": [
        {
          "internalType": "address",
          "name": "",
          "type": "address"
        }
      ],
      "stateMutability": "view",
      "type": "function"
    },
    {
      "inputs": [],
      "name": "getStakeAmount",
      "outputs": [
        {
          "internalType": "uint256",
          "name": "",
          "type": "uint256"
        }
      ],
      "stateMutability": "view",
      "type": "function"
    },
    {
      "inputs": [
        {
          "internalType": "address",
          "name": "_stakerAddress",
          "type": "address"
        }
      ],
      "name": "getStakerInfo",
      "outputs": [
        {
          "internalType": "uint256",
          "name": "",
          "type": "uint256"
        },
        {
          "internalType": "uint256",
          "name": "",
          "type": "uint256"
        },
        {
          "internalType": "uint256",
          "name": "",
          "type": "uint256"
        },
        {
          "internalType": "uint256",
          "name": "",
          "type": "uint256"
        },
        {
          "internalType": "uint256",
          "name": "",
          "type": "uint256"
        },
        {
          "internalType": "uint256",
          "name": "",
          "type": "uint256"
        },
        {
          "internalType": "uint256",
          "name": "",
          "type": "uint256"
        },
        {
          "internalType": "uint256",
          "name": "",
          "type": "uint256"
        },
        {
          "internalType": "bool",
          "name": "",
          "type": "bool"
        }
      ],
      "stateMutability": "view",
      "type": "function"
    },
    {
      "inputs": [
        {
          "internalType": "bytes32",
          "name": "_queryId",
          "type": "bytes32"
        },
        {
          "internalType": "uint256",
          "name": "_index",
          "type": "uint256"
        }
      ],
      "name": "getTimestampbyQueryIdandIndex",
      "outputs": [
        {
          "internalType": "uint256",
          "name": "",
          "type": "uint256"
        }
      ],
      "stateMutability": "view",
      "type": "function"
    },
    {
      "inputs": [
        {
          "internalType": "bytes32",
          "name": "_hash",
          "type": "bytes32"
        }
      ],
      "name": "getVoteRounds",
      "outputs": [
        {
          "internalType": "uint256[]",
          "name": "",
          "type": "uint256[]"
        }
      ],
      "stateMutability": "view",
      "type": "function"
    },
    {
      "inputs": [],
      "name": "governance",
      "outputs": [
        {
          "internalType": "address",
          "name": "",
          "type": "address"
        }
      ],
      "stateMutability": "view",
      "type": "function"
    },
    {
      "inputs": [
        {
          "internalType": "bytes32",
          "name": "",
          "type": "bytes32"
        },
        {
          "internalType": "uint256",
          "name": "",
          "type": "uint256"
        }
      ],
      "name": "isDisputed",
      "outputs": [
        {
          "internalType": "bool",
          "name": "",
          "type": "bool"
        }
      ],
      "stateMutability": "view",
      "type": "function"
    },
    {
      "inputs": [
        {
          "internalType": "bytes32",
          "name": "_queryId",
          "type": "bytes32"
        },
        {
          "internalType": "uint256",
          "name": "_timestamp",
          "type": "uint256"
        }
      ],
      "name": "isInDispute",
      "outputs": [
        {
          "internalType": "bool",
          "name": "",
          "type": "bool"
        }
      ],
      "stateMutability": "view",
      "type": "function"
    },
    {
      "inputs": [],
      "name": "name",
      "outputs": [
        {
          "internalType": "string",
          "name": "",
          "type": "string"
        }
      ],
      "stateMutability": "view",
      "type": "function"
    },
    {
      "inputs": [
        {
          "internalType": "bytes32",
          "name": "",
          "type": "bytes32"
        },
        {
          "internalType": "uint256",
          "name": "",
          "type": "uint256"
        }
      ],
      "name": "reporterByTimestamp",
      "outputs": [
        {
          "internalType": "address",
          "name": "",
          "type": "address"
        }
      ],
      "stateMutability": "view",
      "type": "function"
    },
    {
      "inputs": [
        {
          "internalType": "uint256",
          "name": "_amount",
          "type": "uint256"
        }
      ],
      "name": "requestStakingWithdraw",
      "outputs": [],
      "stateMutability": "nonpayable",
      "type": "function"
    },
    {
      "inputs": [
        {
          "internalType": "bytes32",
          "name": "_queryId",
          "type": "bytes32"
        },
        {
          "internalType": "uint256",
          "name": "_timestamp",
          "type": "uint256"
        }
      ],
      "name": "retrieveData",
      "outputs": [
        {
          "internalType": "bytes",
          "name": "",
          "type": "bytes"
        }
      ],
      "stateMutability": "view",
      "type": "function"
    },
    {
      "inputs": [],
      "name": "stakeAmount",
      "outputs": [
        {
          "internalType": "uint256",
          "name": "",
          "type": "uint256"
        }
      ],
      "stateMutability": "view",
      "type": "function"
    },
    {
      "inputs": [
        {
          "internalType": "bytes32",
          "name": "_queryId",
          "type": "bytes32"
        },
        {
          "internalType": "bytes",
          "name": "_value",
          "type": "bytes"
        },
        {
          "internalType": "uint256",
          "name": "_nonce",
          "type": "uint256"
        },
        {
          "internalType": "bytes",
          "name": "_queryData",
          "type": "bytes"
        }
      ],
      "name": "submitValue",
      "outputs": [],
      "stateMutability": "nonpayable",
      "type": "function"
    },
    {
      "inputs": [],
      "name": "symbol",
      "outputs": [
        {
          "internalType": "string",
          "name": "",
          "type": "string"
        }
      ],
      "stateMutability": "view",
      "type": "function"
    },
    {
      "inputs": [],
      "name": "timeBasedReward",
      "outputs": [
        {
          "internalType": "uint256",
          "name": "",
          "type": "uint256"
        }
      ],
      "stateMutability": "view",
      "type": "function"
    },
    {
      "inputs": [
        {
          "internalType": "bytes32",
          "name": "",
          "type": "bytes32"
        },
        {
          "internalType": "uint256",
          "name": "",
          "type": "uint256"
        }
      ],
      "name": "timestamps",
      "outputs": [
        {
          "internalType": "uint256",
          "name": "",
          "type": "uint256"
        }
      ],
      "stateMutability": "view",
      "type": "function"
    },
    {
      "inputs": [
        {
          "internalType": "bytes32",
          "name": "",
          "type": "bytes32"
        }
      ],
      "name": "tips",
      "outputs": [
        {
          "internalType": "uint256",
          "name": "",
          "type": "uint256"
        }
      ],
      "stateMutability": "view",
      "type": "function"
    },
    {
      "inputs": [],
      "name": "tipsInContract",
      "outputs": [
        {
          "internalType": "uint256",
          "name": "",
          "type": "uint256"
        }
      ],
      "stateMutability": "view",
      "type": "function"
    },
    {
      "inputs": [],
      "name": "token",
      "outputs": [
        {
          "internalType": "address",
          "name": "",
          "type": "address"
        }
      ],
      "stateMutability": "view",
      "type": "function"
    },
    {
      "inputs": [],
      "name": "totalSupply",
      "outputs": [
        {
          "internalType": "uint256",
          "name": "",
          "type": "uint256"
        }
      ],
      "stateMutability": "view",
      "type": "function"
    },
    {
      "inputs": [
        {
          "internalType": "address",
          "name": "_recipient",
          "type": "address"
        },
        {
          "internalType": "uint256",
          "name": "_amount",
          "type": "uint256"
        }
      ],
      "name": "transfer",
      "outputs": [
        {
          "internalType": "bool",
          "name": "",
          "type": "bool"
        }
      ],
      "stateMutability": "nonpayable",
      "type": "function"
    },
    {
      "inputs": [
        {
          "internalType": "address",
          "name": "_sender",
          "type": "address"
        },
        {
          "internalType": "address",
          "name": "_recipient",
          "type": "address"
        },
        {
          "internalType": "uint256",
          "name": "_amount",
          "type": "uint256"
        }
      ],
      "name": "transferFrom",
      "outputs": [
        {
          "internalType": "bool",
          "name": "",
          "type": "bool"
        }
      ],
      "stateMutability": "nonpayable",
      "type": "function"
    },
    {
      "inputs": [
        {
          "internalType": "bytes32",
          "name": "",
          "type": "bytes32"
        },
        {
          "internalType": "uint256",
          "name": "",
          "type": "uint256"
        }
      ],
      "name": "values",
      "outputs": [
        {
          "internalType": "bytes",
          "name": "",
          "type": "bytes"
        }
      ],
      "stateMutability": "view",
      "type": "function"
    },
    {
      "inputs": [],
      "name": "voteCount",
      "outputs": [
        {
          "internalType": "uint256",
          "name": "",
          "type": "uint256"
        }
      ],
      "stateMutability": "view",
      "type": "function"
    },
    {
      "inputs": [
        {
          "internalType": "bytes32",
          "name": "",
          "type": "bytes32"
        },
        {
          "internalType": "uint256",
          "name": "",
          "type": "uint256"
        }
      ],
      "name": "voteRounds",
      "outputs": [
        {
          "internalType": "uint256",
          "name": "",
          "type": "uint256"
        }
      ],
      "stateMutability": "view",
      "type": "function"
    },
    {
      "inputs": [],
      "name": "withdrawStake",
      "outputs": [],
      "stateMutability": "nonpayable",
      "type": "function"
    }
  ],
  "bytecode": "0x60806040523480156200001157600080fd5b506040518060400160405280601081526020017f54656c6c6f72506c617967726f756e6400000000000000000000000000000000815250600e90805190602001906200005f92919062000111565b506040518060400160405280600481526020017f5452425000000000000000000000000000000000000000000000000000000000815250600f9080519060200190620000ad92919062000111565b506012601060006101000a81548160ff021916908360ff16021790555030600c60006101000a81548173ffffffffffffffffffffffffffffffffffffffff021916908373ffffffffffffffffffffffffffffffffffffffff16021790555062000226565b8280546200011f90620001c1565b90600052602060002090601f0160209004810192826200014357600085556200018f565b82601f106200015e57805160ff19168380011785556200018f565b828001600101855582156200018f579182015b828111156200018e57825182559160200191906001019062000171565b5b5090506200019e9190620001a2565b5090565b5b80821115620001bd576000816000905550600101620001a3565b5090565b60006002820490506001821680620001da57607f821691505b60208210811415620001f157620001f0620001f7565b5b50919050565b7f4e487b7100000000000000000000000000000000000000000000000000000000600052602260045260246000fd5b6132bb80620002366000396000f3fe608060405234801561001057600080fd5b50600436106102325760003560e01c8063733bdef011610130578063c5958af9116100b8578063d9c51cd41161007c578063d9c51cd414610734578063dd62ed3e14610750578063e07c548614610780578063f25133f3146107b0578063fc0c546a146107e057610232565b8063c5958af91461066a578063c63840711461069a578063c979fe9f146106b8578063cb82cc8f146106e8578063ce5e11bf1461070457610232565b806396426d97116100ff57806396426d97146105c4578063a792765f146105e2578063a9059cbb14610614578063b86d1d6314610644578063bed9d8611461066057610232565b8063733bdef01461052257806377b03e0d1461055a5780638929f4c61461058a57806395d89b41146105a657610232565b8063313ce567116101be57806360c7dc471161018257806360c7dc471461046857806364473df21461048657806369d43bd3146104b657806370a08231146104d4578063722580b61461050457610232565b8063313ce567146103b057806344e87f91146103ce5780635aa6e675146103fe5780635eaa9ced1461041c578063602bf2271461043857610232565b80631f379acc116102055780631f379acc146102d3578063217053c0146102ef57806323b872dd1461031f578063248638e51461034f578063294490851461037f57610232565b806306fdde0314610237578063091b50ff14610255578063095ea7b31461028557806318160ddd146102b5575b600080fd5b61023f6107fe565b60405161024c9190612995565b60405180910390f35b61026f600480360381019061026a919061242d565b610890565b60405161027c9190612973565b60405180910390f35b61029f600480360381019061029a9190612330565b61093d565b6040516102ac9190612880565b60405180910390f35b6102bd610954565b6040516102ca9190612b17565b60405180910390f35b6102ed60048036038101906102e8919061242d565b61095e565b005b6103096004803603810190610304919061242d565b610a62565b604051610316919061281a565b60405180910390f35b610339600480360381019061033491906122e1565b610aa4565b6040516103469190612880565b60405180910390f35b6103696004803603810190610364919061236c565b610b4e565b604051610376919061285e565b60405180910390f35b6103996004803603810190610394919061242d565b610bb9565b6040516103a79291906128d9565b60405180910390f35b6103b8610eb9565b6040516103c59190612bbf565b60405180910390f35b6103e860048036038101906103e3919061242d565b610ed0565b6040516103f59190612880565b60405180910390f35b610406610f0b565b604051610413919061281a565b60405180910390f35b61043660048036038101906104319190612395565b610f13565b005b610452600480360381019061044d919061236c565b611202565b60405161045f9190612b17565b60405180910390f35b61047061121a565b60405161047d9190612b17565b60405180910390f35b6104a0600480360381019061049b919061242d565b611220565b6040516104ad9190612880565b60405180910390f35b6104be61124f565b6040516104cb9190612b17565b60405180910390f35b6104ee60048036038101906104e9919061227c565b611255565b6040516104fb9190612b17565b60405180910390f35b61050c61129e565b6040516105199190612b17565b60405180910390f35b61053c6004803603810190610537919061227c565b6112a8565b60405161055199989796959493929190612b32565b60405180910390f35b610574600480360381019061056f919061236c565b611338565b6040516105819190612b17565b60405180910390f35b6105a4600480360381019061059f9190612469565b611358565b005b6105ae61145e565b6040516105bb9190612995565b60405180910390f35b6105cc6114f0565b6040516105d99190612b17565b60405180910390f35b6105fc60048036038101906105f7919061242d565b6114fc565b60405161060b9392919061289b565b60405180910390f35b61062e60048036038101906106299190612330565b61155f565b60405161063b9190612880565b60405180910390f35b61065e6004803603810190610659919061227c565b611576565b005b61066861158c565b005b610684600480360381019061067f919061242d565b6116be565b6040516106919190612973565b60405180910390f35b6106a2611775565b6040516106af9190612b17565b60405180910390f35b6106d260048036038101906106cd919061242d565b61177b565b6040516106df9190612b17565b60405180910390f35b61070260048036038101906106fd9190612469565b6117ac565b005b61071e6004803603810190610719919061242d565b6118d0565b60405161072b9190612b17565b60405180910390f35b61074e60048036038101906107499190612469565b61196a565b005b61076a600480360381019061076591906122a5565b611981565b6040516107779190612b17565b60405180910390f35b61079a6004803603810190610795919061242d565b611a08565b6040516107a7919061281a565b60405180910390f35b6107ca60048036038101906107c5919061242d565b611a57565b6040516107d79190612b17565b60405180910390f35b6107e8611a88565b6040516107f5919061281a565b60405180910390f35b6060600e805461080d90612e32565b80601f016020809104026020016040519081016040528092919081815260200182805461083990612e32565b80156108865780601f1061085b57610100808354040283529160200191610886565b820191906000526020600020905b81548152906001019060200180831161086957829003601f168201915b5050505050905090565b60056020528160005260406000206020528060005260406000206000915091505080546108bc90612e32565b80601f01602080910402602001604051908101604052809291908181526020018280546108e890612e32565b80156109355780601f1061090a57610100808354040283529160200191610935565b820191906000526020600020905b81548152906001019060200180831161091857829003601f168201915b505050505081565b600061094a338484611aae565b6001905092915050565b6000600d54905090565b6040518060200160405280600081525060056000848152602001908152602001600020600083815260200190815260200160002090805190602001906109a5929190612062565b506001600080848152602001908152602001600020600083815260200190815260200160002060006101000a81548160ff021916908315150217905550600b60008154809291906109f590612e95565b9190505550600660008383604051602001610a119291906127d5565b604051602081830303815290604052805190602001208152602001908152602001600020600b5490806001815401808255809150506001900390600052602060002001600090919091909150555050565b60016020528160005260406000206020528060005260406000206000915091509054906101000a900473ffffffffffffffffffffffffffffffffffffffff1681565b6000610ab1848484611c79565b610b43843384600760008973ffffffffffffffffffffffffffffffffffffffff1673ffffffffffffffffffffffffffffffffffffffff16815260200190815260200160002060003373ffffffffffffffffffffffffffffffffffffffff1673ffffffffffffffffffffffffffffffffffffffff16815260200190815260200160002054610b3e9190612d33565b611aae565b600190509392505050565b606060066000838152602001908152602001600020805480602002602001604051908101604052809291908181526020018280548015610bad57602002820191906000526020600020905b815481526020019060010190808311610b99575b50505050509050919050565b6000806000610bc785611338565b90506000811115610ea957600080600090506000600184610be89190612d33565b90506000610bf689846118d0565b9050878110610c1057600080965096505050505050610eb2565b610c1a89836118d0565b905087811015610c9c575b610c2f8982610ed0565b8015610c3b5750600082115b15610c5f578180610c4b90612e08565b925050610c5889836118d0565b9050610c25565b600082148015610c755750610c748982610ed0565b5b15610c8b57600080965096505050505050610eb2565b600182965096505050505050610eb2565b5b600115610ea45782600160028585610cb59190612d33565b610cbf9190612d02565b610cc99190612cac565b610cd39190612cac565b9350610cdf89856118d0565b905087811015610db9576000610d018a600187610cfc9190612cac565b6118d0565b9050888110610da457610d148a83610ed0565b610d2a5760018597509750505050505050610eb2565b5b610d358a83610ed0565b8015610d415750600085115b15610d65578480610d5190612e08565b955050610d5e8a866118d0565b9150610d2b565b600085148015610d7b5750610d7a8a83610ed0565b5b15610d925760008097509750505050505050610eb2565b60018597509750505050505050610eb2565b600185610db19190612cac565b935050610e9f565b6000610dd18a600187610dcc9190612d33565b6118d0565b905088811015610e8e57610de58a82610ed0565b610e065760018086610df79190612d33565b97509750505050505050610eb2565b8480610e1190612e08565b9550505b610e1f8a82610ed0565b8015610e2b5750600085115b15610e4f578480610e3b90612e08565b955050610e488a866118d0565b9050610e15565b600085148015610e655750610e648a82610ed0565b5b15610e7c5760008097509750505050505050610eb2565b60018597509750505050505050610eb2565b600185610e9b9190612d33565b9250505b610c9d565b505050505b60008092509250505b9250929050565b6000601060009054906101000a900460ff16905090565b6000806000848152602001908152602001600020600083815260200190815260200160002060009054906101000a900460ff16905092915050565b600030905090565b7fc5d2460186f7233c927e7db2dcc703c0e500b653ca82273b7bfad8045d85a4708484604051610f44929190612801565b60405180910390201415610f8d576040517f08c379a0000000000000000000000000000000000000000000000000000000008152600401610f8490612a37565b60405180910390fd5b6003600086815260200190815260200160002080549050821480610fb15750600082145b610ff0576040517f08c379a0000000000000000000000000000000000000000000000000000000008152600401610fe790612a57565b60405180910390fd5b8080519060200120851480611009575060648560001c11155b611048576040517f08c379a000000000000000000000000000000000000000000000000000000000815260040161103f906129f7565b60405180910390fd5b8383600560008881526020019081526020016000206000428152602001908152602001600020919061107b9291906120e8565b50600360008681526020019081526020016000204290806001815401808255809150506001900390600052602060002001600090919091909150553360016000878152602001908152602001600020600042815260200190815260200160002060006101000a81548173ffffffffffffffffffffffffffffffffffffffff021916908373ffffffffffffffffffffffffffffffffffffffff16021790555042600260003373ffffffffffffffffffffffffffffffffffffffff1673ffffffffffffffffffffffffffffffffffffffff16815260200190815260200160002060030181905550600260003373ffffffffffffffffffffffffffffffffffffffff1673ffffffffffffffffffffffffffffffffffffffff16815260200190815260200160002060040160008154809291906111b390612e95565b91905055507f48e9e2c732ba278de6ac88a3a57a5c5ba13d3d8370e709b3b98333a57876ca95854286868686336040516111f39796959493929190612902565b60405180910390a15050505050565b60046020528060005260406000206000915090505481565b60095481565b60006020528160005260406000206020528060005260406000206000915091509054906101000a900460ff1681565b600a5481565b6000600860008373ffffffffffffffffffffffffffffffffffffffff1673ffffffffffffffffffffffffffffffffffffffff168152602001908152602001600020549050919050565b6000600954905090565b600080600080600080600080600080600260008c73ffffffffffffffffffffffffffffffffffffffff1673ffffffffffffffffffffffffffffffffffffffff16815260200190815260200160002090508060000154816001015482600201546000846003015485600401546000806000995099509950995099509950995099509950509193959799909294969850565b600060036000838152602001908152602001600020805490509050919050565b6000600260003373ffffffffffffffffffffffffffffffffffffffff1673ffffffffffffffffffffffffffffffffffffffff168152602001908152602001600020905081816001015410156113e2576040517f08c379a00000000000000000000000000000000000000000000000000000000081526004016113d990612ad7565b60405180910390fd5b428160000181905550818160020160008282546113ff9190612cac565b925050819055508181600101600082825461141a9190612d33565b925050819055507f3d8d9df4bd0172df32e557fa48e96435cd7f2cac06aaffacfaee608e6f7898ef3383604051611452929190612835565b60405180910390a15050565b6060600f805461146d90612e32565b80601f016020809104026020016040519081016040528092919081815260200182805461149990612e32565b80156114e65780601f106114bb576101008083540402835291602001916114e6565b820191906000526020600020905b8154815290600101906020018083116114c957829003601f168201915b5050505050905090565b6706f05b59d3b2000081565b60006060600080600061150f8787610bb9565b91509150816115395760006040518060200160405280600081525060009450945094505050611558565b61154387826118d0565b925061154f87846116be565b93506001945050505b9250925092565b600061156c338484611c79565b6001905092915050565b61158981683635c9adc5dea00000611e6f565b50565b6000600260003373ffffffffffffffffffffffffffffffffffffffff1673ffffffffffffffffffffffffffffffffffffffff168152602001908152602001600020905062093a808160000154426115e39190612d33565b1015611624576040517f08c379a000000000000000000000000000000000000000000000000000000000815260040161161b90612a17565b60405180910390fd5b600081600201541161166b576040517f08c379a000000000000000000000000000000000000000000000000000000000815260040161166290612a97565b60405180910390fd5b61167a30338360020154611c79565b600081600201819055507f4a7934670bd8304e7da22378be1368f7c4fef17c5aee81804beda8638fe428ec336040516116b3919061281a565b60405180910390a150565b606060056000848152602001908152602001600020600083815260200190815260200160002080546116ef90612e32565b80601f016020809104026020016040519081016040528092919081815260200182805461171b90612e32565b80156117685780601f1061173d57610100808354040283529160200191611768565b820191906000526020600020905b81548152906001019060200180831161174b57829003601f168201915b5050505050905092915050565b600b5481565b6006602052816000526040600020818154811061179757600080fd5b90600052602060002001600091509150505481565b6000600260003373ffffffffffffffffffffffffffffffffffffffff1673ffffffffffffffffffffffffffffffffffffffff168152602001908152602001600020905060008160020154111561185a5781816002015410611827578181600201600082825461181b9190612d33565b92505081905550611855565b611841333083600201548561183c9190612d33565b611fb8565b61184a57600080fd5b600081600201819055505b61186f565b611865333084611fb8565b61186e57600080fd5b5b4281600001819055508181600101600082825461188c9190612cac565b925050819055507fa96c2cce65119a2170d1711a6e82f18f2006448828483ba7545e59547654364733836040516118c4929190612835565b60405180910390a15050565b6000806003600085815260200190815260200160002080549050905060008114806118fb5750828111155b1561190a576000915050611964565b600360008581526020019081526020016000208381548110611955577f4e487b7100000000000000000000000000000000000000000000000000000000600052603260045260246000fd5b90600052602060002001549150505b92915050565b611975333083611fb8565b61197e57600080fd5b50565b6000600760008473ffffffffffffffffffffffffffffffffffffffff1673ffffffffffffffffffffffffffffffffffffffff16815260200190815260200160002060008373ffffffffffffffffffffffffffffffffffffffff1673ffffffffffffffffffffffffffffffffffffffff16815260200190815260200160002054905092915050565b600060016000848152602001908152602001600020600083815260200190815260200160002060009054906101000a900473ffffffffffffffffffffffffffffffffffffffff16905092915050565b60036020528160005260406000208181548110611a7357600080fd5b90600052602060002001600091509150505481565b600c60009054906101000a900473ffffffffffffffffffffffffffffffffffffffff1681565b600073ffffffffffffffffffffffffffffffffffffffff168373ffffffffffffffffffffffffffffffffffffffff161415611b1e576040517f08c379a0000000000000000000000000000000000000000000000000000000008152600401611b1590612ab7565b60405180910390fd5b600073ffffffffffffffffffffffffffffffffffffffff168273ffffffffffffffffffffffffffffffffffffffff161415611b8e576040517f08c379a0000000000000000000000000000000000000000000000000000000008152600401611b85906129d7565b60405180910390fd5b80600760008573ffffffffffffffffffffffffffffffffffffffff1673ffffffffffffffffffffffffffffffffffffffff16815260200190815260200160002060008473ffffffffffffffffffffffffffffffffffffffff1673ffffffffffffffffffffffffffffffffffffffff168152602001908152602001600020819055508173ffffffffffffffffffffffffffffffffffffffff168373ffffffffffffffffffffffffffffffffffffffff167f8c5be1e5ebec7d5bd14f71427d1e84f3dd0314c0f7b2291e5b200ac8c7c3b92583604051611c6c9190612b17565b60405180910390a3505050565b600073ffffffffffffffffffffffffffffffffffffffff168373ffffffffffffffffffffffffffffffffffffffff161415611ce9576040517f08c379a0000000000000000000000000000000000000000000000000000000008152600401611ce090612a77565b60405180910390fd5b600073ffffffffffffffffffffffffffffffffffffffff168273ffffffffffffffffffffffffffffffffffffffff161415611d59576040517f08c379a0000000000000000000000000000000000000000000000000000000008152600401611d50906129b7565b60405180910390fd5b80600860008573ffffffffffffffffffffffffffffffffffffffff1673ffffffffffffffffffffffffffffffffffffffff1681526020019081526020016000206000828254611da89190612d33565b9250508190555080600860008473ffffffffffffffffffffffffffffffffffffffff1673ffffffffffffffffffffffffffffffffffffffff1681526020019081526020016000206000828254611dfe9190612cac565b925050819055508173ffffffffffffffffffffffffffffffffffffffff168373ffffffffffffffffffffffffffffffffffffffff167fddf252ad1be2c89b69c2b068fc378daa952ba7f163c4a11628f55a4df523b3ef83604051611e629190612b17565b60405180910390a3505050565b600073ffffffffffffffffffffffffffffffffffffffff168273ffffffffffffffffffffffffffffffffffffffff161415611edf576040517f08c379a0000000000000000000000000000000000000000000000000000000008152600401611ed690612af7565b60405180910390fd5b80600d6000828254611ef19190612cac565b9250508190555080600860008473ffffffffffffffffffffffffffffffffffffffff1673ffffffffffffffffffffffffffffffffffffffff1681526020019081526020016000206000828254611f479190612cac565b925050819055508173ffffffffffffffffffffffffffffffffffffffff16600073ffffffffffffffffffffffffffffffffffffffff167fddf252ad1be2c89b69c2b068fc378daa952ba7f163c4a11628f55a4df523b3ef83604051611fac9190612b17565b60405180910390a35050565b6000611fc5848484611c79565b612057843384600760008973ffffffffffffffffffffffffffffffffffffffff1673ffffffffffffffffffffffffffffffffffffffff16815260200190815260200160002060003073ffffffffffffffffffffffffffffffffffffffff1673ffffffffffffffffffffffffffffffffffffffff168152602001908152602001600020546120529190612d33565b611aae565b600190509392505050565b82805461206e90612e32565b90600052602060002090601f01602090048101928261209057600085556120d7565b82601f106120a957805160ff19168380011785556120d7565b828001600101855582156120d7579182015b828111156120d65782518255916020019190600101906120bb565b5b5090506120e4919061216e565b5090565b8280546120f490612e32565b90600052602060002090601f016020900481019282612116576000855561215d565b82601f1061212f57803560ff191683800117855561215d565b8280016001018555821561215d579182015b8281111561215c578235825591602001919060010190612141565b5b50905061216a919061216e565b5090565b5b8082111561218757600081600090555060010161216f565b5090565b600061219e61219984612bff565b612bda565b9050828152602081018484840111156121b657600080fd5b6121c1848285612dc6565b509392505050565b6000813590506121d881613240565b92915050565b6000813590506121ed81613257565b92915050565b60008083601f84011261220557600080fd5b8235905067ffffffffffffffff81111561221e57600080fd5b60208301915083600182028301111561223657600080fd5b9250929050565b600082601f83011261224e57600080fd5b813561225e84826020860161218b565b91505092915050565b6000813590506122768161326e565b92915050565b60006020828403121561228e57600080fd5b600061229c848285016121c9565b91505092915050565b600080604083850312156122b857600080fd5b60006122c6858286016121c9565b92505060206122d7858286016121c9565b9150509250929050565b6000806000606084860312156122f657600080fd5b6000612304868287016121c9565b9350506020612315868287016121c9565b925050604061232686828701612267565b9150509250925092565b6000806040838503121561234357600080fd5b6000612351858286016121c9565b925050602061236285828601612267565b9150509250929050565b60006020828403121561237e57600080fd5b600061238c848285016121de565b91505092915050565b6000806000806000608086880312156123ad57600080fd5b60006123bb888289016121de565b955050602086013567ffffffffffffffff8111156123d857600080fd5b6123e4888289016121f3565b945094505060406123f788828901612267565b925050606086013567ffffffffffffffff81111561241457600080fd5b6124208882890161223d565b9150509295509295909350565b6000806040838503121561244057600080fd5b600061244e858286016121de565b925050602061245f85828601612267565b9150509250929050565b60006020828403121561247b57600080fd5b600061248984828501612267565b91505092915050565b600061249e8383612791565b60208301905092915050565b6124b381612d67565b82525050565b60006124c482612c40565b6124ce8185612c6e565b93506124d983612c30565b8060005b8381101561250a5781516124f18882612492565b97506124fc83612c61565b9250506001810190506124dd565b5085935050505092915050565b61252081612d79565b82525050565b61252f81612d85565b82525050565b61254661254182612d85565b612ede565b82525050565b60006125588385612c7f565b9350612565838584612dc6565b61256e83612fae565b840190509392505050565b60006125858385612c90565b9350612592838584612dc6565b82840190509392505050565b60006125a982612c4b565b6125b38185612c7f565b93506125c3818560208601612dd5565b6125cc81612fae565b840191505092915050565b60006125e282612c56565b6125ec8185612c9b565b93506125fc818560208601612dd5565b61260581612fae565b840191505092915050565b600061261d602383612c9b565b915061262882612fbf565b604082019050919050565b6000612640602283612c9b565b915061264b8261300e565b604082019050919050565b6000612663601d83612c9b565b915061266e8261305d565b602082019050919050565b6000612686601283612c9b565b915061269182613086565b602082019050919050565b60006126a9601783612c9b565b91506126b4826130af565b602082019050919050565b60006126cc602083612c9b565b91506126d7826130d8565b602082019050919050565b60006126ef602583612c9b565b91506126fa82613101565b604082019050919050565b6000612712602283612c9b565b915061271d82613150565b604082019050919050565b6000612735602483612c9b565b91506127408261319f565b604082019050919050565b6000612758601b83612c9b565b9150612763826131ee565b602082019050919050565b600061277b601f83612c9b565b915061278682613217565b602082019050919050565b61279a81612daf565b82525050565b6127a981612daf565b82525050565b6127c06127bb82612daf565b612ee8565b82525050565b6127cf81612db9565b82525050565b60006127e18285612535565b6020820191506127f182846127af565b6020820191508190509392505050565b600061280e828486612579565b91508190509392505050565b600060208201905061282f60008301846124aa565b92915050565b600060408201905061284a60008301856124aa565b61285760208301846127a0565b9392505050565b6000602082019050818103600083015261287881846124b9565b905092915050565b60006020820190506128956000830184612517565b92915050565b60006060820190506128b06000830186612517565b81810360208301526128c2818561259e565b90506128d160408301846127a0565b949350505050565b60006040820190506128ee6000830185612517565b6128fb60208301846127a0565b9392505050565b600060c082019050612917600083018a612526565b61292460208301896127a0565b818103604083015261293781878961254c565b905061294660608301866127a0565b8181036080830152612958818561259e565b905061296760a08301846124aa565b98975050505050505050565b6000602082019050818103600083015261298d818461259e565b905092915050565b600060208201905081810360008301526129af81846125d7565b905092915050565b600060208201905081810360008301526129d081612610565b9050919050565b600060208201905081810360008301526129f081612633565b9050919050565b60006020820190508181036000830152612a1081612656565b9050919050565b60006020820190508181036000830152612a3081612679565b9050919050565b60006020820190508181036000830152612a508161269c565b9050919050565b60006020820190508181036000830152612a70816126bf565b9050919050565b60006020820190508181036000830152612a90816126e2565b9050919050565b60006020820190508181036000830152612ab081612705565b9050919050565b60006020820190508181036000830152612ad081612728565b9050919050565b60006020820190508181036000830152612af08161274b565b9050919050565b60006020820190508181036000830152612b108161276e565b9050919050565b6000602082019050612b2c60008301846127a0565b92915050565b600061012082019050612b48600083018c6127a0565b612b55602083018b6127a0565b612b62604083018a6127a0565b612b6f60608301896127a0565b612b7c60808301886127a0565b612b8960a08301876127a0565b612b9660c08301866127a0565b612ba360e08301856127a0565b612bb1610100830184612517565b9a9950505050505050505050565b6000602082019050612bd460008301846127c6565b92915050565b6000612be4612bf5565b9050612bf08282612e64565b919050565b6000604051905090565b600067ffffffffffffffff821115612c1a57612c19612f7f565b5b612c2382612fae565b9050602081019050919050565b6000819050602082019050919050565b600081519050919050565b600081519050919050565b600081519050919050565b6000602082019050919050565b600082825260208201905092915050565b600082825260208201905092915050565b600081905092915050565b600082825260208201905092915050565b6000612cb782612daf565b9150612cc283612daf565b9250827fffffffffffffffffffffffffffffffffffffffffffffffffffffffffffffffff03821115612cf757612cf6612ef2565b5b828201905092915050565b6000612d0d82612daf565b9150612d1883612daf565b925082612d2857612d27612f21565b5b828204905092915050565b6000612d3e82612daf565b9150612d4983612daf565b925082821015612d5c57612d5b612ef2565b5b828203905092915050565b6000612d7282612d8f565b9050919050565b60008115159050919050565b6000819050919050565b600073ffffffffffffffffffffffffffffffffffffffff82169050919050565b6000819050919050565b600060ff82169050919050565b82818337600083830152505050565b60005b83811015612df3578082015181840152602081019050612dd8565b83811115612e02576000848401525b50505050565b6000612e1382612daf565b91506000821415612e2757612e26612ef2565b5b600182039050919050565b60006002820490506001821680612e4a57607f821691505b60208210811415612e5e57612e5d612f50565b5b50919050565b612e6d82612fae565b810181811067ffffffffffffffff82111715612e8c57612e8b612f7f565b5b80604052505050565b6000612ea082612daf565b91507fffffffffffffffffffffffffffffffffffffffffffffffffffffffffffffffff821415612ed357612ed2612ef2565b5b600182019050919050565b6000819050919050565b6000819050919050565b7f4e487b7100000000000000000000000000000000000000000000000000000000600052601160045260246000fd5b7f4e487b7100000000000000000000000000000000000000000000000000000000600052601260045260246000fd5b7f4e487b7100000000000000000000000000000000000000000000000000000000600052602260045260246000fd5b7f4e487b7100000000000000000000000000000000000000000000000000000000600052604160045260246000fd5b6000601f19601f8301169050919050565b7f45524332303a207472616e7366657220746f20746865207a65726f206164647260008201527f6573730000000000000000000000000000000000000000000000000000000000602082015250565b7f45524332303a20617070726f766520746f20746865207a65726f20616464726560008201527f7373000000000000000000000000000000000000000000000000000000000000602082015250565b7f6964206d7573742062652068617368206f662062797465732064617461000000600082015250565b7f372064617973206469646e277420706173730000000000000000000000000000600082015250565b7f76616c7565206d757374206265207375626d6974746564000000000000000000600082015250565b7f6e6f6e6365206d757374206d617463682074696d657374616d7020696e646578600082015250565b7f45524332303a207472616e736665722066726f6d20746865207a65726f20616460008201527f6472657373000000000000000000000000000000000000000000000000000000602082015250565b7f7265706f72746572206e6f74206c6f636b656420666f7220776974686472617760008201527f616c000000000000000000000000000000000000000000000000000000000000602082015250565b7f45524332303a20617070726f76652066726f6d20746865207a65726f2061646460008201527f7265737300000000000000000000000000000000000000000000000000000000602082015250565b7f696e73756666696369656e74207374616b65642062616c616e63650000000000600082015250565b7f45524332303a206d696e7420746f20746865207a65726f206164647265737300600082015250565b61324981612d67565b811461325457600080fd5b50565b61326081612d85565b811461326b57600080fd5b50565b61327781612daf565b811461328257600080fd5b5056fea2646970667358221220751942a6947ada67f2723dd67647552ed6aca1340bff61ed948977c4146534c664736f6c63430008030033",
  "linkReferences": {},
  "deployedLinkReferences": {}
}