{
  "_format": "hh-sol-artifact-1",
  "contractName": "TellorPlayground",
  "sourceName": "contracts/TellorPlayground.sol",
  "abi": [
    {
      "inputs": [],
      "stateMutability": "nonpayable",
      "type": "constructor"
    },
    {
      "anonymous": false,
      "inputs": [
        {
          "indexed": true,
          "internalType": "address",
          "name": "owner",
          "type": "address"
        },
        {
          "indexed": true,
          "internalType": "address",
          "name": "spender",
          "type": "address"
        },
        {
          "indexed": false,
          "internalType": "uint256",
          "name": "value",
          "type": "uint256"
        }
      ],
      "name": "Approval",
      "type": "event"
    },
    {
      "anonymous": false,
      "inputs": [
        {
          "indexed": false,
          "internalType": "bytes32",
          "name": "_queryId",
          "type": "bytes32"
        },
        {
          "indexed": false,
          "internalType": "uint256",
          "name": "_time",
          "type": "uint256"
        },
        {
          "indexed": false,
          "internalType": "bytes",
          "name": "_value",
          "type": "bytes"
        },
        {
          "indexed": false,
          "internalType": "uint256",
          "name": "_nonce",
          "type": "uint256"
        },
        {
          "indexed": false,
          "internalType": "bytes",
          "name": "_queryData",
          "type": "bytes"
        },
        {
          "indexed": false,
          "internalType": "address",
          "name": "_reporter",
          "type": "address"
        }
      ],
      "name": "NewReport",
      "type": "event"
    },
    {
      "anonymous": false,
      "inputs": [
        {
          "indexed": false,
          "internalType": "address",
          "name": "_staker",
          "type": "address"
        },
        {
          "indexed": false,
          "internalType": "uint256",
          "name": "_amount",
          "type": "uint256"
        }
      ],
      "name": "NewStaker",
      "type": "event"
    },
    {
      "anonymous": false,
      "inputs": [
        {
          "indexed": false,
          "internalType": "address",
          "name": "_staker",
          "type": "address"
        },
        {
          "indexed": false,
          "internalType": "uint256",
          "name": "_amount",
          "type": "uint256"
        }
      ],
      "name": "StakeWithdrawRequested",
      "type": "event"
    },
    {
      "anonymous": false,
      "inputs": [
        {
          "indexed": false,
          "internalType": "address",
          "name": "_staker",
          "type": "address"
        }
      ],
      "name": "StakeWithdrawn",
      "type": "event"
    },
    {
      "anonymous": false,
      "inputs": [
        {
          "indexed": true,
          "internalType": "address",
          "name": "_user",
          "type": "address"
        },
        {
          "indexed": true,
          "internalType": "bytes32",
          "name": "_queryId",
          "type": "bytes32"
        },
        {
          "indexed": false,
          "internalType": "uint256",
          "name": "_tip",
          "type": "uint256"
        },
        {
          "indexed": false,
          "internalType": "uint256",
          "name": "_totalTip",
          "type": "uint256"
        },
        {
          "indexed": false,
          "internalType": "bytes",
          "name": "_queryData",
          "type": "bytes"
        }
      ],
      "name": "TipAdded",
      "type": "event"
    },
    {
      "anonymous": false,
      "inputs": [
        {
          "indexed": true,
          "internalType": "address",
          "name": "from",
          "type": "address"
        },
        {
          "indexed": true,
          "internalType": "address",
          "name": "to",
          "type": "address"
        },
        {
          "indexed": false,
          "internalType": "uint256",
          "name": "value",
          "type": "uint256"
        }
      ],
      "name": "Transfer",
      "type": "event"
    },
    {
      "inputs": [
        {
          "internalType": "uint256",
          "name": "_amount",
          "type": "uint256"
        }
      ],
      "name": "addStakingRewards",
      "outputs": [],
      "stateMutability": "nonpayable",
      "type": "function"
    },
    {
      "inputs": [
        {
          "internalType": "bytes32",
          "name": "",
          "type": "bytes32"
        }
      ],
      "name": "addresses",
      "outputs": [
        {
          "internalType": "address",
          "name": "",
          "type": "address"
        }
      ],
      "stateMutability": "view",
      "type": "function"
    },
    {
      "inputs": [
        {
          "internalType": "address",
          "name": "_owner",
          "type": "address"
        },
        {
          "internalType": "address",
          "name": "_spender",
          "type": "address"
        }
      ],
      "name": "allowance",
      "outputs": [
        {
          "internalType": "uint256",
          "name": "",
          "type": "uint256"
        }
      ],
      "stateMutability": "view",
      "type": "function"
    },
    {
      "inputs": [
        {
          "internalType": "address",
          "name": "_spender",
          "type": "address"
        },
        {
          "internalType": "uint256",
          "name": "_amount",
          "type": "uint256"
        }
      ],
      "name": "approve",
      "outputs": [
        {
          "internalType": "bool",
          "name": "",
          "type": "bool"
        }
      ],
      "stateMutability": "nonpayable",
      "type": "function"
    },
    {
      "inputs": [
        {
          "internalType": "address",
          "name": "_account",
          "type": "address"
        }
      ],
      "name": "balanceOf",
      "outputs": [
        {
          "internalType": "uint256",
          "name": "",
          "type": "uint256"
        }
      ],
      "stateMutability": "view",
      "type": "function"
    },
    {
      "inputs": [
        {
          "internalType": "bytes32",
          "name": "_queryId",
          "type": "bytes32"
        },
        {
          "internalType": "uint256",
          "name": "_timestamp",
          "type": "uint256"
        }
      ],
      "name": "beginDispute",
      "outputs": [],
      "stateMutability": "nonpayable",
      "type": "function"
    },
    {
      "inputs": [],
      "name": "decimals",
      "outputs": [
        {
          "internalType": "uint8",
          "name": "",
          "type": "uint8"
        }
      ],
      "stateMutability": "view",
      "type": "function"
    },
    {
      "inputs": [
        {
          "internalType": "uint256",
          "name": "_amount",
          "type": "uint256"
        }
      ],
      "name": "depositStake",
      "outputs": [],
      "stateMutability": "nonpayable",
      "type": "function"
    },
    {
      "inputs": [
        {
          "internalType": "address",
          "name": "_user",
          "type": "address"
        }
      ],
      "name": "faucet",
      "outputs": [],
      "stateMutability": "nonpayable",
      "type": "function"
    },
    {
      "inputs": [
        {
          "internalType": "bytes32",
          "name": "_queryId",
          "type": "bytes32"
        }
      ],
      "name": "getNewValueCountbyQueryId",
      "outputs": [
        {
          "internalType": "uint256",
          "name": "",
          "type": "uint256"
        }
      ],
      "stateMutability": "view",
      "type": "function"
    },
    {
      "inputs": [
        {
          "internalType": "bytes32",
          "name": "_queryId",
          "type": "bytes32"
        },
        {
          "internalType": "uint256",
          "name": "_timestamp",
          "type": "uint256"
        }
      ],
      "name": "getReporterByTimestamp",
      "outputs": [
        {
          "internalType": "address",
          "name": "",
          "type": "address"
        }
      ],
      "stateMutability": "view",
      "type": "function"
    },
    {
      "inputs": [
        {
          "internalType": "address",
          "name": "_staker",
          "type": "address"
        }
      ],
      "name": "getStakerInfo",
      "outputs": [
        {
          "internalType": "uint256",
          "name": "",
          "type": "uint256"
        },
        {
          "internalType": "uint256",
          "name": "",
          "type": "uint256"
        },
        {
          "internalType": "uint256",
          "name": "",
          "type": "uint256"
        },
        {
          "internalType": "uint256",
          "name": "",
          "type": "uint256"
        },
        {
          "internalType": "uint256",
          "name": "",
          "type": "uint256"
        }
      ],
      "stateMutability": "view",
      "type": "function"
    },
    {
      "inputs": [
        {
          "internalType": "bytes32",
          "name": "_queryId",
          "type": "bytes32"
        },
        {
          "internalType": "uint256",
          "name": "_index",
          "type": "uint256"
        }
      ],
      "name": "getTimestampbyQueryIdandIndex",
      "outputs": [
        {
          "internalType": "uint256",
          "name": "",
          "type": "uint256"
        }
      ],
      "stateMutability": "view",
      "type": "function"
    },
    {
      "inputs": [
        {
          "internalType": "bytes32",
          "name": "_hash",
          "type": "bytes32"
        }
      ],
      "name": "getVoteRounds",
      "outputs": [
        {
          "internalType": "uint256[]",
          "name": "",
          "type": "uint256[]"
        }
      ],
      "stateMutability": "view",
      "type": "function"
    },
    {
      "inputs": [],
      "name": "governance",
      "outputs": [
        {
          "internalType": "address",
          "name": "",
          "type": "address"
        }
      ],
      "stateMutability": "view",
      "type": "function"
    },
    {
      "inputs": [
        {
          "internalType": "bytes32",
          "name": "",
          "type": "bytes32"
        },
        {
          "internalType": "uint256",
          "name": "",
          "type": "uint256"
        }
      ],
      "name": "isDisputed",
      "outputs": [
        {
          "internalType": "bool",
          "name": "",
          "type": "bool"
        }
      ],
      "stateMutability": "view",
      "type": "function"
    },
    {
      "inputs": [],
      "name": "name",
      "outputs": [
        {
          "internalType": "string",
          "name": "",
          "type": "string"
        }
      ],
      "stateMutability": "view",
      "type": "function"
    },
    {
      "inputs": [
        {
          "internalType": "bytes32",
          "name": "",
          "type": "bytes32"
        },
        {
          "internalType": "uint256",
          "name": "",
          "type": "uint256"
        }
      ],
      "name": "reporterByTimestamp",
      "outputs": [
        {
          "internalType": "address",
          "name": "",
          "type": "address"
        }
      ],
      "stateMutability": "view",
      "type": "function"
    },
    {
      "inputs": [
        {
          "internalType": "uint256",
          "name": "_amount",
          "type": "uint256"
        }
      ],
      "name": "requestStakingWithdraw",
      "outputs": [],
      "stateMutability": "nonpayable",
      "type": "function"
    },
    {
      "inputs": [
        {
          "internalType": "bytes32",
          "name": "_queryId",
          "type": "bytes32"
        },
        {
          "internalType": "uint256",
          "name": "_timestamp",
          "type": "uint256"
        }
      ],
      "name": "retrieveData",
      "outputs": [
        {
          "internalType": "bytes",
          "name": "",
          "type": "bytes"
        }
      ],
      "stateMutability": "view",
      "type": "function"
    },
    {
      "inputs": [
        {
          "internalType": "bytes32",
          "name": "_queryId",
          "type": "bytes32"
        },
        {
          "internalType": "bytes",
          "name": "_value",
          "type": "bytes"
        },
        {
          "internalType": "uint256",
          "name": "_nonce",
          "type": "uint256"
        },
        {
          "internalType": "bytes",
          "name": "_queryData",
          "type": "bytes"
        }
      ],
      "name": "submitValue",
      "outputs": [],
      "stateMutability": "nonpayable",
      "type": "function"
    },
    {
      "inputs": [],
      "name": "symbol",
      "outputs": [
        {
          "internalType": "string",
          "name": "",
          "type": "string"
        }
      ],
      "stateMutability": "view",
      "type": "function"
    },
    {
      "inputs": [],
      "name": "timeBasedReward",
      "outputs": [
        {
          "internalType": "uint256",
          "name": "",
          "type": "uint256"
        }
      ],
      "stateMutability": "view",
      "type": "function"
    },
    {
      "inputs": [
        {
          "internalType": "bytes32",
          "name": "",
          "type": "bytes32"
        },
        {
          "internalType": "uint256",
          "name": "",
          "type": "uint256"
        }
      ],
      "name": "timestamps",
      "outputs": [
        {
          "internalType": "uint256",
          "name": "",
          "type": "uint256"
        }
      ],
      "stateMutability": "view",
      "type": "function"
    },
    {
      "inputs": [
        {
          "internalType": "bytes32",
          "name": "_queryId",
          "type": "bytes32"
        },
        {
          "internalType": "uint256",
          "name": "_amount",
          "type": "uint256"
        },
        {
          "internalType": "bytes",
          "name": "_queryData",
          "type": "bytes"
        }
      ],
      "name": "tipQuery",
      "outputs": [],
      "stateMutability": "nonpayable",
      "type": "function"
    },
    {
      "inputs": [
        {
          "internalType": "bytes32",
          "name": "",
          "type": "bytes32"
        }
      ],
      "name": "tips",
      "outputs": [
        {
          "internalType": "uint256",
          "name": "",
          "type": "uint256"
        }
      ],
      "stateMutability": "view",
      "type": "function"
    },
    {
      "inputs": [],
      "name": "tipsInContract",
      "outputs": [
        {
          "internalType": "uint256",
          "name": "",
          "type": "uint256"
        }
      ],
      "stateMutability": "view",
      "type": "function"
    },
    {
      "inputs": [],
      "name": "totalSupply",
      "outputs": [
        {
          "internalType": "uint256",
          "name": "",
          "type": "uint256"
        }
      ],
      "stateMutability": "view",
      "type": "function"
    },
    {
      "inputs": [
        {
          "internalType": "address",
          "name": "_recipient",
          "type": "address"
        },
        {
          "internalType": "uint256",
          "name": "_amount",
          "type": "uint256"
        }
      ],
      "name": "transfer",
      "outputs": [
        {
          "internalType": "bool",
          "name": "",
          "type": "bool"
        }
      ],
      "stateMutability": "nonpayable",
      "type": "function"
    },
    {
      "inputs": [
        {
          "internalType": "address",
          "name": "_sender",
          "type": "address"
        },
        {
          "internalType": "address",
          "name": "_recipient",
          "type": "address"
        },
        {
          "internalType": "uint256",
          "name": "_amount",
          "type": "uint256"
        }
      ],
      "name": "transferFrom",
      "outputs": [
        {
          "internalType": "bool",
          "name": "",
          "type": "bool"
        }
      ],
      "stateMutability": "nonpayable",
      "type": "function"
    },
    {
      "inputs": [
        {
          "internalType": "bytes32",
          "name": "",
          "type": "bytes32"
        },
        {
          "internalType": "uint256",
          "name": "",
          "type": "uint256"
        }
      ],
      "name": "values",
      "outputs": [
        {
          "internalType": "bytes",
          "name": "",
          "type": "bytes"
        }
      ],
      "stateMutability": "view",
      "type": "function"
    },
    {
      "inputs": [],
      "name": "voteCount",
      "outputs": [
        {
          "internalType": "uint256",
          "name": "",
          "type": "uint256"
        }
      ],
      "stateMutability": "view",
      "type": "function"
    },
    {
      "inputs": [
        {
          "internalType": "bytes32",
          "name": "",
          "type": "bytes32"
        },
        {
          "internalType": "uint256",
          "name": "",
          "type": "uint256"
        }
      ],
      "name": "voteRounds",
      "outputs": [
        {
          "internalType": "uint256",
          "name": "",
          "type": "uint256"
        }
      ],
      "stateMutability": "view",
      "type": "function"
    },
    {
      "inputs": [],
      "name": "withdrawStake",
      "outputs": [],
      "stateMutability": "nonpayable",
      "type": "function"
    }
  ],
  "bytecode": "0x60806040523480156200001157600080fd5b506040518060400160405280601081526020017f54656c6c6f72506c617967726f756e6400000000000000000000000000000000815250600d90805190602001906200005f92919062000147565b506040518060400160405280600481526020017f5452425000000000000000000000000000000000000000000000000000000000815250600e9080519060200190620000ad92919062000147565b506012600f60006101000a81548160ff021916908360ff16021790555030600080604051602001620000df906200021e565b60405160208183030381529060405280519060200120815260200190815260200160002060006101000a81548173ffffffffffffffffffffffffffffffffffffffff021916908373ffffffffffffffffffffffffffffffffffffffff160217905550620002ce565b828054620001559062000240565b90600052602060002090601f016020900481019282620001795760008555620001c5565b82601f106200019457805160ff1916838001178555620001c5565b82800160010185558215620001c5579182015b82811115620001c4578251825591602001919060010190620001a7565b5b509050620001d49190620001d8565b5090565b5b80821115620001f3576000816000905550600101620001d9565b5090565b60006200020660148362000235565b91506200021382620002a5565b601482019050919050565b60006200022b82620001f7565b9150819050919050565b600081905092915050565b600060028204905060018216806200025957607f821691505b6020821081141562000270576200026f62000276565b5b50919050565b7f4e487b7100000000000000000000000000000000000000000000000000000000600052602260045260246000fd5b7f5f474f5645524e414e43455f434f4e5452414354000000000000000000000000600082015250565b6130d380620002de6000396000f3fe608060405234801561001057600080fd5b50600436106102065760003560e01c806377b03e0d1161011a578063c6384071116100ad578063d9c51cd41161007c578063d9c51cd414610665578063dd62ed3e14610681578063e07c5486146106b1578063ef0234ad146106e1578063f25133f3146106fd57610206565b8063c6384071146105cb578063c979fe9f146105e9578063cb82cc8f14610619578063ce5e11bf1461063557610206565b8063a9059cbb116100e9578063a9059cbb14610545578063b86d1d6314610575578063bed9d86114610591578063c5958af91461059b57610206565b806377b03e0d146104bd5780638929f4c6146104ed57806395d89b411461050957806396426d971461052757610206565b8063313ce5671161019d57806364473df21161016c57806364473df2146103db578063699f200f1461040b57806369d43bd31461043b57806370a0823114610459578063733bdef01461048957610206565b8063313ce567146103535780635aa6e675146103715780635eaa9ced1461038f578063602bf227146103ab57610206565b80631f379acc116101d95780631f379acc146102a7578063217053c0146102c357806323b872dd146102f3578063248638e51461032357610206565b806306fdde031461020b578063091b50ff14610229578063095ea7b31461025957806318160ddd14610289575b600080fd5b61021361072d565b60405161022091906127b8565b60405180910390f35b610243600480360381019061023e919061228e565b6107bf565b6040516102509190612796565b60405180910390f35b610273600480360381019061026e9190612191565b61086c565b604051610280919061270a565b60405180910390f35b610291610883565b60405161029e919061293a565b60405180910390f35b6102c160048036038101906102bc919061228e565b61088d565b005b6102dd60048036038101906102d8919061228e565b610991565b6040516102ea91906126a4565b60405180910390f35b61030d60048036038101906103089190612142565b6109d3565b60405161031a919061270a565b60405180910390f35b61033d600480360381019061033891906121cd565b610a7d565b60405161034a91906126e8565b60405180910390f35b61035b610ae8565b60405161036891906129e6565b60405180910390f35b610379610aff565b60405161038691906126a4565b60405180910390f35b6103a960048036038101906103a491906121f6565b610b07565b005b6103c560048036038101906103c091906121cd565b610d7c565b6040516103d2919061293a565b60405180910390f35b6103f560048036038101906103f0919061228e565b610d94565b604051610402919061270a565b60405180910390f35b610425600480360381019061042091906121cd565b610dc3565b60405161043291906126a4565b60405180910390f35b610443610df6565b604051610450919061293a565b60405180910390f35b610473600480360381019061046e91906120dd565b610dfc565b604051610480919061293a565b60405180910390f35b6104a3600480360381019061049e91906120dd565b610e45565b6040516104b4959493929190612993565b60405180910390f35b6104d760048036038101906104d291906121cd565b610faf565b6040516104e4919061293a565b60405180910390f35b61050760048036038101906105029190612331565b610fcf565b005b6105116110d5565b60405161051e91906127b8565b60405180910390f35b61052f611167565b60405161053c919061293a565b60405180910390f35b61055f600480360381019061055a9190612191565b611173565b60405161056c919061270a565b60405180910390f35b61058f600480360381019061058a91906120dd565b61118a565b005b6105996111a0565b005b6105b560048036038101906105b0919061228e565b6112d2565b6040516105c29190612796565b60405180910390f35b6105d3611389565b6040516105e0919061293a565b60405180910390f35b61060360048036038101906105fe919061228e565b61138f565b604051610610919061293a565b60405180910390f35b610633600480360381019061062e9190612331565b6113c0565b005b61064f600480360381019061064a919061228e565b6114e4565b60405161065c919061293a565b60405180910390f35b61067f600480360381019061067a9190612331565b61157e565b005b61069b60048036038101906106969190612106565b611595565b6040516106a8919061293a565b60405180910390f35b6106cb60048036038101906106c6919061228e565b61161c565b6040516106d891906126a4565b60405180910390f35b6106fb60048036038101906106f691906122ca565b61166b565b005b6107176004803603810190610712919061228e565b611795565b604051610724919061293a565b60405180910390f35b6060600d805461073c90612c24565b80601f016020809104026020016040519081016040528092919081815260200182805461076890612c24565b80156107b55780601f1061078a576101008083540402835291602001916107b5565b820191906000526020600020905b81548152906001019060200180831161079857829003601f168201915b5050505050905090565b60066020528160005260406000206020528060005260406000206000915091505080546107eb90612c24565b80601f016020809104026020016040519081016040528092919081815260200182805461081790612c24565b80156108645780601f1061083957610100808354040283529160200191610864565b820191906000526020600020905b81548152906001019060200180831161084757829003601f168201915b505050505081565b60006108793384846117c6565b6001905092915050565b6000600c54905090565b6040518060200160405280600081525060066000848152602001908152602001600020600083815260200190815260200160002090805190602001906108d4929190611ec3565b506001806000848152602001908152602001600020600083815260200190815260200160002060006101000a81548160ff021916908315150217905550600b600081548092919061092490612c87565b9190505550600760008383604051602001610940929190612678565b604051602081830303815290604052805190602001208152602001908152602001600020600b5490806001815401808255809150506001900390600052602060002001600090919091909150555050565b60026020528160005260406000206020528060005260406000206000915091509054906101000a900473ffffffffffffffffffffffffffffffffffffffff1681565b60006109e0848484611991565b610a72843384600860008973ffffffffffffffffffffffffffffffffffffffff1673ffffffffffffffffffffffffffffffffffffffff16815260200190815260200160002060003373ffffffffffffffffffffffffffffffffffffffff1673ffffffffffffffffffffffffffffffffffffffff16815260200190815260200160002054610a6d9190612b4f565b6117c6565b600190509392505050565b606060076000838152602001908152602001600020805480602002602001604051908101604052809291908181526020018280548015610adc57602002820191906000526020600020905b815481526020019060010190808311610ac8575b50505050509050919050565b6000600f60009054906101000a900460ff16905090565b600030905090565b6004600086815260200190815260200160002080549050821480610b2b5750600082145b610b6a576040517f08c379a0000000000000000000000000000000000000000000000000000000008152600401610b619061285a565b60405180910390fd5b8080519060200120851480610b83575060648560001c11155b610bc2576040517f08c379a0000000000000000000000000000000000000000000000000000000008152600401610bb99061281a565b60405180910390fd5b83836006600088815260200190815260200160002060004281526020019081526020016000209190610bf5929190611f49565b50600460008681526020019081526020016000204290806001815401808255809150506001900390600052602060002001600090919091909150553360026000878152602001908152602001600020600042815260200190815260200160002060006101000a81548173ffffffffffffffffffffffffffffffffffffffff021916908373ffffffffffffffffffffffffffffffffffffffff16021790555042600360003373ffffffffffffffffffffffffffffffffffffffff1673ffffffffffffffffffffffffffffffffffffffff16815260200190815260200160002060030181905550600360003373ffffffffffffffffffffffffffffffffffffffff1673ffffffffffffffffffffffffffffffffffffffff1681526020019081526020016000206004016000815480929190610d2d90612c87565b91905055507f48e9e2c732ba278de6ac88a3a57a5c5ba13d3d8370e709b3b98333a57876ca9585428686868633604051610d6d9796959493929190612725565b60405180910390a15050505050565b60056020528060005260406000206000915090505481565b60016020528160005260406000206020528060005260406000206000915091509054906101000a900460ff1681565b60006020528060005260406000206000915054906101000a900473ffffffffffffffffffffffffffffffffffffffff1681565b600a5481565b6000600960008373ffffffffffffffffffffffffffffffffffffffff1673ffffffffffffffffffffffffffffffffffffffff168152602001908152602001600020549050919050565b6000806000806000600360008773ffffffffffffffffffffffffffffffffffffffff1673ffffffffffffffffffffffffffffffffffffffff16815260200190815260200160002060000154600360008873ffffffffffffffffffffffffffffffffffffffff1673ffffffffffffffffffffffffffffffffffffffff16815260200190815260200160002060010154600360008973ffffffffffffffffffffffffffffffffffffffff1673ffffffffffffffffffffffffffffffffffffffff16815260200190815260200160002060020154600360008a73ffffffffffffffffffffffffffffffffffffffff1673ffffffffffffffffffffffffffffffffffffffff16815260200190815260200160002060030154600360008b73ffffffffffffffffffffffffffffffffffffffff1673ffffffffffffffffffffffffffffffffffffffff168152602001908152602001600020600401549450945094509450945091939590929450565b600060046000838152602001908152602001600020805490509050919050565b6000600360003373ffffffffffffffffffffffffffffffffffffffff1673ffffffffffffffffffffffffffffffffffffffff16815260200190815260200160002090508181600101541015611059576040517f08c379a0000000000000000000000000000000000000000000000000000000008152600401611050906128fa565b60405180910390fd5b428160000181905550818160020160008282546110769190612ac8565b92505081905550818160010160008282546110919190612b4f565b925050819055507f3d8d9df4bd0172df32e557fa48e96435cd7f2cac06aaffacfaee608e6f7898ef33836040516110c99291906126bf565b60405180910390a15050565b6060600e80546110e490612c24565b80601f016020809104026020016040519081016040528092919081815260200182805461111090612c24565b801561115d5780601f106111325761010080835404028352916020019161115d565b820191906000526020600020905b81548152906001019060200180831161114057829003601f168201915b5050505050905090565b6706f05b59d3b2000081565b6000611180338484611991565b6001905092915050565b61119d81683635c9adc5dea00000611b87565b50565b6000600360003373ffffffffffffffffffffffffffffffffffffffff1673ffffffffffffffffffffffffffffffffffffffff168152602001908152602001600020905062093a808160000154426111f79190612b4f565b1015611238576040517f08c379a000000000000000000000000000000000000000000000000000000000815260040161122f9061283a565b60405180910390fd5b600081600201541161127f576040517f08c379a0000000000000000000000000000000000000000000000000000000008152600401611276906128ba565b60405180910390fd5b61128e30338360020154611991565b600081600201819055507f4a7934670bd8304e7da22378be1368f7c4fef17c5aee81804beda8638fe428ec336040516112c791906126a4565b60405180910390a150565b6060600660008481526020019081526020016000206000838152602001908152602001600020805461130390612c24565b80601f016020809104026020016040519081016040528092919081815260200182805461132f90612c24565b801561137c5780601f106113515761010080835404028352916020019161137c565b820191906000526020600020905b81548152906001019060200180831161135f57829003601f168201915b5050505050905092915050565b600b5481565b600760205281600052604060002081815481106113ab57600080fd5b90600052602060002001600091509150505481565b6000600360003373ffffffffffffffffffffffffffffffffffffffff1673ffffffffffffffffffffffffffffffffffffffff168152602001908152602001600020905060008160020154111561146e578181600201541061143b578181600201600082825461142f9190612b4f565b92505081905550611469565b61145533308360020154856114509190612b4f565b611cd0565b61145e57600080fd5b600081600201819055505b611483565b611479333084611cd0565b61148257600080fd5b5b428160000181905550818160010160008282546114a09190612ac8565b925050819055507fa96c2cce65119a2170d1711a6e82f18f2006448828483ba7545e59547654364733836040516114d89291906126bf565b60405180910390a15050565b60008060046000858152602001908152602001600020805490509050600081148061150f5750828111155b1561151e576000915050611578565b600460008581526020019081526020016000208381548110611569577f4e487b7100000000000000000000000000000000000000000000000000000000600052603260045260246000fd5b90600052602060002001549150505b92915050565b611589333083611cd0565b61159257600080fd5b50565b6000600860008473ffffffffffffffffffffffffffffffffffffffff1673ffffffffffffffffffffffffffffffffffffffff16815260200190815260200160002060008373ffffffffffffffffffffffffffffffffffffffff1673ffffffffffffffffffffffffffffffffffffffff16815260200190815260200160002054905092915050565b600060026000848152602001908152602001600020600083815260200190815260200160002060009054906101000a900473ffffffffffffffffffffffffffffffffffffffff16905092915050565b8080519060200120831480611684575060648360001c11155b6116c3576040517f08c379a00000000000000000000000000000000000000000000000000000000081526004016116ba9061281a565b60405180910390fd5b6116ce333084611991565b6002826116db9190612b1e565b91506116e73083611d7a565b81600a60008282546116f99190612ac8565b92505081905550816005600085815260200190815260200160002060008282546117239190612ac8565b92505081905550823373ffffffffffffffffffffffffffffffffffffffff167fd951d408a0f5057da5c25b826fb5ce403d56542962b6ac6994dbc6d5432fbff58460056000888152602001908152602001600020548560405161178893929190612955565b60405180910390a3505050565b600460205281600052604060002081815481106117b157600080fd5b90600052602060002001600091509150505481565b600073ffffffffffffffffffffffffffffffffffffffff168373ffffffffffffffffffffffffffffffffffffffff161415611836576040517f08c379a000000000000000000000000000000000000000000000000000000000815260040161182d906128da565b60405180910390fd5b600073ffffffffffffffffffffffffffffffffffffffff168273ffffffffffffffffffffffffffffffffffffffff1614156118a6576040517f08c379a000000000000000000000000000000000000000000000000000000000815260040161189d906127fa565b60405180910390fd5b80600860008573ffffffffffffffffffffffffffffffffffffffff1673ffffffffffffffffffffffffffffffffffffffff16815260200190815260200160002060008473ffffffffffffffffffffffffffffffffffffffff1673ffffffffffffffffffffffffffffffffffffffff168152602001908152602001600020819055508173ffffffffffffffffffffffffffffffffffffffff168373ffffffffffffffffffffffffffffffffffffffff167f8c5be1e5ebec7d5bd14f71427d1e84f3dd0314c0f7b2291e5b200ac8c7c3b92583604051611984919061293a565b60405180910390a3505050565b600073ffffffffffffffffffffffffffffffffffffffff168373ffffffffffffffffffffffffffffffffffffffff161415611a01576040517f08c379a00000000000000000000000000000000000000000000000000000000081526004016119f89061289a565b60405180910390fd5b600073ffffffffffffffffffffffffffffffffffffffff168273ffffffffffffffffffffffffffffffffffffffff161415611a71576040517f08c379a0000000000000000000000000000000000000000000000000000000008152600401611a68906127da565b60405180910390fd5b80600960008573ffffffffffffffffffffffffffffffffffffffff1673ffffffffffffffffffffffffffffffffffffffff1681526020019081526020016000206000828254611ac09190612b4f565b9250508190555080600960008473ffffffffffffffffffffffffffffffffffffffff1673ffffffffffffffffffffffffffffffffffffffff1681526020019081526020016000206000828254611b169190612ac8565b925050819055508173ffffffffffffffffffffffffffffffffffffffff168373ffffffffffffffffffffffffffffffffffffffff167fddf252ad1be2c89b69c2b068fc378daa952ba7f163c4a11628f55a4df523b3ef83604051611b7a919061293a565b60405180910390a3505050565b600073ffffffffffffffffffffffffffffffffffffffff168273ffffffffffffffffffffffffffffffffffffffff161415611bf7576040517f08c379a0000000000000000000000000000000000000000000000000000000008152600401611bee9061291a565b60405180910390fd5b80600c6000828254611c099190612ac8565b9250508190555080600960008473ffffffffffffffffffffffffffffffffffffffff1673ffffffffffffffffffffffffffffffffffffffff1681526020019081526020016000206000828254611c5f9190612ac8565b925050819055508173ffffffffffffffffffffffffffffffffffffffff16600073ffffffffffffffffffffffffffffffffffffffff167fddf252ad1be2c89b69c2b068fc378daa952ba7f163c4a11628f55a4df523b3ef83604051611cc4919061293a565b60405180910390a35050565b6000611cdd848484611991565b611d6f843384600860008973ffffffffffffffffffffffffffffffffffffffff1673ffffffffffffffffffffffffffffffffffffffff16815260200190815260200160002060003073ffffffffffffffffffffffffffffffffffffffff1673ffffffffffffffffffffffffffffffffffffffff16815260200190815260200160002054611d6a9190612b4f565b6117c6565b600190509392505050565b600073ffffffffffffffffffffffffffffffffffffffff168273ffffffffffffffffffffffffffffffffffffffff161415611dea576040517f08c379a0000000000000000000000000000000000000000000000000000000008152600401611de19061287a565b60405180910390fd5b80600960008473ffffffffffffffffffffffffffffffffffffffff1673ffffffffffffffffffffffffffffffffffffffff1681526020019081526020016000206000828254611e399190612b4f565b9250508190555080600c6000828254611e529190612b4f565b92505081905550600073ffffffffffffffffffffffffffffffffffffffff168273ffffffffffffffffffffffffffffffffffffffff167fddf252ad1be2c89b69c2b068fc378daa952ba7f163c4a11628f55a4df523b3ef83604051611eb7919061293a565b60405180910390a35050565b828054611ecf90612c24565b90600052602060002090601f016020900481019282611ef15760008555611f38565b82601f10611f0a57805160ff1916838001178555611f38565b82800160010185558215611f38579182015b82811115611f37578251825591602001919060010190611f1c565b5b509050611f459190611fcf565b5090565b828054611f5590612c24565b90600052602060002090601f016020900481019282611f775760008555611fbe565b82601f10611f9057803560ff1916838001178555611fbe565b82800160010185558215611fbe579182015b82811115611fbd578235825591602001919060010190611fa2565b5b509050611fcb9190611fcf565b5090565b5b80821115611fe8576000816000905550600101611fd0565b5090565b6000611fff611ffa84612a26565b612a01565b90508281526020810184848401111561201757600080fd5b612022848285612be2565b509392505050565b60008135905061203981613058565b92915050565b60008135905061204e8161306f565b92915050565b60008083601f84011261206657600080fd5b8235905067ffffffffffffffff81111561207f57600080fd5b60208301915083600182028301111561209757600080fd5b9250929050565b600082601f8301126120af57600080fd5b81356120bf848260208601611fec565b91505092915050565b6000813590506120d781613086565b92915050565b6000602082840312156120ef57600080fd5b60006120fd8482850161202a565b91505092915050565b6000806040838503121561211957600080fd5b60006121278582860161202a565b92505060206121388582860161202a565b9150509250929050565b60008060006060848603121561215757600080fd5b60006121658682870161202a565b93505060206121768682870161202a565b9250506040612187868287016120c8565b9150509250925092565b600080604083850312156121a457600080fd5b60006121b28582860161202a565b92505060206121c3858286016120c8565b9150509250929050565b6000602082840312156121df57600080fd5b60006121ed8482850161203f565b91505092915050565b60008060008060006080868803121561220e57600080fd5b600061221c8882890161203f565b955050602086013567ffffffffffffffff81111561223957600080fd5b61224588828901612054565b94509450506040612258888289016120c8565b925050606086013567ffffffffffffffff81111561227557600080fd5b6122818882890161209e565b9150509295509295909350565b600080604083850312156122a157600080fd5b60006122af8582860161203f565b92505060206122c0858286016120c8565b9150509250929050565b6000806000606084860312156122df57600080fd5b60006122ed8682870161203f565b93505060206122fe868287016120c8565b925050604084013567ffffffffffffffff81111561231b57600080fd5b6123278682870161209e565b9150509250925092565b60006020828403121561234357600080fd5b6000612351848285016120c8565b91505092915050565b60006123668383612634565b60208301905092915050565b61237b81612b83565b82525050565b600061238c82612a67565b6123968185612a95565b93506123a183612a57565b8060005b838110156123d25781516123b9888261235a565b97506123c483612a88565b9250506001810190506123a5565b5085935050505092915050565b6123e881612b95565b82525050565b6123f781612ba1565b82525050565b61240e61240982612ba1565b612cd0565b82525050565b60006124208385612aa6565b935061242d838584612be2565b61243683612da0565b840190509392505050565b600061244c82612a72565b6124568185612aa6565b9350612466818560208601612bf1565b61246f81612da0565b840191505092915050565b600061248582612a7d565b61248f8185612ab7565b935061249f818560208601612bf1565b6124a881612da0565b840191505092915050565b60006124c0602383612ab7565b91506124cb82612db1565b604082019050919050565b60006124e3602283612ab7565b91506124ee82612e00565b604082019050919050565b6000612506601d83612ab7565b915061251182612e4f565b602082019050919050565b6000612529601283612ab7565b915061253482612e78565b602082019050919050565b600061254c602083612ab7565b915061255782612ea1565b602082019050919050565b600061256f602183612ab7565b915061257a82612eca565b604082019050919050565b6000612592602583612ab7565b915061259d82612f19565b604082019050919050565b60006125b5602283612ab7565b91506125c082612f68565b604082019050919050565b60006125d8602483612ab7565b91506125e382612fb7565b604082019050919050565b60006125fb601b83612ab7565b915061260682613006565b602082019050919050565b600061261e601f83612ab7565b91506126298261302f565b602082019050919050565b61263d81612bcb565b82525050565b61264c81612bcb565b82525050565b61266361265e82612bcb565b612cda565b82525050565b61267281612bd5565b82525050565b600061268482856123fd565b6020820191506126948284612652565b6020820191508190509392505050565b60006020820190506126b96000830184612372565b92915050565b60006040820190506126d46000830185612372565b6126e16020830184612643565b9392505050565b600060208201905081810360008301526127028184612381565b905092915050565b600060208201905061271f60008301846123df565b92915050565b600060c08201905061273a600083018a6123ee565b6127476020830189612643565b818103604083015261275a818789612414565b90506127696060830186612643565b818103608083015261277b8185612441565b905061278a60a0830184612372565b98975050505050505050565b600060208201905081810360008301526127b08184612441565b905092915050565b600060208201905081810360008301526127d2818461247a565b905092915050565b600060208201905081810360008301526127f3816124b3565b9050919050565b60006020820190508181036000830152612813816124d6565b9050919050565b60006020820190508181036000830152612833816124f9565b9050919050565b600060208201905081810360008301526128538161251c565b9050919050565b600060208201905081810360008301526128738161253f565b9050919050565b6000602082019050818103600083015261289381612562565b9050919050565b600060208201905081810360008301526128b381612585565b9050919050565b600060208201905081810360008301526128d3816125a8565b9050919050565b600060208201905081810360008301526128f3816125cb565b9050919050565b60006020820190508181036000830152612913816125ee565b9050919050565b6000602082019050818103600083015261293381612611565b9050919050565b600060208201905061294f6000830184612643565b92915050565b600060608201905061296a6000830186612643565b6129776020830185612643565b81810360408301526129898184612441565b9050949350505050565b600060a0820190506129a86000830188612643565b6129b56020830187612643565b6129c26040830186612643565b6129cf6060830185612643565b6129dc6080830184612643565b9695505050505050565b60006020820190506129fb6000830184612669565b92915050565b6000612a0b612a1c565b9050612a178282612c56565b919050565b6000604051905090565b600067ffffffffffffffff821115612a4157612a40612d71565b5b612a4a82612da0565b9050602081019050919050565b6000819050602082019050919050565b600081519050919050565b600081519050919050565b600081519050919050565b6000602082019050919050565b600082825260208201905092915050565b600082825260208201905092915050565b600082825260208201905092915050565b6000612ad382612bcb565b9150612ade83612bcb565b9250827fffffffffffffffffffffffffffffffffffffffffffffffffffffffffffffffff03821115612b1357612b12612ce4565b5b828201905092915050565b6000612b2982612bcb565b9150612b3483612bcb565b925082612b4457612b43612d13565b5b828204905092915050565b6000612b5a82612bcb565b9150612b6583612bcb565b925082821015612b7857612b77612ce4565b5b828203905092915050565b6000612b8e82612bab565b9050919050565b60008115159050919050565b6000819050919050565b600073ffffffffffffffffffffffffffffffffffffffff82169050919050565b6000819050919050565b600060ff82169050919050565b82818337600083830152505050565b60005b83811015612c0f578082015181840152602081019050612bf4565b83811115612c1e576000848401525b50505050565b60006002820490506001821680612c3c57607f821691505b60208210811415612c5057612c4f612d42565b5b50919050565b612c5f82612da0565b810181811067ffffffffffffffff82111715612c7e57612c7d612d71565b5b80604052505050565b6000612c9282612bcb565b91507fffffffffffffffffffffffffffffffffffffffffffffffffffffffffffffffff821415612cc557612cc4612ce4565b5b600182019050919050565b6000819050919050565b6000819050919050565b7f4e487b7100000000000000000000000000000000000000000000000000000000600052601160045260246000fd5b7f4e487b7100000000000000000000000000000000000000000000000000000000600052601260045260246000fd5b7f4e487b7100000000000000000000000000000000000000000000000000000000600052602260045260246000fd5b7f4e487b7100000000000000000000000000000000000000000000000000000000600052604160045260246000fd5b6000601f19601f8301169050919050565b7f45524332303a207472616e7366657220746f20746865207a65726f206164647260008201527f6573730000000000000000000000000000000000000000000000000000000000602082015250565b7f45524332303a20617070726f766520746f20746865207a65726f20616464726560008201527f7373000000000000000000000000000000000000000000000000000000000000602082015250565b7f6964206d7573742062652068617368206f662062797465732064617461000000600082015250565b7f372064617973206469646e277420706173730000000000000000000000000000600082015250565b7f6e6f6e6365206d757374206d617463682074696d657374616d7020696e646578600082015250565b7f45524332303a206275726e2066726f6d20746865207a65726f2061646472657360008201527f7300000000000000000000000000000000000000000000000000000000000000602082015250565b7f45524332303a207472616e736665722066726f6d20746865207a65726f20616460008201527f6472657373000000000000000000000000000000000000000000000000000000602082015250565b7f7265706f72746572206e6f74206c6f636b656420666f7220776974686472617760008201527f616c000000000000000000000000000000000000000000000000000000000000602082015250565b7f45524332303a20617070726f76652066726f6d20746865207a65726f2061646460008201527f7265737300000000000000000000000000000000000000000000000000000000602082015250565b7f696e73756666696369656e74207374616b65642062616c616e63650000000000600082015250565b7f45524332303a206d696e7420746f20746865207a65726f206164647265737300600082015250565b61306181612b83565b811461306c57600080fd5b50565b61307881612ba1565b811461308357600080fd5b50565b61308f81612bcb565b811461309a57600080fd5b5056fea2646970667358221220090b234664dbe1c38c0c1d19e1d45e53151e48d7c1e094b69a54bbc66548b7e664736f6c63430008030033",
  "linkReferences": {},
  "deployedLinkReferences": {}
}