{
  "_format": "hh-sol-artifact-1",
  "contractName": "TellorPlayground",
  "sourceName": "contracts/TellorPlayground.sol",
  "abi": [
    {
      "inputs": [],
      "stateMutability": "nonpayable",
      "type": "constructor"
    },
    {
      "anonymous": false,
      "inputs": [
        {
          "indexed": true,
          "internalType": "address",
          "name": "owner",
          "type": "address"
        },
        {
          "indexed": true,
          "internalType": "address",
          "name": "spender",
          "type": "address"
        },
        {
          "indexed": false,
          "internalType": "uint256",
          "name": "value",
          "type": "uint256"
        }
      ],
      "name": "Approval",
      "type": "event"
    },
    {
      "anonymous": false,
      "inputs": [
        {
          "indexed": false,
          "internalType": "bytes32",
          "name": "_queryId",
          "type": "bytes32"
        },
        {
          "indexed": false,
          "internalType": "uint256",
          "name": "_time",
          "type": "uint256"
        },
        {
          "indexed": false,
          "internalType": "bytes",
          "name": "_value",
          "type": "bytes"
        },
        {
          "indexed": false,
          "internalType": "uint256",
          "name": "_reward",
          "type": "uint256"
        },
        {
          "indexed": false,
          "internalType": "uint256",
          "name": "_nonce",
          "type": "uint256"
        },
        {
          "indexed": false,
          "internalType": "bytes",
          "name": "_queryData",
          "type": "bytes"
        },
        {
          "indexed": false,
          "internalType": "address",
          "name": "_reporter",
          "type": "address"
        }
      ],
      "name": "NewReport",
      "type": "event"
    },
    {
      "anonymous": false,
      "inputs": [
        {
          "indexed": false,
          "internalType": "address",
          "name": "_staker",
          "type": "address"
        },
        {
          "indexed": false,
          "internalType": "uint256",
          "name": "_amount",
          "type": "uint256"
        }
      ],
      "name": "NewStaker",
      "type": "event"
    },
    {
      "anonymous": false,
      "inputs": [
        {
          "indexed": false,
          "internalType": "address",
          "name": "_staker",
          "type": "address"
        },
        {
          "indexed": false,
          "internalType": "uint256",
          "name": "_amount",
          "type": "uint256"
        }
      ],
      "name": "StakeWithdrawRequested",
      "type": "event"
    },
    {
      "anonymous": false,
      "inputs": [
        {
          "indexed": false,
          "internalType": "address",
          "name": "_staker",
          "type": "address"
        }
      ],
      "name": "StakeWithdrawn",
      "type": "event"
    },
    {
      "anonymous": false,
      "inputs": [
        {
          "indexed": true,
          "internalType": "address",
          "name": "_user",
          "type": "address"
        },
        {
          "indexed": true,
          "internalType": "bytes32",
          "name": "_queryId",
          "type": "bytes32"
        },
        {
          "indexed": false,
          "internalType": "uint256",
          "name": "_tip",
          "type": "uint256"
        },
        {
          "indexed": false,
          "internalType": "uint256",
          "name": "_totalTip",
          "type": "uint256"
        },
        {
          "indexed": false,
          "internalType": "bytes",
          "name": "_queryData",
          "type": "bytes"
        }
      ],
      "name": "TipAdded",
      "type": "event"
    },
    {
      "anonymous": false,
      "inputs": [
        {
          "indexed": true,
          "internalType": "address",
          "name": "from",
          "type": "address"
        },
        {
          "indexed": true,
          "internalType": "address",
          "name": "to",
          "type": "address"
        },
        {
          "indexed": false,
          "internalType": "uint256",
          "name": "value",
          "type": "uint256"
        }
      ],
      "name": "Transfer",
      "type": "event"
    },
    {
      "inputs": [
        {
          "internalType": "bytes32",
          "name": "",
          "type": "bytes32"
        }
      ],
      "name": "addresses",
      "outputs": [
        {
          "internalType": "address",
          "name": "",
          "type": "address"
        }
      ],
      "stateMutability": "view",
      "type": "function"
    },
    {
      "inputs": [
        {
          "internalType": "address",
          "name": "_owner",
          "type": "address"
        },
        {
          "internalType": "address",
          "name": "_spender",
          "type": "address"
        }
      ],
      "name": "allowance",
      "outputs": [
        {
          "internalType": "uint256",
          "name": "",
          "type": "uint256"
        }
      ],
      "stateMutability": "view",
      "type": "function"
    },
    {
      "inputs": [
        {
          "internalType": "address",
          "name": "_spender",
          "type": "address"
        },
        {
          "internalType": "uint256",
          "name": "_amount",
          "type": "uint256"
        }
      ],
      "name": "approve",
      "outputs": [
        {
          "internalType": "bool",
          "name": "",
          "type": "bool"
        }
      ],
      "stateMutability": "nonpayable",
      "type": "function"
    },
    {
      "inputs": [
        {
          "internalType": "address",
          "name": "_account",
          "type": "address"
        }
      ],
      "name": "balanceOf",
      "outputs": [
        {
          "internalType": "uint256",
          "name": "",
          "type": "uint256"
        }
      ],
      "stateMutability": "view",
      "type": "function"
    },
    {
      "inputs": [
        {
          "internalType": "bytes32",
          "name": "_queryId",
          "type": "bytes32"
        },
        {
          "internalType": "uint256",
          "name": "_timestamp",
          "type": "uint256"
        }
      ],
      "name": "beginDispute",
      "outputs": [],
      "stateMutability": "nonpayable",
      "type": "function"
    },
    {
      "inputs": [],
      "name": "decimals",
      "outputs": [
        {
          "internalType": "uint8",
          "name": "",
          "type": "uint8"
        }
      ],
      "stateMutability": "view",
      "type": "function"
    },
    {
      "inputs": [
        {
          "internalType": "uint256",
          "name": "_amount",
          "type": "uint256"
        }
      ],
      "name": "depositStake",
      "outputs": [],
      "stateMutability": "nonpayable",
      "type": "function"
    },
    {
      "inputs": [
        {
          "internalType": "address",
          "name": "_user",
          "type": "address"
        }
      ],
      "name": "faucet",
      "outputs": [],
      "stateMutability": "nonpayable",
      "type": "function"
    },
    {
      "inputs": [
        {
          "internalType": "bytes32",
          "name": "_queryId",
          "type": "bytes32"
        }
      ],
      "name": "getCurrentReward",
      "outputs": [
        {
          "internalType": "uint256",
          "name": "",
          "type": "uint256"
        },
        {
          "internalType": "uint256",
          "name": "",
          "type": "uint256"
        }
      ],
      "stateMutability": "view",
      "type": "function"
    },
    {
      "inputs": [
        {
          "internalType": "bytes32",
          "name": "_queryId",
          "type": "bytes32"
        }
      ],
      "name": "getNewValueCountbyQueryId",
      "outputs": [
        {
          "internalType": "uint256",
          "name": "",
          "type": "uint256"
        }
      ],
      "stateMutability": "view",
      "type": "function"
    },
    {
      "inputs": [
        {
          "internalType": "bytes32",
          "name": "_queryId",
          "type": "bytes32"
        },
        {
          "internalType": "uint256",
          "name": "_timestamp",
          "type": "uint256"
        }
      ],
      "name": "getReporterByTimestamp",
      "outputs": [
        {
          "internalType": "address",
          "name": "",
          "type": "address"
        }
      ],
      "stateMutability": "view",
      "type": "function"
    },
    {
      "inputs": [
        {
          "internalType": "address",
          "name": "_staker",
          "type": "address"
        }
      ],
      "name": "getStakerInfo",
      "outputs": [
        {
          "internalType": "uint256",
          "name": "",
          "type": "uint256"
        },
        {
          "internalType": "uint256",
          "name": "",
          "type": "uint256"
        },
        {
          "internalType": "uint256",
          "name": "",
          "type": "uint256"
        },
        {
          "internalType": "uint256",
          "name": "",
          "type": "uint256"
        },
        {
          "internalType": "uint256",
          "name": "",
          "type": "uint256"
        }
      ],
      "stateMutability": "view",
      "type": "function"
    },
    {
      "inputs": [
        {
          "internalType": "bytes32",
          "name": "_queryId",
          "type": "bytes32"
        },
        {
          "internalType": "uint256",
          "name": "_index",
          "type": "uint256"
        }
      ],
      "name": "getTimestampbyQueryIdandIndex",
      "outputs": [
        {
          "internalType": "uint256",
          "name": "",
          "type": "uint256"
        }
      ],
      "stateMutability": "view",
      "type": "function"
    },
    {
      "inputs": [
        {
          "internalType": "bytes32",
          "name": "_hash",
          "type": "bytes32"
        }
      ],
      "name": "getVoteRounds",
      "outputs": [
        {
          "internalType": "uint256[]",
          "name": "",
          "type": "uint256[]"
        }
      ],
      "stateMutability": "view",
      "type": "function"
    },
    {
      "inputs": [],
      "name": "governance",
      "outputs": [
        {
          "internalType": "address",
          "name": "",
          "type": "address"
        }
      ],
      "stateMutability": "view",
      "type": "function"
    },
    {
      "inputs": [
        {
          "internalType": "bytes32",
          "name": "",
          "type": "bytes32"
        },
        {
          "internalType": "uint256",
          "name": "",
          "type": "uint256"
        }
      ],
      "name": "isDisputed",
      "outputs": [
        {
          "internalType": "bool",
          "name": "",
          "type": "bool"
        }
      ],
      "stateMutability": "view",
      "type": "function"
    },
    {
      "inputs": [],
      "name": "name",
      "outputs": [
        {
          "internalType": "string",
          "name": "",
          "type": "string"
        }
      ],
      "stateMutability": "view",
      "type": "function"
    },
    {
      "inputs": [
        {
          "internalType": "bytes32",
          "name": "",
          "type": "bytes32"
        },
        {
          "internalType": "uint256",
          "name": "",
          "type": "uint256"
        }
      ],
      "name": "reporterByTimestamp",
      "outputs": [
        {
          "internalType": "address",
          "name": "",
          "type": "address"
        }
      ],
      "stateMutability": "view",
      "type": "function"
    },
    {
      "inputs": [
        {
          "internalType": "uint256",
          "name": "_amount",
          "type": "uint256"
        }
      ],
      "name": "requestStakingWithdraw",
      "outputs": [],
      "stateMutability": "nonpayable",
      "type": "function"
    },
    {
      "inputs": [
        {
          "internalType": "bytes32",
          "name": "_queryId",
          "type": "bytes32"
        },
        {
          "internalType": "uint256",
          "name": "_timestamp",
          "type": "uint256"
        }
      ],
      "name": "retrieveData",
      "outputs": [
        {
          "internalType": "bytes",
          "name": "",
          "type": "bytes"
        }
      ],
      "stateMutability": "view",
      "type": "function"
    },
    {
      "inputs": [
        {
          "internalType": "bytes32",
          "name": "_queryId",
          "type": "bytes32"
        },
        {
          "internalType": "bytes",
          "name": "_value",
          "type": "bytes"
        },
        {
          "internalType": "uint256",
          "name": "_nonce",
          "type": "uint256"
        },
        {
          "internalType": "bytes",
          "name": "_queryData",
          "type": "bytes"
        }
      ],
      "name": "submitValue",
      "outputs": [],
      "stateMutability": "nonpayable",
      "type": "function"
    },
    {
      "inputs": [],
      "name": "symbol",
      "outputs": [
        {
          "internalType": "string",
          "name": "",
          "type": "string"
        }
      ],
      "stateMutability": "view",
      "type": "function"
    },
    {
      "inputs": [],
      "name": "timeBasedReward",
      "outputs": [
        {
          "internalType": "uint256",
          "name": "",
          "type": "uint256"
        }
      ],
      "stateMutability": "view",
      "type": "function"
    },
    {
      "inputs": [],
      "name": "timeOfLastNewValue",
      "outputs": [
        {
          "internalType": "uint256",
          "name": "",
          "type": "uint256"
        }
      ],
      "stateMutability": "view",
      "type": "function"
    },
    {
      "inputs": [
        {
          "internalType": "bytes32",
          "name": "",
          "type": "bytes32"
        },
        {
          "internalType": "uint256",
          "name": "",
          "type": "uint256"
        }
      ],
      "name": "timestamps",
      "outputs": [
        {
          "internalType": "uint256",
          "name": "",
          "type": "uint256"
        }
      ],
      "stateMutability": "view",
      "type": "function"
    },
    {
      "inputs": [
        {
          "internalType": "bytes32",
          "name": "_queryId",
          "type": "bytes32"
        },
        {
          "internalType": "uint256",
          "name": "_amount",
          "type": "uint256"
        },
        {
          "internalType": "bytes",
          "name": "_queryData",
          "type": "bytes"
        }
      ],
      "name": "tipQuery",
      "outputs": [],
      "stateMutability": "nonpayable",
      "type": "function"
    },
    {
      "inputs": [
        {
          "internalType": "bytes32",
          "name": "",
          "type": "bytes32"
        }
      ],
      "name": "tips",
      "outputs": [
        {
          "internalType": "uint256",
          "name": "",
          "type": "uint256"
        }
      ],
      "stateMutability": "view",
      "type": "function"
    },
    {
      "inputs": [],
      "name": "tipsInContract",
      "outputs": [
        {
          "internalType": "uint256",
          "name": "",
          "type": "uint256"
        }
      ],
      "stateMutability": "view",
      "type": "function"
    },
    {
      "inputs": [],
      "name": "totalSupply",
      "outputs": [
        {
          "internalType": "uint256",
          "name": "",
          "type": "uint256"
        }
      ],
      "stateMutability": "view",
      "type": "function"
    },
    {
      "inputs": [
        {
          "internalType": "address",
          "name": "_recipient",
          "type": "address"
        },
        {
          "internalType": "uint256",
          "name": "_amount",
          "type": "uint256"
        }
      ],
      "name": "transfer",
      "outputs": [
        {
          "internalType": "bool",
          "name": "",
          "type": "bool"
        }
      ],
      "stateMutability": "nonpayable",
      "type": "function"
    },
    {
      "inputs": [
        {
          "internalType": "address",
          "name": "_sender",
          "type": "address"
        },
        {
          "internalType": "address",
          "name": "_recipient",
          "type": "address"
        },
        {
          "internalType": "uint256",
          "name": "_amount",
          "type": "uint256"
        }
      ],
      "name": "transferFrom",
      "outputs": [
        {
          "internalType": "bool",
          "name": "",
          "type": "bool"
        }
      ],
      "stateMutability": "nonpayable",
      "type": "function"
    },
    {
      "inputs": [
        {
          "internalType": "bytes32",
          "name": "",
          "type": "bytes32"
        },
        {
          "internalType": "uint256",
          "name": "",
          "type": "uint256"
        }
      ],
      "name": "values",
      "outputs": [
        {
          "internalType": "bytes",
          "name": "",
          "type": "bytes"
        }
      ],
      "stateMutability": "view",
      "type": "function"
    },
    {
      "inputs": [],
      "name": "voteCount",
      "outputs": [
        {
          "internalType": "uint256",
          "name": "",
          "type": "uint256"
        }
      ],
      "stateMutability": "view",
      "type": "function"
    },
    {
      "inputs": [
        {
          "internalType": "bytes32",
          "name": "",
          "type": "bytes32"
        },
        {
          "internalType": "uint256",
          "name": "",
          "type": "uint256"
        }
      ],
      "name": "voteRounds",
      "outputs": [
        {
          "internalType": "uint256",
          "name": "",
          "type": "uint256"
        }
      ],
      "stateMutability": "view",
      "type": "function"
    },
    {
      "inputs": [],
      "name": "withdrawStake",
      "outputs": [],
      "stateMutability": "nonpayable",
      "type": "function"
    }
  ],
  "bytecode": "0x608060405242600a553480156200001557600080fd5b506040518060400160405280601081526020017f54656c6c6f72506c617967726f756e6400000000000000000000000000000000815250600e9080519060200190620000639291906200014b565b506040518060400160405280600481526020017f5452425000000000000000000000000000000000000000000000000000000000815250600f9080519060200190620000b19291906200014b565b506012601060006101000a81548160ff021916908360ff16021790555030600080604051602001620000e39062000222565b60405160208183030381529060405280519060200120815260200190815260200160002060006101000a81548173ffffffffffffffffffffffffffffffffffffffff021916908373ffffffffffffffffffffffffffffffffffffffff160217905550620002d2565b828054620001599062000244565b90600052602060002090601f0160209004810192826200017d5760008555620001c9565b82601f106200019857805160ff1916838001178555620001c9565b82800160010185558215620001c9579182015b82811115620001c8578251825591602001919060010190620001ab565b5b509050620001d89190620001dc565b5090565b5b80821115620001f7576000816000905550600101620001dd565b5090565b60006200020a60148362000239565b91506200021782620002a9565b601482019050919050565b60006200022f82620001fb565b9150819050919050565b600081905092915050565b600060028204905060018216806200025d57607f821691505b602082108114156200027457620002736200027a565b5b50919050565b7f4e487b7100000000000000000000000000000000000000000000000000000000600052602260045260246000fd5b7f5f474f5645524e414e43455f434f4e5452414354000000000000000000000000600082015250565b61329980620002e26000396000f3fe608060405234801561001057600080fd5b50600436106102115760003560e01c8063733bdef011610125578063c5958af9116100ad578063ce5e11bf1161007c578063ce5e11bf1461068f578063dd62ed3e146106bf578063e07c5486146106ef578063ef0234ad1461071f578063f25133f31461073b57610211565b8063c5958af9146105f5578063c638407114610625578063c979fe9f14610643578063cb82cc8f1461067357610211565b806396426d97116100f457806396426d9714610550578063a1e588a51461056e578063a9059cbb1461059f578063b86d1d63146105cf578063bed9d861146105eb57610211565b8063733bdef0146104b257806377b03e0d146104e65780638929f4c61461051657806395d89b411461053257610211565b8063313ce567116101a857806364473df21161017757806364473df2146103e6578063699f200f1461041657806369d43bd3146104465780636fd4f2291461046457806370a082311461048257610211565b8063313ce5671461035e5780635aa6e6751461037c5780635eaa9ced1461039a578063602bf227146103b657610211565b80631f379acc116101e45780631f379acc146102b2578063217053c0146102ce57806323b872dd146102fe578063248638e51461032e57610211565b806306fdde0314610216578063091b50ff14610234578063095ea7b31461026457806318160ddd14610294575b600080fd5b61021e61076b565b60405161022b91906128fb565b60405180910390f35b61024e600480360381019061024991906123c3565b6107fd565b60405161025b91906128d9565b60405180910390f35b61027e600480360381019061027991906122c6565b6108aa565b60405161028b919061283f565b60405180910390f35b61029c6108c1565b6040516102a99190612a7d565b60405180910390f35b6102cc60048036038101906102c791906123c3565b6108cb565b005b6102e860048036038101906102e391906123c3565b6109cf565b6040516102f591906127d9565b60405180910390f35b61031860048036038101906103139190612277565b610a11565b604051610325919061283f565b60405180910390f35b61034860048036038101906103439190612302565b610abb565b604051610355919061281d565b60405180910390f35b610366610b26565b6040516103739190612b52565b60405180910390f35b610384610b3d565b60405161039191906127d9565b60405180910390f35b6103b460048036038101906103af919061232b565b610b45565b005b6103d060048036038101906103cb9190612302565b610e32565b6040516103dd9190612a7d565b60405180910390f35b61040060048036038101906103fb91906123c3565b610e4a565b60405161040d919061283f565b60405180910390f35b610430600480360381019061042b9190612302565b610e79565b60405161043d91906127d9565b60405180910390f35b61044e610eac565b60405161045b9190612a7d565b60405180910390f35b61046c610eb2565b6040516104799190612a7d565b60405180910390f35b61049c60048036038101906104979190612212565b610eb8565b6040516104a99190612a7d565b60405180910390f35b6104cc60048036038101906104c79190612212565b610f01565b6040516104dd959493929190612aff565b60405180910390f35b61050060048036038101906104fb9190612302565b61106b565b60405161050d9190612a7d565b60405180910390f35b610530600480360381019061052b9190612466565b61108b565b005b61053a611191565b60405161054791906128fb565b60405180910390f35b610558611223565b6040516105659190612a7d565b60405180910390f35b61058860048036038101906105839190612302565b61122f565b604051610596929190612a98565b60405180910390f35b6105b960048036038101906105b491906122c6565b6112bf565b6040516105c6919061283f565b60405180910390f35b6105e960048036038101906105e49190612212565b6112d6565b005b6105f36112ec565b005b61060f600480360381019061060a91906123c3565b61141e565b60405161061c91906128d9565b60405180910390f35b61062d6114d5565b60405161063a9190612a7d565b60405180910390f35b61065d600480360381019061065891906123c3565b6114db565b60405161066a9190612a7d565b60405180910390f35b61068d60048036038101906106889190612466565b61150c565b005b6106a960048036038101906106a491906123c3565b611630565b6040516106b69190612a7d565b60405180910390f35b6106d960048036038101906106d4919061223b565b6116ca565b6040516106e69190612a7d565b60405180910390f35b610709600480360381019061070491906123c3565b611751565b60405161071691906127d9565b60405180910390f35b610739600480360381019061073491906123ff565b6117a0565b005b610755600480360381019061075091906123c3565b6118ca565b6040516107629190612a7d565b60405180910390f35b6060600e805461077a90612dea565b80601f01602080910402602001604051908101604052809291908181526020018280546107a690612dea565b80156107f35780601f106107c8576101008083540402835291602001916107f3565b820191906000526020600020905b8154815290600101906020018083116107d657829003601f168201915b5050505050905090565b600660205281600052604060002060205280600052604060002060009150915050805461082990612dea565b80601f016020809104026020016040519081016040528092919081815260200182805461085590612dea565b80156108a25780601f10610877576101008083540402835291602001916108a2565b820191906000526020600020905b81548152906001019060200180831161088557829003601f168201915b505050505081565b60006108b73384846118fb565b6001905092915050565b6000600d54905090565b604051806020016040528060008152506006600084815260200190815260200160002060008381526020019081526020016000209080519060200190610912929190611ff8565b506001806000848152602001908152602001600020600083815260200190815260200160002060006101000a81548160ff021916908315150217905550600c600081548092919061096290612e4d565b919050555060076000838360405160200161097e9291906127ad565b604051602081830303815290604052805190602001208152602001908152602001600020600c5490806001815401808255809150506001900390600052602060002001600090919091909150555050565b60026020528160005260406000206020528060005260406000206000915091509054906101000a900473ffffffffffffffffffffffffffffffffffffffff1681565b6000610a1e848484611ac6565b610ab0843384600860008973ffffffffffffffffffffffffffffffffffffffff1673ffffffffffffffffffffffffffffffffffffffff16815260200190815260200160002060003373ffffffffffffffffffffffffffffffffffffffff1673ffffffffffffffffffffffffffffffffffffffff16815260200190815260200160002054610aab9190612d15565b6118fb565b600190509392505050565b606060076000838152602001908152602001600020805480602002602001604051908101604052809291908181526020018280548015610b1a57602002820191906000526020600020905b815481526020019060010190808311610b06575b50505050509050919050565b6000601060009054906101000a900460ff16905090565b600030905090565b60046000868152602001908152602001600020805490508214610b9d576040517f08c379a0000000000000000000000000000000000000000000000000000000008152600401610b949061299d565b60405180910390fd5b8080519060200120851480610bb6575060648560001c11155b610bf5576040517f08c379a0000000000000000000000000000000000000000000000000000000008152600401610bec9061295d565b60405180910390fd5b83836006600088815260200190815260200160002060004281526020019081526020016000209190610c2892919061207e565b5060046000868152602001908152602001600020429080600181540180825580915050600190039060005260206000200160009091909190915055600080610c6f8761122f565b9150915060008282610c819190612c34565b1115610c9e57610c9c338383610c979190612c34565b6112bf565b505b42600a8190555081600b6000828254610cb79190612d15565b92505081905550600060056000898152602001908152602001600020819055503360026000898152602001908152602001600020600042815260200190815260200160002060006101000a81548173ffffffffffffffffffffffffffffffffffffffff021916908373ffffffffffffffffffffffffffffffffffffffff16021790555042600360003373ffffffffffffffffffffffffffffffffffffffff1673ffffffffffffffffffffffffffffffffffffffff16815260200190815260200160002060030181905550600360003373ffffffffffffffffffffffffffffffffffffffff1673ffffffffffffffffffffffffffffffffffffffff1681526020019081526020016000206004016000815480929190610dd490612e4d565b91905055507fab1d593f8e2ecb165106e30a39db6769078d35c3fdbb110f24932f0d7af68c29874288888587610e0a9190612c34565b898933604051610e2198979695949392919061285a565b60405180910390a150505050505050565b60056020528060005260406000206000915090505481565b60016020528160005260406000206020528060005260406000206000915091509054906101000a900460ff1681565b60006020528060005260406000206000915054906101000a900473ffffffffffffffffffffffffffffffffffffffff1681565b600b5481565b600a5481565b6000600960008373ffffffffffffffffffffffffffffffffffffffff1673ffffffffffffffffffffffffffffffffffffffff168152602001908152602001600020549050919050565b6000806000806000600360008773ffffffffffffffffffffffffffffffffffffffff1673ffffffffffffffffffffffffffffffffffffffff16815260200190815260200160002060000154600360008873ffffffffffffffffffffffffffffffffffffffff1673ffffffffffffffffffffffffffffffffffffffff16815260200190815260200160002060010154600360008973ffffffffffffffffffffffffffffffffffffffff1673ffffffffffffffffffffffffffffffffffffffff16815260200190815260200160002060020154600360008a73ffffffffffffffffffffffffffffffffffffffff1673ffffffffffffffffffffffffffffffffffffffff16815260200190815260200160002060030154600360008b73ffffffffffffffffffffffffffffffffffffffff1673ffffffffffffffffffffffffffffffffffffffff168152602001908152602001600020600401549450945094509450945091939590929450565b600060046000838152602001908152602001600020805490509050919050565b6000600360003373ffffffffffffffffffffffffffffffffffffffff1673ffffffffffffffffffffffffffffffffffffffff16815260200190815260200160002090508181600101541015611115576040517f08c379a000000000000000000000000000000000000000000000000000000000815260040161110c90612a3d565b60405180910390fd5b428160000181905550818160020160008282546111329190612c34565b925050819055508181600101600082825461114d9190612d15565b925050819055507f3d8d9df4bd0172df32e557fa48e96435cd7f2cac06aaffacfaee608e6f7898ef33836040516111859291906127f4565b60405180910390a15050565b6060600f80546111a090612dea565b80601f01602080910402602001604051908101604052809291908181526020018280546111cc90612dea565b80156112195780601f106111ee57610100808354040283529160200191611219565b820191906000526020600020905b8154815290600101906020018083116111fc57829003601f168201915b5050505050905090565b6706f05b59d3b2000081565b6000806000600a54426112429190612d15565b9050600061012c6706f05b59d3b200008361125d9190612cbb565b6112679190612c8a565b9050600b54816112779190612c34565b61128030610eb8565b101561129f57600b5461129230610eb8565b61129c9190612d15565b90505b600560008681526020019081526020016000205481935093505050915091565b60006112cc338484611ac6565b6001905092915050565b6112e981683635c9adc5dea00000611cbc565b50565b6000600360003373ffffffffffffffffffffffffffffffffffffffff1673ffffffffffffffffffffffffffffffffffffffff168152602001908152602001600020905062093a808160000154426113439190612d15565b1015611384576040517f08c379a000000000000000000000000000000000000000000000000000000000815260040161137b9061297d565b60405180910390fd5b60008160020154116113cb576040517f08c379a00000000000000000000000000000000000000000000000000000000081526004016113c2906129fd565b60405180910390fd5b6113da30338360020154611ac6565b600081600201819055507f4a7934670bd8304e7da22378be1368f7c4fef17c5aee81804beda8638fe428ec3360405161141391906127d9565b60405180910390a150565b6060600660008481526020019081526020016000206000838152602001908152602001600020805461144f90612dea565b80601f016020809104026020016040519081016040528092919081815260200182805461147b90612dea565b80156114c85780601f1061149d576101008083540402835291602001916114c8565b820191906000526020600020905b8154815290600101906020018083116114ab57829003601f168201915b5050505050905092915050565b600c5481565b600760205281600052604060002081815481106114f757600080fd5b90600052602060002001600091509150505481565b6000600360003373ffffffffffffffffffffffffffffffffffffffff1673ffffffffffffffffffffffffffffffffffffffff16815260200190815260200160002090506000816002015411156115ba5781816002015410611587578181600201600082825461157b9190612d15565b925050819055506115b5565b6115a1333083600201548561159c9190612d15565b611e05565b6115aa57600080fd5b600081600201819055505b6115cf565b6115c5333084611e05565b6115ce57600080fd5b5b428160000181905550818160010160008282546115ec9190612c34565b925050819055507fa96c2cce65119a2170d1711a6e82f18f2006448828483ba7545e59547654364733836040516116249291906127f4565b60405180910390a15050565b60008060046000858152602001908152602001600020805490509050600081148061165b5750828111155b1561166a5760009150506116c4565b6004600085815260200190815260200160002083815481106116b5577f4e487b7100000000000000000000000000000000000000000000000000000000600052603260045260246000fd5b90600052602060002001549150505b92915050565b6000600860008473ffffffffffffffffffffffffffffffffffffffff1673ffffffffffffffffffffffffffffffffffffffff16815260200190815260200160002060008373ffffffffffffffffffffffffffffffffffffffff1673ffffffffffffffffffffffffffffffffffffffff16815260200190815260200160002054905092915050565b600060026000848152602001908152602001600020600083815260200190815260200160002060009054906101000a900473ffffffffffffffffffffffffffffffffffffffff16905092915050565b80805190602001208314806117b9575060648360001c11155b6117f8576040517f08c379a00000000000000000000000000000000000000000000000000000000081526004016117ef9061295d565b60405180910390fd5b611803333084611ac6565b6002826118109190612c8a565b915061181c3083611eaf565b81600b600082825461182e9190612c34565b92505081905550816005600085815260200190815260200160002060008282546118589190612c34565b92505081905550823373ffffffffffffffffffffffffffffffffffffffff167fd951d408a0f5057da5c25b826fb5ce403d56542962b6ac6994dbc6d5432fbff5846005600088815260200190815260200160002054856040516118bd93929190612ac1565b60405180910390a3505050565b600460205281600052604060002081815481106118e657600080fd5b90600052602060002001600091509150505481565b600073ffffffffffffffffffffffffffffffffffffffff168373ffffffffffffffffffffffffffffffffffffffff16141561196b576040517f08c379a000000000000000000000000000000000000000000000000000000000815260040161196290612a1d565b60405180910390fd5b600073ffffffffffffffffffffffffffffffffffffffff168273ffffffffffffffffffffffffffffffffffffffff1614156119db576040517f08c379a00000000000000000000000000000000000000000000000000000000081526004016119d29061293d565b60405180910390fd5b80600860008573ffffffffffffffffffffffffffffffffffffffff1673ffffffffffffffffffffffffffffffffffffffff16815260200190815260200160002060008473ffffffffffffffffffffffffffffffffffffffff1673ffffffffffffffffffffffffffffffffffffffff168152602001908152602001600020819055508173ffffffffffffffffffffffffffffffffffffffff168373ffffffffffffffffffffffffffffffffffffffff167f8c5be1e5ebec7d5bd14f71427d1e84f3dd0314c0f7b2291e5b200ac8c7c3b92583604051611ab99190612a7d565b60405180910390a3505050565b600073ffffffffffffffffffffffffffffffffffffffff168373ffffffffffffffffffffffffffffffffffffffff161415611b36576040517f08c379a0000000000000000000000000000000000000000000000000000000008152600401611b2d906129dd565b60405180910390fd5b600073ffffffffffffffffffffffffffffffffffffffff168273ffffffffffffffffffffffffffffffffffffffff161415611ba6576040517f08c379a0000000000000000000000000000000000000000000000000000000008152600401611b9d9061291d565b60405180910390fd5b80600960008573ffffffffffffffffffffffffffffffffffffffff1673ffffffffffffffffffffffffffffffffffffffff1681526020019081526020016000206000828254611bf59190612d15565b9250508190555080600960008473ffffffffffffffffffffffffffffffffffffffff1673ffffffffffffffffffffffffffffffffffffffff1681526020019081526020016000206000828254611c4b9190612c34565b925050819055508173ffffffffffffffffffffffffffffffffffffffff168373ffffffffffffffffffffffffffffffffffffffff167fddf252ad1be2c89b69c2b068fc378daa952ba7f163c4a11628f55a4df523b3ef83604051611caf9190612a7d565b60405180910390a3505050565b600073ffffffffffffffffffffffffffffffffffffffff168273ffffffffffffffffffffffffffffffffffffffff161415611d2c576040517f08c379a0000000000000000000000000000000000000000000000000000000008152600401611d2390612a5d565b60405180910390fd5b80600d6000828254611d3e9190612c34565b9250508190555080600960008473ffffffffffffffffffffffffffffffffffffffff1673ffffffffffffffffffffffffffffffffffffffff1681526020019081526020016000206000828254611d949190612c34565b925050819055508173ffffffffffffffffffffffffffffffffffffffff16600073ffffffffffffffffffffffffffffffffffffffff167fddf252ad1be2c89b69c2b068fc378daa952ba7f163c4a11628f55a4df523b3ef83604051611df99190612a7d565b60405180910390a35050565b6000611e12848484611ac6565b611ea4843384600860008973ffffffffffffffffffffffffffffffffffffffff1673ffffffffffffffffffffffffffffffffffffffff16815260200190815260200160002060003073ffffffffffffffffffffffffffffffffffffffff1673ffffffffffffffffffffffffffffffffffffffff16815260200190815260200160002054611e9f9190612d15565b6118fb565b600190509392505050565b600073ffffffffffffffffffffffffffffffffffffffff168273ffffffffffffffffffffffffffffffffffffffff161415611f1f576040517f08c379a0000000000000000000000000000000000000000000000000000000008152600401611f16906129bd565b60405180910390fd5b80600960008473ffffffffffffffffffffffffffffffffffffffff1673ffffffffffffffffffffffffffffffffffffffff1681526020019081526020016000206000828254611f6e9190612d15565b9250508190555080600d6000828254611f879190612d15565b92505081905550600073ffffffffffffffffffffffffffffffffffffffff168273ffffffffffffffffffffffffffffffffffffffff167fddf252ad1be2c89b69c2b068fc378daa952ba7f163c4a11628f55a4df523b3ef83604051611fec9190612a7d565b60405180910390a35050565b82805461200490612dea565b90600052602060002090601f016020900481019282612026576000855561206d565b82601f1061203f57805160ff191683800117855561206d565b8280016001018555821561206d579182015b8281111561206c578251825591602001919060010190612051565b5b50905061207a9190612104565b5090565b82805461208a90612dea565b90600052602060002090601f0160209004810192826120ac57600085556120f3565b82601f106120c557803560ff19168380011785556120f3565b828001600101855582156120f3579182015b828111156120f25782358255916020019190600101906120d7565b5b5090506121009190612104565b5090565b5b8082111561211d576000816000905550600101612105565b5090565b600061213461212f84612b92565b612b6d565b90508281526020810184848401111561214c57600080fd5b612157848285612da8565b509392505050565b60008135905061216e8161321e565b92915050565b60008135905061218381613235565b92915050565b60008083601f84011261219b57600080fd5b8235905067ffffffffffffffff8111156121b457600080fd5b6020830191508360018202830111156121cc57600080fd5b9250929050565b600082601f8301126121e457600080fd5b81356121f4848260208601612121565b91505092915050565b60008135905061220c8161324c565b92915050565b60006020828403121561222457600080fd5b60006122328482850161215f565b91505092915050565b6000806040838503121561224e57600080fd5b600061225c8582860161215f565b925050602061226d8582860161215f565b9150509250929050565b60008060006060848603121561228c57600080fd5b600061229a8682870161215f565b93505060206122ab8682870161215f565b92505060406122bc868287016121fd565b9150509250925092565b600080604083850312156122d957600080fd5b60006122e78582860161215f565b92505060206122f8858286016121fd565b9150509250929050565b60006020828403121561231457600080fd5b600061232284828501612174565b91505092915050565b60008060008060006080868803121561234357600080fd5b600061235188828901612174565b955050602086013567ffffffffffffffff81111561236e57600080fd5b61237a88828901612189565b9450945050604061238d888289016121fd565b925050606086013567ffffffffffffffff8111156123aa57600080fd5b6123b6888289016121d3565b9150509295509295909350565b600080604083850312156123d657600080fd5b60006123e485828601612174565b92505060206123f5858286016121fd565b9150509250929050565b60008060006060848603121561241457600080fd5b600061242286828701612174565b9350506020612433868287016121fd565b925050604084013567ffffffffffffffff81111561245057600080fd5b61245c868287016121d3565b9150509250925092565b60006020828403121561247857600080fd5b6000612486848285016121fd565b91505092915050565b600061249b8383612769565b60208301905092915050565b6124b081612d49565b82525050565b60006124c182612bd3565b6124cb8185612c01565b93506124d683612bc3565b8060005b838110156125075781516124ee888261248f565b97506124f983612bf4565b9250506001810190506124da565b5085935050505092915050565b61251d81612d5b565b82525050565b61252c81612d67565b82525050565b61254361253e82612d67565b612e96565b82525050565b60006125558385612c12565b9350612562838584612da8565b61256b83612f66565b840190509392505050565b600061258182612bde565b61258b8185612c12565b935061259b818560208601612db7565b6125a481612f66565b840191505092915050565b60006125ba82612be9565b6125c48185612c23565b93506125d4818560208601612db7565b6125dd81612f66565b840191505092915050565b60006125f5602383612c23565b915061260082612f77565b604082019050919050565b6000612618602283612c23565b915061262382612fc6565b604082019050919050565b600061263b601d83612c23565b915061264682613015565b602082019050919050565b600061265e601283612c23565b91506126698261303e565b602082019050919050565b6000612681601783612c23565b915061268c82613067565b602082019050919050565b60006126a4602183612c23565b91506126af82613090565b604082019050919050565b60006126c7602583612c23565b91506126d2826130df565b604082019050919050565b60006126ea602283612c23565b91506126f58261312e565b604082019050919050565b600061270d602483612c23565b91506127188261317d565b604082019050919050565b6000612730601b83612c23565b915061273b826131cc565b602082019050919050565b6000612753601f83612c23565b915061275e826131f5565b602082019050919050565b61277281612d91565b82525050565b61278181612d91565b82525050565b61279861279382612d91565b612ea0565b82525050565b6127a781612d9b565b82525050565b60006127b98285612532565b6020820191506127c98284612787565b6020820191508190509392505050565b60006020820190506127ee60008301846124a7565b92915050565b600060408201905061280960008301856124a7565b6128166020830184612778565b9392505050565b6000602082019050818103600083015261283781846124b6565b905092915050565b60006020820190506128546000830184612514565b92915050565b600060e08201905061286f600083018b612523565b61287c602083018a612778565b818103604083015261288f81888a612549565b905061289e6060830187612778565b6128ab6080830186612778565b81810360a08301526128bd8185612576565b90506128cc60c08301846124a7565b9998505050505050505050565b600060208201905081810360008301526128f38184612576565b905092915050565b6000602082019050818103600083015261291581846125af565b905092915050565b60006020820190508181036000830152612936816125e8565b9050919050565b600060208201905081810360008301526129568161260b565b9050919050565b600060208201905081810360008301526129768161262e565b9050919050565b6000602082019050818103600083015261299681612651565b9050919050565b600060208201905081810360008301526129b681612674565b9050919050565b600060208201905081810360008301526129d681612697565b9050919050565b600060208201905081810360008301526129f6816126ba565b9050919050565b60006020820190508181036000830152612a16816126dd565b9050919050565b60006020820190508181036000830152612a3681612700565b9050919050565b60006020820190508181036000830152612a5681612723565b9050919050565b60006020820190508181036000830152612a7681612746565b9050919050565b6000602082019050612a926000830184612778565b92915050565b6000604082019050612aad6000830185612778565b612aba6020830184612778565b9392505050565b6000606082019050612ad66000830186612778565b612ae36020830185612778565b8181036040830152612af58184612576565b9050949350505050565b600060a082019050612b146000830188612778565b612b216020830187612778565b612b2e6040830186612778565b612b3b6060830185612778565b612b486080830184612778565b9695505050505050565b6000602082019050612b67600083018461279e565b92915050565b6000612b77612b88565b9050612b838282612e1c565b919050565b6000604051905090565b600067ffffffffffffffff821115612bad57612bac612f37565b5b612bb682612f66565b9050602081019050919050565b6000819050602082019050919050565b600081519050919050565b600081519050919050565b600081519050919050565b6000602082019050919050565b600082825260208201905092915050565b600082825260208201905092915050565b600082825260208201905092915050565b6000612c3f82612d91565b9150612c4a83612d91565b9250827fffffffffffffffffffffffffffffffffffffffffffffffffffffffffffffffff03821115612c7f57612c7e612eaa565b5b828201905092915050565b6000612c9582612d91565b9150612ca083612d91565b925082612cb057612caf612ed9565b5b828204905092915050565b6000612cc682612d91565b9150612cd183612d91565b9250817fffffffffffffffffffffffffffffffffffffffffffffffffffffffffffffffff0483118215151615612d0a57612d09612eaa565b5b828202905092915050565b6000612d2082612d91565b9150612d2b83612d91565b925082821015612d3e57612d3d612eaa565b5b828203905092915050565b6000612d5482612d71565b9050919050565b60008115159050919050565b6000819050919050565b600073ffffffffffffffffffffffffffffffffffffffff82169050919050565b6000819050919050565b600060ff82169050919050565b82818337600083830152505050565b60005b83811015612dd5578082015181840152602081019050612dba565b83811115612de4576000848401525b50505050565b60006002820490506001821680612e0257607f821691505b60208210811415612e1657612e15612f08565b5b50919050565b612e2582612f66565b810181811067ffffffffffffffff82111715612e4457612e43612f37565b5b80604052505050565b6000612e5882612d91565b91507fffffffffffffffffffffffffffffffffffffffffffffffffffffffffffffffff821415612e8b57612e8a612eaa565b5b600182019050919050565b6000819050919050565b6000819050919050565b7f4e487b7100000000000000000000000000000000000000000000000000000000600052601160045260246000fd5b7f4e487b7100000000000000000000000000000000000000000000000000000000600052601260045260246000fd5b7f4e487b7100000000000000000000000000000000000000000000000000000000600052602260045260246000fd5b7f4e487b7100000000000000000000000000000000000000000000000000000000600052604160045260246000fd5b6000601f19601f8301169050919050565b7f45524332303a207472616e7366657220746f20746865207a65726f206164647260008201527f6573730000000000000000000000000000000000000000000000000000000000602082015250565b7f45524332303a20617070726f766520746f20746865207a65726f20616464726560008201527f7373000000000000000000000000000000000000000000000000000000000000602082015250565b7f6964206d7573742062652068617368206f662062797465732064617461000000600082015250565b7f372064617973206469646e277420706173730000000000000000000000000000600082015250565b7f6e6f6e63652073686f756c6420626520636f7272656374000000000000000000600082015250565b7f45524332303a206275726e2066726f6d20746865207a65726f2061646472657360008201527f7300000000000000000000000000000000000000000000000000000000000000602082015250565b7f45524332303a207472616e736665722066726f6d20746865207a65726f20616460008201527f6472657373000000000000000000000000000000000000000000000000000000602082015250565b7f7265706f72746572206e6f74206c6f636b656420666f7220776974686472617760008201527f616c000000000000000000000000000000000000000000000000000000000000602082015250565b7f45524332303a20617070726f76652066726f6d20746865207a65726f2061646460008201527f7265737300000000000000000000000000000000000000000000000000000000602082015250565b7f696e73756666696369656e74207374616b65642062616c616e63650000000000600082015250565b7f45524332303a206d696e7420746f20746865207a65726f206164647265737300600082015250565b61322781612d49565b811461323257600080fd5b50565b61323e81612d67565b811461324957600080fd5b50565b61325581612d91565b811461326057600080fd5b5056fea26469706673582212205747f0fa66590dfa09380f3385223fd9b03ed7174dc806da9f3313f1bb28176c64736f6c63430008030033",
  "linkReferences": {},
  "deployedLinkReferences": {}
}