{
  "contractName": "OracleIDDescriptions",
  "abi": [
    {
      "constant": true,
      "inputs": [],
      "name": "owner",
      "outputs": [
        {
          "name": "",
          "type": "address"
        }
      ],
      "payable": false,
      "stateMutability": "view",
      "type": "function"
    },
    {
      "inputs": [],
      "payable": false,
      "stateMutability": "nonpayable",
      "type": "constructor"
    },
    {
      "anonymous": false,
      "inputs": [
        {
          "indexed": false,
          "name": "_requestID",
          "type": "uint256"
        },
        {
          "indexed": false,
          "name": "_id",
          "type": "bytes32"
        }
      ],
      "name": "TellorIdMappedToBytes",
      "type": "event"
    },
    {
      "anonymous": false,
      "inputs": [
        {
          "indexed": false,
          "name": "_tellorStatus",
          "type": "uint256"
        },
        {
          "indexed": false,
          "name": "_status",
          "type": "int256"
        }
      ],
      "name": "StatusMapped",
      "type": "event"
    },
    {
      "constant": false,
      "inputs": [
        {
          "name": "newOwner",
          "type": "address"
        }
      ],
      "name": "transferOwnership",
      "outputs": [],
      "payable": false,
      "stateMutability": "nonpayable",
      "type": "function"
    },
    {
      "constant": false,
      "inputs": [
        {
          "name": "_tellorStatus",
          "type": "uint256"
        },
        {
          "name": "_status",
          "type": "int256"
        }
      ],
      "name": "defineTellorCodeToStatusCode",
      "outputs": [],
      "payable": false,
      "stateMutability": "nonpayable",
      "type": "function"
    },
    {
      "constant": false,
      "inputs": [
        {
          "name": "_requestID",
          "type": "uint256"
        },
        {
          "name": "_id",
          "type": "bytes32"
        }
      ],
      "name": "defineTellorIdToBytesID",
      "outputs": [],
      "payable": false,
      "stateMutability": "nonpayable",
      "type": "function"
    },
    {
      "constant": true,
      "inputs": [
        {
          "name": "_status",
          "type": "int256"
        }
      ],
      "name": "getTellorStatusFromStatus",
      "outputs": [
        {
          "name": "_tellorStatus",
          "type": "uint256"
        }
      ],
      "payable": false,
      "stateMutability": "view",
      "type": "function"
    },
    {
      "constant": true,
      "inputs": [
        {
          "name": "_tellorStatus",
          "type": "uint256"
        }
      ],
      "name": "getStatusFromTellorStatus",
      "outputs": [
        {
          "name": "_status",
          "type": "int256"
        }
      ],
      "payable": false,
      "stateMutability": "view",
      "type": "function"
    },
    {
      "constant": true,
      "inputs": [
        {
          "name": "_id",
          "type": "bytes32"
        }
      ],
      "name": "getTellorIdFromBytes",
      "outputs": [
        {
          "name": "_requestId",
          "type": "uint256"
        }
      ],
      "payable": false,
      "stateMutability": "view",
      "type": "function"
    },
    {
      "constant": true,
      "inputs": [
        {
          "name": "_requestId",
          "type": "uint256"
        }
      ],
      "name": "getBytesFromTellorID",
      "outputs": [
        {
          "name": "_id",
          "type": "bytes32"
        }
      ],
      "payable": false,
      "stateMutability": "view",
      "type": "function"
    }
  ],
  "bytecode": "0x608060405234801561001057600080fd5b5033600460006101000a81548173ffffffffffffffffffffffffffffffffffffffff021916908373ffffffffffffffffffffffffffffffffffffffff1602179055506106ca806100616000396000f3fe608060405234801561001057600080fd5b50600436106100885760003560e01c8063b70b19cb1161005b578063b70b19cb14610193578063c4e9e950146101d5578063d271d77e14610217578063f2fde38b1461024f57610088565b80630a3ff7db1461008d5780635aa6fdd1146100cf57806367cfa3f8146101075780638da5cb5b14610149575b600080fd5b6100b9600480360360208110156100a357600080fd5b8101908080359060200190929190505050610293565b6040518082815260200191505060405180910390f35b610105600480360360408110156100e557600080fd5b8101908080359060200190929190803590602001909291905050506102af565b005b6101336004803603602081101561011d57600080fd5b81019080803590602001909291905050506103e4565b6040518082815260200191505060405180910390f35b610151610401565b604051808273ffffffffffffffffffffffffffffffffffffffff1673ffffffffffffffffffffffffffffffffffffffff16815260200191505060405180910390f35b6101bf600480360360208110156101a957600080fd5b8101908080359060200190929190505050610427565b6040518082815260200191505060405180910390f35b610201600480360360208110156101eb57600080fd5b8101908080359060200190929190505050610444565b6040518082815260200191505060405180910390f35b61024d6004803603604081101561022d57600080fd5b810190808035906020019092919080359060200190929190505050610461565b005b6102916004803603602081101561026557600080fd5b81019080803573ffffffffffffffffffffffffffffffffffffffff169060200190929190505050610597565b005b6000806000838152602001908152602001600020549050919050565b600460009054906101000a900473ffffffffffffffffffffffffffffffffffffffff1673ffffffffffffffffffffffffffffffffffffffff163373ffffffffffffffffffffffffffffffffffffffff1614610372576040517f08c379a00000000000000000000000000000000000000000000000000000000081526004018080602001828103825260138152602001807f53656e646572206973206e6f74206f776e65720000000000000000000000000081525060200191505060405180910390fd5b80600080848152602001908152602001600020819055508160016000838152602001908152602001600020819055507f6d663ee2b4cf058e66f9e5a74c6155bde58a5a717d01ccfb8befad11118c7db18282604051808381526020018281526020019250505060405180910390a15050565b600060026000838152602001908152602001600020549050919050565b600460009054906101000a900473ffffffffffffffffffffffffffffffffffffffff1681565b600060036000838152602001908152602001600020549050919050565b600060016000838152602001908152602001600020549050919050565b600460009054906101000a900473ffffffffffffffffffffffffffffffffffffffff1673ffffffffffffffffffffffffffffffffffffffff163373ffffffffffffffffffffffffffffffffffffffff1614610524576040517f08c379a00000000000000000000000000000000000000000000000000000000081526004018080602001828103825260138152602001807f53656e646572206973206e6f74206f776e65720000000000000000000000000081525060200191505060405180910390fd5b8060026000848152602001908152602001600020819055508160036000838152602001908152602001600020819055507f39d6d5c60e8a0e6f18c49fecf0e34ed043875e510e7ef7ba724731f8d72a6d168282604051808381526020018281526020019250505060405180910390a15050565b600460009054906101000a900473ffffffffffffffffffffffffffffffffffffffff1673ffffffffffffffffffffffffffffffffffffffff163373ffffffffffffffffffffffffffffffffffffffff161461065a576040517f08c379a00000000000000000000000000000000000000000000000000000000081526004018080602001828103825260138152602001807f53656e646572206973206e6f74206f776e65720000000000000000000000000081525060200191505060405180910390fd5b80600460006101000a81548173ffffffffffffffffffffffffffffffffffffffff021916908373ffffffffffffffffffffffffffffffffffffffff1602179055505056fea165627a7a72305820c0f1c7ed3facfdccf2c3661d00ed22866fe1603ca7510c2a65de851869b3c22d0029",
  "source": "pragma solidity ^0.5.0;\r\n\r\n/*\r\n * @title Price/numberic Pull Oracle mapping contract\r\n*/\r\n\r\ncontract OracleIDDescriptions {\r\n\r\n    /*Variables*/\r\n    mapping(uint=>bytes32) tellorIDtoBytesID;\r\n    mapping(bytes32 => uint) bytesIDtoTellorID;\r\n    mapping(uint => int) tellorCodeToStatusCode;\r\n    mapping(int => uint) statusCodeToTellorCode;\r\n    address public owner;\r\n\r\n    /*Events*/\r\n    event TellorIdMappedToBytes(uint _requestID, bytes32 _id);\r\n    event StatusMapped(uint _tellorStatus, int _status);\r\n    \r\n\r\n    /*Functions*/\r\n    constructor() public{\r\n        owner =msg.sender;\r\n    }\r\n\r\n\r\n    function transferOwnership(address payable newOwner) external {\r\n        require(msg.sender == owner, \"Sender is not owner\");\r\n        owner = newOwner;\r\n    }\r\n\r\n    function defineTellorCodeToStatusCode(uint _tellorStatus, int _status) external{\r\n        require(msg.sender == owner, \"Sender is not owner\");\r\n        tellorCodeToStatusCode[_tellorStatus] = _status;\r\n        statusCodeToTellorCode[_status] = _tellorStatus;\r\n        emit StatusMapped(_tellorStatus, _status);\r\n    }\r\n\r\n    function defineTellorIdToBytesID(uint _requestID, bytes32 _id) external{\r\n        require(msg.sender == owner, \"Sender is not owner\");\r\n        tellorIDtoBytesID[_requestID] = _id;\r\n        bytesIDtoTellorID[_id] = _requestID;\r\n        emit TellorIdMappedToBytes(_requestID,_id);\r\n    }\r\n\r\n    function getTellorStatusFromStatus(int _status) public view returns(uint _tellorStatus){\r\n        return statusCodeToTellorCode[_status];\r\n    }\r\n\r\n    function getStatusFromTellorStatus (uint _tellorStatus) public view returns(int _status) {\r\n        return tellorCodeToStatusCode[_tellorStatus];\r\n    }\r\n    \r\n\r\n    function getTellorIdFromBytes(bytes32 _id) \r\n        public\r\n        view\r\n        returns(uint _requestId) \r\n    {\r\n       return bytesIDtoTellorID[_id];\r\n    }\r\n\r\n\r\n    function getBytesFromTellorID(uint _requestId) \r\n        public \r\n        view\r\n        returns(bytes32 _id)\r\n    {\r\n        return tellorIDtoBytesID[_requestId];\r\n    }\r\n\r\n}",
  "sourcePath": "C:\\company\\code\\usingTellor\\contracts\\OracleIDDescriptions.sol",
  "compiler": {
    "name": "solc",
    "version": "0.5.8+commit.23d335f2.Emscripten.clang"
  },
  "schemaVersion": "3.0.16",
  "updatedAt": "2019-12-16T18:23:10.291Z",
  "devdoc": {
    "methods": {}
  },
  "userdoc": {
    "methods": {}
  }
}