{
  "contractName": "OracleIDDescriptions",
  "abi": [
    {
      "anonymous": false,
      "inputs": [
        {
          "indexed": false,
          "name": "_id",
          "type": "bytes32"
        },
        {
          "indexed": false,
          "name": "_description",
          "type": "string"
        }
      ],
      "name": "NewIDAdded",
      "type": "event"
    },
    {
      "anonymous": false,
      "inputs": [
        {
          "indexed": false,
          "name": "_hash",
          "type": "bytes32"
        }
      ],
      "name": "newhash",
      "type": "event"
    },
    {
      "anonymous": false,
      "inputs": [
        {
          "indexed": false,
          "name": "_string",
          "type": "string"
        }
      ],
      "name": "newString",
      "type": "event"
    },
    {
      "constant": false,
      "inputs": [
        {
          "name": "description",
          "type": "string"
        },
        {
          "name": "granularity",
          "type": "uint256"
        }
      ],
      "name": "defineBytes32ID",
      "outputs": [
        {
          "name": "_id",
          "type": "bytes32"
        }
      ],
      "payable": false,
      "stateMutability": "nonpayable",
      "type": "function"
    },
    {
      "constant": true,
      "inputs": [
        {
          "name": "_id",
          "type": "bytes32"
        }
      ],
      "name": "whatIsIdDescription",
      "outputs": [
        {
          "name": "_description",
          "type": "string"
        }
      ],
      "payable": false,
      "stateMutability": "view",
      "type": "function"
    },
    {
      "constant": true,
      "inputs": [
        {
          "name": "description",
          "type": "string"
        },
        {
          "name": "granularity",
          "type": "uint256"
        }
      ],
      "name": "whatIsStringID",
      "outputs": [
        {
          "name": "_id",
          "type": "bytes32"
        }
      ],
      "payable": false,
      "stateMutability": "view",
      "type": "function"
    }
  ],
  "bytecode": "0x608060405234801561001057600080fd5b50610917806100206000396000f3fe608060405234801561001057600080fd5b50600436106100415760003560e01c806351a4b830146100465780637d1627b21461011f578063f06af379146101c6575b600080fd5b6101096004803603604081101561005c57600080fd5b810190808035906020019064010000000081111561007957600080fd5b82018360208201111561008b57600080fd5b803590602001918460018302840111640100000000831117156100ad57600080fd5b91908080601f016020809104026020016040519081016040528093929190818152602001838380828437600081840152601f19601f8201169050808301925050505050505091929192908035906020019092919050505061029f565b6040518082815260200191505060405180910390f35b61014b6004803603602081101561013557600080fd5b8101908080359060200190929190505050610625565b6040518080602001828103825283818151815260200191508051906020019080838360005b8381101561018b578082015181840152602081019050610170565b50505050905090810190601f1680156101b85780820380516001836020036101000a031916815260200191505b509250505060405180910390f35b610289600480360360408110156101dc57600080fd5b81019080803590602001906401000000008111156101f957600080fd5b82018360208201111561020b57600080fd5b8035906020019184600183028401116401000000008311171561022d57600080fd5b91908080601f016020809104026020016040519081016040528093929190818152602001838380828437600081840152601f19601f820116905080830192505050505050509192919290803590602001909291905050506106dc565b6040518082815260200191505060405180910390f35b6000808211610316576040517f08c379a00000000000000000000000000000000000000000000000000000000081526004018080602001828103825260168152602001807f546f6f2066657720646563696d616c20706c616365730000000000000000000081525060200191505060405180910390fd5b606083905080836040516020018083805190602001908083835b602083106103535780518252602082019150602081019050602083039250610330565b6001836020036101000a038019825116818451168082178552505050505050905001828152602001925050506040516020818303038152906040528051906020012091507ff14547a66f09100fdb17cd6c4900fd12dfa38b6b5aaea9a81bb2a459ee1afcd8826040518082815260200191505060405180910390a1606081836040516020018083805190602001908083835b6020831061040857805182526020820191506020810190506020830392506103e5565b6001836020036101000a0380198251168184511680821785525050505050509050018281526020019250505060405160208183030381529060405290507fa316057ea35600cb6ed62fc7a14f664a7e2a5935e2556cfc9b087875c702a56d816040518080602001828103825283818151815260200191508051906020019080838360005b838110156104a757808201518184015260208101905061048c565b50505050905090810190601f1680156104d45780820380516001836020036101000a031916815260200191505b509250505060405180910390a1806000808581526020019081526020016000209080519060200190610507929190610846565b50826001836040518082805190602001908083835b6020831061053f578051825260208201915060208101905060208303925061051c565b6001836020036101000a0380198251168184511680821785525050505050509050019150509081526020016040518091039020819055507f89c1ee1e8073fc9579a15b2a2c582764d97cbb03af892fdc326f2bff08d6154583836040518083815260200180602001828103825283818151815260200191508051906020019080838360005b838110156105df5780820151818401526020810190506105c4565b50505050905090810190601f16801561060c5780820380516001836020036101000a031916815260200191505b50935050505060405180910390a1829250505092915050565b60606000808381526020019081526020016000208054600181600116156101000203166002900480601f0160208091040260200160405190810160405280929190818152602001828054600181600116156101000203166002900480156106cd5780601f106106a2576101008083540402835291602001916106cd565b820191906000526020600020905b8154815290600101906020018083116106b057829003601f168201915b50505050509050809050919050565b6000808211610753576040517f08c379a00000000000000000000000000000000000000000000000000000000081526004018080602001828103825260168152602001807f546f6f2066657720646563696d616c20706c616365730000000000000000000081525060200191505060405180910390fd5b6060839050606081846040516020018083805190602001908083835b60208310610792578051825260208201915060208101905060208303925061076f565b6001836020036101000a0380198251168184511680821785525050505050509050018281526020019250505060405160208183030381529060405290506001816040518082805190602001908083835b6020831061080557805182526020820191506020810190506020830392506107e2565b6001836020036101000a0380198251168184511680821785525050505050509050019150509081526020016040518091039020549250829250505092915050565b828054600181600116156101000203166002900490600052602060002090601f016020900481019282601f1061088757805160ff19168380011785556108b5565b828001600101855582156108b5579182015b828111156108b4578251825591602001919060010190610899565b5b5090506108c291906108c6565b5090565b6108e891905b808211156108e45760008160009055506001016108cc565b5090565b9056fea165627a7a723058200192305f994352fbb047e5e49dcf34aac708a8407f936b96b453f4b46cbb68c30029",
  "source": "pragma solidity ^0.5.0;\r\n\r\n/*\r\n * @title Price/numberic Pull Oracle mapping contract\r\n*/\r\n\r\ncontract OracleIDDescriptions {\r\n\r\n/*Variables*/\r\nmapping(bytes32 =>string) bytesToString;\r\nmapping(string=>bytes32) stringToBytes;\r\n\r\n//should status enum be defined here too?\r\n\r\n/*Events*/\r\nevent NewIDAdded(bytes32 _id, string _description);\r\nevent newhash(bytes32 _hash);\r\nevent newString(string _string);\r\n\r\n/*Functions*/\r\n//whitelist function for adding or open?\r\n\r\nfunction defineBytes32ID (string memory description, uint256 granularity) \r\npublic \r\nreturns(bytes32 _id)\r\n{\r\n    require(granularity > 0, \"Too few decimal places\");\r\n    string memory _description = description;\r\n\t_id = keccak256(abi.encodePacked(_description, granularity));\r\n    emit newhash(_id);\r\n    //_id = keccak256(_description)];\r\n    string memory _desc = string(abi.encodePacked(_description, _id));\r\n    emit newString(_desc);\r\n    bytesToString[_id] = _desc;\r\n    stringToBytes[_description]= _id;\r\n    emit NewIDAdded(_id, _description);\r\n    return(_id);\r\n}\r\n\r\n\r\nfunction whatIsIdDescription (bytes32 _id) \r\npublic\r\nview\r\nreturns(string memory _description) \r\n{\r\n   _description = bytesToString[_id];\r\n   return(_description);\r\n}\r\n\r\n\r\nfunction whatIsStringID (string memory description, uint granularity) \r\npublic \r\nview\r\nreturns(bytes32 _id)\r\n{\r\n    require(granularity > 0, \"Too few decimal places\");\r\n    string memory _description = description;\r\n    string memory _desc = string(abi.encodePacked(_description, granularity));\r\n    \r\n    _id = stringToBytes[_desc];\r\n    return(_id);\r\n}\r\n\r\n}",
  "sourcePath": "C:/users/lloya/documents/dda/1tellor/tellor/projects/tellornpm/usingtellor/contracts/OracleIDDescriptions.sol",
  "compiler": {
    "name": "solc",
    "version": "0.5.8+commit.23d335f2.Emscripten.clang"
  },
  "schemaVersion": "3.0.11",
  "updatedAt": "2019-12-11T18:51:15.986Z",
  "devdoc": {
    "methods": {}
  },
  "userdoc": {
    "methods": {}
  }
}