{
  "contractName": "TellorMaster",
  "abi": [
    {
      "constant": true,
      "inputs": [],
      "name": "getVariablesOnDeck",
      "outputs": [
        {
          "name": "",
          "type": "uint256"
        },
        {
          "name": "",
          "type": "uint256"
        },
        {
          "name": "",
          "type": "string"
        }
      ],
      "payable": false,
      "stateMutability": "view",
      "type": "function"
    },
    {
      "constant": true,
      "inputs": [
        {
          "name": "_request",
          "type": "bytes32"
        }
      ],
      "name": "getRequestIdByQueryHash",
      "outputs": [
        {
          "name": "",
          "type": "uint256"
        }
      ],
      "payable": false,
      "stateMutability": "view",
      "type": "function"
    },
    {
      "constant": true,
      "inputs": [
        {
          "name": "_requestId",
          "type": "uint256"
        }
      ],
      "name": "getNewValueCountbyRequestId",
      "outputs": [
        {
          "name": "",
          "type": "uint256"
        }
      ],
      "payable": false,
      "stateMutability": "view",
      "type": "function"
    },
    {
      "constant": true,
      "inputs": [
        {
          "name": "_user",
          "type": "address"
        },
        {
          "name": "_blockNumber",
          "type": "uint256"
        }
      ],
      "name": "balanceOfAt",
      "outputs": [
        {
          "name": "",
          "type": "uint256"
        }
      ],
      "payable": false,
      "stateMutability": "view",
      "type": "function"
    },
    {
      "constant": true,
      "inputs": [
        {
          "name": "_user",
          "type": "address"
        }
      ],
      "name": "balanceOf",
      "outputs": [
        {
          "name": "",
          "type": "uint256"
        }
      ],
      "payable": false,
      "stateMutability": "view",
      "type": "function"
    },
    {
      "constant": true,
      "inputs": [
        {
          "name": "_requestID",
          "type": "uint256"
        },
        {
          "name": "_index",
          "type": "uint256"
        }
      ],
      "name": "getTimestampbyRequestIDandIndex",
      "outputs": [
        {
          "name": "",
          "type": "uint256"
        }
      ],
      "payable": false,
      "stateMutability": "view",
      "type": "function"
    },
    {
      "constant": true,
      "inputs": [
        {
          "name": "_requestId",
          "type": "uint256"
        },
        {
          "name": "_timestamp",
          "type": "uint256"
        }
      ],
      "name": "retrieveData",
      "outputs": [
        {
          "name": "",
          "type": "uint256"
        }
      ],
      "payable": false,
      "stateMutability": "view",
      "type": "function"
    },
    {
      "constant": true,
      "inputs": [
        {
          "name": "_user",
          "type": "address"
        },
        {
          "name": "_amount",
          "type": "uint256"
        }
      ],
      "name": "allowedToTrade",
      "outputs": [
        {
          "name": "",
          "type": "bool"
        }
      ],
      "payable": false,
      "stateMutability": "view",
      "type": "function"
    },
    {
      "constant": true,
      "inputs": [
        {
          "name": "_requestId",
          "type": "uint256"
        }
      ],
      "name": "getRequestVars",
      "outputs": [
        {
          "name": "",
          "type": "string"
        },
        {
          "name": "",
          "type": "string"
        },
        {
          "name": "",
          "type": "bytes32"
        },
        {
          "name": "",
          "type": "uint256"
        },
        {
          "name": "",
          "type": "uint256"
        },
        {
          "name": "",
          "type": "uint256"
        }
      ],
      "payable": false,
      "stateMutability": "view",
      "type": "function"
    },
    {
      "inputs": [
        {
          "name": "_tellorContract",
          "type": "address"
        }
      ],
      "payable": false,
      "stateMutability": "nonpayable",
      "type": "constructor"
    },
    {
      "payable": true,
      "stateMutability": "payable",
      "type": "fallback"
    },
    {
      "anonymous": false,
      "inputs": [
        {
          "indexed": false,
          "name": "_newTellor",
          "type": "address"
        }
      ],
      "name": "NewTellorAddress",
      "type": "event"
    },
    {
      "constant": false,
      "inputs": [
        {
          "name": "_newDeity",
          "type": "address"
        }
      ],
      "name": "changeDeity",
      "outputs": [],
      "payable": false,
      "stateMutability": "nonpayable",
      "type": "function"
    },
    {
      "constant": false,
      "inputs": [
        {
          "name": "_tellorContract",
          "type": "address"
        }
      ],
      "name": "changeTellorContract",
      "outputs": [],
      "payable": false,
      "stateMutability": "nonpayable",
      "type": "function"
    }
  ],
  "bytecode": "0x60806040523480156200001157600080fd5b5060405160208062001b62833981018060405260208110156200003357600080fd5b8101908080519060200190929190505050620000546200025c60201b60201c565b336000603f01600060405180807f5f6f776e6572000000000000000000000000000000000000000000000000000081525060060190506040518091039020815260200190815260200160002060006101000a81548173ffffffffffffffffffffffffffffffffffffffff021916908373ffffffffffffffffffffffffffffffffffffffff160217905550336000603f01600060405180807f5f6465697479000000000000000000000000000000000000000000000000000081525060060190506040518091039020815260200190815260200160002060006101000a81548173ffffffffffffffffffffffffffffffffffffffff021916908373ffffffffffffffffffffffffffffffffffffffff160217905550806000603f01600060405180807f74656c6c6f72436f6e7472616374000000000000000000000000000000000000815250600e0190506040518091039020815260200190815260200160002060006101000a81548173ffffffffffffffffffffffffffffffffffffffff021916908373ffffffffffffffffffffffffffffffffffffffff1602179055507fc2d1449eb0b6547aa426e09d9942a77fa4fc8cd3296305b3163e22452e0bcb8d81604051808273ffffffffffffffffffffffffffffffffffffffff1673ffffffffffffffffffffffffffffffffffffffff16815260200191505060405180910390a15062000950565b600080604001600060405180807f646563696d616c730000000000000000000000000000000000000000000000008152506008019050604051809103902081526020019081526020016000205414620002b457600080fd5b73__TellorTransfer________________________63eb7bdc08600060450160003073ffffffffffffffffffffffffffffffffffffffff1673ffffffffffffffffffffffffffffffffffffffff1681526020019081526020016000207ffffffffffffffffffffffffffffffffffffffffffffffebabd45ed5cc83fffff6040518363ffffffff1660e01b8152600401808381526020018281526020019250505060006040518083038186803b1580156200036d57600080fd5b505af415801562000382573d6000803e3d6000fd5b50505050620003906200092e565b6040518060c0016040528073e037ec8ec9ec423826750853899394de7f024fee73ffffffffffffffffffffffffffffffffffffffff1673ffffffffffffffffffffffffffffffffffffffff16815260200173cdd8fa31af8475574b8909f135d510579a8087d373ffffffffffffffffffffffffffffffffffffffff1673ffffffffffffffffffffffffffffffffffffffff16815260200173b9dd5afd86547df817da2d0fb89334a6f8edd89173ffffffffffffffffffffffffffffffffffffffff1673ffffffffffffffffffffffffffffffffffffffff16815260200173230570cd052f40e14c14a81038c6f3aa685d712b73ffffffffffffffffffffffffffffffffffffffff1673ffffffffffffffffffffffffffffffffffffffff168152602001733233afa02644ccd048587f8ba6e99b3c00a34dcc73ffffffffffffffffffffffffffffffffffffffff1673ffffffffffffffffffffffffffffffffffffffff16815260200173e010ac6e0248790e08f42d5f697160dedf97e02473ffffffffffffffffffffffffffffffffffffffff1673ffffffffffffffffffffffffffffffffffffffff16815250905060008090505b6006811015620006295773__TellorTransfer________________________63eb7bdc08600060450160008585600681106200057d57fe5b602002015173ffffffffffffffffffffffffffffffffffffffff1673ffffffffffffffffffffffffffffffffffffffff168152602001908152602001600020683635c9adc5dea000006040518363ffffffff1660e01b8152600401808381526020018281526020019250505060006040518083038186803b1580156200060257600080fd5b505af415801562000617573d6000803e3d6000fd5b50505050808060010191505062000545565b5069014542ba12a337c000006000604001600060405180807f746f74616c5f737570706c790000000000000000000000000000000000000000815250600c019050604051809103902081526020019081526020016000206000828254019250508190555060126000604001600060405180807f646563696d616c730000000000000000000000000000000000000000000000008152506008019050604051809103902081526020019081526020016000208190555060c86000604001600060405180807f7461726765744d696e6572730000000000000000000000000000000000000000815250600c0190506040518091039020815260200190815260200160002081905550683635c9adc5dea000006000604001600060405180807f7374616b65416d6f756e74000000000000000000000000000000000000000000815250600b01905060405180910390208152602001908152602001600020819055506834957444b840e800006000604001600060405180807f6469737075746546656500000000000000000000000000000000000000000000815250600a01905060405180910390208152602001908152602001600020819055506102586000604001600060405180807f74696d6554617267657400000000000000000000000000000000000000000000815250600a01905060405180910390208152602001908152602001600020819055506000604001600060405180807f74696d6554617267657400000000000000000000000000000000000000000000815250600a019050604051809103902081526020019081526020016000205442816200088857fe5b0642036000604001600060405180807f74696d654f664c6173744e657756616c756500000000000000000000000000008152506012019050604051809103902081526020019081526020016000208190555060016000604001600060405180807f646966666963756c747900000000000000000000000000000000000000000000815250600a019050604051809103902081526020019081526020016000208190555050565b6040518060c00160405280600690602082028038833980820191505090505090565b61120280620009606000396000f3fe60806040526004361061009c5760003560e01c806370a082311161006457806370a082311461037957806377fbb663146103de57806393fa491514610437578063999cf26c14610490578063ae0a827914610503578063e1eee6d6146105545761009c565b806319e8e03b1461017d5780631db842f01461021b57806346eee1c41461026a57806347abd7f1146102b95780634ee2cd7e1461030a575b600080603f01600060405180807f74656c6c6f72436f6e7472616374000000000000000000000000000000000000815250600e0190506040518091039020815260200190815260200160002060009054906101000a900473ffffffffffffffffffffffffffffffffffffffff16905060606000368080601f016020809104026020016040519081016040528093929190818152602001838380828437600081840152601f19601f82011690508083019250505050505050905060008082516020840185600019f43d604051816000823e8260008114610179578282f35b8282fd5b34801561018957600080fd5b50610192610690565b6040518084815260200183815260200180602001828103825283818151815260200191508051906020019080838360005b838110156101de5780820151818401526020810190506101c3565b50505050905090810190601f16801561020b5780820380516001836020036101000a031916815260200191505b5094505050505060405180910390f35b34801561022757600080fd5b506102546004803603602081101561023e57600080fd5b81019080803590602001909291905050506106aa565b6040518082815260200191505060405180910390f35b34801561027657600080fd5b506102a36004803603602081101561028d57600080fd5b81019080803590602001909291905050506106c7565b6040518082815260200191505060405180910390f35b3480156102c557600080fd5b50610308600480360360208110156102dc57600080fd5b81019080803573ffffffffffffffffffffffffffffffffffffffff1690602001909291905050506106e4565b005b34801561031657600080fd5b506103636004803603604081101561032d57600080fd5b81019080803573ffffffffffffffffffffffffffffffffffffffff169060200190929190803590602001909291905050506106fb565b6040518082815260200191505060405180910390f35b34801561038557600080fd5b506103c86004803603602081101561039c57600080fd5b81019080803573ffffffffffffffffffffffffffffffffffffffff1690602001909291905050506107cd565b6040518082815260200191505060405180910390f35b3480156103ea57600080fd5b506104216004803603604081101561040157600080fd5b810190808035906020019092919080359060200190929190505050610896565b6040518082815260200191505060405180910390f35b34801561044357600080fd5b5061047a6004803603604081101561045a57600080fd5b8101908080359060200190929190803590602001909291905050506108b6565b6040518082815260200191505060405180910390f35b34801561049c57600080fd5b506104e9600480360360408110156104b357600080fd5b81019080803573ffffffffffffffffffffffffffffffffffffffff169060200190929190803590602001909291905050506108d6565b604051808215151515815260200191505060405180910390f35b34801561050f57600080fd5b506105526004803603602081101561052657600080fd5b81019080803573ffffffffffffffffffffffffffffffffffffffff1690602001909291905050506109a8565b005b34801561056057600080fd5b5061058d6004803603602081101561057757600080fd5b81019080803590602001909291905050506109bf565b604051808060200180602001878152602001868152602001858152602001848152602001838103835289818151815260200191508051906020019080838360005b838110156105e95780820151818401526020810190506105ce565b50505050905090810190601f1680156106165780820380516001836020036101000a031916815260200191505b50838103825288818151815260200191508051906020019080838360005b8381101561064f578082015181840152602081019050610634565b50505050905090810190601f16801561067c5780820380516001836020036101000a031916815260200191505b509850505050505050505060405180910390f35b600080606061069f60006109f1565b925092509250909192565b60006106c0826000610b2590919063ffffffff16565b9050919050565b60006106dd826000610b4590919063ffffffff16565b9050919050565b6106f8816000610b6b90919063ffffffff16565b50565b60008073__TellorTransfer________________________633f48b1ff909185856040518463ffffffff1660e01b8152600401808481526020018373ffffffffffffffffffffffffffffffffffffffff1673ffffffffffffffffffffffffffffffffffffffff168152602001828152602001935050505060206040518083038186803b15801561078a57600080fd5b505af415801561079e573d6000803e3d6000fd5b505050506040513d60208110156107b457600080fd5b8101908080519060200190929190505050905092915050565b60008073__TellorTransfer________________________6393b182b39091846040518363ffffffff1660e01b8152600401808381526020018273ffffffffffffffffffffffffffffffffffffffff1673ffffffffffffffffffffffffffffffffffffffff1681526020019250505060206040518083038186803b15801561085457600080fd5b505af4158015610868573d6000803e3d6000fd5b505050506040513d602081101561087e57600080fd5b81019080805190602001909291905050509050919050565b60006108ae83836000610c9a9092919063ffffffff16565b905092915050565b60006108ce83836000610cd39092919063ffffffff16565b905092915050565b60008073__TellorTransfer________________________63acaab9e2909185856040518463ffffffff1660e01b8152600401808481526020018373ffffffffffffffffffffffffffffffffffffffff1673ffffffffffffffffffffffffffffffffffffffff168152602001828152602001935050505060206040518083038186803b15801561096557600080fd5b505af4158015610979573d6000803e3d6000fd5b505050506040513d602081101561098f57600080fd5b8101908080519060200190929190505050905092915050565b6109bc816000610d0890919063ffffffff16565b50565b6060806000806000806109dc876000610e9a90919063ffffffff16565b95509550955095509550955091939550919395565b60008060606000610a01856110f9565b905080856048016000838152602001908152602001600020600401600060405180807f746f74616c54697000000000000000000000000000000000000000000000000081525060080190506040518091039020815260200190815260200160002054866048016000848152602001908152602001600020600001808054600181600116156101000203166002900480601f016020809104026020016040519081016040528092919081815260200182805460018160011615610100020316600290048015610b105780601f10610ae557610100808354040283529160200191610b10565b820191906000526020600020905b815481529060010190602001808311610af357829003601f168201915b50505050509050935093509350509193909250565b600082604901600083815260200190815260200160002054905092915050565b600082604801600083815260200190815260200160002060030180549050905092915050565b3373ffffffffffffffffffffffffffffffffffffffff1682603f01600060405180807f5f6465697479000000000000000000000000000000000000000000000000000081525060060190506040518091039020815260200190815260200160002060009054906101000a900473ffffffffffffffffffffffffffffffffffffffff1673ffffffffffffffffffffffffffffffffffffffff1614610c0d57600080fd5b8082603f01600060405180807f5f6465697479000000000000000000000000000000000000000000000000000081525060060190506040518091039020815260200190815260200160002060006101000a81548173ffffffffffffffffffffffffffffffffffffffff021916908373ffffffffffffffffffffffffffffffffffffffff1602179055505050565b60008360480160008481526020019081526020016000206003018281548110610cbf57fe5b906000526020600020015490509392505050565b600083604801600084815260200190815260200160002060060160008381526020019081526020016000205490509392505050565b3373ffffffffffffffffffffffffffffffffffffffff1682603f01600060405180807f5f6465697479000000000000000000000000000000000000000000000000000081525060060190506040518091039020815260200190815260200160002060009054906101000a900473ffffffffffffffffffffffffffffffffffffffff1673ffffffffffffffffffffffffffffffffffffffff1614610daa57600080fd5b8082603f01600060405180807f74656c6c6f72436f6e7472616374000000000000000000000000000000000000815250600e0190506040518091039020815260200190815260200160002060006101000a81548173ffffffffffffffffffffffffffffffffffffffff021916908373ffffffffffffffffffffffffffffffffffffffff1602179055507fc2d1449eb0b6547aa426e09d9942a77fa4fc8cd3296305b3163e22452e0bcb8d81604051808273ffffffffffffffffffffffffffffffffffffffff1673ffffffffffffffffffffffffffffffffffffffff16815260200191505060405180910390a15050565b606080600080600080600088604801600089815260200190815260200160002090508060000181600101826002015483600401600060405180807f6772616e756c6172697479000000000000000000000000000000000000000000815250600b019050604051809103902081526020019081526020016000205484600401600060405180807f7265717565737451506f736974696f6e000000000000000000000000000000008152506010019050604051809103902081526020019081526020016000205485600401600060405180807f746f74616c54697000000000000000000000000000000000000000000000000081525060080190506040518091039020815260200190815260200160002054858054600181600116156101000203166002900480601f01602080910402602001604051908101604052809291908181526020018280546001816001161561010002031660029004801561103f5780601f106110145761010080835404028352916020019161103f565b820191906000526020600020905b81548152906001019060200180831161102257829003601f168201915b50505050509550848054600181600116156101000203166002900480601f0160208091040260200160405190810160405280929190818152602001828054600181600116156101000203166002900480156110db5780601f106110b0576101008083540402835291602001916110db565b820191906000526020600020905b8154815290600101906020018083116110be57829003601f168201915b50505050509450965096509650965096509650509295509295509295565b60008060006111468460010160338060200260405190810160405280929190826033801561113c576020028201915b815481526020019060010190808311611128575b505050505061116d565b80925081935050508360430160008281526020019081526020016000205492505050919050565b6000808260016033811061117d57fe5b602002015191506000600190505b60338110156111d057828482603381106111a157fe5b602002015111156111c3578381603381106111b857fe5b602002015192508091505b808060010191505061118b565b5091509156fea165627a7a72305820b1e60e0d2edbf0e1c36810e42d8d2137c17b1e9358c21e7f98e51d047aa313b30029",
  "source": "pragma solidity ^0.5.0;\r\n\r\n/**** TellorMaster Test Contract***/\r\n/*WARNING: This contract is used for the delegate calls to the Test Tellor contract\r\n           wich excludes mining for testing purposes\r\n           This has bee adapted for projects testing Tellor integration\r\n\r\n**/\r\nimport \"./TellorGetters.sol\";\r\n\r\n/**\r\n* @title Tellor Master\r\n* @dev This is the Master contract with all tellor getter functions and delegate call to Tellor. \r\n* The logic for the functions on this contract is saved on the TellorGettersLibrary, TellorTransfer, \r\n* TellorGettersLibrary, and TellorStake\r\n*/\r\ncontract TellorMaster is TellorGetters{\r\n    \r\n    event NewTellorAddress(address _newTellor);\r\n\r\n    /**\r\n    * @dev The constructor sets the original `tellorStorageOwner` of the contract to the sender\r\n    * account, the tellor contract to the Tellor master address and owner to the Tellor master owner address \r\n    * @param _tellorContract is the address for the tellor contract\r\n    */\r\n    constructor (address _tellorContract)  public{\r\n        init();\r\n        tellor.addressVars[keccak256(\"_owner\")] = msg.sender;\r\n        tellor.addressVars[keccak256(\"_deity\")] = msg.sender;\r\n        tellor.addressVars[keccak256(\"tellorContract\")]= _tellorContract;\r\n        emit NewTellorAddress(_tellorContract);\r\n    }\r\n    \r\n    /**\r\n    * @dev This function stakes the five initial miners, sets the supply and all the constant variables.\r\n    * This function is called by the constructor function on TellorMaster.sol\r\n    */\r\n    function init() internal {\r\n        require(tellor.uintVars[keccak256(\"decimals\")] == 0);\r\n        //Give this contract 6000 Tellor Tributes so that it can stake the initial 6 miners\r\n        TellorTransfer.updateBalanceAtNow(tellor.balances[address(this)], 2**256-1 - 6000e18);\r\n\r\n        // //the initial 5 miner addresses are specfied below\r\n        // //changed payable[5] to 6\r\n        address payable[6] memory _initalMiners = [address(0xE037EC8EC9ec423826750853899394dE7F024fee),\r\n        address(0xcdd8FA31AF8475574B8909F135d510579a8087d3),\r\n        address(0xb9dD5AfD86547Df817DA2d0Fb89334A6F8eDd891),\r\n        address(0x230570cD052f40E14C14a81038c6f3aa685d712B),\r\n        address(0x3233afA02644CCd048587F8ba6e99b3C00A34DcC),\r\n        address(0xe010aC6e0248790e08F42d5F697160DEDf97E024)];\r\n        //Stake each of the 5 miners specified above\r\n        for(uint i=0;i<6;i++){//6th miner to allow for dispute\r\n            //Miner balance is set at 1000e18 at the block that this function is ran\r\n            TellorTransfer.updateBalanceAtNow(tellor.balances[_initalMiners[i]],1000e18);\r\n\r\n            //newStake(self, _initalMiners[i]);\r\n        }\r\n\r\n        //update the total suppply\r\n        tellor.uintVars[keccak256(\"total_supply\")] += 6000e18;//6th miner to allow for dispute\r\n        //set Constants\r\n        tellor.uintVars[keccak256(\"decimals\")] = 18;\r\n        tellor.uintVars[keccak256(\"targetMiners\")] = 200;\r\n        tellor.uintVars[keccak256(\"stakeAmount\")] = 1000e18;\r\n        tellor.uintVars[keccak256(\"disputeFee\")] = 970e18;\r\n        tellor.uintVars[keccak256(\"timeTarget\")]= 600;\r\n        tellor.uintVars[keccak256(\"timeOfLastNewValue\")] = now - now  % tellor.uintVars[keccak256(\"timeTarget\")];\r\n        tellor.uintVars[keccak256(\"difficulty\")] = 1;\r\n    }\r\n\r\n    /**\r\n    * @dev Gets the 5 miners who mined the value for the specified requestId/_timestamp \r\n    * @dev Only needs to be in library\r\n    * @param _newDeity the new Deity in the contract\r\n    */\r\n\r\n    function changeDeity(address _newDeity) external{\r\n        tellor.changeDeity(_newDeity);\r\n    }\r\n\r\n\r\n    /**\r\n    * @dev  allows for the deity to make fast upgrades.  Deity should be 0 address if decentralized\r\n    * @param _tellorContract the address of the new Tellor Contract\r\n    */\r\n    function changeTellorContract(address _tellorContract) external{\r\n        tellor.changeTellorContract(_tellorContract);\r\n    }\r\n  \r\n\r\n    /**\r\n    * @dev This is the fallback function that allows contracts to call the tellor contract at the address stored\r\n    */\r\n    function () external payable {\r\n        address addr = tellor.addressVars[keccak256(\"tellorContract\")];\r\n        bytes memory _calldata = msg.data;\r\n        assembly {\r\n            let result := delegatecall(not(0), addr, add(_calldata, 0x20), mload(_calldata), 0, 0)\r\n            let size := returndatasize\r\n            let ptr := mload(0x40)\r\n            returndatacopy(ptr, 0, size)\r\n            // revert instead of invalid() bc if the underlying call failed with invalid() it already wasted gas.\r\n            // if the call returned error data, forward it\r\n            switch result case 0 { revert(ptr, size) }\r\n            default { return(ptr, size) }\r\n        }\r\n    }\r\n}",
  "sourcePath": "C:\\users\\lloya\\documents\\dda\\1tellor\\tellor\\projects\\tellornpm\\usingtellor\\contracts\\testContracts\\TellorMaster.sol",
  "compiler": {
    "name": "solc",
    "version": "0.5.8+commit.23d335f2.Emscripten.clang"
  },
  "schemaVersion": "3.0.11",
  "updatedAt": "2019-12-17T17:29:54.123Z",
  "devdoc": {
    "details": "This is the Master contract with all tellor getter functions and delegate call to Tellor. \r The logic for the functions on this contract is saved on the TellorGettersLibrary, TellorTransfer, \r TellorGettersLibrary, and TellorStake\r",
    "methods": {
      "allowedToTrade(address,uint256)": {
        "details": "This function returns whether or not a given user is allowed to trade a given amount  \r",
        "params": {
          "_amount": "uint of amount\r",
          "_user": "address\r"
        },
        "return": "true if the user is alloed to trade the amount specified\r"
      },
      "balanceOf(address)": {
        "details": "Gets balance of owner specified\r",
        "params": {
          "_user": "is the owner address used to look up the balance\r"
        },
        "return": "Returns the balance associated with the passed in _user\r"
      },
      "balanceOfAt(address,uint256)": {
        "details": "Queries the balance of _user at a specific _blockNumber\r",
        "params": {
          "_blockNumber": "The block number when the balance is queried\r",
          "_user": "The address from which the balance will be retrieved\r"
        },
        "return": "The balance at _blockNumber\r"
      },
      "changeDeity(address)": {
        "details": "Gets the 5 miners who mined the value for the specified requestId/_timestamp \rOnly needs to be in library\r",
        "params": {
          "_newDeity": "the new Deity in the contract\r"
        }
      },
      "changeTellorContract(address)": {
        "details": "allows for the deity to make fast upgrades.  Deity should be 0 address if decentralized\r",
        "params": {
          "_tellorContract": "the address of the new Tellor Contract\r"
        }
      },
      "constructor": {
        "details": "The constructor sets the original `tellorStorageOwner` of the contract to the sender\r account, the tellor contract to the Tellor master address and owner to the Tellor master owner address \r",
        "params": {
          "_tellorContract": "is the address for the tellor contract\r"
        }
      },
      "getNewValueCountbyRequestId(uint256)": {
        "details": "Counts the number of values that have been submited for the request \r if called for the currentRequest being mined it can tell you how many miners have submitted a value for that\r request so far\r",
        "params": {
          "_requestId": "the requestId to look up\r"
        },
        "return": "uint count of the number of values received for the requestId\r"
      },
      "getRequestIdByQueryHash(bytes32)": {
        "details": "Getter function for requestId based on the queryHash\r",
        "params": {
          "_request": "is the hash(of string api and granularity) to check if a request already exists\r"
        },
        "return": "uint requestId\r"
      },
      "getRequestVars(uint256)": {
        "details": "Gets the API struct variables that are not mappings\r",
        "params": {
          "_requestId": "to look up\r"
        },
        "return": "string of api to query\rstring of symbol of api to query\rbytes32 hash of string\rbytes32 of the granularity(decimal places) requested\ruint of index in requestQ array\ruint of current payout/tip for this requestId\r"
      },
      "getTimestampbyRequestIDandIndex(uint256,uint256)": {
        "details": "Gets the timestamp for the value based on their index\r",
        "params": {
          "_index": "is the value index to look up\r",
          "_requestID": "is the requestId to look up\r"
        },
        "return": "uint timestamp\r"
      },
      "getVariablesOnDeck()": {
        "details": "Getter function for next requestId on queue/request with highest payout at time the function is called\r",
        "return": "onDeck/info on request with highest payout-- RequestId, Totaltips, and API query string\r"
      },
      "retrieveData(uint256,uint256)": {
        "details": "Retreive value from oracle based on timestamp\r",
        "params": {
          "_requestId": "being requested\r",
          "_timestamp": "to retreive data/value from\r"
        },
        "return": "value for timestamp submitted\r"
      }
    },
    "title": "Tellor Master\r"
  },
  "userdoc": {
    "methods": {}
  }
}