{
  "contractName": "TellorGetters",
  "abi": [
    {
      "constant": true,
      "inputs": [
        {
          "name": "_user",
          "type": "address"
        },
        {
          "name": "_amount",
          "type": "uint256"
        }
      ],
      "name": "allowedToTrade",
      "outputs": [
        {
          "name": "",
          "type": "bool"
        }
      ],
      "payable": false,
      "stateMutability": "view",
      "type": "function"
    },
    {
      "constant": true,
      "inputs": [
        {
          "name": "_user",
          "type": "address"
        }
      ],
      "name": "balanceOf",
      "outputs": [
        {
          "name": "",
          "type": "uint256"
        }
      ],
      "payable": false,
      "stateMutability": "view",
      "type": "function"
    },
    {
      "constant": true,
      "inputs": [
        {
          "name": "_user",
          "type": "address"
        },
        {
          "name": "_blockNumber",
          "type": "uint256"
        }
      ],
      "name": "balanceOfAt",
      "outputs": [
        {
          "name": "",
          "type": "uint256"
        }
      ],
      "payable": false,
      "stateMutability": "view",
      "type": "function"
    },
    {
      "constant": true,
      "inputs": [
        {
          "name": "_requestId",
          "type": "uint256"
        }
      ],
      "name": "getNewValueCountbyRequestId",
      "outputs": [
        {
          "name": "",
          "type": "uint256"
        }
      ],
      "payable": false,
      "stateMutability": "view",
      "type": "function"
    },
    {
      "constant": true,
      "inputs": [
        {
          "name": "_requestID",
          "type": "uint256"
        },
        {
          "name": "_index",
          "type": "uint256"
        }
      ],
      "name": "getTimestampbyRequestIDandIndex",
      "outputs": [
        {
          "name": "",
          "type": "uint256"
        }
      ],
      "payable": false,
      "stateMutability": "view",
      "type": "function"
    },
    {
      "constant": true,
      "inputs": [],
      "name": "getVariablesOnDeck",
      "outputs": [
        {
          "name": "",
          "type": "uint256"
        },
        {
          "name": "",
          "type": "uint256"
        },
        {
          "name": "",
          "type": "string"
        }
      ],
      "payable": false,
      "stateMutability": "view",
      "type": "function"
    },
    {
      "constant": true,
      "inputs": [
        {
          "name": "_requestId",
          "type": "uint256"
        },
        {
          "name": "_timestamp",
          "type": "uint256"
        }
      ],
      "name": "retrieveData",
      "outputs": [
        {
          "name": "",
          "type": "uint256"
        }
      ],
      "payable": false,
      "stateMutability": "view",
      "type": "function"
    }
  ],
  "bytecode": "0x608060405234801561001057600080fd5b506108c2806100206000396000f3fe608060405234801561001057600080fd5b506004361061007d5760003560e01c806370a082311161005b57806370a08231146101b757806377fbb6631461020f57806393fa49151461025b578063999cf26c146102a75761007d565b806319e8e03b1461008257806346eee1c4146101135780634ee2cd7e14610155575b600080fd5b61008a61030d565b6040518084815260200183815260200180602001828103825283818151815260200191508051906020019080838360005b838110156100d65780820151818401526020810190506100bb565b50505050905090810190601f1680156101035780820380516001836020036101000a031916815260200191505b5094505050505060405180910390f35b61013f6004803603602081101561012957600080fd5b8101908080359060200190929190505050610327565b6040518082815260200191505060405180910390f35b6101a16004803603604081101561016b57600080fd5b81019080803573ffffffffffffffffffffffffffffffffffffffff16906020019092919080359060200190929190505050610344565b6040518082815260200191505060405180910390f35b6101f9600480360360208110156101cd57600080fd5b81019080803573ffffffffffffffffffffffffffffffffffffffff169060200190929190505050610416565b6040518082815260200191505060405180910390f35b6102456004803603604081101561022557600080fd5b8101908080359060200190929190803590602001909291905050506104df565b6040518082815260200191505060405180910390f35b6102916004803603604081101561027157600080fd5b8101908080359060200190929190803590602001909291905050506104ff565b6040518082815260200191505060405180910390f35b6102f3600480360360408110156102bd57600080fd5b81019080803573ffffffffffffffffffffffffffffffffffffffff1690602001909291908035906020019092919050505061051f565b604051808215151515815260200191505060405180910390f35b600080606061031c60006105f1565b925092509250909192565b600061033d82600061072590919063ffffffff16565b9050919050565b60008073__TellorTransfer________________________633f48b1ff909185856040518463ffffffff1660e01b8152600401808481526020018373ffffffffffffffffffffffffffffffffffffffff1673ffffffffffffffffffffffffffffffffffffffff168152602001828152602001935050505060206040518083038186803b1580156103d357600080fd5b505af41580156103e7573d6000803e3d6000fd5b505050506040513d60208110156103fd57600080fd5b8101908080519060200190929190505050905092915050565b60008073__TellorTransfer________________________6393b182b39091846040518363ffffffff1660e01b8152600401808381526020018273ffffffffffffffffffffffffffffffffffffffff1673ffffffffffffffffffffffffffffffffffffffff1681526020019250505060206040518083038186803b15801561049d57600080fd5b505af41580156104b1573d6000803e3d6000fd5b505050506040513d60208110156104c757600080fd5b81019080805190602001909291905050509050919050565b60006104f78383600061074b9092919063ffffffff16565b905092915050565b6000610517838360006107849092919063ffffffff16565b905092915050565b60008073__TellorTransfer________________________63acaab9e2909185856040518463ffffffff1660e01b8152600401808481526020018373ffffffffffffffffffffffffffffffffffffffff1673ffffffffffffffffffffffffffffffffffffffff168152602001828152602001935050505060206040518083038186803b1580156105ae57600080fd5b505af41580156105c2573d6000803e3d6000fd5b505050506040513d60208110156105d857600080fd5b8101908080519060200190929190505050905092915050565b60008060606000610601856107b9565b905080856048016000838152602001908152602001600020600401600060405180807f746f74616c54697000000000000000000000000000000000000000000000000081525060080190506040518091039020815260200190815260200160002054866048016000848152602001908152602001600020600001808054600181600116156101000203166002900480601f0160208091040260200160405190810160405280929190818152602001828054600181600116156101000203166002900480156107105780601f106106e557610100808354040283529160200191610710565b820191906000526020600020905b8154815290600101906020018083116106f357829003601f168201915b50505050509050935093509350509193909250565b600082604801600083815260200190815260200160002060030180549050905092915050565b6000836048016000848152602001908152602001600020600301828154811061077057fe5b906000526020600020015490509392505050565b600083604801600084815260200190815260200160002060060160008381526020019081526020016000205490509392505050565b6000806000610806846001016033806020026040519081016040528092919082603380156107fc576020028201915b8154815260200190600101908083116107e8575b505050505061082d565b80925081935050508360430160008281526020019081526020016000205492505050919050565b6000808260016033811061083d57fe5b602002015191506000600190505b6033811015610890578284826033811061086157fe5b602002015111156108835783816033811061087857fe5b602002015192508091505b808060010191505061084b565b5091509156fea165627a7a72305820d82298a7affa2b46d3d6561415e2527bd3b7abe725de54dd6e2f37320723b0a60029",
  "source": "pragma solidity ^0.5.0;\r\n\r\nimport \"../libraries/SafeMath.sol\";\r\nimport \"../libraries/Utilities.sol\";\r\nimport \"../libraries/TellorStorage.sol\";\r\nimport \"../libraries/TellorTransfer.sol\";\r\nimport \"../libraries/TellorGettersLibrary.sol\";\r\n\r\n/**\r\n* @title Tellor Getters\r\n* @dev Oracle contract with all tellor getter functions. The logic for the functions on this contract \r\n* is saved on the TellorGettersLibrary, TellorTransfer, TellorGettersLibrary, and TellorStake\r\n*/\r\ncontract TellorGetters{\r\n    using SafeMath for uint256;\r\n\r\n    using TellorTransfer for TellorStorage.TellorStorageStruct;\r\n    using TellorGettersLibrary for TellorStorage.TellorStorageStruct;\r\n    //using TellorStake for TellorStorage.TellorStorageStruct;\r\n\r\n    TellorStorage.TellorStorageStruct tellor;\r\n    \r\n\r\n    // *\r\n    // * @param _user address\r\n    // * @param _spender address\r\n    // * @return Returns the remaining allowance of tokens granted to the _spender from the _user\r\n    \r\n    // function allowance(address _user, address _spender) external view returns (uint) {\r\n    //    return tellor.allowance(_user,_spender);\r\n    // }\r\n\r\n    /**\r\n    * @dev This function returns whether or not a given user is allowed to trade a given amount  \r\n    * @param _user address\r\n    * @param _amount uint of amount\r\n    * @return true if the user is alloed to trade the amount specified\r\n    */\r\n    function allowedToTrade(address _user,uint _amount) external view returns(bool){\r\n        return tellor.allowedToTrade(_user,_amount);\r\n    }\r\n\r\n    /**\r\n    * @dev Gets balance of owner specified\r\n    * @param _user is the owner address used to look up the balance\r\n    * @return Returns the balance associated with the passed in _user\r\n    */\r\n    function balanceOf(address _user) external view returns (uint) { \r\n        return tellor.balanceOf(_user);\r\n    }\r\n\r\n    /**\r\n    * @dev Queries the balance of _user at a specific _blockNumber\r\n    * @param _user The address from which the balance will be retrieved\r\n    * @param _blockNumber The block number when the balance is queried\r\n    * @return The balance at _blockNumber\r\n    */\r\n    function balanceOfAt(address _user, uint _blockNumber) external view returns (uint) {\r\n        return tellor.balanceOfAt(_user,_blockNumber);\r\n    }\r\n\r\n    // /**\r\n    // * @dev This function tells you if a given challenge has been completed by a given miner\r\n    // * @param _challenge the challenge to search for\r\n    // * @param _miner address that you want to know if they solved the challenge\r\n    // * @return true if the _miner address provided solved the \r\n    // */\r\n    // function didMine(bytes32 _challenge, address _miner) external view returns(bool){\r\n    //     return tellor.didMine(_challenge,_miner);\r\n    // }\r\n\r\n\r\n    // /**\r\n    // * @dev Checks if an address voted in a given dispute\r\n    // * @param _disputeId to look up\r\n    // * @param _address to look up\r\n    // * @return bool of whether or not party voted\r\n    // */\r\n    // function didVote(uint _disputeId, address _address) external view returns(bool){\r\n    //     return tellor.didVote(_disputeId,_address);\r\n    // }\r\n\r\n\r\n    // /**\r\n    // * @dev allows Tellor to read data from the addressVars mapping\r\n    // * @param _data is the keccak256(\"variable_name\") of the variable that is being accessed. \r\n    // * These are examples of how the variables are saved within other functions:\r\n    // * addressVars[keccak256(\"_owner\")]\r\n    // * addressVars[keccak256(\"tellorContract\")]\r\n    // */\r\n    // function getAddressVars(bytes32 _data) view external returns(address){\r\n    //     return tellor.getAddressVars(_data);\r\n    // }\r\n\r\n\r\n    // /**\r\n    // * @dev Gets all dispute variables\r\n    // * @param _disputeId to look up\r\n    // * @return bytes32 hash of dispute \r\n    // * @return bool executed where true if it has been voted on\r\n    // * @return bool disputeVotePassed\r\n    // * @return bool isPropFork true if the dispute is a proposed fork\r\n    // * @return address of reportedMiner\r\n    // * @return address of reportingParty\r\n    // * @return address of proposedForkAddress\r\n    // * @return uint of requestId\r\n    // * @return uint of timestamp\r\n    // * @return uint of value\r\n    // * @return uint of minExecutionDate\r\n    // * @return uint of numberOfVotes\r\n    // * @return uint of blocknumber\r\n    // * @return uint of minerSlot\r\n    // * @return uint of quorum\r\n    // * @return uint of fee\r\n    // * @return int count of the current tally\r\n    // */\r\n    // function getAllDisputeVars(uint _disputeId) public view returns(bytes32, bool, bool, bool, address, address, address,uint[9] memory, int){\r\n    //     return tellor.getAllDisputeVars(_disputeId);\r\n    // }\r\n    \r\n\r\n    // /**\r\n    // * @dev Getter function for variables for the requestId being currently mined(currentRequestId)\r\n    // * @return current challenge, curretnRequestId, level of difficulty, api/query string, and granularity(number of decimals requested), total tip for the request \r\n    // */\r\n    // function getCurrentVariables() external view returns(bytes32, uint, uint,string memory,uint,uint){    \r\n    //     return tellor.getCurrentVariables();\r\n    // }\r\n\r\n    // *\r\n    // * @dev Checks if a given hash of miner,requestId has been disputed\r\n    // * @param _hash is the sha256(abi.encodePacked(_miners[2],_requestId));\r\n    // * @return uint disputeId\r\n    \r\n    // function getDisputeIdByDisputeHash(bytes32 _hash) external view returns(uint){\r\n    //     return  tellor.getDisputeIdByDisputeHash(_hash);\r\n    // }\r\n    \r\n\r\n    // /**\r\n    // * @dev Checks for uint variables in the disputeUintVars mapping based on the disuputeId\r\n    // * @param _disputeId is the dispute id;\r\n    // * @param _data the variable to pull from the mapping. _data = keccak256(\"variable_name\") where variable_name is \r\n    // * the variables/strings used to save the data in the mapping. The variables names are  \r\n    // * commented out under the disputeUintVars under the Dispute struct\r\n    // * @return uint value for the bytes32 data submitted\r\n    // */\r\n    // function getDisputeUintVars(uint _disputeId,bytes32 _data) external view returns(uint){\r\n    //     return tellor.getDisputeUintVars(_disputeId,_data);\r\n    // }\r\n\r\n\r\n    // /**\r\n    // * @dev Gets the a value for the latest timestamp available\r\n    // * @return value for timestamp of last proof of work submited\r\n    // * @return true if the is a timestamp for the lastNewValue\r\n    // */\r\n    // function getLastNewValue() external view returns(uint,bool){\r\n    //     return tellor.getLastNewValue();\r\n    // }\r\n\r\n\r\n    // /**\r\n    // * @dev Gets the a value for the latest timestamp available\r\n    // * @param _requestId being requested\r\n    // * @return value for timestamp of last proof of work submited and if true if it exist or 0 and false if it doesn't\r\n    // */\r\n    // function getLastNewValueById(uint _requestId) external view returns(uint,bool){\r\n    //     return tellor.getLastNewValueById(_requestId);\r\n    // }\r\n        \r\n\r\n    // /**\r\n    // * @dev Gets blocknumber for mined timestamp \r\n    // * @param _requestId to look up\r\n    // * @param _timestamp is the timestamp to look up blocknumber\r\n    // * @return uint of the blocknumber which the dispute was mined\r\n    // */\r\n    // function getMinedBlockNum(uint _requestId, uint _timestamp) external view returns(uint){\r\n    //     return tellor.getMinedBlockNum(_requestId,_timestamp);\r\n    // }\r\n\r\n\r\n    // /**\r\n    // * @dev Gets the 5 miners who mined the value for the specified requestId/_timestamp \r\n    // * @param _requestId to look up\r\n    // * @param _timestamp is the timestamp to look up miners for\r\n    // * @return the 5 miners' addresses\r\n    // */\r\n    // function getMinersByRequestIdAndTimestamp(uint _requestId, uint _timestamp) external view returns(address[5] memory){\r\n    //     return tellor.getMinersByRequestIdAndTimestamp(_requestId,_timestamp);\r\n    // }\r\n\r\n\r\n    // /**\r\n    // * @dev Get the name of the token\r\n    // * return string of the token name\r\n    // */\r\n    // function getName() external view returns(string memory){\r\n    //     return tellor.getName();\r\n    // }\r\n\r\n\r\n    /**\r\n    * @dev Counts the number of values that have been submited for the request \r\n    * if called for the currentRequest being mined it can tell you how many miners have submitted a value for that\r\n    * request so far\r\n    * @param _requestId the requestId to look up\r\n    * @return uint count of the number of values received for the requestId\r\n    */\r\n    function getNewValueCountbyRequestId(uint _requestId) external view returns(uint){\r\n        return tellor.getNewValueCountbyRequestId(_requestId);\r\n    }\r\n\r\n\r\n    // /**\r\n    // * @dev Getter function for the specified requestQ index\r\n    // * @param _index to look up in the requestQ array\r\n    // * @return uint of reqeuestId\r\n    // */\r\n    // function getRequestIdByRequestQIndex(uint _index) external view returns(uint){\r\n    //     return tellor.getRequestIdByRequestQIndex(_index);\r\n    // }\r\n\r\n\r\n    // /**\r\n    // * @dev Getter function for requestId based on timestamp \r\n    // * @param _timestamp to check requestId\r\n    // * @return uint of reqeuestId\r\n    // */\r\n    // function getRequestIdByTimestamp(uint _timestamp) external view returns(uint){    \r\n    //     return tellor.getRequestIdByTimestamp(_timestamp);\r\n    // }\r\n\r\n    // /**\r\n    // * @dev Getter function for requestId based on the queryHash\r\n    // * @param _request is the hash(of string api and granularity) to check if a request already exists\r\n    // * @return uint requestId\r\n    // */\r\n    // function getRequestIdByQueryHash(bytes32 _request) external view returns(uint){    \r\n    //     return tellor.getRequestIdByQueryHash(_request);\r\n    // }\r\n\r\n\r\n    // /**\r\n    // * @dev Getter function for the requestQ array\r\n    // * @return the requestQ arrray\r\n    // */\r\n    // function getRequestQ() view public returns(uint[51] memory){\r\n    //     return tellor.getRequestQ();\r\n    // }\r\n\r\n\r\n    // /**\r\n    // * @dev Allowes access to the uint variables saved in the apiUintVars under the requestDetails struct\r\n    // * for the requestId specified\r\n    // * @param _requestId to look up\r\n    // * @param _data the variable to pull from the mapping. _data = keccak256(\"variable_name\") where variable_name is \r\n    // * the variables/strings used to save the data in the mapping. The variables names are  \r\n    // * commented out under the apiUintVars under the requestDetails struct\r\n    // * @return uint value of the apiUintVars specified in _data for the requestId specified\r\n    // */\r\n    // function getRequestUintVars(uint _requestId,bytes32 _data) external view returns(uint){\r\n    //     return tellor.getRequestUintVars(_requestId,_data);\r\n    // }\r\n\r\n\r\n    // /**\r\n    // * @dev Gets the API struct variables that are not mappings\r\n    // * @param _requestId to look up\r\n    // * @return string of api to query\r\n    // * @return string of symbol of api to query\r\n    // * @return bytes32 hash of string\r\n    // * @return bytes32 of the granularity(decimal places) requested\r\n    // * @return uint of index in requestQ array\r\n    // * @return uint of current payout/tip for this requestId\r\n    // */\r\n    // function getRequestVars(uint _requestId) external view returns(string memory, string memory,bytes32,uint, uint, uint) {\r\n    //     return tellor.getRequestVars(_requestId);\r\n    // }\r\n\r\n\r\n    // /**\r\n    // * @dev This function allows users to retireve all information about a staker\r\n    // * @param _staker address of staker inquiring about\r\n    // * @return uint current state of staker\r\n    // * @return uint startDate of staking\r\n    // */\r\n    // function getStakerInfo(address _staker) external view returns(uint,uint){\r\n    //     return tellor.getStakerInfo(_staker);\r\n    // }\r\n    \r\n    // /**\r\n    // * @dev Gets the 5 miners who mined the value for the specified requestId/_timestamp \r\n    // * @param _requestId to look up\r\n    // * @param _timestamp is the timestampt to look up miners for\r\n    // * @return address[5] array of 5 addresses ofminers that mined the requestId\r\n    // */    \r\n    // function getSubmissionsByTimestamp(uint _requestId, uint _timestamp) external view returns(uint[5] memory){\r\n    //     return tellor.getSubmissionsByTimestamp(_requestId,_timestamp);\r\n    // }\r\n\r\n    // /**\r\n    // * @dev Get the symbol of the token\r\n    // * return string of the token symbol\r\n    // */\r\n    // function getSymbol() external view returns(string memory){\r\n    //     return tellor.getSymbol();\r\n    // } \r\n\r\n    /**\r\n    * @dev Gets the timestamp for the value based on their index\r\n    * @param _requestID is the requestId to look up\r\n    * @param _index is the value index to look up\r\n    * @return uint timestamp\r\n    */\r\n    function getTimestampbyRequestIDandIndex(uint _requestID, uint _index) external view returns(uint){\r\n        return tellor.getTimestampbyRequestIDandIndex(_requestID,_index);\r\n    }\r\n\r\n\r\n    // /**\r\n    // * @dev Getter for the variables saved under the TellorStorageStruct uintVars variable\r\n    // * @param _data the variable to pull from the mapping. _data = keccak256(\"variable_name\") where variable_name is \r\n    // * the variables/strings used to save the data in the mapping. The variables names are  \r\n    // * commented out under the uintVars under the TellorStorageStruct struct\r\n    // * This is an example of how data is saved into the mapping within other functions: \r\n    // * self.uintVars[keccak256(\"stakerCount\")]\r\n    // * @return uint of specified variable  \r\n    // */ \r\n    // function getUintVar(bytes32 _data) view public returns(uint){\r\n    //     return tellor.getUintVar(_data);\r\n    // }\r\n\r\n\r\n    /**\r\n    * @dev Getter function for next requestId on queue/request with highest payout at time the function is called\r\n    * @return onDeck/info on request with highest payout-- RequestId, Totaltips, and API query string\r\n    */\r\n    function getVariablesOnDeck() external view returns(uint, uint,string memory){    \r\n        return tellor.getVariablesOnDeck();\r\n    }\r\n\r\n    \r\n    // /**\r\n    // * @dev Gets the 5 miners who mined the value for the specified requestId/_timestamp \r\n    // * @param _requestId to look up\r\n    // * @param _timestamp is the timestamp to look up miners for\r\n    // * @return bool true if requestId/timestamp is under dispute\r\n    // */\r\n    // function isInDispute(uint _requestId, uint _timestamp) external view returns(bool){\r\n    //     return tellor.isInDispute(_requestId,_timestamp);\r\n    // }\r\n    \r\n\r\n    /**\r\n    * @dev Retreive value from oracle based on timestamp\r\n    * @param _requestId being requested\r\n    * @param _timestamp to retreive data/value from\r\n    * @return value for timestamp submitted\r\n    */\r\n    function retrieveData(uint _requestId, uint _timestamp) external view returns (uint) {\r\n        return tellor.retrieveData(_requestId,_timestamp);\r\n    }\r\n\r\n\r\n    // *\r\n    // * @dev Getter for the total_supply of oracle tokens\r\n    // * @return uint total supply\r\n    \r\n    // function totalSupply() external view returns (uint) {\r\n    //    return tellor.totalSupply();\r\n    // }\r\n\r\n\r\n}\r\n",
  "sourcePath": "C:\\company\\code\\usingtellor\\contracts\\testContracts\\TellorGetters.sol",
  "compiler": {
    "name": "solc",
    "version": "0.5.8+commit.23d335f2.Emscripten.clang"
  },
  "schemaVersion": "3.0.16",
  "updatedAt": "2019-11-29T17:58:06.865Z",
  "devdoc": {
    "details": "Oracle contract with all tellor getter functions. The logic for the functions on this contract \r is saved on the TellorGettersLibrary, TellorTransfer, TellorGettersLibrary, and TellorStake\r",
    "methods": {
      "allowedToTrade(address,uint256)": {
        "details": "This function returns whether or not a given user is allowed to trade a given amount  \r",
        "params": {
          "_amount": "uint of amount\r",
          "_user": "address\r"
        },
        "return": "true if the user is alloed to trade the amount specified\r"
      },
      "balanceOf(address)": {
        "details": "Gets balance of owner specified\r",
        "params": {
          "_user": "is the owner address used to look up the balance\r"
        },
        "return": "Returns the balance associated with the passed in _user\r"
      },
      "balanceOfAt(address,uint256)": {
        "details": "Queries the balance of _user at a specific _blockNumber\r",
        "params": {
          "_blockNumber": "The block number when the balance is queried\r",
          "_user": "The address from which the balance will be retrieved\r"
        },
        "return": "The balance at _blockNumber\r"
      },
      "getNewValueCountbyRequestId(uint256)": {
        "details": "Counts the number of values that have been submited for the request \r if called for the currentRequest being mined it can tell you how many miners have submitted a value for that\r request so far\r",
        "params": {
          "_requestId": "the requestId to look up\r"
        },
        "return": "uint count of the number of values received for the requestId\r"
      },
      "getTimestampbyRequestIDandIndex(uint256,uint256)": {
        "details": "Gets the timestamp for the value based on their index\r",
        "params": {
          "_index": "is the value index to look up\r",
          "_requestID": "is the requestId to look up\r"
        },
        "return": "uint timestamp\r"
      },
      "getVariablesOnDeck()": {
        "details": "Getter function for next requestId on queue/request with highest payout at time the function is called\r",
        "return": "onDeck/info on request with highest payout-- RequestId, Totaltips, and API query string\r"
      },
      "retrieveData(uint256,uint256)": {
        "details": "Retreive value from oracle based on timestamp\r",
        "params": {
          "_requestId": "being requested\r",
          "_timestamp": "to retreive data/value from\r"
        },
        "return": "value for timestamp submitted\r"
      }
    },
    "title": "Tellor Getters\r"
  },
  "userdoc": {
    "methods": {}
  }
}