{
  "contractName": "TestContract",
  "abi": [
    {
      "constant": false,
      "inputs": [
        {
          "name": "_timestamp",
          "type": "uint256"
        }
      ],
      "name": "getTellorValues",
      "outputs": [
        {
          "name": "_value",
          "type": "uint256"
        },
        {
          "name": "_didGet",
          "type": "bool"
        }
      ],
      "payable": false,
      "stateMutability": "nonpayable",
      "type": "function"
    },
    {
      "constant": true,
      "inputs": [],
      "name": "getCurrentValue",
      "outputs": [
        {
          "name": "",
          "type": "uint256"
        }
      ],
      "payable": false,
      "stateMutability": "view",
      "type": "function"
    },
    {
      "constant": true,
      "inputs": [],
      "name": "endValue",
      "outputs": [
        {
          "name": "",
          "type": "uint256"
        }
      ],
      "payable": false,
      "stateMutability": "view",
      "type": "function"
    },
    {
      "constant": false,
      "inputs": [
        {
          "name": "_requestId",
          "type": "uint256"
        }
      ],
      "name": "addTipWithEther",
      "outputs": [],
      "payable": true,
      "stateMutability": "payable",
      "type": "function"
    },
    {
      "constant": false,
      "inputs": [
        {
          "name": "_timestamp",
          "type": "uint256"
        }
      ],
      "name": "disputeOptimisticValue",
      "outputs": [],
      "payable": true,
      "stateMutability": "payable",
      "type": "function"
    },
    {
      "constant": true,
      "inputs": [
        {
          "name": "_timestamp",
          "type": "uint256"
        }
      ],
      "name": "getNumberOfValuesPerTimestamp",
      "outputs": [
        {
          "name": "",
          "type": "uint256"
        }
      ],
      "payable": false,
      "stateMutability": "view",
      "type": "function"
    },
    {
      "constant": true,
      "inputs": [
        {
          "name": "",
          "type": "uint256"
        }
      ],
      "name": "isValue",
      "outputs": [
        {
          "name": "",
          "type": "bool"
        }
      ],
      "payable": false,
      "stateMutability": "view",
      "type": "function"
    },
    {
      "constant": true,
      "inputs": [
        {
          "name": "",
          "type": "uint256"
        }
      ],
      "name": "disputedValues",
      "outputs": [
        {
          "name": "",
          "type": "bool"
        }
      ],
      "payable": false,
      "stateMutability": "view",
      "type": "function"
    },
    {
      "constant": true,
      "inputs": [],
      "name": "endDateTime",
      "outputs": [
        {
          "name": "",
          "type": "uint256"
        }
      ],
      "payable": false,
      "stateMutability": "view",
      "type": "function"
    },
    {
      "constant": true,
      "inputs": [],
      "name": "startValue",
      "outputs": [
        {
          "name": "",
          "type": "uint256"
        }
      ],
      "payable": false,
      "stateMutability": "view",
      "type": "function"
    },
    {
      "constant": true,
      "inputs": [
        {
          "name": "_requestId",
          "type": "uint256"
        }
      ],
      "name": "getCurrentValue",
      "outputs": [
        {
          "name": "ifRetrieve",
          "type": "bool"
        },
        {
          "name": "value",
          "type": "uint256"
        },
        {
          "name": "_timestampRetrieved",
          "type": "uint256"
        }
      ],
      "payable": false,
      "stateMutability": "view",
      "type": "function"
    },
    {
      "constant": false,
      "inputs": [
        {
          "name": "_request",
          "type": "string"
        },
        {
          "name": "_symbol",
          "type": "string"
        },
        {
          "name": "_granularity",
          "type": "uint256"
        },
        {
          "name": "_tip",
          "type": "uint256"
        }
      ],
      "name": "requestData",
      "outputs": [],
      "payable": false,
      "stateMutability": "nonpayable",
      "type": "function"
    },
    {
      "constant": true,
      "inputs": [
        {
          "name": "",
          "type": "uint256"
        },
        {
          "name": "",
          "type": "uint256"
        }
      ],
      "name": "requestIdsIncluded",
      "outputs": [
        {
          "name": "",
          "type": "uint256"
        }
      ],
      "payable": false,
      "stateMutability": "view",
      "type": "function"
    },
    {
      "constant": true,
      "inputs": [],
      "name": "granularity",
      "outputs": [
        {
          "name": "",
          "type": "uint256"
        }
      ],
      "payable": false,
      "stateMutability": "view",
      "type": "function"
    },
    {
      "constant": true,
      "inputs": [],
      "name": "getTimestamps",
      "outputs": [
        {
          "name": "",
          "type": "uint256[]"
        }
      ],
      "payable": false,
      "stateMutability": "view",
      "type": "function"
    },
    {
      "constant": true,
      "inputs": [],
      "name": "disputePeriod",
      "outputs": [
        {
          "name": "",
          "type": "uint256"
        }
      ],
      "payable": false,
      "stateMutability": "view",
      "type": "function"
    },
    {
      "constant": true,
      "inputs": [
        {
          "name": "_requestId",
          "type": "uint256"
        },
        {
          "name": "_timestamp",
          "type": "uint256"
        }
      ],
      "name": "getFirstVerifiedDataAfter",
      "outputs": [
        {
          "name": "",
          "type": "bool"
        },
        {
          "name": "",
          "type": "uint256"
        },
        {
          "name": "_timestampRetrieved",
          "type": "uint256"
        }
      ],
      "payable": false,
      "stateMutability": "view",
      "type": "function"
    },
    {
      "constant": true,
      "inputs": [],
      "name": "getNumberOfDisputedValues",
      "outputs": [
        {
          "name": "",
          "type": "uint256"
        }
      ],
      "payable": false,
      "stateMutability": "view",
      "type": "function"
    },
    {
      "constant": true,
      "inputs": [
        {
          "name": "_timestamp",
          "type": "uint256"
        }
      ],
      "name": "getFirstUndisputedValueAfter",
      "outputs": [
        {
          "name": "",
          "type": "bool"
        },
        {
          "name": "",
          "type": "uint256"
        },
        {
          "name": "_timestampRetrieved",
          "type": "uint256"
        }
      ],
      "payable": false,
      "stateMutability": "view",
      "type": "function"
    },
    {
      "constant": true,
      "inputs": [
        {
          "name": "_index",
          "type": "uint256"
        }
      ],
      "name": "getDisputedValueByIndex",
      "outputs": [
        {
          "name": "",
          "type": "uint256"
        }
      ],
      "payable": false,
      "stateMutability": "view",
      "type": "function"
    },
    {
      "constant": false,
      "inputs": [
        {
          "name": "_requestId",
          "type": "uint256"
        },
        {
          "name": "_tip",
          "type": "uint256"
        }
      ],
      "name": "addTip",
      "outputs": [],
      "payable": false,
      "stateMutability": "nonpayable",
      "type": "function"
    },
    {
      "constant": true,
      "inputs": [],
      "name": "startDateTime",
      "outputs": [
        {
          "name": "",
          "type": "uint256"
        }
      ],
      "payable": false,
      "stateMutability": "view",
      "type": "function"
    },
    {
      "constant": false,
      "inputs": [
        {
          "name": "_timestamp",
          "type": "uint256"
        },
        {
          "name": "_value",
          "type": "uint256"
        }
      ],
      "name": "setValue",
      "outputs": [],
      "payable": false,
      "stateMutability": "nonpayable",
      "type": "function"
    },
    {
      "constant": true,
      "inputs": [
        {
          "name": "_timestamp",
          "type": "uint256"
        }
      ],
      "name": "isDisputed",
      "outputs": [
        {
          "name": "",
          "type": "bool"
        }
      ],
      "payable": false,
      "stateMutability": "view",
      "type": "function"
    },
    {
      "constant": true,
      "inputs": [],
      "name": "owner",
      "outputs": [
        {
          "name": "",
          "type": "address"
        }
      ],
      "payable": false,
      "stateMutability": "view",
      "type": "function"
    },
    {
      "constant": true,
      "inputs": [],
      "name": "contractEnded",
      "outputs": [
        {
          "name": "",
          "type": "bool"
        }
      ],
      "payable": false,
      "stateMutability": "view",
      "type": "function"
    },
    {
      "constant": true,
      "inputs": [
        {
          "name": "_timestamp",
          "type": "uint256"
        }
      ],
      "name": "getIsValue",
      "outputs": [
        {
          "name": "",
          "type": "bool"
        }
      ],
      "payable": false,
      "stateMutability": "view",
      "type": "function"
    },
    {
      "constant": false,
      "inputs": [
        {
          "name": "_userContract",
          "type": "address"
        }
      ],
      "name": "setUserContract",
      "outputs": [],
      "payable": false,
      "stateMutability": "nonpayable",
      "type": "function"
    },
    {
      "constant": true,
      "inputs": [],
      "name": "getRequestIds",
      "outputs": [
        {
          "name": "",
          "type": "uint256[]"
        }
      ],
      "payable": false,
      "stateMutability": "view",
      "type": "function"
    },
    {
      "constant": true,
      "inputs": [],
      "name": "getDisputedValues",
      "outputs": [
        {
          "name": "",
          "type": "uint256[]"
        }
      ],
      "payable": false,
      "stateMutability": "view",
      "type": "function"
    },
    {
      "constant": true,
      "inputs": [],
      "name": "disputeFee",
      "outputs": [
        {
          "name": "",
          "type": "uint256"
        }
      ],
      "payable": false,
      "stateMutability": "view",
      "type": "function"
    },
    {
      "constant": true,
      "inputs": [],
      "name": "longWins",
      "outputs": [
        {
          "name": "",
          "type": "bool"
        }
      ],
      "payable": false,
      "stateMutability": "view",
      "type": "function"
    },
    {
      "constant": false,
      "inputs": [
        {
          "name": "_request",
          "type": "string"
        },
        {
          "name": "_symbol",
          "type": "string"
        },
        {
          "name": "_granularity",
          "type": "uint256"
        }
      ],
      "name": "requestDataWithEther",
      "outputs": [],
      "payable": true,
      "stateMutability": "payable",
      "type": "function"
    },
    {
      "constant": true,
      "inputs": [
        {
          "name": "_bytesId",
          "type": "bytes32"
        }
      ],
      "name": "resultFor",
      "outputs": [
        {
          "name": "timestamp",
          "type": "uint256"
        },
        {
          "name": "outcome",
          "type": "int256"
        },
        {
          "name": "status",
          "type": "int256"
        }
      ],
      "payable": false,
      "stateMutability": "view",
      "type": "function"
    },
    {
      "constant": true,
      "inputs": [
        {
          "name": "_requestId",
          "type": "uint256"
        },
        {
          "name": "_timestamp",
          "type": "uint256"
        }
      ],
      "name": "getAnyDataAfter",
      "outputs": [
        {
          "name": "_ifRetrieve",
          "type": "bool"
        },
        {
          "name": "_value",
          "type": "uint256"
        },
        {
          "name": "_timestampRetrieved",
          "type": "uint256"
        }
      ],
      "payable": false,
      "stateMutability": "view",
      "type": "function"
    },
    {
      "constant": true,
      "inputs": [
        {
          "name": "_timestamp",
          "type": "uint256"
        }
      ],
      "name": "getRequestIdsIncluded",
      "outputs": [
        {
          "name": "",
          "type": "uint256[]"
        }
      ],
      "payable": false,
      "stateMutability": "view",
      "type": "function"
    },
    {
      "constant": false,
      "inputs": [],
      "name": "withdrawETH",
      "outputs": [],
      "payable": false,
      "stateMutability": "nonpayable",
      "type": "function"
    },
    {
      "constant": true,
      "inputs": [
        {
          "name": "_timestamp",
          "type": "uint256"
        }
      ],
      "name": "getMyValuesByTimestamp",
      "outputs": [
        {
          "name": "value",
          "type": "uint256"
        }
      ],
      "payable": false,
      "stateMutability": "view",
      "type": "function"
    },
    {
      "constant": false,
      "inputs": [
        {
          "name": "_newOwner",
          "type": "address"
        }
      ],
      "name": "transferOwnership",
      "outputs": [],
      "payable": false,
      "stateMutability": "nonpayable",
      "type": "function"
    },
    {
      "inputs": [
        {
          "name": "_userContract",
          "type": "address"
        },
        {
          "name": "_disputeFeeRequired",
          "type": "uint256"
        },
        {
          "name": "_disputePeriod",
          "type": "uint256"
        },
        {
          "name": "_requestIds",
          "type": "uint256[]"
        },
        {
          "name": "_granularity",
          "type": "uint256"
        }
      ],
      "payable": false,
      "stateMutability": "nonpayable",
      "type": "constructor"
    },
    {
      "anonymous": false,
      "inputs": [
        {
          "indexed": false,
          "name": "_svalue",
          "type": "uint256"
        },
        {
          "indexed": false,
          "name": "_evalue",
          "type": "uint256"
        }
      ],
      "name": "ContractSettled",
      "type": "event"
    },
    {
      "anonymous": false,
      "inputs": [
        {
          "indexed": true,
          "name": "_timestamp",
          "type": "uint256"
        },
        {
          "indexed": false,
          "name": "_value",
          "type": "uint256"
        }
      ],
      "name": "NewValueSet",
      "type": "event"
    },
    {
      "anonymous": false,
      "inputs": [
        {
          "indexed": false,
          "name": "_disputer",
          "type": "address"
        },
        {
          "indexed": false,
          "name": "_timestamp",
          "type": "uint256"
        },
        {
          "indexed": false,
          "name": "_value",
          "type": "uint256"
        }
      ],
      "name": "ValueDisputed",
      "type": "event"
    },
    {
      "anonymous": false,
      "inputs": [
        {
          "indexed": false,
          "name": "_timestamp",
          "type": "uint256"
        },
        {
          "indexed": false,
          "name": "_value",
          "type": "uint256"
        }
      ],
      "name": "TellorValuePlaced",
      "type": "event"
    },
    {
      "anonymous": false,
      "inputs": [
        {
          "indexed": false,
          "name": "_previousOwner",
          "type": "address"
        },
        {
          "indexed": false,
          "name": "_newOwner",
          "type": "address"
        }
      ],
      "name": "OwnershipTransferred",
      "type": "event"
    },
    {
      "constant": false,
      "inputs": [
        {
          "name": "_duration",
          "type": "uint256"
        }
      ],
      "name": "setContractDetails",
      "outputs": [],
      "payable": false,
      "stateMutability": "nonpayable",
      "type": "function"
    },
    {
      "constant": false,
      "inputs": [],
      "name": "settleContracts",
      "outputs": [],
      "payable": false,
      "stateMutability": "nonpayable",
      "type": "function"
    }
  ],
  "bytecode": "0x60806040523480156200001157600080fd5b5060405162002f8838038062002f88833981018060405260a08110156200003757600080fd5b8101908080519060200190929190805190602001909291908051906020019092919080516401000000008111156200006e57600080fd5b828101905060208101848111156200008557600080fd5b8151856020820283011164010000000082111715620000a357600080fd5b505092919060200180519060200190929190505050848484848484806000806101000a81548173ffffffffffffffffffffffffffffffffffffffff021916908373ffffffffffffffffffffffffffffffffffffffff16021790555033600160006101000a81548173ffffffffffffffffffffffffffffffffffffffff021916908373ffffffffffffffffffffffffffffffffffffffff1602179055505083600a8190555082600b819055508060098190555081600790805190602001906200016d9291906200017e565b5050505050505050505050620001f8565b828054828255906000526020600020908101928215620001bd579160200282015b82811115620001bc5782518255916020019190600101906200019f565b5b509050620001cc9190620001d0565b5090565b620001f591905b80821115620001f1576000816000905550600101620001d7565b5090565b90565b612d8080620002086000396000f3fe6080604052600436106102465760003560e01c806371d8dd1911610139578063ac33a273116100b6578063d09cc57e1161007a578063d09cc57e14610ce1578063d269a83c14610d3e578063dc7ebf0e14610da9578063e086e5ec14610e39578063e631def714610e50578063f2fde38b14610e9f57610246565b8063ac33a27314610ad7578063b63f210a14610b43578063b9ce896b14610baf578063bad4d21e14610bda578063bb19e29614610c0957610246565b806387105801116100fd57806387105801146109965780638da5cb5b146109ad57806391bf116f14610a045780639a64f07014610a33578063a1206d4e14610a8657610246565b806371d8dd191461083f578063752d49a11461088e578063775f75df146108d35780637b8d56e3146108fe5780637ccc586e1461094357610246565b80633f35ff32116101c757806359abbfe41161018b57806359abbfe4146106b15780635bf31d4d1461071d5780635f059f3e14610748578063681012e5146107b357806369949a86146107de57610246565b80633f35ff32146104b25780633fcad964146104dd5780633fff28161461053e578063550921d41461062d578063556f0dc71461068657610246565b80632aa0bc1f1161020e5780632aa0bc1f1461035757806331562d69146103a657806336e9d632146103e157806337ae9e43146104345780633c9177cd1461048757610246565b8063062777ff1461024b5780630f76c114146102a557806316e72abb146102d05780632639e0b0146102fb578063292b8cce14610329575b600080fd5b34801561025757600080fd5b506102846004803603602081101561026e57600080fd5b8101908080359060200190929190505050610ef0565b60405180838152602001821515151581526020019250505060405180910390f35b3480156102b157600080fd5b506102ba6114a7565b6040518082815260200191505060405180910390f35b3480156102dc57600080fd5b506102e5611550565b6040518082815260200191505060405180910390f35b6103276004803603602081101561031157600080fd5b8101908080359060200190929190505050611556565b005b6103556004803603602081101561033f57600080fd5b81019080803590602001909291905050506115e6565b005b34801561036357600080fd5b506103906004803603602081101561037a57600080fd5b810190808035906020019092919050505061183c565b6040518082815260200191505060405180910390f35b3480156103b257600080fd5b506103df600480360360208110156103c957600080fd5b810190808035906020019092919050505061185c565b005b3480156103ed57600080fd5b5061041a6004803603602081101561040457600080fd5b8101908080359060200190929190505050611889565b604051808215151515815260200191505060405180910390f35b34801561044057600080fd5b5061046d6004803603602081101561045757600080fd5b81019080803590602001909291905050506118a9565b604051808215151515815260200191505060405180910390f35b34801561049357600080fd5b5061049c6118c9565b6040518082815260200191505060405180910390f35b3480156104be57600080fd5b506104c76118cf565b6040518082815260200191505060405180910390f35b3480156104e957600080fd5b506105166004803603602081101561050057600080fd5b81019080803590602001909291905050506118d5565b6040518084151515158152602001838152602001828152602001935050505060405180910390f35b34801561054a57600080fd5b5061062b6004803603608081101561056157600080fd5b810190808035906020019064010000000081111561057e57600080fd5b82018360208201111561059057600080fd5b803590602001918460018302840111640100000000831117156105b257600080fd5b9091929391929390803590602001906401000000008111156105d357600080fd5b8201836020820111156105e557600080fd5b8035906020019184600183028401116401000000008311171561060757600080fd5b909192939192939080359060200190929190803590602001909291905050506119a8565b005b34801561063957600080fd5b506106706004803603604081101561065057600080fd5b810190808035906020019092919080359060200190929190505050611ca4565b6040518082815260200191505060405180910390f35b34801561069257600080fd5b5061069b611cd2565b6040518082815260200191505060405180910390f35b3480156106bd57600080fd5b506106c6611cd8565b6040518080602001828103825283818151815260200191508051906020019060200280838360005b838110156107095780820151818401526020810190506106ee565b505050509050019250505060405180910390f35b34801561072957600080fd5b50610732611d30565b6040518082815260200191505060405180910390f35b34801561075457600080fd5b5061078b6004803603604081101561076b57600080fd5b810190808035906020019092919080359060200190929190505050611d36565b6040518084151515158152602001838152602001828152602001935050505060405180910390f35b3480156107bf57600080fd5b506107c8611e11565b6040518082815260200191505060405180910390f35b3480156107ea57600080fd5b506108176004803603602081101561080157600080fd5b8101908080359060200190929190505050611e1e565b6040518084151515158152602001838152602001828152602001935050505060405180910390f35b34801561084b57600080fd5b506108786004803603602081101561086257600080fd5b8101908080359060200190929190505050611f1a565b6040518082815260200191505060405180910390f35b34801561089a57600080fd5b506108d1600480360360408110156108b157600080fd5b810190808035906020019092919080359060200190929190505050611f3b565b005b3480156108df57600080fd5b506108e86121c1565b6040518082815260200191505060405180910390f35b34801561090a57600080fd5b506109416004803603604081101561092157600080fd5b8101908080359060200190929190803590602001909291905050506121c7565b005b34801561094f57600080fd5b5061097c6004803603602081101561096657600080fd5b81019080803590602001909291905050506123b8565b604051808215151515815260200191505060405180910390f35b3480156109a257600080fd5b506109ab6123e2565b005b3480156109b957600080fd5b506109c26124b7565b604051808273ffffffffffffffffffffffffffffffffffffffff1673ffffffffffffffffffffffffffffffffffffffff16815260200191505060405180910390f35b348015610a1057600080fd5b50610a196124dd565b604051808215151515815260200191505060405180910390f35b348015610a3f57600080fd5b50610a6c60048036036020811015610a5657600080fd5b81019080803590602001909291905050506124f0565b604051808215151515815260200191505060405180910390f35b348015610a9257600080fd5b50610ad560048036036020811015610aa957600080fd5b81019080803573ffffffffffffffffffffffffffffffffffffffff16906020019092919050505061251a565b005b348015610ae357600080fd5b50610aec612620565b6040518080602001828103825283818151815260200191508051906020019060200280838360005b83811015610b2f578082015181840152602081019050610b14565b505050509050019250505060405180910390f35b348015610b4f57600080fd5b50610b58612678565b6040518080602001828103825283818151815260200191508051906020019060200280838360005b83811015610b9b578082015181840152602081019050610b80565b505050509050019250505060405180910390f35b348015610bbb57600080fd5b50610bc46126d0565b6040518082815260200191505060405180910390f35b348015610be657600080fd5b50610bef6126d6565b604051808215151515815260200191505060405180910390f35b610cdf60048036036060811015610c1f57600080fd5b8101908080359060200190640100000000811115610c3c57600080fd5b820183602082011115610c4e57600080fd5b80359060200191846001830284011164010000000083111715610c7057600080fd5b909192939192939080359060200190640100000000811115610c9157600080fd5b820183602082011115610ca357600080fd5b80359060200191846001830284011164010000000083111715610cc557600080fd5b9091929391929390803590602001909291905050506126e9565b005b348015610ced57600080fd5b50610d1a60048036036020811015610d0457600080fd5b81019080803590602001909291905050506127e5565b60405180848152602001838152602001828152602001935050505060405180910390f35b348015610d4a57600080fd5b50610d8160048036036040811015610d6157600080fd5b8101908080359060200190929190803590602001909291905050506128b8565b6040518084151515158152602001838152602001828152602001935050505060405180910390f35b348015610db557600080fd5b50610de260048036036020811015610dcc57600080fd5b8101908080359060200190929190505050612993565b6040518080602001828103825283818151815260200191508051906020019060200280838360005b83811015610e25578082015181840152602081019050610e0a565b505050509050019250505060405180910390f35b348015610e4557600080fd5b50610e4e6129fe565b005b348015610e5c57600080fd5b50610e8960048036036020811015610e7357600080fd5b8101908080359060200190929190505050612b43565b6040518082815260200191505060405180910390f35b348015610eab57600080fd5b50610eee60048036036020811015610ec257600080fd5b81019080803573ffffffffffffffffffffffffffffffffffffffff169060200190929190505050612b60565b005b60008060008060009054906101000a900473ffffffffffffffffffffffffffffffffffffffff1673ffffffffffffffffffffffffffffffffffffffff1663a80209736040518163ffffffff1660e01b815260040160206040518083038186803b158015610f5c57600080fd5b505afa158015610f70573d6000803e3d6000fd5b505050506040513d6020811015610f8657600080fd5b8101908080519060200190929190505050905060008060009054906101000a900473ffffffffffffffffffffffffffffffffffffffff1673ffffffffffffffffffffffffffffffffffffffff1663a80209736040518163ffffffff1660e01b815260040160206040518083038186803b15801561100257600080fd5b505afa158015611016573d6000803e3d6000fd5b505050506040513d602081101561102c57600080fd5b810190808051906020019092919050505090506000808373ffffffffffffffffffffffffffffffffffffffff166370a08231306040518263ffffffff1660e01b8152600401808273ffffffffffffffffffffffffffffffffffffffff1673ffffffffffffffffffffffffffffffffffffffff16815260200191505060206040518083038186803b1580156110bf57600080fd5b505afa1580156110d3573d6000803e3d6000fd5b505050506040513d60208110156110e957600080fd5b810190808051906020019092919050505090506000600190505b600780549050811161149d576111198189611d36565b8095508199508298505050508515611349576000600954848161113857fe5b06840390506000600160056000848152602001908152602001600020805490500160056000848152602001908152602001600020805490506003600085815260200190815260200160002054028a018161118e57fe5b0490508060036000848152602001908152602001600020819055507f11d6fa234e47ea0871bd2e6efeb4e7be326a7216c36990b799a61a501cfcf1c38282604051808381526020018281526020019250505060405180910390a160056000838152602001908152602001600020839080600181540180825580915050906001820390600052602060002001600090919290919091505550600015156002600084815260200190815260200160002060009054906101000a900460ff16151514156112e757600682908060018154018082558091505090600182039060005260206000200160009091929091909150555060016002600084815260200190815260200160002060006101000a81548160ff021916908315150217905550817f2afa03c814297ffc234ff967b6f0863d3c358be243103f20217c8d3a4d39f9c08a6040518082815260200191505060405180910390a2611342565b600115156004600084815260200190815260200160002060009054906101000a900460ff16151514156113415760006004600084815260200190815260200160002060006101000a81548160ff0219169083151502179055505b5b5050611490565b6007805490508573ffffffffffffffffffffffffffffffffffffffff166370a08231306040518263ffffffff1660e01b8152600401808273ffffffffffffffffffffffffffffffffffffffff1673ffffffffffffffffffffffffffffffffffffffff16815260200191505060206040518083038186803b1580156113cc57600080fd5b505afa1580156113e0573d6000803e3d6000fd5b505050506040513d60208110156113f657600080fd5b8101908080519060200190929190505050111561148f578373ffffffffffffffffffffffffffffffffffffffff1663752d49a182600780549050858161143857fe5b046040518363ffffffff1660e01b81526004018083815260200182815260200192505050600060405180830381600087803b15801561147657600080fd5b505af115801561148a573d6000803e3d6000fd5b505050505b5b8080600101915050611103565b5050505050915091565b60008060068054905011611523576040517f08c379a00000000000000000000000000000000000000000000000000000000081526004018080602001828103825260178152602001807f54696d657374616d707327206c656e677468206973203000000000000000000081525060200191505060405180910390fd5b61154b60066001600680549050038154811061153b57fe5b9060005260206000200154612b43565b905090565b600f5481565b6000809054906101000a900473ffffffffffffffffffffffffffffffffffffffff1673ffffffffffffffffffffffffffffffffffffffff16632639e0b034836040518363ffffffff1660e01b8152600401808281526020019150506000604051808303818588803b1580156115ca57600080fd5b505af11580156115de573d6000803e3d6000fd5b505050505050565b600a5434101561165e576040517f08c379a000000000000000000000000000000000000000000000000000000000815260040180806020018281038252601a8152602001807f56616c75652069732062656c6f7720646973707574652066656500000000000081525060200191505060405180910390fd5b6002600082815260200190815260200160002060009054906101000a900460ff166116d4576040517f08c379a0000000000000000000000000000000000000000000000000000000008152600401808060200182810382526034815260200180612d216034913960400191505060405180910390fd5b600b54810160095442816116e457fe5b064203111561175b576040517f08c379a00000000000000000000000000000000000000000000000000000000081526004018080602001828103825260188152602001807f4469737075746520706572696f6420697320636c6f736564000000000000000081525060200191505060405180910390fd5b60016004600083815260200190815260200160002060006101000a81548160ff02191690831515021790555060088190806001815401808255809150509060018203906000526020600020016000909192909190915055507fb199747b7b98ffd681a09c542f7f62ba4972f6f5b7d791b6f8bba36862cbdd2b33826003600085815260200190815260200160002054604051808473ffffffffffffffffffffffffffffffffffffffff1673ffffffffffffffffffffffffffffffffffffffff168152602001838152602001828152602001935050505060405180910390a150565b600060056000838152602001908152602001600020805490509050919050565b600954428161186757fe5b064203600c8190555080600954428161187c57fe5b06420301600d8190555050565b60026020528060005260406000206000915054906101000a900460ff1681565b60046020528060005260406000206000915054906101000a900460ff1681565b600d5481565b600e5481565b60008060008060009054906101000a900473ffffffffffffffffffffffffffffffffffffffff1673ffffffffffffffffffffffffffffffffffffffff16633fcad964856040518263ffffffff1660e01b81526004018082815260200191505060606040518083038186803b15801561194c57600080fd5b505afa158015611960573d6000803e3d6000fd5b505050506040513d606081101561197657600080fd5b810190808051906020019092919080519060200190929190805190602001909291905050509250925092509193909250565b60008060009054906101000a900473ffffffffffffffffffffffffffffffffffffffff1673ffffffffffffffffffffffffffffffffffffffff1663a80209736040518163ffffffff1660e01b815260040160206040518083038186803b158015611a1157600080fd5b505afa158015611a25573d6000803e3d6000fd5b505050506040513d6020811015611a3b57600080fd5b810190808051906020019092919050505090506000821115611bc0578073ffffffffffffffffffffffffffffffffffffffff166323b872dd3330856040518463ffffffff1660e01b8152600401808473ffffffffffffffffffffffffffffffffffffffff1673ffffffffffffffffffffffffffffffffffffffff1681526020018373ffffffffffffffffffffffffffffffffffffffff1673ffffffffffffffffffffffffffffffffffffffff1681526020018281526020019350505050602060405180830381600087803b158015611b1257600080fd5b505af1158015611b26573d6000803e3d6000fd5b505050506040513d6020811015611b3c57600080fd5b8101908080519060200190929190505050611bbf576040517f08c379a000000000000000000000000000000000000000000000000000000000815260040180806020018281038252600f8152602001807f5472616e73666572206661696c6564000000000000000000000000000000000081525060200191505060405180910390fd5b5b8073ffffffffffffffffffffffffffffffffffffffff16633fff28168888888888886040518763ffffffff1660e01b81526004018080602001806020018581526020018481526020018381038352898982818152602001925080828437600081840152601f19601f8201169050808301925050508381038252878782818152602001925080828437600081840152601f19601f82011690508083019250505098505050505050505050600060405180830381600087803b158015611c8357600080fd5b505af1158015611c97573d6000803e3d6000fd5b5050505050505050505050565b60056020528160005260406000208181548110611cbd57fe5b90600052602060002001600091509150505481565b60095481565b60606006805480602002602001604051908101604052809291908181526020018280548015611d2657602002820191906000526020600020905b815481526020019060010190808311611d12575b5050505050905090565b600b5481565b60008060008060009054906101000a900473ffffffffffffffffffffffffffffffffffffffff1673ffffffffffffffffffffffffffffffffffffffff16635f059f3e86866040518363ffffffff1660e01b8152600401808381526020018281526020019250505060606040518083038186803b158015611db557600080fd5b505afa158015611dc9573d6000803e3d6000fd5b505050506040513d6060811015611ddf57600080fd5b810190808051906020019092919080519060200190929190805190602001909291905050509250925092509250925092565b6000600880549050905090565b60008060008060068054905090506000811115611f005760008190505b6000811115611edd578560066001830381548110611e5557fe5b906000526020600020015410158015611eac5750600015156004600060066001850381548110611e8157fe5b9060005260206000200154815260200190815260200160002060009054906101000a900460ff161515145b15611ecf5760066001820381548110611ec157fe5b906000526020600020015492505b808060019003915050611e3b565b506000821115611eff576001611ef283612b43565b8393509350935050611f13565b5b6000806000819150809050935093509350505b9193909250565b600060088281548110611f2957fe5b90600052602060002001549050919050565b60008060009054906101000a900473ffffffffffffffffffffffffffffffffffffffff1673ffffffffffffffffffffffffffffffffffffffff1663a80209736040518163ffffffff1660e01b815260040160206040518083038186803b158015611fa457600080fd5b505afa158015611fb8573d6000803e3d6000fd5b505050506040513d6020811015611fce57600080fd5b810190808051906020019092919050505090508073ffffffffffffffffffffffffffffffffffffffff166323b872dd3330856040518463ffffffff1660e01b8152600401808473ffffffffffffffffffffffffffffffffffffffff1673ffffffffffffffffffffffffffffffffffffffff1681526020018373ffffffffffffffffffffffffffffffffffffffff1673ffffffffffffffffffffffffffffffffffffffff1681526020018281526020019350505050602060405180830381600087803b15801561209c57600080fd5b505af11580156120b0573d6000803e3d6000fd5b505050506040513d60208110156120c657600080fd5b8101908080519060200190929190505050612149576040517f08c379a000000000000000000000000000000000000000000000000000000000815260040180806020018281038252600f8152602001807f5472616e73666572206661696c6564000000000000000000000000000000000081525060200191505060405180910390fd5b8073ffffffffffffffffffffffffffffffffffffffff1663752d49a184846040518363ffffffff1660e01b81526004018083815260200182815260200192505050600060405180830381600087803b1580156121a457600080fd5b505af11580156121b8573d6000803e3d6000fd5b50505050505050565b600c5481565b600160009054906101000a900473ffffffffffffffffffffffffffffffffffffffff1673ffffffffffffffffffffffffffffffffffffffff163373ffffffffffffffffffffffffffffffffffffffff161461228a576040517f08c379a00000000000000000000000000000000000000000000000000000000081526004018080602001828103825260138152602001807f53656e646572206973206e6f74206f776e65720000000000000000000000000081525060200191505060405180910390fd5b60001515612297836124f0565b15151461230c576040517f08c379a00000000000000000000000000000000000000000000000000000000081526004018080602001828103825260188152602001807f54696d657374616d7020697320616c726561647920736574000000000000000081525060200191505060405180910390fd5b80600360008481526020019081526020016000208190555060016002600084815260200190815260200160002060006101000a81548160ff0219169083151502179055506006829080600181540180825580915050906001820390600052602060002001600090919290919091505550817f2afa03c814297ffc234ff967b6f0863d3c358be243103f20217c8d3a4d39f9c0826040518082815260200191505060405180910390a25050565b60006004600083815260200190815260200160002060009054906101000a900460ff169050919050565b6000806123f0600c54611e1e565b600e6000829550839190505582945050505081156124b357612413600d54611e1e565b600f6000829550839190505582945050505081156124b257600e54600f541115612453576001601060006101000a81548160ff0219169083151502179055505b6001601060016101000a81548160ff0219169083151502179055507fbbdea414ca4370d674fd5e370fbc6d7da2dafff34ec019faaf1c36b1180a314b600e54600f54604051808381526020018281526020019250505060405180910390a15b5b5050565b600160009054906101000a900473ffffffffffffffffffffffffffffffffffffffff1681565b601060019054906101000a900460ff1681565b60006002600083815260200190815260200160002060009054906101000a900460ff169050919050565b600160009054906101000a900473ffffffffffffffffffffffffffffffffffffffff1673ffffffffffffffffffffffffffffffffffffffff163373ffffffffffffffffffffffffffffffffffffffff16146125dd576040517f08c379a00000000000000000000000000000000000000000000000000000000081526004018080602001828103825260138152602001807f53656e646572206973206e6f74206f776e65720000000000000000000000000081525060200191505060405180910390fd5b806000806101000a81548173ffffffffffffffffffffffffffffffffffffffff021916908373ffffffffffffffffffffffffffffffffffffffff16021790555050565b6060600780548060200260200160405190810160405280929190818152602001828054801561266e57602002820191906000526020600020905b81548152602001906001019080831161265a575b5050505050905090565b606060088054806020026020016040519081016040528092919081815260200182805480156126c657602002820191906000526020600020905b8154815260200190600101908083116126b2575b5050505050905090565b600a5481565b601060009054906101000a900460ff1681565b6000809054906101000a900473ffffffffffffffffffffffffffffffffffffffff1673ffffffffffffffffffffffffffffffffffffffff1663bb19e2963487878787876040518763ffffffff1660e01b81526004018080602001806020018481526020018381038352888882818152602001925080828437600081840152601f19601f8201169050808301925050508381038252868682818152602001925080828437600081840152601f19601f8201169050808301925050509750505050505050506000604051808303818588803b1580156127c557600080fd5b505af11580156127d9573d6000803e3d6000fd5b50505050505050505050565b60008060008060009054906101000a900473ffffffffffffffffffffffffffffffffffffffff1673ffffffffffffffffffffffffffffffffffffffff1663d09cc57e856040518263ffffffff1660e01b81526004018082815260200191505060606040518083038186803b15801561285c57600080fd5b505afa158015612870573d6000803e3d6000fd5b505050506040513d606081101561288657600080fd5b810190808051906020019092919080519060200190929190805190602001909291905050509250925092509193909250565b60008060008060009054906101000a900473ffffffffffffffffffffffffffffffffffffffff1673ffffffffffffffffffffffffffffffffffffffff1663d269a83c86866040518363ffffffff1660e01b8152600401808381526020018281526020019250505060606040518083038186803b15801561293757600080fd5b505afa15801561294b573d6000803e3d6000fd5b505050506040513d606081101561296157600080fd5b810190808051906020019092919080519060200190929190805190602001909291905050509250925092509250925092565b6060600560008381526020019081526020016000208054806020026020016040519081016040528092919081815260200182805480156129f257602002820191906000526020600020905b8154815260200190600101908083116129de575b50505050509050919050565b600160009054906101000a900473ffffffffffffffffffffffffffffffffffffffff1673ffffffffffffffffffffffffffffffffffffffff163373ffffffffffffffffffffffffffffffffffffffff1614612ac1576040517f08c379a00000000000000000000000000000000000000000000000000000000081526004018080602001828103825260138152602001807f53656e646572206973206e6f74206f776e65720000000000000000000000000081525060200191505060405180910390fd5b600160009054906101000a900473ffffffffffffffffffffffffffffffffffffffff1673ffffffffffffffffffffffffffffffffffffffff166108fc3073ffffffffffffffffffffffffffffffffffffffff16319081150290604051600060405180830381858888f19350505050158015612b40573d6000803e3d6000fd5b50565b600060036000838152602001908152602001600020549050919050565b600160009054906101000a900473ffffffffffffffffffffffffffffffffffffffff1673ffffffffffffffffffffffffffffffffffffffff163373ffffffffffffffffffffffffffffffffffffffff1614612c23576040517f08c379a00000000000000000000000000000000000000000000000000000000081526004018080602001828103825260138152602001807f53656e646572206973206e6f74206f776e65720000000000000000000000000081525060200191505060405180910390fd5b7f8be0079c531659141344cd1fd0a4f28419497f9722a3daafe3b4186f6b6457e0600160009054906101000a900473ffffffffffffffffffffffffffffffffffffffff1682604051808373ffffffffffffffffffffffffffffffffffffffff1673ffffffffffffffffffffffffffffffffffffffff1681526020018273ffffffffffffffffffffffffffffffffffffffff1673ffffffffffffffffffffffffffffffffffffffff1681526020019250505060405180910390a180600160006101000a81548173ffffffffffffffffffffffffffffffffffffffff021916908373ffffffffffffffffffffffffffffffffffffffff1602179055505056fe56616c756520666f72207468652074696d657374616d70206265696e6720646973707574656420646f65736e2774206578697374a165627a7a7230582026cffc5b9d24029cea1e3a90bffbc2f33bb3fd4caa30847a2b2bc873c1046d720029",
  "source": "pragma solidity ^0.5.0;\r\n\r\nimport \"../Optimistic.sol\";\r\n/**\r\n* @title Reader\r\n* This contracts is a pretend contract using Tellor that compares two time values\r\n*/\r\ncontract TestContract is Optimistic {\r\n    uint256 public startDateTime;\r\n    uint256 public endDateTime;\r\n    uint256 public startValue;\r\n    uint256 public endValue;\r\n    bool public longWins;\r\n    bool public contractEnded;\r\n    event ContractSettled(uint256 _svalue, uint256 _evalue);\r\n    /**\r\n    * @dev This constructor function is used to pass variables to the optimistic contract's constructor\r\n    * and the function is blank\r\n    * @param _userContract address for UserContract\r\n    * @param _disputeFeeRequired the fee to dispute the optimistic price(price sumbitted by known trusted party)\r\n    * @param _disputePeriod is the time frame a value can be disputed after being imputed\r\n    * @param _requestIds are the requests Id's on the Tellor System corresponding to the data types used on this contract.\r\n    * It is recommended to use several requestId's that pull from several API's. If requestsId's don't exist in the Tellor\r\n    * System be sure to create some.\r\n    * @param _granularity is the amount of decimals desired on the requested value\r\n    */\r\n    constructor(address _userContract, uint256 _disputeFeeRequired, uint256 _disputePeriod, uint256[] memory _requestIds, uint256 _granularity)\r\n        public\r\n        Optimistic(_userContract, _disputeFeeRequired, _disputePeriod, _requestIds, _granularity)\r\n    {}\r\n\r\n    /**\r\n    * @dev creates a start(now) and end time(now + duration specified) for testing a contract start and end period\r\n    * @param _duration in seconds\r\n    */\r\n    function setContractDetails(uint256 _duration) external {\r\n        startDateTime = now - (now % granularity);\r\n        endDateTime = now - (now % granularity) + _duration;\r\n    }\r\n\r\n    /**\r\n    * @dev testing fucntion that settles the contract by getting the first undisputed value after the startDateTime\r\n    * and the first undisputed value after the end time of the contract and settleling(payin off) it.\r\n    */\r\n    function settleContracts() external {\r\n        bool _didGet;\r\n        uint256 _time;\r\n        (_didGet, startValue, _time) = getFirstUndisputedValueAfter(startDateTime);\r\n        if (_didGet) {\r\n            (_didGet, endValue, _time) = getFirstUndisputedValueAfter(endDateTime);\r\n            if (_didGet) {\r\n                if (endValue > startValue) {\r\n                    longWins = true;\r\n                }\r\n                contractEnded = true;\r\n                emit ContractSettled(startValue, endValue);\r\n            }\r\n        }\r\n    }\r\n}\r\n",
  "sourcePath": "C:/users/lloya/documents/dda/1tellor/tellor/projects/tellornpm/usingtellor/contracts/testContracts/TestContract.sol",
  "compiler": {
    "name": "solc",
    "version": "0.5.8+commit.23d335f2.Emscripten.clang"
  },
  "schemaVersion": "3.0.11",
  "updatedAt": "2019-12-17T14:54:18.669Z",
  "devdoc": {
    "methods": {
      "addTip(uint256,uint256)": {
        "details": "Allows the user to tip miners for the specified request using Tributes\r",
        "params": {
          "_requestId": "to tip\r",
          "_tip": "amount\r"
        }
      },
      "addTipWithEther(uint256)": {
        "details": "Allows user to add tip with Ether by sending the ETH to the userContract and exchanging it for Tributes\r at the price specified by the userContract owner.\r",
        "params": {
          "_requestId": "to tip\r"
        }
      },
      "constructor": {
        "details": "This constructor function is used to pass variables to the optimistic contract's constructor\r and the function is blank\r",
        "params": {
          "_disputeFeeRequired": "the fee to dispute the optimistic price(price sumbitted by known trusted party)\r",
          "_disputePeriod": "is the time frame a value can be disputed after being imputed\r",
          "_granularity": "is the amount of decimals desired on the requested value\r",
          "_requestIds": "are the requests Id's on the Tellor System corresponding to the data types used on this contract.\r It is recommended to use several requestId's that pull from several API's. If requestsId's don't exist in the Tellor\r System be sure to create some.\r",
          "_userContract": "address for UserContract\r"
        }
      },
      "disputeOptimisticValue(uint256)": {
        "details": "allows user to initiate dispute on the value of the specified timestamp\r",
        "params": {
          "_timestamp": "is the timestamp for the value to be disputed\r"
        }
      },
      "getAnyDataAfter(uint256,uint256)": {
        "details": "Allows the user to get the first value for the requestId after the specified timestamp\r",
        "params": {
          "_requestId": "is the requestId to look up the value for\r",
          "_timestamp": "after which to search for first verified value\r"
        },
        "return": "bool true if it is able to retreive a value, the value, and the value's timestamp\r"
      },
      "getCurrentValue()": {
        "details": "Getter function for latest value available\r",
        "return": "latest value available\r"
      },
      "getCurrentValue(uint256)": {
        "details": "Allows the user to get the latest value for the requestId specified\r",
        "params": {
          "_requestId": "is the requestId to look up the value for\r"
        },
        "return": "bool true if it is able to retreive a value, the value, and the value's timestamp\r"
      },
      "getDisputedValueByIndex(uint256)": {
        "details": "Getter function for the dispute value by index\r",
        "return": "the value\r"
      },
      "getDisputedValues()": {
        "details": "Getter function for all disputed values\r",
        "return": "the array with all values under dispute\r"
      },
      "getFirstUndisputedValueAfter(uint256)": {
        "details": "Get the first undisputed value after the timestamp specified. This function is used within the getTellorValues\r but can be used on its own.\r",
        "params": {
          "_timestamp": "to search the first undisputed value there after\r"
        }
      },
      "getFirstVerifiedDataAfter(uint256,uint256)": {
        "details": "Allows the user to get the first verified value for the requestId after the specified timestamp\r",
        "params": {
          "_requestId": "is the requestId to look up the value for\r",
          "_timestamp": "after which to search for first verified value\r"
        },
        "return": "bool true if it is able to retreive a value, the value, and the value's timestamp, the timestamp after\r which it searched for the first verified value\r"
      },
      "getIsValue(uint256)": {
        "details": "Checks to if a value exists for the specifived timestamp\r",
        "params": {
          "_timestamp": "to verify\r"
        },
        "return": "ture if it exists\r"
      },
      "getMyValuesByTimestamp(uint256)": {
        "details": "Getter function for the value based on the timestamp specified\r",
        "params": {
          "_timestamp": "to retreive value from\r"
        }
      },
      "getNumberOfDisputedValues()": {
        "details": "Getter function for the number of disputed values\r",
        "return": "uint count of number of values for the spedified timestamp\r"
      },
      "getNumberOfValuesPerTimestamp(uint256)": {
        "details": "Getter function for the number of RequestIds associated with a timestamp, based on the timestamp specified\r",
        "params": {
          "_timestamp": "to retreive number of requestIds\r"
        },
        "return": "uint count of number of values for the spedified timestamp\r"
      },
      "getRequestIds()": {
        "details": "Getter function for the requests Ids' from Tellor associated with this price feed\r",
        "return": "uint array of requests Ids'\r"
      },
      "getRequestIdsIncluded(uint256)": {
        "details": "Getter function for the requests Ids' from Tellor associated with this price feed\r at the specified timestamp. This only gets populated after a dispute is initiated and the\r function getTellorValues is ran.\r",
        "params": {
          "_timestamp": "to retreive the requestIds\r"
        },
        "return": "uint array of requests Ids' included in the calcluation of the value\r"
      },
      "getTellorValues(uint256)": {
        "details": "This function gets the Tellor requestIds values for the disputed timestamp. It averages the values on the\r requestsIds and replaces the value set by the contract owner, centralized party.\r",
        "params": {
          "_timestamp": "to get Tellor data from\r"
        },
        "return": "uint of new value and true if it was able to get Tellor data\r"
      },
      "getTimestamps()": {
        "details": "Getter function for the timestamps available\r",
        "return": "uint array of timestamps available\r"
      },
      "isDisputed(uint256)": {
        "details": "This checks if the value for the specified timestamp is under dispute\r",
        "params": {
          "_timestamp": "to check if it is under dispute\r"
        },
        "return": "true if it is under dispute\r"
      },
      "requestData(string,string,uint256,uint256)": {
        "details": "Allows the user to submit a request for data to the oracle using Tributes\r Allowing this prevents us from increasing spread too high (since if we set the price too hight\r users will just go to an exchange and get tokens from there)\r",
        "params": {
          "_granularity": "is the number of decimals miners should include on the submitted value\r",
          "_request": "string API being requested to be mined\r",
          "_symbol": "is the short string symbol for the api request\r",
          "_tip": "amount the requester is willing to pay to be get on queue. Miners\r mine the onDeckQueryHash, or the api with the highest payout pool\r"
        }
      },
      "requestDataWithEther(string,string,uint256)": {
        "details": "Allows the user to submit a request for data to the oracle using ETH\r",
        "params": {
          "_granularity": "is the number of decimals miners should include on the submitted value\r",
          "_request": "string API being requested to be mined\r",
          "_symbol": "is the short string symbol for the api request\r"
        }
      },
      "resultFor(bytes32)": {
        "details": "Allows the user to get the latest value for the requestId specified using the \r ADO specification for the standard inteface for price oracles\r",
        "params": {
          "_bytesId": "is the ADO standarized bytes32 price/key value pair identifier\r"
        },
        "return": "the timestamp, outcome or value/ and the status code (for retreived, null, etc...)\r"
      },
      "setContractDetails(uint256)": {
        "details": "creates a start(now) and end time(now + duration specified) for testing a contract start and end period\r",
        "params": {
          "_duration": "in seconds\r"
        }
      },
      "setUserContract(address)": {
        "details": "allows owner to set the user contract address\r",
        "params": {
          "_userContract": "address\r"
        }
      },
      "setValue(uint256,uint256)": {
        "details": "allows contract owner, a centralized party to enter value\r",
        "params": {
          "_timestamp": "is the timestamp for the value\r",
          "_value": "is the value for the timestamp specified\r"
        }
      },
      "settleContracts()": {
        "details": "testing fucntion that settles the contract by getting the first undisputed value after the startDateTime\r and the first undisputed value after the end time of the contract and settleling(payin off) it.\r"
      },
      "transferOwnership(address)": {
        "details": "allows owner to transfer ownership\r",
        "params": {
          "_newOwner": "address\r"
        }
      },
      "withdrawETH()": {
        "details": "Allows the contract owner(Tellor) to withdraw ETH from this contract\r"
      }
    },
    "title": "Reader\r This contracts is a pretend contract using Tellor that compares two time values\r"
  },
  "userdoc": {
    "methods": {}
  }
}