{
  "contractName": "UserContract",
  "abi": [
    {
      "constant": true,
      "inputs": [],
      "name": "tributePrice",
      "outputs": [
        {
          "name": "",
          "type": "uint256"
        }
      ],
      "payable": false,
      "stateMutability": "view",
      "type": "function"
    },
    {
      "constant": true,
      "inputs": [],
      "name": "owner",
      "outputs": [
        {
          "name": "",
          "type": "address"
        }
      ],
      "payable": false,
      "stateMutability": "view",
      "type": "function"
    },
    {
      "constant": true,
      "inputs": [],
      "name": "tellorStorageAddress",
      "outputs": [
        {
          "name": "",
          "type": "address"
        }
      ],
      "payable": false,
      "stateMutability": "view",
      "type": "function"
    },
    {
      "inputs": [
        {
          "name": "_storage",
          "type": "address"
        }
      ],
      "payable": false,
      "stateMutability": "nonpayable",
      "type": "constructor"
    },
    {
      "anonymous": false,
      "inputs": [
        {
          "indexed": false,
          "name": "_previousOwner",
          "type": "address"
        },
        {
          "indexed": false,
          "name": "_newOwner",
          "type": "address"
        }
      ],
      "name": "OwnershipTransferred",
      "type": "event"
    },
    {
      "anonymous": false,
      "inputs": [
        {
          "indexed": false,
          "name": "_newPrice",
          "type": "uint256"
        }
      ],
      "name": "NewPriceSet",
      "type": "event"
    },
    {
      "anonymous": false,
      "inputs": [
        {
          "indexed": false,
          "name": "_descriptorSet",
          "type": "address"
        }
      ],
      "name": "NewDescriptorSet",
      "type": "event"
    },
    {
      "constant": false,
      "inputs": [
        {
          "name": "_oracleDescriptors",
          "type": "address"
        }
      ],
      "name": "setOracleIDDescriptors",
      "outputs": [],
      "payable": false,
      "stateMutability": "nonpayable",
      "type": "function"
    },
    {
      "constant": false,
      "inputs": [
        {
          "name": "newOwner",
          "type": "address"
        }
      ],
      "name": "transferOwnership",
      "outputs": [],
      "payable": false,
      "stateMutability": "nonpayable",
      "type": "function"
    },
    {
      "constant": false,
      "inputs": [],
      "name": "withdrawEther",
      "outputs": [],
      "payable": false,
      "stateMutability": "nonpayable",
      "type": "function"
    },
    {
      "constant": false,
      "inputs": [],
      "name": "withdrawTokens",
      "outputs": [],
      "payable": false,
      "stateMutability": "nonpayable",
      "type": "function"
    },
    {
      "constant": false,
      "inputs": [
        {
          "name": "c_sapi",
          "type": "string"
        },
        {
          "name": "_c_symbol",
          "type": "string"
        },
        {
          "name": "_granularity",
          "type": "uint256"
        }
      ],
      "name": "requestDataWithEther",
      "outputs": [],
      "payable": true,
      "stateMutability": "payable",
      "type": "function"
    },
    {
      "constant": false,
      "inputs": [
        {
          "name": "_apiId",
          "type": "uint256"
        }
      ],
      "name": "addTipWithEther",
      "outputs": [],
      "payable": true,
      "stateMutability": "payable",
      "type": "function"
    },
    {
      "constant": false,
      "inputs": [
        {
          "name": "_price",
          "type": "uint256"
        }
      ],
      "name": "setPrice",
      "outputs": [],
      "payable": false,
      "stateMutability": "nonpayable",
      "type": "function"
    },
    {
      "constant": true,
      "inputs": [
        {
          "name": "_requestId",
          "type": "uint256"
        }
      ],
      "name": "getCurrentValue",
      "outputs": [
        {
          "name": "ifRetrieve",
          "type": "bool"
        },
        {
          "name": "value",
          "type": "uint256"
        },
        {
          "name": "_timestampRetrieved",
          "type": "uint256"
        }
      ],
      "payable": false,
      "stateMutability": "view",
      "type": "function"
    },
    {
      "constant": true,
      "inputs": [
        {
          "name": "_bytesId",
          "type": "bytes32"
        }
      ],
      "name": "resultFor",
      "outputs": [
        {
          "name": "timestamp",
          "type": "uint256"
        },
        {
          "name": "outcome",
          "type": "int256"
        },
        {
          "name": "status",
          "type": "int256"
        }
      ],
      "payable": false,
      "stateMutability": "view",
      "type": "function"
    },
    {
      "constant": true,
      "inputs": [
        {
          "name": "_requestId",
          "type": "uint256"
        },
        {
          "name": "_timestamp",
          "type": "uint256"
        }
      ],
      "name": "getFirstVerifiedDataAfter",
      "outputs": [
        {
          "name": "",
          "type": "bool"
        },
        {
          "name": "",
          "type": "uint256"
        },
        {
          "name": "_timestampRetrieved",
          "type": "uint256"
        }
      ],
      "payable": false,
      "stateMutability": "view",
      "type": "function"
    },
    {
      "constant": true,
      "inputs": [
        {
          "name": "_requestId",
          "type": "uint256"
        },
        {
          "name": "_timestamp",
          "type": "uint256"
        }
      ],
      "name": "getAnyDataAfter",
      "outputs": [
        {
          "name": "_ifRetrieve",
          "type": "bool"
        },
        {
          "name": "_value",
          "type": "uint256"
        },
        {
          "name": "_timestampRetrieved",
          "type": "uint256"
        }
      ],
      "payable": false,
      "stateMutability": "view",
      "type": "function"
    }
  ],
  "bytecode": "0x608060405234801561001057600080fd5b506040516020806120d08339810180604052602081101561003057600080fd5b810190808051906020019092919050505080600260006101000a81548173ffffffffffffffffffffffffffffffffffffffff021916908373ffffffffffffffffffffffffffffffffffffffff160217905550600260009054906101000a900473ffffffffffffffffffffffffffffffffffffffff16600360006101000a81548173ffffffffffffffffffffffffffffffffffffffff021916908373ffffffffffffffffffffffffffffffffffffffff160217905550600260009054906101000a900473ffffffffffffffffffffffffffffffffffffffff16600460006101000a81548173ffffffffffffffffffffffffffffffffffffffff021916908373ffffffffffffffffffffffffffffffffffffffff16021790555033600160006101000a81548173ffffffffffffffffffffffffffffffffffffffff021916908373ffffffffffffffffffffffffffffffffffffffff16021790555050611f37806101996000396000f3fe6080604052600436106100dd5760003560e01c806391b7f5ed1161007f578063bb97f31d11610059578063bb97f31d146103f6578063d09cc57e14610447578063d269a83c146104a4578063f2fde38b1461050f576100dd565b806391b7f5ed1461028c578063a8020973146102c7578063bb19e2961461031e576100dd565b806362fb62b5116100bb57806362fb62b5146101dc5780637362377b146102075780638d8f2adb1461021e5780638da5cb5b14610235576100dd565b80632639e0b0146100e25780633fcad964146101105780635f059f3e14610171575b600080fd5b61010e600480360360208110156100f857600080fd5b8101908080359060200190929190505050610560565b005b34801561011c57600080fd5b506101496004803603602081101561013357600080fd5b8101908080359060200190929190505050610762565b6040518084151515158152602001838152602001828152602001935050505060405180910390f35b34801561017d57600080fd5b506101b46004803603604081101561019457600080fd5b8101908080359060200190929190803590602001909291905050506109bb565b6040518084151515158152602001838152602001828152602001935050505060405180910390f35b3480156101e857600080fd5b506101f1610dc5565b6040518082815260200191505060405180910390f35b34801561021357600080fd5b5061021c610dcb565b005b34801561022a57600080fd5b50610233610f10565b005b34801561024157600080fd5b5061024a6111b5565b604051808273ffffffffffffffffffffffffffffffffffffffff1673ffffffffffffffffffffffffffffffffffffffff16815260200191505060405180910390f35b34801561029857600080fd5b506102c5600480360360208110156102af57600080fd5b81019080803590602001909291905050506111db565b005b3480156102d357600080fd5b506102dc6112df565b604051808273ffffffffffffffffffffffffffffffffffffffff1673ffffffffffffffffffffffffffffffffffffffff16815260200191505060405180910390f35b6103f46004803603606081101561033457600080fd5b810190808035906020019064010000000081111561035157600080fd5b82018360208201111561036357600080fd5b8035906020019184600183028401116401000000008311171561038557600080fd5b9091929391929390803590602001906401000000008111156103a657600080fd5b8201836020820111156103b857600080fd5b803590602001918460018302840111640100000000831117156103da57600080fd5b909192939192939080359060200190929190505050611305565b005b34801561040257600080fd5b506104456004803603602081101561041957600080fd5b81019080803573ffffffffffffffffffffffffffffffffffffffff169060200190929190505050611573565b005b34801561045357600080fd5b506104806004803603602081101561046a57600080fd5b81019080803590602001909291905050506116dd565b60405180848152602001838152602001828152602001935050505060405180910390f35b3480156104b057600080fd5b506104e7600480360360408110156104c757600080fd5b810190808035906020019092919080359060200190929190505050611a0a565b6040518084151515158152602001838152602001828152602001935050505060405180910390f35b34801561051b57600080fd5b5061055e6004803603602081101561053257600080fd5b81019080803573ffffffffffffffffffffffffffffffffffffffff169060200190929190505050611d4b565b005b6000670de0b6b3a7640000600054348161057657fe5b0402905080600460009054906101000a900473ffffffffffffffffffffffffffffffffffffffff1673ffffffffffffffffffffffffffffffffffffffff166370a08231306040518263ffffffff1660e01b8152600401808273ffffffffffffffffffffffffffffffffffffffff1673ffffffffffffffffffffffffffffffffffffffff16815260200191505060206040518083038186803b15801561061a57600080fd5b505afa15801561062e573d6000803e3d6000fd5b505050506040513d602081101561064457600080fd5b810190808051906020019092919050505010156106c9576040517f08c379a00000000000000000000000000000000000000000000000000000000081526004018080602001828103825260208152602001807f42616c616e6365206973206c6f776572207468616e2074697020616d6f756e7481525060200191505060405180910390fd5b600360009054906101000a900473ffffffffffffffffffffffffffffffffffffffff1673ffffffffffffffffffffffffffffffffffffffff1663752d49a183836040518363ffffffff1660e01b81526004018083815260200182815260200192505050600060405180830381600087803b15801561074657600080fd5b505af115801561075a573d6000803e3d6000fd5b505050505050565b600080600080600460009054906101000a900473ffffffffffffffffffffffffffffffffffffffff1673ffffffffffffffffffffffffffffffffffffffff166346eee1c4866040518263ffffffff1660e01b81526004018082815260200191505060206040518083038186803b1580156107db57600080fd5b505afa1580156107ef573d6000803e3d6000fd5b505050506040513d602081101561080557600080fd5b8101908080519060200190929190505050905060008111156109a157600460009054906101000a900473ffffffffffffffffffffffffffffffffffffffff1673ffffffffffffffffffffffffffffffffffffffff166377fbb66386600184036040518363ffffffff1660e01b8152600401808381526020018281526020019250505060206040518083038186803b15801561089f57600080fd5b505afa1580156108b3573d6000803e3d6000fd5b505050506040513d60208110156108c957600080fd5b810190808051906020019092919050505091506001600460009054906101000a900473ffffffffffffffffffffffffffffffffffffffff1673ffffffffffffffffffffffffffffffffffffffff166393fa491587856040518363ffffffff1660e01b8152600401808381526020018281526020019250505060206040518083038186803b15801561095957600080fd5b505afa15801561096d573d6000803e3d6000fd5b505050506040513d602081101561098357600080fd5b810190808051906020019092919050505083935093509350506109b4565b6000806000819150809050935093509350505b9193909250565b600080600080600460009054906101000a900473ffffffffffffffffffffffffffffffffffffffff1673ffffffffffffffffffffffffffffffffffffffff166346eee1c4876040518263ffffffff1660e01b81526004018082815260200191505060206040518083038186803b158015610a3457600080fd5b505afa158015610a48573d6000803e3d6000fd5b505050506040513d6020811015610a5e57600080fd5b810190808051906020019092919050505090506000811115610dab5760008190505b6000811115610cdb5785600460009054906101000a900473ffffffffffffffffffffffffffffffffffffffff1673ffffffffffffffffffffffffffffffffffffffff166377fbb66389600185036040518363ffffffff1660e01b8152600401808381526020018281526020019250505060206040518083038186803b158015610b0857600080fd5b505afa158015610b1c573d6000803e3d6000fd5b505050506040513d6020811015610b3257600080fd5b8101908080519060200190929190505050118015610c0c5750620151804203600460009054906101000a900473ffffffffffffffffffffffffffffffffffffffff1673ffffffffffffffffffffffffffffffffffffffff166377fbb66389600185036040518363ffffffff1660e01b8152600401808381526020018281526020019250505060206040518083038186803b158015610bcf57600080fd5b505afa158015610be3573d6000803e3d6000fd5b505050506040513d6020811015610bf957600080fd5b8101908080519060200190929190505050105b15610ccd57600460009054906101000a900473ffffffffffffffffffffffffffffffffffffffff1673ffffffffffffffffffffffffffffffffffffffff166377fbb66388600184036040518363ffffffff1660e01b8152600401808381526020018281526020019250505060206040518083038186803b158015610c8f57600080fd5b505afa158015610ca3573d6000803e3d6000fd5b505050506040513d6020811015610cb957600080fd5b810190808051906020019092919050505092505b808060019003915050610a80565b506000821115610daa576001600460009054906101000a900473ffffffffffffffffffffffffffffffffffffffff1673ffffffffffffffffffffffffffffffffffffffff166393fa491588856040518363ffffffff1660e01b8152600401808381526020018281526020019250505060206040518083038186803b158015610d6257600080fd5b505afa158015610d76573d6000803e3d6000fd5b505050506040513d6020811015610d8c57600080fd5b81019080805190602001909291905050508393509350935050610dbe565b5b6000806000819150809050935093509350505b9250925092565b60005481565b600160009054906101000a900473ffffffffffffffffffffffffffffffffffffffff1673ffffffffffffffffffffffffffffffffffffffff163373ffffffffffffffffffffffffffffffffffffffff1614610e8e576040517f08c379a00000000000000000000000000000000000000000000000000000000081526004018080602001828103825260138152602001807f53656e646572206973206e6f74206f776e65720000000000000000000000000081525060200191505060405180910390fd5b600160009054906101000a900473ffffffffffffffffffffffffffffffffffffffff1673ffffffffffffffffffffffffffffffffffffffff166108fc3073ffffffffffffffffffffffffffffffffffffffff16319081150290604051600060405180830381858888f19350505050158015610f0d573d6000803e3d6000fd5b50565b600160009054906101000a900473ffffffffffffffffffffffffffffffffffffffff1673ffffffffffffffffffffffffffffffffffffffff163373ffffffffffffffffffffffffffffffffffffffff1614610fd3576040517f08c379a00000000000000000000000000000000000000000000000000000000081526004018080602001828103825260138152602001807f53656e646572206973206e6f74206f776e65720000000000000000000000000081525060200191505060405180910390fd5b600360009054906101000a900473ffffffffffffffffffffffffffffffffffffffff1673ffffffffffffffffffffffffffffffffffffffff1663a9059cbb600160009054906101000a900473ffffffffffffffffffffffffffffffffffffffff16600460009054906101000a900473ffffffffffffffffffffffffffffffffffffffff1673ffffffffffffffffffffffffffffffffffffffff166370a08231306040518263ffffffff1660e01b8152600401808273ffffffffffffffffffffffffffffffffffffffff1673ffffffffffffffffffffffffffffffffffffffff16815260200191505060206040518083038186803b1580156110d357600080fd5b505afa1580156110e7573d6000803e3d6000fd5b505050506040513d60208110156110fd57600080fd5b81019080805190602001909291905050506040518363ffffffff1660e01b8152600401808373ffffffffffffffffffffffffffffffffffffffff1673ffffffffffffffffffffffffffffffffffffffff16815260200182815260200192505050602060405180830381600087803b15801561117757600080fd5b505af115801561118b573d6000803e3d6000fd5b505050506040513d60208110156111a157600080fd5b810190808051906020019092919050505050565b600160009054906101000a900473ffffffffffffffffffffffffffffffffffffffff1681565b600160009054906101000a900473ffffffffffffffffffffffffffffffffffffffff1673ffffffffffffffffffffffffffffffffffffffff163373ffffffffffffffffffffffffffffffffffffffff161461129e576040517f08c379a00000000000000000000000000000000000000000000000000000000081526004018080602001828103825260138152602001807f53656e646572206973206e6f74206f776e65720000000000000000000000000081525060200191505060405180910390fd5b806000819055507f4e8ad04c3fba0cbea0ab1df84b92a72a289ddf64da15f4c1c396891d37c39b01816040518082815260200191505060405180910390a150565b600260009054906101000a900473ffffffffffffffffffffffffffffffffffffffff1681565b6000670de0b6b3a7640000600054348161131b57fe5b0402905080600460009054906101000a900473ffffffffffffffffffffffffffffffffffffffff1673ffffffffffffffffffffffffffffffffffffffff166370a08231306040518263ffffffff1660e01b8152600401808273ffffffffffffffffffffffffffffffffffffffff1673ffffffffffffffffffffffffffffffffffffffff16815260200191505060206040518083038186803b1580156113bf57600080fd5b505afa1580156113d3573d6000803e3d6000fd5b505050506040513d60208110156113e957600080fd5b8101908080519060200190929190505050101561146e576040517f08c379a00000000000000000000000000000000000000000000000000000000081526004018080602001828103825260208152602001807f42616c616e6365206973206c6f776572207468616e2074697020616d6f756e7481525060200191505060405180910390fd5b600360009054906101000a900473ffffffffffffffffffffffffffffffffffffffff1673ffffffffffffffffffffffffffffffffffffffff16633fff28168787878787876040518763ffffffff1660e01b81526004018080602001806020018581526020018481526020018381038352898982818152602001925080828437600081840152601f19601f8201169050808301925050508381038252878782818152602001925080828437600081840152601f19601f82011690508083019250505098505050505050505050600060405180830381600087803b15801561155357600080fd5b505af1158015611567573d6000803e3d6000fd5b50505050505050505050565b600160009054906101000a900473ffffffffffffffffffffffffffffffffffffffff1673ffffffffffffffffffffffffffffffffffffffff163373ffffffffffffffffffffffffffffffffffffffff1614611636576040517f08c379a00000000000000000000000000000000000000000000000000000000081526004018080602001828103825260138152602001807f53656e646572206973206e6f74206f776e65720000000000000000000000000081525060200191505060405180910390fd5b80600560006101000a81548173ffffffffffffffffffffffffffffffffffffffff021916908373ffffffffffffffffffffffffffffffffffffffff1602179055507f5c6c85f31e475f047482022539bfe2a3941c15e582053b7420f22e5e8cc5d7f681604051808273ffffffffffffffffffffffffffffffffffffffff1673ffffffffffffffffffffffffffffffffffffffff16815260200191505060405180910390a150565b600080600080600560009054906101000a900473ffffffffffffffffffffffffffffffffffffffff1673ffffffffffffffffffffffffffffffffffffffff1663c4e9e950866040518263ffffffff1660e01b81526004018082815260200191505060206040518083038186803b15801561175657600080fd5b505afa15801561176a573d6000803e3d6000fd5b505050506040513d602081101561178057600080fd5b8101908080519060200190929190505050905060008111156119435760008060006117aa84610762565b809350819450829550505050821561187c578082600560009054906101000a900473ffffffffffffffffffffffffffffffffffffffff1673ffffffffffffffffffffffffffffffffffffffff166367cfa3f860016040518263ffffffff1660e01b81526004018082815260200191505060206040518083038186803b15801561183257600080fd5b505afa158015611846573d6000803e3d6000fd5b505050506040513d602081101561185c57600080fd5b810190808051906020019092919050505096509650965050505050611a03565b600080600560009054906101000a900473ffffffffffffffffffffffffffffffffffffffff1673ffffffffffffffffffffffffffffffffffffffff166367cfa3f860026040518263ffffffff1660e01b81526004018082815260200191505060206040518083038186803b1580156118f357600080fd5b505afa158015611907573d6000803e3d6000fd5b505050506040513d602081101561191d57600080fd5b810190808051906020019092919050505082925081915096509650965050505050611a03565b600080600560009054906101000a900473ffffffffffffffffffffffffffffffffffffffff1673ffffffffffffffffffffffffffffffffffffffff166367cfa3f860006040518263ffffffff1660e01b81526004018082815260200191505060206040518083038186803b1580156119ba57600080fd5b505afa1580156119ce573d6000803e3d6000fd5b505050506040513d60208110156119e457600080fd5b8101908080519060200190929190505050829250819150935093509350505b9193909250565b600080600080600460009054906101000a900473ffffffffffffffffffffffffffffffffffffffff1673ffffffffffffffffffffffffffffffffffffffff166346eee1c4876040518263ffffffff1660e01b81526004018082815260200191505060206040518083038186803b158015611a8357600080fd5b505afa158015611a97573d6000803e3d6000fd5b505050506040513d6020811015611aad57600080fd5b810190808051906020019092919050505090506000811115611d315760008190505b6000811115611c615785600460009054906101000a900473ffffffffffffffffffffffffffffffffffffffff1673ffffffffffffffffffffffffffffffffffffffff166377fbb66389600185036040518363ffffffff1660e01b8152600401808381526020018281526020019250505060206040518083038186803b158015611b5757600080fd5b505afa158015611b6b573d6000803e3d6000fd5b505050506040513d6020811015611b8157600080fd5b810190808051906020019092919050505010611c5357600460009054906101000a900473ffffffffffffffffffffffffffffffffffffffff1673ffffffffffffffffffffffffffffffffffffffff166377fbb66388600184036040518363ffffffff1660e01b8152600401808381526020018281526020019250505060206040518083038186803b158015611c1557600080fd5b505afa158015611c29573d6000803e3d6000fd5b505050506040513d6020811015611c3f57600080fd5b810190808051906020019092919050505092505b808060019003915050611acf565b506000821115611d30576001600460009054906101000a900473ffffffffffffffffffffffffffffffffffffffff1673ffffffffffffffffffffffffffffffffffffffff166393fa491588856040518363ffffffff1660e01b8152600401808381526020018281526020019250505060206040518083038186803b158015611ce857600080fd5b505afa158015611cfc573d6000803e3d6000fd5b505050506040513d6020811015611d1257600080fd5b81019080805190602001909291905050508393509350935050611d44565b5b6000806000819150809050935093509350505b9250925092565b600160009054906101000a900473ffffffffffffffffffffffffffffffffffffffff1673ffffffffffffffffffffffffffffffffffffffff163373ffffffffffffffffffffffffffffffffffffffff1614611e0e576040517f08c379a00000000000000000000000000000000000000000000000000000000081526004018080602001828103825260138152602001807f53656e646572206973206e6f74206f776e65720000000000000000000000000081525060200191505060405180910390fd5b7f8be0079c531659141344cd1fd0a4f28419497f9722a3daafe3b4186f6b6457e0600160009054906101000a900473ffffffffffffffffffffffffffffffffffffffff1682604051808373ffffffffffffffffffffffffffffffffffffffff1673ffffffffffffffffffffffffffffffffffffffff1681526020018273ffffffffffffffffffffffffffffffffffffffff1673ffffffffffffffffffffffffffffffffffffffff1681526020019250505060405180910390a180600160006101000a81548173ffffffffffffffffffffffffffffffffffffffff021916908373ffffffffffffffffffffffffffffffffffffffff1602179055505056fea165627a7a7230582087d6729930fe1f3fa292b2f626843c730a4d621c9e9aa7846d1f84515fe473df0029",
  "source": "pragma solidity ^0.5.0;\r\n\r\nimport \"../contracts/testContracts/TellorMaster.sol\";\r\nimport \"../contracts/testContracts/Tellor.sol\";\r\nimport \"./OracleIDDescriptions.sol\";\r\nimport \"../contracts/interfaces/ADOInterface.sol\";\r\n\r\n/**\r\n* @title UserContract\r\n* This contracts creates for easy integration to the Tellor Tellor System\r\n* This contract holds the Ether and Tributes for interacting with the system\r\n* Note it is centralized (we can set the price of Tellor Tributes)\r\n* Once the tellor system is running, this can be set properly.\r\n* Note deploy through centralized 'Tellor Master contract'\r\n*/\r\ncontract UserContract is ADOInterface{\r\n    //in Loyas per ETH.  so at 200$ ETH price and 3$ Trib price -- (3/200 * 1e18)\r\n    uint256 public tributePrice;\r\n    address payable public owner;\r\n    address payable public tellorStorageAddress;\r\n    Tellor _tellor;\r\n    TellorMaster _tellorm;\r\n    OracleIDDescriptions descriptions;\r\n\r\n    event OwnershipTransferred(address _previousOwner, address _newOwner);\r\n    event NewPriceSet(uint256 _newPrice);\r\n    event NewDescriptorSet(address _descriptorSet);\r\n\r\n    /*Constructor*/\r\n    /**\r\n    * @dev the constructor sets the storage address and owner\r\n    * @param _storage is the TellorMaster address ???\r\n    */\r\n    constructor(address payable _storage) public {\r\n        tellorStorageAddress = _storage;\r\n        _tellor = Tellor(tellorStorageAddress); //we should delcall here\r\n        _tellorm = TellorMaster(tellorStorageAddress);\r\n        owner = msg.sender;\r\n    }\r\n\r\n    /*Functions*/\r\n    /*\r\n    * @dev Allows the owner to set the address for the oracleID descriptors\r\n    * used by the ADO members for price key value pairs standarization \r\n    * _oracleDescriptos is the address for the OracleIDDescptions contract\r\n    */\r\n    function setOracleIDDescriptors(address _oracleDescriptors) external {\r\n        require(msg.sender == owner, \"Sender is not owner\");\r\n        descriptions = OracleIDDescriptions(_oracleDescriptors);\r\n        emit NewDescriptorSet(_oracleDescriptors);\r\n    }\r\n\r\n    /**\r\n    * @dev Allows the current owner to transfer control of the contract to a newOwner.\r\n    * @param newOwner The address to transfer ownership to.\r\n    */\r\n    function transferOwnership(address payable newOwner) external {\r\n        require(msg.sender == owner, \"Sender is not owner\");\r\n        emit OwnershipTransferred(owner, newOwner);\r\n        owner = newOwner;\r\n    }\r\n\r\n    /**\r\n    * @dev This function allows the owner to withdraw the ETH paid for requests\r\n    */\r\n    function withdrawEther() external {\r\n        require(msg.sender == owner, \"Sender is not owner\");\r\n        owner.transfer(address(this).balance);\r\n    }\r\n\r\n    /**\r\n    * @dev Allows the contract owner(Tellor) to withdraw any Tributes left on this contract\r\n    */\r\n    function withdrawTokens() external {\r\n        require(msg.sender == owner, \"Sender is not owner\");\r\n        _tellor.transfer(owner, _tellorm.balanceOf(address(this)));\r\n    }\r\n\r\n    /**\r\n    * @dev Allows the user to submit a request for data to the oracle using ETH\r\n    * @param c_sapi string API being requested to be mined\r\n    * @param _c_symbol is the short string symbol for the api request\r\n    * @param _granularity is the number of decimals miners should include on the submitted value\r\n    */\r\n    function requestDataWithEther(string calldata c_sapi, string calldata _c_symbol, uint256 _granularity) external payable {\r\n        uint _amount = (msg.value / tributePrice)*1e18;\r\n        require(_tellorm.balanceOf(address(this)) >= _amount, \"Balance is lower than tip amount\");\r\n        _tellor.requestData(c_sapi, _c_symbol, _granularity, _amount);\r\n    }\r\n\r\n    /**\r\n    * @dev Allows the user to tip miners using ether\r\n    * @param _apiId to tip\r\n    */\r\n    function addTipWithEther(uint256 _apiId) external payable {\r\n        uint _amount = (msg.value / tributePrice)*1e18;\r\n        require(_tellorm.balanceOf(address(this)) >= _amount, \"Balance is lower than tip amount\");\r\n        _tellor.addTip(_apiId, _amount);\r\n    }\r\n\r\n    /**\r\n    * @dev Allows the owner to set the Tribute token price.\r\n    * @param _price to set for Tellor Tribute token\r\n    */\r\n    function setPrice(uint256 _price) public {\r\n        require(msg.sender == owner, \"Sender is not owner\");\r\n        tributePrice = _price;\r\n        emit NewPriceSet(_price);\r\n    }\r\n\r\n    /**\r\n    * @dev Allows the user to get the latest value for the requestId specified\r\n    * @param _requestId is the requestId to look up the value for\r\n    * @return bool true if it is able to retreive a value, the value, and the value's timestamp\r\n    */\r\n    function getCurrentValue(uint256 _requestId) public view returns (bool ifRetrieve, uint256 value, uint256 _timestampRetrieved) {\r\n        uint256 _count = _tellorm.getNewValueCountbyRequestId(_requestId);\r\n        if (_count > 0) {\r\n            _timestampRetrieved = _tellorm.getTimestampbyRequestIDandIndex(_requestId, _count - 1); //will this work with a zero index? (or insta hit?)\r\n            return (true, _tellorm.retrieveData(_requestId, _timestampRetrieved), _timestampRetrieved);\r\n        }\r\n        return (false, 0, 0);\r\n    }\r\n\r\n    /**\r\n    * @dev Allows the user to get the latest value for the requestId specified using the \r\n    * ADO specification for the standard inteface for price oracles\r\n    * @param _bytesId is the ADO standarized bytes32 price/key value pair identifier\r\n    * @return the timestamp, outcome or value/ and the status code (for retreived, null, etc...)\r\n    */\r\n    function resultFor(bytes32 _bytesId) view external returns (uint256 timestamp, int outcome, int status) {\r\n        uint _id = descriptions.getTellorIdFromBytes(_bytesId);\r\n        if (_id > 0){\r\n            bool _didGet;\r\n            uint256 _returnedValue;\r\n            uint256 _timestampRetrieved;\r\n            (_didGet,_returnedValue,_timestampRetrieved) = getCurrentValue(_id);\r\n            if(_didGet){\r\n                return (_timestampRetrieved, int(_returnedValue),descriptions.getStatusFromTellorStatus(1));\r\n            }\r\n            else{\r\n                return (0,0,descriptions.getStatusFromTellorStatus(2));\r\n            }\r\n        }\r\n        return (0, 0, descriptions.getStatusFromTellorStatus(0));\r\n    }\r\n    /**\r\n    * @dev Allows the user to get the first verified value for the requestId after the specified timestamp\r\n    * @param _requestId is the requestId to look up the value for\r\n    * @param _timestamp after which to search for first verified value\r\n    * @return bool true if it is able to retreive a value, the value, and the value's timestamp, the timestamp after\r\n    * which it searched for the first verified value\r\n    */\r\n    function getFirstVerifiedDataAfter(uint256 _requestId, uint256 _timestamp) public view returns (bool, uint256, uint256 _timestampRetrieved) {\r\n        uint256 _count = _tellorm.getNewValueCountbyRequestId(_requestId);\r\n        if (_count > 0) {\r\n            for (uint256 i = _count; i > 0; i--) {\r\n                if (\r\n                    _tellorm.getTimestampbyRequestIDandIndex(_requestId, i - 1) > _timestamp &&\r\n                    _tellorm.getTimestampbyRequestIDandIndex(_requestId, i - 1) < block.timestamp - 86400\r\n                ) {\r\n                    _timestampRetrieved = _tellorm.getTimestampbyRequestIDandIndex(_requestId, i - 1); //will this work with a zero index? (or insta hit?)\r\n                }\r\n            }\r\n            if (_timestampRetrieved > 0) {\r\n                return (true, _tellorm.retrieveData(_requestId, _timestampRetrieved), _timestampRetrieved);\r\n            }\r\n        }\r\n        return (false, 0, 0);\r\n    }\r\n\r\n    /**\r\n    * @dev Allows the user to get the first value for the requestId after the specified timestamp\r\n    * @param _requestId is the requestId to look up the value for\r\n    * @param _timestamp after which to search for first verified value\r\n    * @return bool true if it is able to retreive a value, the value, and the value's timestamp\r\n    */\r\n    function getAnyDataAfter(uint256 _requestId, uint256 _timestamp)\r\n        public\r\n        view\r\n        returns (bool _ifRetrieve, uint256 _value, uint256 _timestampRetrieved)\r\n    {\r\n        uint256 _count = _tellorm.getNewValueCountbyRequestId(_requestId);\r\n        if (_count > 0) {\r\n            for (uint256 i = _count; i > 0; i--) {\r\n                if (_tellorm.getTimestampbyRequestIDandIndex(_requestId, i - 1) >= _timestamp) {\r\n                    _timestampRetrieved = _tellorm.getTimestampbyRequestIDandIndex(_requestId, i - 1); //will this work with a zero index? (or insta hit?)\r\n                }\r\n            }\r\n            if (_timestampRetrieved > 0) {\r\n                return (true, _tellorm.retrieveData(_requestId, _timestampRetrieved), _timestampRetrieved);\r\n            }\r\n        }\r\n        return (false, 0, 0);\r\n    }\r\n\r\n}\r\n",
  "sourcePath": "C:\\users\\lloya\\documents\\dda\\1tellor\\tellor\\projects\\tellornpm\\usingtellor\\contracts\\UserContract.sol",
  "compiler": {
    "name": "solc",
    "version": "0.5.8+commit.23d335f2.Emscripten.clang"
  },
  "schemaVersion": "3.0.11",
  "updatedAt": "2019-12-17T17:29:53.811Z",
  "devdoc": {
    "methods": {
      "addTipWithEther(uint256)": {
        "details": "Allows the user to tip miners using ether\r",
        "params": {
          "_apiId": "to tip\r"
        }
      },
      "constructor": {
        "details": "the constructor sets the storage address and owner\r",
        "params": {
          "_storage": "is the TellorMaster address ???\r"
        }
      },
      "getAnyDataAfter(uint256,uint256)": {
        "details": "Allows the user to get the first value for the requestId after the specified timestamp\r",
        "params": {
          "_requestId": "is the requestId to look up the value for\r",
          "_timestamp": "after which to search for first verified value\r"
        },
        "return": "bool true if it is able to retreive a value, the value, and the value's timestamp\r"
      },
      "getCurrentValue(uint256)": {
        "details": "Allows the user to get the latest value for the requestId specified\r",
        "params": {
          "_requestId": "is the requestId to look up the value for\r"
        },
        "return": "bool true if it is able to retreive a value, the value, and the value's timestamp\r"
      },
      "getFirstVerifiedDataAfter(uint256,uint256)": {
        "details": "Allows the user to get the first verified value for the requestId after the specified timestamp\r",
        "params": {
          "_requestId": "is the requestId to look up the value for\r",
          "_timestamp": "after which to search for first verified value\r"
        },
        "return": "bool true if it is able to retreive a value, the value, and the value's timestamp, the timestamp after\r which it searched for the first verified value\r"
      },
      "requestDataWithEther(string,string,uint256)": {
        "details": "Allows the user to submit a request for data to the oracle using ETH\r",
        "params": {
          "_c_symbol": "is the short string symbol for the api request\r",
          "_granularity": "is the number of decimals miners should include on the submitted value\r",
          "c_sapi": "string API being requested to be mined\r"
        }
      },
      "resultFor(bytes32)": {
        "details": "Allows the user to get the latest value for the requestId specified using the \r ADO specification for the standard inteface for price oracles\r",
        "params": {
          "_bytesId": "is the ADO standarized bytes32 price/key value pair identifier\r"
        },
        "return": "the timestamp, outcome or value/ and the status code (for retreived, null, etc...)\r"
      },
      "setPrice(uint256)": {
        "details": "Allows the owner to set the Tribute token price.\r",
        "params": {
          "_price": "to set for Tellor Tribute token\r"
        }
      },
      "transferOwnership(address)": {
        "details": "Allows the current owner to transfer control of the contract to a newOwner.\r",
        "params": {
          "newOwner": "The address to transfer ownership to.\r"
        }
      },
      "withdrawEther()": {
        "details": "This function allows the owner to withdraw the ETH paid for requests\r"
      },
      "withdrawTokens()": {
        "details": "Allows the contract owner(Tellor) to withdraw any Tributes left on this contract\r"
      }
    },
    "title": "UserContract\r This contracts creates for easy integration to the Tellor Tellor System\r This contract holds the Ether and Tributes for interacting with the system\r Note it is centralized (we can set the price of Tellor Tributes)\r Once the tellor system is running, this can be set properly.\r Note deploy through centralized 'Tellor Master contract'\r"
  },
  "userdoc": {
    "methods": {}
  }
}